:100000000C947D020C94A5020C94A5020C9471171B
:100010000C949B170C94C5170C94A5020C94A50284
:100020000C94A5020C94081B0C94A5020C94A50238
:100030000C94A5020C94A5020C94A5020C94A502A4
:100040000C94E61E0C94A5020C94A7020C94E302F7
:100050000C94A5020C94A5020C94A5020C94A50284
:100060000C94A5020C94A50255068F06A506BB06A6
:10007000E706FD064B0953065306CF09E509FB09C0
:10008000110A77098D094307C2074508E507A90842
:100090005306530653065306530653065306530698
:1000A000D1066109A309B90953065306530653063D
:1000B000530653065306E3085306530653065306E6
:1000C0005306530653065306530653065306530668
:1000D000530653065306530653060109084AD73BF5
:1000E0003BCE016E84BCBFFDC12F3D6C74319ABD07
:1000F00056833DDA3D00C77F11BED9E4BB4C3E912B
:100100006BAAAABE000000803F05A84CCDB2D44E19
:10011000B93836A9020C50B9918688083CA6AAAA1B
:100120002ABE000000803F3131313131313131316F
:100130003000313131313131313131300031313113
:1001400031313131313130003131313131313131D1
:1001500031300031313130303000313131303030F8
:100160000031313130303000313131303030003118
:100170003000313000313000313000310031003199
:10018000003100270153016F017B0132015A0172D6
:10019000017D013D01610175017F01480168017820
:1001A00001810141524D494E47204D4F544F52530A
:1001B0000050726541726D3A205243206E6F742078
:1001C00063616C696272617465640050726541724A
:1001D0006D3A204261726F206E6F74206865616CA9
:1001E0007468790050726541726D3A20436F6D708A
:1001F000617373206E6F74206865616C7468790038
:1002000050726541726D3A2042616420475053201C
:10021000506F7300636F6D706173732064697361F5
:10022000626C656400636865636B20636F6D706109
:100230007373004D6F746F7220546573743A20525B
:1002400043206E6F742063616C69627261746564CF
:10025000004D6F746F7220546573743A2076656830
:1002600069636C65206E6F74206C616E64656400F8
:1002700043726173683A2044697361726D696E6795
:10028000005061726163687574653A2052656C65EF
:1002900061736564006572726F722073657474694E
:1002A0006E672072616C6C7920706F696E740041AA
:1002B00075746F54756E653A205374617274656419
:1002C000004175746F54756E653A2053746F707089
:1002D0006564005472696D20736176656400454BF6
:1002E000462076617269616E636500766572696643
:1002F000795F6E61763A20696E76616C6964206F11
:1003000072206E6F2063757272656E74206E6176F6
:10031000007665726966795F636F6E6469746F6E8B
:100320003A20696E76616C6964206F72206E6F206E
:1003300063757272656E7420636F6E646974696F41
:100340006E0044697361626C652066656E6365204A
:100350006661696C656420286175746F6469736196
:10036000626C6529004553432043616C3A207265F5
:10037000737461727420626F61726400455343202C
:1003800043616C3A2070617373696E672070696CA9
:100390006F742074687220746F2045534373004C4F
:1003A0006F772042617474657279004C6F737420AA
:1003B0004750530046656E63652064697361626CE3
:1003C000656420286175746F64697361626C652966
:1003D00000A301B101CB01E40100021402250233A4
:1003E000025102700281029502AF02C102D302DE05
:1003F00002EB021103420365037C039F03AB03B4CA
:100400000300C201000100110011000C0000E10016
:10041000000A00250025002100009600001900397F
:100420000039003600127A00001F004600460044E2
:10043000008070000022004D004D004A00004B007B
:10044000003600750075007200403800004A009CBC
:10045000009C009900802500007200EC00EC00E98F
:1004600000C0120000E900DA01DA01D701600900DA
:1004700000D701B603B603B303B0040000B3036EA4
:10048000076E076B07580200006E07DC0EDC0ED803
:100490000E2C010000DC0EC11DC11DBE1D000000A0
:1004A00000240027002A0000000000250028002B5F
:1004B00000000000002300260029000404040404B6
:1004C0000404040202020202020303030303030101
:1004D00002040810204080010204081020010204D8
:1004E00008102000000007000201000003040600BD
:1004F0000000000000000000310311241FBECFEFF8
:10050000D8E0DEBFCDBF12E0A0E0B1E0EAEEF8E453
:1005100002C005900D92A838B107D9F714E0A8E8F9
:10052000B2E001C01D92AA36B107E1F714E0CAEFAC
:10053000D4E004C02297FE010E946F24C83FD10777
:10054000C9F70E9464200C9473240C9400001F923D
:100550000F920FB60F9211242F933F934F938F93C7
:100560009F93EF93FF934091C600209148043091F0
:1005700049042F5F3F4F80914C0490914D042823F4
:10058000392380914A0490914B042817390779F058
:100590008091480490914904E0914E04F0914F04F9
:1005A000E80FF91F40833093490420934804FF91DA
:1005B000EF919F918F914F913F912F910F900FBE8F
:1005C0000F901F9018951F920F920FB60F92112443
:1005D0002F933F938F939F93EF93FF932091520418
:1005E0003091530480915004909151042817390799
:1005F000E9F08091520490915304E0915604F091F7
:100600005704E80FF91F80818093C600809152043F
:100610009091530401962091540430915504822303
:100620009323909353048093520410C0209150045C
:100630003091510480915204909153042817390746
:1006400029F48091C1008F7D8093C100FF91EF91CB
:100650009F918F913F912F910F900FBE0F901F9000
:1006600018958F92AF92CF92EF92FF920F931F93B4
:100670008AE892E060E045EC50E024EC30E000ECE9
:1006800010E0F1ECEF2EF12CCC24C394E8E9AE2E6F
:1006900070E2872E0E94421B80E88093AB0210928A
:1006A000AC028091AC028093AE028091AE02809346
:1006B000AD021F910F91FF90EF90CF90AF908F9070
:1006C0000895EF92FF921F93CF93DF93E0918802FA
:1006D000F091890286A1882319F082E061E002C0CE
:1006E00082E060E00E940F20E0918802F091890290
:1006F00081A592A5039744F087A190A5893C910517
:1007000018F484E061E002C084E060E00E940F2001
:10071000E0918802F091890283A594A5029718F0D0
:1007200083E061E002C083E060E00E940F20E0917E
:100730008802F091890225A536A580913703909112
:1007400038038217930741F0109236031092350355
:100750003093380320933703809137039091380307
:100760008230910531F08630910549F0892B21F0D6
:1007700009C0C1E0D0E008C0C0E0D0E005C0C2E0E0
:10078000D0E002C0C3E0D0E07E01EE0CFF1C83E8A5
:1007900091E0E80EF91EF70125913491809135031F
:1007A00090913603280F391FF901849160E081335D
:1007B00009F461E089E00E940F20CE01880F991FA3
:1007C00085579E4FFC01259134918091350390917E
:1007D0003603280F391FF901849160E0813309F451
:1007E00061E08AE00E940F20CE01880F991F8D568C
:1007F0009E4FFC01259134918091350390913603F1
:10080000280F391FF901849110E0813309F411E0B8
:1008100087E0612F0E940F208DE0612F0E940F2042
:10082000CE01880F991F85569E4FFC01259134916A
:100830008091350390913603280F391FF901849177
:1008400060E0813309F461E088E00E940F2080912C
:1008500035039091360301969093360380933503C8
:10086000F70145915491480F591FFA01849188234B
:1008700021F41092360310923503DF91CF911F912E
:10088000FF90EF90089589E060E00E940F208AE0D9
:1008900060E00E940F2087E060E00E940F2088E067
:1008A00060E00E940F2083E060E00E940F2082E061
:1008B00060E00E940F2084E060E00E940F208DE045
:1008C00060E00E940F20089589E061E00E940F20FF
:1008D0008AE061E00E940F2087E061E00E940F2023
:1008E00088E061E00E940F2083E061E00E940F2019
:1008F00082E061E00E940F2084E061E00E940F200E
:100900008DE061E00E940F20089526C020918802AA
:10091000309189028091AC0281508093AC02809129
:10092000AE026091AB02772767FD7095992787FD2E
:1009300090950E941D248093AE028091AE02E82F14
:10094000FF27E7FDF095E555FD4F64818F5F8093AC
:10095000AE02C9010E9495148091AC021816B4F23F
:1009600008950E94610380912F03909130030196B6
:100970009093300380932F0362E370E00E941D2464
:10098000892B91F41092300310922F036091A902E9
:100990007091AA0240918802509189028091A70229
:1009A0009091A8020E94CA0B80912F03909130036E
:1009B0006AE070E00E941D24892BC9F46091A902AD
:1009C0007091AA0240918802509189028091A702F9
:1009D0009091A8020E94430BE0918802F091890255
:1009E00087819085009719F0019790878783809180
:1009F0002F0380FD0EC06091A9027091AA02409160
:100A00008802509189028091A7029091A8020E94C9
:100A1000930A0895E0918802F091890282818823E7
:100A2000A1F40E942E1FE0918802F0918902238197
:100A3000348145815681621B730B840B950B695879
:100A400073418040904008F47BC00E942E1F20918B
:100A50003103309132034091330350913403621BD0
:100A6000730B840B950B615D77408040904008F4D8
:100A700067C08AE892E00E94111C809188029091E0
:100A800089020E94FD0E80918802909189020E9445
:100A90000C0E62E370E080E090E00E943C1F8091C9
:100AA0008802909189020E940C0E62E370E080E05F
:100AB00090E00E943C1F80918802909189020E94E0
:100AC0000C0E62E370E080E090E00E943C1FE09139
:100AD0008802F091890212820E942E1F60933103D6
:100AE00070933203809333039093340329C08AE8D0
:100AF00092E00E94C41B282F8091AC028091AC022E
:100B00008091AC028F5F8093AC028091AD026091C6
:100B1000AB02772767FD7095992787FD90950E9416
:100B20001D248093AD02E091AD02FF27E7FDF09513
:100B3000E555FD4F24838091AD028F5F8093AD0218
:100B40008AE892E00E94941B1816190684F20E940B
:100B5000850408950F931F938CE190E00E94752007
:100B6000182F092F66E045E021E00E941B1A109320
:100B7000A9020093AA02812F902F40E855E260E07D
:100B800070E00E94EF178AE892E040E051EE60E0EA
:100B900070E00E94321B8AE892E00E94111C8CEBEC
:100BA00090E00E947520182F092F6AE872E00E94D9
:100BB000410C109388020093890282E490E00E9425
:100BC0007520182F092F0E942E061093A70200935C
:100BD000A80289E061E00E94D01F8AE061E00E94E3
:100BE000D01F87E061E00E94D01F88E061E00E9492
:100BF000D01F83E061E00E94D01F8DE061E00E9481
:100C0000D01F84E061E00E94D01F82E061E00E947A
:100C1000D01F00E010E000FF03C00E94640402C087
:100C20000E94430462E370E080E090E00E943C1F79
:100C30000F5F1F4F083C110571F764E670E080E01C
:100C400090E02FE632E143E85AE301EB14E00E9422
:100C5000491A0E94A71A1F910F910895FC01E05CA8
:100C6000FF4F1182108208958F929F92BF92CF9270
:100C7000DF92EF92FF920F931F93CF93DF934C017C
:100C8000EA01772767FD7095872F972FFB01319732
:100C9000EA33F10540F4EC5CFF4FEE0FFF1F0590C7
:100CA000F491E02D099480E0D8C3E881F9810190A6
:100CB000F081E02DCA0109956B017C0120E430E050
:100CC000820E931EF40180819181840100541040B2
:100CD000080F191F4EE5B42EF801B08281E0818320
:100CE000C701B6010E94D821F8016283272F33275C
:100CF00027FD3A952383B48229E02583882777FD51
:100D00008095982F0E940B229B01AC01C701B60170
:100D10000E94A22020E030E44CE156E4B1C2E88118
:100D2000F9810280F381E02DCA01099520E430E0C9
:100D3000820E931EF40120813181E054F040E20FD5
:100D4000F31F2EE5208322E081C3E881F98104802E
:100D5000F581E02DCA01099520E430E0820E931E52
:100D6000F40120813181E054F040E20FF31F2EE5C1
:100D7000208323E06BC3E881F9810680F781E02DB1
:100D8000CA01099520E430E0820E931EF40120810F
:100D90003181E054F040E20FF31F2EE5208324E080
:100DA00055C3E881F981008CF18DE02DCA010995C8
:100DB00020E430E0820E931EF40120813181E05462
:100DC000F040E20FF31F2EE520832DE13FC3E881C1
:100DD000F9810084F185E02DCA01099520E430E015
:100DE000820E931EF40120813181E054F040E20F25
:100DF000F31F2EE5208325E029C3009139031091CC
:100E00003A03E881F98100A8F1A9E02DCA0109950A
:100E10000817190730F48091390390913A03069727
:100E200020F010923A0310923903E881F98102A868
:100E3000F3A9E02DCE01099520E430E0820E931E47
:100E4000F40120813181E054F040E20FF31F2EE5E0
:100E5000208326E021836091390370913A03292F82
:100E6000332727FD3A95AB0104E0440F551F0A953F
:100E7000E1F7240F228383836F5F7F4F70933A03E0
:100E800060933903E9C2E881F9810284F385E02D9A
:100E9000CA0109956B017C0120E430E0820E931EAB
:100EA000F4010081118120EC3FEF820E931E080DAA
:100EB000191D8EE5F801808380E18183C701B601A9
:100EC0000E94D821EB01F8016283872F992787FDC3
:100ED0009A958383C701B60120E030E040E050E0FE
:100EE0000E94222318166CF4C701B6010E94DD216E
:100EF00080E090E00E9409229B01AC01C701B6018D
:100F000020C0C701B60120E030E040E050E00E9480
:100F1000692118166CF0C701B60120E030E040E806
:100F20005FEB0E94222318161CF460E070E013C0EF
:100F3000BE01882777FD8095982F0E940B22A7017C
:100F400096010E94A22020E030E048EC52E40E948A
:100F50002D230E94DD2120E430E0820E931EF40157
:100F600080819181E054F040E80FF91F8EE5848381
:100F700081E285836683872F992787FD9A958783EA
:100F800088E06BC2E881F9810484F585E02DCA010F
:100F900009950E94D82120E430E0820E931EF401CE
:100FA00020813181E054F040E20FF31F3EE53083B1
:100FB00021E121836283672F770F770B638334836B
:100FC00089E1858316821782DBCFE881F981008869
:100FD000F189E02DCA0109956B017C0120E430E024
:100FE000820E931EF4010081118120EC3FEF820EEE
:100FF000931E080D191D6EE5B62EF801B08283E12F
:101000008183C701B6010E94D821F8016283272F8E
:10101000332727FD3A952383B4822BE12583882744
:1010200077FD8095982F0E940B229B01AC01C70190
:10103000B6010E94A22020E030E44CE156E40E9478
:101040002D230E94DD21F8016683672F770F770B30
:101050006783C701B60120E030E040E050E00E9425
:10106000692187FD02C02EE401C023E580E490E001
:10107000880E991EF40180819181E054F040E80FC0
:10108000F91F8EE5808783E25FC0E881F9810684DD
:10109000F785E02DCA0109956B017C0120E430E061
:1010A000820E931EF4010081118120EC3FEF820E2D
:1010B000931E080D191D3EE5B32EF801B08282E1A2
:1010C0008183C701B6010E94D821F8016283272FCE
:1010D000332727FD3A952383B4822AE12583882785
:1010E00077FD8095982F0E940B229B01AC01C701D0
:1010F000B6010E94A22020E030E44CE156E40E94B8
:101100002D230E94DD21F8016683672F770F770B6F
:101110006783C701B60120E030E040E050E00E9464
:10112000692187FD02C025E401C027E580E490E045
:10113000880E991EF40180819181E054F040E80FFF
:10114000F91F8EE5808782E28187228713868CE0F3
:1011500084C1E881F9810288F389E02DCA010995EB
:101160006B017C0120E430E0820E931EF40180814B
:101170009181840100541040080F191F8EE5B82E8C
:10118000F801B08284E18183C701B6010E94D821B1
:10119000F8016283272F332727FD3A952383B482F2
:1011A0002CE12583882777FD8095982F0E940B22BC
:1011B0009B01AC01C701B6010E94A22020E030E0F3
:1011C0004AE754E45DC0E881F9810488F589E02D9F
:1011D000CA0109950E94D82120E430E0820E931EB6
:1011E000F40120813181E054F040E20FF31F2EE53D
:1011F000208328E221836283672F770F770B638335
:101200002BC1E881F9810688F789E02DCA0109958B
:1012100022EC37E146E05FE30E942D236B017C0165
:1012200020E430E0820E931EF401808191818401DC
:1012300000541040080F191F6EE5B62EF801B08259
:101240008AE38183C701B6010E94D821F801628335
:10125000272F332727FD3A952383B4822BE3258359
:10126000882777FD8095982F0E940B229B01AC0167
:10127000C701B6010E94A22020E030E040E251E424
:101280000E942D230E94DD21F8016683672F770FCE
:10129000770B678375CEE881F98102A4F3A5E02D71
:1012A000CA01099520E430E0820E931EF4012081EA
:1012B0003181E054F040E20FF31F2EE5208327E058
:1012C000C5C0E881F981028CF38DE02DCA01099532
:1012D00020E430E0820E931EF40120813181E0543D
:1012E000F040E20FF31F2EE520832EE1AFC0E8812E
:1012F000F981048CF58DE02DCA01099520E430E0D8
:10130000820E931EF40120813181E054F040E20FFF
:10131000F31F2EE520832EE099C0E881F981068C29
:10132000F78DE02DCA01099520E430E0820E931E6E
:10133000F40120813181E054F040E20FF31F2EE5EB
:1013400020832FE083C0E881F98100A0F1A1E02D86
:10135000CA01099520E430E0820E931EF401208139
:101360003181E054F040E20FF31F2EE520832FE19E
:101370006DC0E881F98102A0F3A1E02DCA010995B1
:1013800020E430E0820E931EF40120813181E0548C
:10139000F040E20FF31F2EE5208320E257C0E881E2
:1013A000F98104A0F5A1E02DCA01099520E430E0FF
:1013B000820E931EF40120813181E054F040E20F4F
:1013C000F31F2EE520832AE041C0E881F98106A0C1
:1013D000F7A1E02DCA01099520E430E0820E931EAA
:1013E000F40120813181E054F040E20FF31F2EE53B
:1013F00020832BE02BC0E881F98100A4F1A5E02D2A
:10140000CA01099520E430E0820E931EF401208188
:101410003181E054F040E20FF31F2EE520832CE0F1
:1014200015C0E881F98104A4F5A5E02DCA0109954C
:1014300020E430E0820E931EF40120813181E054DB
:10144000F040E20FF31F2EE520832DE021838283FD
:10145000892F990F990B838384E0DF91CF911F919E
:101460000F91FF90EF90DF90CF90BF909F908F9063
:101470000895CF92DF92EF92FF920F931F93CF9335
:10148000DF936B01EA017C0100E010E03EC0C8017F
:1014900083709070892B59F1D7016C916D3591F063
:1014A000E881F9816E35F1F40190F081E02DCE01F3
:1014B0006DE50995E881F9810190F081E02DCE017B
:1014C0006EE31DC0E881F9810190F081E02DCE012D
:1014D0006DE50995E881F9810190F081E02DCE015B
:1014E0006DE30DC00190F081E02DCE0108C0E881D0
:1014F000F9810190F081E02DCE01D7016C91099521
:101500000F5F1F4F0894E11CF11C0C151D050CF416
:10151000BECF80E0DF91CF911F910F91FF90EF90B0
:10152000DF90CF9008958F929F92AF92BF92CF920B
:10153000DF92EF92FF920F931F937C014B015A01B0
:1015400050E4C52ED12CC80ED91EF60100811181A0
:101550006DE1A5010E943406080F111DF6011183EB
:101560000083C70162E0A5010E943406080F111D27
:10157000F60111830083C70165E0A5010E943406CE
:10158000080F111DF60111830083C70160E1A50159
:101590000E943406080F111DF60111830083C70154
:1015A00064E1A5010E943406080F111DF6011183A4
:1015B0000083C7016AE0A5010E943406080F111DCF
:1015C000F60111830083C70168E2A5010E94340679
:1015D000080F111DF60111830083C7016FE0A501FB
:1015E0000E943406080F111DF60111830083C70104
:1015F0006AE3A5010E943406080F111DF60111834C
:101600000083C7016CE0A5010E943406080F111D7C
:10161000F60111830083C70163E0A5010E9434062F
:10162000080F111DF60111830083C70167E0A501B2
:101630000E943406080F111DF60111830083C701B3
:1016400066E0A5010E943406080F111DF701E00FA6
:10165000F11F8EE580830F5F1F4FF601118300831A
:10166000C701B801A4010E94390AF60180831182E2
:101670001F910F91FF90EF90DF90CF90BF90AF90B0
:101680009F908F9008958F929F92AF92BF92CF922A
:10169000DF92EF92FF920F931F937C014B015A014F
:1016A00060E4C62ED12CC80ED91EF601008111812E
:1016B00064E00E943406080F111DF60111830083B7
:1016C000C70163E1A5010E943406080F111DF60150
:1016D00011830083C70162E1A5010E943406080F4F
:1016E000111DF60111830083C7016EE1A5010E945F
:1016F0003406080F111DF60111830083C7016EE047
:10170000A5010E943406080F111DF6011183008304
:10171000C7016DE0A5010E943406080F111DF601F6
:1017200011830083C70161E0A5010E943406080F00
:10173000111DF60111830083C70161E1A5010E941B
:101740003406080F111DF60111830083C7016BE0F9
:10175000A5010E943406080F111DF701E00FF11FCB
:101760008EE580830F5F1F4FF60111830083C70151
:10177000B801A4010E94390AF601808311821F91E9
:101780000F91FF90EF90DF90CF90BF90AF909F9020
:101790008F9008958F929F92AF92BF92CF92DF92D7
:1017A000EF92FF920F931F937C014B015A0170E45B
:1017B000C72ED12CC80ED91EF6010081118160E21E
:1017C0000E943406080F111DF60111830083C70122
:1017D0006FE1A5010E943406080F111DF701E00F0B
:1017E000F11F8EE580830F5F1F4FF6011183008389
:1017F000C701B801A4010E94390AF6018083118251
:101800001F910F91FF90EF90DF90CF90BF90AF901E
:101810009F908F900895CF92DF92EF92FF920F9357
:101820001F93CF93DF938C016B017A01C0E0D0E06E
:101830001CC0F601EC0FFD1F60810115110521F0A0
:101840000130110589F405C0E0915904F0915A0462
:1018500004C0E0915B04F0915C04A081B1812D9102
:101860003C91CF01F90109952196CE15DF0508F3CA
:10187000DF91CF911F910F91FF90EF90DF90CF906C
:101880000895FC0180E191E09183808370935A0474
:10189000609359048CE08093000181E08093010102
:1018A0001092020110920301138214821582168293
:1018B000828310861782E65BFF4F20E030E040E035
:1018C00050E02193319341935193119211921182DF
:1018D0001082E055F04012A611A6EE5AFF4F219358
:1018E00031934193519321933193419351932083A9
:1018F000318342835383EA55F04087EE93E090A70B
:1019000087A3E25AFF4F1192119221933193419391
:101910005193219331934193519320833183428397
:101920005383E856F04083E690E096A785A7E259F6
:10193000FF4F1192119211921192118210823697DB
:10194000118210823E9611921192119211928EE0A4
:1019500091E0918380833A97118210827096118270
:101960001082E458F04021873287438754872587C7
:1019700036874787508B218B328B438B548BEE57A6
:10198000FF4F118210828AE590E092938293E05893
:10199000F040258F368F478F50A321A332A343A356
:1019A00054A3EA58FF4F1192119211821082E85706
:1019B000F04014A613A616A20895FC01E65BFF4FA3
:1019C0002081318142815381B901CA010895FC010E
:1019D000E25BFF4F60817181882777FD8095982FAA
:1019E0000E940B220895FC01E05BFF4F80819181F2
:1019F0000895FC01EE5AFF4F6081718182819381CD
:101A000020E836E948E15BE40E9470210895FC017A
:101A1000EA5AFF4F608171818281938120E836E923
:101A200048E15BE40E9470210895FC0187A190A524
:101A3000885E934020F087EE93E090A787A387A16C
:101A400090A50895DC01FC01E25AFF4F808191814D
:101A50009C0153E0220F331F5A95E1F7880F991F1D
:101A6000280F391F99968D919C919A97280F391FAD
:101A7000C9010895FC01E05AFF4F20813181428164
:101A80005381B901CA010895FC01E859FF4F208133
:101A9000318142815381B901CA010895FC0185A5B4
:101AA00096A50895FC0186A108950F931F938C01BC
:101AB000DC01ED91FC9106A4F7A5E02D0995F80154
:101AC000E259FF4FD801A059BF4F882339F0208138
:101AD00031818D919C91281B390B04C0208131816B
:101AE0002D933C9337FF02C028593E4FB9018827F8
:101AF00077FD8095982F0E940B221F910F910895DA
:101B0000FC01EE58FF4F808191810895FC01E4595A
:101B1000FF4F808191810895FC01E658FF4F80813D
:101B200091810895FC01E458FF4F808191810895CF
:101B3000FC01E258FF4F0190F081E02D9F01225FF0
:101B40003E4F81E0283638071CF09F012A5530406F
:101B5000C9010895FC01EC58FF4F808191810895DF
:101B6000FC01EA58FF4F808191810895FC01E858FB
:101B7000FF4F808191810895FC0187819085892B99
:101B800011F414A613A683A594A508950F931F938B
:101B9000CF93DF9340E050E0EC01CA57DF4FFA01EA
:101BA000EE0FFF1FEF52FC4F659174918E01A1E083
:101BB000FB012491222391F0AA2381F0A0E030E0E0
:101BC000F8018081992787FD90952817390709F436
:101BD000A1E06F5F7F4F0F5F1F4FEACF4F5F5F4FF7
:101BE0004931510519F0AA23D1F204C0AA2311F4F6
:101BF00043E650E0CA01DF91CF911F910F91089504
:101C0000FC01E854FF4F808191810895FC01E65466
:101C1000FF4F8081918108952F923F924F925F9262
:101C20006F927F928F929F92AF92BF92CF92DF92EC
:101C3000EF92FF920F931F93DF93CF93CDB7DEB751
:101C40002E970FB6F894DEBF0FBECDBF7C0100E02B
:101C500010E053E0C52ED12CCC0EDD1E42E4242E24
:101C60003AE0432E512C4C0E5D1E2FE0622E712C5B
:101C70006C0E7D1E99E0892E912C8C0E9D1E84E9A0
:101C8000382E5E010894A11CB11CF70134A946A9A5
:101C9000F801EE5AFD4F2081F801EC5BFD4F808189
:101CA00091819C838B833D834E832F83F1E0F88762
:101CB0008EEF8987E6E0EA879091B2039B87809157
:101CC00000018C87809101018D872E869F5F909304
:101CD000B2036FEF7FEFF2011CC021912627822F04
:101CE0008295807F822790E0382F2227AC01A3E0E5
:101CF000440F551FAA95E1F724273527672F77272B
:101D000062277327A4E095958795AA95E1F7682740
:101D10007927E615F70509F7F6011AC0819186279C
:101D2000282F2295207F282730E0722F6627C901AF
:101D300043E0880F991F4A95E1F7682779276A27BA
:101D40007B27B4E035952795BA95E1F7622773278D
:101D5000A72FBB27E815F90509F7862F8325282F1C
:101D60002295207F282730E0922F8827A90163E061
:101D7000440F551F6A95E1F7842795278A279B27EB
:101D800074E0359527957A95E1F782279327898323
:101D90009A8380E090E0BF0146E050E00E940B0C87
:101DA00080E090E0B60146E050E00E940B0C80E03D
:101DB00090E0B50142E050E00E940B0C0E5F1F4F17
:101DC0000E30110509F061CF2E960FB6F894DEBFE4
:101DD0000FBECDBFCF91DF911F910F91FF90EF907C
:101DE000DF90CF90BF90AF909F908F907F906F903B
:101DF0005F904F903F902F900895FC0113821482C2
:101E000015821682E65BFF4F20E030E040E050E0B4
:101E10002193319341935193119211921182108227
:101E2000E055F04012A611A6E65AFF4F20833183F9
:101E300042835383EA55F04087EE93E090A787A34F
:101E4000E25AFF4F11921192219331934193519392
:101E50002193319341935193208331834283538360
:101E6000E856F04083E690E096A785A7EE58FF4F2E
:101E700011821082729611821082E458F04014A6EA
:101E800013A6EA58FF4F11921192119211921192DA
:101E90001192119211928EE091E0918380833A9792
:101EA00011821082E457F040258736874787508B90
:101EB000218B328B438B548B258F368F478F50A3CA
:101EC00021A332A343A354A308952F923F924F928C
:101ED0005F926F927F928F929F92AF92BF92CF92BA
:101EE000DF92EF92FF920F931F93DF93CF9300D077
:101EF00000D0CDB7DEB79C838B83DC01ED91FC91E4
:101F000006A4F7A5E02D0995EB81FC8121A532A55A
:101F1000882309F41BC123303105BCF0E65AFF4F7A
:101F20006081718182819381AB81BC8119962D91F1
:101F30003D914D915C911C970E94A220EB81FC8108
:101F4000618B728B838B948B0AC080E090E0A0E061
:101F5000B0E0EB81FC81818B928BA38BB48BAB8146
:101F6000BC8195968C919597AE57BF4FBA83A98344
:101F7000882309F4DEC0EB81FC81EE5AFF4F6081BB
:101F800071818281938120E836E948E15BE40E9417
:101F900070217B018C01EB81FC81658F768F878FAF
:101FA00090A3EA5AFF4F608171818281938120E87A
:101FB00036E948E15BE40E9470213B014C01AB81B2
:101FC000BC8191966D937D938D939C939497559638
:101FD0006D917D918D919C915897A80197010E94D8
:101FE000A2201B012C019F7720EC3BE649ED57E432
:101FF0000E942D235B016C01EB81FC81618D728D50
:10200000838D948DA40193010E94A2209F7720ECE0
:102010003BE649ED57E40E942D23EB81FC81FE96BF
:1020200020813181428153810E942D237B018C01CB
:10203000C601B501A60195010E942D235B016C012B
:10204000C801B701A80197010E942D239B01AC0193
:10205000C601B5010E94A3200E9494230E94DD21A5
:10206000A981BA816D937C93EB81FC81EE5BFF4F7C
:10207000C201B10120813181428153810E942D230F
:102080007B018C01EB81FC81618D728D838D948D40
:10209000A40193010E94A2209B01AC015058C801E9
:1020A000B7010E94162120EE3EE245E652E40E946E
:1020B0002D2320E030E044EB52E40E94A3200E9454
:1020C000D82197FF04C068597E4F8F4F9F4F9B01C7
:1020D000AC01245B30404040504057FF06C09B019C
:1020E000AC012C543F4F4F4F5F4F0B811C81025965
:1020F0001F4FD8018D919C911197AE56B040BC8373
:10210000AB83AA2797FDA095BA2F79018A01E81A17
:10211000F90A0A0B1B0BD801C70117FF04C0885925
:102120009E4FAF4FBF4F0B811C8100581F4FF801CE
:102130000AC0A981BA811D921C92EB81FC81E058F2
:10214000FF4F8AE590E091838083C5C0EB81FC81DD
:10215000E059FF4F0B811C8102591F4FD8018D910F
:102160009C9111979183808352968AE590E08D939C
:102170009D9311961C921E929897BC83AB838D9170
:102180009D910D90BC91A02DEB81FC81EA55F04012
:10219000FC83EB83818B928BA38BB48B2330310533
:1021A0000CF47BC081879287A387B487EE5AFF4FD8
:1021B000608171818281938120E836E948E15BE4A6
:1021C0000E9470217B018C01AB81BC815D966D9377
:1021D0007D938D939C939097FD01EA5AFF4F608108
:1021E00071818281938120E836E948E15BE40E94B5
:1021F0007021EB81FC8161A372A383A394A3E58A80
:10220000F68A078B108F618F728F838F948FE8947B
:1022100017F9C801B70125E33AEF4EE85CE30E94E5
:102220002D230B811C810A5B1F4F1C830B83162FF0
:10223000072FF82EE92E262F372F482F592FAB8145
:10224000BC812D933D934D935C931397B901CA01C3
:102250000E946D21EB81FC813897DF016D937D93A6
:102260008D939D93BC83AB83612F702F8F2D9E2DFB
:102270000E946D219B01AC0160E070E080E89FE36B
:102280000E947021EB81FC81608371838283938340
:10229000E254F04081E085A31EC0AB81BC819596DD
:1022A0001C9280E090E0A0E0B0E0EB81FC818187AF
:1022B0009287A387B487858F968FA78FB0A381A3BA
:1022C00092A3A3A3B4A3858B968BA78BB08F818F8A
:1022D000928FA38FB48F0F900F900F900F90CF918C
:1022E000DF911F910F91FF90EF90DF90CF90BF9003
:1022F000AF909F908F907F906F905F904F903F90A6
:102300002F9008950F931F938C010E94650F0E5715
:102310001F4FF801808191811F910F9108950F93B4
:102320001F938C010E94650F00581F4FF801808198
:1023300091811F910F9108950F931F938C010E941B
:10234000650FF801618972898389948920E030E002
:102350004AE754E40E9470211F910F9108958F92D3
:102360009F92AF92BF92CF92DF92FF920F931F93F3
:10237000CF93DF93F62E4901C82EDD248601000F8E
:10238000111F5801AC0CBD1CE501CC0FDD1FCC0F9B
:10239000DD1FC555DC4F18828B819C8184309105EF
:1023A00009F48EC0853091055CF48230910509F402
:1023B00043C0833091050CF0BFC09923C4F44FC2D1
:1023C0008730910509F443C18830910544F4853084
:1023D000910509F4DEC0069709F041C207C18830B3
:1023E000910509F47AC1099709F039C2E7C18EEF66
:1023F000681709F034C282E090E09C838B8380E709
:1024000090E0C89ED001C99EB00DD89EB00D112499
:10241000A55CBC4F13961C92139788E390E0C89E6E
:10242000F001C99EF00DD89EF00D1124EE0FFF1F94
:10243000E35CFC4F6083A4C1E5E6E61788F489817C
:102440008F5F8983F501EE0FFF1FEE0FFF1FE3552E
:10245000FC4F80818F5F8083188281E090E02DC0E7
:1024600080E790E0C89EF001C99EF00DD89EF00D67
:102470001124E55CFC4F63831D8280818627282F11
:102480002295207F282730E0522F4427C90163E09E
:10249000880F991F6A95E1F748275927818190E0B5
:1024A0004827592784E0359527958A95E1F74227F3
:1024B00053275183408384E090E09C838B83CFC17A
:1024C0008CE190E0C89EF001C99EF00DD89EF00D01
:1024D0001124EE0FFF1FEE0FFF1FE15CFC4F608326
:1024E00080E790E0C89EF001C99EF00DD89EF00DE7
:1024F0001124E55CFC4F80818627282F2295207FC0
:10250000282730E0522F4427C901B3E0880F991FD4
:10251000BA95E1F748275927818190E04827592744
:10252000A4E035952795AA95E1F7422753275183D3
:10253000408383E090E0C1CF80E790E0C89EF00147
:10254000C99EF00DD89EF00D1124E55CFC4F65830B
:1025500080818627282F2295207F282730E0522F40
:102560004427C90163E0880F991F6A95E1F748275E
:102570005927818190E04827592704E03595279510
:102580000A95E1F7422753275183408385E090E085
:1025900094CF80E790E0C89EF001C99EF00DD89ED0
:1025A000F00D1124E55CFC4F668380818627282F7F
:1025B0002295207F282730E0522F4427C901B3E01D
:1025C000880F991FBA95E1F748275927818190E034
:1025D00048275927A4E035952795AA95E1F7422782
:1025E00053275183408386E090E067CF80E790E0F7
:1025F000C89EF001C99EF00DD89EF00D1124E55C37
:10260000FC4F678380818627282F2295207F2827EB
:1026100030E0522F4427C90163E0880F991F6A9563
:10262000E1F748275927818190E04827592794E00E
:10263000359527959A95E1F7422753275183408393
:102640008381882309F446C087E090E036CF6D810E
:10265000F80183E0EE0FFF1F8A95E1F7E01BF10B15
:102660003196B3E0EE0FFF1FBA95E1F7E60FF11DCB
:10267000E55CFC4FF0826F5F6D8380E790E0C89E61
:10268000F001C99EF00DD89EF00D1124E55CFC4FC1
:1026900080818F25282F2295207F282730E0522FF8
:1026A0004427C90173E0880F991F7A95E1F74827FD
:1026B0005927818190E04827592794E0359527953F
:1026C0009A95E1F742275327518340838381681706
:1026D00009F0C5C088E090E0F0CE80E790E0C89EA9
:1026E000D001C99EB00DD89EB00D1124A55CBC4F81
:1026F0009C911796EC911797F0E0EC5BFE4F808170
:102700008927482F4295407F482750E0342F2227C1
:10271000CA01F3E0880F991FFA95E1F728273927B6
:1027200011968C91119790E028273927E4E0559570
:102730004795EA95E1F72427352711963C932E9388
:10274000862F90E0307082179307F9F0F501EE0FB5
:10275000FF1FEE0FFF1FE355FC4F80818F5F8083CB
:10276000188281E090E09C838B83FEEF6F1709F065
:1027700076C082E090E09C838B8313961C92139723
:102780008FEF9FEF8D939C936AC089E090E09C83CC
:102790008B83F80163E0EE0FFF1F6A95E1F7E01B02
:1027A000F10B319653E0EE0FFF1F5A95E1F78D8143
:1027B000E80FF11DE55CFC4FF08251C0262F30E0A0
:1027C00080E790E0C89EB001C99E700DD89E700D44
:1027D0001124655C7C4FFB01818190E0281739074B
:1027E000E9F0F501EE0FFF1FEE0FFF1FE355FC4F61
:1027F00080818F5F8083188281E090E09C838B834F
:10280000FEEFFF1661F582E090E09C838B83EB0185
:102810001B828FEF9FEF9983888321C081E088839B
:1028200081E090E09C838B83F80133E0EE0FFF1F83
:102830003A95E1F7E01BF10B319623E0EE0FFF1F15
:102840002A95E1F78D81E80FF11DE45CFC4FF082E1
:10285000DA01FB0180E701900D928150E1F7D6018A
:10286000AA0FBB1FAC0DBD1DAA0FBB1FAA0FBB1F1C
:10287000A555BC4F8C91813069F58CE190E0C89EE4
:10288000F001C99EF00DD89EF00D1124EE0FFF1F30
:10289000EE0FFF1FE15CFC4F808116968C9316971C
:1028A00018968D919C911997892B21F41B961C9257
:1028B0001E921A97F601EE0FFF1FEC0DFD1DEE0F95
:1028C000FF1FEE0FFF1FE555FC4F80859185019698
:1028D00091878087F601EE0FFF1FEC0DFD1DEE0FB7
:1028E000FF1FEE0FFF1FDF01A555BC4F16968C9101
:1028F00016978F5FE4018E8318968D919C9119979E
:1029000099878887E355FC4F80818A871B861082D0
:102910008C91DF91CF911F910F91FF90DF90CF901D
:10292000BF90AF909F908F9008958F929F92AF929B
:10293000BF92CF92DF92EF92FF920F931F93DF939C
:10294000CF93CDB7DEB7CC57D0400FB6F894DEBFEB
:102950000FBECDBF7C018E01035F1F4F80E0A80139
:102960009E012F5F3F4F0E94AF11882319F42FEF74
:102970003FEF38C28C898A3209F4E3C18B3260F4AC
:10298000813009F44FC08130D0F0883109F435C16D
:102990008E3109F022C210C08A3409F47BC18B3415
:1029A00020F48E3309F019C2B2C1853A09F4D4C1BA
:1029B0008D3F09F012C2E3C12EE130E013C28A89D3
:1029C000D701D4968C93D497D5961C92D5978B89A2
:1029D000D6968C93D697D7961C92D797FE0175966C
:1029E0008481D2968C93D297D3961C92D801189654
:1029F0008D919C911997D7019E969C938E939D974C
:102A00008681F701E459FF4F8083118287FF04C05C
:102A100081E0F70186A303C0D70196961C9220E0BF
:102A200030E0E0C125E1822E912C8C0E9D1EF40138
:102A30006685778580E090E00E94092220E030E002
:102A40004AE754E40E9470212AE430E0E20EF31ECB
:102A5000D7016D937D938D939C931397E6EBFFEFD6
:102A6000EE0EFF1E2AE939E949E850E40E94702180
:102A70000E94DD216F5F7F4FF701E854FF4F7183A4
:102A800060836630710520F085E090E0918380835B
:102A90008701065B1F4F28EB30E0E20EF31ED701E3
:102AA0006D917C91E8E4FFEFEE0EFF1E80E090E078
:102AB0000E9409229B01AC01D8016D917D918D91FD
:102AC0009C910E94702120E030E04AEF53E40E9484
:102AD0002D230E94DD21F701E654FF4F71836083AF
:102AE0006C5D754010F411821082EEE4F0E0EE0EA1
:102AF000FF1EFE013D96808D918D6AE070E00E9480
:102B00001D24D7016D937D937D0186A1992787FDB3
:102B100090958D939C93A484B584C684D7840089B2
:102B2000118922893389E6E2F0E0EE0EFF1ED4011E
:102B30001C968D919C911D976AE070E00E9409247B
:102B4000F701718360838AE89FEFE80EF91EF701B1
:102B5000EC58FF4F11821082A0FE06C000FD04C099
:102B600081E090E091838083A1FE0AC001FD08C04E
:102B7000F701EC58FF4F80819181826091838083BF
:102B8000A2FE0AC002FD08C0F701EC58FF4F808189
:102B90009181846091838083A3FE0AC003FD08C0F5
:102BA000F701EC58FF4F8081918188609183808389
:102BB000A4FE0AC004FD08C0F701EC58FF4F808155
:102BC0009181806191838083A5FE0AC005FD08C0C4
:102BD000F701EC58FF4F808191818062918380835F
:102BE000A6FEFEC006FDFCC0F701EC58FF4F808139
:102BF0009181806491838083F3C0A2E5B0E0EA0E06
:102C0000FB1EF80160897189828993890E940B22D9
:102C1000D7016D937D938D939D937D01F801648918
:102C20007589868997890E940B22D7016D937D93C0
:102C30008D939C931397EAEAFFEFEE0EFF1EDE01E1
:102C400055965C968C915C97F70181A712A6E25A83
:102C5000FF4F5D968C9180831182D8015C968D9197
:102C60009C915D97F70190A787A32AE530E0E20EDB
:102C7000F31E58966D917D918D919C915B970E946A
:102C80000B22D7016D937D938D939C93139728E12D
:102C900030E0A8C00E942E1FF701638374838583F0
:102CA000968320E630E0E20EF31EF80184859585D8
:102CB000A685B785F70180839183A283B3832EE035
:102CC00030E0E20EF31ED80158968D919C915997F1
:102CD000F7019183808324E030E0E20EF31E5A96E0
:102CE0008D919C915B97D7018D939C93E6EFFFEFBD
:102CF000EE0EFF1EF80180899189A289B389F70140
:102D000080839183A283B3832AE430E06BC02EE7F3
:102D100030E0E20EF31ED8015E968D919C915F9794
:102D2000F701918380832CEF3FEFE20EF31E909624
:102D30008D919C919197D7018D939C932EE330E0D8
:102D400051C0F701E458FF4FD80118968C91808349
:102D500011822AE230E046C0E8E7F0E0EE0EFF1E06
:102D6000D80118968D919C91199764E670E00E94A5
:102D70000924F7017183608325EA30E033C0F7014D
:102D8000EC57FF4F8D8980831182D701AA57BF4F1F
:102D9000FE01769682E301900D928150E1F724E8DE
:102DA00030E0E20EF31ED7018D919C91ECE7FFEF2E
:102DB000EE0EFF1E039774F0C7010E94C60DD701E7
:102DC0009C969C938E939B978EE190E018969C9393
:102DD0008E9317972DEF30E005C0282F30E002C00A
:102DE00021E030E0C901C458DF4F0FB6F894DEBFD0
:102DF0000FBECDBFCF91DF911F910F91FF90EF904C
:102E0000DF90CF90BF90AF909F908F9008950F93D9
:102E10001F93CF93DF93FC01738D76957170A68518
:102E2000B7859585772329F08C91892309F454C0BF
:102E300004C08C91892309F04FC08389948920E0D4
:102E400001972FEF8F3F9207D9F7C589D689A685BD
:102E5000B785158560E031E040E050E000E0CE014C
:102E6000202F01972FEF8F3F9207D9F78C91812365
:102E700011F0632B03C0832F80956823330F4F5FBE
:102E80005F4F4830510559F78789908D20E00197B1
:102E90002FEF8F3F9207D9F7711160958091390418
:102EA00020913A0490E001968F77907030E082177D
:102EB000930779F0E0913904F0E0E754FC4F608328
:102EC0008091390490E001968F7790708093390457
:102ED00003C0838D8160838FDF91CF911F910F910C
:102EE00008951F920F920FB60F9211242F933F93C4
:102EF0004F935F936F937F938F939F93AF93BF9302
:102F0000EF93FF938091B7039091B803009711F06E
:102F10000E940717FF91EF91BF91AF919F918F9101
:102F20007F916F915F914F913F912F910F900FBEC5
:102F30000F901F9018951F920F920FB60F921124A9
:102F40002F933F934F935F936F937F938F939F93B1
:102F5000AF93BF93EF93FF938091B7039091B80322
:102F6000009711F00E940717FF91EF91BF91AF9169
:102F70009F918F917F916F915F914F913F912F9191
:102F80000F900FBE0F901F9018951F920F920FB6C3
:102F90000F9211242F933F934F935F936F937F93DF
:102FA0008F939F93AF93BF93EF93FF938091B7035A
:102FB0009091B803009711F00E940717FF91EF91CD
:102FC000BF91AF919F918F917F916F915F914F9141
:102FD0003F912F910F900FBE0F901F901895CF9299
:102FE000DF92EF92FF920F931F93CF93DF93EC0149
:102FF0007A018B011A8E198E188E1F8A1E8A1D8ADD
:103000001C8A1B8A20E030E06901CC0CDD1CC20E5A
:10301000D31EB601660F771F660F771FAB014F5F98
:103020005B4FFA0185919591A591B4918E159F05FD
:10303000A007B107E9F4FB01EB5FFB4F8591949189
:103040009C8B8B8BFB01E95FFB4F859194919E8B51
:103050008D8BFB01E75FFB4F85919491988F8F8B50
:10306000FB01E55FFB4F859194919A8F898F06C094
:103070002F5F3F4F2D30310509F0C6CF8F89988DD6
:10308000892B09F449C04C85463108F03DC0909128
:103090006800483010F484E005C04E3010F082E043
:1030A00001C081E0892B80936800483028F4EDE668
:1030B000F0E0ADE6B0E00BC04E3028F0ECE6F0E01A
:1030C000ACE6B0E004C0EBE6F0E0ABE6B0E0508187
:1030D000483040F481E090E002C0880F991F4A9583
:1030E000E2F710C0242F30E04E3018F42850304062
:1030F00002C02E50304081E090E002C0880F991F3E
:103100002A95E2F7852B8C93898D9A8D20E0019783
:103110002FEF8F3F9207D9F78091B7039091B803B3
:103120008C179D0781F08B8D8E7F8B8F9FB7F894C6
:10313000109239048091390480933A04D093B803F3
:10314000C093B7039FBFDF91CF911F910F91FF9065
:10315000EF90DF90CF9008952091B7033091B8039E
:103160002817390731F490913A048091390498175F
:1031700019F42FEF3FEF0FC0E0913A04F0E0E7546D
:10318000FC4F208180913A0490E001968F779070F7
:1031900080933A0430E0C90108952091B70330913B
:1031A000B8032817390719F020E030E00EC08091ED
:1031B000390420913A0490E080589F4F821B910976
:1031C00060E870E00E941D249C01C90108950F93DE
:1031D0001F93DC0159968D919C915A97892B49F444
:1031E00081E090E013969C938E93129720E030E05C
:1031F00097C00FB7F8945B968C915B975196ED91C1
:10320000FC91529750962C91509781FF8DC08081F0
:10321000822B808359968D919C915A97059620E038
:1032200001972FEF8F3F9207D9F75B968C915B97B1
:1032300081FF35C031E040E050E070E010E0832FC6
:1032400090E0862397235196ED91FC9152975096EA
:103250002C915097892B29F0808120952823208359
:1032600003C08081822B808359968D919C915A97BF
:10327000212F01972FEF8F3F9207D9F7330F4F5F21
:103280005F4F48305105D9F65196ED91FC91529718
:10329000908150968C9150978095892333C031E06E
:1032A00040E050E070E010E0832F90E08623972309
:1032B0005196ED91FC91529750962C915097892BF5
:1032C00021F08081822B808304C080812095282377
:1032D000208359968D919C915A97212F01972FEF1A
:1032E0008F3F9207D9F7330F4F5F5F4F483051053B
:1032F000D9F65196ED91FC915297808150969C9110
:103300005097892B80830FBF59968D919C915A9726
:1033100020E001972FEF8F3F9207D9F721E030E0AF
:10332000C9011F910F910895808120952823208342
:1033300071CF2091B7033091B8032817390749F4AA
:103340009FB7F894109239048091390480933A041D
:103350009FBF08952091B7033091B803281739070C
:1033600031F490913A0480913904981719F42FEFB1
:103370003FEF0AC0E0913A04F0E0E754FC4F80814F
:10338000282F332727FD3095C90108951F93CF9328
:10339000DF93EC01162F862F60E00E94D01F8B8DEB
:1033A00081FD04C0812F61E00E940F201C87212F26
:1033B00030E0C90181539B4FFC0184918D872554D6
:1033C0003B4FF9016491E62FF0E0EE0FFF1FEF5441
:1033D000FB4F859194919F878E87DF91CF911F91AD
:1033E00008951F93CF93DF93EC01162F862F61E092
:1033F0000E94D01F60E08B8D81FF61E0812F0E94D1
:103400000F20212F30E0C90181539B4FFC01849193
:10341000888B25543B4FF9016491E62FF0E0EE0FC5
:10342000FF1FE955FB4F859194919A8B898BDF9112
:10343000CF911F910895FF920F931F938C01F62E49
:10344000FC011382128288EE93E0A0E0B0E0848356
:103450009583A683B78384E692E091838083148A60
:10346000138A168A158A108E178A128E118E838DF2
:103470002170220F8C7F822B838FC801642F0E94C2
:10348000F119C8016F2D0E94C6191F910F91FF906D
:1034900008950F931F93611571058105910569F4D6
:1034A00081E090E0A0E0B0E080933B0490933C0486
:1034B000A0933D04B0933E0408C060933B04709316
:1034C0003C0480933D0490933E0410934004009389
:1034D0003F04809170008E7F809370008091B000D7
:1034E0008C7F8093B0008091B100877F8093B10082
:1034F0008091B6008F7D8093B600809170008D7FA3
:10350000809370008091B10084608093B1008091BD
:10351000B1008C7F8093B100CA01B90120E034E290
:1035200044E75BE40E942D2320E030E040E85CE3C8
:103530000E942D230E94D82120E031E0261B370B6A
:1035400030934704209346041F910F9108951092E1
:1035500041041092420410924304109244041092C9
:10356000450480914604909147048093B200E0E7BF
:10357000F0E0808181608083089580914104909182
:103580004204A0914304B09144040196A11DB11DD1
:103590008093410490934204A0934304B093440465
:1035A0008091410490914204A0914304B09144045D
:1035B00020913B0430913C0440913D0450913E04E5
:1035C00082179307A407B50710F18091450488235B
:1035D000F1F481E08093450480914104909142048C
:1035E000A0914304B0914404821B930BA40BB50B30
:1035F0008093410490934204A0934304B093440405
:10360000E0913F04F091400409951092450408951B
:103610001F920F920FB60F9211242F933F934F9347
:103620005F936F937F938F939F93AF93BF93EF932A
:10363000FF9380914604909147048093B2000E94CA
:10364000BD1AFF91EF91BF91AF919F918F917F91A3
:103650006F915F914F913F912F910F900FBE0F90FF
:103660001F9018950F931F93DC01ED91FC91028838
:10367000F389E02D20E030E000E010E009951F9193
:103680000F9108958F92AF92CF92EF92FF920F9386
:103690001F93DF93CF93CDB7DEB7FC011382128265
:1036A00088EE93E0A0E0B0E084839583A683B7839F
:1036B00084E792E091838083558744873787268704
:1036C000118B008BF38AE28AC48AA58A868A70E00D
:1036D000CB0123E0880F991F2A95E1F79C01285B15
:1036E0003B4F308F278B805B9B4F928F818F81E088
:1036F00090E002C0880F991F6A95E2F72091580464
:10370000282B20935804CF0140E051EE60E070E098
:103710000E94321BCF91DF911F910F91FF90EF908C
:10372000CF90AF908F900895FC01838D882319F47A
:103730002FEF3FEF0DC00788F08DE02D2081318104
:1037400082819381281B390B848195812823392319
:10375000C9010895FC01838D882319F42FEF3FEFF1
:1037600011C0018CF28DE02D208131818281938105
:10377000281B390B20953095848195812823392386
:103780002F5F3F4FC9010895FC01838D882361F0AD
:10379000A789B08D2D913C91119712968D919C9196
:1037A00013972817390721F44FEF5FEFCA010895E7
:1037B00012968D919C9113971696ED91FC91179707
:1037C000E80FF91F408112968D919C9113970196F5
:1037D00014962D913C9115978223932313969C93D5
:1037E0008E93129750E0E2CFFC01838D882351F035
:1037F0000788F08DE02D2081318182819381281707
:10380000390721F42FEF3FEFC90108958281938199
:103810000680F781E02DE80FF91F8081282F30E026
:10382000F3CFDC015796ED91FC91589782819381FB
:10383000918380835996ED91FC915A978081918173
:10384000938382830895DC015B968C915B97882338
:10385000A9F15996ED91FC915A97208131812F5F02
:103860003F4F84819581282339235C968C915C9706
:10387000882329F08281938128173907F9F0828102
:10388000938128173907D9F3808191810680F781C8
:10389000E02DE80FF91F60835996ED91FC915A973E
:1038A000318320835296ED91FC91539780815696F7
:1038B0009C91892B808321E030E002C020E030E041
:1038C000C9010895CF93DF93EC011B821A828A818C
:1038D0009B81998388831D821C828E819F810097A2
:1038E00021F00E944E1E1F821E82DF91CF9108950B
:1038F0000F931F938C01DC015296ED91FC9153972D
:10390000208156968C91569755969C915597892B68
:1039100080958223808357968D919C9158970E9421
:10392000621CF801818D928D0E94621CD8015B9609
:103930001C921F910F9108950F931F93CF93DF93C4
:103940008C01FC0113821282828193819183808396
:1039500041E0A1E0B0E001C04F5FFD01042E02C0D4
:10396000EE0FFF1F0A94E2F79B0182E061307807B7
:1039700010F020E032E0E217F30770F3C1E0D0E08E
:1039800002C0CC0FDD1F4A95E2F72197F80126818E
:1039900037812115310541F0848195818C179D0770
:1039A00089F0C9010E944E1EF801D583C483CE015F
:1039B00001960E94B11D9C01F8019783868380E0E7
:1039C000232B09F081E0DF91CF911F910F91089592
:1039D000AF92BF92CF92DF92EF92FF920F931F931D
:1039E000CF93DF937C015A016B01E901DC015B9607
:1039F0008C915B978823F1F02115310539F45796A6
:103A0000ED91FC915897C481D5812196011511053E
:103A100049F4D7015996ED91FC915A97048115818B
:103A20000F5F1F4FD701ED91FC910088F189E02DC8
:103A3000C7010995F7018789908D209711F4C0E897
:103A4000D0E0BE010E949C1C882381F0D7015996CA
:103A50008D919C915A970115110511F400E110E028
:103A6000B8010E949C1C882309F04DC0D701ED913C
:103A7000FC910088F189E02DC701099567C0D70145
:103A80005096ED91FC915197B0E0AB16B1EEBB06AC
:103A9000B0E0CB06B0E0DB0609F454C081E090E072
:103AA000D70154960C9002C0880F991F0A94E2F730
:103AB000808360E079E08DE390E0A60195010E94AB
:103AC00052242150304040405040CA01B90122E008
:103AD00030E040E050E00E945224D7011C96ED9166
:103AE000FC911D9730831E96ED91FC911F972083CA
:103AF000D7015296ED91FC915397808155969C91F8
:103B0000892B808323C0D7015996ED91FC915A9758
:103B10001382128282819381918380835796ED91E3
:103B2000FC915897138212828281938191838083C2
:103B300081E05B968C931A141B041C041D040CF486
:103B40009ECFD6CF108220E130E0C7CFDF91CF915A
:103B50001F910F91FF90EF90DF90CF90BF90AF90AB
:103B600008950F931F93CF93DF93BC01823091058B
:103B700010F462E070E0E0916804F091690440E0C4
:103B800050E0A0E0B0E024C08081918186179707C3
:103B9000D0F08617970771F482819381109729F0EE
:103BA00013969C938E9312972CC0909369048093E4
:103BB000680427C04115510519F08417950718F4BA
:103BC0008D01AC01EF01DF01828193819C01F9013C
:103BD0003097D1F641155105F9F0CA01861B970BB4
:103BE0008430910580F48A819B810115110521F0B3
:103BF000F8019383828304C09093690480936804DE
:103C0000FE01329645C0FE01E80FF91F61937193E2
:103C10000297998388833CC08091660490916704E1
:103C2000892B41F4809108019091090190936704D8
:103C30008093660440910A0150910B014115510592
:103C400041F44DB75EB78091060190910701481B82
:103C5000590B209166043091670424173507B0F49E
:103C6000CA01821B930B8617970780F0AB014E5F4A
:103C70005F4F8417950750F0420F531F509367040E
:103C800040936604F9016193719302C0E0E0F0E0B3
:103C9000CF01DF91CF911F910F910895CF93DF93C3
:103CA0009C01009709F48FC0EC0122971B821A82B5
:103CB00060916804709169046115710581F48881CF
:103CC0009981820F931F2091660430916704281711
:103CD000390739F5D0936704C093660474C0DB01DB
:103CE00040E050E0AC17BD0708F1BB83AA83FE019A
:103CF00021913191E20FF31FAE17BF0779F48D9137
:103D00009C911197280F391F2E5F3F4F39832883CD
:103D100012968D919C9113979B838A83411551052F
:103D200071F4D0936904C09368044DC012968D91CC
:103D30009C911397AD01009711F0DC01D3CFDA010C
:103D40001396DC93CE931297FA0121913191E20FF1
:103D5000F31FCE17DF0769F488819981280F391F77
:103D60002E5F3F4FFA01318320838A819B819383A9
:103D70008283E0E0F0E0DB0112968D919C91139735
:103D8000009719F0BC01FD01F6CFAB014E5F5F4F0C
:103D9000DB018D919C91840F951F209166043091D9
:103DA00067042817390779F4309729F410926904C9
:103DB0001092680402C01382128242505040509305
:103DC000670440936604DF91CF9108951F920F928C
:103DD0000FB60F9211242F933F938F939F93AF931E
:103DE000BF938091610490916204A0916304B091AB
:103DF0006404309165040196A11DB11D232F2D5F30
:103E00002D3720F02D570196A11DB11D209365047B
:103E10008093610490936204A0936304B09364045C
:103E200080915D0490915E04A0915F04B091600464
:103E30000196A11DB11D80935D0490935E04A09333
:103E40005F04B0936004BF91AF919F918F913F91B8
:103E50002F910F900FBE0F901F9018958FB7F89469
:103E60002091610430916204409163045091640494
:103E70008FBFB901CA0108959B01AC017FB7F894C7
:103E800080915D0490915E04A0915F04B091600404
:103E900066B5A89B05C06F3F19F00196A11DB11D25
:103EA0007FBFBA2FA92F982F8827860F911DA11D9C
:103EB000B11D62E0880F991FAA1FBB1F6A95D1F739
:103EC000BC012DC0FFB7F89480915D0490915E0411
:103ED000A0915F04B0916004E6B5A89B05C0EF3FD8
:103EE00019F00196A11DB11DFFBFBA2FA92F982F60
:103EF00088278E0F911DA11DB11DE2E0880F991F2B
:103F0000AA1FBB1FEA95D1F7861B970B885E9340CB
:103F1000C8F2215030404040504068517C4F21153C
:103F200031054105510571F60895789484B5826094
:103F300084BD84B5816084BD85B5826085BD85B54D
:103F4000816085BDEEE6F0E0808181608083E1E8FC
:103F5000F0E0108280818260808380818160808334
:103F6000E0E8F0E0808181608083E1EBF0E0808137
:103F700084608083E0EBF0E0808181608083EAE709
:103F8000F0E0808184608083808182608083808192
:103F9000816080838081806880831092C100089551
:103FA000CF93DF93482F50E0CA0181539B4FFC0110
:103FB000349145545B4FFA018491882369F190E074
:103FC000880F991FFC01E356FB4FA591B491FC01AA
:103FD000E955FB4FC591D491662351F42FB7F8945E
:103FE0008C91932F909589238C93888189230BC082
:103FF000623061F42FB7F8948C91932F90958923B8
:104000008C938881832B88832FBF06C09FB7F89439
:104010008C91832B8C939FBFDF91CF910895482F74
:1040200050E0CA018D519B4FFC012491CA0181537C
:104030009B4FFC01949145545B4FFA01349133231B
:1040400009F440C0222351F1233071F0243028F4C8
:104050002130A1F0223011F514C02630B1F0273004
:10406000C1F02430D9F404C0809180008F7703C060
:10407000809180008F7D8093800010C084B58F7701
:1040800002C084B58F7D84BD09C08091B0008F7758
:1040900003C08091B0008F7D8093B000E32FF0E0EB
:1040A000EE0FFF1FE955FB4FA591B4912FB7F89480
:1040B000662321F48C919095892302C08C91892BE1
:1040C0008C932FBF08950895CF93DF930E94951F7F
:1040D0000E9463200E94AA05C0E0D0E00E940A0569
:1040E0002097E1F30E940000F9CF0E94B11D0895CE
:1040F000CF92DF92EF92FF920F931F93CF93DF93B4
:104100007C016B018A01C0E0D0E00FC0D6016D9147
:104110006D01D701ED91FC910190F081E02DC70177
:104120000995C80FD91F015010400115110571F7ED
:10413000CE01DF91CF911F910F91FF90EF90DF9013
:10414000CF9008955058BB27AA270ED030C2F0D187
:1041500030F0F5D120F031F49F3F11F41EF4C0C1CE
:104160000EF4E095E7FBB6C1E92F43D280F3BA170E
:10417000620773078407950718F071F49EF55BC218
:104180000EF4E0950B2EBA2FA02D0B01B901900172
:104190000C01CA01A0011124FF27591B99F0593FB6
:1041A00050F4503E68F11A16F040A22F232F342FFE
:1041B0004427585FF3CF469537952795A795F0404C
:1041C0005395C9F77EF41F16BA0B620B730B840B61
:1041D000BAF09150A1F0FF0FBB1F661F771F881F19
:1041E000C2F70EC0BA0F621F731F841F48F4879571
:1041F00077956795B795F7959E3F08F0B3CF939560
:10420000880F08F09927EE0F97958795089590D11C
:1042100058F080E891E009F49EEF91D128F040E851
:1042200051E059F45EEF09C05BC105C2E92FE078A7
:10423000E0D168F3092E052AC1F32617370748078E
:10424000590738F00E2E07F8E02569F0E025E06404
:104250000AC0EF6307F8009407FADB01B9019D017A
:10426000DC01CA01AD01EF934AD0A1D10AD05F9120
:10427000552331F02BED3FE049E450FD49EC63CF8D
:104280000895DF93DD27B92FBF7740E85FE3161667
:10429000170648075B0710F4D92FD8D19F938F9347
:1042A0007F936F938BD2ECEDF0E01DD180D12F91F5
:1042B0003F914F915F91DDD1DD2349F09058A2EA03
:1042C0002AED3FE049EC5FE3D0785D274DDFDF91D9
:1042D0006EC1DCD008F481E0089539D1E39578C14E
:1042E0000CD065C12CD140F023D130F021F45F3FD8
:1042F00019F0F0C05111A0C1F3C07BD198F39923FC
:10430000C9F35523B1F3951B550BBB27AA27621799
:104310007307840738F09F5F5F4F220F331F441FDE
:10432000AA1FA9F333D00E2E3AF0E0E830D0915016
:104330005040E695001CCAF729D0FE2F27D0660F03
:10434000771F881FBB1F261737074807AB07B0E842
:1043500009F0BB0B802DBF01FF2793585F4F2AF058
:104360009E3F510568F0B6C067C15F3FECF3983ED1
:10437000DCF3869577956795B795F7959F5FC9F7B5
:10438000880F911D9695879597F90895E1E0660F3E
:10439000771F881FBB1F621773078407BA0720F0B7
:1043A000621B730B840BBA0BEE1F88F7E095089520
:1043B00004D06894B11140C1089523D188F09F576B
:1043C00090F0B92F9927B751A0F0D1F0660F771F61
:1043D000881F991F1AF0BA95C9F712C0B13081F041
:1043E0002AD1B1E0089527C1672F782F8827B85FB9
:1043F00039F0B93FCCF3869577956795B395D9F7A2
:104400003EF490958095709561957F4F8F4F9F4FAB
:104410000895E89409C097FB3EF4909580957095B7
:1044200061957F4F8F4F9F4F9923A9F0F92F96E900
:10443000BB279395F695879577956795B795F11175
:10444000F8CFFAF4BB0F11F460FF1BC06F5F7F4F12
:104450008F4F9F4F16C0882311F096E911C0772324
:1044600021F09EE8872F762F05C0662371F096E82D
:10447000862F70E060E02AF09A95660F771F881FFC
:10448000DAF7880F9695879597F90895990F0008A0
:10449000550FAA0BE0E8FEEF16161706E807F90716
:1044A000C0F012161306E407F50798F0621B730BB1
:1044B000840B950B39F40A2661F0232B242B252B32
:1044C00021F408950A2609F4A140A6958FEF811DD5
:1044D000811D089597F99F6780E870E060E0089576
:1044E0009FEF80EC0895DF93CF931F930F93FF927C
:1044F000EF92DF927B018C01689405C0DA2EEF0108
:10450000B8D0FE01E894A59125913591459155913A
:10451000AEF3EF0129DEFE019701A801DA9479F7E5
:10452000DF90EF90FF900F911F91CF91DF91089551
:1045300000240A9416161706180609060895002482
:104540000A9412161306140605060895C9CF59D009
:10455000E8F3E894EFEFBB273FE048EC5FE76B3D03
:1045600073078407950708F1FF279F57B25A6A4DD2
:104570007F40894CF04032F4BE556542704F86430F
:10458000FF4F0894EE1F915030F0BB0F661F771F4E
:10459000881FFF1FEBCF9EE7882332F0BB0F661FFB
:1045A000771F881F9A95C1F79395E0950AC1092E48
:1045B0000394000C11F4882352F0BB0F40F4BF2B7E
:1045C00011F460FF04C06F5F7F4F8F4F9F4F0895BE
:1045D000EF93E0FF06C0A2EA2AED3FE049EC5FEB73
:1045E000C3DDE5DF0F90039401FC9058E9E0F1E0B2
:1045F000FFC057FD9058440F551F59F05F3F71F0B1
:104600004795880F97FB991F61F09F3F79F0879539
:104610000895121613061406551FF2CF4695F1DFC2
:1046200008C0161617061806991FF1CF8695710552
:10463000610508940895E894BB2766277727CB0186
:1046400097F9089523DF08F48FEF08959B01AC01DB
:1046500060E070E080E89FE343CE0BD0A8CF68DF36
:1046600028F06DDF18F0952309F034CF39CF1124ED
:10467000E3CFBFDFA0F3959FD1F3950F50E0551F17
:10468000629FF001729FBB27F00DB11D639FAA27A7
:10469000F00DB11DAA1F649F6627B00DA11D661FF6
:1046A000829F2227B00DA11D621F739FB00DA11D17
:1046B000621F839FA00D611D221F749F3327A00DD1
:1046C000611D231F849F600D211D822F762F6A2F6D
:1046D00011249F5750408AF0E1F088234AF0EE0FF2
:1046E000FF1FBB1F661F771F881F91505040A9F7FF
:1046F0009E3F510570F0EECE9FCF5F3FECF3983EAA
:10470000DCF3869577956795B795F795E7959F5F65
:10471000C1F7FE2B880F911D9695879597F90895FF
:1047200011F40EF4DDCE4DC06CDFD0F39923D9F334
:10473000CEF39F57550B87FF54D056959795B0E011
:1047400020F4660F771F881FBB1F1F930F93002451
:104750009001A0018001F001A0E80E0F1F1F0A1EAA
:10476000511D601B710B8009B50B48F4600F711F60
:10477000801DB51F0E1B1F0B0A0A510907C02E0F03
:104780003F1F4A1F0E0F1F1F0A1E511D660F771F66
:10479000881FBB1FA695F795E795F8F6061717072C
:1047A00008065B07211D311D411D0F911F91B901A5
:1047B000842F9158880F9695879508959B01AC0199
:1047C0004CCF9F3F49F0915028F486957795679597
:1047D000B7959F5F80389F4F880F9695879597F97B
:1047E000089591505040660F771F881FD2F70895A3
:1047F0009F938F937F936F93FF93EF939B01AC01F4
:104800002CDFEF91FF916FDE2F913F914F915F91E0
:1048100024CFAA1BBB1B51E107C0AA1FBB1FA617B1
:10482000B70710F0A61BB70B881F991F5A95A9F759
:1048300080959095BC01CD01089597FB092E072620
:104840000AD077FD04D0E5DF06D000201AF4709579
:1048500061957F4F0895F6F7909581959F4F089544
:10486000A1E21A2EAA1BBB1BFD010DC0AA1FBB1F74
:10487000EE1FFF1FA217B307E407F50720F0A21BE6
:10488000B30BE40BF50B661F771F881F991F1A9453
:1048900069F760957095809590959B01AC01BD017D
:1048A000CF01089597FB092E05260ED057FD04D0A1
:1048B000D7DF0AD0001C38F45095409530952195EB
:1048C0003F4F4F4F5F4F0895F6F790958095709545
:1048D00061957F4F8F4F9F4F0895EE0FFF1F0590FB
:0A48E000F491E02D0994F894FFCF45
:1048EA000C010000000080006A04000000000000C3
:1048FA009C114E0D800DF30C220D440D3A0D070D3F
:10490A00F90C550DE70CDD0C860D8C0D920D980DEA
:10491A00AA0DBC0D8F118211B00DB60D150D520DD9
:10492A00000E060E327C8900EDD968770000005926
:10493A000000000000000000D69FDCA81817AA900B
:10494A00437327F6B968EDF4DED409FEE61C1C842D
:10495A00DDE80B992927D6DF8D210F036418EFEEC6
:10496A001EF0B7828200941500347C000000140007
:10497A00988F0000000000000000000000E7B73F29
:10498A003600000000000000AF669ED0380000002C
:10499A00000000000000000000000000000000000D
:1049AA0000000000000000000000000000000000FD
:1049BA000000000000000000000086DBD0BC541696
:1049CA00131586004E44BD7F6F1515900100000037
:1049DA0000000000000000000000000000000000CD
:1049EA0000000000000000000000000000000000BD
:1049FA0000000000000000000000000000000000AD
:104A0A00000000000000000000000000000000009C
:104A1A0000000000000000000000000000CC31AAE5
:104A2A002C532E00020002000200020005000500BD
:104A3A00020001000200030006000A000B000C003D
:104A4A0000000000E7187820CD18AC18AA199919A7
:104A5A0000000000231C7820941BC41BF41B111CAB
:084A6A00AA1B321B781CE81C9A
:00000001FF
