:100000000C94EA000C9412010C9412010C942A1224
:100010000C9454120C947E120C9412010C94120144
:100020000C9412010C94C2150C9412010C94120140
:100030000C9412010C9412010C9412010C941201F4
:100040000C94A0190C9412010C9414010C945001FE
:100050000C9412010C9412010C9412010C941201D4
:100060000C9412010C941201C603F5030B04340422
:100070006004C403C403C403C403C403C403C403AB
:10008000C403C403C4037604C8045705F704BB05BE
:10009000F5051C064306C403C403C403C403C40318
:1000A0004A0446075C07C403C403C403C4037306BD
:1000B0008B06A306C403C206C403C403C403C4035B
:1000C000C403C403C403C403C403C403C403C403F8
:1000D000C403C403C403C403C403FB0600C2010079
:1000E0000100110011000C0000E100000A002500D1
:1000F0002500210000960000190039003900360063
:10010000127A00001F004600460044008070000084
:1001100022004D004D004A00004B000036007500E3
:1001200075007200403800004A009C009C00990055
:10013000802500007200EC00EC00E900C012000015
:10014000E900DA01DA01D70160090000D701B6033E
:10015000B603B303B0040000B3036E076E076B076A
:10016000580200006E07DC0EDC0ED80E2C010000D9
:10017000DC0EC11DC11DBE1D0000000024002700B3
:100180002A0000000000250028002B0000000000CD
:1001900023002600290004040404040404040202C9
:1001A00002020202030303030303010204081020F6
:1001B0004080010204081020010204081020000001
:1001C0000007000201000003040600000000000018
:1001D00000009E0111241FBECFEFD8E0DEBFCDBFCF
:1001E00012E0A0E0B1E0E8EBFBE302C005900D9265
:1001F000A438B107D9F714E0A4E8B2E001C01D9219
:10020000A632B107E1F711E0C4EDD1E004C02297B6
:10021000FE010E94D61DC23DD107C9F70E941D1BD9
:100220000C94DA1D0C9400001F920F920FB60F92DF
:1002300011242F933F934F938F939F93EF93FF93AB
:100240004091C60020910404309105042F5F3F4F78
:100250008091080490910904282339238091060491
:10026000909107042817390779F080910404909140
:100270000504E0910A04F0910B04E80FF91F408394
:100280003093050420930404FF91EF919F918F9187
:100290004F913F912F910F900FBE0F901F90189587
:1002A0001F920F920FB60F9211242F933F938F93AB
:1002B0009F93EF93FF9320910E0430910F04809150
:1002C0000C0490910D0428173907E9F080910E0471
:1002D00090910F04E0911204F0911304E80FF91FBC
:1002E00080818093C60080910E0490910F04019646
:1002F00020911004309111048223932390930F04D2
:1003000080930E0410C020910C0430910D04809154
:100310000E0490910F042817390729F48091C10029
:100320008F7D8093C100FF91EF919F918F913F91BD
:100330002F910F900FBE0F901F9018958F92AF9234
:10034000CF92EF92FF920F931F9386E892E060E0C6
:1003500045EC50E024EC30E000EC10E0F1ECEF2E46
:10036000F12CCC24C394E8E9AE2E70E2872E0E94D3
:10037000FC1580E88093A7021092A8028091A80241
:100380008093AA028091AA028093A9021F910F91E3
:10039000FF90EF90CF90AF908F9008951F9311E052
:1003A0002EC020918402309185028091A802815054
:1003B0008093A8028091AA026091A702772767FD27
:1003C0007095992787FD90950E94701D8093AA02D1
:1003D0008091AA02E82FFF27E7FDF095E955FD4F30
:1003E00064818F5F8093AA02C9010E94290F88232C
:1003F00031F080913603882311F4109336038091F5
:10040000A802181674F21F91089520912B033091C1
:100410002C032F5F3F4F30932C0320932B03243169
:1004200031059CF06091A5027091A6024091840272
:10043000509185028091A3029091A4020E94A4038E
:1004400010922C0310922B0308952370307080912A
:10045000A3029091A4026091A5027091A60240911E
:10046000840250918502232B19F40E945B080895A1
:100470000E94DE070895EF92FF920F931F930E9450
:10048000E8199B01AC0180912D0390912E03A0915E
:100490002F03B091300379018A01E81AF90A0A0B97
:1004A0001B0BD801C701855F9140A040B040B8F058
:1004B00020932D0330932E0340932F03509330034A
:1004C00080913503882321F481E08093350302C0B5
:1004D000109235038DE0609135030E94C91A1F9177
:1004E0000F91FF90EF900895E0918402F0918502C2
:1004F00082818823A1F40E94E819E0918402F0919E
:1005000085022681378140855185621B730B840BE0
:10051000950B695873418040904008F488C00E9450
:10052000E819209131033091320340913303509107
:100530003403621B730B840B950B615D7740804025
:10054000904008F474C00E94E819E0918402F09190
:1005500085022681378140855185621B730B840B90
:10056000950B695B7B408040904018F0CF010E9462
:10057000D20B80918402909185020E94DA0A62E394
:1005800070E080E090E00E94F619809184029091E2
:1005900085020E94DA0A62E370E080E090E00E9447
:1005A000F61980918402909185020E94DA0A62E332
:1005B00070E080E090E00E94F619E0918402F091F2
:1005C0008502128214820E94E819609331037093AD
:1005D0003203809333039093340329C08091A8029F
:1005E00086E892E00E947E16282F8091A8028091D2
:1005F000A8028F5F8093A8028091A9026091A70250
:10060000772767FD7095992787FD90950E94701D4B
:100610008093A902E091A902FF27E7FDF095E95533
:10062000FD4F24838091A9028F5F8093A90286E801
:1006300092E00E944E161816190684F20E94CE010E
:100640000E943B0208950F931F938CE190E00E945B
:100650002C1B182F092F66E045E021E00E94D514DD
:100660001093A5020093A602812F902F40E855E237
:1006700060E070E00E94A81286E892E040E051EE4F
:1006800060E070E00E94EC1586E892E00E94CB16D4
:100690008CEC90E00E942C1B8C0166E872E00E94BA
:1006A00036091093850200938402D801ED91FC91E4
:1006B00004A0F5A1E02DC801099582E490E00E9414
:1006C0002C1B182F092F0E949E031093A302009346
:1006D000A4028DE061E00E94C91A81E08093350395
:1006E0006AEF70E080E090E02FE632E143E85AE301
:1006F00005E012E00E9403150E94611500E010E081
:1007000000FF08C08DE061E00E94C91A81E080937B
:10071000350306C08DE060E00E94C91A10923503CF
:1007200062E370E080E090E00E94F6190F5F1F4FD7
:100730000A3F110529F71F910F910895FC01E05C14
:10074000FF4F11821082089508958F929F92BF9259
:10075000CF92DF92EF92FF920F931F93CF93DF938D
:100760004C01EA01772767FD7095872F972FFB01D2
:100770003197EA33F10540F4EC5CFF4FEE0FFF1FB9
:100780000590F491E02D099480E0B2C3E881F981ED
:100790000190F081E02DCA01099520E030E048EC9D
:1007A00052E40E945A1B6B017C0120E430E0820E6F
:1007B000931EF40180819181840100541040080F40
:1007C000191F6EE5B62EF801B08281E08183C70162
:1007D000B6010E942A1CF8016283272F332727FDC8
:1007E0003A952383B48229E0EEC1E881F981028041
:1007F000F381E02DCA01099520E430E0820E931EBA
:10080000F40120813181E054F040E20FF31F2EE526
:10081000208322E066C3E881F9810480F581E02D20
:10082000CA0109958C01E881F98100A4F1A5E02DA8
:10083000CE010995892B19F46EE170E002C061E0E8
:1008400070E0C8010E94701DCB0120E430E0820EF0
:10085000931EF40120813181E054F040E20FF31F38
:100860002EE5208323E03DC3E881F9810680F781EE
:10087000E02DCA01099520E430E0820E931EF401B8
:1008800020813181E054F040E20FF31F2EE52083F8
:1008900024E027C3E881F98102A4F3A5E02DCA0171
:1008A000099520E430E0820E931EF401208131810D
:1008B000E054F040E20FF31F2EE520832DE111C339
:1008C000E881F9810084F185E02DCA01099520E4D1
:1008D00030E0820E931EF40120813181E054F0401B
:1008E000E20FF31F2EE5208325E0FBC2E881F981AA
:1008F0000284F385E02DCA0109957B018C01E88112
:10090000F98100A4F1A5E02DCE010995892B29F4E8
:1009100020E030E040E251E404C020E030E040E07C
:1009200050E0C801B7010E945A1B6B017C0120E412
:1009300030E0820E931EF401808191818401005485
:100940001040080F191F4EE5B42EF801B08280E167
:100950008183C701B6010E942A1CF8016283272FF8
:10096000332727FD3A952383B48221E22583882704
:1009700077FD8095982F0E945D1C9B01AC01C701FB
:10098000B6010E94591B20E030E048EC52E472C2EC
:10099000E881F9810484F585E02DCA0109952FE1EC
:1009A00035E84BEE5FE30E94C21B6B017C0120E443
:1009B00030E0820E931EF401808191818401005405
:1009C0001040080F191F2EE5B22EF801B08281E108
:1009D0008183C701B6010E942A1CF8016283272F78
:1009E000332727FD3A952383B48229E1ECC0E881BF
:1009F000F9810088F189E02DCA0109956B017C011C
:100A000020E430E0820E931EF4010081118120EC7D
:100A10003FEF820E931E080D191D8EE5B82EF801CA
:100A2000B08283E18183C701B6010E942A1CF801CC
:100A30006283272F332727FD3A952383B4822BE146
:100A40002583882777FD8095982F0E945D1C9B0148
:100A5000AC01C701B6010E94591B20E030E44CE113
:100A600056E40E940D1D0E942F1CF8016683672F1B
:100A7000770F770B6783C701B60120E030E040E0D5
:100A800050E00E94BE1B87FD02C02EE401C023E59A
:100A900080E490E0880E991EF40180819181E054F9
:100AA000F040E80FF91F8EE5808783E25FC0E881A0
:100AB000F9810684F785E02DCA0109956B017C0157
:100AC00020E430E0820E931EF4010081118120ECBD
:100AD0003FEF820E931E080D191D5EE5B52EF8013D
:100AE000B08282E18183C701B6010E942A1CF8010D
:100AF0006283272F332727FD3A952383B4822AE187
:100B00002583882777FD8095982F0E945D1C9B0187
:100B1000AC01C701B6010E94591B20E030E44CE152
:100B200056E40E940D1D0E942F1CF8016683672F5A
:100B3000770F770B6783C701B60120E030E040E014
:100B400050E00E94BE1B87FD02C025E401C027E5DE
:100B500080E490E0880E991EF40180819181E05438
:100B6000F040E80FF91F8EE5808782E281872287B7
:100B700013868CE0BDC1E881F9810288F389E02DFC
:100B8000CA0109956B017C0120E430E0820E931EBE
:100B9000F40180819181840100541040080F191FD5
:100BA0002EE5B22EF801B08284E18183C701B6013F
:100BB0000E942A1CF8016283272F332727FD3A95CC
:100BC0002383B4822CE12583882777FD8095982F95
:100BD0000E945D1C9B01AC01C701B6010E94591B1C
:100BE00020E030E04AE754E445C180E4E82EF12CEF
:100BF000E80CF91CF70100811181F401E00FF11FED
:100C00008EE5808385E181830E5F1F4FE881F98146
:100C10000688F789E02DCA010995080D191DF8010C
:100C20008083F701008111810D5F1F4FE881F981F9
:100C30000688F789E02D4DC000E4E02EF12CE80C89
:100C4000F91CF70100811181F401E00FF11F8EE51D
:100C5000808385E181830E5F1F4FE881F9810488DD
:100C6000F589E02DCA010995080D191DF801808349
:100C7000F701008111810D5F1F4FE881F981048820
:100C8000F589E02D26C010E4E12EF12CE80CF91CCA
:100C9000F70100811181F401E00FF11F8EE58083DF
:100CA00087E181830E5F1F4FE881F981008CF18D10
:100CB000E02DCA010995080D191DF8018083F7017F
:100CC000008111810D5F1F4FE881F981008CF18D4A
:100CD000E02DCE010995080D191D892F990F990B4B
:100CE000F801808304C1E881F981028CF38DE02D45
:100CF000CA01099520E430E0820E931EF4012081A0
:100D00003181840100541040020F131F2EE5F801B9
:100D1000208324E22FC0E881F981048CF58DE02D39
:100D2000CA01099520E430E0820E931EF40120816F
:100D30003181840100541040020F131F2EE5F80189
:100D4000208325E217C0E881F981068CF78DE02D1C
:100D5000CA01099520E430E0820E931EF40120813F
:100D60003181840100541040020F131F2EE5F80159
:100D7000208326E2218320E030E04AE754E40E9409
:100D80000D1D30C0E881F98100A0F1A1E02DCA015C
:100D900009956B017C01E881F98100A4F1A5E02DA2
:100DA000CE010995892B29F420E030E04AE754E48C
:100DB00004C020E030E040E251E480E490E0880E9E
:100DC000991EF40180819181840100541040080F24
:100DD000191F8EE5F801808388E28183C701B6017F
:100DE0000E94C21B0E942A1CF8016283672F770FA2
:100DF000770B63837CC0E881F98102A0F3A1E02D29
:100E0000CA01099522EC37E146E05FE30E940D1D1F
:100E10006B017C0120E430E0820E931EF40180819E
:100E20009181840100541040080F191F6EE5B62E01
:100E3000F801B0828AE38183C701B6010E942A1CAF
:100E4000F8016283272F332727FD3A952383B48245
:100E50002BE32583882777FD8095982F0E945D1CC2
:100E60009B01AC01C701B6010E94591B20E030E094
:100E700040E251E40E940D1D0E942F1CF801668380
:100E8000672F770F770B678388E032C0E881F9819D
:100E900004A4F5A5E02DCA01099520E430E0820EF6
:100EA000931EF40120813181E054F040E20FF31FE2
:100EB0002EE520832EE115C0E881F98106A4F7A56F
:100EC000E02DCA01099520E430E0820E931EF40162
:100ED00020813181E054F040E20FF31F2EE52083A2
:100EE0002FE121838283892F990F990B838384E0DB
:100EF000DF91CF911F910F91FF90EF90DF90CF90F6
:100F0000BF909F908F900895CF92DF92EF92FF92C3
:100F10000F931F93CF93DF936B01EA017C0100E0F5
:100F200010E03EC0C80183709070892B59F1D70141
:100F30006C916D3591F0E881F9816E35F1F4019095
:100F4000F081E02DCE016DE50995E881F9810190F0
:100F5000F081E02DCE016EE31DC0E881F9810190A2
:100F6000F081E02DCE016DE50995E881F9810190D0
:100F7000F081E02DCE016DE30DC00190F081E02DF8
:100F8000CE0108C0E881F9810190F081E02DCE0109
:100F9000D7016C9109950F5F1F4F0894E11CF11C5C
:100FA0000C151D050CF4BECF80E0DF91CF911F9191
:100FB0000F91FF90EF90DF90CF9008958F929F92C6
:100FC000AF92BF92CF92DF92EF92FF920F931F9357
:100FD0007C014B015A0170E4C72ED12CC80ED91EDA
:100FE000F6010081118160E10E94A503080F111D27
:100FF000F60111830083C70162E0A5010E94A503E9
:10100000080F111DF60111830083C70165E0A501DA
:101010000E94A503080F111DF60111830083C7016B
:1010200066E0A5010E94A503080F111DF6011183BA
:101030000083C70168E2A5010E94A503080F111DE6
:10104000F60111830083C7016AE3A5010E94A5038D
:10105000080F111DF60111830083C70163E0A5018C
:101060000E94A503080F111DF60111830083C7011B
:1010700064E1A5010E94A503080F111DF701E00F0F
:10108000F11F8EE580830F5F1F4FF60111830083F0
:10109000C701B801A4010E948407F6018083118270
:1010A0001F910F91FF90EF90DF90CF90BF90AF9086
:1010B0009F908F9008958F929F92AF92BF92CF9200
:1010C000DF92EF92FF920F931F937C014B015A0125
:1010D000E0E4CE2ED12CC80ED91EF601008111817C
:1010E00063E10E94A503080F111DF601118300831F
:1010F000C70162E1A5010E94A503080F111DF601B9
:1011000011830083C70161E1A5010E94A503080FB7
:10111000111DF60111830083C70161E0A5010E9442
:10112000A503080F111DF60111830083C70164E0B8
:10113000A5010E94A503080F111DF601118300836C
:10114000C7016DE1A5010E94A503080F111DF6015D
:1011500011830083C7016EE1A5010E94A503080F5A
:10116000111DF60111830083C7016FE1A5010E94E3
:10117000A503080F111DF60111830083C70160E26A
:10118000A5010E94A503080F111DF601118300831C
:10119000C70164E2A5010E94A503080F111DF60115
:1011A00011830083C70165E2A5010E94A503080F12
:1011B000111DF60111830083C70166E2A5010E949B
:1011C000A503080F111DF701E00FF11F8EE58083C5
:1011D0000F5F1F4FF60111830083C701B801A401FF
:1011E0000E948407F601808311821F910F91FF9066
:1011F000EF90DF90CF90BF90AF909F908F90089529
:10120000CF92DF92EF92FF920F931F93CF93DF93D2
:101210008C016B017A01C0E0D0E01CC0F601EC0F3C
:10122000FD1F60810115110521F00130110589F4C0
:1012300005C0E0911504F091160404C0E091170474
:10124000F0911804A081B1812D913C91CF01F90159
:1012500009952196CE15DF0508F3DF91CF911F91F7
:101260000F91FF90EF90DF90CF900895FC0180E107
:1012700091E09183808370931604609315048CE051
:101280008093000181E0809301011092020110928D
:1012900003011682178210861186138214828283BC
:1012A000E45BFF4F80E090E0A0E0B0E08193919399
:1012B000A193B19381939193A193B19311921192C0
:1012C0001192119281939193A193B19381939193F0
:1012D000A193B19381939193A193B19381939193AE
:1012E000A193B1931192119281939193A193B19390
:1012F00081939193A193B19381939193A193B1938E
:1013000023E630E031832083349681939193A19337
:10131000B19381939193A193B19381939193A1936D
:10132000B19381939193A193B19380839183A2838D
:10133000B3837297118210827E9611821082389741
:10134000118210823A96118210820895FC01E45BAA
:10135000FF4F2081318142815381B901CA01089533
:10136000FC01E05BFF4F2081318142815381B90153
:10137000CA010895FC01EC5AFF4F808191810895C4
:10138000FC01E05AFF4F608171818281938120E0EE
:1013900030E048EC52E40E94C21B0895FC01DC01DD
:1013A000AA5ABF4F8C9111969C919C0153E0220F39
:1013B000331F5A95E1F7880F991F280F391FE859F5
:1013C000FF4F80819181280F391FC9010895FC01C9
:1013D000E659FF4F608171818281938128E43DE36A
:1013E0004FE95CE30E940D1D0895FC01EE58FF4F8C
:1013F000608171818281938120E030E048EC52E489
:101400000E94C21B0895FC01EA58FF4F8081918120
:101410000895FC01E658FF4F2081318142815381BC
:10142000B901CA010895FC01E258FF4F6081718142
:10143000828193810E942A1CCB010895FC01EE5702
:10144000FF4F2081318142815381B901CA01089542
:10145000FC01EA57FF4F2081318142815381B9015C
:10146000CA010895FC01E657FF4F20813181428176
:101470005381B901CA01089580E090E0089580E0A9
:1014800090E0089580E090E008956F927F928F92AF
:101490009F92AF92BF92CF92DF92EF92FF920F9303
:1014A0001F937A018B01CB01BA010E942A1C882765
:1014B00077FD8095982F0E945D1C5B016C01C8012F
:1014C000B701A60195010E94591B20E030E040E7DA
:1014D00052E40E940D1D3B014C010E942A1C8827EA
:1014E00077FD8095982F0E945D1C7B018C01C601C1
:1014F000B50120E030E048EC52E40E940D1DA80147
:1015000097010E945A1B5B016C01C401B301A80141
:1015100097010E94591B20E030E040E752E40E940E
:101520000D1D20E030E048EC52E40E94C21B9B01FC
:10153000AC01C601B5010E945A1B1F910F91FF908B
:10154000EF90DF90CF90BF90AF909F908F907F9063
:101550006F9008950F931F938C01FC01E45AFF4F85
:10156000608171818281938120E836E948E15BE402
:101570000E94C21BAB01BC01C8010E94450A1F9119
:101580000F9108950F931F938C01FC01E85AFF4FB0
:10159000608171818281938120E836E948E15BE4D2
:1015A0000E94C21BAB01BC01C8010E94450A1F91E9
:1015B0000F9108952F923F924F925F926F927F9278
:1015C0008F929F92AF92BF92CF92DF92EF92FF9253
:1015D0000F931F93DF93CF93CDB7DEB72E970FB640
:1015E000F894DEBF0FBECDBF00E010E052E4C52E80
:1015F000D12CC80ED91E44E4E42EF12CE80EF91EBD
:1016000033E0A32EB12CAC0EBD1E2AE0222E312CCD
:101610002C0E3D1E9FE0492E512C4C0E5D1E89E084
:10162000682E712C6C0E7D1E4E010894811C911C3D
:10163000F6013081F7014081F801E25BFD4F208126
:10164000F801E05CFD4F808191819C838B833D8319
:101650004E832F83F1E0F8878EEF8987E6E0EA87F3
:101660009091AE039B87809100018C87809101014E
:101670008D87F2E4FE879F5F9093AE036FEF7FEF5D
:10168000F1011CC021912627822F8295807F82271D
:1016900090E0382F2227AC01A3E0440F551FAA95F4
:1016A000E1F724273527672F772762277327A4E0E0
:1016B00095958795AA95E1F768277927E415F505AB
:1016C00009F7F5011AC081918627282F2295207FDE
:1016D000282730E0722F6627C90153E0880F991F31
:1016E0005A95E1F7682779276A277B2744E03595E3
:1016F00027954A95E1F762277327A72FBB27E615A1
:10170000F70509F784E98627282F2295207F2827C7
:1017100030E0922F8827A90173E0440F551F7A9576
:10172000E1F7842795278A279B2764E0359527953D
:101730006A95E1F78227932789839A8380E090E076
:10174000BF0146E050E00E94000980E090E0B50152
:1017500046E050E00E94000980E090E0B40142E0E1
:1017600050E00E9400090E5F1F4F0E30110509F076
:101770005FCF2E960FB6F894DEBF0FBECDBFCF91D0
:10178000DF911F910F91FF90EF90DF90CF90BF906E
:10179000AF909F908F907F906F905F904F903F9011
:1017A0002F900895FC01E45BFF4F80E090E0A0E003
:1017B000B0E081939193A193B19381939193A1937D
:1017C000B19311921192118210823A968193919362
:1017D000A193B19381939193A193B193119211929B
:1017E00081939193A193B19381939193A193B19399
:1017F00081939193A193B19323E630E031832083C9
:10180000389681939193A193B19381939193A193EE
:10181000B19381939193A193B19380839183A28398
:10182000B3833E9611821082369780839183A28380
:10183000B3831292129236961182108238971182D7
:101840001082089521E0FC01258381E090E0089555
:10185000FC01158280E090E00895FC01858190E014
:101860000895FC01E858FF4F808191810895FC01A3
:10187000EA56FF4F808191810895FC01E257FF4FA6
:101880008081918108958F929F92AF92BF92CF9263
:10189000DF92FF920F931F93CF93DF93F62E4901B0
:1018A000C82EDD248601000F111F5801AC0CBD1C91
:1018B000E501CC0FDD1FCC0FDD1FC955DC4F1882B1
:1018C0008B819C818430910509F48EC0853091050F
:1018D0005CF48230910509F443C0833091050CF02B
:1018E000BFC09923C4F44FC28730910509F443C1A6
:1018F0008830910544F48530910509F4DEC00697DF
:1019000009F041C207C18830910509F47AC10997ED
:1019100009F039C2E7C18EEF681709F034C282E0DE
:1019200090E09C838B8380E790E0C89ED001C99EA5
:10193000B00DD89EB00D1124A95CBC4F13961C921B
:10194000139788E390E0C89EF001C99EF00DD89EE1
:10195000F00D1124EE0FFF1FE75CFC4F6083A4C164
:10196000E5E6E61788F489818F5F8983F501EE0F3C
:10197000FF1FEE0FFF1FE755FC4F80818F5F8083B5
:10198000188281E090E02DC080E790E0C89EF001D1
:10199000C99EF00DD89EF00D1124E95CFC4F6383C5
:1019A0001D8280818627282F2295207F282730E0DE
:1019B000522F4427C90163E0880F991F6A95E1F708
:1019C00048275927818190E04827592784E0359599
:1019D00027958A95E1F7422753275183408384E076
:1019E00090E09C838B83CFC18CE190E0C89EF00196
:1019F000C99EF00DD89EF00D1124EE0FFF1FEE0FC3
:101A0000FF1FE55CFC4F608380E790E0C89EF0011B
:101A1000C99EF00DD89EF00D1124E95CFC4F808129
:101A20008627282F2295207F282730E0522F442711
:101A3000C901B3E0880F991FBA95E1F748275927E4
:101A4000818190E048275927A4E035952795AA95EC
:101A5000E1F7422753275183408383E090E0C1CFD1
:101A600080E790E0C89EF001C99EF00DD89EF00D71
:101A70001124E95CFC4F658380818627282F2295FD
:101A8000207F282730E0522F4427C90163E0880FC8
:101A9000991F6A95E1F748275927818190E04827E7
:101AA000592704E0359527950A95E1F742275327F2
:101AB0005183408385E090E094CF80E790E0C89E1A
:101AC000F001C99EF00DD89EF00D1124E95CFC4F89
:101AD000668380818627282F2295207F282730E063
:101AE000522F4427C901B3E0880F991FBA95E1F737
:101AF00048275927818190E048275927A4E0359548
:101B00002795AA95E1F7422753275183408386E022
:101B100090E067CF80E790E0C89EF001C99EF00D8D
:101B2000D89EF00D1124E95CFC4F678380818627E5
:101B3000282F2295207F282730E0522F4427C901E3
:101B400063E0880F991F6A95E1F74827592781813B
:101B500090E04827592794E0359527959A95E1F725
:101B600042275327518340838381882309F446C049
:101B700087E090E036CF6D81F80183E0EE0FFF1F24
:101B80008A95E1F7E01BF10B3196B3E0EE0FFF1FF2
:101B9000BA95E1F7E60FF11DE95CFC4FF0826F5F4B
:101BA0006D8380E790E0C89EF001C99EF00DD89E3D
:101BB000F00D1124E95CFC4F80818F25282F2295A0
:101BC000207F282730E0522F4427C90173E0880F77
:101BD000991F7A95E1F748275927818190E0482796
:101BE000592794E0359527959A95E1F74227532791
:101BF000518340838381681709F0C5C088E090E075
:101C0000F0CE80E790E0C89ED001C99EB00DD89E6E
:101C1000B00D1124A95CBC4F9C911796EC911797BD
:101C2000F0E0E05CFE4F80818927482F4295407F9D
:101C3000482750E0342F2227CA01F3E0880F991F6C
:101C4000FA95E1F72827392711968C91119790E0A2
:101C500028273927E4E055954795EA95E1F72427A9
:101C6000352711963C932E93862F90E03070821783
:101C70009307F9F0F501EE0FFF1FEE0FFF1FE75579
:101C8000FC4F80818F5F8083188281E090E09C838D
:101C90008B83FEEF6F1709F076C082E090E09C83A3
:101CA0008B8313961C9213978FEF9FEF8D939C93CA
:101CB0006AC089E090E09C838B83F80163E0EE0FBB
:101CC000FF1F6A95E1F7E01BF10B319653E0EE0F31
:101CD000FF1F5A95E1F78D81E80FF11DE95CFC4F7C
:101CE000F08251C0262F30E080E790E0C89EB0011E
:101CF000C99E700DD89E700D1124695C7C4FFB014C
:101D0000818190E028173907E9F0F501EE0FFF1FF8
:101D1000EE0FFF1FE755FC4F80818F5F8083188295
:101D200081E090E09C838B83FEEFFF1661F582E0FB
:101D300090E09C838B83EB011B828FEF9FEF998355
:101D4000888321C081E0888381E090E09C838B833D
:101D5000F80133E0EE0FFF1F3A95E1F7E01BF10BBE
:101D6000319623E0EE0FFF1F2A95E1F78D81E80FF2
:101D7000F11DE85CFC4FF082DA01FB0180E7019085
:101D80000D928150E1F7D601AA0FBB1FAC0DBD1D0E
:101D9000AA0FBB1FAA0FBB1FA955BC4F8C91813046
:101DA00069F58CE190E0C89EF001C99EF00DD89EC7
:101DB000F00D1124EE0FFF1FEE0FFF1FE55CFC4F2F
:101DC000808116968C93169718968D919C911997F1
:101DD000892B21F41B961C921E921A97F601EE0F86
:101DE000FF1FEC0DFD1DEE0FFF1FEE0FFF1FE9554E
:101DF000FC4F80859185019691878087F601EE0FD3
:101E0000FF1FEC0DFD1DEE0FFF1FEE0FFF1FDF018B
:101E1000A955BC4F16968C9116978F5FE4018E835F
:101E200018968D919C91199799878887E755FC4F53
:101E300080818A871B8610828C91DF91CF911F91C0
:101E40000F91FF90DF90CF90BF90AF909F908F90B9
:101E50000895CF92DF92EF92FF920F931F93DF933B
:101E6000CF93CDB7DEB7CC57D0400FB6F894DEBFD6
:101E70000FBECDBF7C01162FDC0113968C918823F9
:101E800031F50E94E81960527E4480409040F8F499
:101E90000E94E8196958734180409040C0F01A30A0
:101EA00011F01D3049F4F701EA5BFF4F8081918109
:101EB0000196918380830BC086E490E0E80EF91EC2
:101EC000D7011D921C92EAEBFFEFEE0EFF1E2DE0F4
:101ED000C22ED12CCC0EDD1E80E0612FA6019E010A
:101EE0002F5F3F4F0E94430C882309F421C211E069
:101EF000D70113961C938C898E3109F49FC18F31C1
:101F000048F4813009F454C08130A0F0883109F0E0
:101F10000FC2E7C08A3409F44FC18B3420F48E33EA
:101F200009F006C2C8C1853A09F4D6C18D3F09F04F
:101F3000FFC1EEC1F70117AFEE5BFF4F8A898083C7
:101F40001182F701EC5BFF4F8B8980831182DE01E8
:101F50005596F701E05CFF4F14968C91149780839F
:101F6000118286E790E0E80EF91EF60180859185E2
:101F7000F701918380838AE89FEFE80EF91EF7014D
:101F8000E858FF4F16968C91808311820E94E819C1
:101F9000D70116966D937D938D939C931997149604
:101FA0008C911497882309F4DAC112961C93D7C137
:101FB000ECE4F0E0EE0EFF1ED60156966D917C919A
:101FC000579780E090E00E945B1C20E030E04AE7F9
:101FD00054E40E94C21BF701619371938193919322
:101FE0007F01D60158966D917C915997882777FD8E
:101FF0008095982F0E945D1CF701619371938193E6
:1020000091937F01D60196968C919697992787FD9B
:10201000909591838083ECEAFFEFEE0EFF1E1C96F5
:102020000D911D912D913C911F9750964D915D9171
:102030006D917C915397F701E257FF4F1182108207
:1020400000FF06C040FD04C081E090E091838083E2
:1020500001FF0AC041FD08C0F701E257FF4F808130
:10206000918182609183808302FF0AC042FD08C093
:10207000F701E257FF4F80819181846091838083D3
:1020800003FF0AC043FD08C0F701E257FF4F8081FC
:10209000918188609183808304FF0AC044FD08C059
:1020A000F701E257FF4F80819181806191838083A6
:1020B00005FF0AC045FD08C0F701E257FF4F8081C8
:1020C000918180629183808306FF49C146FD47C1AB
:1020D000F701E257FF4F8081918180649183808373
:1020E0003EC188E590E0E80EF91ED60150966D914C
:1020F0007D918D919C9153970E945D1CF701619396
:102100007193819391937F01D60154966D917D9146
:102110008D919C9157970E945D1CF701608371839C
:102120008283938384EA9FEFE80EF91E8E010B5E93
:102130001F4FF701EA5AFF4FD8015C968C915C97CC
:1021400080831182F701E859FF4F5D968C915D976E
:1021500080831182E4E6F0E0EE0EFF1E54966D914E
:102160007C91559780E090E00E945B1CD7016D93B5
:102170007D938D939C931397F601608D718D828D65
:10218000938D0E945D1CD7019E938E937E936E93D8
:102190007D01EEE0F0E0EE0EFF1ED8015A966D9143
:1021A0007C915B9780E090E00E945B1CF70160836C
:1021B000718382839383D3C08AE690E0E80EF91E90
:1021C000F60184859585A685B785F701808391837F
:1021D000A283B38380E190E0E80EF91ED601589601
:1021E0006D917C915997882777FD8095982F0E9453
:1021F0005D1CF70161937193819391937F01D601E7
:102200005A966D917C915B9780E090E00E945B1CF8
:10221000F701608371838283938384EF9FEFE80EDD
:10222000F91EF60180899189A289B389F70180831B
:102230009183A283B3838EE89FEF4BC0A2E8B0E006
:10224000EA0EFB1EF601608971898289938921EE6D
:102250003EE245E652E40E940D1DD7016D937D9349
:102260008D939D937D018E010B5E1F4FF80164815C
:1022700075818681978121EE3EE245E652E40E9417
:102280000D1DD7016D937D938D939D937D01F80175
:10229000648575858685978521EE3EE245E652E4A4
:1022A0000E940D1DD7016D937D938D939C93139781
:1022B000E6E7FFEF2AC086E990E0E80EF91ED601B6
:1022C00090968D919C919197F701918380838AE6F6
:1022D0009FEFE80EF91E2CC0A2E9B0E0EA0EFB1E4B
:1022E000F6016085718580E090E00E945B1C20E033
:1022F00030E04AE754E40E94C21BD7016D937D93FE
:102300008D939C931397EEE6FFEFEE0EFF1E10C029
:10231000F701E856FF4F8D8980831182D701A656B9
:10232000BF4FFE01769682E301900D928150E1F756
:10233000F701E85BFF4F808191812B853C85820FFF
:10234000931F91838083F701E65BFF4F2B81808190
:102350009181820F911D9183808380E001C081E093
:10236000C458DF4F0FB6F894DEBF0FBECDBFCF917C
:10237000DF911F910F91FF90EF90DF90CF90089524
:102380000F931F93CF93DF93FC01738D769571703C
:10239000A685B7859585772329F08C91892309F443
:1023A00054C004C08C91892309F04FC0838994895B
:1023B00020E001972FEF8F3F9207D9F7C589D68983
:1023C000A685B785158560E031E040E050E000E08B
:1023D000CE01202F01972FEF8F3F9207D9F78C91D5
:1023E000812311F0632B03C0832F80956823330F63
:1023F0004F5F5F4F4830510559F78789908D20E036
:1024000001972FEF8F3F9207D9F771116095809157
:10241000F5032091F60390E001968F73907030E001
:102420008217930779F0E091F503F0E0EB54FC4F4D
:1024300060838091F50390E001968F739070809394
:10244000F50303C0838D8160838FDF91CF911F914E
:102450000F9108951F920F920FB60F9211242F9390
:102460003F934F935F936F937F938F939F93AF931C
:10247000BF93EF93FF938091B3039091B4030097C0
:1024800011F00E94C011FF91EF91BF91AF919F9108
:102490008F917F916F915F914F913F912F910F900D
:1024A0000FBE0F901F9018951F920F920FB60F92AC
:1024B00011242F933F934F935F936F937F938F9349
:1024C0009F93AF93BF93EF93FF938091B30390914A
:1024D000B403009711F00E94C011FF91EF91BF91DA
:1024E000AF919F918F917F916F915F914F913F91AC
:1024F0002F910F900FBE0F901F9018951F920F9263
:102500000FB60F9211242F933F934F935F936F93C6
:102510007F938F939F93AF93BF93EF93FF9380919C
:10252000B3039091B403009711F00E94C011FF9182
:10253000EF91BF91AF919F918F917F916F915F913B
:102540004F913F912F910F900FBE0F901F901895B4
:10255000CF92DF92EF92FF920F931F93CF93DF936F
:10256000EC017A018B011A8E198E188E1F8A1E8A31
:102570001D8A1C8A1B8A20E030E06901CC0CDD1C1E
:10258000C20ED31EB601660F771F660F771FAB0111
:1025900044525F4FFA0185919591A591B4918E15A2
:1025A0009F05A007B107E9F4FB01E052FF4F8591B9
:1025B00094919C8B8B8BFB01EE51FF4F85919491F5
:1025C0009E8B8D8BFB01EC51FF4F85919491988FE1
:1025D0008F8BFB01EA51FF4F859194919A8F898FE0
:1025E00006C02F5F3F4F2D30310509F0C6CF8F89D0
:1025F000988D892B09F449C04C85463108F03DC0BF
:1026000090916800483010F484E005C04E3010F01E
:1026100082E001C081E0892B80936800483028F473
:10262000EDE6F0E0ADE6B0E00BC04E3028F0ECE6B1
:10263000F0E0ACE6B0E004C0EBE6F0E0ABE6B0E022
:102640005081483040F481E090E002C0880F991F2B
:102650004A95E2F710C0242F30E04E3018F428508D
:10266000304002C02E50304081E090E002C0880F20
:10267000991F2A95E2F7852B8C93898D9A8D20E0FE
:1026800001972FEF8F3F9207D9F78091B303909175
:10269000B4038C179D0781F08B8D8E7F8B8F9FB736
:1026A000F8941092F5038091F5038093F603D0938C
:1026B000B403C093B3039FBFDF91CF911F910F91DC
:1026C000FF90EF90DF90CF9008952091B303309169
:1026D000B4032817390731F49091F6038091F5037C
:1026E000981719F42FEF3FEF0FC0E091F603F0E0D9
:1026F000EB54FC4F20818091F60390E001968F739C
:1027000090708093F60330E0C90108952091B303DF
:102710003091B4032817390719F020E030E00EC0DB
:102720008091F5032091F60390E0805C9F4F821B1F
:10273000910960E470E00E94701D9C01C901089538
:102740000F931F93DC0159968D919C915A97892B79
:1027500049F481E090E013969C938E93129720E0C9
:1027600030E097C00FB7F8945B968C915B975196C9
:10277000ED91FC91529750962C91509781FF8DC00E
:102780008081822B808359968D919C915A970596D2
:1027900020E001972FEF8F3F9207D9F75B968C913E
:1027A0005B9781FF35C031E040E050E070E010E021
:1027B000832F90E0862397235196ED91FC915297B9
:1027C00050962C915097892B29F0808120952823B1
:1027D000208303C08081822B808359968D919C91A8
:1027E0005A97212F01972FEF8F3F9207D9F7330F79
:1027F0004F5F5F4F48305105D9F65196ED91FC91EE
:102800005297908150968C9150978095892333C030
:1028100031E040E050E070E010E0832F90E086234C
:1028200097235196ED91FC91529750962C91509789
:10283000892B21F08081822B808304C080812095A8
:102840002823208359968D919C915A97212F019787
:102850002FEF8F3F9207D9F7330F4F5F5F4F48300D
:102860005105D9F65196ED91FC9152978081509681
:102870009C915097892B80830FBF59968D919C9185
:102880005A9720E001972FEF8F3F9207D9F721E069
:1028900030E0C9011F910F91089580812095282370
:1028A000208371CF2091B3033091B40328173907E7
:1028B00049F49FB7F8941092F5038091F503809343
:1028C000F6039FBF08952091B3033091B4032817F6
:1028D000390731F49091F6038091F503981719F4B4
:1028E0002FEF3FEF0AC0E091F603F0E0EB54FC4F0E
:1028F0008081282F332727FD3095C90108951F9324
:10290000CF93DF93EC01162F862F60E00E948A1A86
:102910008B8D81FD04C0812F61E00E94C91A1C8744
:10292000212F30E0C90186559E4FFC0184918D878F
:102930002A563E4FF9016491E62FF0E0EE0FFF1F9B
:10294000E457FE4F859194919F878E87DF91CF91B9
:102950001F910895FF920F931F938C01F62E862FDF
:1029600061E00E948A1A8F2D61E00E94C91A8F2DA2
:1029700090E0FC01E655FE4FE491D8015096EC93AF
:1029800050978A569E4FFC016491E62FF0E0EE0FBF
:10299000FF1FEE57FE4F8591949152969C938E9314
:1029A00051971F910F91FF900895FF920F931F93DE
:1029B0008C01F62EFC011382128288EE93E0A0E0D7
:1029C000B0E084839583A683B78380E692E0918309
:1029D0008083148A138A168A158A108E178A128E9B
:1029E000118E838D2170220F8C7F822B838FC801E3
:1029F000642F0E94AA14C8016F2D0E947F141F919A
:102A00000F91FF9008950F931F9361157105810534
:102A1000910569F481E090E0A0E0B0E08093F703D5
:102A20009093F803A093F903B093FA0308C060935E
:102A3000F7037093F8038093F9039093FA031093CC
:102A4000FC030093FB03809170008E7F80937000E5
:102A50008091B0008C7F8093B0008091B100877F1F
:102A60008093B1008091B6008F7D8093B6008091F5
:102A700070008D7F809370008091B100846080939E
:102A8000B1008091B1008C7F8093B100CA01B9017F
:102A900020E034E244E75BE40E940D1D20E030E0DA
:102AA00040E85CE30E940D1D0E942A1C20E031E0FA
:102AB000261B370B30930304209302041F910F91C0
:102AC00008951092FD031092FE031092FF031092DE
:102AD00000041092010480910204909103048093F9
:102AE000B200E0E7F0E0808181608083089580910A
:102AF000FD039091FE03A091FF03B09100040196A5
:102B0000A11DB11D8093FD039093FE03A093FF03CD
:102B1000B09300048091FD039091FE03A091FF0308
:102B2000B09100042091F7033091F8034091F9032C
:102B30005091FA0382179307A407B50710F180910B
:102B400001048823F1F481E0809301048091FD0366
:102B50009091FE03A091FF03B0910004821B930BA0
:102B6000A40BB50B8093FD039093FE03A093FF038A
:102B7000B0930004E091FB03F091FC0309951092DF
:102B8000010408951F920F920FB60F9211242F93F4
:102B90003F934F935F936F937F938F939F93AF93E5
:102BA000BF93EF93FF93809102049091030480936D
:102BB000B2000E947715FF91EF91BF91AF919F9165
:102BC0008F917F916F915F914F913F912F910F90D6
:102BD0000FBE0F901F9018950F931F93DC01ED917E
:102BE000FC910288F389E02D20E030E000E010E065
:102BF00009951F910F9108958F92AF92CF92EF9206
:102C0000FF920F931F93DF93CF93CDB7DEB7FC01F5
:102C10001382128288EE93E0A0E0B0E08483958373
:102C2000A683B78380E792E09183808355874487AA
:102C300037872687118B008BF38AE28AC48AA58A9C
:102C4000868A70E0CB0123E0880F991F2A95E1F76F
:102C50009C012C5F3B4F308F278B845F9B4F928F63
:102C6000818F81E090E002C0880F991F6A95E2F79A
:102C700020911404282B20931404CF0140E051EE3E
:102C800060E070E00E94EC15CF91DF911F910F91F1
:102C9000FF90EF90CF90AF908F900895FC01838DBF
:102CA000882319F42FEF3FEF0DC00788F08DE02D3A
:102CB0002081318182819381281B390B8481958108
:102CC00028233923C9010895FC01838D882319F431
:102CD0002FEF3FEF11C0018CF28DE02D208131816B
:102CE00082819381281B390B2095309584819581B1
:102CF000282339232F5F3F4FC9010895FC01838D9D
:102D0000882361F0A789B08D2D913C91119712967F
:102D10008D919C9113972817390721F44FEF5FEF9E
:102D2000CA01089512968D919C9113971696ED9174
:102D3000FC911797E80FF91F408112968D919C9195
:102D40001397019614962D913C9115978223932306
:102D500013969C938E93129750E0E2CFFC01838DE3
:102D6000882351F00788F08DE02D20813181828108
:102D700093812817390721F42FEF3FEFC9010895F8
:102D8000828193810680F781E02DE80FF91F808111
:102D9000282F30E0F3CFDC015796ED91FC91589746
:102DA00082819381918380835996ED91FC915A970A
:102DB00080819181938382830895DC015B968C915D
:102DC0005B978823A9F15996ED91FC915A97208140
:102DD00031812F5F3F4F84819581282339235C9671
:102DE0008C915C97882329F0828193812817390779
:102DF000F9F08281938128173907D9F38081918175
:102E00000680F781E02DE80FF91F60835996ED9158
:102E1000FC915A97318320835296ED91FC91539700
:102E2000808156969C91892B808321E030E002C0FE
:102E300020E030E0C9010895CF93DF93EC011B82BD
:102E40001A828A819B81998388831D821C828E814C
:102E50009F81009721F00E9408191F821E82DF9136
:102E6000CF9108950F931F938C01DC015296ED9141
:102E7000FC915397208156968C91569755969C912C
:102E80005597892B80958223808357968D919C91AD
:102E900058970E941C17F801818D928D0E941C1773
:102EA000D8015B961C921F910F9108950F931F9369
:102EB000CF93DF938C01FC01138212828281938174
:102EC0009183808341E0A1E0B0E001C04F5FFD014C
:102ED000042E02C0EE0FFF1F0A94E2F79B0182E06E
:102EE0006130780710F020E032E0E217F30770F36A
:102EF000C1E0D0E002C0CC0FDD1F4A95E2F7219778
:102F0000F801268137812115310541F084819581B1
:102F10008C179D0789F0C9010E940819F801D58313
:102F2000C483CE0101960E946B189C01F80197831F
:102F3000868380E0232B09F081E0DF91CF911F9100
:102F40000F910895AF92BF92CF92DF92EF92FF92CE
:102F50000F931F93CF93DF937C015A016B01E9011B
:102F6000DC015B968C915B978823F1F0211531058C
:102F700039F45796ED91FC915897C481D5812196EB
:102F80000115110549F4D7015996ED91FC915A9715
:102F9000048115810F5F1F4FD701ED91FC910088CF
:102FA000F189E02DC7010995F7018789908D209758
:102FB00011F4C0E8D0E0BE010E945617882381F0CA
:102FC000D70159968D919C915A970115110511F4CD
:102FD00000E110E0B8010E945617882309F04DC0A7
:102FE000D701ED91FC910088F189E02DC701099589
:102FF00067C0D7015096ED91FC915197B0E0AB16A8
:10300000B1EEBB06B0E0CB06B0E0DB0609F454C07D
:1030100081E090E0D70154960C9002C0880F991F70
:103020000A94E2F7808360E079E08DE390E0A60106
:1030300095010E94A51D2150304040405040CA01DA
:10304000B90122E030E040E050E00E94A51DD70128
:103050001C96ED91FC911D9730831E96ED91FC918D
:103060001F972083D7015296ED91FC915397808151
:1030700055969C91892B808323C0D7015996ED9159
:10308000FC915A971382128282819381918380836B
:103090005796ED91FC915897138212828281938109
:1030A0009183808381E05B968C931A141B041C042B
:1030B0001D040CF49ECFD6CF108220E130E0C7CFA4
:1030C000DF91CF911F910F91FF90EF90DF90CF9004
:1030D000BF90AF9008950F931F93CF93DF93BC01E0
:1030E0008230910510F462E070E0E0912404F091E8
:1030F000250440E050E0A0E0B0E024C08081918150
:1031000086179707D0F08617970771F4828193810D
:10311000109729F013969C938E9312972CC090933E
:1031200025048093240427C04115510519F0841704
:10313000950718F48D01AC01EF01DF0182819381C5
:103140009C01F9013097D1F641155105F9F0CA01FA
:10315000861B970B8430910580F48A819B81011531
:10316000110521F0F8019383828304C09093250414
:1031700080932404FE01329645C0FE01E80FF91F3A
:10318000619371930297998388833CC08091220454
:1031900090912304892B41F48091080190910901B9
:1031A000909323048093220440910A0150910B01D3
:1031B0004115510541F44DB75EB7809106019091DC
:1031C0000701481B590B2091220430912304241736
:1031D0003507B0F4CA01821B930B8617970780F05E
:1031E000AB014E5F5F4F8417950750F0420F531F9E
:1031F0005093230440932204F9016193719302C018
:10320000E0E0F0E0CF01DF91CF911F910F910895A1
:10321000CF93DF939C01009709F48FC0EC012297B4
:103220001B821A8260912404709125046115710536
:1032300081F488819981820F931F2091220430911B
:1032400023042817390739F5D0932304C0932204A7
:1032500074C0DB0140E050E0AC17BD0708F1BB8350
:10326000AA83FE0121913191E20FF31FAE17BF0730
:1032700079F48D919C911197280F391F2E5F3F4F44
:103280003983288312968D919C9113979B838A830F
:103290004115510571F4D0932504C09324044DC009
:1032A00012968D919C911397AD01009711F0DC015E
:1032B000D3CFDA011396DC93CE931297FA012191C2
:1032C0003191E20FF31FCE17DF0769F488819981EE
:1032D000280F391F2E5F3F4FFA01318320838A81E7
:1032E0009B8193838283E0E0F0E0DB0112968D9175
:1032F0009C911397009719F0BC01FD01F6CFAB012B
:103300004E5F5F4FDB018D919C91840F951F209143
:103310002204309123042817390779F4309729F4CF
:10332000109225041092240402C01382128242508B
:1033300050405093230440932204DF91CF9108958D
:103340001F920F920FB60F9211242F933F938F93DA
:103350009F93AF93BF9380911D0490911E04A09101
:103360001F04B0912004309121040196A11DB11DCC
:10337000232F2D5F2D3720F02D570196A11DB11D54
:103380002093210480931D0490931E04A0931F0496
:10339000B09320048091190490911A04A0911B0409
:1033A000B0911C040196A11DB11D80931904909346
:1033B0001A04A0931B04B0931C04BF91AF919F917A
:1033C0008F913F912F910F900FBE0F901F901895E6
:1033D0008FB7F89420911D0430911E0440911F0472
:1033E000509120048FBFB901CA0108959B01AC011F
:1033F0007FB7F8948091190490911A04A0911B044E
:10340000B0911C0466B5A89B05C06F3F19F00196EA
:10341000A11DB11D7FBFBA2FA92F982F8827860F16
:10342000911DA11DB11D62E0880F991FAA1FBB1F2E
:103430006A95D1F7BC012DC0FFB7F89480911904AB
:1034400090911A04A0911B04B0911C04E6B5A89BAE
:1034500005C0EF3F19F00196A11DB11DFFBFBA2FA6
:10346000A92F982F88278E0F911DA11DB11DE2E075
:10347000880F991FAA1FBB1FEA95D1F7861B970BD0
:10348000885E9340C8F2215030404040504068511F
:103490007C4F211531054105510571F60895789449
:1034A00084B5826084BD84B5816084BD85B5826049
:1034B00085BD85B5816085BDEEE6F0E080818160E7
:1034C0008083E1E8F0E010828081826080838081E7
:1034D00081608083E0E8F0E0808181608083E1EBBF
:1034E000F0E0808184608083E0EBF0E080818160A7
:1034F0008083EAE7F0E0808184608083808182605D
:103500008083808181608083808180688083109245
:10351000C1000895CF93DF93482F50E0CA0186552C
:103520009E4FFC0134914A565E4FFA0184918823E4
:1035300069F190E0880F991FFC01E858FE4FA591B2
:10354000B491FC01EE57FE4FC591D491662351F41E
:103550002FB7F8948C91932F909589238C93888121
:1035600089230BC0623061F42FB7F8948C91932FAC
:10357000909589238C938881832B88832FBF06C0E5
:103580009FB7F8948C91832B8C939FBFDF91CF9141
:103590000895482F50E0CA0182549E4FFC012491A7
:1035A000CA0186559E4FFC0194914A565E4FFA011E
:1035B0003491332309F440C0222351F1233071F0B8
:1035C000243028F42130A1F0223011F514C0263027
:1035D000B1F02730C1F02430D9F404C080918000CC
:1035E0008F7703C0809180008F7D8093800010C012
:1035F00084B58F7702C084B58F7D84BD09C080916A
:10360000B0008F7703C08091B0008F7D8093B000B1
:10361000E32FF0E0EE0FFF1FEE57FE4FA591B491A0
:103620002FB7F894662321F48C919095892302C0DA
:103630008C91892B8C932FBF0895CF93DF930E9499
:103640004F1A0E942303C0E0D0E00E94740220972A
:10365000E1F30E940000F9CF0E946B180895CF9209
:10366000DF92EF92FF920F931F93CF93DF937C0132
:103670006B018A01C0E0D0E00FC0D6016D916D01F1
:10368000D701ED91FC910190F081E02DC7010995E2
:10369000C80FD91F015010400115110571F7CE0157
:1036A000DF91CF911F910F91FF90EF90DF90CF901E
:1036B00008955058BB27AA270ED075C166D130F0A7
:1036C0006BD120F031F49F3F11F41EF45BC10EF476
:1036D000E095E7FB51C1E92F77D180F3BA17620774
:1036E00073078407950718F071F49EF58FC10EF4E7
:1036F000E0950B2EBA2FA02D0B01B90190010C0102
:10370000CA01A0011124FF27591B99F0593F50F419
:10371000503E68F11A16F040A22F232F342F442771
:10372000585FF3CF469537952795A795F040539569
:10373000C9F77EF41F16BA0B620B730B840BBAF039
:103740009150A1F0FF0FBB1F661F771F881FC2F7A4
:103750000EC0BA0F621F731F841F48F487957795B8
:103760006795B795F7959E3F08F0B3CF9395880F6F
:1037700008F09927EE0F979587950895D9D008F40A
:1037800081E008950CD00FC107D140F0FED030F099
:1037900021F45F3F19F0F0C0511139C1F3C014D1C9
:1037A00098F39923C9F35523B1F3951B550BBB2708
:1037B000AA2762177307840738F09F5F5F4F220FB5
:1037C000331F441FAA1FA9F333D00E2E3AF0E0E8AE
:1037D00030D091505040E695001CCAF729D0FE2FFA
:1037E00027D0660F771F881FBB1F2617370748078C
:1037F000AB07B0E809F0BB0B802DBF01FF27935842
:103800005F4F2AF09E3F510568F0B6C000C15F3F90
:10381000ECF3983EDCF3869577956795B795F79529
:103820009F5FC9F7880F911D9695879597F9089521
:10383000E1E0660F771F881FBB1F621773078407BD
:10384000BA0720F0621B730B840BBA0BEE1F88F7CC
:10385000E095089504D06894B111D9C00895BCD002
:1038600088F09F5790F0B92F9927B751A0F0D1F069
:10387000660F771F881F991F1AF0BA95C9F712C0F3
:10388000B13081F0C3D0B1E00895C0C0672F782F68
:103890008827B85F39F0B93FCCF38695779567955F
:1038A000B395D9F73EF490958095709561957F4FCB
:1038B0008F4F9F4F0895E89409C097FB3EF4909571
:1038C0008095709561957F4F8F4F9F4F9923A9F0F9
:1038D000F92F96E9BB279395F69587957795679588
:1038E000B795F111F8CFFAF4BB0F11F460FF1BC0CC
:1038F0006F5F7F4F8F4F9F4F16C0882311F096E95F
:1039000011C0772321F09EE8872F762F05C066230C
:1039100071F096E8862F70E060E02AF09A95660FC5
:10392000771F881FDAF7880F9695879597F908957E
:10393000990F0008550FAA0BE0E8FEEF16161706C0
:10394000E807F907C0F012161306E407F50798F028
:10395000621B730B840B950B39F40A2661F0232B41
:10396000242B252B21F408950A2609F4A140A695BD
:103970008FEF811D811D089597F99F6780E870E0A2
:1039800060E008959FEF80EC089500240A941616D5
:10399000170618060906089500240A94121613063D
:1039A000140605060895092E0394000C11F48823CB
:1039B00052F0BB0F40F4BF2B11F460FF04C06F5FE7
:1039C0007F4F8F4F9F4F089557FD9058440F551FBD
:1039D00059F05F3F71F04795880F97FB991F61F091
:1039E0009F3F79F087950895121613061406551F08
:1039F000F2CF4695F1DF08C0161617061806991F74
:103A0000F1CF86957105610508940895E894BB2768
:103A100066277727CB0197F908950BD0C4CFB5DF80
:103A200028F0BADF18F0952309F0A6CFABCF112408
:103A3000EECFCADFA0F3959FD1F3950F50E0551F4D
:103A4000629FF001729FBB27F00DB11D639FAA27F3
:103A5000F00DB11DAA1F649F6627B00DA11D661F42
:103A6000829F2227B00DA11D621F739FB00DA11D63
:103A7000621F839FA00D611D221F749F3327A00D1D
:103A8000611D231F849F600D211D822F762F6A2FB9
:103A900011249F5750408AF0E1F088234AF0EE0F3E
:103AA000FF1FBB1F661F771F881F91505040A9F74B
:103AB0009E3F510570F060CFAACF5F3FECF3983E78
:103AC000DCF3869577956795B795F795E7959F5FB2
:103AD000C1F7FE2B880F911D9695879597F908954C
:103AE00097FB092E07260AD077FD04D049D006D0CF
:103AF00000201AF4709561957F4F0895F6F7909520
:103B000081959F4F0895A1E21A2EAA1BBB1BFD01B0
:103B10000DC0AA1FBB1FEE1FFF1FA217B307E407AC
:103B2000F50720F0A21BB30BE40BF50B661F771F04
:103B3000881F991F1A9469F76095709580959095E4
:103B40009B01AC01BD01CF01089597FB092E05260D
:103B50000ED057FD04D0D7DF0AD0001C38F45095A2
:103B60004095309521953F4F4F4F5F4F0895F6F7A1
:103B700090958095709561957F4F8F4F9F4F0895D9
:103B8000AA1BBB1B51E107C0AA1FBB1FA617B70783
:103B900010F0A61BB70B881F991F5A95A9F780959F
:103BA0009095BC01CD010895EE0FFF1F0590F49193
:083BB000E02D0994F894FFCF09
:103BB8000C01000000008000260400000000000046
:103BC800C009030A130ABA09CE09F509E709AA0ABE
:103BD800C20A090A3C0A420A3F0A1E0A280A320A8D
:103BE800B009A609220C280C2D0C310C370C3D0C01
:103BF800327C8900EDD96877000000590000000088
:103C080000000000D69FDCA81817AA90437327F677
:103C1800B968EDF4DED409FEE61C1C84DDE80B99D6
:103C28002927D6DF8D210F036418EFEE1EF0B78227
:103C38008200941500347C0000001400988F000066
:103C4800000000000000000000E7B73F3600000059
:103C580000000000AF669ED03800000000000000A1
:103C6800000000000000000000000000000000004C
:103C7800000000000000000000000000000000003C
:103C880000000000000086DBD0BC54161315860027
:103C98004E44BD7F6F151590010000000000000024
:103CA800000000000000000000000000000000000C
:103CB80000000000000000000000000000000000FC
:103CC80000000000000000000000000000000000EC
:103CD80000000000000000000000000000000000DC
:103CE800000000000000000000CC31AA2C532E0078
:103CF80002000200020002000200050002000100AA
:103D08000200030006000A000B000C00000000007F
:103D1800A0132F1B861365136314521400000000B0
:103D2800DD162F1B4E167E16AE16CB166416EC1536
:043D38003217A21785
:00000001FF
