:100000000C943F020C9467020C9467020C94E8185D
:100010000C9412190C943C190C9467020C9467020E
:100020000C9467020C947F1C0C9467020C9467027A
:100030000C9467020C9467020C9467020C9467029C
:100040000C945D200C9467020C9469020C94A50238
:100050000C9467020C9467020C9467020C9467027C
:100060000C9467020C946702FE0538064E0664067F
:100070009006A606B008FC05FC0534094A0960098B
:100080007609DC08F208EC063107B40754071808B3
:10009000FC05FC05FC05FC05FC05FC05FC05FC0558
:1000A0007A06C60808091E09FC05FC05FC05FC05C6
:1000B000FC05FC05FC055208FC05FC05FC05FC05DF
:1000C000FC05FC05FC05FC05FC05FC05FC05FC0528
:1000D000FC05FC05FC05FC05FC057008084AD73B3F
:1000E0003BCE016E84BCBFFDC12F3D6C74319ABD07
:1000F00056833DDA3D00C77F11BED9E4BB4C3E912B
:100100006BAAAABE000000803F05A84CCDB2D44E19
:10011000B93836A9020C50B9918688083CA6AAAA1B
:100120002ABE000000803F41524D494E47204D4FAE
:10013000544F52530050726541726D3A2052432021
:100140006E6F742063616C696272617465640050E3
:10015000726541726D3A204261726F206E6F742039
:100160006865616C7468790050726541726D3A20FF
:10017000436F6D70617373206E6F74206865616C7E
:100180007468790050726541726D3A204261642052
:1001900047505320506F7300636F6D70617373200D
:1001A00064697361626C656400636865636B206396
:1001B0006F6D70617373004D6F746F72205465734F
:1001C000743A205243206E6F742063616C696272CE
:1001D00061746564004D6F746F7220546573743A76
:1001E0002076656869636C65206E6F74206C616E43
:1001F0006465640043726173683A20446973617294
:100200006D696E67005061726163687574653A204C
:1002100052656C6561736564006572726F722073FC
:10022000657474696E672072616C6C7920706F6997
:100230006E74004175746F54756E653A2053746125
:1002400072746564004175746F54756E653A20531D
:10025000746F70706564005472696D2073617665A7
:100260006400454B462076617269616E6365007675
:1002700065726966795F6E61763A20696E76616C47
:100280006964206F72206E6F2063757272656E7480
:10029000206E6176007665726966795F636F6E6461
:1002A00069746F6E3A20696E76616C6964206F7252
:1002B000206E6F2063757272656E7420636F6E645A
:1002C0006974696F6E0044697361626C652066656C
:1002D0006E6365206661696C656420286175746F62
:1002E00064697361626C6529004553432043616C06
:1002F0003A207265737461727420626F6172640077
:100300004553432043616C3A2070617373696E6793
:100310002070696C6F742074687220746F2045536C
:100320004373004C6F772042617474657279004C9E
:100330006F7374204750530046656E63652064698F
:100340007361626C656420286175746F64697361A0
:10035000626C652900270135014F0168018401980D
:1003600001A901B701D501F40105021902330245C3
:1003700002570262026F029502C602E902000323DD
:10038000032F03380300C201000100110011000C0B
:100390000000E100000A0025002500210000960071
:1003A000001900390039003600127A00001F00469B
:1003B00000460044008070000022004D004D004ABD
:1003C00000004B00003600750075007200403800D8
:1003D000004A009C009C009900802500007200ECFF
:1003E00000EC00E900C0120000E900DA01DA01D7F0
:1003F0000160090000D701B603B603B303B00400DF
:1004000000B3036E076E076B07580200006E07DC2F
:100410000EDC0ED80E2C010000DC0EC11DC11DBE6D
:100420001D00000000240027002A00000000002515
:100430000028002B000000000023002600290004F3
:10044000040404040404040202020202020303037B
:100450000303030102040810204080010204081075
:100460002001020408102000000007000201000023
:100470000304060000000000000000000B0311242C
:100480001FBECFEFD8E0DEBFCDBF14E0A0E0B1E0EB
:10049000ECEBF0E502C005900D92AC30B107D9F756
:1004A00015E0ACE0B4E001C01D92AD3EB107E1F74C
:1004B00014E0CEE7D4E004C02297FE010E94582841
:1004C000CC37D107C9F70E94DB210C945C280C942F
:1004D00000001F920F920FB60F9211242F933F939B
:1004E0004F938F939F93EF93FF934091C60020917A
:1004F000CB053091CC052F5F3F4F8091CF05909178
:10050000D005282339238091CD059091CE05281759
:10051000390779F08091CB059091CC05E091D10518
:10052000F091D205E80FF91F40833093CC0520935A
:10053000CB05FF91EF919F918F914F913F912F911B
:100540000F900FBE0F901F9018951F920F920FB62D
:100550000F9211242F933F938F939F93EF93FF93C9
:100560002091D5053091D6058091D3059091D40581
:1005700028173907E9F08091D5059091D605E091CB
:10058000D905F091DA05E80FF91F80818093C60044
:100590008091D5059091D60501962091D70530918F
:1005A000D805822393239093D6058093D50510C058
:1005B0002091D3053091D4058091D5059091D60531
:1005C0002817390729F48091C1008F7D8093C100DD
:1005D000FF91EF919F918F913F912F910F900FBEBF
:1005E0000F901F901895DF93CF9300D0CDB7DEB753
:1005F0008091E9059091EA05009711F48DEE95E060
:100600009E012F5F3F4F281B390BC9010F900F90A0
:10061000CF91DF9108958F92AF92CF92EF92FF9298
:100620000F931F938EE094E060E045EC50E024ECE3
:1006300030E000EC10E0F1ECEF2EF12CCC24C39470
:10064000E8E9AE2E70E2872E0E94B91C80E8809304
:1006500031041092320480913204809334048091EA
:100660003404809333041F910F91FF90EF90CF904B
:10067000AF908F90089534C020910C0430910D04F8
:1006800080913204815080933204809134046091CF
:100690003104772767FD7095992787FD90950E9413
:1006A00006288093340480913404E82FFF27E7FD67
:1006B000F095EF5CFB4F64818F5F80933404C90138
:1006C0000E94FF159C0197FD0BC040910C045091B6
:1006D0000D0460912F0470913004CA010E94B3127E
:1006E00080913204181644F208958091B5049091D7
:1006F000B60401969093B6048093B50469E170E066
:100700000E940628892B91F41092B6041092B50429
:1007100060912D0470912E0440910C0450910D04B1
:1007200080912B0490912C040E942E0B8091B50493
:100730009091B60465E070E00E94062820912B0499
:1007400030912C0460912D0470912E0440910C0482
:1007500050910D04892BE9F4C9010E94A70A609108
:100760002F047091300440910C0450910D0480913D
:100770002B0490912C040E946F0BE0910C04F091DB
:100780000D0487819085009739F0019790878783C2
:100790000895C9010E94F80908950E94A52020919A
:1007A000B7043091B8044091B9045091BA04621B67
:1007B000730B840B950B6536710581059105C8F0A7
:1007C0000E94A5206093B7047093B8048093B90485
:1007D0009093BA048091BB04882321F481E0809334
:1007E000BB0402C01092BB048DE06091BB040E9468
:1007F000862108950F931F93CF93DF93E0910C040C
:10080000F0910D0482818823A1F40E94A520E0913B
:100810000C04F0910D042381348145815681621BC3
:10082000730B840B950B695B7B408040904008F410
:1008300082C08EE094E00E94881D10923204809164
:100840003204809334048091340480933304809183
:100850000C0490910D040E94CD0FC0E0D0E0809177
:100860002F049091300460E071E00E946B230091AE
:100870002F04109130040E94A520AB01BC01E0912F
:100880000C04F0910D0483819481A581B681481BED
:10089000590B6A0B7B0BC8012AE030E00E94C8228A
:1008A00080910C0490910D040E94DC0E62E370E0D4
:1008B00080E090E00E94B3202196C330D10579F604
:1008C000E0910C04F0910D04128268EE73E080E078
:1008D00090E00E94B32080910C0490910D040E943E
:1008E000CD0F29C08EE094E00E943B1D282F8091FF
:1008F000320480913204809132048F5F80933204FD
:100900008091330460913104772767FD70959927B2
:1009100087FD90950E94062880933304E09133046C
:10092000FF27E7FDF095EF5CFB4F248380913304B4
:100930008F5F809333048EE094E00E940B1D1816A5
:10094000190684F20E943B030E94CD03DF91CF91F0
:100950001F910F9108950F931F93DF93CF9300D0B2
:10096000CDB7DEB78CE190E00E94EC21182F092F63
:100970006BE04CE020E00E94921B10932F04009348
:100980003004812F902F40E056E960E070E00E9433
:100990006619A0912F04B0913004ED91FC9111974C
:1009A0000284F385E02DCD0109958CE190E00E9451
:1009B000EC21182F092F66E045E021E00E94921BF0
:1009C00010932D0400932E04812F902F40E855E2C0
:1009D00060E070E00E9466198EE094E040E051EE25
:1009E00060E070E00E94A91C8EE094E00E94881DE7
:1009F00080912F049091300466E171E00E945524AB
:100A000080912F049091300467E171E00E94552499
:100A100080912F049091300468E371E00E94552486
:100A200080912F049091300468E471E00E946B2360
:100A300080912F04909130042091E9053091EA05CE
:100A40002115310511F42DEE35E0BE016F5F7F4FAA
:100A5000621B730B4AE050E00E94392380912F04FF
:100A60009091300463E571E00E9455248DE061E0CF
:100A70000E94862181E08093BB048CEC90E00E9470
:100A8000EC21182F092F6EE074E00E94F10C1093F6
:100A90000C0400930D0482E490E00E94EC21182FD6
:100AA000092F0E94D70510932B0400932C048091EA
:100AB0002F04909130046AE571E00E94552400E013
:100AC00010E000FF10C080912F049091300465E782
:100AD00071E00E946B238DE061E00E94862181E03D
:100AE0008093BB0406C08DE060E00E9486211092D6
:100AF000BB0462E370E080E090E00E94B3200F5FEF
:100B00001F4F083C1105E9F680912F0490913004A5
:100B100066E171E00E94552480912F049091300489
:100B200067E771E00E94552468EC70E080E090E097
:100B30002FE632E143E85AE305E713E00E94C01BC9
:100B40000E941E1C80912F049091300469E871E08E
:100B50000E94552480912F04909130046EE971E039
:100B60000E946B2380912F04909130042091E9051D
:100B70003091EA052115310511F42DEE35E0BE0165
:100B80006F5F7F4F621B730B4AE050E00E94392376
:100B900080912F049091300463E571E00E94552408
:100BA0000F900F90CF91DF911F910F910895FC014D
:100BB000E05CFF4F1182108208958F929F92BF9246
:100BC000CF92DF92EF92FF920F931F93CF93DF9319
:100BD0004C01EA01772767FD7095872F972FFB015E
:100BE0003197EA33F10540F4EC5CFF4FEE0FFF1F45
:100BF0000590F491E02D099480E094C3E881F98197
:100C00000190F081E02DCA0109956B017C0120E47F
:100C100030E0820E931EF4018081918184010054A2
:100C20001040080F191F6EE5B62EF801B08281E062
:100C30008183C701B6010E949E25F8016283272F98
:100C4000332727FD3A952383B48229E0258388271B
:100C500077FD8095982F0E94D1259B01AC01C7019B
:100C6000B6010E94682420E030E44CE156E4EDC077
:100C7000E881F9810280F381E02DCA01099520E421
:100C800030E0820E931EF40120813181E054F04067
:100C9000E20FF31F2EE5208322E03DC3E881F981B6
:100CA0000480F581E02DCA01099520E430E0820E30
:100CB000931EF40120813181E054F040E20FF31FD4
:100CC0002EE5208323E027C3E881F9810680F781A0
:100CD000E02DCA01099520E430E0820E931EF40154
:100CE00020813181E054F040E20FF31F2EE5208394
:100CF00024E011C3E881F98104A0F5A1E02DCA0127
:100D0000099520E430E0820E931EF40120813181A8
:100D1000E054F040E20FF31F2EE520832DE1FBC2EB
:100D2000E881F9810084F185E02DCA01099520E46C
:100D300030E0820E931EF40120813181E054F040B6
:100D4000E20FF31F2EE5208325E0E5C20091BC04ED
:100D50001091BD04E881F98104ACF5ADE02DCA0124
:100D600009950817190730F48091BC049091BD04CF
:100D7000069720F01092BD041092BC04E881F9811E
:100D800006ACF7ADE02DCE01099520E430E0820EEF
:100D9000931EF40120813181E054F040E20FF31FF3
:100DA0002EE5208326E021836091BC047091BD0470
:100DB000292F332727FD3A95AB0134E0440F551F07
:100DC0003A95E1F7240F228383836F5F7F4F7093FF
:100DD000BD046093BC04A5C2E881F9810284F38557
:100DE000E02DCA0109956B017C0120E430E0820E00
:100DF000931EF40180819181840100541040080FFA
:100E0000191F9EE5B92EF801B08280E18183C701E8
:100E1000B6010E949E25F8016283272F332727FD04
:100E20003A952383B48221E22583882777FD809534
:100E3000982F0E94D1259B01AC01C701B6010E94E9
:100E4000682420E030E048EC52E40E94F3260E943F
:100E5000A325F8016683672F770F770B678388E0F8
:100E600061C2E881F9810484F585E02DCA01099504
:100E70000E949E2520E430E0820E931EF401208122
:100E80003181E054F040E20FF31F3EE5308321E171
:100E900021836283672F770F770B6383348389E124
:100EA000858316821782DBCFE881F9810088F1897A
:100EB000E02DCA0109956B017C0120E430E0820E2F
:100EC000931EF4010081118120EC3FEF820E931EEE
:100ED000080D191D6EE5B62EF801B08283E18183FD
:100EE000C701B6010E949E25F8016283272F332790
:100EF00027FD3A952383B4822BE12583882777FD4C
:100F00008095982F0E94D1259B01AC01C701B601A5
:100F10000E94682420E030E44CE156E40E94F3266D
:100F20000E94A325F8016683672F770F770B6783ED
:100F3000C701B60120E030E040E050E00E942F25DC
:100F400087FD02C02EE401C023E580E490E0880E16
:100F5000991EF40180819181E054F040E80FF91F5F
:100F60008EE5808783E25FC0E881F9810684F7859A
:100F7000E02DCA0109956B017C0120E430E0820E6E
:100F8000931EF4010081118120EC3FEF820E931E2D
:100F9000080D191D3EE5B32EF801B08282E1818370
:100FA000C701B6010E949E25F8016283272F3327CF
:100FB00027FD3A952383B4822AE12583882777FD8C
:100FC0008095982F0E94D1259B01AC01C701B601E5
:100FD0000E94682420E030E44CE156E40E94F326AD
:100FE0000E94A325F8016683672F770F770B67832D
:100FF000C701B60120E030E040E050E00E942F251C
:1010000087FD02C025E401C027E580E490E0880E5A
:10101000991EF40180819181E054F040E80FF91F9E
:101020008EE5808782E28187228713868CE07AC1F1
:10103000E881F9810288F389E02DCA0109956B01E5
:101040007C0120E430E0820E931EF40180819181C6
:10105000840100541040080F191F8EE5B82EF801C6
:10106000B08284E18183C701B6010E949E25F80108
:101070006283272F332727FD3A952383B4822CE1FF
:101080002583882777FD8095982F0E94D1259B0185
:10109000AC01C701B6010E94682420E030E04AE7B5
:1010A00054E4D3CEE881F98100A0F1A1E02DCA017A
:1010B00009950E949E2520E430E0820E931EF401E3
:1010C00020813181E054F040E20FF31F2EE52083B0
:1010D00028E221836283672F770F770B638321C117
:1010E000E881F98102A0F3A1E02DCA01099522EC63
:1010F00037E146E05FE30E94F3266B017C0120E4C8
:1011000030E0820E931EF4018081918184010054AD
:101110001040080F191F5EE5B52EF801B0828AE372
:101120008183C701B6010E949E25F8016283272FA3
:10113000332727FD3A952383B4822BE32583882721
:1011400077FD8095982F0E94D1259B01AC01C701A6
:10115000B6010E94682420E030E040E251E475CE00
:10116000E881F98106A8F7A9E02DCA01099520E4D4
:1011700030E0820E931EF40120813181E054F04072
:10118000E20FF31F2EE5208327E0C5C0E881F98137
:1011900006A0F7A1E02DCA01099520E430E0820EF7
:1011A000931EF40120813181E054F040E20FF31FDF
:1011B0002EE520832EE1AFC0E881F98100A4F1A5DE
:1011C000E02DCA01099520E430E0820E931EF4015F
:1011D00020813181E054F040E20FF31F2EE520839F
:1011E0002EE099C0E881F98102A4F3A5E02DCA019F
:1011F000099520E430E0820E931EF40120813181B4
:10120000E054F040E20FF31F2EE520832FE083C06F
:10121000E881F98104A4F5A5E02DCA01099520E42F
:1012200030E0820E931EF40120813181E054F040C1
:10123000E20FF31F2EE520832FE16DC0E881F981D5
:1012400006A4F7A5E02DCA01099520E430E0820E3E
:10125000931EF40120813181E054F040E20FF31F2E
:101260002EE5208320E257C0E881F98100A8F1A98A
:10127000E02DCA01099520E430E0820E931EF401AE
:1012800020813181E054F040E20FF31F2EE52083EE
:101290002AE041C0E881F98102A8F3A9E02DCA0142
:1012A000099520E430E0820E931EF4012081318103
:1012B000E054F040E20FF31F2EE520832BE02BC01B
:1012C000E881F98104A8F5A9E02DCA01099520E477
:1012D00030E0820E931EF40120813181E054F04011
:1012E000E20FF31F2EE520832CE015C0E881F98181
:1012F00000ACF1ADE02DCA01099520E430E0820E8A
:10130000931EF40120813181E054F040E20FF31F7D
:101310002EE520832DE021838283892F990F990B5D
:10132000838384E0DF91CF911F910F91FF90EF9025
:10133000DF90CF90BF909F908F900895CF92DF92D3
:10134000EF92FF920F931F93CF93DF936B01EA010C
:101350007C0100E010E03EC0C80183709070892BD2
:1013600059F1D7016C916D3591F0E881F9816E35B5
:10137000F1F40190F081E02DCE016DE50995E88151
:10138000F9810190F081E02DCE016EE31DC0E8816E
:10139000F9810190F081E02DCE016DE50995E8819C
:1013A000F9810190F081E02DCE016DE30DC0019037
:1013B000F081E02DCE0108C0E881F9810190F08133
:1013C000E02DCE01D7016C9109950F5F1F4F089456
:1013D000E11CF11C0C151D050CF4BECF80E0DF9163
:1013E000CF911F910F91FF90EF90DF90CF900895D4
:1013F0008F929F92AF92BF92CF92DF92EF92FF9225
:101400000F931F937C014B015A0170E4C72ED12C1E
:10141000C80ED91EF601008111816DE10E94DD0523
:10142000080F111DF60111830083C70162E0A501B9
:101430000E94DD05080F111DF60111830083C7010D
:1014400065E0A5010E94DD05080F111DF60111835D
:101450000083C70160E1A5010E94DD05080F111D91
:10146000F60111830083C70164E1A5010E94DD0537
:10147000080F111DF60111830083C7016AE0A50161
:101480000E94DD05080F111DF60111830083C701BD
:1014900068E2A5010E94DD05080F111DF601118308
:1014A0000083C7016FE0A5010E94DD05080F111D33
:1014B000F60111830083C7016AE3A5010E94DD05DF
:1014C000080F111DF60111830083C7016CE0A5010F
:1014D0000E94DD05080F111DF60111830083C7016D
:1014E00063E0A5010E94DD05080F111DF6011183BF
:1014F0000083C70167E0A5010E94DD05080F111DEB
:10150000F60111830083C70166E0A5010E94DD0595
:10151000080F111DF701E00FF11F8EE580830F5FAB
:101520001F4FF60111830083C701B801A4010E9477
:101530009E09F601808311821F910F91FF90EF9019
:10154000DF90CF90BF90AF909F908F9008958F9233
:101550009F92AF92BF92CF92DF92EF92FF920F9342
:101560001F937C014B015A01E0E4CE2ED12CC80E12
:10157000D91EF6010081118164E00E94DD05080F8B
:10158000111DF60111830083C70163E1A5010E94CB
:10159000DD05080F111DF60111830083C70162E10B
:1015A000A5010E94DD05080F111DF60111830083BE
:1015B000C7016EE1A5010E94DD05080F111DF601AE
:1015C00011830083C7016EE0A5010E94DD05080FAD
:1015D000111DF60111830083C7016DE0A5010E9472
:1015E000DD05080F111DF60111830083C70161E0BD
:1015F000A5010E94DD05080F111DF601118300836E
:10160000C70161E1A5010E94DD05080F111DF6016A
:1016100011830083C7016BE0A5010E94DD05080F5F
:10162000111DF701E00FF11F8EE580830F5F1F4F43
:10163000F60111830083C701B801A4010E949E092D
:10164000F601808311821F910F91FF90EF90DF9040
:10165000CF90BF90AF909F908F9008958F929F9260
:10166000AF92BF92CF92DF92EF92FF920F931F93B0
:101670007C014B015A01F0E4CF2ED12CC80ED91EAB
:10168000F6010081118160E20E94DD05080F111D45
:10169000F60111830083C7016FE1A5010E94DD05FA
:1016A000080F111DF701E00FF11F8EE580830F5F1A
:1016B0001F4FF60111830083C701B801A4010E94E6
:1016C0009E09F601808311821F910F91FF90EF9088
:1016D000DF90CF90BF90AF909F908F900895EF9242
:1016E000FF920F931F93F62EE72E8A01862F972FD6
:1016F00065EB71E00E946B230E94F302BC018F2D09
:101700009E2D4AE050E00E9439238F2D9E2D6BEBD9
:1017100071E00E946B23D801ED91FC9106A4F7A51E
:10172000E02DC8010995BC018F2D9E2D4AE050E0A7
:101730000E9439238F2D9E2D62EC71E00E946B2355
:10174000D801ED91FC9102A4F3A5E02DC801099503
:10175000BC018F2D9E2D4AE050E00E9439238F2D31
:101760009E2D6DEC71E00E946B23D801ED91FC91F0
:1017700000A4F1A5E02DC8010995BC018F2D9E2D77
:101780004AE050E00E9439238F2D9E2D67ED71E0D5
:101790000E946B23D801ED91FC9106A0F7A1E02DEA
:1017A000C8010995BC018F2D9E2D4AE050E00E9492
:1017B00039238F2D9E2D62EE71E00E946B23D8019C
:1017C000ED91FC9106A8F7A9E02DC8010995BC018F
:1017D0008F2D9E2D4AE050E00E9439238F2D9E2DA3
:1017E00069EE71E00E946B23D801ED91FC9102A09B
:1017F000F3A1E02DC8010995AB01BC018F2D9E2DF1
:1018000022E030E00E9452248F2D9E2D64EF71E083
:101810000E946B23D801ED91FC9100A0F1A1E02D75
:10182000C8010995AB01BC018F2D9E2D22E030E04F
:101830000E9452248F2D9E2D6FEF71E00E946B232A
:10184000D801ED91FC9104A8F5A9E02DC8010995F6
:10185000BC018F2D9E2D4AE050E00E9439238F2D30
:101860009E2D66E072E00E946B23D801ED91FC9101
:1018700000A8F1A9E02DC8010995BC018F2D9E2D6E
:101880004AE050E00E9439238F2D9E2D62E172E0E4
:101890000E946B23D801ED91FC9102A8F3A9E02DE1
:1018A000C8010995BC018F2D9E2D4AE050E00E9491
:1018B00039238F2D9E2D6AE172E00E946B23D8019F
:1018C000ED91FC910284F385E02DC8010995AB01EF
:1018D000BC018F2D9E2D22E030E00E9452248F2DDE
:1018E0009E2D66E272E00E946B23D801ED91FC917F
:1018F0000190F081E02DC8010995AB01BC018F2D4D
:101900009E2D22E030E00E9452248F2D9E2D61E317
:1019100072E00E946B23D801ED91FC910280F3816B
:10192000E02DC8010995BC018F2D9E2D4AE050E0A5
:101930000E9439238F2D9E2D69E372E00E946B2354
:10194000D801ED91FC910288F389E02DC801099539
:10195000AB01BC018F2D9E2D22E030E00E9452246D
:101960008F2D9E2D63E472E00E9455241F910F91EC
:10197000FF90EF900895CF92DF92EF92FF920F9336
:101980001F93CF93DF938C016B017A01C0E0D0E00D
:101990001CC0F601EC0FFD1F60810115110521F03F
:1019A0000130110589F405C0E091DC05F091DD05F9
:1019B00004C0E091DE05F091DF05A081B1812D9199
:1019C0003C91CF01F90109952196CE15DF0508F369
:1019D000DF91CF911F910F91FF90EF90DF90CF900B
:1019E0000895FC0188E892E0918380837093DD057F
:1019F0006093DC058CE08093780281E0809379022B
:101A000010927A0210927B0213821482158216823F
:101A1000828310861782EB5BFF4F80E090E0A0E0AE
:101A2000B0E081939193A193B1931192119211928D
:101A300011921192119281939193A193B1938193F9
:101A40009193A193B19381939193A193B19327EE35
:101A500033E0219331931192119281939193A19349
:101A6000B19381939193A193B19381939193A19316
:101A7000B19323E630E031832083349611821082C3
:101A800034961192119281939193A193B193819382
:101A90009193A193B19380839183A283B383709731
:101AA000118210827A9611921192119211922EE067
:101AB00031E0318320833A9711821082709611822F
:101AC0001082E159F04081879287A387B487858788
:101AD0009687A787B08B818B928BA38BB48B858BDA
:101AE000968BA78BB08FE157FF4F118210822AE5AA
:101AF00030E032932293ED58F04081A392A3A3A348
:101B0000B4A385A396A3A7A3B0A7ED57FF4F119247
:101B1000119211821082E05CFF4F1192119210829B
:101B20000895FC01EB5BFF4F20813181428153819D
:101B3000B901CA010895FC01E75BFF4F6081718123
:101B4000882777FD8095982F0E94D1250895FC0164
:101B5000E55BFF4F808191810895FC01E15BFF4FC0
:101B6000608171818281938120E836E948E15BE4FC
:101B70000E9436250895FC01ED5AFF4F6081718166
:101B80008281938120E836E948E15BE40E943625B2
:101B90000895FC01E55AFF4F808191810895FC0171
:101BA000DC01A35ABF4F8C9111969C919C0153E08C
:101BB000220F331F5A95E1F7880F991F280F391FFD
:101BC000E35BFF4F80819181280F391FC901089580
:101BD000FC01E15AFF4F2081318142815381B901DB
:101BE000CA010895FC01E559FF4F80819181089554
:101BF000FC01E953FF4F80810895CF93DF93EC01FF
:101C0000E881F98102ACF3ADE02D0995FE01E159BF
:101C1000FF4F882359F020813181225F3E4FCF58FA
:101C2000DF4F88819981281B390B04C020813181C5
:101C3000225F3E4F37FF03C028593E4F06C081E068
:101C40002936380714F028563140B901882777FD26
:101C50008095982F0E94D125DF91CF910895FC01A6
:101C6000ED58FF4F808191810895FC01EB58FF4FA3
:101C70002081318142815381B901CA010895FC015B
:101C8000E758FF4F2081318142815381B901CA0158
:101C90000895FC01E358FF4F208131814281538137
:101CA000B901CA01089580E090E0089580E090E0D5
:101CB000089580E090E00895FC01E359FF4F808192
:101CC00091810895FC01E957FF4F8081918108952A
:101CD000FC01E757FF4F808191810895FC01E55792
:101CE000FF4F808191810895FC01EF57FF4F808164
:101CF00091810895FC01ED57FF4F808191810895F6
:101D0000FC01EB57FF4F808191810895FC01878191
:101D10009085892B31F4EB53FF4F11821082E55CE3
:101D2000F040EB53FF4F8081918108950F931F93F3
:101D3000CF93DF9340E050E0EC01CD56DF4FFA0146
:101D4000EE0FFF1FEB5AFC4F659174918E01A1E0DD
:101D5000FB012491222391F0AA2381F0A0E030E03E
:101D6000F8018081992787FD90952817390709F494
:101D7000A1E06F5F7F4F0F5F1F4FEACF4F5F5F4F55
:101D80004931510519F0AA23D1F204C0AA2311F454
:101D900043E650E0CA01DF91CF911F910F91089562
:101DA000FC01E853FF4F808191810895FC01E653C7
:101DB000FF4F8081918108952F923F924F925F92C1
:101DC0006F927F928F929F92AF92BF92CF92DF924B
:101DD000EF92FF920F931F93DF93CF93CDB7DEB7B0
:101DE0002E970FB6F894DEBF0FBECDBF7C0100E08A
:101DF00010E053E0C52ED12CCC0EDD1E42E4242E83
:101E00003AE0432E512C4C0E5D1E2FE0622E712CB9
:101E10006C0E7D1E99E0892E912C8C0E9D1E84E9FE
:101E2000382E5E010894A11CB11CF70137A541A909
:101E3000F801EA52FC4F2081F801E853FC4F808101
:101E400091819C838B833D834E832F83F1E0F887C0
:101E50008EEF8987E6E0EA87909135059B87809130
:101E600078028C87809179028D872E869F5F909370
:101E700035056FEF7FEFF2011CC021912627822FDD
:101E80008295807F822790E0382F2227AC01A3E043
:101E9000440F551FAA95E1F724273527672F772789
:101EA00062277327A4E095958795AA95E1F768279F
:101EB0007927E615F70509F7F6011AC081918627FB
:101EC000282F2295207F282730E0722F6627C9010E
:101ED00043E0880F991F4A95E1F7682779276A2719
:101EE0007B27B4E035952795BA95E1F762277327EC
:101EF000A72FBB27E815F90509F7862F8325282F7B
:101F00002295207F282730E0922F8827A90163E0BF
:101F1000440F551F6A95E1F7842795278A279B2749
:101F200074E0359527957A95E1F782279327898381
:101F30009A8380E090E0BF0146E050E00E94BB0C35
:101F400080E090E0B60146E050E00E94BB0C80E0EB
:101F500090E0B50142E050E00E94BB0C0E5F1F4FC5
:101F60000E30110509F061CF2E960FB6F894DEBF42
:101F70000FBECDBFCF91DF911F910F91FF90EF90DA
:101F8000DF90CF90BF90AF909F908F907F906F9099
:101F90005F904F903F902F900895FC011382148220
:101FA00015821682EB5BFF4F20E030E040E050E00E
:101FB0002193319341935193119211921192119265
:101FC000118210823A96219331934193519387EE77
:101FD00093E08193919311921192219331934193C4
:101FE0005193219331934193519321933193419391
:101FF000519383E690E091838083389611921192F9
:102000002193319341935193219331934193519370
:102010002083318342835383749611821082F49615
:1020200011821082E254F040119211921192119299
:1020300011921192119211928EE091E0918380831E
:102040003A9711821082E158F040218B328B438BFA
:10205000548B258B368B478B508FE157FF4F118266
:102060001082EF58F04021A332A343A354A325A329
:1020700036A347A350A708952F923F924F925F92A5
:102080006F927F928F929F92AF92BF92CF92DF9288
:10209000EF92FF920F931F93DF93CF9300D000D066
:1020A000CDB7DEB79C838B83DC01ED91FC9102AC54
:1020B000F3ADE02D09950B811C81035B1F4F882335
:1020C00009F433C1F8018081918118161906CCF406
:1020D000EB81FC81E95AFF4F60817181828193819C
:1020E000AB81BC811D962D913D914D915C91509796
:1020F0000E946824EB81FC81658B768B878B908FA7
:102100000AC080E090E0A0E0B0E0EB81FC81858B2C
:10211000968BA78BB08FEB81FC81E959FF4F6081D3
:10212000718182819381AB81BC8119962D913D9102
:102130004D915C911C970E946824EB81FC81618B1E
:10214000728B838B948B81A5E157FF4FFA83E983D0
:10215000882309F4DDC0EB81FC81E15BFF4F6081E6
:1021600071818281938120E836E948E15BE40E9435
:1021700036257B018C01AB81BC8191966D937D935B
:102180008D939C939497FD01ED5AFF4F608171816F
:102190008281938120E836E948E15BE40E9436259C
:1021A0003B014C01EB81FC8165A376A387A390A73B
:1021B000618D728D838D948DA80197010E94682492
:1021C0001B012C019F7720EC3BE649ED57E40E9470
:1021D000F3265B016C01AB81BC815D966D917D91B5
:1021E0008D919C919097A40193010E9468249F7700
:1021F00020EC3BE649ED57E40E94F326EB81FC819D
:1022000021AD32AD43AD54AD0E94F3267B018C016C
:10221000C601B501A60195010E94F3265B016C0180
:10222000C801B701A80197010E94F3269B01AC01E8
:10223000C601B5010E9469240E945A270E94A32565
:10224000A981BA816D937C93EB81FC81FD96C201DB
:10225000B10120813181428153810E94F3267B01AB
:102260008C01EB81FC81658D768D878D90A1A40119
:1022700093010E9468249B01AC015058C801B7012A
:102280000E94DC2420EE3EE245E652E40E94F32662
:1022900020E030E044EB52E40E9469240E949E2535
:1022A00097FF04C068597E4F8F4F9F4F9B01AC0131
:1022B000245B30404040504057FF06C09B01AC01BA
:1022C0002C543F4F4F4F5F4F0B811C8101591F4FC3
:1022D000D8018D919C911197AF56B040BC83AB83D0
:1022E000AA2797FDA095BA2F79018A01E81AF90A61
:1022F0000A0B1B0BD801C70117FF04C088599E4F5A
:10230000AF4FBF4F0B811C8103571F4FF8010AC00D
:10231000A981BA811D921C92EB81FC81E357FF4F8A
:102320008AE590E091838083CBC02B813C81295941
:102330003F4FF90180819181A281B381E756F0403E
:10234000FC83EB8381879287A387B487818B928BF1
:10235000A38BB48BDF010190F081E02D0288F3891B
:10236000E02DCD010995EB81FC81EF58FF4FFC83F7
:10237000EB830E949E25AB81BC8111967C936E936A
:10238000A157B040BC83AB83F801808191811816BE
:1023900019060CF08AC0A95ABF4FBC83AB838D913C
:1023A0009D910D90BC91A02D0B811C810755104073
:1023B0001C830B83F80185879687A787B08B858B55
:1023C000968BA78BB08F61A172A183A194A120E805
:1023D00036E948E15BE40E9436257B018C01AB8144
:1023E000BC8159966D937D938D939C935C97959644
:1023F0006D917D918D919C91989720E836E948E107
:102400005BE40E943625EB81FC81658F768F878F98
:1024100090A3E89417F9C801B70125E33AEF4EE815
:102420005CE30E94F3260B811C810F5B1F4F1C8312
:102430000B83162F072FF82EE92E262F372F482F24
:10244000592FAB81BC812D933D934D935C93139792
:10245000A154B040BC83AB83B901CA010E943325AB
:10246000EB81FC8161AF72AF83AF94AF612F702FAE
:102470008F2D9E2D0E9433259B01AC010B811C8169
:10248000035C1F4F1C830B8360E070E080E89FE3D8
:102490000E943625D8016D937D938D939C9313975D
:1024A000DD9781E099968C930BC0EB81FC8111A69E
:1024B00080E090E0A0E0B0E0858B968BA78BB08F9A
:1024C0000F900F900F900F90CF91DF911F910F9170
:1024D000FF90EF90DF90CF90BF90AF909F908F9044
:1024E0007F906F905F904F903F902F9008950F9343
:1024F0001F938C010E943C1001571F4FF8018081EF
:1025000091811F910F9108950F931F938C010E9449
:102510003C1003571F4FF801808191811F910F914B
:1025200008950F931F938C010E943C10F80121899C
:10253000328943895489B901CA011F910F910895C5
:102540000F931F938C010E943C10F80165897689D6
:102550008789908D20E030E04AE754E40E943625D8
:102560001F910F910895EF92FF920F931F93CF93B6
:10257000DF938C01F62EE72EE9012D3F310569F539
:10258000862F972F64E472E00E9455248F2D9E2D94
:102590006DEF70E04AE050E00E9439238F2D9E2DB0
:1025A00065E472E00E946B230D561F4F8F2D9E2D08
:1025B000B8010E946B238F2D9E2D67E472E00E946C
:1025C0006B230E5C1F4FF801608171818F2D9E2D52
:1025D0004AE050E00E94DC2225C02115310511F1AE
:1025E00021303105F9F028313105E1F02A34310587
:1025F000C9F02E333105B1F02E31310599F02A3270
:10260000310581F0253A310569F0862F972F65E570
:1026100072E00E946B238F2D9E2DBE014AE050E098
:102620000E944C23DF91CF911F910F91FF90EF906B
:1026300008958F929F92AF92BF92CF92DF92FF92B6
:102640000F931F93CF93DF93F62E4901C82EDD24FD
:102650008601000F111F5801AC0CBD1CE501CC0F09
:10266000DD1FCC0FDD1FC25DDA4F18828B819C818C
:102670008430910509F48EC0853091055CF4823078
:10268000910509F443C0833091050CF0BFC0992334
:10269000C4F44FC28730910509F443C188309105D5
:1026A00044F48530910509F4DEC0069709F041C273
:1026B00007C18830910509F47AC1099709F039C238
:1026C000E7C18EEF681709F034C282E090E09C8386
:1026D0008B8380E790E0C89ED001C99EB00DD89E44
:1026E000B00D1124A254BB4F13961C92139788E38C
:1026F00090E0C89EF001C99EF00DD89EF00D112407
:10270000EE0FFF1FE054FB4F6083A4C1E5E6E61720
:1027100088F489818F5F8983F501EE0FFF1FEE0F2B
:10272000FF1FE05DFA4F80818F5F8083188281E018
:1027300090E02DC080E790E0C89EF001C99EF00DAA
:10274000D89EF00D1124E254FB4F63831D828081DB
:102750008627282F2295207F282730E0522F4427D4
:10276000C90163E0880F991F6A95E1F74827592747
:10277000818190E04827592784E0359527958A95EF
:10278000E1F7422753275183408384E090E09C8304
:102790008B83CFC18CE190E0C89EF001C99EF00D03
:1027A000D89EF00D1124EE0FFF1FEE0FFF1FEE530A
:1027B000FB4F608380E790E0C89EF001C99EF00D5A
:1027C000D89EF00D1124E254FB4F80818627282FDC
:1027D0002295207F282730E0522F4427C901B3E0FB
:1027E000880F991FBA95E1F748275927818190E012
:1027F00048275927A4E035952795AA95E1F7422760
:1028000053275183408383E090E0C1CF80E790E07D
:10281000C89EF001C99EF00DD89EF00D1124E2541F
:10282000FB4F658380818627282F2295207F2827CC
:1028300030E0522F4427C90163E0880F991F6A9541
:10284000E1F748275927818190E04827592704E07C
:10285000359527950A95E1F7422753275183408301
:1028600085E090E094CF80E790E0C89EF001C99E9B
:10287000F00DD89EF00D1124E254FB4F6683808149
:102880008627282F2295207F282730E0522F4427A3
:10289000C901B3E0880F991FBA95E1F74827592776
:1028A000818190E048275927A4E035952795AA957E
:1028B000E1F7422753275183408386E090E067CFBA
:1028C00080E790E0C89EF001C99EF00DD89EF00D03
:1028D0001124E254FB4F678380818627282F22959D
:1028E000207F282730E0522F4427C90163E0880F5A
:1028F000991F6A95E1F748275927818190E0482779
:10290000592794E0359527959A95E1F74227532763
:10291000518340838381882309F446C087E090E097
:1029200036CF6D81F80183E0EE0FFF1F8A95E1F746
:10293000E01BF10B3196B3E0EE0FFF1FBA95E1F704
:10294000E60FF11DE254FB4FF0826F5F6D8380E76D
:1029500090E0C89EF001C99EF00DD89EF00D1124A4
:10296000E254FB4F80818F25282F2295207F282736
:1029700030E0522F4427C90173E0880F991F7A95E0
:10298000E1F748275927818190E04827592794E0AB
:10299000359527959A95E1F7422753275183408330
:1029A0008381681709F0C5C088E090E0F0CE80E729
:1029B00090E0C89ED001C99EB00DD89EB00D1124E4
:1029C000A254BB4F9C911796EC911797F0E0E853F7
:1029D000FD4F80818927482F4295407F482750E04E
:1029E000342F2227CA01F3E0880F991FFA95E1F7E7
:1029F0002827392711968C91119790E0282739279D
:102A0000E4E055954795EA95E1F724273527119697
:102A10003C932E93862F90E0307082179307F9F045
:102A2000F501EE0FFF1FEE0FFF1FE05DFA4F8081F3
:102A30008F5F8083188281E090E09C838B83FEEF20
:102A40006F1709F076C082E090E09C838B83139629
:102A50001C9213978FEF9FEF8D939C936AC089E030
:102A600090E09C838B83F80163E0EE0FFF1F6A9573
:102A7000E1F7E01BF10B319653E0EE0FFF1F5A9583
:102A8000E1F78D81E80FF11DE254FB4FF08251C058
:102A9000262F30E080E790E0C89EB001C99E700DFF
:102AA000D89E700D112462547B4FFB01818190E010
:102AB00028173907E9F0F501EE0FFF1FEE0FFF1F92
:102AC000E05DFA4F80818F5F8083188281E090E023
:102AD0009C838B83FEEFFF1661F582E090E09C8380
:102AE0008B83EB011B828FEF9FEF9983888321C03B
:102AF00081E0888381E090E09C838B83F80133E060
:102B0000EE0FFF1F3A95E1F7E01BF10B319623E042
:102B1000EE0FFF1F2A95E1F78D81E80FF11DE154BB
:102B2000FB4FF082DA01FB0180E701900D928150AA
:102B3000E1F7D601AA0FBB1FAC0DBD1DAA0FBB1F2D
:102B4000AA0FBB1FA25DBA4F8C91813069F58CE151
:102B500090E0C89EF001C99EF00DD89EF00D1124A2
:102B6000EE0FFF1FEE0FFF1FEE53FB4F80811696F7
:102B70008C93169718968D919C911997892B21F417
:102B80001B961C921E921A97F601EE0FFF1FEC0D7A
:102B9000FD1DEE0FFF1FEE0FFF1FE25DFA4F808558
:102BA0009185019691878087F601EE0FFF1FEC0D4E
:102BB000FD1DEE0FFF1FEE0FFF1FDF01A25DBA4FDD
:102BC00016968C9116978F5FE4018E8318968D91DF
:102BD0009C91199799878887E05DFA4F80818A8751
:102BE0001B8610828C91DF91CF911F910F91FF90E6
:102BF000DF90CF90BF90AF909F908F9008958F926D
:102C00009F92AF92BF92CF92DF92EF92FF920F937B
:102C10001F93DF93CF93CDB7DEB7CC57D0400FB61D
:102C2000F894DEBF0FBECDBF7C013DE0C32ED12C9A
:102C3000CC0EDD1E80E0A6019E012F5F3F4F0E945B
:102C40001913882309F443C28C898A3209F4EDC12F
:102C50008B3260F4813009F455C08130D0F0883176
:102C600009F43DC18E3109F032C210C08A3409F432
:102C700085C18B3420F48E3309F029C2BCC1853A5A
:102C800009F4DEC18D3F09F022C2EDC12EE130E032
:102C900020C28A89D7019F968C939F97D0961C92C9
:102CA000D0978B89D1968C93D197D2961C92D2973C
:102CB000FE01759684819D968C939D979E961C929D
:102CC0002BE630E0E20EF31ED60118968D919C9112
:102CD0001997D7018D939C9325E93FEFE20EF31EE0
:102CE0008681F701E359FF4F80831182F701E95391
:102CF000FF4F87FF03C081E0808301C0108220E086
:102D000030E0E7C125E1822E912C8C0E9D1ED4016E
:102D10001E966D917C911F9780E090E00E94CF25D8
:102D200020E030E04AE754E40E943625E5E4F0E094
:102D3000EE0EFF1ED7016D937D938D939C93139799
:102D4000EBEBFFEFEE0EFF1E2AE939E949E850E40C
:102D50000E9436250E94A3256F5F7F4FF701E8533D
:102D6000FF4F718360836630710520F085E090E04D
:102D70009183808387010B5B1F4F28EC30E0E20ECC
:102D8000F31ED7016D917C91E8E3FFEFEE0EFF1E7D
:102D900080E090E00E94CF259B01AC01D8016D91AD
:102DA0007D918D919C910E94362520E030E04AEF84
:102DB00053E40E94F3260E94A325F701E653FF4F38
:102DC000718360836C5D754010F411821082E9E4B8
:102DD000F0E0EE0EFF1EFE013D96808D918D6AE0C3
:102DE00070E00E940628D7016D937D937D0186A136
:102DF000992787FD90958D939C93A484B584C68470
:102E0000D7840089118922893389E8E3F0E0EE0E46
:102E1000FF1ED4011C968D919C911D976AE070E075
:102E20000E94F227F701718360838DE79FEFE80E20
:102E3000F91EF701EF57FF4F11821082A0FE06C066
:102E400000FD04C081E090E091838083A1FE0AC070
:102E500001FD08C0F701EF57FF4F8081918182602B
:102E600091838083A2FE0AC002FD08C0F701EF57DC
:102E7000FF4F80819181846091838083A3FE0AC08B
:102E800003FD08C0F701EF57FF4F808191818860F3
:102E900091838083A4FE0AC004FD08C0F701EF57A8
:102EA000FF4F80819181806191838083A5FE0AC05C
:102EB00005FD08C0F701EF57FF4F808191818062C7
:102EC00091838083A6FE00C106FDFEC0F701EF5787
:102ED000FF4F80819181806491838083F5C0AFE44E
:102EE000B0E0EA0EFB1EF601608971898289938940
:102EF0000E94D125D7016D937D938D939D937D0184
:102F0000F60164897589868997890E94D125D70140
:102F10006D937D938D939C931397EDEAFFEFEE0EE7
:102F2000FF1EDE015596F701E35BFF4F5C968C9127
:102F30005C9780831182F701E35AFF4F5D968C9175
:102F4000808311822BE530E0E20EF31ED6015C9601
:102F50008D919C915D97F7019183808358966D9137
:102F60007D918D919C915B970E94D125D7019E9375
:102F70008E937E936E9328E130E0ABC00E94A52033
:102F8000F70163837483858396832FE530E0E20E37
:102F9000F31EF60184859585A685B785F7018083A4
:102FA0009183A283B38320E130E0E20EF31ED601C9
:102FB00058968D919C915997F7019183808324E0D5
:102FC00030E0E20EF31E5A968D919C915B97D701EB
:102FD0008D939C93E4EFFFEFEE0EFF1EF6018089C8
:102FE0009189A289B389F70180839183A283B383F6
:102FF0002AE430E06EC02BE830E0E20EF31ED6018A
:103000005E968D919C915F97F701918380832CEF61
:103010003FEFE20EF31E90968D919C919197D70110
:103020008D939C932EE330E054C0F701E757FF4F98
:10303000D60118968C91808311822AE230E049C033
:10304000E5E8F0E0EE0EFF1ED60118968D919C91FA
:10305000199764E670E00E94F227F701718360839C
:1030600025EA30E036C08D8990E021E930E0E20EBB
:10307000F31ED7018D939C93EFE6FFEFEE0EFF1E3C
:103080000397FCF0D701AD56BF4FFE01769682E361
:1030900001900D928150E1F7C7010E94960E25EC38
:1030A00030E0E20EF31ED7018D939C93EBE3FFEF2C
:1030B000EE0EFF1E8EE190E0D70118969C938E9342
:1030C00017972DEF30E005C021E030E002C02FEF70
:1030D0003FEFC901C458DF4F0FB6F894DEBF0FBEF3
:1030E000CDBFCF91DF911F910F91FF90EF90DF90B7
:1030F000CF90BF90AF909F908F9008950F931F93A4
:10310000CF93DF93FC01738D76957170A685B7859B
:103110009585772329F08C91892309F454C004C044
:103120008C91892309F04FC08389948920E001970D
:103130002FEF8F3F9207D9F7C589D689A685B78526
:10314000158560E031E040E050E000E0CE01202F46
:1031500001972FEF8F3F9207D9F78C91812311F0C0
:10316000632B03C0832F80956823330F4F5F5F4F1E
:103170004830510559F78789908D20E001972FEF4E
:103180008F3F9207D9F7711160958091BC0520910E
:10319000BD0590E001968F77907030E0821793071D
:1031A00079F0E091BC05F0E0E45CFA4F6083809137
:1031B000BC0590E001968F7790708093BC0503C0AA
:1031C000838D8160838FDF91CF911F910F9108953F
:1031D0001F920F920FB60F9211242F933F934F938C
:1031E0005F936F937F938F939F93AF93BF93EF936F
:1031F000FF9380913A0590913B05009711F00E9452
:103200007E18FF91EF91BF91AF919F918F917F9128
:103210006F915F914F913F912F910F900FBE0F9043
:103220001F9018951F920F920FB60F9211242F9393
:103230003F934F935F936F937F938F939F93AF933E
:10324000BF93EF93FF9380913A0590913B050097D0
:1032500011F00E947E18FF91EF91BF91AF919F9165
:103260008F917F916F915F914F913F912F910F902F
:103270000FBE0F901F9018951F920F920FB60F92CE
:1032800011242F933F934F935F936F937F938F936B
:103290009F93AF93BF93EF93FF9380913A059091E3
:1032A0003B05009711F00E947E18FF91EF91BF91AE
:1032B000AF919F918F917F916F915F914F913F91CE
:1032C0002F910F900FBE0F901F901895CF92DF9205
:1032D000EF92FF920F931F93CF93DF93EC017A014C
:1032E0008B011A8E198E188E1F8A1E8A1D8A1C8ABF
:1032F0001B8A20E030E06901CC0CDD1CC20ED31E1D
:10330000B601660F771F660F771FAB014B575C4FF7
:10331000FA0185919591A591B4918E159F05A0070D
:10332000B107E9F4FB01E757FC4F859194919C8B21
:103330008B8BFB01E557FC4F859194919E8B8D8B78
:10334000FB01E357FC4F85919491988F8F8BFB0184
:10335000E157FC4F859194919A8F898F06C02F5F1A
:103360003F4F2D30310509F0C6CF8F89988D892BBD
:1033700009F449C04C85463108F03DC09091680081
:10338000483010F484E005C04E3010F082E001C0F7
:1033900081E0892B80936800483028F4EDE6F0E066
:1033A000ADE6B0E00BC04E3028F0ECE6F0E0ACE665
:1033B000B0E004C0EBE6F0E0ABE6B0E050814830AE
:1033C00040F481E090E002C0880F991F4A95E2F72F
:1033D00010C0242F30E04E3018F42850304002C086
:1033E0002E50304081E090E002C0880F991F2A954E
:1033F000E2F7852B8C93898D9A8D20E001972FEF32
:103400008F3F9207D9F780913A0590913B058C1731
:103410009D0781F08B8D8E7F8B8F9FB7F8941092D4
:10342000BC058091BC058093BD05D0933B05C0933E
:103430003A059FBFDF91CF911F910F91FF90EF90C1
:10344000DF90CF90089520913A0530913B052817E1
:10345000390731F49091BD058091BC05981719F496
:103460002FEF3FEF0FC0E091BD05F0E0E45CFA4FB5
:1034700020818091BD0590E001968F7790708093B8
:10348000BD0530E0C901089520913A0530913B0512
:103490002817390719F020E030E00EC08091BC05F4
:1034A0002091BD0590E080589F4F821B910960E8F4
:1034B00070E00E9406289C01C90108950F931F9394
:1034C000DC0159968D919C915A97892B49F481E0A2
:1034D00090E013969C938E93129720E030E097C073
:1034E0000FB7F8945B968C915B975196ED91FC9198
:1034F000529750962C91509781FF8DC08081822BDE
:10350000808359968D919C915A97059620E001975A
:103510002FEF8F3F9207D9F75B968C915B9781FFD6
:1035200035C031E040E050E070E010E0832F90E0E3
:10353000862397235196ED91FC91529750962C91AA
:103540005097892B29F0808120952823208303C060
:103550008081822B808359968D919C915A97212F3F
:1035600001972FEF8F3F9207D9F7330F4F5F5F4FD0
:1035700048305105D9F65196ED91FC9152979081C2
:1035800050968C9150978095892333C031E040E06C
:1035900050E070E010E0832F90E08623972351964F
:1035A000ED91FC91529750962C915097892B21F0D8
:1035B0008081822B808304C08081209528232083F2
:1035C00059968D919C915A97212F01972FEF8F3FFC
:1035D0009207D9F7330F4F5F5F4F48305105D9F647
:1035E0005196ED91FC915297808150969C91509705
:1035F000892B80830FBF59968D919C915A9720E01B
:1036000001972FEF8F3F9207D9F721E030E0C901F2
:103610001F910F910895808120952823208371CFD9
:1036200020913A0530913B052817390749F49FB797
:10363000F8941092BC058091BC058093BD059FBF96
:10364000089520913A0530913B052817390731F448
:103650009091BD058091BC05981719F42FEF3FEFAD
:103660000AC0E091BD05F0E0E45CFA4F8081282FAC
:10367000332727FD3095C90108951F93CF93DF931A
:10368000EC01162F862F60E00E9447218B8D81FD73
:1036900004C0812F61E00E9486211C87212F30E029
:1036A000C9018D5A9B4FFC0184918D87215C3B4F52
:1036B000F9016491E62FF0E0EE0FFF1FEB5CFB4F8A
:1036C000859194919F878E87DF91CF911F91089567
:1036D0001F93CF93DF93EC01162F862F61E00E949A
:1036E000472160E08B8D81FF61E0812F0E94862160
:1036F000212F30E0C9018D5A9B4FFC018491888BAA
:10370000215C3B4FF9016491E62FF0E0EE0FFF1FC3
:10371000E55DFB4F859194919A8B898BDF91CF91D9
:103720001F910895FF920F931F938C01F62EFC01B9
:103730001382128288EE93E0A0E0B0E08483958348
:10374000A683B78388EE93E091838083148A138ADB
:10375000168A158A108E178A128E118E838D21700B
:10376000220F8C7F822B838FC801642F0E94681BDD
:10377000C8016F2D0E943D1B1F910F91FF9008956E
:103780000F931F93611571058105910569F481E01F
:1037900090E0A0E0B0E08093BE059093BF05A093B9
:1037A000C005B093C10508C06093BE057093BF0506
:1037B0008093C0059093C1051093C3050093C20583
:1037C000809170008E7F809370008091B0008C7F1C
:1037D0008093B0008091B100877F8093B100809189
:1037E000B6008F7D8093B600809170008D7F8093AE
:1037F00070008091B10084608093B1008091B1002D
:103800008C7F8093B100CA01B90120E034E244E723
:103810005BE40E94F32620E030E040E85CE30E9495
:10382000F3260E949E2520E031E0261B370B3093C3
:10383000CA052093C9051F910F9108951092C405E0
:103840001092C5051092C6051092C7051092C805C2
:103850008091C9059091CA058093B200E0E7F0E03D
:1038600080818160808308958091C4059091C50511
:10387000A091C605B091C7050196A11DB11D809309
:10388000C4059093C505A093C605B093C705809164
:10389000C4059091C505A091C605B091C7052091BA
:1038A000BE053091BF054091C0055091C1058217FA
:1038B0009307A407B50710F18091C8058823F1F498
:1038C00081E08093C8058091C4059091C505A091C1
:1038D000C605B091C705821B930BA40BB50B809353
:1038E000C4059093C505A093C605B093C705E091A4
:1038F000C205F091C30509951092C80508951F925D
:103900000F920FB60F9211242F933F934F935F9313
:103910006F937F938F939F93AF93BF93EF93FF9397
:103920008091C9059091CA058093B2000E94341C11
:10393000FF91EF91BF91AF919F918F917F916F9187
:103940005F914F913F912F910F900FBE0F901F905D
:1039500018950F931F93DC01ED91FC910288F38978
:10396000E02D20E030E000E010E009951F910F917C
:1039700008958F92AF92CF92EF92FF920F931F9381
:10398000DF93CF93CDB7DEB7FC011382128288EEAE
:1039900093E0A0E0B0E084839583A683B78388EFAB
:1039A00093E0918380835587448737872687118BDF
:1039B000008BF38AE28AC48AA58A868A70E0CB01EA
:1039C00023E0880F991F2A95E1F79C0125533A4F70
:1039D000308F278B8D529A4F928F818F81E090E0AC
:1039E00002C0880F991F6A95E2F72091DB05282B0A
:1039F0002093DB05CF0140E051EE60E070E00E94D3
:103A0000A91CCF91DF911F910F91FF90EF90CF9064
:103A1000AF908F900895FC01838D882319F42FEFC8
:103A20003FEF0DC00788F08DE02D2081318182812C
:103A30009381281B390B8481958128233923C9015F
:103A40000895FC01838D882319F42FEF3FEF11C0F7
:103A5000018CF28DE02D2081318182819381281BA0
:103A6000390B2095309584819581282339232F5F48
:103A70003F4FC9010895FC01838D882361F0A78918
:103A8000B08D2D913C91119712968D919C91139729
:103A90002817390721F44FEF5FEFCA0108951296F6
:103AA0008D919C9113971696ED91FC911797E80FC5
:103AB000F91F408112968D919C911397019614964F
:103AC0002D913C9115978223932313969C938E936B
:103AD000129750E0E2CFFC01838D882351F00788D4
:103AE000F08DE02D20813181828193812817390763
:103AF00021F42FEF3FEFC901089582819381068061
:103B0000F781E02DE80FF91F8081282F30E0F3CFF7
:103B1000DC015796ED91FC915897828193819183B6
:103B200080835996ED91FC915A978081918193837E
:103B300082830895DC015B968C915B978823A9F1C1
:103B40005996ED91FC915A97208131812F5F3F4F1B
:103B500084819581282339235C968C915C978823F6
:103B600029F08281938128173907F9F082819381A6
:103B700028173907D9F3808191810680F781E02DDC
:103B8000E80FF91F60835996ED91FC915A973183A4
:103B900020835296ED91FC915397808156969C918B
:103BA000892B808321E030E002C020E030E0C901B1
:103BB0000895CF93DF93EC011B821A828A819B8147
:103BC000998388831D821C828E819F81009721F0BA
:103BD0000E94C51F1F821E82DF91CF9108950F930F
:103BE0001F938C01DC015296ED91FC91539720813B
:103BF00056968C91569755969C915597892B809502
:103C00008223808357968D919C9158970E94D91D4D
:103C1000F801818D928D0E94D91DD8015B961C926E
:103C20001F910F9108950F931F93CF93DF938C01F2
:103C3000FC0113821282828193819183808341E00F
:103C4000A1E0B0E001C04F5FFD01042E02C0EE0F05
:103C5000FF1F0A94E2F79B0182E06130780710F0C1
:103C600020E032E0E217F30770F3C1E0D0E002C0D9
:103C7000CC0FDD1F4A95E2F72197F80126813781A5
:103C80002115310541F0848195818C179D0789F0BC
:103C9000C9010E94C51FF801D583C483CE010196D6
:103CA0000E94281F9C01F8019783868380E0232BC4
:103CB00009F081E0DF91CF911F910F910895AF92AC
:103CC000BF92CF92DF92EF92FF920F931F93CF9309
:103CD000DF937C015A016B01E901DC015B968C9159
:103CE0005B978823F1F02115310539F45796ED9152
:103CF000FC915897C481D58121960115110549F48D
:103D0000D7015996ED91FC915A97048115810F5F67
:103D10001F4FD701ED91FC910088F189E02DC7017B
:103D20000995F7018789908D209711F4C0E8D0E0BC
:103D3000BE010E94131E882381F0D70159968D91F0
:103D40009C915A970115110511F400E110E0B8019A
:103D50000E94131E882309F04DC0D701ED91FC91FC
:103D60000088F189E02DC701099567C0D7015096F9
:103D7000ED91FC915197B0E0AB16B1EEBB06B0E00F
:103D8000CB06B0E0DB0609F454C081E090E0D70137
:103D900054960C9002C0880F991F0A94E2F7808312
:103DA00060E079E08DE390E0A60195010E943B2858
:103DB0002150304040405040CA01B90122E030E07B
:103DC00040E050E00E943B28D7011C96ED91FC9109
:103DD0001D9730831E96ED91FC911F972083D7018C
:103DE0005296ED91FC915397808155969C91892B29
:103DF000808323C0D7015996ED91FC915A97138285
:103E0000128282819381918380835796ED91FC91F8
:103E1000589713821282828193819183808381E0FB
:103E20005B968C931A141B041C041D040CF49ECF87
:103E3000D6CF108220E130E0C7CFDF91CF911F9124
:103E40000F91FF90EF90DF90CF90BF90AF900895CB
:103E50000F931F93CF93DF93BC018230910510F431
:103E600062E070E0E091EB05F091EC0540E050E09D
:103E7000A0E0B0E024C08081918186179707D0F040
:103E80008617970771F482819381109729F0139612
:103E90009C938E9312972CC09093EC058093EB0526
:103EA00027C04115510519F08417950718F48D01A5
:103EB000AC01EF01DF01828193819C01F901309710
:103EC000D1F641155105F9F0CA01861B970B8430D4
:103ED000910580F48A819B810115110521F0F8017B
:103EE0009383828304C09093EC058093EB05FE01DD
:103EF000329645C0FE01E80FF91F61937193029756
:103F0000998388833CC08091E9059091EA05892BCB
:103F100041F480918002909181029093EA05809310
:103F2000E90540918202509183024115510541F407
:103F30004DB75EB780917E0290917F02481B590B6E
:103F40002091E9053091EA0524173507B0F4CA013C
:103F5000821B930B8617970780F0AB014E5F5F4F74
:103F60008417950750F0420F531F5093EA05409372
:103F7000E905F9016193719302C0E0E0F0E0CF013F
:103F8000DF91CF911F910F910895CF93DF939C0103
:103F9000009709F48FC0EC0122971B821A8260916E
:103FA000EB057091EC056115710581F488819981AB
:103FB000820F931F2091E9053091EA0528173907F0
:103FC00039F5D093EA05C093E90574C0DB0140E000
:103FD00050E0AC17BD0708F1BB83AA83FE01219115
:103FE0003191E20FF31FAE17BF0779F48D919C91C9
:103FF0001197280F391F2E5F3F4F39832883129660
:104000008D919C9113979B838A834115510571F47F
:10401000D093EC05C093EB054DC012968D919C9109
:104020001397AD01009711F0DC01D3CFDA0113969D
:10403000DC93CE931297FA0121913191E20FF31F95
:10404000CE17DF0769F488819981280F391F2E5F09
:104050003F4FFA01318320838A819B81938382833E
:10406000E0E0F0E0DB0112968D919C9113970097B0
:1040700019F0BC01FD01F6CFAB014E5F5F4FDB01D4
:104080008D919C91840F951F2091E9053091EA054F
:104090002817390779F4309729F41092EC0510921B
:1040A000EB0502C013821282425050405093EA0541
:1040B0004093E905DF91CF9108951F920F920FB6BB
:1040C0000F9211242F933F938F939F93AF93BF939E
:1040D0008091E4059091E505A091E605B091E70592
:1040E0003091E8050196A11DB11D232F2D5F2D37BD
:1040F00020F02D570196A11DB11D2093E805809356
:10410000E4059093E505A093E605B093E70580915B
:10411000E0059091E105A091E205B091E3050196DB
:10412000A11DB11D8093E0059093E105A093E205E8
:10413000B093E305BF91AF919F918F913F912F91E4
:104140000F900FBE0F901F9018958FB7F894209185
:10415000E4053091E5054091E6055091E7058FBFF4
:10416000B901CA0108959B01AC017FB7F894809111
:10417000E0059091E105A091E205B091E30566B5F7
:10418000A89B05C06F3F19F00196A11DB11D7FBF0F
:10419000BA2FA92F982F8827860F911DA11DB11D19
:1041A00062E0880F991FAA1FBB1F6A95D1F7BC0157
:1041B0002DC0FFB7F8948091E0059091E105A091A2
:1041C000E205B091E305E6B5A89B05C0EF3F19F005
:1041D0000196A11DB11DFFBFBA2FA92F982F8827C7
:1041E0008E0F911DA11DB11DE2E0880F991FAA1F1E
:1041F000BB1FEA95D1F7861B970B885E9340C8F2E8
:10420000215030404040504068517C4F21153105CD
:104210004105510571F60895789484B5826084BD96
:1042200084B5816084BD85B5826085BD85B58160BA
:1042300085BDEEE6F0E0808181608083E1E8F0E01A
:104240001082808182608083808181608083E0E849
:10425000F0E0808181608083E1EBF0E08081846028
:104260008083E0EBF0E0808181608083EAE7F0E02A
:10427000808184608083808182608083808181608E
:1042800080838081806880831092C1000895CF93DD
:10429000DF93482F50E0CA018D5A9B4FFC013491A7
:1042A000415C5B4FFA018491882369F190E0880FAB
:1042B000991FFC01EF5DFB4FA591B491FC01E55DF9
:1042C000FB4FC591D491662351F42FB7F8948C918C
:1042D000932F909589238C93888189230BC062301A
:1042E00061F42FB7F8948C91932F909589238C9338
:1042F0008881832B88832FBF06C09FB7F8948C9149
:10430000832B8C939FBFDF91CF910895482F50E06E
:10431000CA0189599B4FFC012491CA018D5A9B4FB8
:10432000FC019491415C5B4FFA013491332309F411
:1043300040C0222351F1233071F0243028F4213081
:10434000A1F0223011F514C02630B1F02730C1F0B1
:104350002430D9F404C0809180008F7703C080910D
:1043600080008F7D8093800010C084B58F7702C05D
:1043700084B58F7D84BD09C08091B0008F7703C064
:104380008091B0008F7D8093B000E32FF0E0EE0FBE
:10439000FF1FE55DFB4FA591B4912FB7F8946623FD
:1043A00021F48C919095892302C08C91892B8C9358
:1043B0002FBF08950895CF93DF930E940C210E9490
:1043C000DA210E94AB04C0E0D0E00E94FA032097FB
:1043D000E1F30E940000F9CF0E94281F0895CF92B8
:1043E000DF92EF92FF920F931F93CF93DF937C01A5
:1043F0006B018A01C0E0D0E00FC0D6016D916D0164
:10440000D701ED91FC910190F081E02DC701099554
:10441000C80FD91F015010400115110571F7CE01C9
:10442000DF91CF911F910F91FF90EF90DF90CF9090
:104430000895EF92FF920F931F938C01DC01ED9191
:10444000FC910190F081E02D6DE009957C01D8018F
:10445000ED91FC910190F081E02DC8016AE0099591
:104460009C012E0D3F1DC9011F910F91FF90EF90F0
:104470000895CF93DF93EC016115710519F420E0E5
:1044800030E00FC0DB010D900020E9F71197A61B6B
:10449000B70BE881F9810280F381E02DAD01099528
:1044A0009C01C901DF91CF9108954F925F927F9255
:1044B0008F929F92AF92BF92CF92DF92EF92FF9234
:1044C0000F931F93DF93CF93CDB7DEB7A1970FB6AE
:1044D000F894DEBF0FBECDBF2C01742ECB0122306D
:1044E00008F42AE019A231E2C32ED12CCC0EDD1E35
:1044F000822E9924AA24BB24672D752FA50194012F
:104500000E94192879018A01C801B701A501940107
:104510000E94D327472D461B0894C108D1084A3072
:1045200014F4405D01C0495CF6014083E114F104DC
:104530000105110521F07E2C5F2DC801DDCFC201E0
:10454000B6010E943922A1960FB6F894DEBF0FBEC5
:10455000CDBFCF91DF911F910F91FF90EF90DF9032
:10456000CF90BF90AF909F908F907F905F904F9033
:104570000895DC012115310541F4ED91FC91019084
:10458000F081E02D642F099508950E945522089529
:10459000EF92FF920F931F937C010E94B9228C012E
:1045A000C7010E9419229C01200F311FC9011F91D0
:1045B0000F91FF90EF900895CF92DF92EF92FF92CC
:1045C0000F931F936C017B019A0100E010E0B8018A
:1045D000A7010E94B9228C01C6010E941922080F6E
:1045E000191FC8011F910F91FF90EF90DF90CF909E
:1045F0000895CF92DF92EF92FF920F931F93CF9384
:10460000DF93EC016A017B012115310541F4E8815A
:10461000F9810190F081E02D642F09951FC02A30A7
:104620003105D1F477FF17C0E881F9810190F0815D
:10463000E02D6DE209958C0144275527BA014C19EC
:104640005D096E097F09CE012AE00E94552298017A
:10465000280F391F04C02AE00E9455229C01C9017D
:10466000DF91CF911F910F91FF90EF90DF90CF904E
:104670000895EF92FF920F931F937B019A010027F9
:10468000F7FC0095102FB801A7010E94F9221F9195
:104690000F91FF90EF900895CF92DF92EF92FF92EB
:1046A0000F931F936C017B019A010027F7FC009583
:1046B000102FB801A7010E94F9228C01C6010E94A7
:1046C0001922080F191FC8011F910F91FF90EF9039
:1046D000DF90CF9008950E94392208957F928F92A3
:1046E0009F92AF92BF92CF92DF92EF92FF920F9381
:1046F0001F93CF93DF934C017A018B01722ECB0174
:10470000BA01A80197010E94A727882321F0C401BC
:104710006AE672E021C0C0E0D0E057016801E89489
:10472000D7F8C601B5012FEF3FEF4FE75FE70E94D3
:10473000A727882351F4C601B5012FEF3FEF4FE7BC
:104740005FE70E942F25181614F0C1E0D0E02197F2
:1047500039F0C4016EE672E00E943922EC0193C088
:10476000C801B7012FEF3FEF4FE75FE40E94E82653
:10477000181654F0C801B7012FEF3FEF4FE75FEC79
:104780000E942F25882324F4C40162E772E0E4CF5D
:10479000C801B70120E030E040E050E00E942F2542
:1047A00087FD03C0C0E0D0E00EC0D401ED91FC91C4
:1047B0000190F081E02DC4016DE20995EC0117FB39
:1047C000109517F9109520E030E040E05FE3DD241C
:1047D0000BC0CA01B90120E030E040E251E40E9480
:1047E00036259B01AC01D394D71498F3C801B701C7
:1047F0000E9469245B016C010E94A3257B018C014E
:10480000C401B801A7012AE030E00E94B922C80F14
:10481000D91F772039F0C40166E772E00E9439227F
:10482000C80FD91FC801B7010E94CF259B01AC0159
:10483000C601B5010E94682424C020E030E040E2B7
:1048400051E40E94F3267B018C010E949E255B01AE
:104850006C01CC24B7FCC094DC2CC401B601A501CA
:104860002AE030E00E94F922C80FD91FC601B50125
:104870000E94D1259B01AC01C801B7010E946824A8
:104880007A947720D1F6CE01DF91CF911F910F91CD
:10489000FF90EF90DF90CF90BF90AF909F908F9060
:1048A0007F9008950E946E230895EF92FF920F93D8
:1048B0001F937C010E9439228C01C7010E9419229A
:1048C000080F191FC8011F910F91FF90EF900895D5
:1048D0005058BB27AA270ED030C2F0D130F0F5D106
:1048E00020F031F49F3F11F41EF4C0C10EF4E095A6
:1048F000E7FBB6C1E92F43D280F3BA17620773070B
:104900008407950718F071F49EF55BC20EF4E095EC
:104910000B2EBA2FA02D0B01B90190010C01CA0179
:10492000A0011124FF27591B99F0593F50F4503E24
:1049300068F11A16F040A22F232F342F4427585F16
:10494000F3CF469537952795A795F0405395C9F72E
:104950007EF41F16BA0B620B730B840BBAF09150E6
:10496000A1F0FF0FBB1F661F771F881FC2F70EC085
:10497000BA0F621F731F841F48F487957795679558
:10498000B795F7959E3F08F0B3CF9395880F08F041
:104990009927EE0F97958795089590D158F080E864
:1049A00091E009F49EEF91D128F040E851E059F4EC
:1049B0005EEF09C05BC105C2E92FE078E0D168F382
:1049C000092E052AC1F3261737074807590738F07B
:1049D0000E2E07F8E02569F0E025E0640AC0EF63D9
:1049E00007F8009407FADB01B9019D01DC01CA0157
:1049F000AD01EF934AD0A1D10AD05F91552331F098
:104A00002BED3FE049E450FD49EC63CF0895DF937F
:104A1000DD27B92FBF7740E85FE316161706480772
:104A20005B0710F4D92FD8D19F938F937F936F9307
:104A30008BD2ECEDF0E01DD180D12F913F914F91C1
:104A40005F91DDD1DD2349F09058A2EA2AED3FE0E5
:104A500049EC5FE3D0785D274DDFDF916EC1DCD09C
:104A600008F481E0089539D1E39578C10CD065C18F
:104A70002CD140F023D130F021F45F3F19F0F0C089
:104A80005111A0C1F3C07BD198F39923C9F35523E9
:104A9000B1F3951B550BBB27AA2762177307840731
:104AA00038F09F5F5F4F220F331F441FAA1FA9F3E7
:104AB00033D00E2E3AF0E0E830D091505040E695D9
:104AC000001CCAF729D0FE2F27D0660F771F881F3A
:104AD000BB1F261737074807AB07B0E809F0BB0B29
:104AE000802DBF01FF2793585F4F2AF09E3F51054D
:104AF00068F0B6C067C15F3FECF3983EDCF3869583
:104B000077956795B795F7959F5FC9F7880F911DC2
:104B10009695879597F90895E1E0660F771F881FAE
:104B2000BB1F621773078407BA0720F0621B730B61
:104B3000840BBA0BEE1F88F7E095089504D06894B3
:104B4000B11140C1089523D188F09F5790F0B92F3B
:104B50009927B751A0F0D1F0660F771F881F991FD2
:104B60001AF0BA95C9F712C0B13081F02AD1B1E07C
:104B7000089527C1672F782F8827B85F39F0B93F8C
:104B8000CCF3869577956795B395D9F73EF49095D4
:104B90008095709561957F4F8F4F9F4F0895E89452
:104BA00009C097FB3EF490958095709561957F4F75
:104BB0008F4F9F4F9923A9F0F92F96E9BB27939523
:104BC000F695879577956795B795F111F8CFFAF433
:104BD000BB0F11F460FF1BC06F5F7F4F8F4F9F4F64
:104BE00016C0882311F096E911C0772321F09EE8C2
:104BF000872F762F05C0662371F096E8862F70E028
:104C000060E02AF09A95660F771F881FDAF7880F01
:104C10009695879597F90895990F0008550FAA0B57
:104C2000E0E8FEEF16161706E807F907C0F01216BF
:104C30001306E407F50798F0621B730B840B950BC2
:104C400039F40A2661F0232B242B252B21F4089517
:104C50000A2609F4A140A6958FEF811D811D0895B4
:104C600097F99F6780E870E060E008959FEF80EC1F
:104C70000895DF93CF931F930F93FF92EF92DF92EC
:104C80007B018C01689405C0DA2EEF01B8D0FE01DB
:104C9000E894A5912591359145915591AEF3EF0199
:104CA00029DEFE019701A801DA9479F7DF90EF90F1
:104CB000FF900F911F91CF91DF91089500240A94E6
:104CC0001616170618060906089500240A941216E7
:104CD0001306140605060895C9CF59D0E8F3E894E1
:104CE000EFEFBB273FE048EC5FE76B3D73078407BE
:104CF000950708F1FF279F57B25A6A4D7F40894CAC
:104D0000F04032F4BE556542704F8643FF4F089421
:104D1000EE1F915030F0BB0F661F771F881FFF1FDB
:104D2000EBCF9EE7882332F0BB0F661F771F881FEB
:104D30009A95C1F79395E0950EC1092E0394000C46
:104D400011F4882352F0BB0F40F4BF2B11F460FF25
:104D500004C06F5F7F4F8F4F9F4F0895EF93E0FF29
:104D600006C0A2EA2AED3FE049EC5FEBC3DDE5DFD8
:104D70000F90039401FC9058E9E0F1E003C157FD66
:104D80009058440F551F59F05F3F71F04795880FB9
:104D900097FB991F61F09F3F79F087950895121650
:104DA00013061406551FF2CF4695F1DF08C01616FC
:104DB00017061806991FF1CF8695710561050894AD
:104DC0000895E894BB2766277727CB0197F90895C4
:104DD00023DF08F48FEF08959B01AC0160E070E0E1
:104DE00080E89FE343CE0BD0A8CF68DF28F06DDFCB
:104DF00018F0952309F034CF39CF1124E3CFBFDF6A
:104E0000A0F3959FD1F3950F50E0551F629FF001DD
:104E1000729FBB27F00DB11D639FAA27F00DB11D36
:104E2000AA1F649F6627B00DA11D661F829F2227BF
:104E3000B00DA11D621F739FB00DA11D621F839F46
:104E4000A00D611D221F749F3327A00D611D231F1C
:104E5000849F600D211D822F762F6A2F11249F576A
:104E600050408AF0E1F088234AF0EE0FFF1FBB1F8D
:104E7000661F771F881F91505040A9F79E3F51052C
:104E800070F0EECE9FCF5F3FECF3983EDCF386955B
:104E900077956795B795F795E7959F5FC1F7FE2BD7
:104EA000880F911D9695879597F9089511F40EF442
:104EB000DDCE51C06CDFD0F39923D9F3CEF39F57E9
:104EC000550B87FF58D056959795B0E020F4660FA4
:104ED000771F881FBB1F1F930F9300249001A00111
:104EE0008001F001A0E80E0F1F1F0A1E511D601B5C
:104EF000710B8009B50B48F4600F711F801DB51F41
:104F00000E1B1F0B0A0A510907C02E0F3F1F4A1F15
:104F10000E0F1F1F0A1E511D660F771F881FBB1F14
:104F2000A695F795E795F8F60617170708065B07A5
:104F3000211D311D411D0F911F91B901842F9158E1
:104F4000880F9695879508959B01AC014CCF64DE40
:104F5000880B990B08959F3F49F0915028F486954E
:104F600077956795B7959F5F80389F4F880F969587
:104F7000879597F9089591505040660F771F881FC5
:104F8000D2F708959F938F937F936F93FF93EF933F
:104F90009B01AC0128DFEF91FF916BDE2F913F91D8
:104FA0004F915F9120CF629FD001739FF001829F4C
:104FB000E00DF11D649FE00DF11D929FF00D839FA8
:104FC000F00D749FF00D659FF00D9927729FB00D45
:104FD000E11DF91F639FB00DE11DF91FBD01CF0158
:104FE00011240895AA1BBB1B51E107C0AA1FBB1FB8
:104FF000A617B70710F0A61BB70B881F991F5A9565
:10500000A9F780959095BC01CD01089597FB092ED5
:1050100007260AD077FD04D0E5DF06D000201AF479
:10502000709561957F4F0895F6F7909581959F4F04
:105030000895A1E21A2EAA1BBB1BFD010DC0AA1FD9
:10504000BB1FEE1FFF1FA217B307E407F50720F0F1
:10505000A21BB30BE40BF50B661F771F881F991F6C
:105060001A9469F760957095809590959B01AC01B5
:10507000BD01CF01089597FB092E05260ED057FDDF
:1050800004D0D7DF0AD0001C38F4509540953095F5
:1050900021953F4F4F4F5F4F0895F6F790958095BC
:1050A000709561957F4F8F4F9F4F0895EE0FFF1FB3
:0C50B0000590F491E02D0994F894FFCFD6
:1050BC004D616B696E6720726174652072657175E4
:1050CC006573742E2000004D61766C696E6B2074D4
:1050DC006F204672536B7920636F6E7665727465C0
:1050EC007220737461727400496E697469616C69C1
:1050FC007A696E672E2E2E00467265652072616D80
:10510C003A20002062797465730057616974696E86
:10511C006720666F722041504D20746F20626F6F54
:10512C00742E2E2E002E005374617274696E6720DB
:10513C0054696D65722E2E2E00496E697469616C0E
:10514C00697A6174696F6E20646F6E652E004672A9
:10515C0065652072616D206166746572207365747B
:10516C0075703A200052414D3A2000204D53473A79
:10517C00200020575020626561723A200020575061
:10518C005F6E756D3A20002057505F646973743AF6
:10519C002000207663633A200020566F6C746167A0
:1051AC00653A20002043757272656E743A200020B7
:1051BC004350553A200020686F6D65206469723A3F
:1051CC00200020646973743A200020486F6D6520BC
:1051DC00616C743A20002047505320616C743A2063
:1051EC0000204D6F64653A200020436F7572736523
:1051FC003A200000003A003A207374617475735FB2
:10520C006D73673D005243563A204D41564C494E02
:10521C004B5F4D53475F494420006E616E00696ED1
:10522C0066006F7666002E000C0100000000800006
:10523C00ED05000000000000A012F20D2F0EA70DCE
:10524C00CF0D9112E80DBB0DAD0DFD0D530E590E8A
:10525C00560E350E3F0E490E9B0D910D5C0E620ED7
:10526C00680E6E0E740E860E841277127A0E800EF5
:10527C00C90DF80DD00ED60E327C8900EDD96877A9
:10528C00000000590000000000000000D69FDCA8C0
:10529C001817AA90437327F6B968EDF4DED409FE0B
:1052AC00E61C1C84DDE80B992927D6DF8D210F0322
:1052BC006418EFEE1EF0B7828200941500347C0067
:1052CC0000001400988F0000000000000000000097
:1052DC0000E7B73F3600000000000000AF669ED02C
:1052EC00380000000000000000000000000000007A
:1052FC0000000000000000000000000000000000A2
:10530C00000000000000000000000000000086DB30
:10531C00D0BC5416131586004E44BD7F6F151590E6
:10532C000100000000000000000000000000000070
:10533C000000000000000000000000000000000061
:10534C000000000000000000000000000000000051
:10535C000000000000000000000000000000000041
:10536C000000000000000000000000000000000031
:10537C0000CC31AA2C532E000200020002000200C5
:10538C0005000500020001000200030006000A00EF
:10539C000B000C00000000005E1AEF21441A231AC7
:1053AC00211B101B000000009A1DEF210B1D3B1D43
:0C53BC006B1D881D211DA91CEF1D5F1E2C
:00000001FF
