:100000000C94F7130C9428140C9428140C942814B2
:100010000C9428140C9428140C9428140C94281470
:100020000C9428140C9428140C9428140C94281460
:100030000C9428140C9428140C9428140C941A1959
:100040000C946E7F0C9455820C94A17F0C94D982F1
:100050000C9428140C9481190C9428140C940819ED
:100060000C9428140C9442890C9460870C942814E6
:100070000C9428140C9428140C9428140C94CC1967
:100080000C9410800C9420830C9428140C94281445
:100090000C9428140C9428140C9428140C942814F0
:1000A0000C9428140C9428140C9428140C942814E0
:1000B0000C9428140C9428140C9428140C942814D0
:1000C0000C9428140C9428140C942814661B6B1B95
:1000D000311B371B3D1B3D1B3D1B5C1B611B661B06
:1000E0006B1B701B751B7B1B3A1C3F1C041C0A1CE2
:1000F000101C101C101C301C351C3A1C3F1C441CCE
:10010000491C4F1C694A294A344A434A494A4D4AC4
:10011000524A055608560B560E5611561456175687
:100120001A561D5620562356265629562C562F56FB
:100130003256355638563B563E564156445647562B
:100140004A56695B7D5BC25BD85BE15BEA5BFB5B4C
:10015000175C345C1A5F305F3E5F535F615F705FB6
:10016000825FA85FD15FDF5F1E6044606260706085
:100170007E608C60387B277B1A7B297B2D7B317BD3
:100180001D7B357B417B4184438446844B845E8464
:100190006F847F848A849C84AE84B384CC84CF842F
:1001A000D384D584D784DC84E084EC84F084F88420
:1001B000FF840385058509850B850D850F851385CE
:1001C00017851C85218526852B85308505A84CCD76
:1001D000B2D44EB93836A9020C50B9918688083C81
:1001E000A6AAAA2ABE000000803F204F6C642056B9
:1001F000657273696F6E20454550524F4D20202027
:10020000434845434B2053455454494E47532F438D
:10021000414C494200416C61726D732044697361C5
:10022000626C656400537769746368205761726E0D
:10023000696E6700506C6561736520526573657403
:10024000205377697463686573005468726F7474BF
:100250006C65206E6F742069646C6500526573650F
:1002600074207468726F74746C6500454550524F09
:100270004D206C6F77206D656D004C4F4144494EA9
:1002800047006D537461636B206F666C6F77006D10
:10029000537461636B2075666C6F77004D455353E3
:1002A00041474500707265737320616E79204B651C
:1002B0007900507265737320616E79206B657920C7
:1002C000746F20736B697000032D2D2D783E30788C
:1002D0003C307C787C663E30663C307C667C6331AA
:1002E000206332206333206334206335206336205B
:1002F00063372063382063392063313063313163E1
:100300003132633133633134633135633136000365
:100310004F4646414253525573525525454C7345FD
:100320004C25544873544825414C73414C25503159
:100330002050312550322050322550332050332563
:10034000002D2D2D004348002D2D2D20000450316F
:100350002020503220205033202048414C46465522
:100360004C4C435943314359433243594333505022
:100370004D3150504D3250504D3350504D345050FF
:100380004D3550504D3650504D3750504D384348F4
:1003900031204348322043483320434834204348E7
:1003A00035204348362043483720434838204348C7
:1003B0003920434831304348313143483132434892
:1003C0003133434831344348313543483136335073
:1003D0004F53475631204756322047563320475611
:1003E0003420475635204756362047563720544844
:1003F0004953002D2D2D2D00000064281007030106
:100400000452554420454C45205448522041494C03
:10041000200020414C45525400000102030002011B
:100420000303010200030201004F4E20004F464625
:100430000003544852525544454C454944304944C0
:100440003149443241494C47454154524E5357314A
:1004500053573253573353573453573553573653F3
:1004600057375357385357395357415357425357B8
:100470004353574453574553574653574753574889
:10048000535749001B1E272D36394B4E636C72782B
:10049000878D939CB1B4C6C9D2D8E1E453706C6126
:1004A00073680080400000000000000000000000B1
:1004B000000000000000000000000000000000003C
:1004C000000000000000000000000000000000002C
:1004D000000000000000000000000000000000001C
:1004E000000000000000000000000000000000000C
:1004F00080C0E0E0F0F8F8FCFCFCF8F8F8F0400010
:10050000000000008080800000000000000000006B
:100510000000000000000000000080C0C0E0E0E03B
:10052000F0F0F0E0C00000000000C0F8FFFF9F877F
:10053000838383838383838383838383838383838B
:1005400083838383838303838083838383838383FE
:10055000838383838383838383838383838383836B
:10056000C3E3733F1F0000000080E0F0F8FCFEFFD3
:10057000FFFFFF7F3F1F1F0F0783C3E1E1E0E0C0E4
:10058000000E1F3F7F7FFFF3E0E0800000000000CF
:10059000000000000080F0FCFEFFFFFFFF7F3F0F28
:1005A0000301010100000080F0FEFFFFC7C1C1C1CF
:1005B000C1C1C1C1C1C1C1C1C1C1C1C1C1C1C1C12B
:1005C000C1C1C101C1F0FEFF3F0F070F0D0D0D1D91
:1005D000191919193131313171616161E1C1C1C13B
:1005E0008100000080E0F8FCFFFFFFFF2F170F03E2
:1005F0008180C0E0F0F8FCFEFFFFFFFFFFFF7F01FE
:100600000000000000000001010307070E1E1C3857
:1006100070E0F0F8FEFFFF7F1F0F030001000000F5
:1006200000000000000000000000000000000000CA
:1006300000000000000000000000000000000000BA
:1006400000000000000000000000000000000000AA
:10065000000000000000000000000000000000009A
:100660000000007EFFFFFFFFFFFFFBF8FCFCFEFF2A
:100670007F3F1F0F07C3FFFFFFFFFFFF7F07000044
:10068000000000000000000000000000C0E0F8FED4
:10069000FFFF7F1F0F1F3D7CF8F8F0E08000000097
:1006A000000000000000000000000000000000004A
:1006B000000000000000000000000000000000003A
:1006C000000000000000000000000000000000002A
:1006D000000000000000000000000000000000001A
:1006E00000000000000101010101030707070301E9
:1006F000000000E0FCFFFFFFFFFF1F030000000001
:1007000000000000000000C0F078DE2713090E078B
:1007100003000000000000000001030F7FFFFC78D1
:1007200078F80000000000000000000000808080D9
:1007300080808080808000808000808000000000B9
:100740000000008080808080808080808080808029
:100750008080808080000000000000000000000019
:100760000000000000000000000000000000000089
:1007700080F0FEFFFFFFFF3F0F01000000000000C0
:100780000000C0E0381E0F03000100000000000060
:100790000000000000000000000000000000000059
:1007A000030301000000000000000000000E0E0224
:1007B000020202020303000F0F000F0F08080808CF
:1007C0000808080F0F08080808080F0F00000000AD
:1007D0000F0F0000000000000000000000000000FB
:1007E0000000000000000000000000000000C0F851
:1007F000BFFFFFFF1F7F010000000000000000F0AE
:10080000FCFF7F78300000000000000000000000C6
:1008100000000000000000000000000000000000D8
:1008200000000000000000000000000000000000C8
:1008300000000000000000000000000000000000B8
:1008400000000000000000000000000000000000A8
:100850000000000000000000000000000000000098
:10086000000000000000000000000000301C070E27
:100870000F07010000000000000000000000000061
:100880000000000000000000000000000000000068
:100890000000000000000000000000000000000058
:1008A000000000000000204D4F443A204652534BB8
:1008B00059202020323536312020002053564E3A20
:1008C00020312E312E3131370054494D453A2031F7
:1008D000383A35393A323500444154453A203035BA
:1008E0002E31302E3230313400564552533A205694
:1008F000312E3131372D34726566306E7400202010
:1009000046656E6365206175746F64697361626CBE
:10091000656420002D2D2D2D2D204C6F73742047E4
:100920005053202D2D2D2D2D2D002D2D2D2D204CD6
:100930006F772042617474657279202D2D2D2D0002
:100940004553432043616C3A506173735468725449
:100950006F45534373004553432043616C3A5265DE
:10096000737461727420426F6172640044697361D0
:10097000626C652066656E6365206661696C65649E
:1009800020005665726966793A20496E766C696412
:10099000436F6E64434D44005665726966793A2030
:1009A000496E76616C69644E6176434D4400454BF7
:1009B000463A20436F6D70617373205661726961AE
:1009C0006E6365002020202020205472696D207302
:1009D0006176656420202020200020204175746FFE
:1009E00054756E653A2053746F70706564202000F2
:1009F00020204175746F54756E653A20537461728E
:100A00007465642020004572726F7220536574749F
:100A1000696E6752616C6C79506E740050617261DE
:100A200063687574653A2052656C6561736564210D
:100A3000200020202043726173683A20446973616A
:100A4000726D696E672020004D6F746F725465730C
:100A5000743A204E6F74206C616E646564004D6F53
:100A6000746F72546573743A5243204E6F744361CD
:100A70006C69620020202020436865636B20636FEF
:100A80006D706173732020202000202020436F6D43
:100A9000706173732064697361626C656420200007
:100AA00050726541726D3A20426164204750532074
:100AB000506F7320200050726541726D3A20436F71
:100AC0006D706173734865616C7468005072654144
:100AD000726D3A204261726F4261644865616C7464
:100AE000680050726541726D3A205243206E6F74F7
:100AF0002063616C696272002020202041524D49C0
:100B00004E47204D4F544F525320202020006370F9
:100B100075004F50544943004750530041495253C8
:100B200050005052455353004D4147004143434507
:100B30004C004759524F007468722500777000646A
:100B400074680067416C00616C740068646F7000C9
:100B5000736174004E6F20475053002052544B2055
:100B60002000204447505320003344204669780039
:100B7000324420466978004E6F20466978004E4F17
:100B8000444154410044495341524D0041524D4566
:100B900044004E4F44415441004E4F204D415600B9
:100BA0004E4F20445256004D4F44453139004D4F71
:100BB00044453138004D4F444531370050486F6C43
:100BC00064004154756E6500464C49500053504FC7
:100BD0005254004D4F44453132004452494654006E
:100BE0004F464C4F4954004C414E44004D4F4445F4
:100BF0003800434952434C450052544C004C4F4935
:100C000054455200475549444544004155544F000E
:100C1000412D486F6C64004143524F005354414290
:100C200000202020202020202020200056343D07B6
:100C300056353D0E56363D0056313D0756323D0E77
:100C400056333D00096D7068005370643D096B7444
:100C500073204D61783D00416C743D096D2020206A
:100C60004D61783D004C6F6E3D004C61743D124803
:100C70006467000A52504D004675656C0022047C82
:100C80005E54546D0003457870457846466E654D58
:100C900065644372730041323D0041313D0011549F
:100CA0004F54000153544B115354250001544D45EA
:100CB00011545357005354415400035B4D454E5556
:100CC0005D20746F207265667265736800746D6173
:100CD000696E0F6D7300746D7231204A69747465AA
:100CE000720F757300746D72314C6174206D696E92
:100CF0000F757300746D72314C6174206D61780FE3
:100D00007573005354415432004D6F646500205296
:100D100045544100014368616E6E656C204F7264FA
:100D20006572004672736B79204D6F6420446F6E5C
:100D30006500496E742E204672736B7920616C6178
:100D4000726D0043726F73735472696D00456E610A
:100D5000626C652050504D53494D0042616E6447AE
:100D6000617000537469636B5363726F6C6C0050F5
:100D70006F745363726F6C6C00416C61726D2057BD
:100D800061726E696E67004D656D6F727920576193
:100D9000726E696E670044656661756C7420537786
:100DA000005468726F74746C65205761726E696E5E
:100DB000670053706C617368204E616D65005370FD
:100DC0006C6173682073637265656E004C69676857
:100DD00074206F6E2053746B204D76004C696768E9
:100DE00074206F6666206166746572004261636B91
:100DF0006C6967687420696E76657274004C696707
:100E000068742073776974636800466C6173682046
:100E10006F6E2062656570004265657020636F7556
:100E20006E74646F776E004D696E757465206265CF
:100E30006570005468726F74746C652072657665B5
:100E400072736500496E61637469766974792061B3
:100E50006C61726D136D00426174746572792077F4
:100E600061726E696E6700436F6E747261737400B5
:100E70002048617074696320537472656E6774688A
:100E80000020537065616B6572205069746368005F
:100E9000566F6C756D65000A42656570657220203D
:100EA0002020506953706B722020202042656570AD
:100EB00072566F696365506953706B566F696365ED
:100EC0004D656761536F756E642000536F756E6476
:100ED000204D6F646500065175696574204E6F4B37
:100EE0006579207853686F727453686F7274204EFE
:100EF0006F726D20204C6F6E672020784C6F6E678C
:100F00002000426565706572004F776E6572204EF5
:100F1000616D6500000900524144494F205345541A
:100F2000555000036D6F64650A252073726320209D
:100F300073770043616C004D756C7469706C696502
:100F40007200036368316368326368336368340036
:100F5000036F6666202B3D203A3D0007536C617697
:100F60006500000303030300545241494E455200FB
:100F700056455253494F4E005472696D2D202B0037
:100F800005204D656E75204578697420446F776E35
:100F900020202055705269676874204C6566740083
:100FA000444941470012424700414E4100034D4F22
:100FB000564520535449434B532F504F545300052B
:100FC000534554204D4944504F494E5400035B4D06
:100FD000454E555D20544F205354415254004341D7
:100FE0004C4942524154494F4E00096672656500B2
:100FF0004D4F44454C53454C00434F4C204469727F
:10100000656374696F6E0041494C20446972656381
:1010100074696F6E00454C4520446972656374695C
:101020006F6E0053776173682052696E6700436F7B
:101030006C6C65637469766500062D2D2D2020206B
:1010400031323020202031323058202031343020CD
:1010500020203930202020200053776173682054ED
:10106000797065000048454C49205345545550005F
:1010700001524554410020464D30004D4F444553E8
:101080000020464D0046616465204F75740046613E
:10109000646520496E005472696D730053776974FA
:1010A000636800000300464C204D4F444500015248
:1010B00045544100032D2D2D503120503220503306
:1010C0002047563447563547563647563700566FF1
:1010D0006C756D6520436F6E74726F6C0041757432
:1010E0006F204C696D69747300543254685472698E
:1010F0006700547261696E657200452E204C696DFF
:101100006974730003504F534E4547005368696636
:10111000742053656C0050504D2031737420436827
:10112000616E00204661696C736166650003416D04
:10113000654A61704575720020436F756E747279EF
:1011400000034431364438204C525000205479700A
:101150006500094C50342F4C5035202044534D32FB
:101160006F6E6C792044534D322F44534D580044D8
:10117000534D20547970650042696E64202052619D
:101180006E67650050504D2046724C656E0D6D5374
:101190006563000B52784E756D0004344348203669
:1011A00043482038434820313043483132434831A6
:1011B0003443483136434800137553001175536565
:1011C00063000650504D20202050585820202044C5
:1011D000534D32202050504D31362050504D534900
:1011E0004D0050726F746F005245544131323300DC
:1011F0004265657020436E740046617374204D69CA
:10120000782044656C6179005472696D20537700D1
:1012100006457870202020457846696E6546696EDF
:101220006520204D656469756D436F61727365005B
:101230005472696D20496E6300542D4578706F00BB
:10124000542D5472696D000A436F756E7420446F9B
:10125000776E436F756E742055702020005472694C
:101260006767657242005472696767657200566FFE
:1012700069636520496E646578114D454E55004E91
:10128000616D650000090001000000000000000021
:1012900006020100534554555000004641494C5345
:1012A0004146450052414E474520434845434B2067
:1012B000525353493A000642494E44494E4700446E
:1012C00075706C69636174696E67206D6F64656CBD
:1012D0000044454C455445204D4F44454C00445531
:1012E000504C4943415445204D4F44454C004472B5
:1012F000537732004472537731000257656967684B
:101300007400024578706F0004445220486900045C
:101310004452204C6F7700044452204D6964000011
:101320004558504F2F445200012B2A52004D495826
:101330004552000320202020202020200044454C3E
:10134000455445204D49583F00035B4D454E555D82
:101350000B5B455849545D00035945530B4E4F00F4
:101360005072657373205B455849545D20746F203B
:1013700061626F7274004D6178206D697865727377
:101380002072656163683A2033320002536C6F77D4
:10139000202055700002536C6F772020446F776EC9
:1013A000000244656C6179205570000244656C61EF
:1013B0007920446F776E000841646420202020204B
:1013C0004D756C7469706C795265706C61636520E1
:1013D00000024D756C74707800025761726E696E10
:1013E0006700024D4F4445530002537769746368A8
:1013F000004375727665000D44696666000254729A
:10140000696D0002466C4D6F64657472696D00020F
:10141000466978204F6666736574004F666673652B
:101420007400466D5472696D56616C0002576569AF
:101430006768740002536F757263650045444954D0
:10144000204D49582000000000000000000000046A
:1014500000032D2D2D783E30783C307C787C663E24
:1014600030663C307C667C633120633220633320FD
:10147000633420633520633620633720633820636C
:101480003920633130633131633132633133633159
:1014900034633135633136000D4F6E00072D2D2D2D
:1014A0002D202020763E6F66732020763C6F667379
:1014B00020207C767C3E6F66737C767C3C6F667306
:1014C000414E44202020204F522020202020584FE1
:1014D000522020202076313D3D7632207631213D4C
:1014E00076322076313E7632202076313C763220BC
:1014F0002076313E3D76322076313C3D76322054A6
:10150000696D654F6666000D4F6E00072D2D2D2D00
:10151000202020763E6F66732020763C6F66732015
:10152000207C767C3E6F66737C767C3C6F66734174
:101530004E44202020204F522020202020584F525F
:101540002020202076313D3D7632207631213D76B7
:10155000322076313E7632202076313C76322020A1
:1015600076313E3D76322076313C3D7632205469EC
:101570006D654F66660053000003435553544F4D4D
:1015800020535749544348455300064F4E202020CE
:10159000204F4646202020424F54482020313553CA
:1015A00065637333305365637336305365637356C5
:1015B000617269626C0056530007203820536563DE
:1015C0007331322053656373313620536563730082
:1015D0000153415658004E756D62657220566F6911
:1015E000636520537700000002534146455459205B
:1015F000535749544348455300434C454152204DAD
:1016000049584553205B4D454E555D0054454D505E
:101610004C41544553005343092B0D2A122F00030C
:101620002D2D2D52746D45746D54746D41746D5231
:10163000454E525544454C4554485241494C503111
:101640002050322050332063312063322063332016
:10165000633420633520633620633720633820638A
:101660003920633130633131633132633133633177
:1016700034633135633136004756000001474C4F23
:1016800042414C2056415253000546697273744CD6
:1016900061737420004F6666736574204174004462
:1016A0006563696D616C73005369676E00556E699F
:1016B000740044697669736F72004D756C7469705B
:1016C0006C696572004F6666736574004E616D6586
:1016D00000536F7572636500534300000300042DCF
:1016E0002D2D2D413120204132202046415356538B
:1016F0004331205343322053433320534334004378
:10170000757272656E7420536F75726365005369EC
:101710006E6B20546F6E6573000253656E7369744F
:101720006976697479000253776974636800042DDF
:101730002D2D2D7673706441322020005661726920
:101740006F3A20536F7572636500464153204F66B0
:101750006673657400437573746F6D2044697370AC
:101760006C617900477073416C744D61696E00560D
:101770006F6C742054687265733D00034F464631A8
:10178000323234303000416C74416C61726D004E05
:10179000756D20426C61646573006D416820416C19
:1017A00061726D00527800547852535349616C72E3
:1017B0006D00000101010054454C454D45545259FE
:1017C0003200013C3E00616C726D0001762D564185
:1017D000004120206368616E6E656C00034D657486
:1017E000496D7000052053746420204D61762000FF
:1017F00005467248756257534868690050726F74A5
:101800006F000002010202010254454C454D45544F
:10181000525900434F5059205452494D205B4D4579
:101820004E555D0000034C494D495453004356004A
:1018300043555256455300505245534554000043BA
:101840005552564500032D2D2D494E560047560042
:101850005B4D454E555D205748454E20444F4E4503
:101860000053454C45435400434F5059004D4F568B
:10187000450044454C455445004544495400494EB3
:101880005345525400434F5059004D4F5645004464
:10189000454C45544500206679314D2E063DC12DFD
:1018A0001633266150346B3CF5420559FC6AFE57ED
:1018B000625CA76C7B2E593575587A30120812007D
:1018C000081C0808081C080000082200490022081B
:1018D0000000000000227F220000000822004900D2
:1018E0002208000008220049002208000000227F90
:1018F0002200000000000822004900220800000821
:101900001C0808081C080001010100000002020276
:1019100002020202020202000202020202020202A9
:1019200000000000000000020202020203030303A1
:10193000054665657420566F6C74734465675F4334
:101940004465675F466D41682020416D7073204D8E
:1019500065747265576174747300465643466D41F1
:101960006D5718242F2F0033383B065761726E31A4
:10197000205761726E322043686561702052696E33
:10198000672020536369466920526F626F74204359
:101990006869727020546164612020437269636BCE
:1019A00074536972656E20416C6D436C6B52617447
:1019B0006174615469636B202048617074633148BD
:1019C00061707463324861707463330054696D658B
:1019D0007200032D2D2D59656C4F7267526564009E
:1019E00054524530313241470052783D0054783DE1
:1019F00000204142434445464748494A4B4C4D4EDE
:101A00004F505152535455565758595A6162636456
:101A100065666768696A6B6C6D6E6F7071727374FE
:101A200075767778797A30313233343536373839DC
:101A30005F2D2E0000010203FEFF0406080A0B0CB6
:101A40000D0E0F23FD202425261D1E1F27F6F7F857
:101A5000F9FAFBFCF52811292AF1F2F3F4042D2DF3
:101A60002D2D41313D2041323D2052535349545395
:101A7000534954696D3154696D32416C742047612A
:101A80006C744773706454313D2054323D20525081
:101A90004D204655454C4D6168314D616832437665
:101AA0006C7442617474416D70734D61682043744D
:101AB0006F74466173564163635841636359416370
:101AC000635A56737064477672314776723247763E
:101AD0007233477672344776723547767236477678
:101AE00072374677617452785620486467204133D4
:101AF0003D2041343D205343312053433220534352
:101B0000332053433420005377697463682057614E
:101B1000726E696E670067656E77726974652065BD
:101B200072726F7200454550524F4D20466F726D74
:101B3000617474696E670042616420454570726F1C
:101B40006D204461746100434845434B204D495822
:101B50002F445220534F5552434553004D4F444557
:101B60004C2020202020004D452020202020202017
:101B70002000454550524F4D206F766572666C6F60
:101B80007700E2AEA6A4A22F25000000000000000E
:101B90000000000000000000000000000000000045
:101BA000000000000000000000333B1F0F00000099
:101BB00000C0C0C0C0C0C0C0C0C0C00000000000A5
:101BC0000000000000000000000000000000000015
:101BD00000183C3C180000000000000080C0E070CD
:101BE000381C0C0C0E07030100000000000000FC74
:101BF000FE87C3E377FEFC00000F1F3B3130381F28
:101C00000F00000C0EFFFF00000000000030303F0E
:101C10003F3030000000000C0E0783C3E77E3C001D
:101C2000003C3E37333130303000000303C3C3C3C0
:101C3000E7FE3C00003030303030391F0F0000C06C
:101C4000E070381C0EFFFF00000303030303033F93
:101C50003F00003F3F33333373E3C300000C1C38B5
:101C60003030381F0F0000FCFEC7C3C3C78E0C0006
:101C7000000F1F383030391F0F00000303C3E37318
:101C80003B1F0F000000003F3F0000000000003C31
:101C9000FEE7C3C3E7FE3C00000F1F393030391F99
:101CA0000F00003C7EE7C3C3E7FEFC0000000030ED
:101CB000381C0E07030000183C3C18000000000010
:101CC00000060F0F0600000000F0F8DCCEC7C7CEFC
:101CD000DCF8F03F3F0000000000003F3FFFFFC383
:101CE000C3C3C3C3E7FE3C3F3F3030303030391F01
:101CF0000FFCFE0703030303070E0C0F1F383030E1
:101D00003030381C0CFFFF030303070E1CF8F03FB4
:101D10003F303030381C0E0703FFFFC3C3C3C3C3BB
:101D2000C303033F3F3030303030303030FFFFC32B
:101D3000C3C3C3C3C303033F3F0000000000000050
:101D400000FCFE0703C3C3C3C7CECC0F1F3830301F
:101D50003030303F3FFFFFC0C0C0C0C0C0FFFF3FBA
:101D60003F0000000000003F3F00000303FFFF03AF
:101D7000030000000030303F3F3030000000000022
:101D8000000303FFFF03030C1C383030381F0F0023
:101D900000FFFFC0E0F0381C0E07033F3F000103C7
:101DA000070E1C3830FFFF00000000000000003F5D
:101DB0003F3030303030303030FFFF0E1CF8F81C30
:101DC0000EFFFF3F3F0000000000003F3FFFFF38D5
:101DD00070E0C08000FFFF3F3F0000000103033FB1
:101DE0003FFCFE070303030307FEFC0F1F383030E0
:101DF0003030381F0FFFFFC3C3C3C3C3E77E3C3F70
:101E00003F0000000000000000FCFE070303030386
:101E100007FEFC0F1F383033371E1C3F33FFFFC354
:101E2000C3C3C3C3E77E3C3F3F000003070E1C381B
:101E3000303C7EE7C3C3C3C3C78E0C0C1C383030A4
:101E40003030391F0F03030303FFFF0303030300B5
:101E50000000003F3F00000000FFFF000000000006
:101E600000FFFF0F1F3830303030381F0FFFFF00EA
:101E70000000000000FFFF03070E1C38381C0E078F
:101E800003FFFF000000000000FFFF0F1F38381F96
:101E90001F38381F0F0F1F38F0E0E0F0381F0F3CDD
:101EA0003E0703010103073E3C3F7FE0C08080C046
:101EB000E07F3F000000013F3F01000000030303FB
:101EC00083C3E3733B1F0F3C3E3733313030303038
:101ED00030000000000000000000003030303030E2
:101EE00030303030300000303030303070E0C00CF6
:101EF0001E3F33333333333F3FFFFFC0E07030309A
:101F000070E0C03F3F3030303030381F0FC0E070DD
:101F1000303030303000000F1F3830303030381C57
:101F20000CC0E070303070E0C0FFFF0F1F38303061
:101F30003030303F3FC0E0703030303070E0C00FA4
:101F40001F3B33333333330303C0C0FCFEC7C3032B
:101F5000070E0C00003F3F000000000000F0F89C5E
:101F60000C0C0C0C0CFCFC000133333333333B1FE3
:101F70000FFFFFC0E070303070E0C03F3F00000056
:101F80000000003F3F00003030F3F300000000008D
:101F90000030303F3F30300000000000003030F3B0
:101FA000F300000C1C383030381F0F0000FFFF001A
:101FB00080C0E0703000003F3F03070F1C38300046
:101FC0000000000303FFFF00000000000030303F6E
:101FD0003F30300000F0F03070E0E07070E0C03F63
:101FE0003F0000030300003F3FF0F0C0E0703030DE
:101FF00070E0C03F3F0000000000003F3FC0E070C5
:102000003030303070E0C00F1F3830303030381F83
:102010000FF0F03030303030F0E0C03F3F030303CA
:102020000303030100C0E0F0303030E0C0F0F00006
:10203000010303030303033F3FF0F0C0E0703030BF
:1020400070E0C03F3F0000000000000000C0E0F072
:1020500030303030300000303133333333333F1ED3
:102060000C3030FFFF30300000000000000F1F3840
:102070003030381C0CF0F0000000000000F0F00FD1
:102080001F383030381C0C3F3FF0F00000000000DB
:1020900000F0F003070E1C38381C0E0703F0F000A8
:1020A0000000000000F0F00F1F38381C1C38381FEB
:1020B0000F3070E0C08080C0E0703030381C0F07F7
:1020C000070F1C3830F0F0800000000000F0F00036
:1020D0000133333333333B1F0F3030303030B0F007
:1020E000F0703030383C3E37333130303000000053
:1020F00000000000006F000007000700147F147F3D
:1021000014242A7F2A122313086462364955225068
:102110000005030000001C2241000041221C0014A5
:10212000083E081408083E0808005030000008085F
:1021300008080800606000002010080402003E4902
:10214000453E0000427F40006251494600414949F6
:1021500036001814127F0027454539003E494932A0
:1021600000017905030036494936000649291E0059
:1021700000363600000056360000081422411414C0
:102180001414144122140800020151090600060922
:1021900009067E0909097E7F494949363E41414188
:1021A000227F4141221C7F494949417F0909090198
:1021B0003E4149497A7F0808087F00417F4100205D
:1021C00040413F017F081422417F404040407F0250
:1021D0000C027F7F0408107F3E4141413E7F090988
:1021E00009063E4151215E7F091929462649494980
:1021F0003201017F01013F4040403F1F2040201F2E
:102200003F4030403F6314081463070870080761BB
:1022100051494543007F414100020408102000411C
:10222000417F00040201020440404040400001029E
:10223000040020545454787F48444438384444447B
:1022400020384444487F3854545418087E09010209
:102250000C5252523E7F0804047800447D40002016
:1022600040443D007F1028440000417F40007C0432
:102270001804787C0804047838444444387C1414E6
:102280001408081414187C7C080404084854545496
:1022900020043F4440203C4040207C1C2040201C27
:1022A0003C4020403C44281028440C5050503C44B2
:1022B00064544C44000836410000007F0000004197
:1022C0003608000808221C08081C2208080102041D
:1022D000081020408040800804201002019CCE009D
:1022E0003264E2F1003264645A505A6450463C460B
:1022F000649C141E465A536572766F20546573743D
:10230000004779726F2053657475700048656C6979
:1023100020536574757000456C65766F6E5C44651E
:102320006C746100562D5461696C00537469636B61
:102330007920542D43757400542D437574005369EE
:102340006D706C6520342D4348003E2338232B23C9
:10235000242317230C230123F622000089111223C2
:102360009B322446AD573665BF74488CC19D5AAF29
:10237000D3BE6CCAE5DB7EE9F7F881100801933320
:102380001A22A5562C47B7753E64C99C408DDBBF09
:1023900052AEEDDA64CBFFF976E802218B30100201
:1023A00099132667AF763444BD554AADC3BC588EE9
:1023B000D19F6EEBE7FA7CC8F5D983310A209112E0
:1023C0001803A7772E66B5543C45CBBD42ACD99EC9
:1023D000508FEFFB66EAFDD874C904428D53166135
:1023E0009F702004A9153227BB364CCEC5DF5EEDA9
:1023F000D7FC6888E1997AABF3BA85520C439771A0
:102400001E60A1142805B3373A26CDDE44CFDFFD88
:1024100056ECE9986089FBBB72AA06638F72144080
:102420009D512225AB343006B9174EEFC7FE5CCC68
:10243000D5DD6AA9E3B8788AF19B87730E6295505F
:102440001C41A3352A24B1163807CFFF46EEDDDC48
:1024500054CDEBB962A8F99A708B088481951AA7BC
:1024600093B62CC2A5D33EE1B7F04008C919522B50
:10247000DB3A644EED5F766DFF7C899400859BB7F7
:1024800012A6ADD224C3BFF136E0C1184809D33B30
:102490005A2AE55E6C4FF77D7E6C0AA583B41886D8
:1024A00091972EE3A7F23CC0B5D14229CB38500A10
:1024B000D91B666FEF7E744CFD5D8BB502A49996B7
:1024C0001087AFF326E2BDD034C1C3394A28D11AF0
:1024D000580BE77F6E6EF55C7C4D0CC685D71EE50C
:1024E00097F42880A1913AA3B3B2444ACD5B5669D0
:1024F000DF78600CE91D722FFB3E8DD604C79FF577
:1025000016E4A9902081BBB332A2C55A4C4BD779AF
:102510005E68E11C680DF33F7A2E0EE787F61CC457
:1025200095D52AA1A3B03882B193466BCF7A54488F
:10253000DD59622DEB3C700EF91F8FF706E69DD436
:1025400014C5ABB122A0B9923083C77B4E6AD5586F
:102550005C49E33D6A2CF11E780F36860A0C0D0BA0
:10256000103536072F30313233348488979A11135F
:1025700014151609181B122B2C2D2E05191C1D1EA7
:102580001F2720A1223636000C94535F0C94695B00
:102590000C940B560C946B3C0C941C850C941456A8
:1025A0000C9479310C9416250C940F850C94101C06
:1025B0000C94DC840C9426610C943F1C0C94345CC9
:1025C0000C941A5F0C9426560C940D850C943E5670
:1025D0000C943A1C0C94E78D0C942F560C94C72A3B
:1025E0000C94371B0C94294A0C941A7B0C94593583
:1025F0000C9405590C9444600C94301C0C94058583
:102600000C9443840C94AE840C9441840C94055631
:102610000C941A560C94D8380C94FE370C94694AD2
:102620000C94387B0C94705F0C94434A0C94041CFB
:102630000C9413850C9435560C944F1C0C94524AF0
:102640000C94E0840C9462600C94701B0C94102A1F
:102650000C9429560C94DF5F0C94305F0C94CC845E
:102660000C9403850C947E600C94FC6A0C94D784C3
:102670000C94CA5E0C94297B0C940B850C944456E4
:102680000C94317B0C94FF840C942D7B0C94F542BC
:102690000C9446840C946F840C9430850C944D4AB1
:1026A0000C942C560C94063D0C94825F0C94625C46
:1026B0000C94277B0C947B1B0C94F0840C94C12D00
:1026C0000C9409850C94C25B0C94357B0C94218589
:1026D0000C94FE570C94D15F0C947A300C947D5B73
:1026E0000C94AB600C944D2E0C94491C0C944A56DF
:1026F0000C94611B0C9408560C941D560C941E608F
:102700000C943E5F0C944B840C9447560C94615F80
:102710000C94311B0C9438560C94A85F0C945E8476
:102720000C9411560C9420660C947F840C942056C3
:102730000C9416330C947B2E0C94F8840C94EC843B
:102740000C942B850C94FB5B0C940E560C945C1B28
:102750000C9426850C94175C0C9417560C941785D2
:102760000C943B560C9423560C94344A0C94EA5B1C
:102770000C941D7B0C9432560C9470600C949C84C9
:102780000C9475580C9450340C940F5B0C948A8400
:102790000C94D85B0C94441C0C940C4D0C94E424C5
:1027A0000C94D5840C94E15B0C941E380C94417B02
:1027B0000C94703B0C94A76C0C9441560C94751BB4
:1027C0000C94B3840C94CF840C948C600C941142C0
:1027D0000C943D1B0C940A1C0C94351C0C94D38453
:1027E0000C946B1B0C94661B0C94494AE78D1124C6
:1027F0001FBECFEFD1E2DEBFCDBF00E00CBF12E0C5
:10280000A0E0B2E0E8EDF2E201E00BBF02C0079009
:102810000D92A832B107D9F710E1A8E2B2E001C0E9
:102820001D92AB37B107E1F717E2CEEED7E200E039
:1028300006C022970109FE010BBF0E942591CC3EE4
:10284000D10780E00807A9F70E94F18B0C946A91E8
:102850000C940000E091910694E0E99FF0011124AE
:10286000E80FF11DE75EFB4F84918F5F089585307F
:1028700050F0883020F08E3020F482E0089581E01E
:10288000089583E0089580E008952AE0829FC001C2
:10289000112488509D4F089525E0829FC001112486
:1028A000885C9B4F08950F93022F207104FF03C093
:1028B0000F7E9DE201C094E2411106C024E043EF87
:1028C00053E00E94807618C0453028F42FEF240F83
:1028D00040E054E00FC0941728F02BEF240F4DE494
:1028E00053E008C0222311F0475B491B2CED240F55
:1028F0004DE55AE10E94A5760F9108950F93CF936D
:10290000DF93C82FD62F022F411104C024E048E4E2
:1029100053E00EC04A3010F086E101C081E18C0F17
:1029200050E0202F6D2F0E94357922E045E453E0DE
:102930006D2F8C2F0E948076DF91CF910F9108959B
:102940000F931F93CF93DF93D62FC42F022F16E040
:10295000180F442339F04C3141F0443E81F44DE2EC
:1029600054E005C041E453E002C049E254E06D2F59
:10297000812FDF91CF911F910F910C94B97647FF72
:1029800004C041E20E94F275C1952FEF2C0F41E384
:1029900054E06D2F812F0E94A576DF91CF911F917A
:1029A0000F910895EF92FF920F931F93CF93DF93B0
:1029B000D82F162FF42EE22EC091E90281E0821763
:1029C00008F442C02C2F27FD2195203168F4042FF4
:1029D0004FE053E08D2F0E94A576CF3FCCF52F2DF1
:1029E00041E2612F8AEF19C02B3230F41C1614F427
:1029F00041EF22C04FE020C0C6349CF0CF53042FDB
:102A00002C2F48EC52E08D2F0E94A576C0310CF49B
:102A1000D6502F2D45E2612F82E18D0F0E94F27575
:102A200017C0242F4DE682E18D0F0E94F2751C160F
:102A300014F446ED01C04AE24C0F2F2D612F8AEFAE
:102A40008D0F0E94A01404C082E0281313C004C09C
:102A5000E11010C0C13071F42F2D40915905612F44
:102A60008AEF8D0FDF91CF911F910F91FF90EF9023
:102A70000C94A014DF91CF911F910F91FF90EF90D4
:102A80000895EF92FF920F931F93CF93DF937901F5
:102A900024E0629F8001112405581A4FD801EC915F
:102AA000F0E0442311F0EE0FFF1F9F01DC010E94B4
:102AB0006390E8012B81207C203C59F424E630E02F
:102AC00040E050E00E94D290F701808180628083D4
:102AD00018C0E436F10578F4660F771F881F991F38
:102AE00023E330E040E050E00E94D290D7018C9187
:102AF00080638C9306C02FEF30E040E050E00E94EE
:102B0000D290C901DF91CF911F910F91FF90EF906B
:102B10000895DF92EF92FF920F931F93CF93DF936D
:102B20001F92CDB7DEB7D82EF62E842FA22F0983A1
:102B300094E0299F8001112405581A4F50E060E06D
:102B400070E0F8019381907C903821F4EE2081F0C0
:102B500041E003C0EE2089F040E09E012F5F3F4F2F
:102B60006A2F90E00E944115AC0160E070E018C04F
:102B7000440F551F661F771F13C0903C89F4282F00
:102B800030E0AFEFB0E00E94639024E630E040E038
:102B900050E00E94D290BA01A901898180628983A4
:102BA000F801838186FD14C009810062E5E0EE2E04
:102BB0009A01AB016F2D8D2D0E94CB77298127FDC6
:102BC0001BC046E76F2D8091700E0E94F27514C0F5
:102BD00029816F2D8D2D0E943579F8018381807CAC
:102BE000803C61F4298127FD0BC041E46F2D809169
:102BF000700E0E94F27504C086E703C080E201C037
:102C000081E40F90DF91CF911F910F91FF90EF9092
:102C1000DF900895873038F4E82FF0E0EE0FFF1FC3
:102C2000E658F64F24C08C3050F18431C0F4482F60
:102C300050E0DA01AA0FBB1FAD5EBD4F2D913C9154
:102C4000803148F4FA01EE0FFF1FE959F94F8081F6
:102C50009181281B390BC901880F991F089584326F
:102C600048F4E82FF0E0EE0FFF1FEE5CF64F808196
:102C7000918108958D3418F484520C94B02680E02C
:102C800090E008950E94ED8B8111FCCF1092A10E6F
:102C900008950F931F93CF93DF938C01EB010E9454
:102CA000A67524E042E154E060E082E20E94B97639
:102CB000B80180E20E94D976BE0188E20E94D976EE
:102CC00062EB72E080E3DF91CF911F910F910C9442
:102CD000D9760F93262F00E041E354E060E10E9493
:102CE000A5760F910895CF93DF93D6E1C0E08D2FA5
:102CF0000E94FD7ACC0FC82BD150DE30C1F78C2F4B
:102D0000DF91CF9108950F931F93CF93DF93082FF7
:102D1000CEEDD2E01AE0499124E0602F812F0E948D
:102D2000F275155F1837B9F7DF91CF911F910F91A9
:102D300008951F93CF93DF93EC01162F0E94A67581
:102D4000BE0188E10E94D976111109C044EA52E01F
:102D500068E38CE10E94DF7642E154E002C04CE976
:102D600052E024E060E086E10E94B976DF91CF91E5
:102D70001F910C94097A61E00C94991670E08823F5
:102D800099F090E0019725E0289FF001299FF00D30
:102D90001124E60FF71FEE0FFF1FED55FA4F80814C
:102DA00091818B509E4F0895FB01EE0FFF1FEE5F48
:102DB000FD4F0190F081E02D8081992787FD90954E
:102DC00008951F93CF93DF93D82F162FC4E0DD23F0
:102DD00099F0612F8D2F0E94BE169C01253F81E046
:102DE000380764F08BE0820F8D1710F08CE0820FB3
:102DF000C15029F0D82FEBCFC0E001C0CD2F8C2FD0
:102E0000DF91CF911F910895CF93C62F0E94E116B5
:102E10006C2FCF910C94BE16EF92FF920F931F93DD
:102E2000CF93DF93EA019A0123583F4F7901062F90
:102E300010E0882319F10E94E1168823F9F03BEF96
:102E4000E316F10440F01C161D061CF4CDE7D0E09B
:102E500002C0C3E8DFEF90E0019725E0289FF00172
:102E6000299FF00D1124E00FF11FEE0FFF1FED550C
:102E7000FA4FC55FD140D183C08315C08BEFE816F0
:102E8000F10440F01C161D061CF4CDE7D0E002C092
:102E9000C3E8DFEFF801EE0FFF1FEE5FFD4F01907B
:102EA000F081E02DC08386E0DF91CF911F910F91DB
:102EB000FF90EF900C94A96FE0914C02F0E0EE0FC0
:102EC000FF1FE15BFD4F808191810895E0914C02ED
:102ED000F0E0EE0FFF1FE35BFD4F918380838FEBEC
:102EE00080934B020895EEE8F9E0108E168A158A59
:102EF000178A0895E2E4FFE037A1303180F420A57D
:102F000041E0420F40A7DF01A20FB11DA20FB11D8A
:102F10008D939C93403108F010A63F5F37A308952E
:102F200090E08C5F9E4F0C947A1790E00C947A1787
:102F30008093C10290E040970C947A17FC01909125
:102F40009C0680A191FF74C091A1882311F0946028
:102F500001C09B7F91A386A1813059F52F9A37A19B
:102F600021A1332321F181A541E0480F41A7DF01D1
:102F7000A80FB11DA80FB11D8D919C9195A384A39D
:102F8000403108F011A6315037A397FD02C031E15E
:102F900001C038E233A32C7F97FD226021A381A1D9
:102FA00082B92F988FE182A382E086A3089522B987
:102FB00048C081110CC02F9A81A1836081A382B97E
:102FC0008091710E8D3308F43CC086E02FC08230B2
:102FD00009F438C081A182B92F9A279800C0000057
:102FE00000C083B18078279A96A1933049F4882352
:102FF00029F083A1815083A3811123C084E016C0EE
:10300000943021F48823E9F083E00EC0953039F440
:1030100083A1815083A3811114C081E007C0963041
:1030200081F4882371F084E183A385E086A309C03D
:103030009091990696FB992790F9891711F02F9A8C
:1030400008952F98089512B88FE181B900C090B10A
:103050008FEF81B9E7EBF2E08781882311F080E2FE
:1030600002C0892F807E8483292F207C80812817AD
:1030700059F08074880F90783181891711F03150A0
:1030800001C03F5F3183208382819381891711F0D2
:103090008383818308959091910690FD02C093E00F
:1030A0008927E82FF0E0E857F64FE081E7FDE95F78
:1030B000E595E595E5951E1624F0EE2321F0E195C2
:1030C00002C080E801C080E0E8300CF0E7E0FF27B4
:1030D000E7FDF095E850FC4FE491EE2319F099E0FC
:1030E000909357028E2B0895482F833021F0882328
:1030F00021F0E82F03C0E0E001C0E3E0F0E0EE0FD4
:10310000FF1FE253F94F80819181443080F4209178
:10311000AE0630E002C0359527954A95E2F720FFCC
:1031200006C020E038E0A901481B590BCA010895E8
:10313000FF920F931F93CF93DF93F12CC0E0D0E069
:103140008F2D0E947418092F10E0C00FD11FF39427
:1031500084E0F812F5CFCE01DF91CF911F910F914E
:10316000FF9008950E9474182091930620FF03C0D9
:103170009195819591090895EEECF6E040E0842F59
:10318000806480937C0000C000C080917A008064DD
:1031900080937A0080917A0086FDFCCF20917800A0
:1031A0003091790080917A00806480937A008091D8
:1031B0007A0086FDFCCF8091780090917900820F93
:1031C000931F20917A00206420937A0020917A0046
:1031D00026FDFCCF2091780030917900280F391F0F
:1031E00080917A00806480937A0080917A0086FDD5
:1031F000FCCF8091780090917900820F931F969573
:103200008795819391934F5F483009F0B8CF089527
:1032100078941F920F920FB60F9211248F93809182
:1032200029028F5F809329028F910F900FBE0F901C
:103230001F90189578941F920F920FB60F92112439
:103240000BB60F922F938F939F93EF93FF93F89466
:10325000809170008E7F809370007894209180021E
:103260008091820290919C06882359F090FF07C0BC
:1032700080917810820F8093781087FF02C0739A34
:1032800001C0739891FF2AC080916D0A811126C0F8
:10329000E2E4FFE086A1823009F583A1882311F0E2
:1032A00081501BC021A12F9A82A180FD09C02D7FD2
:1032B00084A195A196FD2260880F991F95A384A3F0
:1032C00081E0822782B981A32F9882A1815082A3B5
:1032D000811104C083E086A385E083A3F8948091E4
:1032E00070008160809370007894FF91EF919F91BE
:1032F0008F912F910F900BBE0F900FBE0F901F90CC
:10330000189578941F920F920FB60F9211240BB656
:103310000F922F933F934F935F936F937F938F936E
:103320009F93AF93BF93EF93FF9387B5845687BD69
:103330008EE792E00E947D830E94677B0E94A88AAC
:103340008091AE0E82608093AE0EEAE0F2E0808162
:10335000815011F0808304C084E6808381E0818302
:103360008281815011F0828304C08AE0828381E0EF
:103370008383FF91EF91BF91AF919F918F917F9147
:103380006F915F914F913F912F910F900BBE0F90D6
:103390000FBE0F901F90189578941F920F920FB642
:1033A0000F9211240BB60F922F933F934F935F937D
:1033B0006F937F938F939F93AF93BF93EF93FF93FD
:1033C0002091960030919700F894809171008F7D44
:1033D0008093710078948091C5069091C606A901EA
:1033E000481B590BCA01969587953093C6062093C2
:1033F000C5069C01215A3F402F3D3E4220F481E00A
:1034000080932A022CC0E0912A022FEF2E0F283041
:1034100030F59C012152334027373540F0F424E643
:103420002093C00221E02E0F20932A02F0E0EE0F3D
:10343000FF1FE75DFD4F9C012C5D354040919706D5
:10344000465F429FC001439F900D11246AE070E0E7
:103450000E94BE907183608302C010922A02F89489
:10346000809171008062809371007894FF91EF9158
:10347000BF91AF919F918F917F916F915F914F918C
:103480003F912F910F900BBE0F900FBE0F901F908A
:10349000189590E0880F991F8C55904FFC01F89477
:1034A000808191817894089584E00E94491A209146
:1034B000AD083091AE08820F931F08959C0165E01E
:1034C000359527956A95E1F7280F391FAC01440F10
:1034D000452F441F550B241B350B892F990F990B32
:1034E0008595820F931F08959DE7980F9B3F88F065
:1034F0008E57E82FF0E0EE0FFF1FEB56FA4F80815A
:1035000086171CF46083862F0895481714F44083AF
:10351000842F089544E66CE90C94741A982F8091D6
:10352000EF0284FF03C081E0923009F080E008954B
:1035300049E2840290011124359527953595279508
:1035400087FD815C86FB880F880B80F9A901481BE9
:10355000510987FD5395CA0108955F926F927F923A
:103560008F929F92AF92BF92CF92DF92EF92FF9293
:103570000F931F93CF93DF93982E862E87FD81950F
:103580008A3040F4825F0E94FD7A19140CF4ADC1B8
:1035900091E020C08A50C82ED12C8C3008F4D8C0BD
:1035A0008601000F111F000F111F01541A4FF8015F
:1035B0008281882309F496C196012155394F7901FA
:1035C00034E0361748F4F7019081917019140CF427
:1035D0008BC181E0892789C1F801608051800E94F8
:1035E000371481111BC08FEF860D0E940A165C01F3
:1035F000F801808185326CF09BED792E780E618127
:10360000872D0E943926EC01872D0E942326782ED3
:103610001BC0F80181810E94981A0CC0823071F49D
:103620008FEF860D0E940A165C01F801818181509E
:103630000E940A16EC017724739406C077247394D1
:10364000C0E0D0E0A12CB12CF801828190E0FC0117
:103650003197EE30F10508F078C0EA59FF4F0C942D
:103660001391B7FE33C0B194A194B1082FC0B7FE37
:1036700032C0B194A194B1082EC0D1E0D80D4D2F25
:1036800060E0862D0E94851CC82F4D2F60E0852D9F
:103690000E94851C982FF8018281853031F4CC235B
:1036A00009F453C091114FC050C0863019F4C111B4
:1036B0004AC02BC09C2729C091E0AC16BD06C9F4B6
:1036C00024C091E0AC16BD0601F513C091E0CA1507
:1036D000DB05DCF00EC091E0AC16BD06B4F009C00D
:1036E00091E0AC16BD068CF404C091E0CA15DB0570
:1036F00064F490E00AC0F601EE0FFF1FE75AFD4F99
:1037000091819095991F9927991F7720F1F099231E
:10371000E9F0F80183818823A1F089300CF08F5FF4
:10372000883F0CF481508C3124F4853E1CF487EFE3
:1037300001C089E041E0480D60E00E94851C982F9F
:1037400005C091E003C07110E4CF90E0F701C8C05C
:103750005601AA0CBB1C85010C0D1D1D0C5C1A4FDB
:10376000F80182818F7009F4BDC096012155394F4F
:10377000690134E0361710F4F60126CFF8016080B5
:1037800051800E94371481111BC08FEF860D0E945B
:103790000A167C01F801808185326CF0CBED7C2E1D
:1037A000780E6181872D0E943926EC01872D0E94B9
:1037B0002326782E1BC0F80181810E94981A0CC024
:1037C000823071F48FEF860D0E940A167C01F80199
:1037D000818181500E940A16EC017724739406C0FF
:1037E00077247394C0E0D0E0E12CF12CF8018281C1
:1037F0008F7090E0FC013197EE30F10508F06EC05B
:10380000EC58FF4F0C941391F7FE34C0F194E194FF
:10381000F10830C0F7FE33C0F194E194F1082FC0F5
:10382000D1E0D80D4D2F60E0862D0E94851CC82F59
:103830004D2F60E0852D0E94851C982FF801228174
:103840002F70253031F4CC2309F448C0811144C0D5
:1038500045C0263019F4C1113FC029C09C2727C09C
:1038600091E0EC16FD06C9F422C091E0EC16FD06CD
:10387000F1F413C091E0CE15DF05CCF00EC091E05D
:10388000EC16FD06A4F009C091E0EC16FD067CF4F0
:1038900004C091E0CE15DF0554F490E008C0F501B6
:1038A000E75AFD4F91819095991F9927991F77208D
:1038B000A9F09923A1F0F801828182958F7051F0CF
:1038C00089300CF08F5F41E0480D60E00E94851C5C
:1038D000982F05C091E003C07110EDCF90E0F60184
:1038E000908374CE80E001C0892FDF91CF911F912A
:1038F0000F91FF90EF90DF90CF90BF90AF909F908F
:103900008F907F906F905F900895882361F08C3145
:1039100019F0843E19F409C081E008958D312CF42A
:10392000642F0C94AD1A862F089580E0089540E02E
:1039300060E080917E060E94851C811114C08091F8
:103940003C0290913D02892B71F41092620F80919C
:10395000710E9091CD06981751F08093CD0682E4B8
:103960009FE00C949E1781E08093620FF0CF089542
:1039700020913C0230913D022115310511F021507A
:103980003109882319F08091950601C080E090915B
:103990003B02992329F090919D06891708F4892FFD
:1039A0004AEF849FC0011124880F991F8217930743
:1039B00008F4C90190933D0280933C020C94971C3B
:1039C000CF92DF92EF92FF920F931F93CF93DF93EB
:1039D0008091720E9091730E9091CA06282F291B28
:1039E00020933E028093CA0660E082E399E00E9441
:1039F000015780913E02882309F4C6C2EEE8F9E03F
:103A0000878980FF0DC0808D91E0980F908F94364C
:103A100038F08356808F858996890196968B858BA1
:103A20008091C002882319F081508093C00280E009
:103A30000E9405700E94A6750E94917A182F482F47
:103A40004F70E42E5AEFE50EC091F002C43021F021
:103A5000C33019F4C4E001C0C8E087E08E1508F453
:103A6000A1C0812F807F803209F49CC0E091910633
:103A700094E0E99FF00111248E2D8695E80FF11D49
:103A8000E75EFB4F04918091AD0680FF03C083E0A9
:103A9000801B082F602F80912E070E94E116F82EC0
:103AA000602F0E9404179C01C1110CC0EC0197FF0C
:103AB00004C0CC27DD27C81BD90BD595C795D59554
:103AC000C795CF5F023061F48091EF0280FF5AC248
:103AD00081E0C2E09091930690FF03C0C19501C0C0
:103AE00080E0DD27C7FDD095E0FE03C0C20FD31FE5
:103AF00004C0A9014C1B5D0BEA01209721F09D2F0A
:103B0000932797FF11C081110FC0232B69F040E06C
:103B100050E0602F8F2D0E940C17812F0E94587B40
:103B200086E10E943C853DC09E0124583F4F293FBD
:103B3000310580F4AE01602F8F2D0E940C17D7FF46
:103B400003C0D195C195D109D595C795D595C79590
:103B50004C2F21C01C161D061CF44DE750E002C07E
:103B600043E85FEF602F8F2D0E940C17CE01835822
:103B70009F4F8B3F9105A8F4D7FF03C0D195C19506
:103B8000D109D7FD2396AE01559547955595479593
:103B9000519541955109445C65E18EE792E00E94A0
:103BA000268410E0E0E4F2E0809186099091870994
:103BB00020813181281B390B37FF02C0215E3F4F26
:103BC00065E0359527956A95E1F72115310561F096
:103BD00024813581281B390B37FF02C02F5F3F4FEF
:103BE000359527959183808395838483809193066F
:103BF00085FD04C080915409882311F020E030E055
:103C000033832283C7EBD2E02D818981821B8F3FD2
:103C100009F480E087FD8F5F85958887982F990F3D
:103C2000920F9D83812B0E94B81C8091A906895F09
:103C3000E0914C02F0E0EE0FFF1FE35BFD4F2081AF
:103C400031812C503D4409F044C028852223B1F035
:103C50009E81332727FD3095290F311D97FD3A9519
:103C60002E37310514F09DE705C023389FEF390743
:103C70001CF493E89E8301C02E831886E0915A05B8
:103C80009E2F907E31F1E295E695E770F0E0E4300A
:103C9000F10554F4EE0FFF1FE058F64F20813181FB
:103CA0003C5F60E078E00CC0EE0FFF1FEB56FA4F70
:103CB0002081332727FD309523583F4F6AEF70E06E
:103CC00047E0429FC001439F900D11240E94AA909B
:103CD000862F9091C10289130E94981780919906AE
:103CE00087FF3BC0809158028823B9F18091570229
:103CF0008823A9F18091C90687FD03C08F5F809357
:103D0000C90682E00E944B18982F9F7789F0209176
:103D1000C906921720F51092C906111120C0182F5C
:103D20001095111F1127111F83E6811B182F17C033
:103D300083E00E944B18982F9F7789F02091C90645
:103D4000921768F41092C906111109C0182F109526
:103D5000111F1127111F1C5902C01092570281E038
:103D60008093580200912E07E090BD02FF24E7FCEB
:103D7000F094C6E9D5E09AE0C92ED12C688166237B
:103D800009F440C0653030F46150802F0E94041760
:103D9000BC012BC0653041F1E62FF0E0EE0FFF1FB4
:103DA0006A3048F4E259F64F6081718177FF0EC0A6
:103DB000695F7F4F0BC06D3078F4E259F64F208178
:103DC000318137FF02C0295F3F4FB901B3E07595DC
:103DD0006795BA95E1F709C0E05CF64F8081918163
:103DE000B6010E94BE9001C0B70163382FEF720781
:103DF0002CF06D3771051CF06DE701C063E8FE0122
:103E000031976083229645E0C43AD40709F0B6CFD3
:103E10008091DC029091DD020097B1F060E00E9499
:103E200099160E94ED8B9091C806992339F0811163
:103E300025C01092DD021092DC0220C08823F1F030
:103E400081E08093C8061AC01092C806C0914B0248
:103E5000CC2331F010924B0287E10E943C851C2F4D
:103E60001093B602E0914C02F0E0EE0FFF1FE35B0F
:103E7000FD4F0190F081E02D812F19950E94097A64
:103E8000C4B38EE792E00E946983882311F084E135
:103E900005C080917A10882321F0815080937A1098
:103EA00005C082B3869581708093791080917910D6
:103EB0008093DA02882309F463C08091990685FD16
:103EC0005FC0CF7EC4BB8091710E8F71823009F0CC
:103ED00054C08091DC069091DD06AC01F4E0440F03
:103EE000551FFA95E1F797FD0796BC01E3E075953C
:103EF0006795EA95E1F720917D06332727FD3095F8
:103F00002A5F3F4F629FC001639F900D729F900D8B
:103F10001124840F951F2091930626FD05C0609102
:103F200000027091010202C060EF70E00E94AA904E
:103F300080913F02680F711D6F5F7F4F7595679588
:103F400060933F028091C706805F8093C70681110E
:103F500014C080917C06681780F4623370F06EE2C2
:103F600081E10E9442858091930683FF06C082E32F
:103F700090E090933D0280933C0210923B0204C07B
:103F8000C061A0CF80E0A6CDDF91CF911F910F91AE
:103F9000FF90EF90DF90CF900895CF93DF93C62FDF
:103FA0002091DB02222339F09093DD028093DC0222
:103FB000DF91CF91089560E00E949916C11103C06E
:103FC00080917B0601C089E10E94C17967E182E1AD
:103FD0000E9442850E944216D1E00E94ED8B882308
:103FE00021F0DF91CF910C9442168091AE0E833078
:103FF00019F4A8951092AE0E40E060E080917E0624
:104000000E94851C811106C080919506811102C015
:10401000CC2329F0D093620F0E94971CDECF109220
:10402000620FFACF90914C02911103C0811106C02A
:104030000CC0811103C08FEF890F01C080E0809315
:104040004C028EEB80934B02089560E08FE892E083
:104050000C94CD1FE0914C02E43028F060E082E83F
:1040600092E00C94CD1F2FEB20934B02EF5FE09377
:104070004C02F0E0EE0FFF1FE35BFD4F9183808366
:1040800008951F93CF93DF93CBEAD5E090E088812A
:1040900011E0190F882341F040E060E00E94851C88
:1040A000882311F0812F05C0912F2A96143079F7BB
:1040B00080E0DF91CF911F910895AF92BF92CF9290
:1040C000DF92EF92FF920F931F93CF93DF931092A3
:1040D0008C0980912902C6B5909129028913F9CFE4
:1040E000D0E0D82B80915A058F7160E1F62EF81A36
:1040F0000E94BC181EE510937C000E9423180E94A9
:10410000E01C10937C0080917A00806480937A0098
:1041100080917A0086FDFCCF8091780090917900A3
:104120000496409100025091010267E0649F900163
:10413000659F300D1124820F931F53E0969587954C
:104140005A95E1F790930102809300028091AE0EA0
:10415000833019F4A8951092AE0E2091290286B5ED
:10416000909129022913F9CF90E0922B8C1B9D0B83
:1041700020911002309111022817390720F49093F2
:1041800011028093100280910D02882309F4BEC1B0
:104190008091C3069091C40601969093C4068093C3
:1041A000C306CF2CF7E1FC1508F47EC00C2D10E0FF
:1041B000E801CC0FDD1FC55ADA4F8FE08C1528F4CB
:1041C000E801CC0FDD1FC154DA4F8881D82ED2947C
:1041D000D69427E0D222E98095E09D1550F0EAEFD1
:1041E000EE1538F4EE2DF0E0EE0FFF1FEB55FC4F0F
:1041F000E0808F7109F456C040E060E00E94851CA9
:10420000B82E80910D020E531D4F823009F448C024
:104210008D2D857051F4F8018081811106C0BB207D
:1042200021F08E2D90E00E947A178FEF8D0D823055
:1042300058F4F8018081813099F5B11031C0F2E075
:10424000DF122AC0E39428C085E08D1550F4F801F0
:104250008081811125C0BB2019F189810E9413271B
:104260001FC0F2E0FD15E0F4BB20D1F084E0D816C9
:1042700031F095E0D91631F066E970E005C06CE2E6
:1042800071E002C068E572E08091C3069091C406B7
:104290000E94AA90892B21F48E2D90E00E947A171B
:1042A000F801B082C3947ECFD4E3CD2ED5E0DD2ECD
:1042B00009E512E0F601E2808E2D8F700E9437141E
:1042C0008330E1F5F801C081D181209771F4F601C6
:1042D000C081C7FD06C0C095FAE0CF02E0011124FD
:1042E00019C0DD27C7FDD09515C0D7FF12C0219694
:1042F00089F4F601C181C7FD06C0CF5FFAE0CF02A5
:10430000E001112406C0DD27C7FDD095C095D095EA
:1043100001C021978E2D807F71F08E2D82958F7038
:1043200089300CF08F5F40E060E00E94851C8111B5
:1043300002C0CFEFDFEFF801D183C083F3E0CF0EEF
:10434000D11C0E5F1F4F82E00137180709F0B2CF72
:10435000C1E7CC2EC2E0DC2E00E010E0F801E25212
:10436000FD4F5F01ED5EFC4F80810E94371483306A
:1043700009F04AC0F601C081D181209781F4F5018E
:10438000EF5EFC4FC081C7FD06C0C095FAE0CF02CA
:10439000E00111241BC0DD27C7FDD09517C0D7FF52
:1043A00014C0219699F4F501EE5EFC4FC081C7FD63
:1043B00006C0CF5F8AE0C802E001112406C0DD27F5
:1043C000C7FDD095C095D09501C02197F501EC5E51
:1043D000FC4F80818823A9F089300CF08F5F883FE3
:1043E0000CF48150863124F48B3E1CF487EF01C01D
:1043F00089E040E060E00E94851C811102C0CFEF9F
:10440000DFEFF601D183C0830C5F1F4FF2E0CF0EC8
:10441000D11C0831110509F0A1CF10920D02809135
:10442000CB05882309F472C040E060E08091CC05A0
:104430000E94851C882309F469C08091C2068823E4
:1044400019F081508093C2068091C20681115EC02E
:104450008091CB05813081F487E20E94491AEC01FA
:104460006091CD056695669570E062307105D4F077
:104470000E94BE90EB0116C081E00E94491A80584C
:1044800091099C012E5F3F4F2530310510F480E0EB
:1044900090E02091CD0526952695289FE001299F43
:1044A000D00D11242097E9F0D7FF0AC0D195C1950E
:1044B000D1098091CD0580FD09C046E462E202C0C9
:1044C00046E461E28EE792E00E942684CB34D10577
:1044D000A4F0CD37D1059CF0CF3AD10594F484E017
:1044E00013C08091CD0580FD0EC046E461E28EE7E9
:1044F00092E00E94268484E107C088E005C086E03F
:1045000003C082E001C080E08093C20680910B026C
:10451000882309F4FEC080914810882309F44FC015
:104520008091EA02807CD9F0803819F4C0E9D1E0AA
:1045300002C0CAE7D0E00E94541A6AE070E00E940C
:10454000BE90CB012091EA0223FD03C025FD0E940D
:104550008625C817D9071CF481E00E943C8500E03D
:104560001CED90E0C0E0D0E08091730F0817B0F42C
:10457000E02FF0E0EC58F04F8081C80FD11D81177B
:1045800008F4182F911107C020915805821720F4C4
:104590008DE10E943C8591E00F5FE6CFCE0165E0A2
:1045A00070E00E94AA907093EF0F6093EE0F1C3D95
:1045B00031F0812F90E09093EB0F8093EA0F809180
:1045C0004910882329F180910706882309F1209159
:1045D00084052223E9F08091EC0F9091ED0FB6E075
:1045E00095958795BA95E1F730E08217930784F0A7
:1045F00080919C0681FF05C081E390E00E947A17BC
:1046000007C046E4609185058EE792E00E9426840B
:104610002091C1062F5E822F8F7090E00C970CF0D6
:10462000207F2093C106CEEDD2E0D12C822F807363
:10463000C82E922F9F70B92EE22FE07FAE2E2077EA
:10464000E22EDF1409F45CC08E0103581D4FF801FF
:104650008081982F907C9034D9F4C11019C0880FB4
:10466000880F40E060E0859585950E94851C882331
:1046700079F080919C0680FF05C0FE01E258FD4F55
:10468000608101C061E046E48EE792E00E942684EA
:10469000F8018081982F907C903879F5880F880FE9
:1046A000859585958D31CCF0992787FD90954D970F
:1046B0008130910529F0029731F0E1101EC006C04B
:1046C000B1101BC003C0F0E2AF1217C0FE01E258E8
:1046D000FD4F80810E94132710C0C1100EC040E022
:1046E00060E00E94851C882341F0FE01E258FD4FE6
:1046F0008081805890E00E947A17D3942296A1CFAF
:1047000010920B0280915702882319F081508093F8
:104710005702DF91CF911F910F91FF90EF90DF90A3
:10472000CF90BF90AF9008950F931F93CF93DF93D7
:10473000F8948091720E9091730E78942091CB062C
:104740003091CC06AC01421B530B4B30510520F08D
:104750001092DE0601E001C000E09093CC06809349
:10476000CB06D8E010E8CD2F40E060E08D2F0E940E
:10477000851C002341F08823E1F08091DE06812B27
:104780008093DE0616C0811102C090E001C0912F17
:104790002091DE069227912361F012271093DE0606
:1047A000811102C0CD2FC19586E08C0F833038F087
:1047B00004C01695D150B9F602C0C1110BC060E01B
:1047C00089E00E94AD1A811102C0C0E001C0C9E0B9
:1047D0000111C0E08C2FDF91CF911F910F910895AF
:1047E000AF92BF92CF92DF92EF92FF920F931F93FF
:1047F000CF93DF938C017B016A01A22EB090B602A9
:104800009B2D9F7D943439F080915809882309F4B9
:104810008FC0933439F4E801219683E10E943C85EE
:1048200085E00BC0953419F0923409F084C0E8019A
:10483000219784E10E943C8584E00E94FD7A8111E9
:104840006CC0E114F10401F581E0C816D104E1F473
:1048500080E6B81619F08EE2B81212C0109258090C
:10486000C1E00115110509F0C0E0D0E08B2D0E94D8
:10487000587B8EE2B81207C081E080938D0903C097
:10488000C170DD2701C0B12CA3FE08C00E94942393
:10489000882321F0C82FDD27C7FDD0954091420223
:1048A00050914302C41BD50B80918D09833031F4A4
:1048B0008091BF02C80FD11D87FDDA95CC16DD06A9
:1048C00044F48B2D0E94587B83E10E943C85E601D5
:1048D0000AC0CE15DF053CF48B2D0E94587B84E185
:1048E0000E943C85E701C017D107A1F0209751F441
:1048F0008B2D0E94487B17FF02C083E101C084E139
:104900000E943C858A2D83700E94A96F81E080936C
:104910004A0213C010924A0210C0CC27DD27C01BE8
:10492000D10B85E00E94587B84E00E94587B89CFA0
:10493000953409F47CCFE80184CFCE01DF91CF918B
:104940001F910F91FF90EF90DF90CF90BF90AF90AD
:104950000895552747FD5095772767FD709599274E
:1049600087FD90950E94F023089522E00C94A924DD
:10497000462F22E060E00C94A92421E00C94A924A5
:10498000462F21E060E00C94A924462F50E022E05D
:1049900060E070E00C94F023282F30E0883058F06D
:1049A0002850310949E0429FC001439F900D1124D6
:1049B00084519B4F089545E0429FC001439F900D55
:1049C00011248C539B4F0895CF93DF93D82F909150
:1049D000AC0EC92FC17090FF03C066EB72E102C03C
:1049E00064EA72E188E10E94D976D13629F4109206
:1049F000AC0E80E00E941220C11109C04091A80FA6
:104A00005091A90F24E060E388E40E9435798091F9
:104A1000F70981508093F709811105C081E0DF918A
:104A2000CF910C943C85DF91CF910895813649F464
:104A30000E94587B81E00E94122085E099E50E9447
:104A40002A2066E773E180E10E94D97660E673E18F
:104A500080E20C94D9761F93CF93DF93182FD62F33
:104A6000C42FB9010E94D976DD2329F06FE08C2F85
:104A70000E94B824C82F8091EF024C2F83FF02C000
:104A8000440FD06250E02D2F612F80E60E943579CF
:104A90008C2FDF91CF911F910895FF920F931F9359
:104AA000CF93DF93182FF62E0AE08AE0189FE001DB
:104AB0001124C850DD4F2FE130E0211B3109029F46
:104AC000A001039F500D1124BE01CE010A960E9441
:104AD0003891FF2049F0BE016A5071094AE050E068
:104AE000CE010E9438910AC0FE0111920A95E9F7A1
:104AF0008091070A8883898384E68A831093090A50
:104B0000DF91CF911F910F91FF9008959C01220F8B
:104B1000331F280F391F9595879595958795280FF1
:104B2000391F959587959595879595958795820FCA
:104B3000931F0895429643E7489F9001499F300D87
:104B40001124C901E6E095958795EA95E1F7089566
:104B5000CF92DF92EF92FF920F931F93CF93DF9349
:104B60007B018A0190918C09963008F061C09F5FAB
:104B700090938C099BE0899FE0011124CF5DD94F70
:104B80008881882349F081500E940A169C0144279D
:104B900037FD4095542F03C020E030E0A901DE80AE
:104BA000ED2DE870CE2ED3FC0AC089819A81AA2708
:104BB00097FDA095BA2F280F391F4A1F5B1FAB81A5
:104BC000B0E011960E9484902C8130E02F5F3F4F1F
:104BD000442737FD4095542F0E94F490CC2051F08B
:104BE00089819A81AA2797FDA095BA2F280F391F8E
:104BF0004A1F5B1FD0FE07C0509540953095219508
:104C00003F4F4F4F5F4FE114F10419F08D81F701D1
:104C100080830115110529F08E8186958370F80136
:104C2000808380918C09815080938C09C90102C0D6
:104C300080E090E0DF91CF911F910F91FF90EF9076
:104C4000DF90CF900895E82FF0E0E95FF64EE49111
:104C5000EE2369F0E13021F480914910811107C001
:104C600081E090914810911103C080E0089581E0A7
:104C70000895E82FFF27E7FDF095EC5CF54EE491F1
:104C8000262F332727FD3095C90183589F4FEC30DD
:104C900009F44AC09CF4E43021F14CF4E53F09F4F6
:104CA00054C00CF45CC0EE5FE230C8F00895E6300A
:104CB000C1F00CF454C0EA30FCF50895E43209F474
:104CC0003FC044F4EE300CF44AC0E031CCF1E332A2
:104CD000C9F10895E732B4F1E732E9F108952AE025
:104CE00024C0803491059CF0880F991F805491094D
:104CF000813C910564F0880F991F805C9109813C8B
:104D000051E0950724F0880F991F885E91402AE0B2
:104D1000AC01249FC001259F900D11242091EA022F
:104D200025FF1DC00C94862524E6AC01249FC001FC
:104D3000259F900D11240895C901815A9F4F089510
:104D400022E3F3CF880F991F0895F3E0880F991F8E
:104D5000FA95E1F708955AE06502C001112408951B
:104D6000CF93DF93E82FFF27E7FDF095EC5CF54E3E
:104D70008491853FC9F486E20E94491AEC0180E2E1
:104D80000E94491AD595C7959C0135952795C29FD4
:104D9000C001C39F900DD29F900D112469E170E076
:104DA0000E94BE90CB013CC0863F4CF440E050E0F6
:104DB00060E070E0815FDF91CF910C94A8258D3F7A
:104DC00054F4E82FEE0FFF0BE755FA4F8081992737
:104DD00087FD909525C08F3F09F044F48E3F84F401
:104DE0008D3FD1F480913F0290E01AC0843081F071
:104DF000833291F483E20E94491A880F991F10C0F0
:104E0000E82FEE0FFF0BEE56F64F8389948908C00A
:104E1000DF91CF910C94541ADF91CF910C94491AE1
:104E2000DF91CF910895CF92DF92EF92FF920F938F
:104E30001F93CF93DF9300D0CDB7DEB7082F1B822F
:104E40001A8219820E94B0267C01802F0E9423269C
:104E5000811105C08AE30E94951711E001C010E09E
:104E6000E02FFF27E7FDF095EC5CF54E8491823052
:104E70000CF587FF5CC08D3FD4F4863F0CF04DC02D
:104E8000813F0CF4B5C0853F0CF0A7C0AE014E5F6A
:104E90005F4FBE016D5F7F4F815F0E94A8257C013F
:104EA000EB81F0E0EE59F64EE491EB83A1C08D3F2B
:104EB00031F51DC08332F1F07CF48C303CF48A3043
:104EC0000CF080C0843009F459C092C0803209F0DF
:104ED0008FC081E08A8374C0873209F481C01CF4DA
:104EE00085322CF485C08C3209F462C081C084E222
:104EF0008B835CC084E28B8382E08A8379C06CE31D
:104F000070E0C7010E94BE906B017C0146E260E048
:104F1000C6010E944B8585E361C0E82FEE0FFF0BB1
:104F2000E755FA4FE080FF24E7FCF09461C094E07D
:104F30008902F0011124E558FA4F03810295069584
:104F400006950370D08041E0023009F040E09E01F8
:104F50002F5F3F4F682FC7010E9441157C0184E2FB
:104F60008B8381E08A83033059F1013019F41B826D
:104F70001A823EC083E68D15D8F1BECF88E38B83BD
:104F80009091EA02892F807293FF03C0882349F031
:104F900006C0882331F0C7010E9486257C0188E184
:104FA0008B8398EEE91693E0F906E4F481E0A5CF4F
:104FB0008091EA0285FF1CC0C7010E9486250BC0B4
:104FC00083E30CC08FE28B838091EA0285FF10C0DF
:104FD000C7010E949A257C010BC08BE38B8308C01C
:104FE00081E08A83C7016AE070E00E94BE907B0185
:104FF000111105C04B816A81C7010E944B850F903A
:105000000F900F90DF91CF911F910F91FF90EF9034
:10501000DF90CF9008956F927F928F929F92AF9280
:10502000BF92CF92DF92EF92FF920F931F93CF9395
:10503000DF931F921F92CDB7DEB7F82E962E69012F
:10504000102F8E2C80E28A83A42EBB24A7FCB09460
:105050008E2D8170E82E80FE26C0F501EC5CF54EA9
:10506000E491E15FE43008F00FC18BE0E89FF001CC
:105070001124DF01A85DB94F8C91882309F404C184
:10508000AD0100E124E08F2D0E94807612FD04C066
:10509000E8E17E2E7F0C08C07CE1772E7F0C88EF44
:1050A000980E0CE002C07F2C06E0882D8870682ED8
:1050B00083FC1F7BF501EC5CF54EA49084E0A81600
:1050C00009F495C08A15DCF08DEFA81609F4A7C085
:1050D0008A1564F081EFA8160CF4ABC084EF8A1532
:1050E00094F585EFA812A5C087E79BC08FEF8A15BE
:1050F0000CF045C081E08A150CF058C09AC080E2DF
:10510000A81609F489C08A156CF086E0A81609F47F
:105110006EC0A8160CF48DC0E6EFEA0DE23008F47C
:1051200058C087C086E28A154CF085E2A8160CF0BC
:1051300076C083E2A8127DC0106372C087E2A81215
:1051400078C0106270C0AE014F5F5F4FBE016E5FEE
:105150007F4F8FE08A0D0E94A8252981213011F40C
:10516000106203C0223009F41063EA81F0E0E65ACD
:10517000F64EE491EA8387FCC6016C015AC012FD29
:1051800002C08CEF780EEE2011F08AE0780E1770D6
:10519000012F212FA601692D8AEF870D0E94DB7850
:1051A000E3E3EA0DEA838AEFF80E4CC0912F906892
:1051B0004C2D662019F08DE38F0D02C0872D801BCA
:1051C000EE24E394092F2A2D692D0E9489158A83E4
:1051D00039C083E48A838091EA0285FF2AC0C60130
:1051E0000E949A256C0186E48A83701A22C08DE69B
:1051F0008A838091EA0285FF08C083FD04C0C6014E
:105200000E9486256C0186E68A8388EEC81683E0B4
:10521000D8064CF410620DC0106281E402C0106226
:1052200086E78A8306C0C6016AE070E00E94BE90ED
:105230006B01662099F18DE38F0D212FA601692D59
:105240000E943579882D867069F082FE04C08AE05C
:105250008F0D1B7F02C08091700E212F4A81692D16
:105260000E94F2758A810F900F90DF91CF911F916C
:105270000F91FF90EF90DF90CF90BF90AF909F90F5
:105280008F907F906F90089521E0240F00E04DE50E
:105290005AE1692D8F2D0E94A576F8CE872DCDCFAE
:1052A0000F931F93CF93DF93C82FD62F042F122F66
:1052B0004DE458E10E94B97640E3400F212F6D2F55
:1052C0008CE08C0FDF91CF911F910F910C94F275B0
:1052D000DF92EF92FF920F931F93CF93DF93182FDC
:1052E000F62EC42FD22EDE2DD370A1F08091B602FF
:1052F000803881F48DE7840F8B3F40F0E42FF0E09D
:10530000EE0FFF1FE756FB4FC08101C0CEE782E0E2
:105310000E94A96F8DE78C0F2E2D8B3FA0F043E8E4
:105320004C0F6F2D8EEE810F0E945029DD2309F165
:1053300022E042E850E06EE770E08C2F90E00E949F
:10534000F023C82F16C04C2F552747FD50956F2DC1
:10535000812F0E943579DD2361F0402F6D2D8C2F38
:10536000DF91CF911F910F91FF90EF90DF900C9400
:10537000B5248C2FDF91CF911F910F91FF90EF906B
:10538000DF900895CF93DF939EE0899FE001112481
:10539000C857DB4F40E060E08C850E94851C882365
:1053A00049F040E060E08D850E94851C811104C0B9
:1053B00081E003C080E001C082E0DF91CF910895D9
:1053C000EF92FF920F931F93CF93DF93F82EE62E69
:1053D000C42FD42FD695062F0D1B182F1D1B602F01
:1053E000812F0E9484776D2F6E0D4C2F812F0E948C
:1053F00081774C2F602F8D2F8F0D0E9484774C2F3B
:10540000602F812FDF91CF911F910F91FF90EF902F
:105410000C94817721E0AC0160E080E00C94B976D7
:105420000F931F93CF93DF93182FCEE8D9E085EB2E
:105430009CE00E940A2A113678F0133628F01336C1
:1054400059F487EC9AE202C08CE09DE4DF91CF91A1
:105450001F910F910C9466176CEA7CE088E00E9423
:10546000D9764A815B8100E020E068E08AE20E9410
:10547000DB784C815D8120E068E08EE40E94DB787F
:1054800063EA7CE080E10E94D9764E815F8120E072
:1054900060E18AE20E94DB7848855985B4E0569540
:1054A0004795BA95E1F720E060E18EE40E94DB7851
:1054B0006EE97CE080E00E94D9764881598120E045
:1054C00060E08EE40E94DB784EE76CE382E00E94AD
:1054D000817743E26CE185E00E948477CBE043E092
:1054E0006BE38C2F0E948477CA5FC338C1F7109199
:1054F000B0088091AF08893710F4C0E001C0C12F17
:10550000D6E00CE3EC2FF0E0EF54F74F4081602F32
:10551000641B8D2F0E948477CF5FC83708F0C0E0EE
:10552000C11719F0DF5FDE3769F7DF91CF911F9167
:105530000F91089591E0211101C090E0442319F0EA
:1055400049E254E002C04DE254E0292F0C94B976B0
:105550000F9301E0211101C000E0242F45E458E140
:105560000E94A5760F9108950F931F93CF93DF9319
:10557000182FEA01022F0E94D976202FAE01612F49
:1055800084E5DF91CF911F910F910C9435791F9392
:10559000CF93DF93182FCEE0D2E083E09DE00E940E
:1055A0000A2A1136A1F058F41036C1F48FEF88831F
:1055B00019821B821A8287E10E943C850FC0123635
:1055C00019F0133621F00AC080E19AE202C08CE0A3
:1055D0009DE4DF91CF911F910C9466174981469508
:1055E00050E020E064EF7CE088E00E94B42A48812B
:1055F000469550E020E065EE7CE080E10E94B42A10
:10560000498150E08881481B510957FF02C04F5F14
:105610005F4F5595479520E066ED7CE088E10E945C
:10562000B42A8A819B8129E1289FA001299F500DDE
:105630001124569547955695479520E36DEC7CE0EF
:1056400080E20E94B42A4091280250E060E386E69E
:105650000E94E2766AEB7CE088E3DF91CF911F91B4
:105660000C94D9767F928F929F92AF92BF92CF92F5
:10567000DF92EF92FF920F931F93CF93DF93EC0192
:10568000162FD42E4901B0903109409182095091D2
:1056900083092091840930918509E0E4F2E0868154
:1056A0009781841B950B97FDCF96A6E095958795DE
:1056B000AA95E1F7682F8093550980859185821B13
:1056C000930B97FDCF9676E0959587957A95E1F7C0
:1056D000982F80935309662311F0578346839923AB
:1056E00011F03187208780915409811104C0809185
:1056F000930685FF06C01092550910925309109227
:10570000540920915509211108C080915309811134
:1057100004C082819381892B61F0809195063AEFD4
:10572000839FC0011124880F991F90933D0280939D
:105730003C0281149104B1F1888181119EC1809154
:105740008D09882309F4A4C1813009F4B3C1211162
:10575000B8C1153609F4D8C1143609F4DFC177246D
:10576000739480918D09811102C092E0792E402FAF
:1057700050E0272D60E08FE70E9435790A3008F469
:1057800085C10FE6272D4FE260E0802F0E94F27561
:105790004D2D50E04F5F5F4F272D60E08FEF800F62
:1057A0000E943579E114F10451F098818C2D9C15FB
:1057B00008F4892FF701E80FF11DE49101C0E0E042
:1057C00080918D09813081F58091BF0218166CF4AB
:1057D000BE1610F4B39411F588818A1518F48F5F02
:1057E000888301C01882B12C19C08823B9F0B11088
:1057F00014C08881882319F08150888301C0A88251
:10580000E114F10459F098818C2D9C1508F4892F2E
:10581000F701E80FF11DB49001C0BA941092BF02D5
:105820001E3249F483E005C0833029F41E3219F496
:1058300081E080938D09E114F10451F098818C2D61
:105840009C1508F4892FF701E80FF11D549101C050
:1058500050E080915809811145C0809153098823F7
:1058600001F14881481B47FD40E08A2D90E0242F3C
:10587000332727FD3095281739070CF04A2D488328
:10588000E114F10459F0C41608F44C2DF701E40FAB
:10589000F11DE491EB1518F4BE2E01C0B12C10924D
:1058A000530928812223F1F0809155098823D1F0F2
:1058B000B81AB7FCB12C8B2D992787FD9095E11470
:1058C000F10479F03C2D2C1508F4322FF701E30F89
:1058D000F11DE4912E2F30E0821793071CF0BE2EAD
:1058E00001C0B12C103669F190F4123409F473C080
:1058F00028F41132A9F11E3221F197C0143409F4B1
:1059000046C008F476C0153409F451C08EC015366F
:1059100009F451C040F4133609F46EC0D8F51236BC
:1059200009F45CC082C01E38C1F01F3B31F0113851
:1059300009F07BC01092580921C0188210925809B2
:1059400038C08881882309F470C081E0909158099B
:10595000911180E08093580968C08EE80E94587BBE
:1059600080915809882319F0109258095EC08881E7
:10597000882311F0892831F410928D0980E00E946B
:10598000122053C087E10E943C8518824EC0B51694
:1059900009F44BC0EF2809F448C0809158098111DF
:1059A00044C0B51610F4B39411C0B12C0FC0B1109F
:1059B00002C0B12C3AC0EF28C1F180915809811181
:1059C00034C0BB2011F0BA9401C0B52E552369F143
:1059D0001092B6022AC088818A1539F1809158093F
:1059E000811123C088818A1510F48F5F0DC0188241
:1059F0000EC088818823C9F080915809811115C093
:105A00008881882319F08150888301C0A882E1141D
:105A1000F10479F288818C1508F4C82EF701EC0D99
:105A2000F11DE490EB1408F4BE2C209158092111CB
:105A30000AC031E08091420290914302892B09F41F
:105A400030E0832F01C081E080935709B092310983
:105A5000222311F082E001C081E080935209DF919E
:105A6000CF911F910F91FF90EF90DF90CF90BF905B
:105A7000AF909F908F907F900895809158098111E9
:105A800003C081E080938D09712C6BCE05E77ACE3F
:105A90008091BF02181624F0882319F015E601C082
:105AA00014E61092BF021E3209F051CE81E08093BD
:105AB0008D0905C01E3209F04ACE10928D0910E002
:105AC00046CE80915809811144CEED2DE21BE7FDB1
:105AD000E0E0202F30E08E2F992787FD90958217E8
