:100000000C94AC110C94DB110C94DB110C94DB11EF
:100010000C94DB110C94DB110C94DB110C94DB11B0
:100020000C94DB110C94DB110C94AB160C94577AE6
:100030000C942A7D0C94887A0C94DB110C940E1786
:100040000C9499160C94DB110C9410840C943B8244
:100050000C94DB110C94DB110C94DB110C94DB1170
:100060000C94A67D0C9459170C94F17A0C94EB7DAA
:100070000C94DB110C94DB110C94DB110C94DB1150
:100080000C94DB110C94DB110C94DB11F318F818B1
:10009000BE18C418CA18CA18CA18E918EE18F318F6
:1000A000F818FD1802190819C719CC1991199719D0
:1000B0009D199D199D19BD19C219C719CC19D119BE
:1000C000D619DC19CE24CE24CE24CE244F25F524F7
:1000D000F524F524F524F524F524F524DF24E7247C
:1000E000E724FF24FF245A255A2526255A255A2578
:1000F0005A255A255A25442544255A255A255A2534
:100100005A255A255A255A255A255A255A255A25F7
:100110005A255A255A255A255A255A255A255A25E7
:100120005A2540255A255A25E2245A25DF24DF2462
:100130005225C64786479147A047A647AA47AF47DB
:10014000155629566E5684568D569656A756C35642
:10015000E056C659DC59EA59FF590D5A1C5A2E5A15
:10016000545A7D5A8B5ACA5AF05A0E5B1C5B2A5B52
:10017000385B217610760376127616761A76067636
:100180001E762A761C7F1E7F217F267F397F4A7F3D
:100190005A7F657F777F897F8E7FA77FAA7FAE7F1B
:1001A000B07FB27FB77FBB7FC77FCB7FD37FDA7F44
:1001B000DE7FE07FE47FE67FE87FEA7FEE7FF27F0D
:1001C000F77FFC7F018006800B8005A84CCDB2D460
:1001D0004EB93836A9020C50B9918688083CA6AAB7
:1001E000AA2ABE000000803F204F6C642056657232
:1001F00073696F6E20454550524F4D202020434873
:1002000045434B2053455454494E47532F43414C8B
:10021000494200416C61726D732044697361626C84
:10022000656400537769746368205761726E696E04
:100230006700506C65617365205265736574205367
:1002400077697463686573005468726F74746C6561
:10025000206E6F742069646C65005265736574204C
:100260007468726F74746C6500454550524F4D2030
:100270006C6F77206D656D004C4F4144494E4700CF
:100280006D537461636B206F666C6F77006D537490
:1002900061636B2075666C6F77004D455353414722
:1002A0004500707265737320616E79204B6579002B
:1002B000507265737320616E79206B657920746F5D
:1002C00020736B697000032D2D2D783E30783C3003
:1002D0007C787C663E30663C307C667C6331206393
:1002E0003220633320633420633520633620633744
:1002F0002063382063392063313063313163313218
:1003000063313363313463313563313600034F4633
:1003100046414253525573525525454C73454C2521
:10032000544873544825414C73414C25503120505A
:100330003125503220503225503320503325002DA6
:100340002D2D004348002D2D2D200004503120205C
:10035000503220205033202048414C4646554C4CCA
:1003600043594331435943324359433350504D313C
:1003700050504D3250504D3350504D3450504D35FB
:1003800050504D3650504D3750504D384348312025
:1003900043483220434833204348342043483520E3
:1003A00043483620434837204348382043483920C3
:1003B0004348313043483131434831324348313387
:1003C00043483134434831354348313633504F5335
:1003D000475631204756322047563320475634205F
:1003E00047563520475636204756372054484953FC
:1003F000002D2D2D2D00000064281007030104524C
:10040000554420454C45205448522041494C200039
:1004100020414C4552540000010203000201030335
:10042000010200030201004F4E20004F4646000328
:10043000544852525544454C454944304944314949
:10044000443241494C47454154524E53573153571A
:10045000325357335357345357355357365357370F
:1004600053573853573953574153574253574353B0
:100470005744535745535746535747535748535775
:1004800049001B1E272D36394B4E636C7278878DC1
:10049000939CB1B4C6C9D2D8E1E453706C6173685F
:1004A000008040000000000000000000000000008C
:1004B000000000000000000000000000000000003C
:1004C000000000000000000000000000000000002C
:1004D000000000000000000000000000000000001C
:1004E000000000000000000000000000000080C0CC
:1004F000E0E0F0F8F8FCFCFCF8F8F8F04000000050
:10050000000080808000000000000000000000006B
:10051000000000000000000080C0C0E0E0E0F0F05B
:10052000F0E0C00000000000C0F8FFFF9F87838359
:10053000838383838383838383838383838383838B
:1005400083838383038380838383838383838383FE
:100550008383838383838383838383838383C3E3CB
:10056000733F1F0000000080E0F0F8FCFEFFFFFF7B
:10057000FF7F3F1F1F0F0783C3E1E1E0E0C0000ED4
:100580001F3F7F7FFFF3E0E08000000000000000DD
:1005900000000080F0FCFEFFFFFFFF7F3F0F030124
:1005A000010100000080F0FEFFFFC7C1C1C1C1C151
:1005B000C1C1C1C1C1C1C1C1C1C1C1C1C1C1C1C12B
:1005C000C101C1F0FEFF3F0F070F0D0D0D1D1919E1
:1005D00019193131313171616161E1C1C1C18100EC
:1005E000000080E0F8FCFFFFFFFF2F170F03818062
:1005F000C0E0F0F8FCFEFFFFFFFFFFFF7F010000FF
:10060000000000000001010307070E1E1C3870E007
:10061000F0F8FEFFFF7F1F0F030001000000000045
:1006200000000000000000000000000000000000CA
:1006300000000000000000000000000000000000BA
:1006400000000000000000000000000000000000AA
:10065000000000000000000000000000000000009A
:10066000007EFFFFFFFFFFFFFBF8FCFCFEFF7F3F6C
:100670001F0F07C3FFFFFFFFFFFF7F070000000002
:1006800000000000000000000000C0E0F8FEFFFFD6
:100690007F1F0F1F3D7CF8F8F0E080000000000095
:1006A000000000000000000000000000000000004A
:1006B000000000000000000000000000000000003A
:1006C000000000000000000000000000000000002A
:1006D000000000000000000000000000000000001A
:1006E00000000001010101010307070703010000E9
:1006F00000E0FCFFFFFFFFFF1F0300000000000001
:100700000000000000C0F078DE2713090E07030088
:100710000000000000000001030F7FFFFC7878F864
:100720000000000000000000000000808080808049
:1007300080808080008080008080000000000000B9
:100740000080808080808080808080808080808029
:100750008080800000000000000000000000000019
:10076000000000000000000000000000000080F019
:10077000FEFFFFFFFF3F0F01000000000000000030
:10078000C0E0381E0F030001000000000000000060
:100790000000000000000000000000000000030353
:1007A00001000000000000000000000E0E02020226
:1007B00002020303000F0F000F0F080808080808C3
:1007C000080F0F08080808080F0F000000000F0F9F
:1007D0000000000000000000000000000000000019
:1007E000000000000000000000000000C0F8BFFF93
:1007F000FFFF1F7F010000000000000000F0FCFF71
:100800007F783000000000000000000000000000C1
:1008100000000000000000000000000000000000D8
:1008200000000000000000000000000000000000C8
:1008300000000000000000000000000000000000B8
:1008400000000000000000000000000000000000A8
:100850000000000000000000000000000000000098
:1008600000000000000000000000301C070E0F0711
:100870000100000000000000000000000000000077
:100880000000000000000000000000000000000068
:100890000000000000000000000000000000000058
:1008A00000000000204D4F443A204652534B59203F
:1008B00020203132382020002053564E3A206572D5
:1008C00039782D72310054494D453A2032313A3051
:1008D000383A323900444154453A2032302E3035CE
:1008E0002E3230313400564552533A2056312E3193
:1008F00032342D005448526F75742500536174438F
:100900006F756E74004F4646003344204669780088
:1009100033442046697800324420466978004E6F9F
:1009200020466978004750533A0020446973617249
:100930006D6564200020202041524D454420200058
:1009400020556E6B6E6F776E20200020204E4F205A
:100950004D41562020004E4F2044524956455220CA
:1009600000202020464C49502020200020205350B9
:100970004F52542020200020204452494654202029
:1009800020004F46204C4F49544552200020204C17
:10099000414E44202020200020434952434C452012
:1009A00020200020202052544C2020202000204CC9
:1009B0004F49544552202020002047554944454482
:1009C0002020200020204155544F202020200020AE
:1009D000414C54484F4C4420200020204143524F6A
:1009E000202020200053544142494C495A452000C0
:1009F000202020202020202020200056343D075693
:100A0000353D0E56363D0056313D0756323D0E56A9
:100A1000333D00096D7068005370643D096B747359
:100A2000204D61783D00416C743D096D2020204DC2
:100A300061783D004C6F6E3D004C61743D1248641E
:100A400067000A52504D004675656C0022047C5EBA
:100A500054546D0003457870457846466E654D6583
:100A6000644372730041323D0041313D0011544FE7
:100A700054000153544B115354250001544D45115A
:100A8000545357005354415400035B4D454E555D3C
:100A900020746F207265667265736800746D616999
:100AA0006E0F6D7300746D7231204A6974746572D3
:100AB0000F757300746D72314C6174206D696E0F27
:100AC000757300746D72314C6174206D61780F75AF
:100AD00073005354415432004D6F646500205245F9
:100AE000544100014368616E6E656C204F7264650D
:100AF00072004672736B79204D6F6420446F6E658F
:100B000000496E742E204672736B7920616C61729D
:100B10006D0043726F73735472696D00456E61624C
:100B20006C652050504D53494D0042616E644761E1
:100B30007000537469636B5363726F6C6C00506F19
:100B4000745363726F6C6C00416C61726D205761FD
:100B5000726E696E67004D656D6F727920576172B4
:100B60006E696E670044656661756C74205377002A
:100B70005468726F74746C65205761726E696E6729
:100B80000053706C617368204E616D650053706C2A
:100B90006173682073637265656E004C6967687481
:100BA000206F6E2053746B204D76004C696768741B
:100BB000206F6666206166746572004261636B6CCB
:100BC0006967687420696E76657274004C6967683D
:100BD000742073776974636800466C617368206F72
:100BE0006E2062656570004265657020636F756E8A
:100BF00074646F776E004D696E757465206265650B
:100C000070005468726F74746C65207265766572DA
:100C1000736500496E616374697669747920616CEB
:100C200061726D136D004261747465727920776131
:100C3000726E696E6700436F6E7472617374002028
:100C400048617074696320537472656E67746800DC
:100C500020537065616B657220506974636800563B
:100C60006F6C756D65000A426565706572202020A5
:100C700020506953706B722020202042656570728D
:100C8000566F696365506953706B566F6963654D44
:100C9000656761536F756E642000536F756E6420D5
:100CA0004D6F646500065175696574204E6F4B6524
:100CB00079207853686F727453686F7274204E6F26
:100CC000726D20204C6F6E672020784C6F6E67200D
:100CD00000426565706572004F776E6572204E61E7
:100CE0006D6500000900524144494F205345545559
:100CF0005000036D6F64650A2520737263202073B2
:100D0000770043616C004D756C7469706C69657235
:100D100000036368316368326368336368340003D7
:100D20006F6666202B3D203A3D0007536C61766567
:100D300000000303030300545241494E455200563C
:100D4000455253494F4E005472696D2D202B0005BA
:100D5000204D656E75204578697420446F776E204C
:100D6000202055705269676874204C656674004491
:100D70004941470012424700414E4100034D4F5642
:100D80004520535449434B532F504F545300055360
:100D90004554204D4944504F494E5400035B4D4546
:100DA0004E555D20544F2053544152540043414C02
:100DB0004942524154494F4E000966726565004DE3
:100DC0004F44454C53454C00434F4C204469726599
:100DD0006374696F6E0041494C20446972656374A5
:100DE000696F6E00454C4520446972656374696F94
:100DF0006E0053776173682052696E6700436F6CB1
:100E00006C65637469766500062D2D2D20202031D8
:100E10003230202020313230582020313430202010
:100E200020393020202020005377617368205479C6
:100E30007065000048454C49205345545550000109
:100E4000524554410020464D30004D4F444553001B
:100E500020464D0046616465204F7574004661640C
:100E60006520496E005472696D730053776974632D
:100E70006800000300464C204D4F44450001524598
:100E8000544100032D2D2D5031205032205033205D
:100E900047563447563547563647563700566F6CD7
:100EA000756D6520436F6E74726F6C004175746F61
:100EB000204C696D697473005432546854726967C8
:100EC00000547261696E657200452E204C696D692F
:100ED00074730003504F534E45470053686966745E
:100EE0002053656C0050504D20317374204368616D
:100EF0006E00204661696C736166650003416D6533
:100F00004A61704575720020436F756E7472790086
:100F1000034431364438204C5250002054797065D7
:100F200000094C50342F4C5035202044534D326F23
:100F30006E6C792044534D322F44534D5800445326
:100F40004D20547970650042696E64202052616EB4
:100F500067650050504D2046724C656E0D6D5365AF
:100F600063000B52784E756D0004344348203643BD
:100F700048203843482031304348313243483134E7
:100F80004348313643480013755300117553656368
:100F9000000650504D202020505858202020445307
:100FA0004D32202050504D31362050504D53494D38
:100FB0000050726F746F0052455441313233004219
:100FC00065657020436E740046617374204D6978C6
:100FD0002044656C6179005472696D205377000676
:100FE000457870202020457846696E6546696E65B3
:100FF00020204D656469756D436F6172736500549F
:1010000072696D20496E6300542D4578706F0054ED
:101010002D5472696D000A436F756E7420446F77AA
:101020006E436F756E74205570202000547269678E
:1010300067657242005472696767657200566F692E
:10104000636520496E646578114D454E55004E61CB
:101050006D650000090001000000000000000006AE
:10106000020100534554555000004641494C53413C
:1010700046450052414E474520434845434B205288
:101080005353493A000642494E44494E470044757D
:10109000706C69636174696E67206D6F64656C0064
:1010A00044454C455445204D4F44454C0044555013
:1010B0004C4943415445204D4F44454C00447253E4
:1010C000773200447253773100025765696768745C
:1010D00000024578706F00044452204869000444BF
:1010E00052204C6F7700044452204D696400004543
:1010F00058504F2F445200012B2A52004D49584559
:1011000052000320202020202020200044454C4570
:101110005445204D49583F00035B4D454E555D0BEE
:101120005B455849545D00035945530B4E4F0050E1
:1011300072657373205B455849545D20746F20615C
:10114000626F7274004D6178206D697865727320EA
:1011500072656163683A2033320002536C6F772006
:101160002055700002536C6F772020446F776E001B
:101170000244656C6179205570000244656C6179A8
:1011800020446F776E000841646420202020204DA9
:10119000756C7469706C795265706C616365200060
:1011A000024D756C74707800025761726E696E67DB
:1011B00000024D4F44455300025377697463680041
:1011C0004375727665000D44696666000254726963
:1011D0006D0002466C4D6F64657472696D00024665
:1011E0006978204F6666736574004F666673657430
:1011F00000466D5472696D56616C000257656967EF
:1012000068740002536F7572636500454449542049
:101210004D495820000000000000000000000400BC
:10122000032D2D2D783E30783C307C787C663E3026
:10123000663C307C667C63312063322063332063FC
:1012400034206335206336206337206338206339C8
:101250002063313063313163313263313363313490
:10126000633135633136000D4F6E00072D2D2D2D66
:10127000202020763E6F66732020763C6F667320B8
:10128000207C767C3E6F66737C767C3C6F66734117
:101290004E44202020204F522020202020584F5202
:1012A0002020202076313D3D7632207631213D765A
:1012B000322076313E7632202076313C7632202044
:1012C00076313E3D76322076313C3D76322054698F
:1012D0006D654F6666000D4F6E00072D2D2D2D207C
:1012E0002020763E6F66732020763C6F6673202048
:1012F0007C767C3E6F66737C767C3C6F6673414E79
:1013000044202020204F522020202020584F5220BF
:1013100020202076313D3D7632207631213D7632D7
:101320002076313E7632202076313C76322020768F
:10133000313E3D76322076313C3D76322054696D27
:10134000654F66660053000003435553544F4D20CC
:10135000535749544348455300064F4E2020202000
:101360004F4646202020424F5448202031355365B7
:1013700063733330536563733630536563735661FB
:101380007269626C005653000720382053656373FE
:101390003132205365637331362053656373000126
:1013A00053415658004E756D62657220566F6963E1
:1013B000652053770000000253414645545920539D
:1013C0005749544348455300434C454152204D49E9
:1013D000584553205B4D454E555D0054454D504C8E
:1013E00041544553005343092B0D2A122F00032D5E
:1013F0002D2D52746D45746D54746D41746D52454C
:101400004E525544454C4554485241494C50312068
:101410005032205033206331206332206333206305
:1014200034206335206336206337206338206339E6
:1014300020633130633131633132633133633134AE
:10144000633135633136004756000001474C4F4247
:10145000414C2056415253000546697273744C61E9
:10146000737420004F666673657420417400446590
:1014700063696D616C73005369676E00556E6974C2
:101480000044697669736F72004D756C7469706C95
:10149000696572004F6666736574004E616D650024
:1014A000536F7572636500534300000300042D2DD4
:1014B0002D2D4131202041322020464153565343A7
:1014C0003120534332205343332053433400437578
:1014D0007272656E7420536F757263650053696E26
:1014E0006B20546F6E6573000253656E7369746987
:1014F00076697479000253776974636800042D2D4E
:101500002D2D767370644132202000566172696F10
:101510003A20536F7572636500464153204F6666EB
:1015200073657400437573746F6D20446973706CD8
:10153000617900477073416C744D61696E00566F3C
:101540006C742054687265733D00034F4646313217
:101550003234303000416C74416C61726D004E75F4
:101560006D20426C61646573006D416820416C615F
:10157000726D00527800547852535349616C726D09
:1015800000000101010054454C454D45545259326B
:1015900000013C3E00616C726D0001762D564100E9
:1015A0004120206368616E6E656C00034D6574496F
:1015B0006D7000052053746420204D617620000575
:1015C000467248756257534868690050726F746F6D
:1015D000000002010202010254454C454D4554529F
:1015E0005900434F5059205452494D205B4D454EB0
:1015F000555D0000034C494D495453004356004388
:1016000055525645530050524553455400004355DA
:1016100052564500032D2D2D494E56004756005B6E
:101620004D454E555D205748454E20444F4E450090
:1016300053454C45435400434F5059004D4F564578
:101640000044454C455445004544495400494E53D7
:1016500045525400434F5059004D4F5645004445A4
:101660004C45544500CC60D42EA72B633A1B2B73FA
:1016700030D25BAD31C8395240B153A865AA520E81
:10168000575367D52BB6322153D52D1208120008B7
:101690001C0808081C080000082200490022080055
:1016A00000000000227F22000000082200490022E2
:1016B00008000008220049002208000000227F22C2
:1016C0000000000000082200490022080000081C59
:1016D0000808081C080001010100000002020202C3
:1016E00002020202020200020202020202020200DE
:1016F00000000000000002020202020303030305CF
:101700004665657420566F6C74734465675F434427
:1017100065675F466D41682020416D7073204D659F
:10172000747265576174747300465643466D416D1B
:101730005718242F2F0033383B065761726E312023
:101740005761726E322043686561702052696E671E
:101750002020536369466920526F626F742043688A
:1017600069727020546164612020437269636B74F4
:10177000536972656E20416C6D436C6B526174618C
:1017800074615469636B20204861707463314861EF
:10179000707463324861707463330054696D6572AC
:1017A00000032D2D2D59656C4F72675265640054EE
:1017B000524530313241470052783D0054783D0067
:1017C000204142434445464748494A4B4C4D4E4FC1
:1017D000505152535455565758595A616263646573
:1017E000666768696A6B6C6D6E6F70717273747521
:1017F000767778797A303132333435363738395F25
:101800002D2E0000010203FEFF0406080A0B0C0D3A
:101810000E0F23FD202425261D1E1F27F6F7F8F99D
:10182000FAFBFCF52811292AF1F2F3F4042D2D2DF1
:101830002D41313D2041323D2052535349545353A1
:101840004954696D3154696D32416C742047616C43
:10185000744773706454313D2054323D2052504DD2
:10186000204655454C4D6168314D61683243766C78
:101870007442617474416D70734D61682043746F7C
:1018800074466173564163635841636359416363AE
:101890005A56737064477672314776723247767261
:1018A00033477672344776723547767236477672AA
:1018B0003746776174527856204864672041333D3B
:1018C0002041343D2053433120534332205343338E
:1018D0002053433420005377697463682057617242
:1018E0006E696E670067656E7772697465206572F0
:1018F000726F7200454550524F4D20466F726D61B8
:101900007474696E670042616420454570726F6D42
:10191000204461746100434845434B204D49582F92
:10192000445220534F5552434553004D4F44454C6C
:101930002020202020004D45202020202020202075
:1019400000454550524F4D206F766572666C6F773B
:1019500000E2AEA6A4A22F250000000000000000B7
:101960000000000000000000000000000000000077
:101970000000000000000000333B1F0F00000000CB
:10198000C0C0C0C0C0C0C0C0C0C0000000000000D7
:101990000000000000000000000000000000000047
:1019A000183C3C180000000000000080C0E07038C7
:1019B0001C0C0C0E07030100000000000000FCFEE0
:1019C00087C3E377FEFC00000F1F3B3130381F0F49
:1019D00000000C0EFFFF00000000000030303F3F11
:1019E0003030000000000C0E0783C3E77E3C00008F
:1019F0003C3E37333130303000000303C3C3C3E70C
:101A0000FE3C00003030303030391F0F0000C0E0A5
:101A100070381C0EFFFF00000303030303033F3F66
:101A200000003F3F33333373E3C300000C1C3830F6
:101A300030381F0F0000FCFEC7C3C3C78E0C000068
:101A40000F1F383030391F0F00000303C3E3733B0F
:101A50001F0F000000003F3F0000000000003CFEA0
:101A6000E7C3C3E7FE3C00000F1F393030391F0FBA
:101A700000003C7EE7C3C3E7FEFC000000003038F6
:101A80001C0E07030000183C3C180000000000007A
:101A9000060F0F0600000000F0F8DCCEC7C7CEDC52
:101AA000F8F03F3F0000000000003F3FFFFFC3C3CE
:101AB000C3C3C3E7FE3C3F3F3030303030391F0FE7
:101AC000FCFE0703030303070E0C0F1F38303030F2
:101AD00030381C0CFFFF030303070E1CF8F03F3FD8
:101AE000303030381C0E0703FFFFC3C3C3C3C3C36A
:101AF00003033F3F3030303030303030FFFFC3C35E
:101B0000C3C3C3C303033F3F000000000000000045
:101B1000FCFE0703C3C3C3C7CECC0F1F3830303021
:101B200030303F3FFFFFC0C0C0C0C0C0FFFF3F3FDD
:101B30000000000000003F3F00000303FFFF03031D
:101B40000000000030303F3F303000000000000057
:101B50000303FFFF03030C1C383030381F0F000055
:101B6000FFFFC0E0F0381C0E07033F3F00010307F2
:101B70000E1C3830FFFF00000000000000003F3F57
:101B80003030303030303030FFFF0E1CF8F81C0E93
:101B9000FFFF3F3F0000000000003F3FFFFF3870A5
:101BA000E0C08000FFFF3F3F0000000103033F3F14
:101BB000FCFE070303030307FEFC0F1F3830303021
:101BC00030381F0FFFFFC3C3C3C3C3E77E3C3F3F93
:101BD0000000000000000000FCFE070303030307F1
:101BE000FEFC0F1F383033371E1C3F33FFFFC3C3CB
:101BF000C3C3C3E77E3C3F3F000003070E1C3830E1
:101C00003C7EE7C3C3C3C3C78E0C0C1C38303030D6
:101C100030391F0F03030303FFFF03030303000017
:101C200000003F3F00000000FFFF00000000000038
:101C3000FFFF0F1F3830303030381F0FFFFF00001C
:101C400000000000FFFF03070E1C38381C0E0703BE
:101C5000FFFF000000000000FFFF0F1F38381F1FAC
:101C600038381F0F0F1F38F0E0E0F0381F0F3C3EF0
:101C70000703010103073E3C3F7FE0C08080C0E0D6
:101C80007F3F000000013F3F01000000030303838A
:101C9000C3E3733B1F0F3C3E3733313030303030BD
:101CA0000000000000000000000030303030303014
:101CB000303030300000303030303070E0C00C1E3A
:101CC0003F33333333333F3FFFFFC0E0703030707A
:101CD000E0C03F3F3030303030381F0FC0E0703050
:101CE0003030303000000F1F3830303030381C0CAE
:101CF000C0E070303070E0C0FFFF0F1F3830303070
:101D000030303F3FC0E0703030303070E0C00F1FE7
:101D10003B33333333330303C0C0FCFEC7C3030775
:101D20000E0C00003F3F000000000000F0F89C0C8B
:101D30000C0C0C0CFCFC000133333333333B1F0F12
:101D4000FFFFC0E070303070E0C03F3F0000000097
:101D500000003F3F00003030F3F3000000000000BF
:101D600030303F3F30300000000000003030F3F3EF
:101D700000000C1C383030381F0F0000FFFF0080BF
:101D8000C0E0703000003F3F03070F1C38300000F8
:101D900000000303FFFF00000000000030303F3F61
:101DA00030300000F0F03070E0E07070E0C03F3F95
:101DB0000000030300003F3FF0F0C0E070303070DF
:101DC000E0C03F3F0000000000003F3FC0E0703037
:101DD00030303070E0C00F1F3830303030381F0FD7
:101DE000F0F03030303030F0E0C03F3F0303030309
:101DF00003030100C0E0F0303030E0C0F0F000013B
:101E00000303030303033F3FF0F0C0E07030307082
:101E1000E0C03F3F0000000000000000C0E0F030E4
:101E2000303030300000303133333333333F1E0C29
:101E30003030FFFF30300000000000000F1F38304E
:101E400030381C0CF0F0000000000000F0F00F1F14
:101E5000383030381C0C3F3FF0F00000000000002C
:101E6000F0F003070E1C38381C0E0703F0F00000DA
:101E700000000000F0F00F1F38381C1C38381F0F0E
:101E80003070E0C08080C0E0703030381C0F070731
:101E90000F1C3830F0F0800000000000F0F000016E
:101EA00033333333333B1F0F3030303030B0F0F04A
:101EB000703030383C3E3733313030300000000075
:101EC000000000006F000007000700147F147F145B
:101ED000242A7F2A122313086462364955225000AF
:101EE00005030000001C2241000041221C001408D0
:101EF0003E081408083E0808005030000008080892
:101F0000080800606000002010080402003E4945F7
:101F10003E0000427F400062514946004149493637
:101F2000001814127F0027454539003E4949320008
:101F3000017905030036494936000649291E00008B
:101F400036360000005636000008142241141414DE
:101F5000141441221408000201510906000609095F
:101F6000067E0909097E7F494949363E41414122A1
:101F70007F4141221C7F494949417F090909013EAE
:101F80004149497A7F0808087F00417F410020408D
:101F9000413F017F081422417F404040407F020CB6
:101FA000027F7F0408107F3E4141413E7F090909BD
:101FB000063E4151215E7F09192946264949493289
:101FC00001017F01013F4040403F1F2040201F3F53
:101FD0004030403F631408146307087008076151DC
:101FE000494543007F41410002040810200041415F
:101FF0007F0004020102044040404040000102040E
:102000000020545454787F48444438384444442091
:10201000384444487F3854545418087E0901020C4F
:102020005252523E7F0804047800447D4000204014
:10203000443D007F1028440000417F40007C04188C
:1020400004787C0804047838444444387C1414141C
:1020500008081414187C7C080404084854545420BC
:10206000043F4440203C4040207C1C2040201C3C3D
:102070004020403C44281028440C5050503C4464BC
:10208000544C44000836410000007F0000004136F7
:1020900008000808221C08081C220808010204087D
:1020A0001020408040800804201002019CCE0032A5
:1020B00064E2F1003264645A505A6450463C46640B
:1020C0009C141E465A536572766F205465737400D3
:1020D0004779726F2053657475700048656C69208C
:1020E000536574757000456C65766F6E5C44656C05
:1020F000746100562D5461696C00537469636B7987
:1021000020542D43757400542D4375740053696D2C
:10211000706C6520342D4348000D210721FA20F30F
:1021200020E620DB20D020C5200000891112239B4F
:10213000322446AD573665BF74488CC19D5AAFD323
:10214000BE6CCAE5DB7EE9F7F88110080193331A0B
:1021500022A5562C47B7753E64C99C408DDBBF5203
:10216000AEEDDA64CBFFF976E802218B30100299EC
:10217000132667AF763444BD554AADC3BC588ED1E3
:102180009F6EEBE7FA7CC8F5D983310A20911218CB
:1021900003A7772E66B5543C45CBBD42ACD99E50C3
:1021A0008FEFFB66EAFDD874C904428D5316619F18
:1021B000702004A9153227BB364CCEC5DF5EEDD7A3
:1021C000FC6888E1997AABF3BA85520C4397711E8B
:1021D00060A1142805B3373A26CDDE44CFDFFD5683
:1021E000ECE9986089FBBB72AA06638F7214409D6C
:1021F000512225AB343006B9174EEFC7FE5CCCD563
:10220000DD6AA9E3B8788AF19B87730E6295501C4A
:1022100041A3352A24B1163807CFFF46EEDDDC5442
:10222000CDEBB962A8F99A708B088481951AA793AF
:10223000B62CC2A5D33EE1B7F04008C919522BDB3A
:102240003A644EED5F766DFF7C899400859BB712F2
:10225000A6ADD224C3BFF136E0C1184809D33B5A1A
:102260002AE55E6C4FF77D7E6C0AA583B4188691D3
:10227000972EE3A7F23CC0B5D14229CB38500AD9FA
:102280001B666FEF7E744CFD5D8BB502A4999610B2
:1022900087AFF326E2BDD034C1C3394A28D11A58DA
:1022A0000BE77F6E6EF55C7C4D0CC685D71EE597FF
:1022B000F42880A1913AA3B3B2444ACD5B5669DFBA
:1022C00078600CE91D722FFB3E8DD604C79FF51672
:1022D000E4A9902081BBB332A2C55A4C4BD7795E9A
:1022E00068E11C680DF33F7A2E0EE787F61CC49553
:1022F000D52AA1A3B03882B193466BCF7A5448DD7A
:1023000059622DEB3C700EF91F8FF706E69DD41431
:10231000C5ABB122A0B9923083C77B4E6AD5585C59
:1023200049E33D6A2CF11E780F2F860A0C0D0B1025
:102330002F2F072F2F2F2F2F2F8488979A111314A9
:10234000151609181B122B2C2D2E05191C1D1E1FCE
:102350002720A1222F2F428811241FBECFEFD0E1CA
:10236000DEBFCDBF11E0A0E0B1E0EEE8F7E101E0B3
:102370000BBF02C007900D92A832B107D9F71FE03A
:10238000A8E2B1E001C01D92AE36B107E1F713E259
:10239000C8E5D3E200E006C022970109FE010BBFA9
:1023A0000E94808BC635D10780E00807A9F70E94FC
:1023B00065860C94C58B0C940000E091900594E028
:1023C000E99FF0011124E80FF11DE95EFB4F8491B4
:1023D0008F5F0895853050F0883020F08E3020F4E3
:1023E00082E0089581E0089583E0089580E00895F3
:1023F0002AE0829FC001112489509E4F089525E054
:10240000829FC0011124895C9C4F08950F93022F75
:10241000207104FF03C00F7E9DE201C094E24111D0
:1024200006C024E041EF53E00E942C7118C04530F3
:1024300028F42FEF240F4EEF53E00FC0941728F02D
:102440002BEF240F4BE453E008C0222311F0475B2D
:10245000491B2CED240F4CE258E10E9451710F9161
:1024600008950F93CF93DF93C82FD62F022F4111DA
:1024700004C024E046E453E00EC04A3010F086E188
:1024800001C081E18C0F50E0202F6D2F0E94E1737D
:1024900022E043E453E06D2F8C2F0E942C71DF91DA
:1024A000CF910F9108950F931F93CF93DF93D62F62
:1024B000C42F022F16E0180F442339F04C3141F09D
:1024C000443E81F44BE254E005C04FE353E002C0C8
:1024D00047E254E06D2F812FDF91CF911F910F9133
:1024E0000C94657147FF04C041E20E949E70C19543
:1024F0002FEF2C0F4FE254E06D2F812F0E9451716E
:10250000DF91CF911F910F910895EF92FF920F935A
:102510001F93CF93DF93D82F162FF42EE22EC09166
:10252000E80181E0821708F442C02C2F27FD219595
:10253000203168F4042F4DE053E08D2F0E9451713B
:10254000CF3FCCF52F2D41E2612F8AEF19C02B32FE
:1025500030F41C1614F441EF22C04FE020C0C63402
:102560009CF0CF53042F2C2F46EC52E08D2F0E946D
:102570005171C0310CF4D6502F2D45E2612F82E10C
:102580008D0F0E949E7017C0242F4DE682E18D0FA3
:102590000E949E701C1614F446ED01C04AE24C0FD6
:1025A0002F2D612F8AEF8D0F0E94531204C082E0FD
:1025B000281313C004C0E11010C0C13071F42F2DD6
:1025C00040915804612F8AEF8D0FDF91CF911F91B9
:1025D0000F91FF90EF900C945312DF91CF911F91C8
:1025E0000F91FF90EF900895EF92FF920F931F933A
:1025F000CF93DF93790124E0629F80011124065874
:102600001B4FD801EC91F0E0442311F0EE0FFF1FB7
:102610009F01DC010E94BE8AE8012B81207C203CC6
:1026200059F424E630E040E050E00E94398BF70195
:1026300080818062808318C0E436F10578F4660FEB
:10264000771F881F991F23E330E040E050E00E948D
:10265000398BD7018C9180638C9306C02FEF30E0CB
:1026600040E050E00E94398BC901DF91CF911F916A
:102670000F91FF90EF900895DF92EF92FF920F93EA
:102680001F93CF93DF931F92CDB7DEB7D82EF62ED0
:10269000842FA22F098394E0299F800111240658DA
:1026A0001B4F50E060E070E0F8019381907C90381F
:1026B00021F4EE2081F041E003C0EE2089F040E0FB
:1026C0009E012F5F3F4F6A2F90E00E94F412AC01F1
:1026D00060E070E018C0440F551F661F771F13C0DD
:1026E000903C89F4282F30E0AFEFB0E00E94BE8A22
:1026F00024E630E040E050E00E94398BBA01A901A5
:10270000898180628983F801838186FD14C00981F3
:102710000062E5E0EE2E9A01AB016F2D8D2D0E9437
:102720007772298127FD1BC046E76F2D8091710DBF
:102730000E949E7014C029816F2D8D2D0E94E1731F
:10274000F8018381807C803C61F4298127FD0BC0E6
:1027500041E46F2D8091710D0E949E7004C086E748
:1027600003C080E201C081E40F90DF91CF911F91FF
:102770000F91FF90EF90DF900895873038F4E82FA5
:10278000F0E0EE0FFF1FE758F74F24C08C3050F1F8
:102790008431C0F4482F50E0DA01AA0FBB1FAE5EAF
:1027A000BE4F2D913C91803148F4FA01EE0FFF1F8E
:1027B000EA59FA4F80819181281B390BC901880F92
:1027C000991F0895843248F4E82FF0E0EE0FFF1FC0
:1027D000EF5CF74F8081918108958D3418F4845215
:1027E0000C94362480E090E008950E946186811167
:1027F000FCCF1092A20D08950F931F93CF93DF93F8
:102800008C01EB010E94527024E040E154E060E052
:1028100082E20E946571B80180E20E948571BE016A
:1028200088E20E94857160EB72E080E3DF91CF91D6
:102830001F910F910C9485710F93262F00E04FE2AA
:1028400054E060E10E9451710F910895CF93DF939E
:10285000D6E1C0E08D2F0E94E575CC0FC82BD1507A
:10286000DE30C1F78C2FDF91CF9108950F931F9326
:10287000CF93DF93082FCDEDD1E01AE0499124E00A
:10288000602F812F0E949E70155F1837B9F7DF9176
:10289000CF911F910F9108951F93CF93DF93EC0178
:1028A000162F0E945270BE0188E10E94857111119D
:1028B00009C042EA52E068E38CE10E948B7140E17A
:1028C00054E002C04AE952E024E060E086E10E9460
:1028D0006571DF91CF911F910C94F17461E00C94BC
:1028E0004C1470E0882399F090E0019725E0289F30
:1028F000F001299FF00D1124E60FF71FEE0FFF1FC7
:10290000EE55FB4F808191818B509E4F0895FB01C6
:10291000EE0FFF1FEE5FFE4F0190F081E02D8081F2
:10292000992787FD909508951F93CF93DF93D82F14
:10293000162FC4E0DD2399F0612F8D2F0E947114B2
:102940009C01253F81E0380764F08BE0820F8D17F2
:1029500010F08CE0820FC15029F0D82FEBCFC0E0EF
:1029600001C0CD2F8C2FDF91CF911F910895CF9370
:10297000C62F0E9494146C2FCF910C947114EF9277
:10298000FF920F931F93CF93DF93EA019A0123588D
:102990003F4F7901062F10E0882319F10E9494140B
:1029A0008823F9F03BEFE316F10440F01C161D06F6
:1029B0001CF4CDE7D0E002C0C3E8DFEF90E0019760
:1029C00025E0289FF001299FF00D1124E00FF11F51
:1029D000EE0FFF1FEE55FB4FC55FD140D183C08383
:1029E00015C08BEFE816F10440F01C161D061CF410
:1029F000CDE7D0E002C0C3E8DFEFF801EE0FFF1F24
:102A0000EE5FFE4F0190F081E02DC08386E0DF9104
:102A1000CF911F910F91FF90EF900C94556AE09128
:102A20004B01F0E0EE0FFF1FE25BFE4F80819181D2
:102A30000895E0914B01F0E0EE0FFF1FE45BFE4FC5
:102A4000918380838FEB80934A010895EDE8F8E04D
:102A5000108E168A158A178A0895E3E4FEE037A1DE
:102A6000303180F420A541E0420F40A7DF01A20FE2
:102A7000B11DA20FB11D8D939C93403108F010A69B
:102A80003F5F37A3089590E08C5F9E4F0C942D1507
:102A900090E00C942D158093C00190E040970C9429
:102AA0002D15FC0190919B0580A191FF74C091A10F
:102AB000882311F0946001C09B7F91A386A181308F
:102AC00059F5C79A37A121A1332321F181A541E00E
:102AD000480F41A7DF01A80FB11DA80FB11D8D91AF
:102AE0009C9195A384A3403108F011A6315037A3DF
:102AF00097FD02C031E101C038E233A32C7F97FD7E
:102B0000226021A381A18BBBC7988FE182A382E0C1
:102B100086A308952BBB48C081110CC0C79A81A120
:102B2000836081A38BBB8091720D8D3308F43CC010
:102B300086E02FC0823009F438C081A18BBBC79AD0
:102B4000BF9800C0000000C086B38078BF9A96A1ED
:102B5000933049F4882329F083A1815083A3811104
:102B600023C084E016C0943021F48823E9F083E088
:102B70000EC0953039F483A1815083A3811114C014
:102B800081E007C0963081F4882371F084E183A34B
:102B900085E086A309C09091980596FB992790F946
:102BA000891711F0C79A0895C79808951BBA8FE145
:102BB0008ABB00C099B38FEF8ABBE6EBF1E0878157
:102BC000882311F080E202C0892F807E8483292F20
:102BD000207C8081281759F08074880F907831818B
:102BE000891711F0315001C03F5F3183208382810A
:102BF0009381891711F083838183089590919005C3
:102C000090FD02C093E08927E82FF0E0E957F74FE5
:102C1000E081E7FDE95FE595E595E5951E1624F071
:102C2000EE2321F0E19502C080E801C080E0E830A9
:102C30000CF0E7E0FF27E7FDF095EA50FC4FE49148
:102C4000EE2319F099E0909356018E2B0895482FAA
:102C5000833021F0882321F0E82F03C0E0E001C099
:102C6000E3E0F0E0EE0FFF1FE353FA4F8081918124
:102C7000443080F42091AD0530E002C035952795B1
:102C80004A95E2F720FF06C020E038E0A901481B82
:102C9000590BCA010895FF920F931F93CF93DF93AF
:102CA000F12CC0E0D0E08F2D0E942716092F10E0F4
:102CB000C00FD11FF39484E0F812F5CFCE01DF915D
:102CC000CF911F910F91FF9008950E942716209198
:102CD000920520FF03C09195819591090895EDEC2F
:102CE000F5E040E0842F806487B900C000C0369AC8
:102CF0003699FECF24B135B1369A3699FECF84B1DC
:102D000095B1820F931F369A3699FECF24B135B113
:102D1000280F391F369A3699FECF84B195B1820FAC
:102D2000931F96958795819391934F5F4830D1F685
:102D3000089578941F920F920FB60F9211248F93DB
:102D4000809128018F5F809328018F910F900FBE93
:102D50000F901F90189578941F920F920FB60F92B4
:102D600011240BB60F922F938F939F93EF93FF93A2
:102D7000F89487B78F7B87BF789420917F018091EB
:102D8000810190919B05882359F090FF07C08091A5
:102D90006B0F820F80936B0F87FF02C01B9A01C0DD
:102DA0001B9891FF2AC080916E09811126C0E3E42F
:102DB000FEE086A1823009F583A1882311F08150BD
:102DC0001BC021A1C79A82A180FD09C02D7F84A1CB
:102DD00095A196FD2260880F991F95A384A381E099
:102DE00082278BBB81A3C79882A1815082A38111C6
:102DF00004C083E086A385E083A3F89487B780644A
:102E000087BF7894FF91EF919F918F912F910F90B1
:102E10000BBE0F900FBE0F901F90189578941F92C5
:102E20000F920FB60F9211240BB60F922F933F9370
:102E30004F935F936F937F938F939F93AF93BF93C2
:102E4000EF93FF9381B7845681BF8DE791E00E9495
:102E50004C7E0E9450760E9420858091AF0D82604A
:102E60008093AF0DEAE0F1E08081815011F0808322
:102E700004C084E6808381E081838281815011F0E7
:102E8000828304C08AE0828381E08383FF91EF9193
:102E9000BF91AF919F918F917F916F915F914F9172
:102EA0003F912F910F900BBE0F900FBE0F901F9070
:102EB000189578941F920F920FB60F9211240BB6AB
:102EC0000F922F933F934F935F936F937F938F93C3
:102ED0009F93AF93BF93EF93FF9320918000309126
:102EE0008100F89480917D008F7D80937D0078949F
:102EF0008091C4059091C505A901481B590BCA01D1
:102F0000969587953093C5052093C4059C01215A59
:102F10003F402F3D3E4220F481E0809329012CC0A8
:102F2000E09129012FEF2E0F283030F59C0121521E
:102F3000334027373540F0F424E62093BF0121E0E9
:102F40002E0F20932901F0E0EE0FFF1FE85DFE4FEA
:102F50009C012C5D354040919605465F429FC00123
:102F6000439F900D11246AE070E00E94258B7183CD
:102F7000608302C010922901F89480917D008062E4
:102F800080937D007894FF91EF91BF91AF919F91D5
:102F90008F917F916F915F914F913F912F910F9002
:102FA0000BBE0F900FBE0F901F90189590E0880FEA
:102FB000991F8B55914FFC01F894808191817894F1
:102FC000089584E00E94D6172091AC073091AD0798
:102FD000820F931F08959C0165E0359527956A95AA
:102FE000E1F7280F391FAC01440F452F441F550B43
:102FF000241B350B892F990F990B8595820F931FF1
:1030000008959DE7980F9B3F88F08E57E82FF0E0DA
:10301000EE0FFF1FEC56FB4F808186171CF4608378
:10302000862F0895481714F44083842F089544E6AA
:103030006CE90C940118982F8091EE0184FF03C075
:1030400081E0923009F080E0089549E28402900125
:103050001124359527953595279587FD815C86FB4D
:10306000880F880B80F9A901481B510987FD5395EA
:10307000CA0108955F926F927F928F929F92AF9252
:10308000BF92CF92DF92EF92FF920F931F93CF9355
:10309000DF93982E862E87FD81958A3040F4825FDB
:1030A0000E94E57519140CF4ADC191E020C08A505E
:1030B000C82ED12C8C3008F4D8C08601000F111F07
:1030C000000F111F02541B4FF8018281882309F45D
:1030D00096C1960122553A4F790134E0361748F4EB
:1030E000F7019081917019140CF48BC181E089274C
:1030F00089C1F801608051800E94EA1181111BC0D2
:103100008FEF860D0E94BD135C01F801808185322E
:103110006CF09BED792E780E6181872D0E94BF2384
:10312000EC01872D0E94A923782E1BC0F801818114
:103130000E9425180CC0823071F48FEF860D0E941A
:10314000BD135C01F801818181500E94BD13EC0127
:103150007724739406C077247394C0E0D0E0A12C48
:10316000B12CF801828190E0FC013197EE30F1053D
:1031700008F078C0EA5BFF4F0C947A8BB7FE33C03F
:10318000B194A194B1082FC0B7FE32C0B194A194FC
:10319000B1082EC0D1E0D80D4D2F60E0862D0E94E1
:1031A000121AC82F4D2F60E0852D0E94121A982FF9
:1031B000F8018281853031F4CC2309F453C0911198
:1031C0004FC050C0863019F4C1114AC02BC09C2793
:1031D00029C091E0AC16BD06C9F424C091E0AC163C
:1031E000BD0601F513C091E0CA15DB05DCF00EC089
:1031F00091E0AC16BD06B4F009C091E0AC16BD0676
:103200008CF404C091E0CA15DB0564F490E00AC0B8
:10321000F601EE0FFF1FE85AFE4F91819095991F1E
:103220009927991F7720F1F09923E9F0F80183811C
:103230008823A1F089300CF08F5F883F0CF4815017
:103240008C3124F4853E1CF487EF01C089E041E015
:10325000480D60E00E94121A982F05C091E003C04B
:103260007110E4CF90E0F701C8C05601AA0CBB1C56
:1032700085010C0D1D1D0D5C1B4FF80182818F70A7
:1032800009F4BDC0960122553A4F690134E0361762
:1032900010F4F60126CFF801608051800E94EA11F7
:1032A00081111BC08FEF860D0E94BD137C01F801B8
:1032B000808185326CF0CBED7C2E780E6181872D7C
:1032C0000E94BF23EC01872D0E94A923782E1BC0EA
:1032D000F80181810E9425180CC0823071F48FEFB3
:1032E000860D0E94BD137C01F801818181500E94EE
:1032F000BD13EC017724739406C077247394C0E067
:10330000D0E0E12CF12CF80182818F7090E0FC017B
:103310003197EE30F10508F06EC0EC5AFF4F0C9477
:103320007A8BF7FE34C0F194E194F10830C0F7FED7
:1033300033C0F194E194F1082FC0D1E0D80D4D2FA6
:1033400060E0862D0E94121AC82F4D2F60E0852D57
:103350000E94121A982FF80122812F70253031F423
:10336000CC2309F448C0811144C045C0263019F46B
:10337000C1113FC029C09C2727C091E0EC16FD0673
:10338000C9F422C091E0EC16FD06F1F413C091E0FF
:10339000CE15DF05CCF00EC091E0EC16FD06A4F0D2
:1033A00009C091E0EC16FD067CF404C091E0CE1556
:1033B000DF0554F490E008C0F501E85AFE4F918112
:1033C0009095991F9927991F7720A9F09923A1F02B
:1033D000F801828182958F7051F089300CF08F5FF7
:1033E00041E0480D60E00E94121A982F05C091E05C
:1033F00003C07110EDCF90E0F601908374CE80E0B1
:1034000001C0892FDF91CF911F910F91FF90EF9015
:10341000DF90CF90BF90AF909F908F907F906F90F4
:103420005F900895882361F08C3119F0843E19F47F
:1034300009C081E008958D312CF4642F0C943A1862
:10344000862F089580E0089540E060E080917D053A
:103450000E94121A811114C080913B0190913C018D
:10346000892B71F41092630E8091720D9091CC05AE
:10347000981751F08093CC0583E49EE00C9451158D
:1034800081E08093630EF0CF089520913B0130914D
:103490003C012115310511F021503109882319F023
:1034A0008091940501C080E090913A01992329F020
:1034B00090919C05891708F4892F4AEF849FC001D9
:1034C0001124880F991F8217930708F4C90190935C
:1034D0003C0180933B010C94241ACF92DF92EF922F
:1034E000FF920F931F93CF93DF938091730D909171
:1034F000740D9091C905282F291B20933D018093BD
:10350000C90560E081E398E00E94AD5180913D01E2
:10351000882309F4C9C2EDE8F8E0878980FF0DC06F
:10352000808D91E0980F908F943638F08356808F7D
:10353000858996890196968B858B8091BF0188231A
:1035400019F081508093BF0180E00E94B16A0E940F
:1035500052700E947975182F482F4F70E42E5AEF41
:10356000E50EC091EF01C43021F0C33019F4C4E07E
:1035700001C0C8E087E08E1508F4A1C0812F807FCC
:10358000803209F49CC0E091900594E0E99FF0013D
:1035900011248E2D8695E80FF11DE95EFB4F0491F5
:1035A0008091AC0580FF03C083E0801B082F602F53
:1035B00080912D060E949414F82E602F0E94B7145B
:1035C0009C01C1110CC0EC0197FF04C0CC27DD2782
:1035D000C81BD90BD595C795D595C795CF5F023038
:1035E00061F48091EE0180FF5DC281E0C2E09091C4
:1035F000920590FF03C0C19501C080E0DD27C7FDA3
:10360000D095E0FE03C0C20FD31F04C0A9014C1B1C
:103610005D0BEA01209721F09D2F932797FF11C0A2
:1036200081110FC0232B69F040E050E0602F8F2DF7
:103630000E94BF14812F0E94417686E10E9417806C
:103640003DC09E0124583F4F293F310580F4AE0113
:10365000602F8F2D0E94BF14D7FF03C0D195C19555
:10366000D109D595C795D595C7954C2F21C01C1666
:103670001D061CF44DE750E002C043E85FEF602FE9
:103680008F2D0E94BF14CE0183589F4F8B3F910511
:10369000A8F4D7FF03C0D195C195D109D7FD2396D2
:1036A000AE015595479555954795519541955109C9
:1036B000445C65E18DE791E00E94017F10E0EFE35B
:1036C000F1E0809185089091860820813181281B46
:1036D000390B37FF02C0215E3F4F65E035952795D6
:1036E0006A95E1F72115310561F024813581281BA8
:1036F000390B37FF02C02F5F3F4F359527959183D8
:103700008083958384838091920585FD04C0809198
:103710005308882311F020E030E033832283C6EB86
:10372000D1E02D818981821B8F3F09F480E087FDE4
:103730008F5F85958887982F990F920F9D83812B96
:103740000E94451A8091A805895FE0914B01F0E045
:10375000EE0FFF1FE45BFE4F2081318129563A4472
:1037600009F044C028852223B1F09E81332727FD2C
:103770003095290F311D97FD3A952E37310514F0FC
:103780009DE705C023389FEF39071CF493E89E831B
:1037900001C02E831886E09159049E2F907E31F14E
:1037A000E295E695E770F0E0E430F10554F4EE0FB1
:1037B000FF1FE158F74F208131813C5F60E078E0E6
:1037C0000CC0EE0FFF1FEC56FB4F2081332727FD67
:1037D000309523583F4F6AEF70E047E0429FC001A9
:1037E000439F900D11240E94118B862F9091C00150
:1037F00089130E944B158091980587FF3BC08091EB
:1038000057018823B9F1809156018823A9F180914D
:10381000C80587FD03C08F5F8093C80582E00E94C2
:10382000FE15982F9F7789F02091C805921720F5F3
:103830001092C805111120C0182F1095111F1127C3
:10384000111F83E6811B182F17C083E00E94FE150D
:10385000982F9F7789F02091C805921768F41092ED
:10386000C805111109C0182F1095111F1127111F1C
:103870001C5902C01092560181E0809357010091BB
:103880002D06E090BC01FF24E7FCF094C5E9D4E0EC
:103890009AE0C92ED12C6881662309F440C06530B6
:1038A00030F46150802F0E94B714BC012BC06530EA
:1038B00041F1E62FF0E0EE0FFF1F6A3048F4E359C4
:1038C000F74F6081718177FF0EC0695F7F4F0BC03A
:1038D0006D3078F4E359F74F2081318137FF02C012
:1038E000295F3F4FB901B3E075956795BA95E1F748
:1038F00009C0E15CF74F80819181B6010E94258B60
:1039000001C0B70163382FEF72072CF06D377105D6
:103910001CF06DE701C063E8FE01319760832296D9
:1039200044E0C33AD40709F0B6CF8091DB0190910F
:10393000DC010097B1F060E00E944C140E946186A7
:103940009091C705992339F0811125C01092DC01AF
:103950001092DB0120C08823F1F081E08093C7053D
:103960001AC01092C705C0914A01CC2331F01092C1
:103970004A0187E10E9417801C2F1093B501E09146
:103980004B01F0E0EE0FFF1FE45BFE4F0190F08172
:10399000E02D812F09950E94F174C09165008DE79B
:1039A00091E00E94387E882311F084E105C0809167
:1039B0006D0F882321F0815080936D0F06C0809198
:1039C00063008695817080936C0F80916C0F80935B
:1039D000D901882309F464C08091980585FD60C0F1
:1039E000CF7EC09365008091720D8F71823009F097
:1039F00054C08091DB059091DC05AC01F4E0440FEC
:103A0000551FFA95E1F797FD0796BC01E3E0759520
:103A10006795EA95E1F720917C05332727FD3095DE
:103A20002A5F3F4F629FC001639F900D729F900D70
:103A30001124840F951F2091920526FD05C06091E9
:103A400000017091010102C060EF70E00E94118BD3
:103A500080913E01680F711D6F5F7F4F759567956F
:103A600060933E018091C605805F8093C6058111F9
:103A700014C080917B05681780F4623370F06EE2A9
:103A800081E10E941D808091920583FF06C082E340
:103A900090E090933C0180933B0110923A0104C066
:103AA000C0619FCF80E0A3CDDF91CF911F910F9197
:103AB000FF90EF90DF90CF900895CF93DF93C62FC4
:103AC0002091DA01222339F09093DC018093DB010D
:103AD000DF91CF91089560E00E944C14C11103C0A2
:103AE00080917A0501C089E10E94A97467E182E1B1
:103AF0000E941D800E94F513D1E00E9461868823F8
:103B000021F0DF91CF910C94F5138091AF0D8330AC
:103B100019F4A8951092AF0D40E060E080917D050A
:103B20000E94121A811106C080919405811102C071
:103B3000CC2329F0D093630E0E94241ADECF10927A
:103B4000630EFACF90914B01911103C0811106C011
:103B50000CC0811103C08FEF890F01C080E08093FA
:103B60004B018EEB80934A01089560E08DE892E06E
:103B70000C945D1DE0914B01E43028F060E080E89A
:103B800092E00C945D1D2FEB20934A01EF5FE093D0
:103B90004B01F0E0EE0FFF1FE45BFE4F918380834B
:103BA00008951F93CF93DF93CAEAD4E090E0888111
:103BB00011E0190F882341F040E060E00E94121AE2
:103BC000882311F0812F05C0912F2A96143079F7A0
:103BD00080E0DF91CF911F910895AF92BF92CF9275
:103BE000DF92EF92FF920F931F93CF93DF93109288
:103BF0008B0880912801C2B7909128018913F9CFD1
:103C0000D0E0D82B809159048F7160E1F62EF81A1C
:103C10000E946F161EE517B90E94D6150E946D1AF4
:103C200017B9369A3699FECF84B195B10496409172
:103C300000015091010167E0649F9001659F300D84
:103C40001124820F931F53E0969587955A95E1F7BB
:103C500090930101809300018091AF0D833019F49E
:103C6000A8951092AF0D2091280182B7909128015C
:103C70002913F9CF90E0922B8C1B9D0B2091100102
:103C8000309111012817390720F490931101809386
:103C9000100180910D01882309F4BEC18091C205F5
:103CA0009091C30501969093C3058093C205CF2CD4
:103CB000F7E1FC1508F47EC00C2D10E0E801CC0FF4
:103CC000DD1FC65ADB4F8FE08C1528F4E801CC0FBE
:103CD000DD1FC254DB4F8881D82ED294D69427E0C2
:103CE000D222E98095E09D1550F0EAEFEE1538F408
:103CF000EE2DF0E0EE0FFF1FEC55FD4FE0808F71D1
:103D000009F456C040E060E00E94121AB82E80917B
:103D10000D010F531E4F823009F448C08D2D857060
:103D200051F4F8018081811106C0BB2021F08E2D55
:103D300090E00E942D158FEF8D0D823058F4F80120
:103D40008081813099F5B11031C0F2E0DF122AC0D4
:103D5000E39428C085E08D1550F4F801808181112D
:103D600025C0BB2019F189810E9499241FC0F2E06F
:103D7000FD15E0F4BB20D1F084E0D81631F095E0D9
:103D8000D91631F066E970E005C06CE271E002C05E
:103D900068E572E08091C2059091C3050E94118B85
:103DA000892B21F48E2D90E00E942D15F801B08210
:103DB000C3947ECFD3E3CD2ED4E0DD2E08E511E011
:103DC000F601E2808E2D8F700E94EA118330E1F5BA
:103DD000F801C081D181209771F4F601C081C7FD3F
:103DE00006C0C095FAE0CF02E001112419C0DD271A
:103DF000C7FDD09515C0D7FF12C0219689F4F601F2
:103E0000C181C7FD06C0CF5FFAE0CF02E0011124F7
:103E100006C0DD27C7FDD095C095D09501C021977C
:103E20008E2D807F71F08E2D82958F7089300CF0F1
:103E30008F5F40E060E00E94121A811102C0CFEF54
:103E4000DFEFF801D183C083F3E0CF0ED11C0E5F0A
:103E50001F4F81E00037180709F0B2CFC0E7CC2E22
:103E6000C1E0DC2E00E010E0F801E352FE4F5F01FC
:103E7000ED5EFC4F80810E94EA11833009F04AC058
:103E8000F601C081D181209781F4F501EF5EFC4FEE
:103E9000C081C7FD06C0C095FAE0CF02E001112441
:103EA0001BC0DD27C7FDD09517C0D7FF14C02196D2
:103EB00099F4F501EE5EFC4FC081C7FD06C0CF5FEF
:103EC0008AE0C802E001112406C0DD27C7FDD095B5
:103ED000C095D09501C02197F501EC5EFC4F808123
:103EE0008823A9F089300CF08F5F883F0CF4815053
:103EF000863124F48B3E1CF487EF01C089E040E05A
:103F000060E00E94121A811102C0CFEFDFEFF601CC
:103F1000D183C0830C5F1F4FF2E0CF0ED11C08315C
:103F2000110509F0A1CF10920D018091CA048823D8
:103F300009F472C040E060E08091CB040E94121A44
:103F4000882309F469C08091C105882319F0815044
:103F50008093C1058091C10581115EC08091CA0422
:103F6000813081F487E20E94D617EC016091CC0485
:103F70006695669570E062307105D4F00E94258BDD
:103F8000EB0116C081E00E94D617805891099C0170
:103F90002E5F3F4F2530310510F480E090E02091F6
:103FA000CC0426952695289FE001299FD00D112449
:103FB0002097E9F0D7FF0AC0D195C195D10980912A
:103FC000CC0480FD09C046E462E202C046E461E23E
:103FD0008DE791E00E94017FCB34D105A4F0CD376D
:103FE000D1059CF0CF3AD10594F484E013C08091C0
:103FF000CC0480FD0EC046E461E28DE791E00E94B2
:10400000017F84E107C088E005C086E003C082E04C
:1040100001C080E08093C10580910B01882309F4E1
:10402000FEC080913B0F882309F44FC08091E901C5
:10403000807CD9F0803819F4C0E9D1E002C0CAE729
:10404000D0E00E94E1176AE070E00E94258BCB016E
:104050002091E90123FD03C025FD0E940C23C81710
:10406000D9071CF481E00E94178000E01CED90E06D
:10407000C0E0D0E08091740E0817B0F4E02FF0E0BB
:10408000EB58F14F8081C80FD11D811708F4182F0C
:10409000911107C020915704821720F48DE10E94EE
:1040A000178091E00F5FE6CFCE0165E070E00E94DF
:1040B000118B7093F00E6093EF0E1C3D31F0812F49
:1040C00090E09093EC0E8093EB0E80913C0F882350
:1040D00029F180910605882309F120918304222388
:1040E000E9F08091ED0E9091EE0EB6E095958795F2
:1040F000BA95E1F730E08217930784F080919B0531
:1041000081FF05C081E390E00E942D1507C046E4C1
:10411000609184048DE791E00E94017F2091C005A9
:104120002F5E822F8F7090E00C970CF0207F2093F1
:10413000C005CDEDD1E0D12C822F8073C82E922FF7
:104140009F70B92EE22FE07FAE2E2077E22EDF1493
:1041500009F45CC08E0103581D4FF8018081982F2F
:10416000907C9034D9F4C11019C0880F880F40E0BA
:1041700060E0859585950E94121A882379F08091D8
:104180009B0580FF05C0FE01E258FD4F608101C024
:1041900061E046E48DE791E00E94017FF8018081B3
:1041A000982F907C903879F5880F880F85958595A4
:1041B0008D31CCF0992787FD90954D9781309105F1
:1041C00029F0029731F0E1101EC006C0B1101BC0EB
:1041D00003C0F0E2AF1217C0FE01E258FD4F80812C
:1041E0000E94992410C0C1100EC040E060E00E94FF
:1041F000121A882341F0FE01E258FD4F8081805859
:1042000090E00E942D15D3942296A1CF10920B011D
:1042100080915601882319F0815080935601DF91D7
:10422000CF911F910F91FF90EF90DF90CF90BF90B3
:10423000AF9008950F931F93CF93DF93F8948091DD
:10424000730D9091740D78942091CA053091CB052F
:10425000AC01421B530B4B30510520F01092DD0591
:1042600001E001C000E09093CB058093CA05D8E03F
:1042700010E8CD2F40E060E08D2F0E94121A00233D
:1042800041F08823E1F08091DD05812B8093DD05ED
:1042900016C0811102C090E001C0912F2091DD0570
:1042A0009227912361F012271093DD05811102C03E
:1042B000CD2FC19586E08C0F833038F004C0169561
:1042C000D150B9F602C0C1110BC060E089E00E9474
:1042D0003A18811102C0C0E001C0C9E00111C0E07C
:1042E0008C2FDF91CF911F910F910895AF92BF92C4
:1042F000CF92DF92EF92FF920F931F93CF93DF93B2
:104300008C017B016A01A22EB090B5019B2D9F7D8F
:10431000943439F080915708882309F48FC093347E
:1043200039F4E801219683E10E94178085E00BC0F3
:10433000953419F0923409F084C0E801219784E1A2
:104340000E94178084E00E94E57581116CC0E11421
:10435000F10401F581E0C816D104E1F480E6B81655
:1043600019F08EE2B81212C010925708C1E0011580
:10437000110509F0C0E0D0E08B2D0E9441768EE25D
:10438000B81207C081E080938C0803C0C170DD279C
:1043900001C0B12CA3FE08C00E941A21882321F07D
:1043A000C82FDD27C7FDD0954091410150914201B2
:1043B000C41BD50B80918C08833031F48091BE01F1
:1043C000C80FD11D87FDDA95CC16DD0644F48B2D80
:1043D0000E94417683E10E941780E6010AC0CE1553
:1043E000DF053CF48B2D0E94417684E10E9417800A
:1043F000E701C017D107A1F0209751F48B2D0E943F
:10440000317617FF02C083E101C084E10E9417806A
:104410008A2D83700E94556A81E08093490113C000
:104420001092490110C0CC27DD27C01BD10B85E0BD
:104430000E94417684E00E94417689CF953409F448
:104440007CCFE80184CFCE01DF91CF911F910F91F6
:10445000FF90EF90DF90CF90BF90AF9008955527D9
:1044600047FD5095772767FD7095992787FD9095B3
:104470000E947621089522E00C942F22462F22E0FC
:1044800060E00C942F2221E00C942F22462F21E093
:1044900060E00C942F22462F50E022E060E070E0B4
:1044A0000C947621282F30E0883058F028503109BC
:1044B00049E0429FC001439F900D112485519C4FBC
:1044C000089545E0429FC001439F900D11248D53F4
:1044D0009C4F0895CF93DF93D82F9091AD0DC92FA6
:1044E000C17090FF03C065E870E102C063E770E14E
:1044F00088E10E948571D13629F41092AD0D80E0DB
:104500000E94A21DC11109C04091A90E5091AA0E8E
:1045100024E060E388E40E94E1738091F608815012
:104520008093F608811105C081E0DF91CF910C9452
:104530001780DF91CF910895813649F40E9441762A
:1045400081E00E94A21D81EB93E50E94BA1D65E403
:1045500071E180E10E9485716FE271E180E20C946B
:1045600085711F93CF93DF93182FD62FC42FB901D6
:104570000E948571DD2329F06FE08C2F0E943E227E
:10458000C82F8091EE014C2F83FF02C0440FD062F0
:1045900050E02D2F612F80E60E94E1738C2FDF9178
:1045A000CF911F910895FF920F931F93CF93DF93A5
:1045B000182FF62E0AE08AE0189FE0011124C95056
:1045C000DE4F2FE130E0211B3109029FA001039F44
:1045D000500D1124BE01CE010A960E94938BFF203C
:1045E00049F0BE016A5071094AE050E0CE010E94D4
:1045F000938B0AC0FE0111920A95E9F78091060992
:104600008883898384E68A8310930809DF91CF9198
:104610001F910F91FF9008959C01220F331F280FC7
:10462000391F9595879595958795280F391F9595ED
:1046300087959595879595958795820F931F0895F2
:10464000429643E7489F9001499F300D1124C901CC
:10465000E6E095958795EA95E1F70895CF92DF9288
:10466000EF92FF920F931F93CF93DF937B018A0109
:1046700090918B08963008F061C09F5F90938B08F3
:104680009BE0899FE0011124C05EDA4F8881882376
:1046900049F081500E94BD139C01442737FD40958D
:1046A000542F03C020E030E0A901DE80ED2DE8703A
:1046B000CE2ED3FC0AC089819A81AA2797FDA095A6
:1046C000BA2F280F391F4A1F5B1FAB81B0E011962C
:1046D0000E94DF8A2C8130E02F5F3F4F442737FD57
:1046E0004095542F0E945B8BCC2051F089819A8198
:1046F000AA2797FDA095BA2F280F391F4A1F5B1FC5
:10470000D0FE07C050954095309521953F4F4F4FB3
:104710005F4FE114F10419F08D81F70180830115D9
:10472000110529F08E8186958370F8018083809130
:104730008B08815080938B08C90102C080E090E013
:10474000DF91CF911F910F91FF90EF90DF90CF906D
:104750000895E82FF0E0EA52F94EE491EE2369F073
:10476000E13021F480913C0F811107C081E09091EC
:104770003B0F911103C080E0089581E00895E82F78
:10478000FF27E7FDF095ED5FF74EE491262F3327E5
:1047900027FD3095C90183589F4FEC3009F44AC07A
:1047A0009CF4E43021F14CF4E53F09F454C00CF4DE
:1047B0005CC0EE5FE230C8F00895E630C1F00CF462
:1047C00054C0EA30FCF50895E43209F43FC044F4E3
:1047D000EE300CF44AC0E031CCF1E332C9F1089577
:1047E000E732B4F1E732E9F108952AE024C08034D9
:1047F00091059CF0880F991F80549109813C910587
:1048000064F0880F991F805C9109813C51E0950705
:1048100024F0880F991F885E91402AE0AC01249F04
:10482000C001259F900D11242091E90125FF1DC095
:104830000C940C2324E6AC01249FC001259F900D0D
:1048400011240895C901815A9F4F089522E3F3CF9F
:10485000880F991F0895F3E0880F991FFA95E1F7E3
:1048600008955AE06502C00111240895CF93DF93A3
:10487000E82FFF27E7FDF095ED5FF74E8491853F28
:10488000C9F486E20E94D617EC0180E20E94D61796
:10489000D595C7959C0135952795C29FC001C39FAB
:1048A000900DD29F900D112469E170E00E94258B3C
:1048B000CB013CC0863F4CF440E050E060E070E04B
:1048C000815FDF91CF910C942E238D3F54F4E82F1C
:1048D000EE0FFF0BE855FB4F8081992787FD9095E0
:1048E00025C08F3F09F044F48E3F84F48D3FD1F40E
:1048F00080913E0190E01AC0843081F0833291F4BF
:1049000083E20E94D617880F991F10C0E82FEE0F80
:10491000FF0BEF56F74F8389948908C0DF91CF9141
:104920000C94E117DF91CF910C94D617DF91CF91C2
:104930000895CF92DF92EF92FF920F931F93CF9340
:10494000DF9300D01F92CDB7DEB7082F1B821A82EB
:1049500019820E9436247C01802F0E94A923811194
:1049600005C08AE30E94481511E001C010E0E02F65
:10497000FF27E7FDF095ED5FF74E8491482F55270F
:1049800047FD5095652F752FFA013F96E733F105E6
:1049900008F090C0EE59FF4F0C947A8BAE014E5F39
:1049A0005F4FBE016D5F7F4F815F0E942E237C01B0
:1049B000EB81F0E0EF5CF84EE491EB837BC084E2A6
:1049C0008B835CC084E28B8382E08A8373C06CE358
:1049D00070E0C7010E94258B6B017C0146E260E01C
:1049E000C6010E94268085E35BC0E82FEE0FFF0B17
:1049F000E855FB4FE080FF24E7FCF0945BC094E0B7
:104A00008902F0011124E658FB4F038102950695B7
:104A100006950370D08041E0023009F040E09E012D
:104A20002F5F3F4F682FC7010E94F4127C0184E280
:104A30008B8381E08A83033029F1013019F41B82D2
:104A40001A8238C083E68D15A8F1BECF88E38B8328
:104A50009091E901892F807293FF03C0882349F068
:104A600006C0882331F0C7010E940C237C0188E135
:104A70008B8398EEE91693E0F906B4F481E0A5CFB4
:104A800081E08A8383E30CC08FE28B838091E9010C
:104A900085FF10C0C7010E9420237C010BC08BE35F
:104AA0008B8308C081E08A83C7016AE070E00E94BE
:104AB000258B7B01111105C04B816A81C7010E94C2
:104AC00026800F900F900F90DF91CF911F910F9143
:104AD000FF90EF90DF90CF9008956F927F928F922A
:104AE0009F92AF92BF92CF92DF92EF92FF920F937D
:104AF0001F93CF93DF9300D0CDB7DEB7F82E962E5D
:104B00006901102F8E2C80E28A83A42EBB24A7FC7F
:104B1000B0948E2D8170E82E80FE26C0F501ED5FE9
:104B2000F74EE491E15FE43008F00FC18BE0E89FBD
:104B3000F0011124DF01A95DBA4F8C91882309F49B
:104B400004C1AD0100E124E08F2D0E942C7112FD03
:104B500004C0E8E17E2E7F0C08C07CE1772E7F0C3C
:104B600088EF980E0CE002C07F2C06E0882D88703C
:104B7000682E83FC1F7BF501ED5FF74EA49084E067
:104B8000A81609F495C08A15DCF08DEFA81609F473
:104B9000A7C08A1564F081EFA8160CF4ABC084EFAF
:104BA0008A1594F585EFA812A5C087E79BC08FEF03
:104BB0008A150CF045C081E08A150CF058C09AC0E7
:104BC00080E2A81609F489C08A156CF086E0A81660
:104BD00009F46EC0A8160CF48DC0E6EFEA0DE230C1
:104BE00008F458C087C086E28A154CF085E2A81602
:104BF0000CF076C083E2A8127DC0106372C087E219
:104C0000A81278C0106270C0AE014F5F5F4FBE0146
:104C10006E5F7F4F8FE08A0D0E942E232981213005
:104C200011F4106203C0223009F41063EA81F0E04D
:104C3000E75DF84EE491EA8387FCC6016C015AC037
:104C400012FD02C08CEF780EEE2011F08AE0780E93
:104C50001770012F212FA601692D8AEF870D0E9461
:104C60008773E3E3EA0DEA838AEFF80E4CC0912FD5
:104C700090684C2D662019F08DE38F0D02C0872DB2
:104C8000801BEE24E394092F2A2D692D0E943C13EA
:104C90008A8339C083E48A838091E90185FF2AC031
:104CA000C6010E9420236C0186E48A83701A22C008
:104CB0008DE68A838091E90185FF08C083FD04C0E9
:104CC000C6010E940C236C0186E68A8388EEC81612
:104CD00083E0D8064CF410620DC0106281E402C07B
:104CE000106286E78A8306C0C6016AE070E00E940F
:104CF000258B6B01662099F18DE38F0D212FA60185
:104D0000692D0E94E173882D867069F082FE04C0CF
:104D10008AE08F0D1B7F02C08091710D212F4A8187
:104D2000692D0E949E708A810F900F90DF91CF9124
:104D30001F910F91FF90EF90DF90CF90BF90AF90B9
:104D40009F908F907F906F90089521E0240F00E056
:104D50004CE258E1692D8F2D0E945171F8CE872DBC
:104D6000CDCF0F931F93CF93DF93C82FD62F042F50
:104D7000122F4CE156E10E94657140E3400F212F54
:104D80006D2F8CE08C0FDF91CF911F910F910C94C0
:104D90009E70DF92EF92FF920F931F93CF93DF935A
:104DA000182FF62EC42FD22EDE2DD370A1F08091B5
:104DB000B501803881F48DE7840F8B3F40F0E42FFC
:104DC000F0E0EE0FFF1FE856FC4FC08101C0CEE7B8
:104DD00082E00E94556A8DE78C0F2E2D8B3FA0F04C
:104DE00043E84C0F6F2D8EEE810F0E94B126DD231C
:104DF00009F122E042E850E06EE770E08C2F90E08D
:104E00000E947621C82F16C04C2F552747FD50957C
:104E10006F2D812F0E94E173DD2361F0402F6D2DF6
:104E20008C2FDF91CF911F910F91FF90EF90DF902A
:104E30000C943B228C2FDF91CF911F910F91FF900B
:104E4000EF90DF900895CF93DF939EE0899FE0017C
:104E50001124C957DC4F40E060E08C850E94121A93
:104E6000882349F040E060E08D850E94121A81118C
:104E700004C081E003C080E001C082E0DF91CF91F7
:104E80000895EF92FF920F931F93CF93DF93F82E25
:104E9000E62EC42FD42FD695062F0D1B182F1D1BC1
:104EA000602F812F0E9430726D2F6E0D4C2F812F3D
:104EB0000E942D724C2F602F8D2F8F0D0E9430720B
:104EC0004C2F602F812FDF91CF911F910F91FF9079
:104ED000EF900C942D7221E0AC0160E080E00C9426
:104EE00065710F931F93CF93DF93182FCDE8D8E010
:104EF00084E89AE00E946B27113678F0133628F088
:104F0000133659F488E298E202C089E69AE4DF9108
:104F1000CF911F910F910C9419156BE77AE088E0FF
:104F20000E9485714A815B8100E020E068E08AE2AE
:104F30000E9487734C815D8120E068E08EE40E94CE
:104F4000877362E77AE080E10E9485714E815F811C
:104F500020E060E18AE20E94877348855985B4E0C9
:104F600056954795BA95E1F720E060E18EE40E94FE
:104F700087736DE67AE080E00E94857148815981EF
:104F800020E060E08EE40E9487734EE76CE382E0ED
:104F90000E942D7243E26CE185E00E943072CBE00A
:104FA00043E06BE38C2F0E943072CA5FC338C1F7B5
:104FB0001091AF078091AE07893710F4C0E001C0AF
:104FC000C12FD6E00CE3EC2FF0E0E055F84F408124
:104FD000602F641B8D2F0E943072CF5FC83708F09E
:104FE000C0E0C11719F0DF5FDE3769F7DF91CF91BD
:104FF0001F910F91089591E0211101C090E0442389
:1050000019F047E254E002C04BE254E0292F0C941F
:1050100065710F9301E0211101C000E0242F44E1EC
:1050200056E10E9451710F9108950F931F93CF93F2
:10503000DF93182FEA01022F0E948571202FAE0105
:10504000612F84E5DF91CF911F910F910C94E17353
:105050001F93CF93DF93182FCEE0D1E082ED9AE03B
:105060000E946B271136A1F058F41036C1F48FEF6F
:10507000888319821B821A8287E10E9417800FC0E1
:10508000123619F0133621F00AC081E797E202C008
:1050900089E69AE4DF91CF911F910C94191549810B
:1050A000469550E020E063EC7AE088E00E94152805
:1050B0004881469550E020E064EB7AE080E10E9470
:1050C0001528498150E08881481B510957FF02C0CB
:1050D0004F5F5F4F5595479520E065EA7AE088E19C
:1050E0000E9415288A819B8129E1289FA001299F80
:1050F000500D1124569547955695479520E36CE938
:105100007AE080E20E94152869E87AE088E3DF917E
:10511000CF911F910C9485717F928F929F92AF9245
:10512000BF92CF92DF92EF92FF920F931F93CF9394
:10513000DF93EC01162FD42E4901B0903008409136
:105140008108509182082091830830918408EFE310
:10515000F1E086819781841B950B97FDCF96A6E0A1
:1051600095958795AA95E1F7682F809354088085D7
:105170009185821B930B97FDCF9676E09595879549
:105180007A95E1F7982F80935208662311F05783A0
:105190004683992311F0318720878091530881112C
:1051A00004C08091920585FF06C0109254081092A9
:1051B00052081092530820915408211108C0809180
:1051C0005208811104C082819381892B61F0809102
:1051D00094053AEF839FC0011124880F991F909383
:1051E0003C0180933B0181149104B1F188818111CC
:1051F0009EC180918C08882309F4A4C1813009F4F0
:10520000B3C12111B8C1153609F4D8C1143609F457
:10521000DFC17724739480918C08811102C092E0E1
:10522000792E402F50E0272D60E08FE70E94E17338
:105230000A3008F485C10FE6272D4FE260E0802F89
:105240000E949E704D2D50E04F5F5F4F272D60E014
:105250008FEF800F0E94E173E114F10451F0988107
:105260008C2D9C1508F4892FF701E80FF11DE491AE
:1052700001C0E0E080918C08813081F58091BE0111
:1052800018166CF4BE1610F4B39411F588818A15C3
:1052900018F48F5F888301C01882B12C19C088234D
:1052A000B9F0B11014C08881882319F08150888327
:1052B00001C0A882E114F10459F098818C2D9C154D
:1052C00008F4892FF701E80FF11DB49001C0BA94DA
:1052D0001092BE011E3249F483E005C0833029F4E8
:1052E0001E3219F481E080938C08E114F10451F02E
:1052F00098818C2D9C1508F4892FF701E80FF11D7A
:10530000549101C050E080915708811145C08091AF
:105310005208882301F14881481B47FD40E08A2D4F
:1053200090E0242F332727FD3095281739070CF0FC
:105330004A2D4883E114F10459F0C41608F44C2DA9
:10534000F701E40FF11DE491EB1518F4BE2E01C036
:10535000B12C1092520828812223F1F08091540838
:105360008823D1F0B81AB7FCB12C8B2D992787FD73
:105370009095E114F10479F03C2D2C1508F4322FAE
:10538000F701E30FF11DE4912E2F30E08217930710
:105390001CF0BE2E01C0B12C103669F190F412340D
:1053A00009F473C028F41132A9F11E3221F197C01B
:1053B000143409F446C008F476C0153409F451C019
:1053C0008EC0153609F451C040F4133609F46EC08E
:1053D000D8F5123609F45CC082C01E38C1F01F3BFC
:1053E00031F0113809F07BC01092570821C01882A3
:1053F0001092570838C08881882309F470C081E072
:1054000090915708911180E08093570868C08EE80A
:105410000E94417680915708882319F0109257080E
:105420005EC08881882311F0892831F410928C089D
:1054300080E00E94A21D53C087E10E94178018825D
:105440004EC0B51609F44BC0EF2809F448C080914E
:105450005708811144C0B51610F4B39411C0B12C93
:105460000FC0B11002C0B12C3AC0EF28C1F1809139
:105470005708811134C0BB2011F0BA9401C0B52E79
:10548000552369F11092B5012AC088818A1539F136
:1054900080915708811123C088818A1510F48F5F8D
:1054A0000DC018820EC088818823C9F080915708EA
:1054B000811115C08881882319F08150888301C02B
:1054C000A882E114F10479F288818C1508F4C82EC1
:1054D000F701EC0DF11DE490EB1408F4BE2C2091C3
:1054E000570821110AC031E0809141019091420199
:1054F000892B09F430E0832F01C081E080935608A6
:10550000B0923008222311F082E001C081E0809344
:105510005108DF91CF911F910F91FF90EF90DF9095
:10552000CF90BF90AF909F908F907F900895809183
:105530005708811103C081E080938C08712C6BCED9
:1055400005E77ACE8091BE01181624F0882319F061
:1055500015E601C014E61092BE011E3209F051CECC
:1055600081E080938C0805C01E3209F04ACE10926B
:105570008C0810E046CE80915708811144CEED2D65
:10558000E21BE7FDE0E0202F30E08E2F992787FD1A
:1055900090958217930714F0EFEFE00FFF27E7FDD8
:1055A000F0958D2D90E0E817F90729F0EE0FFF1F19
:1055B000E80DF91D1EC01092540825CED11001C06F
:1055C000D02EF401ED0DF11DED0DF11D329711C03E
:1055D0002D2D30E0802F90E00197281739071CF41B
:1055E00011E01D0D01C010E0810E911C810E911C77
:1055F000F40185919491DF91CF911F910F91FF90CC
:10560000EF90DF90CF90BF90AF909F908F907F9062
:105610000C941915AF92CF92EF92FF920F93AE2C8C
:10562000C12CE12CF12C0E948C280F91FF90EF905F
:10563000CF90AF900895CF92DF92EF92FF920F93A9
:105640001F93CF93DF93C82F88E79DE00E946B27BD
:10565000EE24E39406E025E636E144E06C2F8DEE7F
:1056600098E00E940A2B1091ED0810925701D0E0AB
:10567000C0E0C12C04E0D02EE12CF12C41E46D2FD0
:1056800088E10E94297141E34C0F6D2F8EE10E9449
:1056900029718C2F0E942716AC016D2F8AE20E947F
:1056A0008E71C43028F48C2F0E94DD11815003C00C
:1056B000C730B9F08C2FE82FF0E0EE0FFF1FE7584E
:1056C000F74FA081B18124E630E00E94CD8AA70186
:1056D00096010E945B8BA9016D2F8AE50E940B74D5
:1056E0000BC0113021F440915108406201C040E2EA
:1056F0006D2F8AE50E940674CF5FD85FC83009F02D
:10570000BDCF64E77DE088E20E9485714091000191
:105710005091010160E388E70E940B74113071F42D
:105720001093530880915708882341F04FE761E8B0
:1057300080917C050E94432280937C05DF91CF916C
:105740001F910F91FF90EF90DF90CF900895EF920F
:105750000F93CF93C82F8FE39DE00E946B27E12C1E
:1057600006E025E636E142E06C2F8BEE98E00E94E1
:105770000A2B68EB78E080E10E94857166EE78E0A4
:1057800088E10E94857165ED78E080E20E94857174
:1057900066EC78E088E20E94857164EA78E080E354
:1057A000CF910F91EF900C9485712F923F924F9271
:1057B0005F926F927F928F929F92AF92BF92CF92A1
:1057C000DF92EF92FF920F931F93CF93DF9300D05E
:1057D00000D000D0CDB7DEB7D82E88ED95E10E947D
:1057E0006B2767E0A62E76E0C72EE1EDEE2EE5E111
:1057F000FE2E0DE021E736E149E06D2D80E099E0D5
:105800000E948C2870900009109130088EED8D0D4B
:10581000843028F48091570881110E945586209188
:1058200051082A836BEC75E188E00E9485718091B4
:10583000E90183FB882780F931E0731212C011114E
:1058400010C061E00E943E22982F91702091E901E2
:1058500090FB23F92093E901913029F410928804F8
:1058600002C000E001C001E0282F4FEB55E168E0E5
:1058700084E20E9451718091880491E079120EC0F7
:10588000113061F461E00E943E228093880490917F
:10589000E90193FF05C01092880402C000E001C036
:1058A00001E0282F43EB55E168E088E40E94517144
:1058B0008091E90185FB882780F9E1E07E120DC027
:1058C000123059F461E00E943E229091E90180FB80
:1058D00095F99093E90101E001C000E0282F4BEA1F
:1058E00055E168E08CE60E9451712AE734E03E837E
:1058F0002D8333E2832E3FE0932E31E3398342E060
:10590000642E50E1F52E8A8180688C8360EA75E10F
:105910008F2D0E948571998191539B8349816F2DB1
:1059200086E00E942971761004C0111102C00C811A
:1059300001C000E8E12C2B81ED81FE8140816F2DBB
:1059400080E60E943C13EE24E39400E82B81F401EE
:1059500040816F2D8EE70E943C13761002C01130FB
:1059600011F000E001C00A81ED81FE8123812295C2
:105970002695269523704AE955E16F2D80E60E9411
:105980005171761027C080915608882319F1112390
:10599000B9F01130F9F4ED81FE81838163E08295E5
:1059A0008695869583700E943E228295880F880F87
:1059B000807CED81FE8193819F73982B93830AC035
:1059C000ED81FE8180816FEF90E00E944B22ED819E
:1059D000FE81808344244394460C28E0522E5F0CC1
:1059E000AD80BE80C12CD12CED81FE818381982FAA
:1059F0009F70492F50E09601220F331F02C055952A
:105A000047952A95E2F7F42FF3702F2E8295837035
:105A100090E00C2C02C0959587950A94E2F7282F08
:105A20002170322E741411F0E12C01C0EA8020E0C4
:105A300045E955E1652D84E00E946571112311F05F
:105A400000E001C00E2D222D41EA57E1652D84E2D0
:105A50000E945171113011F000E001C00E2D232D74
:105A600041E955E1652D82E40E945171123019F42B
:105A70000E2D006801C000E83FEFA31AB30AEE2420
:105A8000E3942B81ED81FE81EC0DFD1D4181652D9F
:105A900080E60E943C13741052C0809156088823FF
:105AA00009F44DC0113049F160F0123009F047C0DF
:105AB000F50180816FEF90E00E944B22F501808319
:105AC0003EC063E0822D0E943E22ED81FE81238153
:105AD000C114D10439F0F4E08F9FC0011124922F3A
