:100000000C94B6120C94E0120C94E0120C94E012D2
:100010000C94E0120C94E0120C94E0120C94E01298
:100020000C94E0120C94E0120C94B4170C9491818F
:100030000C946C840C94C4810C94E0120C941918E8
:100040000C94A2170C94E0120C945B8B0C94868990
:100050000C94E0120C94E0120C94E0120C94E01258
:100060000C94E8840C9464180C942D820C942D85C7
:100070000C94E0120C94E0120C94E0120C94E01238
:100080000C94E0120C94E0120C94E012161A1B1A55
:10009000E019E619EC19EC19EC190C1A111A161AD8
:1000A0001B1A201A251A2B1A0E1B131BD41ADA1A24
:1000B000E01AE01AE01A041B091B0E1B131B181B85
:1000C0001D1B231BA34A634A6E4A7D4A834A874A03
:1000D0008C4A6156645667566A566D56705673560A
:1000E000765679567C567F568256855688568B565C
:1000F0008E569156945697569A569D56A056A3568C
:10010000A656F25B0D5C5A5C735C7E5C885C9C5C02
:10011000BE5CE25CB760C360D560EE60FE600F61FC
:1001200022614C6179618B61CE61FB611D622D6240
:100130003D624D627D62C560D760F0600061116113
:1001400024614E617B618D61D061FD611F622F6210
:100150003F624F624B7D527D307D3D7D407D447DD1
:10016000337D487D547D6286648667866C867F8693
:100170009086A086AB86BD86CF86D486ED86F08637
:10018000F486F686F886FD8601870D871187198724
:100190002087248726872A872C872E8730873487D5
:1001A00038873D87428747874C87518705A84CCDC4
:1001B000B2D44EB93836A9020C50B9918688083CA1
:1001C000A6AAAA2ABE000000803F204F6C642056D9
:1001D000657273696F6E20454550524F4D20202047
:1001E000434845434B2053455454494E47532F43AE
:1001F000414C494200416C61726D732044697361E6
:10020000626C656400537769746368205761726E2D
:10021000696E6700506C6561736520526573657423
:10022000205377697463686573005468726F7474DF
:100230006C65206E6F742069646C6500526573652F
:1002400074207468726F74746C6500454550524F29
:100250004D206C6F77206D656D004C4F4144494EC9
:1002600047006D537461636B206F666C6F77006D30
:10027000537461636B2075666C6F77004D45535303
:1002800041474500707265737320616E79204B653C
:100290007900507265737320616E79206B657920E7
:1002A000746F20736B697000032D2D2D783E3078AC
:1002B0003C307C787C663E30663C307C667C6331CA
:1002C000206332206333206334206335206336207B
:1002D0006337206338206339206331306331316301
:1002E0003132633133633134633135633136000386
:1002F0004F4646414253525573525525454C73451E
:100300004C25544873544825414C73414C25503179
:100310002050312550322050322550332050332583
:10032000002D2D2D004348002D2D2D20000450318F
:100330002020503220205033202048414C46465542
:100340004C4C435943314359433243594333505042
:100350004D3150504D3250504D3350504D3450501F
:100360004D3550504D3650504D3750504D38434814
:100370003120434832204348332043483420434807
:1003800035204348362043483720434838204348E7
:1003900039204348313043483131434831324348B2
:1003A0003133434831344348313543483136335093
:1003B0004F53475631204756322047563320475631
:1003C0003420475635204756362047563720544864
:1003D0004953002D2D2D2D00000064281007030126
:1003E0000452554420454C45205448522041494C24
:1003F000200020414C45525400000102030002013C
:100400000303010200030201004F4E20004F464645
:100410000003544852525544454C454944304944E0
:100420003149443241494C47454154524E5357316A
:100430005357325357335357345357355357365313
:1004400057375357385357395357415357425357D8
:1004500043535744535745535746535747535748A9
:10046000535749001B1E272D36394B4E636C72784B
:10047000878D939CB1B4C6C9D2D8E1E453706C6146
:1004800073680080400000000000000000000000D1
:10049000000000000000000000000000000000005C
:1004A000000000000000000000000000000000004C
:1004B000000000000000000000000000000000003C
:1004C000000000000000000000000000000000002C
:1004D00080C0E0E0F0F8F8FCFCFCF8F8F8F0400030
:1004E000000000008080800000000000000000008C
:1004F0000000000000000000000080C0C0E0E0E05C
:10050000F0F0F0E0C00000000000C0F8FFFF9F879F
:1005100083838383838383838383838383838383AB
:10052000838383838383038380838383838383831E
:10053000838383838383838383838383838383838B
:10054000C3E3733F1F0000000080E0F0F8FCFEFFF3
:10055000FFFFFF7F3F1F1F0F0783C3E1E1E0E0C004
:10056000000E1F3F7F7FFFF3E0E0800000000000EF
:10057000000000000080F0FCFEFFFFFFFF7F3F0F48
:100580000301010100000080F0FEFFFFC7C1C1C1EF
:10059000C1C1C1C1C1C1C1C1C1C1C1C1C1C1C1C14B
:1005A000C1C1C101C1F0FEFF3F0F070F0D0D0D1DB1
:1005B000191919193131313171616161E1C1C1C15B
:1005C0008100000080E0F8FCFFFFFFFF2F170F0302
:1005D0008180C0E0F0F8FCFEFFFFFFFFFFFF7F011E
:1005E0000000000000000001010307070E1E1C3878
:1005F00070E0F0F8FEFFFF7F1F0F03000100000016
:1006000000000000000000000000000000000000EA
:1006100000000000000000000000000000000000DA
:1006200000000000000000000000000000000000CA
:1006300000000000000000000000000000000000BA
:100640000000007EFFFFFFFFFFFFFBF8FCFCFEFF4A
:100650007F3F1F0F07C3FFFFFFFFFFFF7F07000064
:10066000000000000000000000000000C0E0F8FEF4
:10067000FFFF7F1F0F1F3D7CF8F8F0E080000000B7
:10068000000000000000000000000000000000006A
:10069000000000000000000000000000000000005A
:1006A000000000000000000000000000000000004A
:1006B000000000000000000000000000000000003A
:1006C0000000000000010101010103070707030109
:1006D000000000E0FCFFFFFFFFFF1F030000000021
:1006E00000000000000000C0F078DE2713090E07AC
:1006F00003000000000000000001030F7FFFFC78F2
:1007000078F80000000000000000000000808080F9
:1007100080808080808000808000808000000000D9
:100720000000008080808080808080808080808049
:100730008080808080000000000000000000000039
:1007400000000000000000000000000000000000A9
:1007500080F0FEFFFFFFFF3F0F01000000000000E0
:100760000000C0E0381E0F03000100000000000080
:100770000000000000000000000000000000000079
:10078000030301000000000000000000000E0E0244
:10079000020202020303000F0F000F0F08080808EF
:1007A0000808080F0F08080808080F0F00000000CD
:1007B0000F0F00000000000000000000000000001B
:1007C0000000000000000000000000000000C0F871
:1007D000BFFFFFFF1F7F010000000000000000F0CE
:1007E000FCFF7F78300000000000000000000000E7
:1007F00000000000000000000000000000000000F9
:1008000000000000000000000000000000000000E8
:1008100000000000000000000000000000000000D8
:1008200000000000000000000000000000000000C8
:1008300000000000000000000000000000000000B8
:10084000000000000000000000000000301C070E47
:100850000F07010000000000000000000000000081
:100860000000000000000000000000000000000088
:100870000000000000000000000000000000000078
:10088000000000000000204D4F443A204652534BD8
:10089000592020203132382020002053564E3A2053
:1008A000312E312E3131370054494D453A20313007
:1008B0003A32313A303100444154453A2033302EF7
:1008C00030342E3230313500564552533A205631AD
:1008D0002E3131372D34726566306E74002020461B
:1008E000656E6365206175746F64697361626C65C0
:1008F0006420002D2D2D2D2D204C6F73742047501A
:1009000053202D2D2D2D2D2D002D2D2D2D204C6FD7
:10091000772042617474657279202D2D2D2D00454C
:1009200053432043616C3A50617373546872546F3F
:1009300045534373004553432043616C3A526573FA
:100940007461727420426F61726400446973616201
:100950006C652066656E6365206661696C65642000
:10096000005665726966793A20496E766C6964430F
:100970006F6E64434D44005665726966793A20494A
:100980006E76616C69644E6176434D4400454B461A
:100990003A20436F6D706173732056617269616EA6
:1009A0006365002020202020205472696D2073612F
:1009B00076656420202020200020204175746F542B
:1009C000756E653A2053746F707065642020002046
:1009D000204175746F54756E653A2053746172745A
:1009E00065642020004572726F72205365747469CB
:1009F0006E6752616C6C79506E7400506172616305
:100A0000687574653A2052656C6561736564212070
:100A10000020202043726173683A20446973617238
:100A20006D696E672020004D6F746F72546573742A
:100A30003A204E6F74206C616E646564004D6F7473
:100A40006F72546573743A5243204E6F7443616CF5
:100A500069620020202020436865636B20636F6D0E
:100A6000706173732020202000202020436F6D7060
:100A70006173732064697361626C65642020005047
:100A8000726541726D3A2042616420475053205094
:100A90006F7320200050726541726D3A20436F6D74
:100AA000706173734865616C74680050726541725F
:100AB0006D3A204261726F4261644865616C74688E
:100AC0000050726541726D3A205243206E6F74205F
:100AD00063616C696272002020202041524D494EB2
:100AE00047204D4F544F52532020202000637075F3
:100AF000004F50544943004750530041495253500E
:100B0000005052455353004D414700414343454C2B
:100B1000004759524F007468722500777000647462
:100B2000680067416C00616C740068646F700073EA
:100B30006174004E6F20475053002052544B2020C8
:100B40000020444750532000334420466978003247
:100B50004420466978004E6F20466978004E4F4425
:100B60004154410044495341524D0041524D454486
:100B7000004E4F44415441004E4F204D4156004ECF
:100B80004F20445256004D4F44453139004D4F449B
:100B9000453138004D4F44453137004D4F444531C4
:100BA00036004D4F44453135004D4F4445313400FA
:100BB000494E495400475549444544004C4F495417
:100BC00045520052544C004155544F004154756EEB
:100BD000650043525549534500464257420046423C
:100BE0005741004143524F00545241494E00535423
:100BF00041424C495A00434952434C45004D414EF5
:100C000055414C002020202020202020202000566C
:100C1000343D0756353D0E56363D0056313D07569C
:100C2000323D0E56333D00096D7068005370643DCF
:100C3000096B7473204D61783D00416C743D096D02
:100C40002020204D61783D004C6F6E3D004C61745A
:100C50003D12486467000A52504D004675656C00AD
:100C600022047C5E54546D000345787045784646F6
:100C70006E654D65644372730041323D0041313D04
:100C80000011544F54000153544B1153542500018B
:100C9000544D4511545357005354415400035B4D78
:100CA000454E555D20746F207265667265736800ED
:100CB000746D61696E0F6D7300746D7231204A69D5
:100CC000747465720F757300746D72314C617420A9
:100CD0006D696E0F757300746D72314C6174206DA7
:100CE00061780F7573005354415432004D6F646541
:100CF00000205245544100014368616E6E656C20CE
:100D00004F72646572004672736B79204D6F642078
:100D1000446F6E6500496E742E204672736B7920A5
:100D2000616C61726D0043726F73735472696D0010
:100D3000456E61626C652050504D53494D004261D3
:100D40006E6447617000537469636B5363726F6CB8
:100D50006C00506F745363726F6C6C00416C617205
:100D60006D205761726E696E67004D656D6F7279A7
:100D7000205761726E696E670044656661756C74B8
:100D8000205377005468726F74746C6520576172D9
:100D90006E696E670053706C617368204E616D659B
:100DA0000053706C6173682073637265656E004CEC
:100DB00069676874206F6E2053746B204D76004C09
:100DC00069676874206F66662061667465720042A8
:100DD00061636B6C6967687420696E766572740014
:100DE0004C696768742073776974636800466C6146
:100DF0007368206F6E2062656570004265657020C3
:100E0000636F756E74646F776E004D696E7574658F
:100E10002062656570005468726F74746C6520722E
:100E200065766572736500496E616374697669748D
:100E30007920616C61726D136D004261747465722A
:100E400079207761726E696E6700436F6E747261AC
:100E50007374002048617074696320537472656E06
:100E60006774680020537065616B65722050697407
:100E7000636800566F6C756D65000A426565706544
:100E80007220202020506953706B72202020204255
:100E900065657072566F696365506953706B566F04
:100EA0006963654D656761536F756E642000536FAC
:100EB000756E64204D6F6465000651756965742018
:100EC0004E6F4B6579207853686F727453686F72F8
:100ED00074204E6F726D20204C6F6E672020784C0E
:100EE0006F6E672000426565706572004F776E65B2
:100EF00072204E616D6500000900524144494F2047
:100F0000534554555000036D6F64650A2520737274
:100F100063202073770043616C004D756C746970B9
:100F20006C696572000363683163683263683363B8
:100F3000683400036F6666202B3D203A3D0007535E
:100F40006C61766500000303030300545241494E6F
:100F500045520056455253494F4E005472696D2D0B
:100F6000202B0005204D656E75204578697420445E
:100F70006F776E20202055705269676874204C6529
:100F8000667400444941470012424700414E410007
:100F9000034D4F564520535449434B532F504F5404
:100FA000530005534554204D4944504F494E540079
:100FB000035B4D454E555D20544F205354415254D0
:100FC0000043414C4942524154494F4E0009667218
:100FD0006565004D4F44454C53454C00434F4C20F4
:100FE000446972656374696F6E0041494C204469BD
:100FF00072656374696F6E00454C45204469726583
:101000006374696F6E0053776173682052696E670D
:1010100000436F6C6C65637469766500062D2D2D39
:101020002020203132302020203132305820203111
:101030003430202020393020202020005377617365
:10104000682054797065000048454C492053455448
:1010500055500001524554410020464D30004D4F3F
:101060004445530020464D0046616465204F757429
:10107000004661646520496E005472696D730053C7
:10108000776974636800000300464C204D4F444567
:1010900000015245544100032D2D2D503120503276
:1010A0002050332047563447563547563647563733
:1010B00000566F6C756D6520436F6E74726F6C00B7
:1010C0004175746F204C696D6974730054325468B3
:1010D0005472696700547261696E657200452E2012
:1010E0004C696D6974730003504F534E454700536C
:1010F000686966742053656C0050504D20317374DC
:10110000204368616E00204661696C73616665000A
:1011100003416D654A61704575720020436F756EBD
:1011200074727900034431364438204C5250002008
:101130005479706500094C50342F4C5035202044B0
:10114000534D326F6E6C792044534D322F44534DC2
:10115000580044534D20547970650042696E6420F4
:101160002052616E67650050504D2046724C656E8E
:101170000D6D536563000B52784E756D000434435A
:1011800048203643482038434820313043483132E4
:1011900043483134434831364348001375530011F6
:1011A00075536563000650504D202020505858203C
:1011B000202044534D32202050504D313620505085
:1011C0004D53494D0050726F746F00524554413178
:1011D0003233004265657020436E7400466173745B
:1011E000204D69782044656C6179005472696D20E6
:1011F00053770006457870202020457846696E6553
:1012000046696E6520204D656469756D436F617236
:101210007365005472696D20496E6300542D4578E2
:10122000706F00542D5472696D000A436F756E74AF
:1012300020446F776E436F756E74205570202000C8
:1012400054726967676572420054726967676572B4
:1012500000566F69636520496E646578114D454E8F
:1012600055004E616D65000009000100000000009E
:10127000000000060201005345545550000046414D
:10128000494C534146450052414E4745204348454D
:10129000434B20525353493A000642494E44494E6B
:1012A00047004475706C69636174696E67206D6F87
:1012B00064656C0044454C455445204D4F44454CB5
:1012C000004455504C4943415445204D4F44454CF2
:1012D00000447253773200447253773100025765ED
:1012E0006967687400024578706F000444522048B2
:1012F0006900044452204C6F7700044452204D6929
:101300006400004558504F2F445200012B2A5200D0
:101310004D49584552000320202020202020200045
:1013200044454C455445204D49583F00035B4D45CD
:101330004E555D0B5B455849545D00035945530BB1
:101340004E4F005072657373205B455849545D20C1
:10135000746F2061626F7274004D6178206D6978DE
:101360006572732072656163683A203332000253FC
:101370006C6F77202055700002536C6F77202044EB
:101380006F776E000244656C6179205570000244ED
:10139000656C617920446F776E0008416464202099
:1013A0002020204D756C7469706C795265706C6189
:1013B00063652000024D756C74707800025761728D
:1013C0006E696E6700024D4F4445530002537769C2
:1013D000746368004375727665000D446966660043
:1013E000025472696D0002466C4D6F6465747269D7
:1013F0006D0002466978204F6666736574004F661B
:101400006673657400466D5472696D56616C0002B6
:101410005765696768740002536F757263650045AC
:10142000444954204D4958200000000000000000AD
:1014300000000400032D2D2D783E30783C307C7860
:101440007C663E30663C307C667C633120633220B3
:101450006333206334206335206336206337206391
:101460003820633920633130633131633132633185
:1014700033633134633135633136000D4F6E00070D
:101480002D2D2D2D202020763E6F66732020763C5A
:101490006F667320207C767C3E6F66737C767C3C26
:1014A0006F6673414E44202020204F522020202080
:1014B00020584F522020202076313D3D7632207634
:1014C00031213D76322076313E7632202076313C15
:1014D0007632202076313E3D76322076313C3D76A4
:1014E000322054696D654F6666000D4F6E00072D02
:1014F0002D2D2D202020763E6F66732020763C6FA8
:10150000667320207C767C3E6F66737C767C3C6FB5
:101510006673414E44202020204F5220202020205E
:10152000584F522020202076313D3D7632207631B2
:10153000213D76322076313E7632202076313C765F
:1015400032202076313E3D76322076313C3D763277
:101550002054696D654F6666005300000343555380
:10156000544F4D20535749544348455300064F4E5E
:10157000202020204F4646202020424F5448202043
:101580003135536563733330536563733630536558
:10159000637356617269626C0056530007203820ED
:1015A000536563733132205365637331362053655D
:1015B0006373000153415658004E756D6265722089
:1015C000566F69636520537700000002534146451A
:1015D000545920535749544348455300434C4541BF
:1015E00052204D49584553205B4D454E555D0054A2
:1015F000454D504C41544553005343092B0D2A127D
:101600002F00032D2D2D52746D45746D54746D4152
:10161000746D52454E525544454C455448524149CB
:101620004C5031205032205033206331206332201F
:1016300063332063342063352063362063372063AF
:1016400038206339206331306331316331326331A3
:10165000336331346331356331360047560000015E
:10166000474C4F42414C2056415253000546697247
:1016700073744C61737420004F6666736574204107
:101680007400446563696D616C73005369676E0033
:10169000556E69740044697669736F72004D756C9C
:1016A0007469706C696572004F6666736574004E8C
:1016B000616D6500536F75726365005343000003ED
:1016C00000042D2D2D2D4131202041322020464176
:1016D0005356534331205343322053433320534313
:1016E000340043757272656E7420536F7572636552
:1016F0000053696E6B20546F6E6573000253656E04
:1017000073697469766974790002537769746368E0
:1017100000042D2D2D2D767370644132202000564B
:101720006172696F3A20536F757263650046415369
:10173000204F666673657400437573746F6D204443
:101740006973706C617900477073416C744D6169A5
:101750006E00566F6C742054687265733D00034FC1
:10176000464631323234303000416C74416C617223
:101770006D004E756D20426C61646573006D41684B
:1017800020416C61726D0052780054785253534975
:10179000616C726D00000101010054454C454D45DE
:1017A0005452593200013C3E00616C726D0001766A
:1017B0002D5641004120206368616E6E656C000308
:1017C0004D6574496D7000052053746420204D618F
:1017D0007620000546724875625753486869005084
:1017E000726F746F000002010202010254454C4501
:1017F0004D4554525900434F5059205452494D20A1
:101800005B4D454E555D0000034C494D4954530016
:101810004356004355525645530050524553455484
:101820000000435552564500032D2D2D494E5600BC
:101830004756005B4D454E555D205748454E204468
:101840004F4E450053454C45435400434F505900BB
:101850004D4F56450044454C455445004544495478
:1018600000494E5345525400434F5059004D4F5676
:10187000450044454C4554450003681A31D82D3085
:101880003D4C2DEE320C6330348C3C1C435C59BE15
:101890006C5A58245D6F6E062E3A35CD58153012AD
:1018A000081200081C0808081C080000082200494B
:1018B0000022080000000000227F22000000082211
:1018C0000049002208000008220049002208000008
:1018D00000227F22000000000008220049002208A8
:1018E0000000081C0808081C080001010100000095
:1018F00002020202020202020202000202020202CA
:1019000002020200000000000000020202020203C4
:10191000030303054665657420566F6C7473446554
:10192000675F434465675F466D41682020416D7085
:1019300073204D6574726557617474730046564325
:10194000466D416D5718242F2F0033383B065761E1
:10195000726E31205761726E32204368656170206B
:1019600052696E672020536369466920526F626F27
:10197000742043686972702054616461202043724E
:1019800069636B74536972656E20416C6D436C6B57
:101990005261746174615469636B20204861707492
:1019A000633148617074633248617074633300540A
:1019B000696D657200032D2D2D59656C4F7267524C
:1019C00065640054524530313241470052783D0041
:1019D00054783D00204142434445464748494A4BDC
:1019E0004C4D4E4F505152535455565758595A61B9
:1019F00062636465666768696A6B6C6D6E6F70714F
:101A000072737475767778797A303132333435364B
:101A10003738395F2D2E0000010203FEFF0406084F
:101A20000A0B0C0D0E0F23FD202425261D1E1F273B
:101A3000F6F7F8F9FAFBFCF52811292AF1F2F3F48C
:101A4000042D2D2D2D41313D2041323D2052535347
:101A5000495453534954696D3154696D32416C7422
:101A60002047616C744773706454313D2054323D9B
:101A70002052504D204655454C4D6168314D6168AE
:101A80003243766C7442617474416D70734D616859
:101A90002043746F744661735641636358416363B6
:101AA000594163635A567370644776723147767250
:101AB000324776723347767234477672354776729C
:101AC0003647767237467761745278562048646795
:101AD0002041333D2041343D205343312053433294
:101AE0002053433320534334200053776974636891
:101AF000205761726E696E670067656E77726974F0
:101B000065206572726F7200454550524F4D2046F8
:101B10006F726D617474696E67004261642045453F
:101B200070726F6D204461746100434845434B20DF
:101B30004D49582F445220534F5552434553004D61
:101B40004F44454C2020202020004D4520202020BF
:101B50002020202000454550524F4D206F76657261
:101B6000666C6F7700E2AEA6A4A22F2500000000ED
:101B70000000000000000000000000000000000065
:101B8000000000000000000000000000333B1F0FB9
:101B900000000000C0C0C0C0C0C0C0C0C0C00000C5
:101BA0000000000000000000000000000000000035
:101BB00000000000183C3C180000000000000080FD
:101BC000C0E070381C0C0C0E070301000000000080
:101BD0000000FCFE87C3E377FEFC00000F1F3B31D3
:101BE00030381F0F00000C0EFFFF00000000000047
:101BF00030303F3F3030000000000C0E0783C3E759
:101C00007E3C00003C3E373331303030000003036F
:101C1000C3C3C3E7FE3C00003030303030391F0F03
:101C20000000C0E070381C0EFFFF00000303030338
:101C300003033F3F00003F3F33333373E3C30000F0
:101C40000C1C383030381F0F0000FCFEC7C3C3C760
:101C50008E0C00000F1F383030391F0F00000303B7
:101C6000C3E3733B1F0F000000003F3F0000000074
:101C700000003CFEE7C3C3E7FE3C00000F1F393005
:101C800030391F0F00003C7EE7C3C3E7FEFC0000B5
:101C9000000030381C0E07030000183C3C18000000
:101CA00000000000060F0F0600000000F0F8DCCE78
:101CB000C7C7CEDCF8F03F3F0000000000003F3F08
:101CC000FFFFC3C3C3C3C3E7FE3C3F3F30303030E8
:101CD00030391F0FFCFE0703030303070E0C0F1F11
:101CE0003830303030381C0CFFFF030303070E1C64
:101CF000F8F03F3F303030381C0E0703FFFFC3C3FE
:101D0000C3C3C3C303033F3F3030303030303030C3
:101D1000FFFFC3C3C3C3C3C303033F3F00000000AF
:101D200000000000FCFE0703C3C3C3C7CECC0F1FD7
:101D30003830303030303F3FFFFFC0C0C0C0C0C07F
:101D4000FFFF3F3F0000000000003F3F0000030393
:101D5000FFFF03030000000030303F3F3030000041
:101D6000000000000303FFFF03030C1C3830303871
:101D70001F0F0000FFFFC0E0F0381C0E07033F3FBD
:101D8000000103070E1C3830FFFF000000000000B8
:101D900000003F3F3030303030303030FFFF0E1C1D
:101DA000F8F81C0EFFFF3F3F0000000000003F3F1F
:101DB000FFFF3870E0C08000FFFF3F3F00000001E0
:101DC00003033F3FFCFE070303030307FEFC0F1F53
:101DD0003830303030381F0FFFFFC3C3C3C3C3E7F1
:101DE0007E3C3F3F0000000000000000FCFE0703B7
:101DF00003030307FEFC0F1F383033371E1C3F332D
:101E0000FFFFC3C3C3C3C3E77E3C3F3F00000307DC
:101E10000E1C38303C7EE7C3C3C3C3C78E0C0C1CFA
:101E20003830303030391F0F03030303FFFF030343
:101E30000303000000003F3F00000000FFFF000020
:101E400000000000FFFF0F1F3830303030381F0F08
:101E5000FFFF000000000000FFFF03070E1C3838E2
:101E60001C0E0703FFFF000000000000FFFF0F1F14
:101E700038381F1F38381F0F0F1F38F0E0E0F038D8
:101E80001F0F3C3E0703010103073E3C3F7FE0C0BC
:101E90008080C0E07F3F000000013F3F0100000064
:101EA00003030383C3E3733B1F0F3C3E37333130DF
:101EB0003030303000000000000000000000303002
:101EC0003030303030303030000030303030307032
:101ED000E0C00C1E3F33333333333F3FFFFFC0E0DE
:101EE00070303070E0C03F3F3030303030381F0F3E
:101EF000C0E070303030303000000F1F38303030EC
:101F000030381C0CC0E070303070E0C0FFFF0F1F95
:101F10003830303030303F3FC0E0703030303070DB
:101F2000E0C00F1F3B33333333330303C0C0FCFE29
:101F3000C7C303070E0C00003F3F00000000000075
:101F4000F0F89C0C0C0C0C0CFCFC0001333333330C
:101F5000333B1F0FFFFFC0E070303070E0C03F3FE9
:101F60000000000000003F3F00003030F3F30000AD
:101F70000000000030303F3F303000000000000023
:101F80003030F3F300000C1C383030381F0F0000E5
:101F9000FFFF0080C0E0703000003F3F03070F1CD0
:101FA0003830000000000303FFFF000000000000C5
:101FB00030303F3F30300000F0F03070E0E07070C3
:101FC000E0C03F3F0000030300003F3FF0F0C0E0EF
:101FD00070303070E0C03F3F0000000000003F3F25
:101FE000C0E0703030303070E0C00F1F383030301B
:101FF00030381F0FF0F03030303030F0E0C03F3F6D
:102000000303030303030100C0E0F0303030E0C0FD
:10201000F0F000010303030303033F3FF0F0C0E0CF
:1020200070303070E0C03F3F000000000000000052
:10203000C0E0F030303030300000303133333333F3
:10204000333F1E0C3030FFFF303000000000000036
:102050000F1F383030381C0CF0F00000000000007A
:10206000F0F00F1F383030381C0C3F3FF0F000000C
:1020700000000000F0F003070E1C38381C0E0703A8
:10208000F0F0000000000000F0F00F1F38381C1CBA
:1020900038381F0F3070E0C08080C0E070303038BA
:1020A0001C0F07070F1C3830F0F080000000000004
:1020B000F0F0000133333333333B1F0F3030303017
:1020C00030B0F0F0703030383C3E373331303030A3
:1020D00000000000000000006F000007000700146F
:1020E0007F147F14242A7F2A12231308646236493E
:1020F0005522500005030000001C2241000041222F
:102100001C0014083E081408083E0808005030005F
:102110000008080808080060600000201008040299
:10212000003E49453E0000427F4000625149460062
:1021300041494936001814127F0027454539003EB1
:1021400049493200017905030036494936000649FC
:10215000291E000036360000005636000008142202
:1021600041141414141441221408000201510906E8
:1021700000060909067E0909097E7F494949363E5C
:10218000414141227F4141221C7F494949417F0908
:102190000909013E4149497A7F0808087F00417FCB
:1021A00041002040413F017F081422417F404040D0
:1021B000407F020C027F7F0408107F3E4141413E78
:1021C0007F090909063E4151215E7F0919294626EA
:1021D0004949493201017F01013F4040403F1F20F2
:1021E00040201F3F4030403F6314081463070870CD
:1021F00008076151494543007F414100020408102E
:10220000200041417F000402010204404040404060
:10221000000102040020545454787F484444383864
:1022200044444420384444487F3854545418087E69
:102230000901020C5252523E7F0804047800447D8A
:1022400040002040443D007F1028440000417F4072
:10225000007C041804787C0804047838444444382A
:102260007C14141408081414187C7C08040408480E
:1022700054545420043F4440203C4040207C1C20C7
:1022800040201C3C4020403C44281028440C505026
:10229000503C4464544C44000836410000007F0028
:1022A0000000413608000808221C08081C22080803
:1022B0000102040810204080408008042010020120
:1022C0009CCE003264E2F1003264645A505A645089
:1022D000463C46649C141E465A536572766F2054E1
:1022E000657374004779726F205365747570004888
:1022F000656C6920536574757000456C65766F6E0A
:102300005C44656C746100562D5461696C005374B3
:1023100069636B7920542D43757400542D43757493
:102320000053696D706C6520342D43480021231BD8
:10233000230E230723FA22EF22E422D92200008968
:102340001112239B322446AD573665BF74488CC1A9
:102350009D5AAFD3BE6CCAE5DB7EE9F7F881100861
:102360000193331A22A5562C47B7753E64C99C4089
:102370008DDBBF52AEEDDA64CBFFF976E802218B3C
:1023800030100299132667AF763444BD554AADC369
:10239000BC588ED19F6EEBE7FA7CC8F5D983310A21
:1023A0002091121803A7772E66B5543C45CBBD4249
:1023B000ACD99E508FEFFB66EAFDD874C904428DFC
:1023C0005316619F702004A9153227BB364CCEC529
:1023D000DF5EEDD7FC6888E1997AABF3BA85520CE1
:1023E0004397711E60A1142805B3373A26CDDE4409
:1023F000CFDFFD56ECE9986089FBBB72AA06638FBC
:102400007214409D512225AB343006B9174EEFC7E8
:10241000FE5CCCD5DD6AA9E3B8788AF19B87730EA0
:102420006295501C41A3352A24B1163807CFFF46C8
:10243000EEDDDC54CDEBB962A8F99A708B0884818B
:10244000951AA793B62CC2A5D33EE1B7F04008C9B0
:1024500019522BDB3A644EED5F766DFF7C89940058
:10246000859BB712A6ADD224C3BFF136E0C1184890
:1024700009D33B5A2AE55E6C4FF77D7E6C0AA58333
:10248000B4188691972EE3A7F23CC0B5D14229CB70
:1024900038500AD91B666FEF7E744CFD5D8BB50218
:1024A000A499961087AFF326E2BDD034C1C3394A50
:1024B00028D11A580BE77F6E6EF55C7C4D0CC685F3
:1024C000D71EE597F42880A1913AA3B3B2444ACD30
:1024D0005B5669DF78600CE91D722FFB3E8DD604D8
:1024E000C79FF516E4A9902081BBB332A2C55A4C10
:1024F0004BD7795E68E11C680DF33F7A2E0EE787B3
:10250000F61CC495D52AA1A3B03882B193466BCFEF
:102510007A5448DD59622DEB3C700EF91F8FF70697
:10252000E69DD414C5ABB122A0B9923083C77B4ECF
:102530006AD5585C49E33D6A2CF11E780F36860A4D
:102540000C0D0B103536072F303132333484889719
:102550009A111314151609181B122B2C2D2E051960
:102560001C1D1E1F2720A1223636B98F11241FBE25
:10257000CFEFD0E1DEBFCDBF11E0A0E0B1E0EAE7F0
:10258000F6E201E00BBF02C007900D92A832B1073E
:10259000D9F71FE0A8E2B1E001C01D92AA37B10748
:1025A000E1F712E1C6EBD2E104C02197FE010E94DF
:1025B000E592C53BD107C9F70E94E08D0C943B938F
:1025C0000C940000E091900594E0E99FF001112443
:1025D000E80FF11DE750FC4F84918F5F089585301F
:1025E00030F0883030F08E3030F083E0089580E0B5
:1025F000089581E0089582E008952AE0829FC00155
:10260000112489509E4F089525E0829FC001112416
:10261000895C9C4F08950F93022F207104FF03C023
:102620000F7E9DE201C094E2411106C024E043ED1B
:1026300053E00E94707818C0453028F42FEF240F23
:1026400040EE53E00FC0941728F02BEF240F4DE21B
:1026500053E008C0222311F0475B491B2CED240FE7
:1026600040E45AE10E9495780F9108950F93CF931B
:10267000DF93C82FD62F022F411104C024E048E277
:1026800053E00EC04A3010F086E101C081E18C0FAA
:1026900050E0202F6D2F0E94407B22E045E253E066
:1026A0006D2F8C2F0E947078DF91CF910F9108953C
:1026B0000F931F93CF93DF93D62FC42F022F16E0D3
:1026C000180F442339F04C3141F0443E81F44DE081
:1026D00054E005C041E253E002C049E054E06D2FF0
:1026E000812FDF91CF911F910F910C94A97847FF13
:1026F00004C041E20E94D877C1952FEF2C0F41E131
:1027000054E06D2F812F0E949578DF91CF911F911A
:102710000F910895EF92FF920F931F93CF93DF9342
:10272000D82F162FF42EE22EC091E80181E08217F7
:1027300008F442C02C2F27FD2195203168F4042F86
:102740004FEE52E08D2F0E949578CF3FCCF52F2D84
:1027500041E2612F8AEF19C02B3230F41C1614F4B9
:1027600041EF22C04FE020C0C6349CF0CF53042F6D
:102770002C2F48EA52E08D2F0E949578C0310CF43E
:10278000D6502F2D45E2612F82E18D0F0E94D87720
:1027900017C0242F4DE682E18D0F0E94D8771C16BA
:1027A00014F446ED01C04AE24C0F2F2D612F8AEF41
:1027B0008D0F0E94581304C082E0281313C004C078
:1027C000E11010C0C13071F42F2D40915804612FD9
:1027D0008AEF8D0FDF91CF911F910F91FF90EF90B6
:1027E0000C945813DF91CF911F910F91FF90EF90B0
:1027F00008950F931F93CF93DF93890124E0629F85
:10280000E0011124FE01E658FB4FE081F0E0442393
:1028100011F0EE0FFF1F9F01DC010E943592C65898
:10282000DB4F2B81207C203C51F424E630E040E05B
:1028300050E00E94A492F8018081806210C0E436CA
:10284000F10578F4660F771F881F991F23E330E0A6
:1028500040E050E00E94A492F80180818063808370
:1028600006C02FEF30E040E050E00E94A492C90182
:10287000DF91CF911F910F910895DF92EF92FF9218
:102880000F931F93CF93DF931F92CDB7DEB7D82E50
:10289000F62E942F822F098350E060E070E024E050
:1028A000829F80011124F801E658FB4F3381307C70
:1028B000303821F4EE2089F041E003C0EE2091F0A1
:1028C00040E09E012F5F3F4F682F892F90E00E94CC
:1028D000F913AC0160E070E018C0440F551F661F8B
:1028E000771F13C0303C89F4292F30E0AFEFB0E000
:1028F0000E94359224E630E040E050E00E94A4922D
:10290000BA01A90189818062898306581B4FF801A9
:10291000838186FD14C00981006285E0E82E9A015A
:10292000AB016F2D8D2D0E94BE79298127FD1BC023
:1029300046E76F2D80916F0D0E94D87714C02981D2
:102940006F2D8D2D0E94407BF8018381807C803C1F
:1029500061F4298127FD0BC041E46F2D80916F0D3B
:102960000E94D87704C086E703C080E201C081E4FA
:102970000F90DF91CF911F910F91FF90EF90DF901B
:102980000895873038F4E82FF0E0EE0FFF1FE75886
:10299000F74F24C08C3050F18431C0F4482F50E000
:1029A000FA01EE0FFF1FEE5EFE4F20813181803174
:1029B00048F4440F551FFA01EA59FA4F808191817A
:1029C000281B390BC901880F991F0895843248F4D8
:1029D000E82FF0E0EE0FFF1FEF5CF74F8081918151
:1029E00008958D3418F484520C94E32580E090E02F
:1029F00008950E94DC8D8111FCCF1092A00D0895E6
:102A00000F931F93CF93DF938C01EB010E948E777E
:102A100024E042EF53E060E082E20E94A978B8012E
:102A200080E20E94C978BE0188E20E94C97862E90A
:102A300072E080E3DF91CF911F910F910C94C978E0
:102A40000F93262F00E041E154E060E10E94957869
:102A50000F910895CF93DF93D6E1C0E08D2F0E94B0
:102A6000107DCC0FC82BD150DE30C1F78C2FDF91F9
:102A7000CF9108950F931F93CF93DF93D82F0DED30
:102A800011E0CAE0F80141918F0124E06D2F8C2FF5
:102A90000E94D877C55FC837A9F7DF91CF911F9102
:102AA0000F9108950F931F93CF938C01C62F0E940F
:102AB0008E77B80188E10E94C978C11109C044E845
:102AC00052E068E38CE10E94CF7842EF53E002C00D
:102AD0004CE752E024E060E086E10E94A978CF91C3
:102AE0001F910F910C94167C61E00C94521570E0CC
:102AF000882399F090E0019725E0289FF001299F15
:102B0000F00D1124E60FF71FEE0FFF1FEE55FB4FE0
:102B1000808191818B509E4F0895660F771FFB0136
:102B2000EE5FFE4F0190F081E02D8081992787FDB7
:102B3000909508951F93CF93DF93D82F162FC4E05D
:102B4000DD2399F0612F8D2F0E9477159C01253F81
:102B500081E0380764F09BE0920F9D1710F09CE035
:102B6000920FC15029F0D92FEBCFC0E001C0CD2F7B
:102B70008C2FDF91CF911F910895CF93C62F0E9484
:102B80009A156C2FCF910C947715EF92FF920F93BB
:102B90001F93CF93DF93EA019A0123583F4F7901A6
:102BA000062F10E0882321F10E949A15882301F155
:102BB0003BEFE316F10440F01C161D061CF0C3E8C1
:102BC000DFEF02C0CDE7D0E090E0019745E0489FFD
:102BD0009001499F300D1124F901E00FF11FEE0F14
:102BE000FF1FEE55FB4FC55FD140D183C08315C099
:102BF0008BEFE816F10440F01C161D061CF0C3E82C
:102C0000DFEF02C0CDE7D0E0F801EE0FFF1FEE5F6F
:102C1000FE4F0190F081E02DC08386E0DF91CF91DF
:102C20001F910F91FF90EF900C948671E0914B01F2
:102C3000F0E0EE0FFF1FE25BFE4F8081918108956F
:102C4000E0914B01F0E0EE0FFF1FE45BFE4F91833C
:102C500080838FEB80934A010895EDE8F8E0108EB1
:102C6000168A158A178A0895AC01E1E4FEE097A15F
:102C7000903180F420A531E0320F30A7DF01A20FA0
:102C8000B11DA20FB11D4D935C93303108F010A619
:102C90009F5F97A3089590E08C5F9E4F0C9434162D
:102CA00090E00C9434168093C00190E040970C940F
:102CB0003416FC0180919B0590A181FF75C081A114
:102CC000992311F0846001C08B7F81A386A181309C
:102CD00059F5C79A97A181A1992321F121A541E036
:102CE000420F41A7DF01A20FB11DA20FB11D2D910F
:102CF0003C9135A324A3403108F011A6915097A32D
:102D000037FD02C091E101C098E293A38C7F37FDAB
:102D1000826081A381A18BBBC7988FE182A382E0EF
:102D200086A308958BBB49C081110CC0C79A81A1AD
:102D3000836081A38BBB8091700D8D3308F43DC0FF
:102D400086E030C0823009F439C081A18BBBC79ABC
:102D5000BF9800C0000000C086B38078BF9A96A1DB
:102D6000933051F4811102C084E01CC083A18150D2
:102D700083A38823C9F321C0943021F48823E9F088
:102D800083E00EC0953039F483A1815083A3811173
:102D900014C081E007C0963081F4882371F084E18B
:102DA00083A385E086A309C08091980586FB8827C8
:102DB00080F9981711F0C79A0895C79808951BBA1B
:102DC0008FE18ABB00C029B38FEF8ABBE6EBF1E04D
:102DD0008781882311F080E202C0822F807E848365
:102DE000322F307C8081381761F08074982F990FD2
:102DF00020788181921711F0815001C08F5F81830B
:102E0000308382819381891711F0838381830895B0
:102E10009091900590FD02C093E08927E82FF0E0A3
:102E2000E957F74FE081E7FDE95FE595E595E59521
:102E30001E1624F0EE2321F0E19502C080E801C0C7
:102E400080E0E8300CF0E7E0FF27E7FDF095E8527E
:102E5000FC4FE491EE2319F099E0909356018E2BEC
:102E60000895833021F0811104C0E3E003C0E0E065
:102E700001C0E82FF0E0EE0FFF1FE353FA4F40814F
:102E80005181843080F42091AD0530E002C0359549
:102E900027958A95E2F720FF06C080E098E09C0124
:102EA000241B350BA901CA010895EF92FF920F93DD
:102EB0001F93CF93C0E000E010E08C2F0E943117E9
:102EC000E92EF12C0E0D1F1DCF5FC430B1F7C801E4
:102ED000CF911F910F91FF90EF9008950E943117AD
:102EE0002091920520FF03C0919581959109089545
:102EF000EDECF5E040E0842F806487B900C000C0AD
:102F0000369A3699FECF84B195B1369A3699FECF6E
:102F100024B135B1820F931F369A3699FECF24B172
:102F200035B1820F931F369A3699FECF24B135B151
:102F3000820F931F96958795819391934F5F4830A9
:102F4000D1F6089578941F920F920FB60F92112424
:102F50008F93809128018F5F809328018F910F902C
:102F60000FBE0F901F90189578941F920F920FB676
:102F70000F9211240BB60F922F933F938F939F9331
:102F8000EF93FF93F89487B78F7B87BF7894209156
:102F90007F018091810190919B05882359F090FFDA
:102FA00007C08091770F820F8093770F87FF02C051
:102FB0001B9A01C01B9891FF2AC080916C09811156
:102FC00026C0E1E4FEE086A1823009F583A18823D2
:102FD00011F081501BC081A1C79A92A190FD09C038
:102FE0008D7F24A135A136FD8260220F331F35A3CA
:102FF00024A391E089278BBB81A3C79882A181502C
:1030000082A3811104C083E086A385E083A3F894A2
:1030100087B7806487BF7894FF91EF919F918F91DC
:103020003F912F910F900BBE0F900FBE0F901F90EE
:10303000189578941F920F920FB60F9211240BB629
:103040000F922F933F934F935F936F937F938F9341
:103050009F93AF93BF93EF93FF9381B7845681BF44
:103060008DE791E00E948E850E947B7D0E949A8C64
:103070008091AD0D82608093AD0DEAE0F1E080813A
:10308000815011F0808304C084E6808381E08183D5
:103090008281815011F0828304C08AE0828381E0C2
:1030A0008383FF91EF91BF91AF919F918F917F911A
:1030B0006F915F914F913F912F910F900BBE0F90A9
:1030C0000FBE0F901F90189578941F920F920FB615
:1030D0000F9211240BB60F922F933F934F935F9350
:1030E0006F937F938F939F93AF93BF93EF93FF93D0
:1030F0002091800030918100F89480917D008F7D37
:1031000080937D0078948091C4059091C505A901B4
:10311000481B590BCA01969587953093C505209396
:10312000C4059C01215A3F402F3D3E4220F481E0DE
:10313000809329012DC0E09129012FEF2E0F283017
:1031400038F59C012152334027373540F8F424E606
:103150002093BF0121E02E0F20932901F0E0EE0F14
:10316000FF1FE85DFE4F9C012C5D35409091960558
:10317000965F929FA001939F500D1124CA016AE0AF
:1031800070E00E9490927183608302C010922901C6
:10319000F89480917D00806280937D007894FF9107
:1031A000EF91BF91AF919F918F917F916F915F91BF
:1031B0004F913F912F910F900BBE0F900FBE0F902C
:1031C0001F901895E82FF0E0EE0FFF1FED55F14F1F
:1031D000F894808191817894089584E00E94E218A7
:1031E0002091AC073091AD07820F931F08959C0189
:1031F00045E0359527954A95E1F7280F391FAC0131
:10320000440F452F441F550B241B350B892F990F55
:10321000990B8595820F931F08959DE7980F9B3F0B
:1032200088F08E57E82FF0E0EE0FFF1FEC56FB4FB3
:10323000808186171CF46083862F0895481714F444
:103240004083842F089544E66CE90C940D19282FCF
:103250009091EE01892F807194FF04C081E02230AB
:1032600009F080E0089549E2840290011124359527
:10327000279535952795982F87FD915C96FB990F9B
:10328000990B90F9A901491B510997FD5395CA0162
:1032900008952F923F924F925F926F927F928F92FA
:1032A0009F92AF92BF92CF92DF92EF92FF920F93D5
:1032B0001F93CF93DF93782E662E77FE04C08195FF
:1032C0008A3058F4EBC129E0271538F08EE0870DDD
:1032D0000E94107D7110ECC1DCC18A50C82FD0E073
:1032E0008C3008F4E9C07E013CE0E31AF108670184
:1032F000CC0CDD1CCC0CDD1C860103521E4FF801EA
:10330000ED5EFC4F8081882309F4C6C1FE01E255C1
:10331000FA4F1F01F4E0F61510F4F101E2C0580174
:10332000FFEEAF1AFCEFBF0AF50150800E5E1C4F96
:10333000F80140800E94EF1281111CC08FEF850DB3
:103340000E94C1144C01F5018081853274F05BED5F
:10335000B52EB80EF80160818B2D0E946C258C0172
:103360008B2D0E945625B82E1BC0F80180810E942B
:1033700033190CC0823071F48FEF850D0E94C11497
:103380004C01F801808181500E94C1148C01BB2442
:10339000B39406C0BB24B39400E010E0812C912CC0
:1033A000F601E051FB4FE0818E2F90E0FC01319758
:1033B000EE30F10508F05CC0EA5BFF4F0C94E5923B
:1033C00097FE34C091948194910830C097FE33C029
:1033D0009194819491082FC0D1E0D60D4D2F60E0DB
:1033E000852D0E946B1BC82F4D2F60E0842D0E94FD
:1033F0006B1BF601E051FB4F9081953019F4CC2303
:10340000B9F104C0963029F4C11134C0811132C021
:103410002FC0982F9C2728C091E080169106C9F4F0
:1034200023C091E080169106F9F413C091E00815CD
:103430001905D4F00EC091E080169106ACF009C0D9
:1034400091E08016910684F404C091E008151905F6
:103450005CF490E009C0CC0FDD1FC85ADE4F9981A3
:103460009095991F9927991FBB2011F0911104C0C5
:1034700080E020C0BB20E1F3F701EE0FFF1FEE0F4D
:10348000FF1FEF50FB4F8081882399F089300CF0AB
:103490008F5F883F0CF007C181508C310CF006C162
:1034A000853E0CF487EF41E0460D60E00E946B1B07
:1034B00001C081E0F101EAC08E01000F111FC801B7
:1034C0008C0F9D1FFC01ED5CFB4F22812F7009F4D6
:1034D000E3C09E0122553A4F490134E0361520F4ED
:1034E000F40180818170D3C09C0123523E4F690159
:1034F000FAEACF1AFDEFDF0AF60140807901F9EA16
:10350000EF1AFDEFFF0AF7015080FC01EB5CFB4F67
:1035100080818F700E94EF1281111CC08FEF840D8B
:103520000E94C1145C01F6018081853274F09BED2C
:10353000D92ED80EF70160818D2D0E946C257C015B
:103540008D2D0E945625D82E1BC0F70180810E9428
:1035500033190CC0823071F48FEF840D0E94C114B6
:103560005C01F701808181500E94C1147C01DD243F
:10357000D39406C0DD24D394E12CF12CA12CB12CE2
:10358000F801EC0FFD1FEB5CFB4F8081E82FEF7023
:103590008E2F90E0FC013197EE30F10508F05FC00E
:1035A000EC5AFF4F0C94E592B7FE38C0B194A19449
:1035B000B10834C0B7FE37C0B194A194B10833C08C
:1035C000EE24E394E60C4E2D60E0842D0E946B1BEC
:1035D000F82E4E2D60E0852D0E946B1BF801EC0F3C
:1035E000FD1FED5CFB4F22812F70253019F4FF2069
:1035F000B1F104C0263029F4F11033C0811131C07B
:103600002EC0982F9F2527C091E0AE14BF04C9F4A7
:1036100022C091E0AE14BF04F1F413C091E0EA14AB
:10362000FB04CCF00EC091E0AE14BF04A4F009C0BE
:1036300091E0AE14BF047CF404C091E0EA14FB04F2
:1036400054F490E008C0F801E85AFE4F918190953B
:10365000991F9927991FDD2011F0911104C080E076
:1036600014C0DD20E1F3C00FD11FCB5CDB4F88819C
:1036700082958F7049F089300CF08F5F41E0460DE4
:1036800060E00E946B1B01C081E0F401808317148D
:103690007CF091E089270CC080E00AC08EE0871999
:1036A0000E94107DF6CF8C310CF4FDCE89E0FBCE6C
:1036B000DF91CF911F910F91FF90EF90DF90CF900E
:1036C000BF90AF909F908F907F906F905F904F9042
:1036D0003F902F900895882329F08C3151F0843E3B
:1036E00019F409C0862F08958D312CF4642F0C94A1
:1036F000491981E0089580E0089540E060E08091FC
:103700007D050E946B1B811114C080913B0190913B
:103710003C01892B71F41092610E8091700D909193
:10372000CC05981751F08093CC0581E49EE00C9471
:10373000591681E08093610EF0CF089520913B01EE
:1037400030913C012115310511F0215031098823B8
:1037500019F08091940501C080E090913A0199237D
:1037600029F090919C05891708F4892F4AEF849FCE
:10377000C0011124880F991F8217930708F4C9010B
:1037800090933C0180933B010C947D1BAF92BF92C0
:10379000CF92DF92EF92FF920F931F93CF93DF931D
:1037A0008091710D9091720D9091C905282F291B60
:1037B00020933D018093C90560E081E398E00E9479
:1037C0005D5780913D01882309F4D0C2EDE8F8E00F
:1037D000878980FF0EC0808D91E0980F943610F499
:1037E000908F07C08356808F858996890196968B26
:1037F000858B8091BF01882319F081508093BF0190
:1038000080E00E94E0710E948E770E94A47CB82E16
:10381000082F0F700650C091EF01C43021F0C33063
:1038200019F4C4E001C0C8E0083008F0ABC08B2D2B
:10383000807F803209F4A6C0E091900544E0E49FC7
:10384000F0011124802F8695E80FF11DE750FC4F01
:1038500014918091AC0580FF03C083E0811B182F79
:10386000612F80912D060E949A15F82E612F0E94DB
:10387000BD159C01C1110CC0EC0197FF04C0CC2701
:10388000DD27C81BD90BD595C795D595C795CF5FB3
:10389000123071F48091EE0180FF03C091E0C2E02C
:1038A00001C090E08091920580FF03C0C19501C0E6
:1038B00090E0DD27C7FDD09500FF03C0C20FD31FE6
:1038C00004C0A9014C1B5D0BEA01209709F448C212
:1038D0004D2F4095441F4427441F832F8095881FF8
:1038E0008827881F481789F091110FC0232B69F092
:1038F00040E050E0612F8F2D0E94C5158B2D0E9456
:103900006B7D86E10E945D873CC0CE0184589F4F4D
:10391000893F910578F4AE01612F8F2D0E94C51566
:10392000D7FF03C0D195C195D109D595C795D59538
:10393000C79520C01C161D061CF043E85FEF02C0AF
:103940004DE750E0612F8F2D0E94C515CE018358A1
:103950009F4F8B3F9105A8F4D7FF03C0D195C19528
:10396000D109D7FD2396D595C795D595C795D195FE
:10397000C195D1094C2F445C65E18DE791E00E942F
:103980004786B12CEFE3F1E020918508309186085D
:1039900080819181821B930B97FD4F9645E0959511
:1039A00087954A95E1F7009751F084819581821BB4
:1039B000930B97FD019695958795318320833583E9
:1039C00024832091920525FD04C0209153082223D1
:1039D00011F080E090E093838283C6EBD1E09D817B
:1039E0008981891B8F3F09F480E087FD8F5F859572
:1039F0008887282F220F920F9D838B290E949E1B60
:103A00008091A805895FE0914B01F0E0EE0FFF1F68
:103A1000E45BFE4F2081318126563D4409F047C0CA
:103A200028852223B1F09E81332727FD3095290F69
:103A3000311D97FD3A952E37310514F09DE705C0ED
:103A400023389FEF39071CF493E89E8301C02E832F
:103A5000188690915904292F207E49F192959695C8
:103A60009770892F90E0843091055CF4880F991F3E
:103A7000FC01E158F74F208131813C5F60E078E044
:103A80000DC0880F991FFC01EC56FB4F2081332796
:103A900027FD309523583F4F6AEF70E047E0429F83
:103AA000C001439F900D11240E947C92862F90911B
:103AB000C00189130E9453168091980587FF3AC070
:103AC000809157018823B1F1809156018823A1F19B
:103AD0008091C80587FD03C08F5F8093C80582E091
:103AE0000E940817982F9F7779F02091C8059217A8
:103AF00018F51092C805B1101FC0B82EBB1CBB240E
:103B0000BB1C22E6B20E18C083E00E940817982F53
:103B10009F7791F02091C805921770F41092C80514
:103B2000B1100AC0B82EBB1CBB24BB1C85E68B1988
:103B3000B82E02C01092560181E080935701A090E8
:103B40002D060091BC01112707FD1095C0E0D0E0C3
:103B5000AAE0EA2EF12CAE0143525E4F6A01FA014F
:103B6000E854FD4F60816623C1F1653030F4615047
:103B70008A2D0E94BD15BC0122C06530F9F0862F48
:103B800090E0880F991FFC016A3010F06D3070F4DE
:103B9000E359F74F6081718177FF02C0695F7F4F02
:103BA000E3E075956795EA95E1F709C0E15CF74FA9
:103BB00080819181B7010E94909201C0B801633861
:103BC0005FEF75072CF06D3771051CF06DE701C0D4
:103BD00063E8F601E954FD4F60832296CE30D105AB
:103BE00009F0B9CF8091DB019091DC010097B1F031
:103BF00060E00E9452150E94DC8D9091C7059923C8
:103C000039F0811125C01092DC011092DB0120C037
:103C10008823F1F081E08093C7051AC01092C70590
:103C2000C0914A01CC2331F010924A0187E10E94F1
:103C30005D87BC2EB092B501E0914B01F0E0EE0F34
:103C4000FF1FE45BFE4F0190F081E02D8B2D099565
:103C50000E94167CC09165008DE791E00E947A85F4
:103C6000882311F084E105C08091790F882321F029
:103C700081508093790F06C0809163008695817092
:103C80008093780F8091780F8093D901882309F46D
:103C900065C08091980585FD61C0CF7EC0936500A9
:103CA0008091700D8F71823009F055C02091DB0535
:103CB0003091DC05B90144E0660F771F4A95E1F7C2
:103CC00037FF02C0295F3F4F93E0359527959A95BE
:103CD000E1F740917C05552747FD50954A5F5F4FBE
:103CE000249FC001259F900D349F900D1124860FB5
:103CF000971F2091920526FD05C0609100017091EB
:103D0000010102C060EF70E00E947C9280913E0150
:103D1000680F711D6F5F7F4F7595679560933E01CA
:103D20008091C605805F8093C605811114C0809183
:103D30007B05681780F4623370F06EE281E10E94C7
:103D400063878091920583FF06C082E390E09093A1
:103D50003C0180933B0110923A0108C0C0619ECFA4
:103D60009111D9CD232B09F4D6CDC2CDDF91CF91BE
:103D70001F910F91FF90EF90DF90CF90BF90AF9089
:103D80000895CF93DF932091DA01222339F09093A5
:103D9000DC018093DB01DF91CF910895C62F60E0B5
:103DA0000E945215C11103C080917A0501C089E1BA
:103DB0000E94CD7B67E182E10E9463870E94F91433
:103DC000D1E00E94DC8D882321F0DF91CF910C940B
:103DD000F9148091AD0D833019F4A8951092AD0DB2
:103DE00040E060E080917D050E946B1B811106C060
:103DF00080919405811102C0CC2329F0D093610EEB
:103E00000E947D1BDECF1092610EFACF90914B0184
:103E1000911103C0811106C00BC0811102C09150E5
:103E200001C090E090934B018EEB80934A0108957E
:103E300060E08FE692E00C94C11EE0914B01E4300B
:103E400028F060E082E692E00C94C11E2FEB2093F4
:103E50004A01EF5FE0934B01F0E0EE0FFF1FE45BE0
:103E6000FE4F9183808308950F931F93CF930AEAA7
:103E700014E090E0F8018081C1E0C90F882341F08F
:103E800040E060E00E946B1B882311F08C2F06C07D
:103E90009C2F065F1F4FC43069F780E0CF911F91C0
:103EA0000F9108957F928F929F92AF92BF92CF927F
:103EB000DF92EF92FF920F931F93CF93DF931092B5
:103EC0008B0880912801C2B7909128018913F9CFFE
:103ED000D0E0D82B809159048F7190E1792E781A17
:103EE0000E9478171EE517B90E94DF160E94C61BB4
:103EF00017B9369A3699FECF84B195B104964091A0
:103F000000015091010167E0649F9001659F300DB1
:103F10001124820F931FE3E096958795EA95E1F7C8
:103F200090930101809300018091AD0D833019F4CD
:103F3000A8951092AD0D2091280182B7909128018B
:103F40002913F9CF90E0922B8C1B9D0B209110012F
:103F5000309111012817390720F4909311018093B3
:103F6000100180910D01882309F4D3C18091C2050D
:103F70009091C30501969093C3058093C205C72C09
:103F8000F7E1FC1508F47CC00C2D10E0C801880F87
:103F9000991F9C01265A3B4F79013FE03C1538F4AC
:103FA000C801880F991FFC01E254FB4F7F01F70104
:103FB0008081C82FC295C695C770D181C63048F49C
:103FC000DB3F38F0ED2FF0E0EE0FFF1FEC55FD4F1B
:103FD000D0818F7109F452C040E060E00E946B1BF9
:103FE000D82E80910D010F531E4F823009F444C02A
:103FF0008C2F857051F4F8018081811106C0DD207D
:1040000021F08D2F90E00E9434168FEF8C0F8230BC
:1040100050F4F8018081813079F5D1102DC0C23083
:1040200039F5DF5F25C0C63058F0F8018081811175
:1040300023C0DD2009F1F70181810E9446261CC0C2
:10404000C330D0F0DD20C1F0C43029F0C53031F4E8
:1040500068E572E005C06CE271E002C066E970E0FC
:104060008091C2059091C3050E947C92892B21F416
:104070008D2F90E00E943416F801D082C39480CF37
:1040800038E5E32E31E0F32E44E3C42E44E0D42E91
:104090005701812C912C8401000F111FF801E80DAC
:1040A000F91DEB5CFB4F80818F700E94EF12833013
:1040B00009F045C0F501C081D181209779F4F6015E
:1040C0003197C081C7FD06C0C095FAE0CF02E0017C
:1040D000112419C0DD27C7FDD09515C0D7FF12C028
:1040E000219689F4F601C081C7FD06C0CF5FFAE0D2
:1040F000CF02E001112406C0DD27C7FDD095C09591
:10410000D09501C02197080D191DF801ED5CFB4FFA
:104110008281807F89F0F801EB5CFB4F8081829582
:104120008F7089300CF08F5F40E060E00E946B1B65
:10413000811102C0CFEFDFEFF501D183C083FFEF24
:104140008F1A9F0A22E0A20EB11C33E0C30ED11CCD
:104150008CE08816910409F09ECFC12CD12C8601E9
:1041600003521E4FF801ED5EFC4F80810E94EF125A
:10417000833009F04AC0F701C08DD18D209781F4BA
:10418000F801EF5EFC4FC081C7FD06C0C095FAE0A4
:10419000CF02E00111241BC0DD27C7FDD09517C059
:1041A000D7FF14C0219699F4F801EE5EFC4FC08150
:1041B000C7FD06C0CF5F2AE0C202E001112406C09D
:1041C000DD27C7FDD095C095D09501C02197F80196
:1041D000EC5EFC4F80818823A9F089300CF08F5F62
:1041E000883F0CF096C1815086310CF095C18B3E12
:1041F0000CF487EF40E060E00E946B1B811102C06D
:10420000CFEFDFEFF701D18FC08FF4E0CF0ED11CDD
:1042100022E0E20EF11C38E1C316D10409F09FCF71
:1042200010920D018091CA04882309F472C040E005
:1042300060E08091CB040E946B1B882309F469C065
:104240008091C105882319F081508093C105809128
:10425000C10581115EC08091CA04813081F487E27A
:104260000E94E218EC016091CC046695669570E0BE
:1042700062307105D4F00E949092EB0116C081E08B
:104280000E94E218805891099C012E5F3F4F253013
:10429000310510F480E090E02091CC04269526951D
:1042A000289FE001299FD00D11242097E9F0D7FF26
:1042B0000AC0D195C195D1098091CC0480FD09C077
:1042C00046E462E202C046E461E28DE791E00E94CA
:1042D0004786CB34D105A4F0CD37D1059CF0CF3A39
:1042E000D10594F082E013C08091CC0480FD0EC013
:1042F00046E461E28DE791E00E94478684E107C0D1
:1043000088E005C086E003C084E001C080E08093BF
:10431000C10580910B01882309F400C18091470FEA
:10432000882309F44FC08091E901807CD9F080385E
:1043300019F0CAE7D0E002C0C0E9D1E00E94ED1850
:104340006AE070E00E949092CB012091E90123FD88
:1043500003C025FD0E948824C817D9071CF481E0FA
:104360000E945D87D0E0CCED80E000E010E090910D
:10437000720ED917B0F4ED2FF0E0ED58F14F9081A7
:10438000090F111D9C1708F4C92F811107C0209136
:104390005704921720F48DE10E945D8781E0DF5F72
:1043A000E6CFC80165E070E00E947C927093EE0E4B
:1043B0006093ED0ECC3D31F08C2F90E09093EA0E9F
:1043C0008093E90E8091480F882329F1809106059A
:1043D000882309F1809183048823E9F02091EB0E72
:1043E0003091EC0E96E0359527959A95E1F790E09F
:1043F0002817390784F080919B0581FF05C081E370
:1044000090E00E94341607C046E4609184048DE772
:1044100091E00E9447868091C0058F5E982F9F7023
:104420009C3008F0807F8093C005CBE5D4E000E0AD
:1044300010E0982F9073E92EE82FEF70BE2EF82F22
:10444000F07FAF2E8077F82E071508F058C068016E
:10445000CC0CDD1CF601E65AFB4F8081982F907C36
:104460009034C1F4E11016C0880F880F40E060E07E
:10447000859585950E946B1B882361F080919B0533
:1044800080FF02C0688101C061E046E48DE791E0F1
:104490000E944786F601E65AFB4F8081982F907C58
:1044A000903849F5880F880F859585958D31B4F042
:1044B000992787FD90954D978130910529F00297B6
:1044C00031F0F11018C006C0B11015C003C020E2D1
:1044D000A21211C088810E9446260DC0E1100BC0B7
:1044E00040E060E00E946B1B882329F0888180589F
:1044F00090E00E9434160F5F1F4F2296A5CF1092B6
:104500000B0180915601882349F081508093560118
:1045100005C086310CF46ECE89E06CCEDF91CF9170
:104520001F910F91FF90EF90DF90CF90BF90AF90D1
:104530009F908F907F9008950F931F93CF93DF9359
:10454000F8948091710D9091720D78942091CA0524
:104550003091CB05AC01421B530B4B30510520F081
:104560001092DD0501E001C000E09093CB0580933F
:10457000CA0518E0C0E8D12F40E060E0812F0E941A
:104580006B1B002341F08823E1F08091DD058C2B2B
:104590008093DD0516C0882311F09C2F01C090E0A8
:1045A0002091DD0592279C2361F0C227C093DD0591
:1045B000811102C0D12FD19586E08D0F833038F064
:1045C00004C0C6951150B9F602C0D1110BC060E00D
:1045D00089E00E944919882311F0D9E001C0D0E098
:1045E0000111D0E08D2FDF91CF911F910F91089590
:1045F000AF92BF92CF92DF92EF92FF920F931F93F1
:10460000CF93DF937C016B015A01D22FC091B5018A
:104610009C2F9F7D943431F080915708882321F19D
:10462000933441F487010F5F1F4F83E10E945D8740
:1046300085E00BC0953411F09234C1F4870101502C
:10464000110984E10E945D8784E00E94107D882327
:1046500071F0002711270E191F0985E00E946B7D5C
:1046600084E00E946B7D03C0953441F38701C1143F
:10467000D104E9F481E0A816B104C9F4C03611F000
:10468000CE3289F41092570801E0E114F10409F0E8
:1046900000E010E08C2F0E946B7DCE3239F481E077
:1046A00080938C0803C00170112701C0C0E0D3FFC4
:1046B00008C00E949C22882321F0082F112707FDA3
:1046C00010958091410190914201081B190B809136
:1046D0008C08833031F48091BE01080F111D87FDD5
:1046E0001A95A016B10644F48C2F0E946B7D83E1CD
:1046F0000E945D8785010AC00C151D053CF48C2FB6
:104700000E946B7D84E10E945D8786010E151F0566
:10471000A9F00115110551F48C2F0E945B7DF7FE65
:1047200002C083E101C084E10E945D878D2F837008
:104730000E94867181E08093490102C01092490174
:10474000C801DF91CF911F910F91FF90EF90DF9003
:10475000CF90BF90AF900895552747FD509577278C
:1047600067FD7095992787FD90950E94F82208951E
:1047700022E00C94AC23462F22E060E00C94AC23A2
:1047800021E00C94AC23462F21E060E00C94AC2394
:10479000462F50E022E060E070E00C94F822282FD1
:1047A00030E0883058F02850310949E0429FC0017C
:1047B000439F900D112485519C4F089545E0429FE1
:1047C000C001439F900D11248D539C4F0895CF93AA
:1047D000DF93D82F9091AB0DC92FC17090FD03C00E
:1047E00067E872E102C069E972E188E10E94C97874
:1047F000D13629F41092AB0D80E00E94061FC11142
:1048000009C04091A70E5091A80E24E060E388E40F
:104810000E94407B8091F60881508093F6088111B8
:1048200005C081E0DF91CF910C945D87DF91CF913E
:104830000895813649F40E946B7D81E00E94061F35
:104840008CE599E50E941D1F69E573E180E10E94F6
:10485000C97863E473E180E20C94C9781F93CF9325
:10486000DF93182FD62FC42FB9010E94C978DD23FA
:1048700029F06FE08C2F0E94BB23C82F8091EE019E
:104880004C2F83FF02C0440FD06250E02D2F612FC8
:1048900080E60E94407B8C2FDF91CF911F9108957D
:1048A000FF920F931F93CF93DF93182FF62E0AE0FA
:1048B0008AE0189FE0011124C950DE4F8FE190E09B
:1048C000811B9109089FA001099F500D1124BE0171
:1048D000CE010A960E940993FE01FF2041F03A970B
:1048E0008AE0DE0101900D928A95E1F709C01192EC
:1048F0000A95E9F7809106098883898384E68A838B
:1049000010930809DF91CF911F910F91FF900895A7
:104910009C01220F331F280F391F95958795959578
:104920008795280F391F9595879595958795959526
:104930008795820F931F08959C012E5E3F4F43E79A
:10494000429FC001439F900D112426E095958795C5
:104950002A95E1F70895AF92BF92CF92DF92EF923E
:10496000FF920F931F93CF93DF9390918B08963014
:1049700008F08FC08A016B019F5F90938B08E82E2F
:10498000F12C6BE0869FF0011124E05EFA4F8081EC
:10499000882349F081500E94C1149C01442737FDAF
:1049A0004095542F03C020E030E0A9016BE06E9DDC
:1049B000C0016F9D900D1124FC01E05EFA4FB6809E
:1049C000EB2DE870AE2EB3FC0DC0FC01EF5DFA4F8D
:1049D00080819181AA2797FDA095BA2F280F391FB2
:1049E0004A1F5B1F8BE08E9DE0018F9DD00D11242F
:1049F000C352DE4FFE01EA5BFC4FA081B0E011968E
:104A00000E9456923196208130E02F5F3F4F44271D
:104A100037FD4095542F0E94C692AA2061F0CC5BCE
:104A2000DC4F88819981AA2797FDA095BA2F280F7E
:104A3000391F4A1F5B1FB0FE07C050954095309547
:104A400021953F4F4F4F5F4FC114D10459F08BE078
:104A50008E9DF0018F9DF00D1124EB5DFA4F80814A
:104A6000F60180830115110569F08BE08E9DF00140
:104A70008F9DF00D1124EA5DFA4F80818695837039
:104A8000F801808380918B08815080938B08C90145
:104A900002C080E090E0DF91CF911F910F91FF90D5
:104AA000EF90DF90CF90BF90AF900895E82FF0E0A7
:104AB000E651F74EE491EE2369F0E13021F4809164
:104AC000480F811107C081E09091470F911103C0F9
:104AD00080E0089581E00895E82FFF27E7FDF09535
:104AE000E95EF54EE491262F332727FD3095C90165
:104AF00083589F4FEC3009F44AC09CF4E43021F114
:104B00004CF4E53F09F454C00CF45CC0EE5FE230B5
:104B1000C8F00895E630C1F00CF454C0EA30FCF55A
:104B20000895E43209F43FC044F4EE300CF44AC076
:104B3000E031CCF1E332C9F10895E732B4F1E73264
:104B4000E9F108952AE024C0803491059CF0880F93
:104B5000991F80549109813C910564F0880F991F39
:104B6000805C9109813C51E0950724F0880F991FE2
:104B7000885E91402AE0AC01249FC001259F900DE2
:104B800011242091E90125FF1DC00C94882424E6FE
:104B9000AC01249FC001259F900D11240895C901E7
:104BA000815A9F4F089522E3F3CF880F991F0895EC
:104BB00023E0880F991F2A95E1F708955AE06502CE
:104BC000C00111240895CF93DF93E82FFF27E7FD5D
:104BD000F095E95EF54E8491853FC9F486E20E9426
:104BE000E218EC0180E20E94E218D595C7959C017D
:104BF00035952795C29FC001C39F900DD29F900D00
:104C0000112469E170E00E949092CB013CC0863F84
:104C10004CF440E050E060E070E0815FDF91CF91C4
:104C20000C94AB248D3F54F4E82FEE0FFF0BE855A6
:104C3000FB4F8081992787FD909525C08F3F09F014
:104C400044F48E3F84F48D3FD1F480913E0190E096
:104C50001AC0843081F0833291F483E20E94E2181A
:104C6000880F991F10C0E82FEE0FFF0BEF56F74F7C
:104C70008389948908C0DF91CF910C94ED18DF915E
:104C8000CF910C94E218DF91CF910895CF92DF92EB
:104C9000EF92FF920F931F93CF93DF9300D01F9259
:104CA000CDB7DEB7182F1B821A8219820E94E32526
:104CB0007C01812F0E945625811105C08AE30E9444
:104CC000501601E001C000E0E12FFF27E7FDF0955D
:104CD000E95EF54EE491E23014F5E7FF5CC0ED3F8C
:104CE000DCF4E63F0CF04EC0E13F0CF4C1C0E53F00
:104CF0000CF0B3C0AE014E5F5F4FBE016D5F7F4FE2
:104D00008FE08E0F0E94AB247C01EB81F0E0EB5B27
:104D1000F64EE491EB83ACC0ED3F31F51DC0E332BC
:104D2000F1F07CF4EC303CF4EA300CF08BC0E43071
:104D300009F464C09DC0E03209F09AC081E08A8322
:104D40007FC0E73209F48CC01CF4E5322CF490C02B
:104D5000EC3209F46DC08CC084E28B8367C084E2BE
:104D60008B8382E08A8384C06CE370E0C7010E9479
:104D700090926B017C0146E260E0C6010E946C8764
:104D800085E36CC0EE0FFF0BE855FB4FE080FF247E
:104D9000E7FCF0946DC08E2F992787FD9095DC017C
:104DA000AA0FBB1FAA0FBB1FA358BB4F1C91129584
:104DB000169516951370880F991F880F991FDC019F
:104DC000A658BB4FDC9041E0123009F040E09E0154
:104DD0002F5F3F4F6E2FC7010E94F9137C0184E2C1
:104DE0008B8381E08A83133059F1113019F41B82CF
:104DF0001A823EC083E68D15D8F1B3CF88E38B834A
:104E00009091E901892F807293FF03C0882349F0B4
:104E100006C0882331F0C7010E9488247C0188E104
:104E20008B8388EEE81683E0F806E4F481E09ACFFD
:104E30008091E90185FF1CC0C7010E9488240BC036
:104E400083E30CC08FE28B838091E90185FF10C062
:104E5000C7010E949C247C010BC08BE38B8308C09C
:104E600081E08A83C7016AE070E00E9490927B0132
:104E7000011105C04B816A81C7010E946C870F90A8
:104E80000F900F90DF91CF911F910F91FF90EF90B6
:104E9000DF90CF9008955F926F927F928F929F9252
:104EA000AF92BF92CF92DF92EF92FF920F931F9338
:104EB000CF93DF9300D0CDB7DEB7882E762E590181
:104EC000102F6E2C80E28A83C42EDD24C7FCD09480
:104ED0008E2D8170E82E60FE26C0F601E95EF54E4B
:104EE000E491E15FE43008F010C18BE0E89FF0014D
:104EF0001124DF01A95DBA4F8C91882309F405C103
:104F0000AD0100E124E0882D0E94707812FD04C0FC
:104F100098E1992E980C08C08CE1982E980C88EF97
:104F2000780E0CE002C0982C06E0862D8870582E72
:104F300063FC1F7BF601E95EF54EF49084E0F81601
:104F400009F495C08F15DCF08DEFF81609F4A7C0B1
:104F50008F1564F081EFF8160CF4ABC084EF8F1559
:104F600094F585EFF812A5C087E79BC08FEF8F15EA
:104F70000CF045C081E08F150CF058C09AC080E25B
:104F8000F81609F489C08F156CF086E0F81609F45C
:104F90006EC0F8160CF48DC0E6EFEF0DE23008F4A9
:104FA00058C087C086E28F154CF085E2F8160CF0E9
:104FB00076C083E2F8127DC0106372C087E2F812F7
:104FC00078C0106270C0AE014F5F5F4FBE016E5F70
:104FD0007F4F8FE08F0D0E94AB242981213011F487
:104FE000106203C0223009F41063EA81F0E0E35C50
:104FF000F64EE491EA8367FC5CC05C015AC012FD86
:1050000002C08CEF980EEE2011F08AE0980E177017
:10501000012F212FA501672D8AEF890D0E94E27AC9
:10502000E3E3EF0DEA838AEF880E4CC0912F90687E
:105030004A2D552019F08DE3880D02C0892D801B63
:10504000EE24E394092F2F2D672D0E943D148A83AF
:1050500039C083E48A838091E90185FF2AC0C501B4
:105060000E949C245C0186E48A83901A22C08DE60B
:105070008A838091E90185FF08C083FD04C0C501D2
:105080000E9488245C0186E68A8388EEA81683E065
:10509000B8064CF410620DC0106281E402C01062C8
:1050A00086E78A8306C0C5016AE070E00E9490929C
:1050B0005B015520A1F18DE3880D212FA501672DFE
:1050C0000E94407B862D867069F062FE04C08AE0F3
:1050D000880D1B7F02C080916F0D212F4A81672DA3
:1050E0000E94D8778A810F900F90DF91CF911F9106
:1050F0000F91FF90EF90DF90CF90BF90AF909F9077
:105100008F907F906F905F90089521E0240F00E0D2
:1051100040E45AE1672D882D0E949578F7CE892DBD
:10512000CCCF0F931F93CF93DF93D82F162FC42F7D
:10513000022F40E358E10E94A97840E34C0F202F52
:10514000612F8CE08D0FDF91CF911F910F910C9407
:10515000D877DF92EF92FF920F931F93CF93DF9355
:10516000182FF62EC42FD22EDE2DD370A1F08091F1
:10517000B501803881F48DE7840F8B3F40F0E42F38
:10518000F0E0EE0FFF1FE856FC4FC08101C0CEE7F4
:1051900082E00E9486718DE78C0F2E2D8B3FA0F050
:1051A00043E84C0F6F2D8EEE810F0E949128DD2376
:1051B00009F122E042E850E06EE770E08C2F90E0C9
:1051C0000E94F822C82F16C04C2F552747FD509536
:1051D0006F2D812F0E94407BDD2361F0402F6D2DCC
:1051E0008C2FDF91CF911F910F91FF90EF90DF9067
:1051F0000C94B8238C2FDF91CF911F910F91FF90CA
:10520000EF90DF900895CF93DF932EE0829FC0014F
:105210001124EC01C352DE4FFE01EA54FE4F40E080
:1052200060E080810E946B1B882359F0C954DE4FD7
:1052300040E060E088810E946B1B882321F082E0BF
:1052400003C080E001C081E0DF91CF910895EF922B
:10525000FF920F931F93CF93DF93E82E162FC42F47
:10526000D42FD695F62EFD1A082F0D1B6F2D802FEB
:105270000E9475796D2F610F4C2F802F0E947279DB
:105280004C2F6F2D8D2F8E0D0E9475794C2F6F2D09
:10529000802FDF91CF911F910F91FF90EF900C9491
:1052A000727921E0AC0160E080E00C94A9780F9362
:1052B0001F93CF93DF93182FCDE8D8E088E99CE0C7
:1052C0000E945129113678F0133628F0133659F41C
:1052D0008EE09AE202C086E69DE4DF91CF911F91B5
:1052E0000F910C9420166FE87CE088E00E94C9784A
:1052F0004A815B8100E020E068E08AE20E94E27A75
:105300004C815D8120E068E08EE40E94E27A66E8EC
:105310007CE080E10E94C9784E815F8120E060E1FD
:105320008AE20E94E27A4885598584E0569547953D
:105330008A95E1F720E060E18EE40E94E27A61E87C
:105340007CE080E00E94C9784881598120E060E0DB
:105350008EE40E94E27A4EE76CE382E00E9472796A
:1053600043E26CE185E00E947579CBE043E06BE3BA
:105370008C2F0E947579CA5FC338C1F71091AF07AF
:105380008091AE07893710F0C12F01C0C0E0D6E090
:105390000CE3EC2FF0E0E055F84F4081602F641BE8
:1053A0008D2F0E947579CF5FC83708F0C0E0C11714
:1053B00019F0DF5FDE3769F7DF91CF911F910F9111
:1053C000089591E0211101C090E0411103C04DE02A
:1053D00054E002C049E054E0292F0C94A9780F93BF
:1053E00001E0211101C000E0242F48E258E10E94B1
:1053F00095780F9108950F931F93CF93DF93C82F44
:105400008A01D22F0E94C9782D2FA8016C2F84E524
:10541000DF91CF911F910F910C94407B1F93CF93FD
:10542000DF93182FCEE0D1E086EE9CE00E94512958
:105430001136A1F058F41036C1F48FEF8883198229
:105440001B821A8287E10E945D870FC0123619F015
:10545000133621F00AC087E599E202C086E69DE492
:10546000DF91CF911F910C9420164981469550E011
:1054700020E067ED7CE088E00E94FB2948814695AA
:1054800050E020E068EC7CE080E10E94FB2949814B
:1054900050E08881481B510957FF02C04F5F5F4FA2
:1054A0005595479520E069EB7CE088E10E94FB2957
:1054B0008A819B8129E1289FA001299F500D1124F9
:1054C000569547955695479520E360EB7CE080E242
:1054D0000E94FB296DE97CE088E3DF91CF911F9169
:1054E0000C94C9786F927F928F929F92AF92CF92D5
:1054F000DF92EF92FF920F931F93CF93DF934C01B4
:10550000C62F142F3901D091300840918108509155
:1055100082082091830830918408EFE3F1E08681CE
:105520009781841B950B97FDCF96A6E0959587955F
:10553000AA95E1F7682F8093540880859185821B96
:10554000930B97FDCF9676E0959587957A95E1F741
:10555000982F80935208662311F05783468399232E
:1055600011F03187208780915308811104C0809108
:10557000920585FF06C010925408109252081092AE
:10558000530880915408811108C0909152089111DC
:1055900004C022813381232B61F0209194059AEF7E
:1055A000299F90011124220F331F30933C01209337
:1055B0003B0161147104B9F1F40190819111E0C0D3
:1055C00090918C089111EFC09091BE0119160CF4C6
:1055D000E8C09111C5E61092BE01CE3209F0EDC0CF
:1055E00091E090938C08C0E08111E9C0DD24D39450
:1055F000402F50E02D2D60E08FE70E94407B0A3065
:1056000008F0CDC005E72D2D4FE260E0802F0E940D
:10561000D877412F50E04F5F5F4F2D2D60E08FEF27
:10562000800F0E94407BE114F10459F0F401908155
:105630008C2D9C1508F4892FF701E80FF11DE491DA
:1056400001C0E0E080918C088130A9F58091BE0115
:1056500018167CF4DE1710F4DF5F39F5F401808151
:105660008A1518F48F5F808302C0F4011082D0E0A5
:105670001CC08823D1F0D11117C0F4018081882388
:1056800019F08150808302C0F401A082E114F1047A
:1056900061F0F40190818C2D9C1508F4892FF7019D
:1056A000E80FF11DD49101C0D1501092BE01CE324D
:1056B00049F483E005C0833029F4CE3219F481E047
:1056C00080938C08E114F10459F0F40190818C2D41
:1056D0009C1508F4892FF701E80FF11D949101C082
:1056E00090E0809157088111C8C020915208222370
:1056F00011F1F4018081821B87FD80E04A2D50E08A
:10570000282F332727FD3095241735070CF08A2DD5
:10571000F4018083E114F10459F0C81608F48C2DCB
:10572000F701E80FF11DE491ED1718F4DE2F01C029
:10573000D0E010925208F4018081882309F437C127
:1057400020915408222309F48EC0D21BD7FDD0E04B
:105750004D2F552747FD5095E114F10479F02C2D7C
:105760008C1508F4282FF701E20FF11D249130E089
:10577000421753070CF477C0D49175C0D0E073C0C2
:1057800080915708811103C081E080938C08D12C4F
:1057900080918C0881112CCF82E0D82E29CF0FE682
:1057A00032CFC4E618CF913041F4CE3231F41092AA
:1057B0008C08C0E0811103C0EFCF882311F19091D4
:1057C000570891111EC0E12FE81BE7FDE0E0802F94
:1057D00090E02E2F332727FD30952817390714F036
:1057E000EFEFE00FFF27E7FDF095812F90E0E8173E
:1057F000F90729F0EE0FFF1FE60DF71D20C01092EC
:105800005408C53651F4111101C0102FF301E10FF6
:10581000F11DE10FF11D329712C0C43609F5212F99
:1058200030E0802F90E001972817390714F41F5FAC
:1058300001C010E0610E711C610E711CF3018591B5
:105840009491DF91CF911F910F91FF90EF90DF9096
:10585000CF90AF909F908F907F906F900C94201678
:10586000DD24D39495CFC036A1F581E090915708FF
:10587000911180E08093570807C0C03609F08AC0B4
:10588000F40180818111F1CF9091570881E091114D
:1058900007C02091410130914201232B09F480E09F
:1058A00080935608D0933008911102C081E001C066
:1058B00082E080935108DF91CF911F910F91FF906B
:1058C000EF90DF90CF90AF909F908F907F906F90F0
:1058D0000895C13608F09CC0C23489F4F401808177
:1058E0008A1591F2809157088111CECFF401808101
:1058F0008A1510F48F5F18C0F401108219C0C334E8
:1059000050F1C43409F45EC008F06CC0F401808129
:10591000882309F4B9CF809157088111B5CFF401DC
:105920008081882319F08150808302C0F401A08215
:10593000E114F10411F4D0E0A7CFF40180818C15BB
:1059400008F4C82EF701EC0DF11DE490ED1608F0F7
:105950009BCFDE2D99CFC132C9F48091570888239F
:1059600019F01092570890CFF4018081882311F02C
:10597000672831F410928C0880E00E94061F84CFC3
:1059800087E10E945D87F40110827ECFCE3209F458
:105990006CCF7ACFC136E0F5C23409F49FCF08F05E
:1059A000B0CFC132F1F2CE3209F46ACF6DCFC23638
:1059B00009F498CF08F042C0C33409F4A7CFB8F176
:1059C000C43481F4D91709F45FCFEF2809F45CCF10
:1059D00080915708811158CFD91710F4DF5F12C09A
:1059E000D0E010C0C53409F04FCFDD2309F4A3CFB8
:1059F000EF2809F449CF80915708811145CFDD2365
:105A000051F0D150992309F43FCF1092B5013CCF0A
:105A1000C53619F4EDCFD92FF5CFC636C8F4C33645
:105A200009F479CF90F6C23609F45CCF2DCFC1329C
:105A300009F493CFC23409F451CF26CFC536C1F251
:105A400038F4C33609F467CFC43609F4BECF1CCF8F
:105A5000CE3821F48EE80E946B7D7FCFCF3B29F4B6
:105A6000F40110821092570866CFC13809F00CCFAC
:105A70001092570881CFAF92CF92EF92FF920F937F
:105A8000AE2CC12CE12CF12C0E94722A0F91FF90B8
:105A9000EF90CF90AF900895CF92DF92EF92FF9268
:105AA0000F931F93CF93DF93C82F8CE89FE00E9442
:105AB0005129EE24E39406E029E738E144E06C2F15
:105AC0008DEE98E00E943B2D1091ED081092570149
:105AD000D0E0C0E0C12C94E0D92EE12CF12C41E4BF
