:100000000C942F100C9457100C9457100C945710FC
:100010000C9457100C9457100C9457100C945710C4
:100020000C9457100C9457100C94E1150C94077312
:100030000C94D6750C9436730C9457100C9442168D
:100040000C94CF150C9457100C949F7C0C94E47A6C
:100050000C9457100C9457100C9457100C94571084
:100060000C944E760C9489160C949B730C948F769A
:100070000C9457100C9457100C9457100C94571064
:100080000C9457100C9457100C9457104C1851188E
:10009000131819181F181F181F18421847184C1842
:1000A000511856185B186118E543A543B043BF4388
:1000B000C543C943CE434855545566557F558F5562
:1000C000A055B355DD550A561C565F568C56AE5694
:1000D000BE56CE56DE560E5756556855815591552B
:1000E000A255B555DF550C561E5661568E56B05664
:1000F000C056D056E056B570A5709F70A770AA7014
:10010000AE70A270B270B770C077C277C577CA7789
:10011000DD77EE77FE7709781B782D7832784B788B
:100120004E785278547856785B785F786B786F7831
:1001300077787E788278847888788A788C788E78D8
:10014000927896789B78A078A578AA78AF78204F97
:100150006C642056657273696F6E20454550524F2E
:100160004D202020434845434B2053455454494E8D
:1001700047532F43414C494200416C61726D7320DB
:1001800044697361626C65640053776974636820C5
:100190005761726E696E6700506C656173652052BD
:1001A0006573657420537769746368657300546878
:1001B000726F74746C65206E6F742069646C650076
:1001C0005265736574207468726F74746C65004551
:1001D0004550524F4D206C6F77206D656D004C4F30
:1001E0004144494E47006D537461636B206F666CE8
:1001F0006F77006D537461636B2075666C6F770069
:100200004D45535341474500707265737320616ECD
:1002100079204B657900507265737320616E792087
:100220006B657920746F20736B697000032D2D2D21
:10023000783E30783C307C787C663E30663C307C62
:10024000667C63312063322063332063342063355E
:1002500020633620633720633820633920633130D0
:100260006331316331326331336331346331356348
:10027000313600034F46464142535255735255257D
:10028000454C73454C25544873544825414C7341A3
:100290004C255031205031255032205032255033DA
:1002A00020503325002D2D2D004348002D2D2D20CD
:1002B000000450312020503220205033202048416B
:1002C0004C4646554C4C43594331435943324359AC
:1002D000433350504D3150504D3250504D335050AB
:1002E0004D3450504D3550504D3650504D37505084
:1002F0004D38434831204348322043483320434857
:10030000342043483520434836204348372043486B
:10031000382043483920434831304348313143483D
:10032000313243483133434831344348313543480F
:10033000313633504F5347563120475632204756B7
:1003400033204756342047563520475636204756E7
:10035000372054484953002D2D2D2D0000006428CE
:10036000100703010452554420454C45205448527F
:100370002041494C200020414C45525400000102CC
:10038000030002010303010200030201004F4E209B
:10039000004F46460003544852525544454C454987
:1003A000443049443149443241494C474541545213
:1003B0004E5357315357325357335357345357359E
:1003C0005357365357375357385357395357415369
:1003D0005742535743001B1E272D36394B4E636C33
:1003E0007278878D939CB1B4C6C9D2D8E1E45370BA
:1003F0006C61736800804000000000000000000095
:1004000000000000000000000000000000000000EC
:1004100000000000000000000000000000000000DC
:1004200000000000000000000000000000000000CC
:1004300000000000000000000000000000000000BC
:10044000000080C0E0E0F0F8F8FCFCFCF8F8F8F000
:1004500040000000000080808000000000000000DC
:1004600000000000000000000000000080C0C0E0AC
:10047000E0E0F0F0F0E0C00000000000C0F8FFFF96
:100480009F8783838383838383838383838383831C
:1004900083838383838383830383808383838383AF
:1004A000838383838383838383838383838383831C
:1004B0008383C3E3733F1F0000000080E0F0F8FC7B
:1004C000FEFFFFFFFF7F3F1F1F0F0783C3E1E1E038
:1004D000E0C0000E1F3F7F7FFFF3E0E080000000E0
:1004E0000000000000000080F0FCFEFFFFFFFF7F27
:1004F0003F0F0301010100000080F0FEFFFFC7C1B4
:10050000C1C1C1C1C1C1C1C1C1C1C1C1C1C1C1C1DB
:10051000C1C1C1C1C101C1F0FEFF3F0F070F0D0DE9
:100520000D1D191919193131313171616161E1C143
:10053000C1C18100000080E0F8FCFFFFFFFF2F1722
:100540000F038180C0E0F0F8FCFEFFFFFFFFFFFF1C
:100550007F010000000000000001010307070E1EDC
:100560001C3870E0F0F8FEFFFF7F1F0F0300010052
:10057000000000000000000000000000000000007B
:10058000000000000000000000000000000000006B
:10059000000000000000000000000000000000005B
:1005A000000000000000000000000000000000004B
:1005B00000000000007EFFFFFFFFFFFFFBF8FCFCD8
:1005C000FEFF7F3F1F0F07C3FFFFFFFFFFFF7F07F8
:1005D0000000000000000000000000000000C0E07B
:1005E000F8FEFFFF7F1F0F1F3D7CF8F8F0E0800052
:1005F00000000000000000000000000000000000FB
:1006000000000000000000000000000000000000EA
:1006100000000000000000000000000000000000DA
:1006200000000000000000000000000000000000CA
:10063000000000000000000101010101030707079D
:100640000301000000E0FCFFFFFFFFFF1F030000AD
:10065000000000000000000000C0F078DE27130951
:100660000E0703000000000000000001030F7FFFE1
:10067000FC7878F800000000000000000000008016
:10068000808080808080808000808000808000006A
:1006900000000000008080808080808080808080DA
:1006A00080808080808080000000000000000000CA
:1006B000000000000000000000000000000000003A
:1006C000000080F0FEFFFFFFFF3F0F010000000071
:1006D00000000000C0E0381E0F0300010000000011
:1006E000000000000000000000000000000000000A
:1006F0000000030301000000000000000000000EE5
:100700000E02020202020303000F0F000F0F08087F
:1007100008080808080F0F08080808080F0F00004D
:1007200000000F0F000000000000000000000000AB
:1007300000000000000000000000000000000000B9
:10074000C0F8BFFFFFFF1F7F010000000000000096
:1007500000F0FCFF7F783000000000000000000087
:100760000000000000000000000000000000000089
:100770000000000000000000000000000000000079
:100780000000000000000000000000000000000069
:100790000000000000000000000000000000000059
:1007A0000000000000000000000000000000000049
:1007B0000000000000000000000000000000301CED
:1007C000070E0F07010000000000000000000000FD
:1007D0000000000000000000000000000000000019
:1007E0000000000000000000000000000000000009
:1007F0000000000000000000204D4F443A20465207
:10080000534B59204E485420202020002053564E50
:100810003A20312E312E3131370054494D453A209E
:1008200031303A32303A323500444154453A20337F
:10083000302E30342E3230313500564552533A2066
:1008400056312E3131372D34726566306E74006347
:1008500070750074687225007770006474680067B2
:10086000416C00616C740068646F700073617400A7
:100870004E6F20475053002052544B2020002044FC
:1008800047505320003344204669780032442046C4
:100890006978004E6F20466978004E4F44415441BC
:1008A0000044495341524D0041524D4544004E4F82
:1008B00044415441004E4F204D4156004E4F20447C
:1008C0005256004D4F44453139004D4F4445313863
:1008D000004D4F44453137004D4F44453136004DB2
:1008E0004F44453135004D4F4445313400494E4960
:1008F0005400475549444544004C4F495445520023
:1009000052544C004155544F004154756E6500439C
:10091000525549534500464257420046425741000E
:100920004143524F00545241494E00535441424CAE
:10093000495A00434952434C45004D414E55414CA4
:1009400000202020202020202020200056343D0799
:1009500056353D0E56363D0056313D0756323D0E5A
:1009600056333D00096D7068005370643D096B7427
:1009700073204D61783D00416C743D096D2020204D
:100980004D61783D004C6F6E3D004C61743D1248E6
:100990006467000A52504D004675656C0022047C65
:1009A0005E54546D0003457870457846466E654D3B
:1009B00065644372730041323D0041313D00115482
:1009C0004F54000153544B115354250001544D45CD
:1009D00011545357005354415400035B4D454E5539
:1009E0005D20746F207265667265736800746D6156
:1009F000696E0F6D7300746D7231204A697474658D
:100A0000720F757300746D72314C6174206D696E74
:100A10000F757300746D72314C6174206D61780FC5
:100A20007573005354415432004D6F646500205279
:100A300045544100014368616E6E656C204F7264DD
:100A4000657200496E742E204672736B7920616C5A
:100A500061726D0043726F73735472696D00456EFD
:100A600061626C652050504D53494D0042616E6487
:100A700047617000537469636B5363726F6C6C00F1
:100A8000506F745363726F6C6C00416C61726D20B7
:100A90005761726E696E67004D656D6F7279205790
:100AA00061726E696E670044656661756C7420538F
:100AB00077005468726F74746C65205761726E6948
:100AC0006E670053706C617368204E616D650053F2
:100AD000706C6173682073637265656E004C696742
:100AE0006874206F6E2053746B204D76004C6967DC
:100AF0006874206F66662061667465720042616387
:100B00006B6C6967687420696E76657274004C69F5
:100B10006768742073776974636800466C617368F2
:100B2000206F6E2062656570004265657020636F9E
:100B3000756E74646F776E004D696E7574652062B2
:100B4000656570005468726F74746C6520726576A8
:100B50006572736500496E616374697669747920A2
:100B6000616C61726D136D004261747465727920FD
:100B70007761726E696E6700436F6E747261737431
:100B8000002048617074696320537472656E6774E5
:100B9000680020537065616B6572205069746368EA
:100BA00000566F6C756D65000A4265657065722050
:100BB000202020506953706B7220202020426565F0
:100BC0007072566F696365506953706B566F6963D5
:100BD000654D656761536F756E642000536F756E68
:100BE00064204D6F646500065175696574204E6F11
:100BF0004B6579207853686F727453686F727420F4
:100C00004E6F726D20204C6F6E672020784C6F6E97
:100C1000672000426565706572004F776E657220CF
:100C20004E616D6500000900524144494F20534513
:100C300054555000036D6F64650A2520737263205C
:100C40002073770043616C004D756C7469706C693A
:100C500065720003636831636832636833636834C4
:100C600000036F6666202B3D203A3D0007536C6100
:100C7000766500000303030300545241494E455278
:100C80000056455253494F4E005472696D2D202B2A
:100C90000005204D656E75204578697420446F7796
:100CA0006E20202055705269676874204C65667408
:100CB00000444941470012424700414E4100034D64
:100CC0004F564520535449434B532F504F545300D4
:100CD00005534554204D4944504F494E5400035B41
:100CE0004D454E555D20544F2053544152540043BE
:100CF000414C4942524154494F4E00096672656564
:100D0000004D4F44454C53454C0001524554410061
:100D100020464D30004D4F4445530020464D00467F
:100D2000616465204F7574004661646520496E00FA
:100D30005472696D7300537769746368000003002F
:100D4000464C204D4F444500015245544100032D6F
:100D50002D2D5031205032205033204756344756E5
:100D60003547563647563700566F6C756D652043CC
:100D70006F6E74726F6C004175746F204C696D6991
:100D80007473005432546854726967005472616914
:100D90006E657200452E204C696D697473000350B6
:100DA0004F534E45470053686966742053656C0085
:100DB00050504D20317374204368616E0003416DC3
:100DC000654A61704575720020436F756E74727963
:100DD00000034431364438204C525000205479707E
:100DE0006500094C50342F4C5035202044534D326F
:100DF0006F6E6C792044534D322F44534D5800444C
:100E0000534D20547970650042696E642020526110
:100E10006E67650050504D2046724C656E0D6D53E7
:100E20006563000B52784E756D00043443482036DC
:100E30004348203843482031304348313243483119
:100E400034434831364348001375530011755365D8
:100E500063000650504D2020205058582020204438
:100E6000534D32202050504D31362050504D534973
:100E70004D0050726F746F0052455441313233004F
:100E80004265657020436E740046617374204D693D
:100E9000782044656C6179005472696D2053770045
:100EA00006457870202020457846696E6546696E53
:100EB0006520204D656469756D436F6172736500CF
:100EC0005472696D20496E6300542D4578706F002F
:100ED000542D5472696D000A436F756E7420446F0F
:100EE000776E436F756E74205570202000547269C0
:100EF0006767657242005472696767657200566F72
:100F000069636520496E646578114D454E55004E04
:100F1000616D650000090001000000000000000094
:100F20000602010053455455500052414E4745209A
:100F3000434845434B20525353493A000642494ED9
:100F400044494E47004475706C69636174696E670B
:100F5000206D6F64656C0044454C455445204D4FF1
:100F600044454C004455504C4943415445204D4F55
:100F700044454C0044725377320044725377310039
:100F80000257656967687400024578706F00044411
:100F90005220486900044452204C6F7700044452A8
:100FA000204D696400004558504F2F445200012BDA
:100FB0002A52004D4958455200032020202020206D
:100FC00020200044454C455445204D49583F0003DE
:100FD0005B4D454E555D0B5B455849545D000359CB
:100FE00045530B4E4F005072657373205B45584953
:100FF000545D20746F2061626F7274004D617820BF
:101000006D69786572732072656163683A20333266
:101010000002536C6F77202055700002536C6F777D
:101020002020446F776E000244656C617920557012
:10103000000244656C617920446F776E000841645A
:101040006420202020204D756C7469706C79526585
:10105000706C6163652000024D756C7470780002DD
:101060005761726E696E6700024D4F44455300022E
:10107000537769746368004375727665000D44693F
:10108000666600025472696D0002466C4D6F6465BD
:101090007472696D0002466978204F6666736574E4
:1010A000004F666673657400466D5472696D5661D3
:1010B0006C00025765696768740002536F7572634C
:1010C000650045444954204D495820000000000067
:1010D00000000000000400032D2D2D783E30783CE8
:1010E000307C787C663E30663C307C667C633120A8
:1010F00063322063332063342063352063362063FA
:1011000037206338206339206331306331316331F4
:1011100032633133633134633135633136000D4F1F
:101120006E00072D2D2D2D202020763E6F6673201A
:1011300020763C6F667320207C767C3E6F66737CE5
:10114000767C3C6F6673414E44202020204F522015
:1011500020202020584F522020202076313D3D76FF
:1011600032207631213D76322076313E7632202093
:1011700076313C7632202076313E3D763220763113
:101180003C3D76322054696D654F66660053000021
:1011900003435553544F4D205357495443484553E7
:1011A00000064F4E202020204F4646202020424F50
:1011B000544820203135536563733330536563736E
:1011C00036305365637356617269626C0056530022
:1011D00007203820536563733132205365637331C0
:1011E000362053656373000153415658004E756DA8
:1011F00062657220566F69636520537700000002B4
:101200005341464554592053574954434845530088
:10121000032D2D2D52746D45746D54746D41746D94
:1012200052454E525544454C4554485241494C5004
:101230003120503220503320633120633220633319
:1012400020633420633520633620633720633820E1
:101250006339206331306331316331326331336359
:101260003134633135633136004756000001474C55
:101270004F42414C205641525300042D2D2D2D41FB
:10128000312020413220204641535600437572726E
:10129000656E7420536F757263650053696E6B20C1
:1012A000546F6E6573000253656E73697469766975
:1012B0007479000253776974636800042D2D2D2D15
:1012C000767370644132202000566172696F3A2053
:1012D000536F7572636500464153204F66667365B0
:1012E0007400437573746F6D20446973706C617919
:1012F00000477073416C744D61696E00566F6C7479
:101300002054687265733D00034F464631323234D3
:10131000303000416C74416C61726D004E756D200F
:10132000426C61646573006D416820416C61726D4F
:1013300000527800547852535349616C726D00002A
:101340000101010054454C454D45545259320001AC
:101350003C3E00616C726D0001762D5641004120CB
:10136000206368616E6E656C00034D6574496D7035
:1013700000052053746420204D61762000054672DC
:1013800048756257534868690050726F746F000067
:1013900002010202010254454C454D455452590088
:1013A000434F5059205452494D205B4D454E555D99
:1013B0000000034C494D49545300435600435552D5
:1013C000564553005052455345540000435552561C
:1013D0004500032D2D2D494E56004756005B4D45C7
:1013E0004E555D205748454E20444F4E45005345CD
:1013F0004C45435400434F5059004D4F564500440F
:10140000454C455445004544495400494E534552C6
:101410005400434F5059004D4F56450044454C45EC
:10142000544500FA5B312B61287236D527042D20F4
:1014300057CE355E3CFB508F608850FF5240628F24
:10144000287C2E9E2A12081200081C0808081C0876
:101450000000082200490022080000000000227F4E
:101460002200000008220049002208000008220093
:1014700049002208000000227F220000000000082E
:101480002200490022080000081C0808081C080067
:101490000101010000000202020202020202020235
:1014A000000202020202020202000000000000002C
:1014B000020202020203030303065761726E312027
:1014C0005761726E322043686561702052696E67A1
:1014D0002020536369466920526F626F742043680D
:1014E00069727020546164612020437269636B7477
:1014F000536972656E20416C6D436C6B526174610F
:1015000074615469636B2020486170746331486171
:10151000707463324861707463330054696D65722E
:1015200000032D2D2D59656C4F7267526564005470
:10153000524530313241470052783D0054783D00E9
:10154000204142434445464748494A4B4C4D4E4F43
:10155000505152535455565758595A6162636465F5
:10156000666768696A6B6C6D6E6F707172737475A3
:10157000767778797A303132333435363738395FA7
:101580002D2E0000010203FEFF0406080A0B0C0DBD
:101590000E0F23FD202425261D1E1F27F6F7F8F920
:1015A000FAFBFCF52811292AF1F2F3F4042D2D2D74
:1015B0002D41313D2041323D205253534954535324
:1015C0004954696D3154696D32416C742047616CC6
:1015D000744773706454313D2054323D2052504D55
:1015E000204655454C4D6168314D61683243766CFB
:1015F0007442617474416D70734D61682043746FFF
:101600007446617356416363584163635941636330
:101610005A567370644776723147767232477672E3
:10162000334776723447767235477672364776722C
:101630003746776174527856204864672041333DBD
:101640002041343D20534331205343322053433310
:1016500020534334200053776974636820576172C4
:101660006E696E670067656E777269746520657272
:10167000726F7200454550524F4D20466F726D613A
:101680007474696E670042616420454570726F6DC5
:10169000204461746100434845434B204D49582F15
:1016A000445220534F5552434553004D4F44454CEF
:1016B0002020202020004D452020202020202020F8
:1016C00000454550524F4D206F766572666C6F77BE
:1016D00000E2AEA1A6A4A2C02F25AF00000000002A
:1016E00000000000000000000000000000000000FA
:1016F0000000000000000000000000333B1F0F004E
:10170000000000C0C0C0C0C0C0C0C0C0C000000059
:1017100000000000000000000000000000000000C9
:10172000000000183C3C180000000000000080C0D1
:10173000E070381C0C0C0E070301000000000000D4
:1017400000FCFE87C3E377FEFC00000F1F3B313037
:10175000381F0F00000C0EFFFF00000000000030DB
:10176000303F3F3030000000000C0E0783C3E77E9F
:101770003C00003C3E37333130303000000303C3BF
:10178000C3C3E7FE3C00003030303030391F0F005B
:1017900000C0E070381C0EFFFF00000303030303CA
:1017A000033F3F00003F3F33333373E3C300000C7C
:1017B0001C383030381F0F0000FCFEC7C3C3C78E73
:1017C0000C00000F1F383030391F0F00000303C317
:1017D000E3733B1F0F000000003F3F0000000000CC
:1017E000003CFEE7C3C3E7FE3C00000F1F3930306A
:1017F000391F0F00003C7EE7C3C3E7FEFC0000007A
:101800000030381C0E07030000183C3C1800000094
:10181000000000060F0F0600000000F0F8DCCEC745
:10182000C7CEDCF8F03F3F0000000000003F3FFF64
:10183000FFC3C3C3C3C3E7FE3C3F3F30303030304B
:10184000391F0FFCFE0703030303070E0C0F1F389D
:1018500030303030381C0CFFFF030303070E1CF838
:10186000F03F3F303030381C0E0703FFFFC3C3C3C7
:10187000C3C3C303033F3F3030303030303030FF1C
:10188000FFC3C3C3C3C3C303033F3F000000000043
:10189000000000FCFE0703C3C3C3C7CECC0F1F3834
:1018A00030303030303F3FFFFFC0C0C0C0C0C0FF4D
:1018B000FF3F3F0000000000003F3F00000303FF28
:1018C000FF03030000000030303F3F3030000000D5
:1018D0000000000303FFFF03030C1C383030381FE7
:1018E0000F0000FFFFC0E0F0381C0E07033F3F0071
:1018F0000103070E1C3830FFFF000000000000004D
:10190000003F3F3030303030303030FFFF0E1CF8B9
:10191000F81C0EFFFF3F3F0000000000003F3FFFAC
:10192000FF3870E0C08000FFFF3F3F000000010370
:10193000033F3FFCFE070303030307FEFC0F1F38B2
:1019400030303030381F0FFFFFC3C3C3C3C3E77E3F
:101950003C3F3F0000000000000000FCFE070303C6
:10196000030307FEFC0F1F383033371E1C3F33FFC5
:10197000FFC3C3C3C3C3E77E3C3F3F000003070E62
:101980001C38303C7EE7C3C3C3C3C78E0C0C1C3865
:1019900030303030391F0F03030303FFFF0303030D
:1019A00003000000003F3F00000000FFFF000000B8
:1019B000000000FFFF0F1F3830303030381F0FFF9E
:1019C000FF000000000000FFFF03070E1C38381C5A
:1019D0000E0703FFFF000000000000FFFF0F1F388D
:1019E000381F1F38381F0F0F1F38F0E0E0F0381F86
:1019F0000F3C3E0703010103073E3C3F7FE0C080F0
:101A000080C0E07F3F000000013F3F010000000375
:101A1000030383C3E3733B1F0F3C3E373331303046
:101A20003030300000000000000000000030303096
:101A3000303030303030300000303030303070E016
:101A4000C00C1E3F33333333333F3FFFFFC0E070E2
:101A5000303070E0C03F3F3030303030381F0FC082
:101A6000E070303030303000000F1F383030303010
:101A7000381C0CC0E070303070E0C0FFFF0F1F3822
:101A800030303030303F3FC0E0703030303070E0C8
:101A9000C00F1F3B33333333330303C0C0FCFEC7D7
:101AA000C303070E0C00003F3F000000000000F0E1
:101AB000F89C0C0C0C0C0CFCFC000133333333335E
:101AC0003B1F0FFFFFC0E070303070E0C03F3F00B1
:101AD00000000000003F3F00003030F3F300000042
:101AE00000000030303F3F30300000000000003088
:101AF00030F3F300000C1C383030381F0F0000FFAB
:101B0000FF0080C0E0703000003F3F03070F1C382B
:101B100030000000000303FFFF0000000000003061
:101B2000303F3F30300000F0F03070E0E07070E0A7
:101B3000C03F3F0000030300003F3FF0F0C0E070F3
:101B4000303070E0C03F3F0000000000003F3FC069
:101B5000E0703030303070E0C00F1F38303030303F
:101B6000381F0FF0F03030303030F0E0C03F3F032E
:101B700003030303030100C0E0F0303030E0C0F0A5
:101B8000F000010303030303033F3FF0F0C0E070E4
:101B9000303070E0C03F3F0000000000000000C097
:101BA000E0F0303030303000003031333333333315
:101BB0003F1E0C3030FFFF30300000000000000FEF
:101BC0001F383030381C0CF0F0000000000000F02E
:101BD000F00F1F383030381C0C3F3FF0F000000091
:101BE000000000F0F003070E1C38381C0E0703F04D
:101BF000F0000000000000F0F00F1F38381C1C3807
:101C0000381F0F3070E0C08080C0E0703030381C6A
:101C10000F07070F1C3830F0F0800000000000F0C4
:101C2000F0000133333333333B1F0F30303030306B
:101C3000B0F0F0703030383C3E3733313030300067
:101C4000000000000000006F000007000700147F84
:101C5000147F14242A7F2A122313086462364955FC
:101C600022500005030000001C2241000041221CFC
:101C70000014083E081408083E0808005030000010
:101C8000080808080800606000002010080402002E
:101C90003E49453E0000427F4000625149460041B6
:101CA000494936001814127F0027454539003E493E
:101CB00049320001790503003649493600064929B1
:101CC0001E0000363600000056360000081422417F
:101CD00014141414144122140800020151090600BE
:101CE000060909067E0909097E7F494949363E41B0
:101CF0004141227F4141221C7F494949417F0909D5
:101D000009013E4149497A7F0808087F00417F4127
:101D1000002040413F017F081422417F4040404065
:101D20007F020C027F7F0408107F3E4141413E7FCD
:101D3000090909063E4151215E7F091929462649B4
:101D400049493201017F01013F4040403F1F20408F
:101D5000201F3F4030403F63140814630708700899
:101D6000076151494543007F4141000204081020AA
:101D70000041417F00040201020440404040400015
:101D80000102040020545454787F484444383844B5
:101D9000444420384444487F3854545418087E0939
:101DA00001020C5252523E7F0804047800447D40E8
:101DB000002040443D007F1028440000417F400047
:101DC0007C041804787C0804047838444444387C43
:101DD00014141408081414187C7C080404084854CB
:101DE000545420043F4440203C4040207C1C204070
:101DF000201C3C4020403C44281028440C505050AB
:101E00003C4464544C44000836410000007F00000C
:101E100000413608000808221C08081C2208080196
:101E200002040810204080408008042010020100B5
:101E300000891112239B322446AD573665BF744882
:101E40008CC19D5AAFD3BE6CCAE5DB7EE9F7F88141
:101E500010080193331A22A5562C47B7753E64C962
:101E60009C408DDBBF52AEEDDA64CBFFF976E80221
:101E7000218B30100299132667AF763444BD554A42
:101E8000ADC3BC588ED19F6EEBE7FA7CC8F5D98301
:101E9000310A2091121803A7772E66B5543C45CB22
:101EA000BD42ACD99E508FEFFB66EAFDD874C904E1
:101EB000428D5316619F702004A9153227BB364C02
:101EC000CEC5DF5EEDD7FC6888E1997AABF3BA85C1
:101ED000520C4397711E60A1142805B3373A26CDE2
:101EE000DE44CFDFFD56ECE9986089FBBB72AA06A1
:101EF000638F7214409D512225AB343006B9174EC2
:101F0000EFC7FE5CCCD5DD6AA9E3B8788AF19B8780
:101F1000730E6295501C41A3352A24B1163807CFA1
:101F2000FF46EEDDDC54CDEBB962A8F99A708B0860
:101F30008481951AA793B62CC2A5D33EE1B7F04091
:101F400008C919522BDB3A644EED5F766DFF7C8930
:101F50009400859BB712A6ADD224C3BFF136E0C171
:101F6000184809D33B5A2AE55E6C4FF77D7E6C0A10
:101F7000A583B4188691972EE3A7F23CC0B5D14251
:101F800029CB38500AD91B666FEF7E744CFD5D8BF0
:101F9000B502A499961087AFF326E2BDD034C1C331
:101FA000394A28D11A580BE77F6E6EF55C7C4D0CD0
:101FB000C685D71EE597F42880A1913AA3B3B24411
:101FC0004ACD5B5669DF78600CE91D722FFB3E8DB0
:101FD000D604C79FF516E4A9902081BBB332A2C5F1
:101FE0005A4C4BD7795E68E11C680DF33F7A2E0E90
:101FF000E787F61CC495D52AA1A3B03882B19346D1
:102000006BCF7A5448DD59622DEB3C700EF91F8F6F
:10201000F706E69DD414C5ABB122A0B9923083C7B0
:102020007B4E6AD5585C49E33D6A2CF11E780F3629
:10203000860A0C0D0B103536072F303132333484BD
:1020400088979A111314151609181B122B2C2D2E74
:1020500005191C1D1E1F2720A1223636C080112401
:102060001FBECFEFD0E1DEBFCDBF11E0A0E0B1E0F9
:10207000E2EAF3E002C005900D92AA35B107D9F764
:102080001FE0AAE5B1E001C01D92AB38B107E1F74E
:1020900010E1CFE2D0E104C02197FE010E947C81D3
:1020A000CE32D107C9F70E94E77E0C94CF810C9401
:1020B0000000E091AE0594E0E99FF0011124E80FE3
:1020C000F11DE358FC4F84918F5F0895853030F007
:1020D000883030F08E3030F083E0089580E008954D
:1020E00081E0089582E008952AE0829FC0011124D2
:1020F0008B5E9D4F089525E0829FC00111248B5A6D
:102100009C4F08950F93022F24FF03C00F7E9DE282
:1021100001C094E2411106C024E047E553E00E946B
:10212000FA6B14C0453028F42FEF240F44E653E037
:102130000BC0941728F02BEF240F41EB52E004C0A2
:102140002CED240F4CEA55E10E941F6C0F9108956D
:102150000F93CF93DF93C82FD62F022F411104C0C6
:1021600024E04CEA52E00EC04A3010F086E101C093
:1021700081E18C0F50E0202F6D2F0E94CA6E22E06B
:1021800049EA52E06D2F8C2F0E94FA6BDF91CF91BC
:102190000F9108950F931F93CF93DF93D62FC42FE2
:1021A000022F16E0180F442339F0463141F04A3E21
:1021B00081F441E953E005C045EA52E002C04DE830
:1021C00053E06D2F812FDF91CF911F910F910C94D0
:1021D000336C47FF04C041E20E94626BC1952FEF50
:1021E0002C0F45E953E06D2F812F0E941F6CDF916A
:1021F000CF911F910F910895EF92FF920F931F932C
:10220000CF93DF93D82F162FF42EE22EC091060223
:1022100081E0821708F442C02C2F27FD2195203140
:1022200068F4042F43E752E08D2F0E941F6CCF3FCC
:10223000CCF52F2D41E2612F8AEF19C0253230F401
:102240001C1614F441EF22C04FE020C0CA339CF0AA
:10225000C353042F2C2F4CE252E08D2F0E941F6C91
:10226000C0310CF4D6502F2D45E2612F82E18D0F45
:102270000E94626B17C0242F4DE682E18D0F0E94F1
:10228000626B1C1614F44CED01C044E24C0F2F2D70
:10229000612F8AEF8D0F0E94CA1004C082E02813BC
:1022A00013C004C0E11010C0C13071F42F2D409153
:1022B0007604612F8AEF8D0FDF91CF911F910F91DF
:1022C000FF90EF900C94CA10DF91CF911F910F9166
:1022D000FF90EF9008950F931F93CF93DF938901A1
:1022E00024E0629FE0011124FE01E856FB4FE081EB
:1022F000F0E0442311F0EE0FFF1F9F01DC010E946C
:10230000CC80C856DB4F2B81207C203C51F424E646
:1023100030E040E050E00E943B81F8018081806223
:1023200010C0E436F10578F4660F771F881F991FF7
:1023300023E330E040E050E00E943B81F8018081DF
:102340008063808306C02FEF30E040E050E00E94C1
:102350003B81C901DF91CF911F910F910895DF92C9
:10236000EF92FF920F931F93CF93DF931F92CDB7FE
:10237000DEB7D82EF62E942F822F098350E060E02E
:1023800070E024E0829F80011124F801E856FB4FA1
:102390003381307C303821F4EE2089F041E003C0F5
:1023A000EE2091F040E09E012F5F3F4F682F892F74
:1023B00090E00E946B11AC0160E070E018C0440F27
:1023C000551F661F771F13C0303C89F4292F30E05A
:1023D000AFEFB0E00E94CC8024E630E040E050E077
:1023E0000E943B81BA01A9018981806289830856D4
:1023F0001B4FF801838186FD14C00981006285E0CE
:10240000E82E9A01AB016F2D8D2D0E94486D298118
:1024100027FD1BC046E76F2D8091800D0E94626BE7
:1024200014C029816F2D8D2D0E94CA6EF801838101
:10243000807C803C61F4298127FD0BC041E46F2D35
:102440008091800D0E94626B04C086E703C080E229
:1024500001C081E40F90DF91CF911F910F91FF9008
:10246000EF90DF900895873038F4E82FF0E0EE0F1A
:10247000FF1FE257F74F24C08C3050F18431C0F475
:10248000482F50E0FA01EE0FFF1FEC5BFE4F20815A
:102490003181803148F4440F551FFA01EC57FA4F4F
:1024A00080819181281B390BC901880F991F0895DC
:1024B000843248F4E82FF0E0EE0FFF1FEA5BF74F9D
:1024C000808191810895893418F484520C94C82035
:1024D00080E090E008950E94E37E8111FCCF10928D
:1024E000B10D08950F931F93CF93DF938C01EB01F0
:1024F0000E94186B24E046E753E060E082E20E940D
:10250000336CB80180E20E94536CBE0188E20E94E5
:10251000536C66E172E080E3DF91CF911F910F91E0
:102520000C94536C0F93262F00E045E953E060E1D3
:102530000E941F6C0F910895CF93DF93D6E1C0E006
:102540008D2F0E947F70CC0FC82BD150DE30C1F789
:102550008C2FDF91CF9108950F931F93CF93DF932B
:10256000D82F0BEF11E0CAE0F80141918F0124E070
:102570006D2F8C2F0E94626BC55FC837A9F7DF9162
:10258000CF911F910F9108950F931F93CF938C01BB
:10259000C62F0E94186BB80188E10E94536CC111CC
:1025A00009C048E052E068E38CE10E94596C46E7BC
:1025B00053E002C040E052E024E060E086E10E9487
:1025C000336CCF911F910F910C948E6F61E00C943E
:1025D000C41270E0882399F090E0019725E0289FCD
:1025E000F001299FF00D1124E60FF71FEE0FFF1FDA
:1025F000E054FB4F808191818B509E4F0895660F70
:10260000771FFB01EE5FFE4F0190F081E02D80818E
:10261000992787FD909508951F93CF93DF93D82F27
:10262000162FC4E0DD2399F0612F8D2F0E94E9124F
:102630009C01253F81E0380764F09BE0920F9D17D5
:1026400010F09CE0920FC15029F0D92FEBCFC0E0E1
:1026500001C0CD2F8C2FDF91CF911F910895CF9383
:10266000C62F0E940C136C2FCF910C94E912EF929D
:10267000FF920F931F93CF93DF93EA019A012358A0
:102680003F4F7901062F10E0882321F10E940C139F
:10269000882301F13BEFE316F10440F01C161D0600
:1026A0001CF0C3E8DFEF02C0CDE7D0E090E0019777
:1026B00045E0489F9001499F300D1124F901E00F3A
:1026C000F11FEE0FFF1FE054FB4FC55FD140D183D8
:1026D000C08315C08BEFE816F10440F01C161D06F0
:1026E0001CF0C3E8DFEF02C0CDE7D0E0F801EE0F49
:1026F000FF1FEE5FFE4F0190F081E02DC08386E06A
:10270000DF91CF911F910F91FF90EF900C946F6527
:10271000AF92BF92CF92DF92EF92FF920F931F93EF
:10272000CF93DF937C016B015A01D22FC091DB0163
:102730009C2F9F7D943431F080916C08882321F187
:10274000933441F487010F5F1F4F83E10E94BB78F0
:1027500085E00BC0953411F09234C1F4870101502B
:10276000110984E10E94BB7884E00E947F70882375
:1027700071F0002711270E191F0985E00E94CE7005
:1027800084E00E94CE7003C0953441F38701C114E8
:10279000D104E9F481E0A816B104C9F4C03611F0FF
:1027A000CE3289F410926C0801E0E114F10409F0D2
:1027B00000E010E08C2F0E94CE70CE3239F481E020
:1027C0008093A10803C00170112701C0C0E080916F
:1027D000730190917401081B190B8091A10883303B
:1027E00031F48091E401080F111D87FD1A95A016A0
:1027F000B10644F48C2F0E94CE7083E10E94BB7816
:1028000085010AC00C151D053CF48C2F0E94CE706A
:1028100084E10E94BB7886010E151F05A9F0011501
:10282000110551F48C2F0E94BE70F7FE02C083E1A7
:1028300001C084E10E94BB788D2F83700E946F6578
:1028400081E080937B0102C010927B01C801DF917F
:10285000CF911F910F91FF90EF90DF90CF90BF909D
:10286000AF900895552747FD5095772767FD7095E0
:10287000992787FD90950E948813089522E00C9473
:102880003214462F22E060E00C943214462F50E0C0
:1028900022E060E070E00C94881321E00C94321484
:1028A000462F21E060E00C943214E0917D01F0E0CD
:1028B000EE0FFF1FE058FE4F808191810895E09157
:1028C0007D01F0E0EE0FFF1FE258FE4F9183808301
:1028D0008FEB80937C010895E2EAF8E0108E168A6F
:1028E000158A178A0895AC01E2E5FEE097A19031C0
:1028F00080F420A531E0320F30A7DF01A20FB11D17
:10290000A20FB11D4D935C93303108F010A69F5F6C
:1029100097A3089590E08C5F9E4F0C94731490E001
:102920000C9473148093E60190E040970C94731418
:10293000FC018091B90590A181FF75C081A1992307
:1029400011F0846001C08B7F81A386A1813059F58D
:10295000C79A97A181A1992321F121A541E0420FB6
:1029600041A7DF01A20FB11DA20FB11D2D913C9116
:1029700035A324A3403108F011A6915097A337FD49
:1029800002C091E101C098E293A38C7F37FD826081
:1029900081A381A18BBBC7988FE182A382E086A32C
:1029A00008958BBB49C081110CC0C79A81A1836077
:1029B00081A38BBB8091810D8D3308F43DC086E0EF
:1029C00030C0823009F439C081A18BBBC79ABF984F
:1029D00000C0000000C086B38078BF9A96A19330F3
:1029E00051F4811102C084E01CC083A1815083A3F3
:1029F0008823C9F321C0943021F48823E9F083E0CF
:102A00000EC0953039F483A1815083A3811114C085
:102A100081E007C0963081F4882371F084E183A3BC
:102A200085E086A309C08091B60586FB882780F9DA
:102A3000981711F0C79A0895C79808951BBA8FE1A7
:102A40008ABB00C029B38FEF8ABBECEDF1E0878130
:102A5000882311F080E202C0822F807E8483322F8F
:102A6000307C8081381761F08074982F990F20781E
:102A70008181921711F0815001C08F5F8183308373
:102A800082819381891711F08383818308959091C6
:102A9000AE0590FD02C093E08927E82FF0E0E456F0
:102AA000F74FE081E7FDE95FE595E595E5951E16B1
:102AB00024F0EE2321F0E19502C080E801C080E01F
:102AC000E8300CF0E7E0FF27E7FDF095E45AFC4F13
:102AD000E491EE2319F099E0909388018E2B0895EC
:102AE000833021F0811104C0E3E003C0E0E001C0C5
:102AF000E82FF0E0EE0FFF1FED51FA4F40815181BA
:102B0000843080F42091CB0530E002C035952795C4
:102B10008A95E2F720FF06C080E098E09C01241B24
:102B2000350BA901CA010895EF92FF920F931F93ED
:102B3000CF93C0E000E010E08C2F0E947015E92ECA
:102B4000F12C0E0D1F1DCF5FC430B1F7C801CF911E
:102B50001F910F91FF90EF9008950E9470152091A2
:102B6000B00520FF03C09195819591090895E3EE8A
:102B7000F5E080E0982F906497B9369A3699FECFA9
:102B800024B135B1369A3699FECF44B155B1240FF0
:102B9000351F219331938F5F883061F708957894C2
:102BA0001F920F920FB60F9211248F9380915A01AA
:102BB0008F5F80935A018F910F900FBE0F901F90DF
:102BC000189578941F920F920FB60F9211242F939D
:102BD0003F938F939F93EF93FF93F89487B78F7BE7
:102BE00087BF78942091A5018091A7019091B905A4
:102BF000882359F090FF07C08091880F820F80933F
:102C0000880F87FF02C01B9A01C01B9891FF2AC042
:102C100080917D09811126C0E2E5FEE086A1823027
:102C200009F583A1882311F081501BC081A1C79AA7
:102C300092A190FD09C08D7F24A135A136FD82604F
:102C4000220F331F35A324A391E089278BBB81A3D7
:102C5000C79882A1815082A3811104C083E086A31A
:102C600085E083A3F89487B7806487BF7894FF9149
:102C7000EF919F918F913F912F910F900FBE0F90E9
:102C80001F90189578941F920F920FB60F921124EF
:102C90002F933F934F935F936F937F938F939F9364
:102CA000AF93BF93EF93FF9381B7845681BF83EABD
:102CB00091E00E94EC760E94DE700E94D67D8091A9
:102CC000BE0D82608093BE0DEAE0F1E0808181500C
:102CD00011F0808304C084E6808381E08183828157
:102CE000815011F0828304C08AE0828381E0838373
:102CF000FF91EF91BF91AF919F918F917F916F91D4
:102D00005F914F913F912F910F900FBE0F901F90A9
:102D1000189578941F920F920FB60F9211242F934B
:102D20003F934F935F936F937F938F939F93AF9353
:102D3000BF93EF93FF932091800030918100F8942E
:102D400080917D008F7D80937D0078948091DC055B
:102D50009091DD05A901481B590BCA0196958795ED
:102D60003093DD052093DC059C01215A3F402F3D27
:102D70003E4220F481E080935B012DC0E0915B0135
:102D80002FEF2E0F283038F59C0121523340273782
:102D90003540F8F424E62093E50121E02E0F20933E
:102DA0005B01F0E0EE0FFF1FE65AFE4F9C012C5D29
:102DB00035409091B405965F929FA001939F500D6E
:102DC0001124CA016AE070E00E9427817183608348
:102DD00002C010925B01F89480917D008062809324
:102DE0007D007894FF91EF91BF91AF919F918F916A
:102DF0007F916F915F914F913F912F910F900FBEF7
:102E00000F901F901895E82FF0E0EE0FFF1FEC5485
:102E1000F14FF894808191817894089584E00E9424
:102E200003172091C1073091C207820F931F0895A5
:102E30009C0145E0359527954A95E1F7280F391F04
:102E4000AC01440F452F441F550B241B350B892F14
:102E5000990F990B8595820F931F08959DE7980F01
:102E60009B3F88F08E57E82FF0E0EE0FFF1FEE54E7
:102E7000FB4F808186171CF46083862F08954817C6
:102E800014F44083842F089544E66CE90C942E17C3
:102E9000282F90910C02892F807194FF04C081E04B
:102EA000223009F080E0089549E284029001112463
:102EB0003595279535952795982F87FD915C96FB3D
:102EC000990F990B90F9A901491B510997FD539549
:102ED000CA0108954F925F926F927F928F929F9254
:102EE000AF92BF92CF92DF92EF92FF920F931F9318
:102EF000CF93DF93882331F0863109F40BC18A3EEA
:102F000019F40AC1862F0FC187310CF005C1642E58
:102F1000782EC82F87FF04C0C195CA3068F4FEC060
:102F200029E0281748F08EE0870D0E947F7071100D
:102F3000FAC091E08927F7C0CA50D0E07E01EE0CBC
:102F4000FF1CC7018C0F9D1FFC01EF5AFB4F228114
:102F50002F7009F4E1C0FE01E453FA4F6F01F4E071
:102F6000F61520F4F60180818170CFC08C010550E8
:102F70001E4F5801FAEAAF1AFDEFBF0AF501408073
:102F8000095A1D4FF8015080FC01ED5AFB4F80811A
:102F90008F700E94661081111CC08FEF840D0E94FB
:102FA00033124C01F5018081853274F09BEDB92E0E
:102FB000B80EF80160818B2D0E9451208C018B2D61
:102FC0000E943B20B82E1BC0F80180810E9454173C
:102FD0000CC0823071F48FEF840D0E9433124C01CB
:102FE000F801808181500E9433128C01BB24B3947C
:102FF00006C0BB24B39400E010E0812C912CF701B3
:10300000EC0FFD1FED5AFB4F8081E82FEF708E2FE4
:1030100090E0FC013197EE30F10508F05EC0EA5B0C
:10302000FF4F0C947C8197FE37C091948194910856
:1030300033C097FE36C091948194910832C001E06C
:10304000060D402F60E0842D0E946A17182F402F34
:1030500060E0852D0E946A17F701EC0FFD1FEF5A03
:10306000FB4F22812F70253019F41123B1F104C0D8
:10307000263029F4111133C0811131C02EC0982F90
:10308000912727C091E080169106C9F422C091E0F3
:1030900080169106F1F413C091E008151905CCF0E3
:1030A0000EC091E080169106A4F009C091E0801650
:1030B00091067CF404C091E00815190554F490E0E1
:1030C00008C0F701E657FE4F91819095991F992707
:1030D000991FBB2011F0911104C080E014C0BB20E7
:1030E000E1F3CE0DDF1DCD5ADB4F888182958F70C5
:1030F00049F089300CF08F5F41E0460D60E00E949E
:103100006A1701C081E0F6018083171464F061E062
:10311000862709C081E007C080E005C08EE08719DE
:103120000E947F7006CFDF91CF911F910F91FF908A
:10313000EF90DF90CF90BF90AF909F908F907F9057
:103140006F905F904F90089540E060E080919B0504
:103150000E946A17811114C080916D0190916E01D7
:10316000892B71F41092720E8091810D9091E2057D
:10317000981751F08093E20582E59EE00C94981434
:1031800081E08093720EF0CF089520916D0130910F
:103190006E012115310511F021503109882319F0F4
:1031A0008091B20501C080E090916C01992329F0D3
:1031B0009091BA05891708F4892F4AEF849FC001BE
:1031C0001124880F991F8217930708F4C90190935F
:1031D0006E0180936D010C94A418AF92BF92CF92B0
:1031E000DF92EF92FF920F931F93CF93DF93809123
:1031F000820D9091830D9091E105282F291B20933A
:103200006F018093E10560E086E498E00E948B4FB7
:1032100080916F01882309F4D0C2E2EAF8E087893F
:1032200080FF0EC0808D91E0980F943610F4908F3F
:1032300007C08356808F858996890196968B858BEA
:103240008091E501882319F081508093E50180E0A9
:103250000E94C9650E94186B0E941370B82E082F37
:103260000F700650C0910D02C43021F0C33019F424
:10327000C4E001C0C8E0083008F0ABC08B2D807FEF
:10328000803209F4A6C0E091AE0544E0E49FF0016D
:103290001124802F8695E80FF11DE358FC4F1491FF
:1032A0008091CA0580FF03C083E0811B182F612F26
:1032B000809142060E940C13F82E612F0E942F135A
:1032C0009C01C1110CC0EC0197FF04C0CC27DD2785
:1032D000C81BD90BD595C795D595C795CF5F12302B
:1032E00071F480910C0280FF03C091E0C2E001C044
:1032F00090E08091B00580FF03C0C19501C090E0CF
:10330000DD27C7FDD09500FF03C0C20FD31F04C047
:10331000A9014C1B5D0BEA01209709F448C24D2F0F
:103320004095441F4427441F832F8095881F88277A
:10333000881F481789F091110FC0232B69F040E0D6
:1033400050E0612F8F2D0E9437138B2D0E94CE707D
:1033500086E10E94BB783CC0CE0184589F4F893FD4
:10336000910578F4AE01612F8F2D0E943713D7FF9E
:1033700003C0D195C195D109D595C795D595C79568
:1033800020C01C161D061CF043E85FEF02C04DE78D
:1033900050E0612F8F2D0E943713CE0183589F4F2D
:1033A0008B3F9105A8F4D7FF03C0D195C195D109F2
:1033B000D7FD2396D595C795D595C795D195C19538
:1033C000D1094C2F445C65E183EA91E00E94A57726
:1033D000B12CE1E7F1E020919A0830919B088081BF
:1033E0009181821B930B97FD4F9645E095958795AC
:1033F0004A95E1F7009751F084819581821B930BE8
:1034000097FD019695958795318320833583248395
:103410002091B00525FD04C020916808222311F0F9
:1034200080E090E093838283CCEDD1E09D8189811F
:10343000891B8F3F09F480E087FD8F5F8595888722
:10344000282F220F920F9D838B290E94C5188091EF
:10345000C605895FE0917D01F0E0EE0FFF1FE258A5
:10346000FE4F20813181285A364409F047C0288513
:103470002223B1F09E81332727FD3095290F311D7E
:1034800097FD3A952E37310514F09DE705C0233896
:103490009FEF39071CF493E89E8301C02E831886A2
:1034A00090917704292F207E49F1929596959770F7
:1034B000892F90E0843091055CF4880F991FFC01FE
:1034C000EC56F74F208131813C5F60E078E00DC021
:1034D000880F991FFC01EE54FB4F2081332727FDF5
:1034E000309523583F4F6AEF70E047E0429FC0019C
:1034F000439F900D11240E941381862F9091E60125
:1035000089130E9492148091B60587FF3AC080917A
:1035100089018823B1F1809188018823A1F18091EC
:10352000E00587FD03C08F5F8093E00582E00E9485
:103530004715982F9F7779F02091E005921718F59D
:103540001092E005B1101FC0B82EBB1CBB24BB1CE1
:1035500022E6B20E18C083E00E944715982F9F778D
:1035600091F02091E005921770F41092E005B110EF
:103570000AC0B82EBB1CBB24BB1C85E68B19B82E19
:1035800002C01092880181E080938901A0904206D8
:103590000091E201112707FD1095C0E0D0E0AAE0FC
:1035A000EA2EF12CAE0145505E4F6A01FA01E85453
:1035B000FD4F60816623C1F1653030F461508A2D82
:1035C0000E942F13BC0122C06530F9F0862F90E0D5
:1035D000880F991FFC016A3010F06D3070F4EE57BF
:1035E000F74F6081718177FF02C0695F7F4FE3E031
:1035F00075956795EA95E1F709C0EC5AF74F808118
:103600009181B7010E94278101C0B80163385FEF43
:1036100075072CF06D3771051CF06DE701C063E88C
:10362000F601E954FD4F60832296CE30D10509F0B2
:10363000B9CF8091F9019091FA010097B1F060E063
:103640000E94C4120E94E37E9091DF05992339F015
:10365000811125C01092FA011092F90120C088232F
:10366000F1F081E08093DF051AC01092DF05C09170
:103670007C01CC2331F010927C0187E10E94BB7861
:10368000BC2EB092DB01E0917D01F0E0EE0FFF1F58
:10369000E258FE4F0190F081E02D8B2D09950E949C
:1036A0008E6FC091650083EA91E00E94D8768823EE
:1036B00011F084E105C080918A0F882321F08150A8
:1036C00080938A0F06C080916300869581708093F5
:1036D000890F8091890F8093F701882309F465C0D1
:1036E0008091B60585FD61C0CF7EC0936500809155
:1036F000810D8F71823009F055C02091F105309114
:10370000F205B90144E0660F771F4A95E1F737FFEC
:1037100002C0295F3F4F93E0359527959A95E1F7D1
:1037200040919A05552747FD50954A5F5F4F249F6A
:10373000C001259F900D349F900D1124860F971F77
:103740002091B00526FD05C0609100017091010136
:1037500002C060EF70E00E94138180917001680FD9
:10376000711D6F5F7F4F75956795609370018091B4
:10377000DE05805F8093DE05811114C0809199057C
:10378000681780F4623370F06EE281E10E94C178C4
:103790008091B00583FF06C082E390E090936E01B4
:1037A00080936D0110926C0108C0C0619ECF911191
:1037B000D9CD232B09F4D6CDC2CDDF91CF911F9166
:1037C0000F91FF90EF90DF90CF90BF90AF90089552
:1037D000CF93DF932091F801222339F09093FA01DF
:1037E0008093F901DF91CF910895C62F60E00E9488
:1037F000C412C11103C08091980501C089E10E94E3
:10380000576F67E182E10E94C1780E946B12D1E09C
:103810000E94E37E882321F0DF91CF910C946B12FC
:103820008091BE0D833019F4A8951092BE0D40E032
:1038300060E080919B050E946A17811106C080910B
:10384000B205811102C0CC2329F0D093720E0E94E0
:10385000A418DECF1092720EFACF90917D019111D3
:1038600003C0811106C00BC0811102C0915001C07C
:1038700090E090937D018EEB80937C01089560E051
:1038800083EF91E00C94E81BE0917D01E43028F097
:1038900060E086EE91E00C94E81B2FEB20937C0116
:1038A000EF5FE0937D01F0E0EE0FFF1FE258FE4F67
:1038B0009183808308950F931F93CF9308EC14E0B6
:1038C00090E0F8018081C1E0C90F882341F040E019
:1038D00060E00E946A17882311F08C2F06C09C2F8D
:1038E000065F1F4FC43069F780E0CF911F910F91A1
:1038F00008958F929F92AF92BF92CF92DF92FF92E4
:103900000F931F93CF93DF931092A00880915A01D9
:10391000C2B790915A018913F9CFD0E0D82B80918A
:1039200077048F7190E1F92EF81A0E94B7151EE501
:1039300017B90E941E150E94ED1817B9369A3699CC
:10394000FECF84B195B104964091000150910101E0
:1039500067E0649F9001659F300D1124820F931FD3
:10396000B3E096958795BA95E1F79093010180931E
:1039700000018091BE0D833019F4A8951092BE0D00
:1039800020915A0182B790915A012913F9CF90E002
:10399000922B8C1B9D0B2091100130911101281747
:1039A000390720F4909311018093100180910D014B
:1039B000882309F476C18091DA059091DB050196A0
:1039C0009093DB058093DA059F2CFFE0F91508F44E
:1039D00083C0092D10E0C801880F991FFC01E85829
:1039E000FB4FA080DA2DD295D695D770680121ECD7
:1039F000C21A2EEFD20AF601EE0FFF1FE550FE4F5E
:103A0000B080D63050F4EAEFEB1538F4AB2DB0E0CF
:103A1000AA0FBB1FAE53BD4FBC90FC01E858FB4F33
:103A200080818F7109F456C040E060E00E946A17FF
:103A3000C82F80910D0109511E4F823009F448C0F2
:103A40008D2F857051F4F8018081811106C0CC233F
:103A500021F08B2D90E00E9473148FEF8D0F823038
:103A600050F4F8018081813099F5C11131C0D23014
:103A700059F5B39429C0D63078F0F80180818111CE
:103A800027C0CC2329F1F601EE0FFF1FE550FE4FB2
:103A900080810E9420211CC0D330D0F0CC23C1F003
:103AA000D43029F0D53031F468E572E005C06CE21D
:103AB00071E002C066E970E08091DA059091DB0563
:103AC0000E941381892B21F48B2D90E00E947314A6
:103AD000F801C083939479CF3AE8832E31E0932E96
:103AE00042E5A42E44E0B42EC12CD12C8601000F57
:103AF000111FF801EC0DFD1DED5AFB4F80818F70F9
:103B00000E946610833009F045C0F401C081D18164
:103B1000209779F4F5013197C081C7FD06C0C095A3
:103B2000FAE0CF02E001112419C0DD27C7FDD095CE
:103B300015C0D7FF12C0219689F4F501C081C7FDD9
:103B400006C0CF5FFAE0CF02E001112406C0DD27F6
:103B5000C7FDD095C095D09501C021970C0D1D1DB6
:103B6000F801EF5AFB4F8281807F89F0F801ED5A0E
:103B7000FB4F808182958F7089300CF08F5F40E021
:103B800060E00E946A17811102C0CFEFDFEFF401FD
:103B9000D183C083FFEFCF1ADF0A22E0820E911C8F
:103BA00083E0A80EB11C9CE0C916D10409F09ECF99
:103BB00010920D018091E804882309F472C040E05E
:103BC00060E08091E9040E946A17882309F469C0C3
:103BD0008091D905882319F081508093D90580916F
:103BE000D90581115EC08091E804813081F487E2BB
:103BF0000E940317EC016091EA046695669570E0F7
:103C000062307105D4F00E942781EB0116C081E07B
:103C10000E940317805891099C012E5F3F4F253069
:103C2000310510F480E090E02091EA042695269575
:103C3000289FE001299FD00D11242097E9F0D7FF9C
:103C40000AC0D195C195D1098091EA0480FD09C0CF
:103C500046E462E202C046E461E283EA91E00E9447
:103C6000A577CB34D105A4F0CD37D1059CF0CF3A60
:103C7000D10594F082E013C08091EA0480FD0EC06B
:103C800046E461E283EA91E00E94A57784E107C0FF
:103C900088E005C086E003C084E001C080E0809336
:103CA000D90580910B01882309F4FDC08091580F3C
:103CB000882309F44FC080910702807CD9F08038B6
:103CC00019F0CAE7D0E002C0C0E9D1E00E940E17A7
:103CD0006AE070E00E942781CB012091070223FD5A
:103CE00003C025FD0E941820C817D9071CF481E0E5
:103CF0000E94BB78D0E0CCED80E000E010E0909135
:103D0000830ED917B0F4ED2FF0E0EC57F14F90810E
:103D1000090F111D9C1708F4C92F811107C02091AC
:103D20007504921720F48DE10E94BB7881E0DF5F7B
:103D3000E6CFC80165E070E00E9413817093FF0E2A
:103D40006093FE0ECC3D31F08C2F90E09093FB0EF3
:103D50008093FA0E8091590F882329F180912405D0
:103D6000882309F18091A1048823E9F02091FC0EB9
:103D70003091FD0E96E0359527959A95E1F790E004
:103D80002817390784F08091B90581FF05C081E3C8
:103D900090E00E94731407C046E46091A20483EA95
:103DA00091E00E94A5778091D8058F5E982F9F7033
:103DB0009C3008F0807F8093D805C9E7D4E000E00C
:103DC00010E0E82FE073CE2EF82FFF709F2E282FE3
:103DD000207F822E8077D82E0F1508F05BC0580107
:103DE000AA0CBB1CF501E858FB4F8081982F907CF2
:103DF0009034C1F4C11016C0880F880F40E060E015
:103E0000859585950E946A17882361F08091B90590
:103E100080FF02C0688101C061E046E483EA91E06E
:103E20000E94A577F501E858FB4F8081982F907C80
:103E3000903861F5880F880F859585958731CCF08E
:103E4000992787FD909547978130910541F0823001
:103E5000910541F0892BD1F4D11018C006C0911002
:103E600015C003C080E2881211C088810E94202101
:103E70000DC0C1100BC040E060E00E946A178823AB
:103E800029F08881805890E00E9473140F5F1F4FC3
:103E90002296A2CF10920B0180918801882319F0FD
:103EA000815080938801DF91CF911F910F91FF90F6
:103EB000DF90CF90BF90AF909F908F900895282F64
:103EC00030E0883058F02850310949E0429FC00165
:103ED000439F900D1124875F9B4F089545E0429FBB
:103EE000C001439F900D11248F519C4F0895CF9393
:103EF000DF93D82F9091BC0DC92FC17090FD03C0E6
:103F00006AE27FE002C06CE37FE088E10E94536CCC
:103F1000D13629F41092BC0D80E00E942D1CC111F5
:103F200009C04091B80E5091B90E24E060E388E4D6
:103F30000E94CA6E809109098150809309098111FC
:103F400005C081E0DF91CF910C94BB78DF91CF91D8
:103F50000895813649F40E94CE7081E00E942D1CA4
:103F60008BEF90E50E94441C6CEF7FE080E10E94A3
:103F7000536C66EE7FE080E20C94536C1F93CF93FA
:103F8000DF93182FD62FC42FB9010E94536CDD2365
:103F900029F06FE08C2F0E944114C82F80910C02F1
:103FA0004C2F83FF02C0440FD06250E02D2F612FB1
:103FB00080E60E94CA6E8C2FDF91CF911F910895E9
:103FC000FF920F931F93CF93DF93182FF62E0AE0E3
:103FD0008AE0189FE0011124CB5EDD4F8FE190E075
:103FE000811B9109089FA001099F500D1124BE015A
:103FF000CE010A960E949D81FE01FF2041F03A9772
:104000008AE0DE0101900D928A95E1F709C01192D4
:104010000A95E9F7809117098883898384E68A8362
:1040200010931909DF91CF911F910F91FF9008957F
:104030009C01220F331F280F391F95958795959561
:104040008795280F391F959587959595879595950F
:104050008795820F931F08959C012E5E3F4F43E783
:10406000429FC001439F900D112426E095958795AE
:104070002A95E1F70895E82FF0E0E057FB4EE49130
:10408000EE2369F0E13021F48091590F811107C0CE
:1040900081E09091580F911103C080E0089581E074
:1040A0000895E82FFF27E7FDF095ED57FA4EE491CC
:1040B000262F332727FD3095C90183589F4FEC30B9
:1040C00009F44AC09CF4E43021F14CF4E53F09F4D2
:1040D00054C00CF45CC0EE5FE230C8F00895E630E6
:1040E000C1F00CF454C0EA30FCF50895E43209F450
:1040F0003FC044F4EE300CF44AC0E031CCF1E3327E
:10410000C9F10895E732B4F1E732E9F108952AE000
:1041100024C0803491059CF0880F991F8054910928
:10412000813C910564F0880F991F805C9109813C66
:1041300051E0950724F0880F991F885E91402AE08E
:10414000AC01249FC001259F900D112420910702EE
:1041500025FF1DC00C94182024E6AC01249FC0014B
:10416000259F900D11240895C901815A9F4F0895EC
:1041700022E3F3CF880F991F089523E0880F991F3A
:104180002A95E1F708955AE06502C00111240895C7
:10419000CF93DF93E82FFF27E7FDF095ED57FA4E19
:1041A0008491853FC9F486E20E940317EC0180E206
:1041B0000E940317D595C7959C0135952795C29FF9
:1041C000C001C39F900DD29F900D112469E170E052
:1041D0000E942781CB0131C08D3F54F4E82FEE0FB0
:1041E000FF0BEA53FB4F8081992787FD909525C0EF
:1041F0008F3F09F044F48E3F84F48D3FD1F48091D9
:10420000700190E01AC0843081F0833291F483E22F
:104210000E940317880F991F10C0E82FEE0FFF0BA5
:10422000EA55F74F8389948908C0DF91CF910C94A8
:104230000E17DF91CF910C940317DF91CF91089562
:10424000CF92DF92EF92FF920F931F93CF93DF9362
:104250001F92CDB7DEB7182F19820E94C8207C01AB
:10426000812F0E943B20811105C08AE30E948F1498
:1042700001E001C000E0E12FFF27E7FDF095ED57D9
:10428000FA4E6491643009F474C0D4F46D3F09F4BB
:10429000AFC07CF4653F09F49DC00CF4ADC0E62FBF
:1042A000EE0FFF0BEA53FB4FE080FF24E7FCF09496
:1042B000A3C06F3F09F00CF44DC06230DCF09CC02D
:1042C000633209F444C054F46A300CF495C06C3085
:1042D0000CF477C0603209F488C08EC0673209F4EC
:1042E0007CC024F465320CF083C086C06C3209F4C3
:1042F0005FC082C0862F992787FD9095DC01AA0FA9
:10430000BB1FAA0FBB1FA556BB4F1C91129516953C
:1043100016951370880F991F880F991FDC01A856F6
:10432000BB4FDC9041E0123009F040E09E012F5F6E
:104330003F4FC7010E946B117C01133009F455C037
:10434000113009F459C083E68D1508F451C062E0BC
:1043500044E257C06CE370E0C7010E9427816B0103
:104360007C0146E260E0C6010E94CA7860E045E355
:1043700048C090910702892F807293FF03C0882361
:1043800049F006C0882331F0C7010E9418207C0143
:1043900048E101C048E388EEE81683E0F80654F1EE
:1043A000C7016AE070E00E9427817B0160E029C0BC
:1043B0008091070285FF20C0C7010E9418207C0160
:1043C0001BC08091070285FF1AC0C7010E942C20E4
:1043D0007C0115C060E04BE314C0C7016AE070E0E7
:1043E0000E9427817B0161E008C061E043E309C0CE
:1043F00061E0AECF61E005C060E040E002C060E097
:104400004FE2011103C0C7010E94CA780F90DF91EB
:10441000CF911F910F91FF90EF90DF90CF90089573
:104420009F92AF92BF92CF92DF92EF92FF920F9343
:104430001F93CF93DF93F82EB62EC42F6901D02F90
:10444000AE2C8E2D8170982EE0FE13C000E021E08E
:10445000240F4CEA55E18F2D0E941F6CD2FD03C042
:1044600018E11F0D07C01CE11F0D88EFB80E0CE00E
:1044700002C01F2D06E08A2D8870E82EA3FCDF7B8A
:10448000EC2FFF27E7FDF095ED57FA4EC491C630AB
:1044900009F464C08CF4CF3F09F044F4CE3F7CF5BE
:1044A000C53F59F1CD3F09F477C079C0C230C4F19E
:1044B000C43009F453C073C0C33209F46BC064F450
:1044C000CA300CF46CC0CC300CF43DC0C03209F0E2
:1044D00066C0D062C1E464C0C5320CF460C0C732AB
:1044E0000CF45AC0C73209F05AC0D062C6016AE063
:1044F00070E00E9427816B0152C0C7E751C0D2FF14
:1045000014509110165FD7700D2F2D2FA6016B2D13
:104510008AEF810F0E946C6ECD5C8AEFF80E49C065
:104520009D2F90684C2DEE2019F08DE38F0D02C069
:10453000812F801BEE24E394092F2C2F6B2D0E94DA
:10454000AF11C82F36C08091070285FF43C0C60156
:104550000E942C206C01101BC6E422C0809107022F
:1045600085FF07C083FD07C0C6010E9418206C01AB
:1045700002C0CDE601C0C6E688EEC81683E0D806C4
:1045800014F4D0620DC0C6016AE070E00E94278179
:104590006B0106C0D06301C0D062C6E701C0C0E2B3
:1045A000EE20D1F08DE38F0D2D2FA6016B2D0E94F3
:1045B000CA6E8A2D867091F0A2FE04C08AE08F0D2B
:1045C000DB7F02C08091800D2D2F4C2F6B2D0E9420
:1045D000626B04C0C3E4E4CF812FE6CF8C2FDF9160
:1045E000CF911F910F91FF90EF90DF90CF90BF90F0
:1045F000AF909F9008950F931F93CF93DF93D82F81
:10460000162FC42F022F4AED53E10E94336C40E372
:104610004C0F202F612F8CE08D0FDF91CF911F91D8
:104620000F910C94626BDF92EF92FF920F931F93A6
:10463000CF93DF93182FF62EC42FD22EDE2DD370FA
:10464000A1F08091DB01803881F48DE7840F8B3FEE
:1046500040F0E42FF0E0EE0FFF1FEA54FC4FC08162
:1046600001C0CEE782E00E946F658DE78C0F2E2D92
:104670008B3FA0F043E84C0F6F2D8EEE810F0E9410
:10468000FB22DD2309F122E042E850E06EE770E012
:104690008C2F90E00E948813C82F16C04C2F5527EE
:1046A00047FD50956F2D812F0E94CA6EDD2361F06A
:1046B000402F6D2D8C2FDF91CF911F910F91FF9087
:1046C000EF90DF900C943E148C2FDF91CF911F91CF
:1046D0000F91FF90EF90DF900895CF93DF932EE03E
:1046E000829FC0011124EC01C550DE4FFE01EA5447
:1046F000FE4F40E060E080810E946A17882359F0F5
:10470000C954DE4F40E060E088810E946A17882328
:1047100021F082E003C080E001C081E0DF91CF9111
:104720000895EF92FF920F931F93CF93DF93E82E9C
:10473000162FC42FD42FD695F62EFD1A082F0D1B39
:104740006F2D802F0E94FF6C6D2F610F4C2F802FDB
:104750000E94FC6C4C2F6F2D8D2F8E0D0E94FF6CD4
:104760004C2F6F2D802FDF91CF911F910F91FF90D4
:10477000EF900C94FC6C21E0AC0160E080E00C94C4
:10478000336C0F931F93CF93DF93182FC2EAD8E0B7
:1047900085ED99E00E94BB23113678F0133628F09E
:1047A000133659F487E994E202C088EA96E4DF916F
:1047B000CF911F910F910C945F146CEC79E088E01D
:1047C0000E94536C4A815B8100E020E068E08AE24D
:1047D0000E946C6E4C815D8120E068E08EE40E9456
:1047E0006C6E63EC79E080E10E94536C4E815F81D6
:1047F00020E060E18AE20E946C6E4885598584E081
:10480000569547958A95E1F720E060E18EE40E9495
:104810006C6E6EEB79E080E00E94536C48815981A8
:1048200020E060E08EE40E946C6E4EE76CE382E074
:104830000E94FC6C43E26CE185E00E94FF6CCBE0DF
:1048400043E06BE38C2F0E94FF6CCA5FC338C1F753
:104850001091C4078091C307893710F0C12F01C0A0
:10486000C0E0D6E00CE3EC2FF0E0EB53F84F4081D2
:10487000602F641B8D2F0E94FF6CCF5FC83708F03C
:10488000C0E0C11719F0DF5FDE3769F7DF91CF9124
:104890001F910F91089591E0211101C090E0411105
:1048A00003C041E953E002C04DE853E0292F0C94C6
:1048B000336C0F9301E0211101C000E0242F42ED81
:1048C00053E10E941F6C0F910895893621E09207F1
:1048D0001CF08856914004C097FF02C088599E4F33
:1048E0006FE070E00E942781CB0108950E9465244B
:1048F0008F5B9E4FFC01808108950E946524885D36
:104900009E4FFC01808108950F931F93CF93DF93F7
:10491000C82F8A01D22F0E94536C2D2FA8016C2F13
:1049200084E5DF91CF911F910F910C94CA6E1F9374
:10493000CF93DF93182FCEE0D1E083E29AE00E947C
:10494000BB231136A1F058F41036C1F48FEF8883E1
:1049500019821B821A8287E10E94BB780FC012362F
:1049600019F0133621F00AC081EC93E202C088EA04
:1049700096E4DF91CF911F910C945F144981469585
:1049800050E020E064E17AE088E00E9484244881DD
:10499000469550E020E065E07AE080E10E948424C2
:1049A000498150E08881481B510957FF02C04F5F81
:1049B0005F4F5595479520E066EF79E088E10E94CA
:1049C00084248A819B8129E1289FA001299F500D81
:1049D0001124569547955695479520E36DEE79E05D
:1049E00080E20E9484246AED79E088E3DF91CF9130
:1049F0001F910C94536C6F927F928F929F92AF9203
:104A0000CF92DF92EF92FF920F931F93CF93DF939A
:104A10004C01C62F142F3901D091450840919608BA
:104A2000509197082091980830919908E1E7F1E0BA
:104A300086819781841B950B97FDCF96A6E095956F
:104A40008795AA95E1F7682F8093690880859185FD
:104A5000821B930B97FDCF9676E0959587957A9577
:104A6000E1F7982F80936708662311F057834683F8
:104A7000992311F03187208780916808811104C043
:104A80008091B00585FF06C01092690810926708F2
:104A90001092680880916908811108C09091670898
:104AA000911104C022813381232B61F02091B20542
:104AB0009AEF299F90011124220F331F30936E012A
:104AC00020936D0161147104B9F1F4019081911189
:104AD000E0C09091A1089111EFC09091E4011916E6
:104AE0000CF4E8C09111C5E61092E401CE3209F051
:104AF000EDC091E09093A108C0E08111E9C0DD24F0
:104B0000D394402F50E02D2D60E08FE70E94CA6EB5
:104B10000A3008F0CDC005E72D2D4FE260E0802F70
:104B20000E94626B412F50E04F5F5F4F2D2D60E080
:104B30008FEF800F0E94CA6EE114F10459F0F40166
:104B400090818C2D9C1508F4892FF701E80FF11D39
:104B5000E49101C0E0E08091A1088130A9F5809145
:104B6000E40118167CF4DE1710F4DF5F39F5F40168
:104B700080818A1518F48F5F808302C0F40110824F
:104B8000D0E01CC08823D1F0D11117C0F40180817E
:104B9000882319F08150808302C0F401A082E114BF
:104BA000F10461F0F40190818C2D9C1508F4892F9B
:104BB000F701E80FF11DD49101C0D1501092E4012A
:104BC000CE3249F483E005C0833029F4CE3219F4A3
:104BD00081E08093A108E114F10459F0F40190817F
:104BE0008C2D9C1508F4892FF701E80FF11D949185
:104BF00001C090E080916C088111C8C020916708C5
:104C0000222311F1F4018081821B87FD80E04A2D6F
:104C100050E0282F332727FD3095241735070CF057
:104C20008A2DF4018083E114F10459F0C81608F4C8
:104C30008C2DF701E80FF11DE491ED1718F4DE2F2C
:104C400001C0D0E010926708F4018081882309F444
:104C500037C120916908222309F48EC0D21BD7FDE9
:104C6000D0E04D2F552747FD5095E114F10479F020
:104C70002C2D8C1508F4282FF701E20FF11D24913B
:104C800030E0421753070CF477C0D49175C0D0E0E0
:104C900073C080916C08811103C081E08093A108EA
:104CA000D12C8091A10881112CCF82E0D82E29CF60
:104CB0000FE632CFC4E618CF913041F4CE3231F452
:104CC0001092A108C0E0811103C0EFCF882311F139
:104CD00090916C0891111EC0E12FE81BE7FDE0E008
:104CE000802F90E02E2F332727FD30952817390786
:104CF00014F0EFEFE00FFF27E7FDF095812F90E034
:104D0000E817F90729F0EE0FFF1FE60DF71D20C089
:104D100010926908C53651F4111101C0102FF3012A
:104D2000E10FF11DE10FF11D329712C0C43609F5F4
:104D3000212F30E0802F90E001972817390714F4D5
:104D40001F5F01C010E0610E711C610E711CF30148
:104D500085919491DF91CF911F910F91FF90EF90EA
:104D6000DF90CF90AF909F908F907F906F900C943A
:104D70005F14DD24D39495CFC036A1F581E09091E6
:104D80006C08911180E080936C0807C0C03609F070
:104D90008AC0F40180818111F1CF90916C0881E08B
:104DA000911107C02091730130917401232B09F4F4
:104DB00080E080936B08D0934508911102C081E098
:104DC00001C082E080936608DF91CF911F910F911F
:104DD000FF90EF90DF90CF90AF909F908F907F905B
:104DE0006F900895C13608F09CC0C23489F4F40174
:104DF00080818A1591F280916C088111CECFF401E7
:104E000080818A1510F48F5F18C0F401108219C0D8
:104E1000C33450F1C43409F45EC008F06CC0F4012E
:104E20008081882309F4B9CF80916C088111B5CFB6
:104E3000F4018081882319F08150808302C0F4013D
:104E4000A082E114F10411F4D0E0A7CFF401808135
:104E50008C1508F4C82EF701EC0DF11DE490ED1649
:104E600008F09BCFDE2D99CFC132C9F480916C0838
:104E7000882319F010926C0890CFF4018081882368
:104E800011F0672831F41092A10880E00E942D1CD7
:104E900084CF87E10E94BB78F40110827ECFCE32AE
:104EA00009F46CCF7ACFC136E0F5C23409F49FCF54
:104EB00008F0B0CFC132F1F2CE3209F46ACF6DCF33
:104EC000C23609F498CF08F042C0C33409F4A7CF22
:104ED000B8F1C43481F4D91709F45FCFEF2809F48D
:104EE0005CCF80916C08811158CFD91710F4DF5F27
:104EF00012C0D0E010C0C53409F04FCFDD2309F453
:104F0000A3CFEF2809F449CF80916C08811145CFD8
:104F1000DD2351F0D150992309F43FCF1092DB01EA
:104F20003CCFC53619F4EDCFD92FF5CFC636C8F42E
:104F3000C33609F479CF90F6C23609F45CCF2DCF91
:104F4000C13209F493CFC23409F451CF26CFC5360C
:104F5000C1F238F4C33609F467CFC43609F4BECFC2
:104F60001CCFCE3821F48EE80E94CE707FCFCF3B8D
:104F700029F4F401108210926C0866CFC13809F050
:104F80000CCF10926C0881CFAF92CF92EF92FF922C
:104F90000F93AE2CC12CE12CF12C0E94FB240F911D
:104FA000FF90EF90CF90AF900895CF92DF92EF9265
:104FB000FF920F931F93CF93DF93C82F8AEB9CE050
:104FC0000E94BB23EE24E39406E023E234E144E0B4
:104FD0006C2F82E099E00E94C42710910209109280
:104FE0008901D0E0C0E0C12C94E0D92EE12CF12C55
:104FF00041E46D2F88E10E94F76B41E34C0F6D2F68
:105000008EE10E94F76B8C2F0E947015AC016D2F02
:105010008AE20E945C6CC43028F48C2F0E945910E4
:10502000815003C0C730B9F08C2FE82FF0E0EE0FAD
:10503000FF1FE257F74FA081B18124E630E00E94C4
:10504000DB80A70196010E945D81A9016D2F8AE591
:105050000E94F46E0BC0113021F44091660840624A
:1050600001C040E26D2F8AE50E94EF6ECF5FD85FEE
:10507000C83009F0BDCF66EB7CE088E20E94536C3B
:10508000409100015091010160E388E70E94F46EB5
:10509000113071F41093680880916C08882341F0F6
:1050A0004FE761E880919A050E944D1480939A051C
:1050B000DF91CF911F910F91FF90EF90DF90CF90F4
:1050C0000895EF920F93CF93C82F81E89CE00E9440
:1050D000BB23E12C06E023E234E142E06C2F80E0C8
:1050E00099E00E94C4276CE078E080E10E94536C54
:1050F0006AE378E088E10E94536C69E278E080E23C
:105100000E94536C6AE178E088E20E94536C68EF79
:1051100077E080E3CF910F91EF900C94536C2F9236
:105120003F924F925F926F927F928F929F92AF9237
:10513000BF92CF92DF92EF92FF920F931F93CF9384
:10514000DF93CDB7DEB72A970FB6F894DEBF0FBE58
:10515000CDBFD82E86E993E10E94BB2377E0A72E2E
:10516000E6E0CE2EFFE8EF2EF3E1FF2E0BE02FE27C
:1051700034E148E06D2D81E199E00E94FB245090DC
:105180001109109145088EED8D0D843028F4809121
:105190006C0881110E94DB7E209166082C8369E8EF
:1051A00073E188E00E94536C8091070283FB88279B
:1051B00080F931E0531212C0111110C061E00E9459
:1051C0004114982F91702091070290FB23F92093AE
:1051D0000702913029F41092A60402C000E001C039
:1051E00001E0282F4DE753E168E084E20E941F6C44
:1051F0008091A60441E054120EC0113061F461E0C8
:105200000E9441148093A6049091070293FF05C069
:105210001092A60402C000E001C001E0282F41E77F
:1052200053E168E088E40E941F6C8091070285FBCF
:10523000882780F991E059120DC0123059F461E0CD
:105240000E9441149091070280FB95F99093070208
:1052500001E001C000E0282F49E653E168E08CE658
:105260000E941F6C58E9C52E54E0D52E60E4262E0E
:105270006FE0362E812C912CE2E0EA83F0E1F98395
:105280002C81206828876EE573E189810E94536C28
:105290008D8241E3480D698186E00E94F76B3A8177
:1052A000531204C0111102C0088501C000E8E12CAE
:1052B0002D81F6014081698180E60E94AF11EE24C4
:1052C000E39400E82D81F101408169818EE70E941D
:1052D000AF11FA815F1204C0113011F40C8101C0CA
:1052E00000E0740128EAE20EF11CC701880F991F43
:1052F000880F991FFC01E550FE4F5F012081229528
:1053000026952695237048E553E1698180E60E9441
:105310001F6CFA815F1222C080916B088823F1F024
:105320001123A1F01130D1F4F501808163E0829561
:105330008695869583700E9441148295880F880F08
:10534000807CF50190819F73892B07C0F6018081D5
:105350006FEF90E00E944614F60180834A804394E8
:10536000F981F85FFB8336012FEF621A720AA12CD4
:10537000B12CC701880F991F880F991FFC01E550B8
:10538000FE4FFA87E987E985FA858081282F2F70FB
:1053900030E0A501440F551F02C0359527954A9569
:1053A000E2F7F22FF370FF2E8295837090E00A2CC3
:1053B00002C0959587950A94E2F7282F21702F83D4
:1053C000541002C0EC8001C0E12C20E043E553E121
:1053D0006B8184E00E94336C111102C00E2D01C05C
:1053E00000E02F2D41E255E16B8184E20E941F6CA9
:1053F000113011F40E2D01C000E02F814FE453E174
:105400006B8182E40E941F6C123019F40E2D00682B
:1054100001C000E8EE24E3942D81F30140816B810B
:1054200080E60E94AF11541050C080916B08882311
:1054300009F44BC0113039F158F0123009F045C071
:10544000F30180816FEF90E00E944614F3013CC0AD
:1054500063E08F2D0E944114E985FA859081A114A3
:10546000B10441F0F4E08F9F900111249370892FD3
:10547000822B02C09C70892B8F70E985FA85908100
:10548000907F892B21C061E08F810E944114E985C2
:10549000FA85908192959370A114B10419F0880F48
:1054A0009D7F01C09E7F892B83708295807FE985D7
:1054B000FA8590819F7C892B808380917B01882352
:1054C00021F00E94DB7E01C080834394FB81F85F62
:1054D000FB832FEF621A720AAA94AB2821F0AA2448
:1054E000A394B12C50CF4A814D5F4A838981885E55
:1054F00089839FEF891A990AE4E0CE0ED11CF6E069
:105500002F0E311C483009F0BECE2A960FB6F89403
:10551000DEBF0FBECDBFDF91CF911F910F91FF90E6
:10552000EF90DF90CF90BF90AF909F908F907F9043
:105530006F905F904F903F902F9008958F929F9221
:10554000AF92BF92CF92DF92EF92FF920F931F9391
:10555000CF93DF93C82F8EE692E10E94BB2387E0B2
:10556000A82ECC24C3949CE6E92E92E1F92E0BE000
:105570002FE234E14AE06C2F8FE099E00E94FB2497
:1055800080900F091091450823EBC22E24E0D22E03
:1055900032EBE32E34E0F32EAA24A394B12CC8E01E
:1055A000912C69E672E18C2F0E94536C40E34A0D06
:1055B0006C2F8CE00E94F76BD0E08A149B0459F4A6
:1055C0001D1309C000916608002331F080916C081A
:1055D000811105C001C000E0D1111BC009C011112B
:1055E00010C06CE1F60180810E944114F6018083B5
:1055F000F601208140E152E16C2F88E40E941F6C8B
:1056000012C04DE763E8F70180810E943E14F70164
:105610008083F7014081552747FD5095202F6C2F3F
:105620008CE60E94CA6ED13011F0D1E0C6CFC85FBF
:10563000F2E0CF0ED11C82E0E80EF11CEFEFAE1AC3
:10564000BE0AC03409F0ADCFDF91CF911F910F9109
:10565000FF90EF90DF90CF90BF90AF909F908F9092
:1056600008954F925F926F927F928F929F92AF9226
:10567000BF92CF92DF92EF92FF920F931F93CF933F
:10568000DF93982E89E79CE00E94BB2356E0A52E6D
:1056900065E0C62E73E7E72E7CE0F72E06E023E2F6
:1056A00034E141E0692D8FEF98E00E94FB24809067
:1056B000FF08709045088091630081FF04C06CE68C
:1056C0007CE088E105C18A94C12CD12C612C10E1C9
:1056D000639420E0462D612F80E00E948210E12C2F
:1056E000C601880F991F9C012B553A4F5901EC01B7
:1056F000CC55DA4F8C1056C07E1054C0F09066081E
:1057000032E0731609F452C08F2D8270482EE3E008
:105710007E1609F460C0F1E07F1609F1F5015080B2
:1057200052945694569433E053220F2D252D41E682
:105730005CE0612F88E10E941F6C442009F463C083
:1057400062E0852D0E9450148295880F880F807C1E
:1057500099819F7324C031E0E312D9C0F12CF50187
:105760000081000F000F05950595FDE00F02C001B7
:10577000112497FD0396AC0155954795559547958E
:105780002F2D612F82E40E94CA6EF1FE3CC04FE1D2
:1057900061EE802F0E944D148F739981907C892B2C
:1057A000898331C0F2E0EF12A5C0F12C88818770A7
:1057B000582E0F2D282F43E55CE0612F88E40E94CE
:1057C0001F6CF1FE20C063E0852D0E94501487708D
:1057D0009881987F16C008810595059505952F2D10
:1057E000402F612F8AE50E94CA10442061F04FE0EB
:1057F00061EF802F0E944D14880F880F880F9881C9
:105800009770892B8883E39424E0E21273CF185FAA
:105810003FEFC31AD30A62125BCF68E47CE080E3F7
:105820000E94536C84E088120AC048E266EF8091BF
:10583000B4050E944D148093B40521E201C020E21A
:105840004091B405552747FD5095465F5F4F60E393
:105850008EE40E94CA6ED1E0E5E08E12D0E02D2FDA
:1058600044E45CE068E380E00E94336C9CE5E92E50
:1058700091E0F92E0CE915E0C0E3F7014191519157
:105880007F01F801819191918F01481B590B440FC1
:10589000551F20E268E38C2F0E94CA6EC85EC03993
:1058A00061F7DD2391F0F0E69F120FC088E0ECE590
:1058B000F1E0ACE9B5E001900D928A95E1F781E065
:1058C0000E946F6587E10E94BB7864E37CE088E01A
:1058D000DF91CF911F910F91FF90EF90DF90CF90CC
:1058E000BF90AF909F908F907F906F905F904F9000
:1058F0000C94536C23E0E2122ECF488145954595D8
:10590000459520E0612F8AE50E94CA107CCFF50101
:105910002081229526952695237000E041E65CE0E3
:10592000612F88E10E941F6C6ECF1F93CF93DF938E
:10593000C82FD62F142F47E16CE20E94912343E039
:105940006BE28C2F0E94FF6C43E06CE28FEF8C0FB8
:105950000E94FC6C812F69EF0E9405812CE2280FC8
:105960008D2F67E00E94058145E0622F8C0FDF914B
:10597000CF911F910C949123CF92DF92EF92FF92DF
:105980000F931F93CF93DF93CCE9D8E049816881CF
:105990008AE20E94952C4A816B8186E50E94952CB3
:1059A000EEE8F8E06F0188E0C80ED11CCAE38DE58F
:1059B000E82EF12C07E3F601819191916F019C5F34
:1059C000B7010E94278111E0160FD02FD61B412F5F
:1059D0006D2F8C2F0E94FF6C412F6D2F81E08C0F5B
:1059E0000E94FF6C412F6D2F82E08C0F0E94FF6C94
:1059F000CB5FC93401F7DF91CF911F910F91FF90D9
:105A0000EF90DF90CF900895CF92DF92EF92FF92C8
:105A10000F931F93CF93DF93D82E8FEE9CE00E94BD
:105A2000BB23EE24E39406E023E234E145E06D2D50
:105A300083E099E00E94C42710920309CDEBD8E0DF
:105A40008E01F12C8F2D0E947015F8012685378567
:105A5000821793070CF49C01F80137872687448D41
:105A6000558D481759070CF4AC01F801558F448F38
:105A7000F3E0FF1570F4F80126853785240F351FF4
:105A800037FF02C02F5F3F4F35952795F8013183CF
:105A90002083F3940E5F1F4FF7E0FF12D3CF909156
:105AA000E7089093680880E2D81621F0EFEBDE1249
:105AB0000FC00CC081E0890F8093E708833041F468
:105AC00087E10E94BB7881E00E946F651092E70831
:105AD0008091E708813079F040F0823009F06EC0A3
