:100000000C9429140C945A140C945A140C945A14E9
:100010000C945A140C945A140C945A140C945A14A8
:100020000C945A140C945A140C945A140C945A1498
:100030000C945A140C945A140C945A140C9450198D
:100040000C9443830C9432860C9478830C94B6867B
:100050000C945A140C94B9190C945A140C943E191B
:100060000C945A140C942B8D0C94498B0C945A14A8
:100070000C945A140C945A140C945A140C94041A98
:100080000C94E7830C94FD860C945A140C945A1427
:100090000C945A140C945A140C945A140C945A1428
:1000A0000C945A140C945A140C945A140C945A1418
:1000B0000C945A140C945A140C945A140C945A1408
:1000C0000C945A140C945A140C945A14BB1BC01B55
:1000D000851B8B1B911B911B911BB11BB61BBB1B63
:1000E000C01BC51BCA1BD01BB61CBB1C7C1C821CA6
:1000F000881C881C881CAC1CB11CB61CBB1CC01CFA
:10010000C51CCB1C594C194C244C334C394C3D4C20
:10011000424C19581C581F582258255828582B58FB
:100120002E583158345837583A583D58405843584B
:10013000465849584C584F585258555858585B587B
:100140005E58AA5DC55D125E2B5E365E405E545EF3
:10015000765E9A5E6A6276628862A162B162C2620B
:10016000D562FF622C633E638163AE63D063E0635C
:10017000F06300642E6478628A62A362B362C46230
:10018000D76201632E6340638363B063D263E2632B
:10019000F2630264FD7E047FE27EEF7EF27EF67EF5
:1001A000E57EFA7E067F258827882A882F88428860
:1001B000538863886E88808892889788B088B388CF
:1001C000B788B988BB88C088C488D088D488DC88C0
:1001D000E388E788E988ED88EF88F188F388F78875
:1001E000FB88008905890A890F89148905A84CCDE7
:1001F000B2D44EB93836A9020C50B9918688083C61
:10020000A6AAAA2ABE000000803F204F6C64205698
:10021000657273696F6E20454550524F4D20202006
:10022000434845434B2053455454494E47532F436D
:10023000414C494200416C61726D732044697361A5
:10024000626C656400537769746368205761726EED
:10025000696E6700506C65617365205265736574E3
:10026000205377697463686573005468726F74749F
:100270006C65206E6F742069646C650052657365EF
:1002800074207468726F74746C6500454550524FE9
:100290004D206C6F77206D656D004C4F4144494E89
:1002A00047006D537461636B206F666C6F77006DF0
:1002B000537461636B2075666C6F77004D455353C3
:1002C00041474500707265737320616E79204B65FC
:1002D0007900507265737320616E79206B657920A7
:1002E000746F20736B697000032D2D2D783E30786C
:1002F0003C307C787C663E30663C307C667C63318A
:10030000206332206333206334206335206336203A
:1003100063372063382063392063313063313163C0
:100320003132633133633134633135633136000345
:100330004F4646414253525573525525454C7345DD
:100340004C25544873544825414C73414C25503139
:100350002050312550322050322550332050332543
:10036000002D2D2D004348002D2D2D20000450314F
:100370002020503220205033202048414C46465502
:100380004C4C435943314359433243594333505002
:100390004D3150504D3250504D3350504D345050DF
:1003A0004D3550504D3650504D3750504D384348D4
:1003B00031204348322043483320434834204348C7
:1003C00035204348362043483720434838204348A7
:1003D0003920434831304348313143483132434872
:1003E0003133434831344348313543483136335053
:1003F0004F534756312047563220475633204756F1
:100400003420475635204756362047563720544823
:100410004953002D2D2D2D000000642810070301E5
:100420000452554420454C45205448522041494CE3
:10043000200020414C4552540000010203000201FB
:100440000303010200030201004F4E20004F464605
:100450000003544852525544454C454944304944A0
:100460003149443241494C47454154524E5357312A
:1004700053573253573353573453573553573653D3
:100480005737535738535739535741535742535798
:100490004353574453574553574653574753574869
:1004A000535749001B1E272D36394B4E636C72780B
:1004B000878D939CB1B4C6C9D2D8E1E453706C6106
:1004C0007368008040000000000000000000000091
:1004D000000000000000000000000000000000001C
:1004E000000000000000000000000000000000000C
:1004F00000000000000000000000000000000000FC
:1005000000000000000000000000000000000000EB
:1005100080C0E0E0F0F8F8FCFCFCF8F8F8F04000EF
:10052000000000008080800000000000000000004B
:100530000000000000000000000080C0C0E0E0E01B
:10054000F0F0F0E0C00000000000C0F8FFFF9F875F
:10055000838383838383838383838383838383836B
:1005600083838383838303838083838383838383DE
:10057000838383838383838383838383838383834B
:10058000C3E3733F1F0000000080E0F0F8FCFEFFB3
:10059000FFFFFF7F3F1F1F0F0783C3E1E1E0E0C0C4
:1005A000000E1F3F7F7FFFF3E0E0800000000000AF
:1005B000000000000080F0FCFEFFFFFFFF7F3F0F08
:1005C0000301010100000080F0FEFFFFC7C1C1C1AF
:1005D000C1C1C1C1C1C1C1C1C1C1C1C1C1C1C1C10B
:1005E000C1C1C101C1F0FEFF3F0F070F0D0D0D1D71
:1005F000191919193131313171616161E1C1C1C11B
:100600008100000080E0F8FCFFFFFFFF2F170F03C1
:100610008180C0E0F0F8FCFEFFFFFFFFFFFF7F01DD
:100620000000000000000001010307070E1E1C3837
:1006300070E0F0F8FEFFFF7F1F0F030001000000D5
:1006400000000000000000000000000000000000AA
:10065000000000000000000000000000000000009A
:10066000000000000000000000000000000000008A
:10067000000000000000000000000000000000007A
:100680000000007EFFFFFFFFFFFFFBF8FCFCFEFF0A
:100690007F3F1F0F07C3FFFFFFFFFFFF7F07000024
:1006A000000000000000000000000000C0E0F8FEB4
:1006B000FFFF7F1F0F1F3D7CF8F8F0E08000000077
:1006C000000000000000000000000000000000002A
:1006D000000000000000000000000000000000001A
:1006E000000000000000000000000000000000000A
:1006F00000000000000000000000000000000000FA
:1007000000000000000101010101030707070301C8
:10071000000000E0FCFFFFFFFFFF1F0300000000E0
:1007200000000000000000C0F078DE2713090E076B
:1007300003000000000000000001030F7FFFFC78B1
:1007400078F80000000000000000000000808080B9
:100750008080808080800080800080800000000099
:100760000000008080808080808080808080808009
:1007700080808080800000000000000000000000F9
:100780000000000000000000000000000000000069
:1007900080F0FEFFFFFFFF3F0F01000000000000A0
:1007A0000000C0E0381E0F03000100000000000040
:1007B0000000000000000000000000000000000039
:1007C000030301000000000000000000000E0E0204
:1007D000020202020303000F0F000F0F08080808AF
:1007E0000808080F0F08080808080F0F000000008D
:1007F0000F0F0000000000000000000000000000DB
:100800000000000000000000000000000000C0F830
:10081000BFFFFFFF1F7F010000000000000000F08D
:10082000FCFF7F78300000000000000000000000A6
:1008300000000000000000000000000000000000B8
:1008400000000000000000000000000000000000A8
:100850000000000000000000000000000000000098
:100860000000000000000000000000000000000088
:100870000000000000000000000000000000000078
:10088000000000000000000000000000301C070E07
:100890000F07010000000000000000000000000041
:1008A0000000000000000000000000000000000048
:1008B0000000000000000000000000000000000038
:1008C000000000000000204D4F443A204652534B98
:1008D00059202020323536312020002053564E3A00
:1008E00020312E312E3131370054494D453A2031D7
:1008F000303A32313A343100444154453A203330B1
:100900002E30342E3230313500564552533A20566F
:10091000312E3131372D34726566306E74002020EF
:1009200046656E6365206175746F64697361626C9E
:10093000656420002D2D2D2D2D204C6F73742047C4
:100940005053202D2D2D2D2D2D002D2D2D2D204CB6
:100950006F772042617474657279202D2D2D2D00E2
:100960004553432043616C3A506173735468725429
:100970006F45534373004553432043616C3A5265BE
:10098000737461727420426F6172640044697361B0
:10099000626C652066656E6365206661696C65647E
:1009A00020005665726966793A20496E766C6964F2
:1009B000436F6E64434D44005665726966793A2010
:1009C000496E76616C69644E6176434D4400454BD7
:1009D000463A20436F6D706173732056617269618E
:1009E0006E6365002020202020205472696D2073E2
:1009F0006176656420202020200020204175746FDE
:100A000054756E653A2053746F70706564202000D1
:100A100020204175746F54756E653A20537461726D
:100A20007465642020004572726F7220536574747F
:100A3000696E6752616C6C79506E740050617261BE
:100A400063687574653A2052656C656173656421ED
:100A5000200020202043726173683A20446973614A
:100A6000726D696E672020004D6F746F72546573EC
:100A7000743A204E6F74206C616E646564004D6F33
:100A8000746F72546573743A5243204E6F744361AD
:100A90006C69620020202020436865636B20636FCF
:100AA0006D706173732020202000202020436F6D23
:100AB000706173732064697361626C6564202000E7
:100AC00050726541726D3A20426164204750532054
:100AD000506F7320200050726541726D3A20436F51
:100AE0006D706173734865616C7468005072654124
:100AF000726D3A204261726F4261644865616C7444
:100B0000680050726541726D3A205243206E6F74D6
:100B10002063616C696272002020202041524D499F
:100B20004E47204D4F544F525320202020006370D9
:100B300075004F50544943004750530041495253A8
:100B400050005052455353004D41470041434345E7
:100B50004C004759524F007468722500777000644A
:100B600074680067416C00616C740068646F7000A9
:100B7000736174004E6F20475053002052544B2035
:100B80002000204447505320003344204669780019
:100B9000324420466978004E6F20466978004E4FF7
:100BA000444154410044495341524D0041524D4546
:100BB00044004E4F44415441004E4F204D41560099
:100BC0004E4F20445256004D4F44453139004D4F51
:100BD00044453138004D4F44453137004D4F444571
:100BE0003136004D4F44453135004D4F4445313489
:100BF00000494E495400475549444544004C4F492B
:100C00005445520052544C004155544F00415475C4
:100C10006E650043525549534500464257420046CF
:100C2000425741004143524F00545241494E0053F4
:100C30005441424C495A00434952434C45004D41AE
:100C40004E55414C00202020202020202020200034
:100C500056343D0756353D0E56363D0056313D075C
:100C600056323D0E56333D00096D70680053706476
:100C70003D096B7473204D61783D00416C743D09F2
:100C80006D2020204D61783D004C6F6E3D004C6121
:100C9000743D12486467000A52504D004675656CF9
:100CA0000022047C5E54546D0003457870457846FC
:100CB000466E654D65644372730041323D004131BB
:100CC0003D0011544F54000153544B11535425000F
:100CD00001544D4511545357005354415400035B84
:100CE0004D454E555D20746F207265667265736860
:100CF00000746D61696E0F6D7300746D7231204AFE
:100D000069747465720F757300746D72314C61741F
:100D1000206D696E0F757300746D72314C617420B3
:100D20006D61780F7573005354415432004D6F64F8
:100D30006500205245544100014368616E6E656C48
:100D4000204F72646572004672736B79204D6F6438
:100D500020446F6E6500496E742E204672736B7965
:100D600020616C61726D0043726F73735472696DB0
:100D700000456E61626C652050504D53494D0042F4
:100D8000616E6447617000537469636B5363726F83
:100D90006C6C00506F745363726F6C6C00416C61CB
:100DA000726D205761726E696E67004D656D6F726E
:100DB00079205761726E696E670044656661756C73
:100DC00074205377005468726F74746C6520576197
:100DD000726E696E670053706C617368204E616D4E
:100DE000650053706C6173682073637265656E0093
:100DF0004C69676874206F6E2053746B204D7600C9
:100E00004C69676874206F6666206166746572005D
:100E10004261636B6C6967687420696E7665727491
:100E2000004C696768742073776974636800466C66
:100E3000617368206F6E2062656570004265657041
:100E400020636F756E74646F776E004D696E757494
:100E5000652062656570005468726F74746C6520FB
:100E60007265766572736500496E6163746976694F
:100E7000747920616C61726D136D004261747465E8
:100E80007279207761726E696E6700436F6E74725B
:100E900061737400204861707469632053747265D3
:100EA0006E6774680020537065616B6572205069CD
:100EB00074636800566F6C756D65000A42656570F5
:100EC000657220202020506953706B7220202020F2
:100ED0004265657072566F696365506953706B56F1
:100EE0006F6963654D656761536F756E642000536C
:100EF0006F756E64204D6F64650006517569657489
:100F0000204E6F4B6579207853686F727453686F09
:100F10007274204E6F726D20204C6F6E67202078A7
:100F20004C6F6E672000426565706572004F776E8A
:100F30006572204E616D6500000900524144494FC1
:100F400020534554555000036D6F64650A25207386
:100F50007263202073770043616C004D756C746977
:100F6000706C69657200036368316368326368336B
:100F700063683400036F6666202B3D203A3D00070E
:100F8000536C61766500000303030300545241492A
:100F90004E45520056455253494F4E005472696DAA
:100FA0002D202B0005204D656E7520457869742035
:100FB000446F776E20202055705269676874204C0A
:100FC00065667400444941470012424700414E4162
:100FD00000034D4F564520535449434B532F504F18
:100FE00054530005534554204D4944504F494E54E5
:100FF00000035B4D454E555D20544F2053544152E4
:10100000540043414C4942524154494F4E000966F5
:10101000726565004D4F44454C53454C00434F4C61
:1010200020446972656374696F6E0041494C2044C5
:101030006972656374696F6E00454C45204469723E
:10104000656374696F6E0053776173682052696ECF
:101050006700436F6C6C65637469766500062D2DBF
:101060002D202020313230202020313230582020D5
:101070003134302020203930202020200053776167
:1010800073682054797065000048454C49205345E9
:101090005455500001524554410020464D30004DFA
:1010A0004F4445530020464D0046616465204F750E
:1010B00074004661646520496E005472696D730066
:1010C00053776974636800000300464C204D4F4419
:1010D0004500015245544100032D2D2D5031205023
:1010E00032205033204756344756354756364756F8
:1010F0003700566F6C756D6520436F6E74726F6C40
:10110000004175746F204C696D69747300543254DA
:10111000685472696700547261696E657200452E89
:10112000204C696D6974730003504F534E4547005E
:1011300053686966742053656C0050504D203173BC
:1011400074204368616E00204661696C7361666556
:101150000003416D654A61704575720020436F75EB
:101160006E74727900034431364438204C5250007A
:10117000205479706500094C50342F4C5035202094
:1011800044534D326F6E6C792044534D322F44538B
:101190004D580044534D20547970650042696E6487
:1011A000202052616E67650050504D2046724C659C
:1011B0006E0D6D536563000B52784E756D000434EF
:1011C0004348203643482038434820313043483193
:1011D0003243483134434831364348001375530095
:1011E0001175536563000650504D2020205058580B
:1011F00020202044534D32202050504D3136205075
:10120000504D53494D0050726F746F005245544118
:10121000313233004265657020436E74004661735D
:1012200074204D69782044656C6179005472696D51
:101230002053770006457870202020457846696E57
:101240006546696E6520204D656469756D436F6103
:10125000727365005472696D20496E6300542D45A8
:1012600078706F00542D5472696D000A436F756E6B
:101270007420446F776E436F756E74205570202014
:1012800000547269676765724200547269676765E6
:101290007200566F69636520496E646578114D452B
:1012A0004E55004E616D6500000900010000000010
:1012B000000000000602010053455455500000464E
:1012C00041494C534146450052414E474520434811
:1012D00045434B20525353493A000642494E444934
:1012E0004E47004475706C69636174696E67206D68
:1012F0006F64656C0044454C455445204D4F444552
:101300004C004455504C4943415445204D4F4445B1
:101310004C004472537732004472537731000257C5
:10132000656967687400024578706F000444522054
:10133000486900044452204C6F7700044452204D09
:10134000696400004558504F2F445200012B2A5227
:10135000004D495845520003202020202020202005
:101360000044454C455445204D49583F00035B4DD2
:10137000454E555D0B5B455849545D000359455337
:101380000B4E4F005072657373205B455849545D96
:1013900020746F2061626F7274004D6178206D69F6
:1013A000786572732072656163683A203332000297
:1013B000536C6F77202055700002536C6F7720209C
:1013C000446F776E000244656C61792055700002AD
:1013D00044656C617920446F776E00084164642035
:1013E000202020204D756C7469706C795265706C8A
:1013F0006163652000024D756C747078000257615E
:10140000726E696E6700024D4F4445530002537778
:1014100069746368004375727665000D4469666699
:1014200000025472696D0002466C4D6F64657472FF
:10143000696D0002466978204F6666736574004FD7
:10144000666673657400466D5472696D56616C0012
:10145000025765696768740002536F7572636500AF
:1014600045444954204D4958200000000000000028
:101470000000000400032D2D2D783E30783C307C98
:10148000787C663E30663C307C667C63312063321B
:101490002063332063342063352063362063372094
:1014A0006338206339206331306331316331326313
:1014B0003133633134633135633136000D4F6E00A3
:1014C000072D2D2D2D202020763E6F66732020764F
:1014D0003C6F667320207C767C3E6F66737C767CE6
:1014E0003C6F6673414E44202020204F5220202024
:1014F0002020584F522020202076313D3D7632204A
:101500007631213D76322076313E7632202076319A
:101510003C7632202076313E3D76322076313C3D9D
:1015200076322054696D654F6666000D4F6E000778
:101530002D2D2D2D202020763E6F66732020763CA9
:101540006F667320207C767C3E6F66737C767C3C75
:101550006F6673414E44202020204F5220202020CF
:1015600020584F522020202076313D3D7632207683
:1015700031213D76322076313E7632202076313C64
:101580007632202076313E3D76322076313C3D76F3
:10159000322054696D654F66660053000003435561
:1015A00053544F4D20535749544348455300064F19
:1015B0004E202020204F4646202020424F544820D5
:1015C000203135536563733330536563733630535D
:1015D00065637356617269626C0056530007203868
:1015E0002053656373313220536563733136205362
:1015F000656373000153415658004E756D62657204
:1016000020566F69636520537700000002534146FE
:1016100045545920535749544348455300434C457A
:101620004152204D49584553205B4D454E555D0074
:1016300054454D504C41544553005343092B0D2AFA
:10164000122F00032D2D2D52746D45746D54746D41
:1016500041746D52454E525544454C455448524193
:10166000494C5031205032205033206331206332B6
:1016700020633320633420633520633620633720B2
:101680006338206339206331306331316331326331
:1016900031336331346331356331360047560000EE
:1016A00001474C4F42414C20564152530005466978
:1016B0007273744C61737420004F66667365742096
:1016C000417400446563696D616C73005369676EB2
:1016D00000556E69740044697669736F72004D75C8
:1016E0006C7469706C696572004F6666736574002E
:1016F0004E616D6500536F75726365005343000062
:101700000300042D2D2D2D41312020413220204673
:1017100041535653433120534332205343332053D4
:1017200043340043757272656E7420536F75726333
:10173000650053696E6B20546F6E657300025365CC
:101740006E7369746976697479000253776974639A
:101750006800042D2D2D2D767370644132202000F9
:10176000566172696F3A20536F7572636500464126
:1017700053204F666673657400437573746F6D20F4
:10178000446973706C617900477073416C744D618A
:10179000696E00566F6C742054687265733D000367
:1017A0004F464631323234303000416C74416C6106
:1017B000726D004E756D20426C61646573006D4101
:1017C0006820416C61726D00527800547852535316
:1017D00049616C726D00000101010054454C454D9A
:1017E000455452593200013C3E00616C726D00015B
:1017F000762D5641004120206368616E6E656C0055
:10180000034D6574496D7000052053746420204DAC
:101810006176200005467248756257534868690032
:1018200050726F746F000002010202010254454CB5
:10183000454D4554525900434F5059205452494D3B
:10184000205B4D454E555D0000034C494D495453B6
:101850000043560043555256455300505245534598
:10186000540000435552564500032D2D2D494E5628
:10187000004756005B4D454E555D205748454E206C
:10188000444F4E450053454C45435400434F505937
:10189000004D4F56450044454C455445004544498C
:1018A0005400494E5345525400434F5059004D4F38
:1018B00056450044454C45544500B469D0328E2FFE
:1018C000E43E022FA234BD64E435403ED044145BB4
:1018D0006F6E125ADC5E2070BC2FEE36855ACB310B
:1018E00012081200081C0808081C08000008220042
:1018F000490022080000000000227F2200000008AA
:1019000022004900220800000822004900220800A5
:101910000000227F2200000000000822004900226F
:10192000080000081C0808081C080001010100004C
:10193000000202020202020202020200020202028B
:101940000202020200000000000000020202020285
:1019500003030303054665657420566F6C74734476
:1019600065675F434465675F466D41682020416D50
:101970007073204D657472655761747473004656B8
:1019800043466D416D5718242F2F0033383B0657BF
:1019900061726E31205761726E32204368656170EA
:1019A0002052696E672020536369466920526F6236
:1019B0006F74204368697270205461646120204311
:1019C0007269636B74536972656E20416C6D436C10
:1019D0006B5261746174615469636B20204861705B
:1019E00074633148617074633248617074633300AA
:1019F00054696D657200032D2D2D59656C4F72670A
:101A00005265640054524530313241470052783DAE
:101A10000054783D00204142434445464748494AE6
:101A20004B4C4D4E4F505152535455565758595A8E
:101A30006162636465666768696A6B6C6D6E6F701E
:101A40007172737475767778797A303132333435D0
:101A5000363738395F2D2E0000010203FEFF0406E1
:101A6000080A0B0C0D0E0F23FD202425261D1E1F1A
:101A700027F6F7F8F9FAFBFCF52811292AF1F2F319
:101A8000F4042D2D2D2D41313D2041323D20525366
:101A900053495453534954696D3154696D32416C03
:101AA000742047616C744773706454313D20543224
:101AB0003D2052504D204655454C4D6168314D6199
:101AC000683243766C7442617474416D70734D6119
:101AD000682043746F744661735641636358416371
:101AE00063594163635A567370644776723147761F
:101AF000723247767233477672344776723547765C
:101B00007236477672374677617452785620486449
:101B1000672041333D2041343D205343312053431E
:101B20003220534333205343342000537769746386
:101B300068205761726E696E670067656E777269BB
:101B40007465206572726F7200454550524F4D208A
:101B5000466F726D617474696E67004261642045FE
:101B60004570726F6D204461746100434845434B7A
:101B7000204D49582F445220534F5552434553004E
:101B80004D4F44454C2020202020004D4520202052
:101B9000202020202000454550524F4D206F766573
:101BA00072666C6F7700E2AEA6A4A22F250000003B
:101BB0000000000000000000000000000000000025
:101BC00000000000000000000000000000333B1F88
:101BD0000F00000000C0C0C0C0C0C0C0C0C0C00076
:101BE00000000000000000000000000000000000F5
:101BF0000000000000183C3C18000000000000003D
:101C000080C0E070381C0C0C0E07030100000000BF
:101C1000000000FCFE87C3E377FEFC00000F1F3BC3
:101C20003130381F0F00000C0EFFFF0000000000D5
:101C30000030303F3F3030000000000C0E0783C3FF
:101C4000E77E3C00003C3E3733313030300000034B
:101C500003C3C3C3E7FE3C00003030303030391FCF
:101C60000F0000C0E070381C0EFFFF0000030303EC
:101C70000303033F3F00003F3F33333373E3C300AD
:101C8000000C1C383030381F0F0000FCFEC7C3C3E7
:101C9000C78E0C00000F1F383030391F0F000003B3
:101CA00003C3E3733B1F0F000000003F3F00000031
:101CB0000000003CFEE7C3C3E7FE3C00000F1F39F5
:101CC0003030391F0F00003C7EE7C3C3E7FEFC0045
:101CD00000000030381C0E07030000183C3C1800C0
:101CE0000000000000060F0F0600000000F0F8DC06
:101CF000CEC7C7CEDCF8F03F3F0000000000003F39
:101D00003FFFFFC3C3C3C3C3E7FE3C3F3F30303098
:101D10003030391F0FFCFE0703030303070E0C0FBF
:101D20001F3830303030381C0CFFFF030303070E20
:101D30001CF8F03F3F303030381C0E0703FFFFC364
:101D4000C3C3C3C3C303033F3F30303030303030F0
:101D500030FFFFC3C3C3C3C3C303033F3F0000003F
:101D60000000000000FCFE0703C3C3C3C7CECC0FB6
:101D70001F3830303030303F3FFFFFC0C0C0C0C0E0
:101D8000C0FFFF3F3F0000000000003F3F00000396
:101D900003FFFF03030000000030303F3F303000FE
:101DA00000000000000303FFFF03030C1C38303069
:101DB000381F0F0000FFFFC0E0F0381C0E07033F84
:101DC0003F000103070E1C3830FFFF000000000039
:101DD0000000003F3F3030303030303030FFFF0EF9
:101DE0001CF8F81C0EFFFF3F3F0000000000003F02
:101DF0003FFFFF3870E0C08000FFFF3F3F00000062
:101E00000103033F3FFCFE070303030307FEFC0F30
:101E10001F3830303030381F0FFFFFC3C3C3C3C378
:101E2000E77E3C3F3F0000000000000000FCFE0792
:101E30000303030307FEFC0F1F383033371E1C3F1C
:101E400033FFFFC3C3C3C3C3E77E3C3F3F00000370
:101E5000070E1C38303C7EE7C3C3C3C3C78E0C0CCF
:101E60001C3830303030391F0F03030303FFFF03EA
:101E7000030303000000003F3F00000000FFFF00DD
:101E80000000000000FFFF0F1F3830303030381FD7
:101E90000FFFFF000000000000FFFF03070E1C38CB
:101EA000381C0E0703FFFF000000000000FFFF0FBB
:101EB0001F38381F1F38381F0F0F1F38F0E0E0F0B1
:101EC000381F0F3C3E0703010103073E3C3F7FE004
:101ED000C08080C0E07F3F000000013F3F01000064
:101EE0000003030383C3E3733B1F0F3C3E373331CF
:101EF00030303030300000000000000000000030C2
:101F00003030303030303030300000303030303031
:101F100070E0C00C1E3F33333333333F3FFFFFC00D
:101F2000E070303070E0C03F3F3030303030381F2C
:101F30000FC0E070303030303000000F1F383030CC
:101F40003030381C0CC0E070303070E0C0FFFF0F44
:101F50001F3830303030303F3FC0E07030303030EC
:101F600070E0C00F1F3B33333333330303C0C0FC77
:101F7000FEC7C303070E0C00003F3F000000000037
:101F800000F0F89C0C0C0C0C0CFCFC0001333333FF
:101F900033333B1F0FFFFFC0E070303070E0C03FB5
:101FA0003F0000000000003F3F00003030F3F3002E
:101FB000000000000030303F3F30300000000000E3
:101FC000003030F3F300000C1C383030381F0F00A5
:101FD00000FFFF0080C0E0703000003F3F03070FAC
:101FE0001C3830000000000303FFFF000000000069
:101FF0000030303F3F30300000F0F03070E0E070F3
:1020000070E0C03F3F0000030300003F3FF0F0C01E
:10201000E070303070E0C03F3F0000000000003F43
:102020003FC0E0703030303070E0C00F1F383030CB
:102030003030381F0FF0F03030303030F0E0C03F3B
:102040003F0303030303030100C0E0F0303030E03E
:10205000C0F0F000010303030303033F3FF0F0C0AF
:10206000E070303070E0C03F3F0000000000000032
:1020700000C0E0F0303030303000003031333333E6
:1020800033333F1E0C3030FFFF30300000000000C3
:10209000000F1F383030381C0CF0F000000000003A
:1020A00000F0F00F1F383030381C0C3F3FF0F000CC
:1020B0000000000000F0F003070E1C38381C0E076B
:1020C00003F0F0000000000000F0F00F1F38381C93
:1020D0001C38381F0F3070E0C08080C0E070303096
:1020E000381C0F07070F1C3830F0F080000000008C
:1020F00000F0F0000133333333333B1F0F30303007
:102100003030B0F0F0703030383C3E373331303062
:102110003000000000000000006F00000700070012
:10212000147F147F14242A7F2A1223130864623632
:10213000495522500005030000001C2241000041C7
:10214000221C0014083E081408083E0808005030FD
:10215000000008080808080060600000201008045B
:1021600002003E49453E0000427F40006251494620
:102170000041494936001814127F002745453900AF
:102180003E494932000179050300364949360006C7
:1021900049291E000036360000005636000008149B
:1021A000224114141414144122140800020151098C
:1021B0000600060909067E0909097E7F4949493654
:1021C0003E414141227F4141221C7F494949417F93
:1021D000090909013E4149497A7F0808087F004101
:1021E0007F41002040413F017F081422417F404051
:1021F00040407F020C027F7F0408107F3E41414136
:102200003E7F090909063E4151215E7F0919294691
:10221000264949493201017F01013F4040403F1FAB
:102220002040201F3F4030403F63140814630708DC
:102230007008076151494543007F4141000204088D
:1022400010200041417F0004020102044040404050
:1022500040000102040020545454787F484444381C
:102260003844444420384444487F3854545418086F
:102270007E0901020C5252523E7F08040478004449
:102280007D40002040443D007F1028440000417FF5
:1022900040007C041804787C0804047838444444E2
:1022A000387C14141408081414187C7C08040408DE
:1022B0004854545420043F4440203C4040207C1C5F
:1022C0002040201C3C4020403C44281028440C5016
:1022D00050503C4464544C44000836410000007F98
:1022E000000000413608000808221C08081C2208CB
:1022F00008010204081020408040800804201002D9
:10230000019CCE003264E2F1003264645A505A6497
:1023100050463C46649C141E465A536572766F20A4
:1023200054657374004779726F205365747570003B
:1023300048656C6920536574757000456C65766FEF
:102340006E5C44656C746100562D5461696C005379
:102350007469636B7920542D43757400542D437553
:10236000740053696D706C6520342D4348006223FE
:102370005C234F2348233B23302325231A230000CB
:10238000891112239B322446AD573665BF74488CA1
:10239000C19D5AAFD3BE6CCAE5DB7EE9F7F8811068
:1023A000080193331A22A5562C47B7753E64C99C81
:1023B000408DDBBF52AEEDDA64CBFFF976E8022147
:1023C0008B30100299132667AF763444BD554AAD61
:1023D000C3BC588ED19F6EEBE7FA7CC8F5D9833128
:1023E0000A2091121803A7772E66B5543C45CBBD41
:1023F00042ACD99E508FEFFB66EAFDD874C9044207
:102400008D5316619F702004A9153227BB364CCE20
:10241000C5DF5EEDD7FC6888E1997AABF3BA8552E7
:102420000C4397711E60A1142805B3373A26CDDE00
:1024300044CFDFFD56ECE9986089FBBB72AA0663C6
:102440008F7214409D512225AB343006B9174EEFE0
:10245000C7FE5CCCD5DD6AA9E3B8788AF19B8773A7
:102460000E6295501C41A3352A24B1163807CFFFC0
:1024700046EEDDDC54CDEBB962A8F99A708B088486
:1024800081951AA793B62CC2A5D33EE1B7F04008B8
:10249000C919522BDB3A644EED5F766DFF7C89944F
:1024A00000859BB712A6ADD224C3BFF136E0C11898
:1024B0004809D33B5A2AE55E6C4FF77D7E6C0AA52E
:1024C00083B4188691972EE3A7F23CC0B5D1422978
:1024D000CB38500AD91B666FEF7E744CFD5D8BB50F
:1024E00002A499961087AFF326E2BDD034C1C33958
:1024F0004A28D11A580BE77F6E6EF55C7C4D0CC6EE
:1025000085D71EE597F42880A1913AA3B3B2444A37
:10251000CD5B5669DF78600CE91D722FFB3E8DD6CE
:1025200004C79FF516E4A9902081BBB332A2C55A17
:102530004C4BD7795E68E11C680DF33F7A2E0EE7AD
:1025400087F61CC495D52AA1A3B03882B193466BF7
:10255000CF7A5448DD59622DEB3C700EF91F8FF78E
:1025600006E69DD414C5ABB122A0B9923083C77BD7
:102570004E6AD5585C49E33D6A2CF11E780F3686C9
:102580000A0C0D0B103536072F3031323334848866
:10259000979A111314151609181B122B2C2D2E05A2
:1025A000191C1D1E1F2720A1223636000C946F6EA9
:1025B0000C946E880C94D5620C9496250C94173D5F
:1025C0000C94AA5D0C943E630C94D0880C945B58D8
:1025D0000C94185D0C94765E0C9425880C94405EE7
:1025E0000C9455580C94365E0C94BB1B0C94E988E3
:1025F0000C943A580C94125A0C942A880C94406407
:102600000C94F0630C94E3880C94BC2F0C94062B70
:102610000C94244C0C9452580C94FA7E0C94E78839
:102620000C9442880C94D2630C9446580C94EE3669
:102630000C94B11C0C9480880C94BB880C949288E8
:102640000C94D01B0C94AE630C9434580C94E0633F
:102650000C9440580C9415620C94B11B0C947C1C87
:102660000C9453880C94EF880C9481630C94CA9159
:102670000C948B1B0C94C51C0C944C580C94911B03
:102680000C94E43E0C9422580C94B7880C94B362DA
:102690000C94FB880C9400640C94F27E0C941489C6
:1026A0000C94EF7E0C94C0880C94DC5E0C94545E09
:1026B0000C94855A0C94D0630C94CA1B0C941C582F
:1026C0000C9420700C94ED880C94A2340C940A891C
:1026D0000C94F7880C94A3620C9443580C94E43542
:1026E0000C9419580C94BD2B0C94145B0C94AC1CDA
:1026F0000C94B3880C948E2F0C94194C0C94C462D7
:102700000C946A620C9497880C942B5E0C943D5840
:102710000C94BE390C94C51B0C94B4690C942B58C2
:102720000C94D4880C94B0630C942E640C94067FA3
:102730000C9431580C94E57E0C94CB310C94278882
:102740000C94C01C0C942F880C94A1620C9402640D
:102750000C9488620C9437580C94125E0C94F263BB
:102760000C9458580C9405890C94CB1C0C949A5ECC
:102770000C94394C0C9425580C94C2620C94C55D91
:102780000C942E630C9428580C94BD640C94016333
:102790000C94881C0C94FD7E0C9449580C941F5882
:1027A0000C94783A0C94C01B0C9400890C94022F62
:1027B0000C9463880C949E390C944F580C94D762F7
:1027C0000C942E580C94594C0C943D4C0C94B61C03
:1027D0000C94E2630C9476620C94403E0C94B162CB
:1027E0000C94334C0C9478620C94C8250C941C4FB8
:1027F0000C94F67E0C94D0440C94EB430C94DC883F
:102800000C94424C0C94821C0C94F3880C942C6312
:102810000C9483630C94E27E0C94F1880C944063D6
:102820000C94047F0C94C4880C945E580C94851B03
:102830000C94FF620C94B9880C94B61B0C94B0886D
:102840000C948A620C94BB1C0C94D0320C940F89AB
:10285000CA9111241FBECFEFD1E2DEBFCDBF00E091
:102860000CBF12E0A0E0B2E0EAE9FAE201E00BBF3F
:1028700002C007900D92A832B107D9F710E1A8E283
:10288000B2E001C01D92AB37B107E1F714E1C9E234
:10289000D4E100E006C021970109802FFE010E94CB
:1028A000F694C832D10780E00807A9F70E94D98FB3
:1028B0000C944B950C940000E091910694E0E99FF4
:1028C000F0011124E80FF11DE75CFB4F84918F5F4D
:1028D0000895853030F0883030F08E3030F083E06D
:1028E000089580E0089581E0089582E008952AE047
:1028F000829FC001112488509D4F089525E0829F3A
:10290000C0011124885C9B4F08950F93022F207102
:1029100004FF03C00F7E9DE201C094E2411106C096
:1029200024E043E154E00E94217A18C0453028F4A5
:102930002FEF240F40E254E00FC0941728F02BEF44
:10294000240F4DE653E008C0222311F0475B491BDA
:102950002CED240F41E85AE10E94467A0F91089528
:102960000F93CF93DF93C82FD62F022F411104C0AE
:1029700024E048E653E00EC04A3010F086E101C082
:1029800081E18C0F50E0202F6D2F0E94F17C22E01E
:1029900045E653E06D2F8C2F0E94217ADF91CF9175
:1029A0000F9108950F931F93CF93DF93D62FC42FCA
:1029B000022F16E0180F442339F04C3141F0443E09
:1029C00081F44DE454E005C041E653E002C049E41F
:1029D00054E06D2F812FDF91CF911F910F910C94B7
:1029E0005A7A47FF04C041E20E948979C1952FEFCE
:1029F0002C0F41E554E06D2F812F0E94467ADF9124
:102A0000CF911F910F910895EF92FF920F931F9313
:102A1000CF93DF93D82F162FF42EE22EC091E90228
:102A200081E0821708F442C02C2F27FD2195203128
:102A300068F4042F4FE253E08D2F0E94467ACF3F77
:102A4000CCF52F2D41E2612F8AEF19C02B3230F4E3
:102A50001C1614F441EF22C04FE020C0C6349CF095
:102A6000CF53042F2C2F48EE52E08D2F0E94467A30
:102A7000C0310CF4D6502F2D45E2612F82E18D0F2D
:102A80000E94897917C0242F4DE682E18D0F0E94A4
:102A900089791C1614F446ED01C04AE24C0F2F2D23
:102AA000612F8AEF8D0F0E94D21404C082E0281398
:102AB00013C004C0E11010C0C13071F42F2D40913B
:102AC0005905612F8AEF8D0FDF91CF911F910F91E3
:102AD000FF90EF900C94D214DF91CF911F910F9142
:102AE000FF90EF9008950F931F93CF93DF93890189
:102AF00024E0629FE0011124FE01E558FA4FE081D5
:102B0000F0E0442311F0EE0FFF1F9F01DC010E9453
:102B10004694C558DA4F2B81207C203C51F424E6A2
:102B200030E040E050E00E94B594F801808180627E
:102B300010C0E436F10578F4660F771F881F991FDF
:102B400023E330E040E050E00E94B594F80180813A
:102B50008063808306C02FEF30E040E050E00E94A9
:102B6000B594C901DF91CF911F910F910895DF9224
:102B7000EF92FF920F931F93CF93DF931F92CDB7E6
:102B8000DEB7D82EF62E942F822F098350E060E016
:102B900070E024E0829F80011124F801E558FA4F8B
:102BA0003381307C303821F4EE2089F041E003C0DD
:102BB000EE2091F040E09E012F5F3F4F682F892F5C
:102BC00090E00E947315AC0160E070E018C0440F03
:102BD000551F661F771F13C0303C89F4292F30E042
:102BE000AFEFB0E00E94469424E630E040E050E0D1
:102BF0000E94B594BA01A901898180628983055830
:102C00001A4FF801838186FD14C00981006285E0B6
:102C1000E82E9A01AB016F2D8D2D0E946F7B2981CB
:102C200027FD1BC046E76F2D8091700E0E948979A9
:102C300014C029816F2D8D2D0E94F17CF8018381B4
:102C4000807C803C61F4298127FD0BC041E46F2D1D
:102C50008091700E0E94897904C086E703C080E2EB
:102C600001C081E40F90DF91CF911F910F91FF90F0
:102C7000EF90DF900895873038F4E82FF0E0EE0F02
:102C8000FF1FE658F64F24C08C3050F18431C0F459
:102C9000482F50E0FA01EE0FFF1FED5EFD4F20813F
:102CA0003181803148F4440F551FFA01E959F94F39
:102CB00080819181281B390BC901880F991F0895C4
:102CC000843248F4E82FF0E0EE0FFF1FEE5CF64F81
:102CD0008081918108958D3418F484520C94922748
:102CE00080E090E008950E94D58F8111FCCF109272
:102CF000A10E08950F931F93CF93DF938C01EB01E7
:102D00000E943F7924E042E354E060E082E20E94C6
:102D10005A7AB80180E20E947A7ABE0188E20E9463
:102D20007A7A62ED72E080E3DF91CF911F910F918B
:102D30000C947A7A0F93262F00E041E554E060E18D
:102D40000E94467A0F910895CF93DF93D6E1C0E0B9
:102D50008D2F0E94C17ECC0FC82BD150DE30C1F721
:102D60008C2FDF91CF9108950F931F93CF93DF9313
:102D7000D82F0EED12E0CAE0F80141918F0124E056
:102D80006D2F8C2F0E948979C55FC837A9F7DF9115
:102D9000CF911F910F9108950F931F93CF938C01A3
:102DA000C62F0E943F79B80188E10E947A7AC1114A
:102DB00009C044EC52E068E38CE10E94807A42E36F
:102DC00054E002C04CEB52E024E060E086E10E9457
:102DD0005A7ACF911F910F910C94C77D61E00C94AA
:102DE000CC1670E0882399F090E0019725E0289FA9
:102DF000F001299FF00D1124E60FF71FEE0FFF1FC2
:102E0000ED55FA4F808191818B509E4F0895660F4A
:102E1000771FFB01EE5FFD4F0190F081E02D808177
:102E2000992787FD909508951F93CF93DF93D82F0F
:102E3000162FC4E0DD2399F0612F8D2F0E94F1162B
:102E40009C01253F81E0380764F09BE0920F9D17BD
:102E500010F09CE0920FC15029F0D92FEBCFC0E0C9
:102E600001C0CD2F8C2FDF91CF911F910895CF936B
:102E7000C62F0E9414176C2FCF910C94F116EF926D
:102E8000FF920F931F93CF93DF93EA019A01235888
:102E90003F4F7901062F10E0882321F10E9414177B
:102EA000882301F13BEFE316F10440F01C161D06E8
:102EB0001CF0C3E8DFEF02C0CDE7D0E090E001975F
:102EC00045E0489F9001499F300D1124F901E00F22
:102ED000F11FEE0FFF1FED55FA4FC55FD140D183B3
:102EE000C08315C08BEFE816F10440F01C161D06D8
:102EF0001CF0C3E8DFEF02C0CDE7D0E0F801EE0F31
:102F0000FF1FEE5FFD4F0190F081E02DC08386E052
:102F1000DF91CF911F910F91FF90EF900C94377339
:102F2000E0914C02F0E0EE0FFF1FE15BFD4F80816E
:102F300091810895E0914C02F0E0EE0FFF1FE35BFA
:102F4000FD4F918380838FEB80934B020895EEE8D1
:102F5000F9E0108E168A158A178A0895AC01E2E40A
:102F6000FFE097A1903180F420A531E0320F30A727
:102F7000DF01A20FB11DA20FB11D4D935C93303143
:102F800008F010A69F5F97A3089590E08C5F9E4F76
:102F90000C94AE1790E00C94AE178093C10290E0B1
:102FA00040970C94AE17FC0180919C0690A181FF84
:102FB00075C081A1992311F0846001C08B7F81A32A
:102FC00086A1813059F52F9A97A181A1992321F1EA
:102FD00021A541E0420F41A7DF01A20FB11DA20FC1
:102FE000B11D2D913C9135A324A3403108F011A6C9
:102FF000915097A337FD02C091E101C098E293A3DD
:103000008C7F37FD826081A381A182B92F988FE1E7
:1030100082A382E086A3089582B949C081110CC0C1
:103020002F9A81A1836081A382B98091710E8D3323
:1030300008F43DC086E030C0823009F439C081A177
:1030400082B92F9A279800C0000000C083B1807811
:10305000279A96A1933051F4811102C084E01CC0DC
:1030600083A1815083A38823C9F321C0943021F424
:103070008823E9F083E00EC0953039F483A18150B4
:1030800083A3811114C081E007C0963081F48823A6
:1030900071F084E183A385E086A309C0809199063D
:1030A00086FB882780F9981711F02F9A08952F989A
:1030B000089512B88FE181B900C020B18FEF81B9B6
:1030C000E7EBF2E08781882311F080E202C0822FD3
:1030D000807E8483322F307C8081381761F0807449
:1030E000982F990F20788181921711F0815001C09B
:1030F0008F5F8183308382819381891711F083836D
:10310000818308959091910690FD02C093E08927F4
:10311000E82FF0E0E857F64FE081E7FDE95FE5953D
:10312000E595E5951E1624F0EE2321F0E19502C009
:1031300080E801C080E0E8300CF0E7E0FF27E7FD21
:10314000F095E85EFB4FE491EE2319F099E090933F
:1031500057028E2B0895833021F0811104C0E3E0E3
:1031600003C0E0E001C0E82FF0E0EE0FFF1FE253E4
:10317000F94F40815181843080F42091AE0630E0D7
:1031800002C0359527958A95E2F720FF06C080E0BA
:1031900098E09C01241B350BA901CA010895EF9208
:1031A000FF920F931F93CF93C0E000E010E08C2FAD
:1031B0000E94AB18E92EF12C0E0D1F1DCF5FC430FD
:1031C000B1F7C801CF911F910F91FF90EF90089533
:1031D0000E94AB182091930620FF03C09195819522
:1031E00091090895EEECF6E040E0842F806480932E
:1031F0007C0000C000C080917A00806480937A00D7
:1032000080917A0086FDFCCF8091780090917900C2
:1032100020917A00206420937A0020917A0026FD84
:10322000FCCF2091780030917900820F931F20917C
:103230007A00206420937A0020917A0026FDFCCF4A
:103240002091780030917900820F931F20917A00AD
:10325000206420937A0020917A0026FDFCCF2091F3
:10326000780030917900820F931F9695879581930E
:1032700091934F5F483009F0B8CF089578941F922A
:103280000F920FB60F9211248F93809129028F5FB6
:10329000809329028F910F900FBE0F901F90189569
:1032A00078941F920F920FB60F9211240BB60F92C3
:1032B0002F933F938F939F93EF93FF93F894809175
:1032C00070008E7F809370007894209180028091AE
:1032D000820290919C06882359F090FF07C080914C
:1032E0007810820F8093781087FF02C0739A01C014
:1032F000739891FF2AC080916D0A811126C0E2E483
:10330000FFE086A1823009F583A1882311F0815066
:103310001BC081A12F9A92A190FD09C08D7F24A18D
:1033200035A136FD8260220F331F35A324A391E01F
:10333000892782B981A32F9882A1815082A381110C
:1033400004C083E086A385E083A3F8948091700095
:103350008160809370007894FF91EF919F918F919D
:103360003F912F910F900BBE0F900FBE0F901F90AB
:10337000189578941F920F920FB60F9211240BB6E6
:103380000F922F933F934F935F936F937F938F93FE
:103390009F93AF93BF93EF93FF9387B5845687BDF9
:1033A0008EE792E00E945A870E942D7F0E948F8EA6
:1033B0008091AE0E82608093AE0EEAE0F2E08081F2
:1033C000815011F0808304C084E6808381E0818392
:1033D0008281815011F0828304C08AE0828381E07F
:1033E0008383FF91EF91BF91AF919F918F917F91D7
:1033F0006F915F914F913F912F910F900BBE0F9066
:103400000FBE0F901F90189578941F920F920FB6D1
:103410000F9211240BB60F922F933F934F935F930C
:103420006F937F938F939F93AF93BF93EF93FF938C
:103430002091960030919700F894809171008F7DD3
:103440008093710078948091C5069091C606A90179
:10345000481B590BCA01969587953093C606209351
:10346000C5069C01215A3F402F3D3E4220F481E099
:1034700080932A022DC0E0912A022FEF2E0F2830D0
:1034800038F59C012152334027373540F8F424E6C3
:103490002093C00221E02E0F20932A02F0E0EE0FCD
:1034A000FF1FE75DFD4F9C012C5D35409091970615
:1034B000965F929FA001939F500D1124CA016AE06C
:1034C00070E00E94A1947183608302C010922A026E
:1034D000F894809171008062809371007894FF91DC
:1034E000EF91BF91AF919F918F917F916F915F917C
:1034F0004F913F912F910F900BBE0F900FBE0F90E9
:103500001F901895E82FF0E0EE0FFF1FEC55F04FDD
:10351000F894808191817894089584E00E94821AC1
:103520002091AD083091AE08820F931F08959C0141
:1035300045E0359527954A95E1F7280F391FAC01ED
:10354000440F452F441F550B241B350B892F990F12
:10355000990B8595820F931F08959DE7980F9B3FC8
:1035600088F08E57E82FF0E0EE0FFF1FEB56FA4F72
:10357000808186171CF46083862F0895481714F401
:103580004083842F089544E66CE90C94AD1A282FEB
:103590009091EF02892F807194FF04C081E0223066
:1035A00009F080E0089549E28402900111243595E4
:1035B000279535952795982F87FD915C96FB990F58
:1035C000990B90F9A901491B510997FD5395CA011F
:1035D00008952F923F924F925F926F927F928F92B7
:1035E0009F92AF92BF92CF92DF92EF92FF920F9392
:1035F0001F93CF93DF93782E662E77FE04C08195BC
:103600008A3058F4F3C129E0271538F08EE0870D91
:103610000E94C17E7110F4C1E4C18A50082F10E0ED
:103620008C3008F4EFC068013CE0C31AD1084601B1
:10363000880C991C880C991C940122523D4FF90169
:10364000ED5EFC4F8081882309F4CEC1A80141556D
:10365000594F1A0154E0561510F4F101E8C0590110
:10366000FFEEAF1AFCEFBF0AF50150807901FEEEC4
:10367000EF1AFCEFFF0AF70140800E9469148111E4
:103680001CC08FEF850D0E943B16EC01F501808177
:10369000853274F05BEDB52EB80EF70160818B2D8D
:1036A0000E941B277C018B2D0E940527B82E1BC072
:1036B000F70180810E94D31A0CC0823071F48FEF21
:1036C000850D0E943B16EC01F701808181500E941C
:1036D0003B167C01BB24B39406C0BB24B394E12CFD
:1036E000F12CC0E0D0E0F401EF50FA4FE0818E2FD2
:1036F00090E0FC013197EE30F10508F05FC08827BB
:10370000EA59FF4F8F4F0C94F694D7FF34C0D195F0
:10371000C195D10930C0D7FF33C0D195C195D1092A
:103720002FC0D1E0D60D4D2F60E0852D0E94131DD6
:10373000C82F4D2F60E0842D0E94131DF401EF501F
:10374000FA4F9081953019F4CC23C1F104C0963022
:1037500029F4C11135C0811133C030C0982F9C2786
:1037600029C091E0CE15DF05C9F424C091E0CE1543
:10377000DF0501F513C091E0EC16FD06DCF00EC08C
:1037800091E0CE15DF05B4F009C091E0CE15DF055C
:103790008CF404C091E0EC16FD0664F490E00AC0DD
:1037A000000F111FF801E75AFD4F91819095991F65
:1037B0009927991FBB2011F0911104C080E020C00F
:1037C000BB20E1F3F601EE0FFF1FEE0FFF1FEE50DF
:1037D000FA4F8081882399F089300CF08F5F883F01
:1037E0000CF009C181508C310CF008C1853E0CF4FD
:1037F00087EF41E0460D60E00E94131D01C081E0AB
:10380000F101ECC0E801CC0FDD1FCE01800F911F4C
:10381000FC01EC5CFA4F22812F7009F4E5C098019D
:103820002155394F490134E0361520F4F4018081E7
:103830008170D5C09C0122523D4F6901FAEACF1A2E
:10384000FDEFDF0AF60140807901F9EAEF1AFDEF9A
:10385000FF0AF7015080FC01EA5CFA4F80818F700B
:103860000E94691481111CC08FEF840D0E943B16C9
:103870005C01F6018081853274F09BEDD92ED80E63
:10388000F70160818D2D0E941B277C018D2D0E94E8
:103890000527D82E1BC0F70180810E94D31A0CC0C7
:1038A000823071F48FEF840D0E943B165C01F701AA
:1038B000808181500E943B167C01DD24D39406C098
:1038C000DD24D394E12CF12CA12CB12CFE01E00FCE
:1038D000F11FEA5CFA4F8081E82FEF708E2F90E0A5
:1038E000FC013197EE30F10508F061C08827EC58F3
:1038F000FF4F8F4F0C94F694B7FE38C0B194A1944B
:10390000B10834C0B7FE37C0B194A194B10833C038
:10391000EE24E394E60C4E2D60E0842D0E94131DEE
:10392000F82E4E2D60E0852D0E94131DFE01E00F44
:10393000F11FEC5CFA4F22812F70253019F4FF2023
:10394000B1F104C0263029F4F11033C0811131C027
:103950002EC0982F9F2527C091E0AE14BF04C9F454
:1039600022C091E0AE14BF04F1F413C091E0EA1458
:10397000FB04CCF00EC091E0AE14BF04A4F009C06B
:1039800091E0AE14BF047CF404C091E0EA14FB049F
:1039900054F490E008C0FE01E75AFD4F91819095E4
:1039A000991F9927991FDD2011F0911104C080E023
:1039B00014C0DD20E1F3C00FD11FCA5CDA4F88814B
:1039C00082958F7049F089300CF08F5F41E0460D91
:1039D00060E00E94131D01C081E0F4018083171490
:1039E0007CF091E089270CC080E00AC08EE0871946
:1039F0000E94C17EF6CF8C310CF4FBCE89E0F9CE6B
:103A0000DF91CF911F910F91FF90EF90DF90CF90BA
:103A1000BF90AF909F908F907F906F905F904F90EE
:103A20003F902F900895882329F08C3151F0843EE7
:103A300019F409C0862F08958D312CF4642F0C944D
:103A4000E91A81E0089580E0089540E060E0809107
:103A50007E060E94131D811114C080913C0290913A
:103A60003D02892B71F41092620F8091710E90913A
:103A7000CD06981751F08093CD0682E49FE00C9418
:103A8000D31781E08093620FF0CF089520913C021C
:103A900030913D022115310511F021503109882363
:103AA00019F08091950601C080E090913B02992326
:103AB00029F090919D06891708F4892F4AEF849F79
:103AC000C0011124880F991F8217930708F4C901B8
:103AD00090933D0280933C020C94251DAF92BF92BF
:103AE000CF92DF92EF92FF920F931F93CF93DF93CA
:103AF0008091720E9091730E9091CA06282F291B07
:103B000020933E028093CA0660E082E399E00E941F
:103B1000155980913E02882309F4CDC2EEE8F9E000
:103B2000878980FF0EC0808D91E0980F943610F445
:103B3000908F07C08356808F858996890196968BD2
:103B4000858B8091C002882319F081508093C00238
:103B500080E00E9491730E943F790E94557EB82EAA
:103B6000082F0F700650C091F002C43021F0C3300E
:103B700019F4C4E001C0C8E0083008F0ABC08B2DD8
:103B8000807F803209F4A6C0E091910644E0E49F72
:103B9000F0011124802F8695E80FF11DE75CFB4FA3
:103BA00014918091AD0680FF03C083E0811B182F24
:103BB000612F80912E070E941417F82E612F0E940A
:103BC00037179C01C1110CC0EC0197FF04C0CC2732
:103BD000DD27C81BD90BD595C795D595C795CF5F60
:103BE000123071F48091EF0280FF03C091E0C2E0D7
:103BF00001C090E08091930680FF03C0C19501C091
:103C000090E0DD27C7FDD09500FF03C0C20FD31F92
:103C100004C0A9014C1B5D0BEA01209709F445C2C1
:103C20004D2F4095441F4427441F832F8095881FA4
:103C30008827881F481789F091110FC0232B69F03E
:103C400040E050E0612F8F2D0E943F178B2D0E9486
:103C50001D7F86E10E9420893CC0CE0184589F4F81
:103C6000893F910578F4AE01612F8F2D0E943F1797
:103C7000D7FF03C0D195C195D109D595C795D595E5
:103C8000C79520C01C161D061CF043E85FEF02C05C
:103C90004DE750E0612F8F2D0E943F17CE018358D2
:103CA0009F4F8B3F9105A8F4D7FF03C0D195C195D5
:103CB000D109D7FD2396D595C795D595C795D195AB
:103CC000C195D1094C2F445C65E18EE792E00E94DA
:103CD0000788B12CE0E4F2E0209186093091870951
:103CE00080819181821B930B97FD4F9645E09595BE
:103CF00087954A95E1F7009751F084819581821B61
:103D0000930B97FD01969595879531832083358395
:103D100024832091930625FD04C020915409222379
:103D200011F080E090E093838283C7EBD2E09D8125
:103D30008981891B8F3F09F480E087FD8F5F85951E
:103D40008887282F220F920F9D838B290E94461D62
:103D50008091A906895FE0914C02F0E0EE0FFF1F11
:103D6000E35BFD4F208131812C513F4409F047C076
:103D700028852223B1F09E81332727FD3095290F16
:103D8000311D97FD3A952E37310514F09DE705C09A
:103D900023389FEF39071CF493E89E8301C02E83DC
:103DA000188690915A05292F207E49F19295969573
:103DB0009770892F90E0843091055CF4880F991FEB
:103DC000FC01E058F64F208131813C5F60E078E0F3
:103DD0000DC0880F991FFC01EB56FA4F2081332745
:103DE00027FD309523583F4F6AEF70E047E0429F30
:103DF000C001439F900D11240E948D94862F9091B5
:103E0000C10289130E94CD178091990687FF3AC09D
:103E1000809158028823B1F1809157028823A1F143
:103E20008091C90687FD03C08F5F8093C90682E039
:103E30000E948218982F9F7779F02091C9069217D7
:103E400018F51092C906B1101FC0B82EBB1CBB24B8
:103E5000BB1C22E6B20E18C083E00E948218982F85
:103E60009F7791F02091C906921770F41092C906BD
:103E7000B1100AC0B82EBB1CBB24BB1C85E68B1935
:103E8000B82E02C01092570281E080935802A09091
:103E90002E070091BD02112707FD1095C0E0D0E06C
:103EA000AAE0EA2EF12CAE0142525D4F6A01FA01FE
:103EB000E854FD4F60816623C1F1653030F46150F4
:103EC0008A2D0E943717BC0122C06530F9F0862F79
:103ED00090E0880F991FFC016A3010F06D3070F48B
:103EE000E259F64F6081718177FF02C0695F7F4FB1
:103EF000E3E075956795EA95E1F709C0E05CF64F58
:103F000080819181B7010E94A19401C0B8016338FA
:103F10005FEF75072CF06D3771051CF06DE701C080
:103F200063E8F601E954FD4F60832296CE30D10557
:103F300009F0B9CF8091DC029091DD020097B1F0D9
:103F400060E00E94CC160E94D58F9091C8069923FC
:103F500039F0811125C01092DD021092DC0220C0E0
:103F60008823F1F081E08093C8061AC01092C80639
:103F7000C0914B02CC2331F010924B0287E10E949A
:103F80002089BC2EB092B602E0914C02F0E0EE0F18
:103F9000FF1FE35BFD4F0190F081E02D8B2D199504
:103FA0000E94C77DC4B38EE792E00E9446878823B3
:103FB00011F084E105C080917A10882321F08150AE
:103FC00080937A1005C082B38695817080937910B2
:103FD000809179108093DA02882309F464C080917B
:103FE000990685FD60C0CF7EC4BB8091710E8F7134
:103FF000823009F055C02091DC063091DD06B90110
:1040000044E0660F771F4A95E1F737FF02C0295F4A
:104010003F4F93E0359527959A95E1F740917D06BE
:10402000552747FD50954A5F5F4F249FC001259F4C
:10403000900D349F900D1124860F971F20919306A9
:1040400026FD05C0609100027091010202C060EF80
:1040500070E00E948D9480913F02680F711D6F5F28
:104060007F4F7595679560933F028091C706805F8B
:104070008093C706811114C080917C06681780F474
:10408000623370F06EE281E10E942689809193068E
:1040900083FF06C082E390E090933D0280933C0250
:1040A00010923B0208C0C0619FCF9111DCCD232B41
:1040B00009F4D9CDC5CDDF91CF911F910F91FF901C
:1040C000EF90DF90CF90BF90AF900895CF93DF93A4
:1040D0002091DB02222339F09093DD028093DC02F1
:1040E000DF91CF910895C62F60E00E94CC16C111D8
:1040F00003C080917B0601C089E10E947E7D67E15B
:1041000082E10E9426890E947316D1E00E94D58F19
:10411000882321F0DF91CF910C9473168091AE0E1D
:10412000833019F4A8951092AE0E40E060E08091C3
:104130007E060E94131D811106C080919506811193
:1041400002C0CC2329F0D093620F0E94251DDECF40
:104150001092620FFACF90914C02911103C081111D
:1041600006C00BC0811102C0915001C090E0909335
:104170004C028EEB80934B02089560E08FEA92E050
:104180000C946620E0914C02E43028F060E082EA72
:1041900092E00C9466202FEB20934B02EF5FE093AC
:1041A0004C02F0E0EE0FFF1FE35BFD4F9183808335
:1041B00008950F931F93CF930BEA15E090E0F80159
:1041C0008081C1E0C90F882341F040E060E00E9497
:1041D000131D882311F08C2F06C09C2F065F1F4FE4
:1041E000C43069F780E0CF911F910F9108957F92BD
:1041F0008F929F92AF92BF92CF92DF92EF92FF92F7
:104200000F931F93CF93DF9310928C098091290213
:10421000C6B5909129028913F9CFD0E0D82B8091AF
:104220005A058F7190E1792E781A0E94F2181EE5D6
:1042300010937C000E9459180E946E1D10937C0000
:1042400080917A00806480937A0080917A0086FD64
:10425000FCCF809178009091790004964091000203
:104260005091010267E0649F9001659F300D112419
:10427000820F931FE3E096958795EA95E1F7909377
:104280000102809300028091AE0E833019F4A8954C
:104290001092AE0E2091290286B590912902291321
:1042A000F9CF90E0922B8C1B9D0B20911002309146
:1042B00011022817390720F49093110280931002FD
:1042C00080910D02882309F4D3C18091C306909197
:1042D000C40601969093C4068093C306C72CF7E1E9
:1042E000FC1508F47CC00C2D10E0C801880F991F44
:1042F0009C01255A3A4F79013FE03C1538F4C8013A
:10430000880F991FFC01E154FA4F7F01F70180816A
:10431000C82FC295C695C770D181C63048F4DB3F1F
:1043200038F0ED2FF0E0EE0FFF1FEB55FC4FD08182
:104330008F7109F452C040E060E00E94131DD82E36
:1043400080910D020E531D4F823009F444C08C2F12
:10435000857051F4F8018081811106C0DD2021F0C3
:104360008D2F90E00E94AE178FEF8C0F823050F4AB
:10437000F8018081813079F5D1102DC0C23039F536
:10438000DF5F25C0C63058F0F8018081811123C05D
:10439000DD2009F1F70181810E94F5271CC0C3309F
:1043A000D0F0DD20C1F0C43029F0C53031F468E52B
:1043B00072E005C06CE271E002C066E970E08091D5
:1043C000C3069091C4060E948D94892B21F48D2FF1
:1043D00090E00E94AE17F801D082C39480CF39E5F7
:1043E000E32E32E0F32E45E3C42E45E0D42E5701F0
:1043F000812C912C8401000F111FF801E80DF91D8B
:10440000EA5CFA4F80818F700E946914833009F052
:1044100045C0F501C081D181209779F4F60131972B
:10442000C081C7FD06C0C095FAE0CF02E0011124AB
:1044300019C0DD27C7FDD09515C0D7FF12C0219642
:1044400089F4F601C081C7FD06C0CF5FFAE0CF0254
:10445000E001112406C0DD27C7FDD095C095D09599
:1044600001C02197080D191DF801EC5CFA4F8281FB
:10447000807F89F0F801EA5CFA4F808182958F7025
:1044800089300CF08F5F40E060E00E94131D8111C5
:1044900002C0CFEFDFEFF501D183C083FFEF8F1AAA
:1044A0009F0A22E0A20EB11C33E0C30ED11C8CE0A7
:1044B0008816910409F09ECFC12CD12C860102529E
:1044C0001D4FF801ED5EFC4F80810E94691483301E
:1044D00009F04AC0F701C08DD18D209781F4F80111
:1044E000EF5EFC4FC081C7FD06C0C095FAE0CF0269
:1044F000E00111241BC0DD27C7FDD09517C0D7FFF1
:1045000014C0219699F4F801EE5EFC4FC081C7FDFE
:1045100006C0CF5F2AE0C202E001112406C0DD27F9
:10452000C7FDD095C095D09501C02197F801EC5EEC
:10453000FC4F80818823A9F089300CF08F5F883F81
:104540000CF096C1815086310CF095C18B3E0CF475
:1045500087EF40E060E00E94131D811102C0CFEFA1
:10456000DFEFF701D18FC08FF4E0CF0ED11C22E036
:10457000E20EF11C38E1C316D10409F09FCF10926E
:104580000D028091CB05882309F472C040E060E001
:104590008091CC050E94131D882309F469C0809185
:1045A000C206882319F081508093C2068091C2060A
:1045B00081115EC08091CB05813081F487E20E9439
:1045C000821AEC016091CD056695669570E06230C7
:1045D0007105D4F00E94A194EB0116C081E00E9405
:1045E000821A805891099C012E5F3F4F253031057A
:1045F00010F480E090E02091CD0526952695289F27
:10460000E001299FD00D11242097E9F0D7FF0AC0BF
:10461000D195C195D1098091CD0580FD09C046E4B1
:1046200062E202C046E461E28EE792E00E940788FF
:10463000CB34D105A4F0CD37D1059CF0CF3AD105CC
:1046400094F082E013C08091CD0580FD0EC046E459
:1046500061E28EE792E00E94078884E107C088E06B
:1046600005C086E003C084E001C080E08093C206FC
:1046700080910B02882309F400C18091481088239F
:1046800009F44FC08091EA02807CD9F0803819F09B
:10469000CAE7D0E002C0C0E9D1E00E948D1A6AE00A
:1046A00070E00E94A194CB012091EA0223FD03C097
:1046B00025FD0E943726C817D9071CF481E00E9407
:1046C0002089D0E0CCED80E000E010E09091730F05
:1046D000D917B0F4ED2FF0E0EC58F04F9081090FAE
:1046E000111D9C1708F4C92F811107C0209158058E
:1046F000921720F48DE10E94208981E0DF5FE6CFF0
:10470000C80165E070E00E948D947093EF0F609394
:10471000EE0FCC3D31F08C2F90E09093EB0F809317
:10472000EA0F80914910882329F180910706882398
:1047300009F1809184058823E9F02091EC0F3091F4
:10474000ED0F96E0359527959A95E1F790E02817BB
:10475000390784F080919C0681FF05C081E390E0D9
:104760000E94AE1707C046E4609185058EE792E08F
:104770000E9407888091C1068F5E982F9F709C30A1
:1047800008F0807F8093C106CCE5D5E000E010E022
:10479000982F9073E92EE82FEF70BE2EF82FF07F40
:1047A000AF2E8077F82E071508F058C06801CC0CA2
:1047B000DD1CF601E55AFA4F8081982F907C9034E9
:1047C000C1F4E11016C0880F880F40E060E08595C5
:1047D00085950E94131D882361F080919C0680FFBF
:1047E00002C0688101C061E046E48EE792E00E9469
:1047F0000788F601E55AFA4F8081982F907C90380F
:1048000049F5880F880F859585958D31B4F09927E6
:1048100087FD90954D978130910529F0029731F0F1
:10482000F11018C006C0B11015C003C020E2A212DA
:1048300011C088810E94F5270DC0E1100BC040E037
:1048400060E00E94131D882329F08881805890E041
:104850000E94AE170F5F1F4F2296A5CF10920B023A
:1048600080915702882349F081508093570205C0F8
:1048700086310CF46ECE89E06CCEDF91CF911F9122
:104880000F91FF90EF90DF90CF90BF90AF909F90EF
:104890008F907F9008950F931F93CF93DF93F89499
:1048A0008091720E9091730E78942091CB06309186
:1048B000CC06AC01421B530B4B30510520F010923B
:1048C000DE0601E001C000E09093CC068093CB06A9
:1048D00018E0C0E8D12F40E060E0812F0E94131D56
:1048E000002341F08823E1F08091DE068C2B809339
:1048F000DE0616C0882311F09C2F01C090E02091A5
:10490000DE0692279C2361F0C227C093DE06811148
:1049100002C0D12FD19586E08D0F833038F004C0CE
:10492000C6951150B9F602C0D1110BC060E089E004
:104930000E94E91A882311F0D9E001C0D0E00111EA
:10494000D0E08D2FDF91CF911F910F910895AF92FD
:10495000BF92CF92DF92EF92FF920F931F93CF936C
:10496000DF937C016B015A01D22FC091B6029C2FBC
:104970009F7D943431F080915809882321F193343C
:1049800041F487010F5F1F4F83E10E94208985E07A
:104990000BC0953411F09234C1F487010150110914
:1049A00084E10E94208984E00E94C17E882371F006
:1049B000002711270E191F0985E00E941D7F84E042
:1049C0000E941D7F03C0953441F38701C114D104B7
:1049D000E9F481E0A816B104C9F4C03611F0CE3272
:1049E00089F41092580901E0E114F10409F000E0A3
:1049F00010E08C2F0E941D7FCE3239F481E080932D
:104A00008D0903C00170112701C0C0E0D3FF08C0A9
:104A10000E944B24882321F0082F112707FD1095B1
:104A20008091420290914302081B190B80918D09DD
:104A3000833031F48091BF02080F111D87FD1A9554
:104A4000A016B10644F48C2F0E941D7F83E10E94C2
:104A5000208985010AC00C151D053CF48C2F0E948D
:104A60001D7F84E10E94208986010E151F05A9F093
:104A70000115110551F48C2F0E940D7FF7FE02C025
:104A800083E101C084E10E9420898D2F83700E9400
:104A9000377381E080934A0202C010924A02C80133
:104AA000DF91CF911F910F91FF90EF90DF90CF900A
:104AB000BF90AF900895552747FD5095772767FD24
:104AC0007095992787FD90950E94A724089522E06C
:104AD0000C945B25462F22E060E00C945B2521E0DE
:104AE0000C945B25462F21E060E00C945B25462F5B
:104AF00050E022E060E070E00C94A724282F30E022
:104B0000883058F02850310949E0429FC001439F46
:104B1000900D112484519B4F089545E0429FC001A0
:104B2000439F900D11248C539B4F0895CF93DF9397
:104B3000D82F9091AC0EC92FC17090FD03C068ECC6
:104B400072E102C06AED72E188E10E947A7AD136A0
:104B500029F41092AC0E80E00E94AB20C11109C074
:104B60004091A80F5091A90F24E060E388E40E94CF
:104B7000F17C8091F70981508093F709811105C07C
:104B800081E0DF91CF910C942089DF91CF9108953E
:104B9000813649F40E941D7F81E00E94AB2084E1B0
:104BA0009BE50E94C2206AE973E180E10E947A7A63
:104BB00064E873E180E20C947A7A1F93CF93DF93D9
:104BC000182FD62FC42FB9010E947A7ADD2329F03D
:104BD0006FE08C2F0E946A25C82F8091EF024C2F26
:104BE00083FF02C0440FD06250E02D2F612F80E67A
:104BF0000E94F17C8C2FDF91CF911F910895FF923D
:104C00000F931F93CF93DF93182FF62E0AE08AE0BD
:104C1000189FE0011124C850DD4F8FE190E0811B07
:104C20009109089FA001099F500D1124BE01CE01DA
:104C30000A960E941995FE01FF2041F03A978AE0FA
:104C4000DE0101900D928A95E1F709C011920A9553
:104C5000E9F78091070A8883898384E68A83109321
:104C6000090ADF91CF911F910F91FF9008959C0148
:104C7000220F331F280F391F959587959595879596
:104C8000280F391F959587959595879595958795C3
:104C9000820F931F08959C012E5E3F4F43E7429F72
:104CA000C001439F900D112426E0959587952A9584
:104CB000E1F70895AF92BF92CF92DF92EF92FF9209
:104CC0000F931F93CF93DF9390918C09963008F048
:104CD0008FC08A016B019F5F90938C09E82EF12CA5
:104CE0006BE0869FF0011124EF5DF94F80818823EE
:104CF00049F081500E943B169C01442737FD4095A6
:104D0000542F03C020E030E0A9016BE06E9DC0018C
:104D10006F9D900D1124FC01EF5DF94FB680EB2DD6
:104D2000E870AE2EB3FC0DC0FC01EE5DF94F808142
:104D30009181AA2797FDA095BA2F280F391F4A1FE6
:104D40005B1F8BE08E9DE0018F9DD00D1124C25220
:104D5000DD4FFE01EA5BFC4FA081B0E011960E949E
:104D600067943196208130E02F5F3F4F442737FD15
:104D70004095542F0E94D794AA2061F0CC5BDC4F61
:104D800088819981AA2797FDA095BA2F280F391FEE
:104D90004A1F5B1FB0FE07C0509540953095219586
:104DA0003F4F4F4F5F4FC114D10459F08BE08E9DA0
:104DB000F0018F9DF00D1124EA5DF94F8081F6011D
:104DC00080830115110569F08BE08E9DF0018F9DA8
:104DD000F00D1124E95DF94F808186958370F8010B
:104DE000808380918C09815080938C09C90102C015
:104DF00080E090E0DF91CF911F910F91FF90EF90B5
:104E0000DF90CF90BF90AF900895E82FF0E0E55D80
:104E1000F64EE491EE2369F0E13021F480914910DF
:104E2000811107C081E090914810911103C080E08A
:104E3000089581E00895E82FFF27E7FDF095E85AEF
:104E4000F54EE491262F332727FD3095C90183586D
:104E50009F4FEC3009F44AC09CF4E43021F14CF44B
:104E6000E53F09F454C00CF45CC0EE5FE230C8F0DA
:104E70000895E630C1F00CF454C0EA30FCF5089512
:104E8000E43209F43FC044F4EE300CF44AC0E0319F
:104E9000CCF1E332C9F10895E732B4F1E732E9F138
:104EA00008952AE024C0803491059CF0880F991F52
:104EB00080549109813C910564F0880F991F805CB2
:104EC0009109813C51E0950724F0880F991F885E75
:104ED00091402AE0AC01249FC001259F900D112430
:104EE0002091EA0225FF1DC00C94372624E6AC0170
:104EF000249FC001259F900D11240895C901815A56
:104F00009F4F089522E3F3CF880F991F089523E060
:104F1000880F991F2A95E1F708955AE06502C001AC
:104F200011240895CF93DF93E82FFF27E7FDF09535
:104F3000E85AF54E8491853FC9F486E20E94821AB0
:104F4000EC0180E20E94821AD595C7959C013595A7
:104F50002795C29FC001C39F900DD29F900D112431
:104F600069E170E00E94A194CB013CC0863F4CF403
:104F700040E050E060E070E0815FDF91CF910C9401
:104F80005A268D3F54F4E82FEE0FFF0BE755FA4FEA
:104F90008081992787FD909525C08F3F09F044F4C3
:104FA0008E3F84F48D3FD1F480913F0290E01AC08F
:104FB000843081F0833291F483E20E94821A880F58
:104FC000991F10C0E82FEE0FFF0BEE56F64F8389A6
:104FD000948908C0DF91CF910C948D1ADF91CF9105
:104FE0000C94821ADF91CF910895CF92DF92EF92C5
:104FF000FF920F931F93CF93DF9300D0CDB7DEB70F
:10500000182F1B821A8219820E9492277C01812FFD
:105010000E940527811105C08AE30E94CA1701E09A
:1050200001C000E0E12FFF27E7FDF095E85AF54EBB
:10503000E491E23014F5E7FF5CC0ED3FDCF4E63FBD
:105040000CF04EC0E13F0CF4C1C0E53F0CF0B3C022
:10505000AE014E5F5F4FBE016D5F7F4F8FE08E0FE1
:105060000E945A267C01EB81F0E0EA57F64EE4916B
:10507000EB83ACC0ED3F31F51DC0E332F1F07CF4C1
:10508000EC303CF4EA300CF08BC0E43009F464C03E
:105090009DC0E03209F09AC081E08A837FC0E73288
:1050A00009F48CC01CF4E5322CF490C0EC3209F405
:1050B0006DC08CC084E28B8367C084E28B8382E006
:1050C0008A8384C06CE370E0C7010E94A1946B01E5
:1050D0007C0146E260E0C6010E942F8985E36CC036
:1050E000EE0FFF0BE755FA4FE080FF24E7FCF0944A
:1050F0006DC08E2F992787FD9095DC01AA0FBB1FED
:10510000AA0FBB1FA258BA4F1C911295169516955F
:105110001370880F991F880F991FDC01A558BA4F8B
:10512000DC9041E0123009F040E09E012F5F3F4FDC
:105130006E2FC7010E9473157C0184E28B8381E08E
:105140008A83133059F1113019F41B821A823EC040
:1051500083E68D15D8F1B3CF88E38B839091EA0273
:10516000892F807293FF03C0882349F006C08823EB
:1051700031F0C7010E9437267C0188E18B8388EEDD
:10518000E81683E0F806E4F481E09ACF8091EA0221
:1051900085FF1CC0C7010E9437260BC083E30CC0EB
:1051A0008FE28B838091EA0285FF10C0C7010E94C5
:1051B0004B267C010BC08BE38B8308C081E08A8384
:1051C000C7016AE070E00E94A1947B01011105C053
:1051D0004B816A81C7010E942F890F900F900F9019
:1051E000DF91CF911F910F91FF90EF90DF90CF90C3
:1051F00008955F926F927F928F929F92AF92BF922B
:10520000CF92DF92EF92FF920F931F93CF93DF9392
:105210001F921F92CDB7DEB7882E762E5901102F20
:105220006E2C80E28A83C42EDD24C7FCD0948E2DA0
:105230008170E82E60FE26C0F601E85AF54EE49132
:10524000E15FE43008F010C18BE0E89FF001112429
:10525000DF01A85DB94F8C91882309F405C1AD0128
:1052600000E124E0882D0E94217A12FD04C098E11B
:10527000992E980C08C08CE1982E980C88EF780E27
:105280000CE002C0982C06E0862D8870582E63FC36
:105290001F7BF601E85AF54EF49084E0F81609F405
:1052A00095C08F15DCF08DEFF81609F4A7C08F15A7
:1052B00064F081EFF8160CF4ABC084EF8F1594F511
:1052C00085EFF812A5C087E79BC08FEF8F150CF014
:1052D00045C081E08F150CF058C09AC080E2F816E6
:1052E00009F489C08F156CF086E0F81609F46EC0D9
:1052F000F8160CF48DC0E6EFEF0DE23008F458C05C
:1053000087C086E28F154CF085E2F8160CF076C067
:1053100083E2F8127DC0106372C087E2F81278C091
:10532000106270C0AE014F5F5F4FBE016E5F7F4F76
:105330008FE08F0D0E945A262981213011F41062CE
:1053400003C0223009F41063EA81F0E0E258F64E1F
:10535000E491EA8367FC5CC05C015AC012FD02C0A4
:105360008CEF980EEE2011F08AE0980E1770012F46
:10537000212FA501672D8AEF890D0E94937CE3E31D
:10538000EF0DEA838AEF880E4CC0912F90684A2D6A
:10539000552019F08DE3880D02C0892D801BEE2465
:1053A000E394092F2F2D672D0E94B7158A8339C0EA
:1053B00083E48A838091EA0285FF2AC0C5010E94A6
:1053C0004B265C0186E48A83901A22C08DE68A838C
:1053D0008091EA0285FF08C083FD04C0C5010E94D8
:1053E00037265C0186E68A8388EEA81683E0B80635
:1053F0004CF410620DC0106281E402C0106286E7B6
:105400008A8306C0C5016AE070E00E94A1945B0136
:105410005520A1F18DE3880D212FA501672D0E9454
:10542000F17C862D867069F062FE04C08AE0880DEA
:105430001B7F02C08091700E212F4A81672D0E9430
:1054400089798A810F900F90DF91CF911F910F91F1
:10545000FF90EF90DF90CF90BF90AF909F908F9094
:105460007F906F905F90089521E0240F00E041E865
:105470005AE1672D882D0E94467AF7CE892DCCCF30
:105480000F931F93CF93DF93D82F162FC42F022F84
:1054900041E758E10E945A7A40E34C0F202F612FD8
:1054A0008CE08D0FDF91CF911F910F910C94897932
:1054B000DF92EF92FF920F931F93CF93DF93182FFA
:1054C000F62EC42FD22EDE2DD370A1F08091B6021D
:1054D000803881F48DE7840F8B3F40F0E42FF0E0BB
:1054E000EE0FFF1FE756FB4FC08101C0CEE782E001
:1054F0000E9437738DE78C0F2E2D8B3FA0F043E871
:105500004C0F6F2D8EEE810F0E94402ADD2309F192
:1055100022E042E850E06EE770E08C2F90E00E94BD
:10552000A724C82F16C04C2F552747FD50956F2D27
:10553000812F0E94F17CDD2361F0402F6D2D8C2F97
:10554000DF91CF911F910F91FF90EF90DF900C941E
:1055500067258C2FDF91CF911F910F91FF90EF90D6
:10556000DF900895CF93DF932EE0829FC001112436
:10557000EC01C252DD4FFE01EA54FE4F40E060E014
:1055800080810E94131D882359F0C954DE4F40E0EA
:1055900060E088810E94131D882321F082E003C00F
:1055A00080E001C081E0DF91CF910895EF92FF92FA
:1055B0000F931F93CF93DF93E82E162FC42FD42F72
:1055C000D695F62EFD1A082F0D1B6F2D802F0E94E9
:1055D000267B6D2F610F4C2F802F0E94237B4C2F39
:1055E0006F2D8D2F8E0D0E94267B4C2F6F2D802FBF
:1055F000DF91CF911F910F91FF90EF900C94237B3F
:1056000021E0AC0160E080E00C945A7A0F931F9384
:10561000CF93DF93182FCEE8D9E089ED9CE00E946C
:10562000002B113678F0133628F0133659F48DEB31
:105630009BE202C08CE19FE4DF91CF911F910F911B
:105640000C949A1760ED7CE088E00E947A7A4A8197
:105650005B8100E020E068E08AE20E94937C4C815C
:105660005D8120E068E08EE40E94937C67EC7CE042
:1056700080E10E947A7A4E815F8120E060E18AE2D7
:105680000E94937C4885598584E0569547958A9574
:10569000E1F720E060E18EE40E94937C62EC7CE024
:1056A00080E00E947A7A4881598120E060E08EE4AF
:1056B0000E94937C4EE76CE382E00E94237B43E2EE
:1056C0006CE185E00E94267BCBE043E06BE38C2F0E
:1056D0000E94267BCA5FC338C1F71091B008809141
:1056E000AF08893710F0C12F01C0C0E0D6E00CE34D
:1056F000EC2FF0E0EF54F74F4081602F641B8D2FAB
:105700000E94267BCF5FC83708F0C0E0C11719F0B0
:10571000DF5FDE3769F7DF91CF911F910F91089519
:1057200091E0211101C090E0411103C04DE454E02B
:1057300002C049E454E0292F0C945A7A0F9301E0F7
:10574000211101C000E0242F49E658E10E94467A69
:105750000F9108950F931F93CF93DF93C82F8A0162
:10576000D22F0E947A7A2D2FA8016C2F84E5DF9129
:10577000CF911F910F910C94F17C1F93CF93DF93E6
:10578000182FCEE0D2E087E29DE00E94002B113678
:10579000A1F058F41036C1F48FEF888319821B8270
:1057A0001A8287E10E9420890FC0123619F0133641
:1057B00021F00AC086E09BE202C08CE19FE4DF9109
:1057C000CF911F910C949A174981469550E020E0A3
:1057D00068E17DE088E00E94AA2B4881469550E070
:1057E00020E069E07DE080E10E94AA2B498150E041
:1057F0008881481B510957FF02C04F5F5F4F559585
:10580000479520E06AEF7CE088E10E94AA2B8A811C
:105810009B8129E1289FA001299F500D11245695B5
:1058200047955695479520E361EF7CE080E20E9422
:10583000AA2B4091280250E060E386E60E94837A1A
:105840006EED7CE088E3DF91CF911F910C947A7A22
:105850006F927F928F929F92AF92CF92DF92EF9250
:10586000FF920F931F93CF93DF934C01C62F142FFA
:105870003901D091310940918209509183092091D9
:10588000840930918509E0E4F2E086819781841BE8
:10589000950B97FDCF96A6E095958795AA95E1F78C
:1058A000682F8093550980859185821B930B97FD06
:1058B000CF9676E0959587957A95E1F7982F809326
:1058C0005309662311F057834683992311F03187DA
:1058D000208780915409811104C08091930685FF2F
:1058E00006C01092550910925309109254098091E4
:1058F0005509811108C090915309911104C022816A
:105900003381232B61F0209195069AEF299F900116
:105910001124220F331F30933D0220933C02611467
:105920007104B9F1F40190819111E0C090918D0959
:105930009111EFC09091BF0219160CF4E8C09111BB
:10594000C5E61092BF02CE3209F0EDC091E090930F
:105950008D09C0E08111E9C0DD24D394402F50E0CF
:105960002D2D60E08FE70E94F17C0A3008F0CDC059
:1059700005E72D2D4FE260E0802F0E948979412FAD
:1059800050E04F5F5F4F2D2D60E08FEF800F0E9442
:10599000F17CE114F10459F0F40190818C2D9C15F7
:1059A00008F4892FF701E80FF11DE49101C0E0E050
:1059B00080918D098130A9F58091BF0218167CF481
:1059C000DE1710F4DF5F39F5F40180818A1518F4D1
:1059D0008F5F808302C0F4011082D0E01CC0882356
:1059E000D1F0D11117C0F4018081882319F08150C2
:1059F000808302C0F401A082E114F10461F0F4019B
:105A000090818C2D9C1508F4892FF701E80FF11D6A
:105A1000D49101C0D1501092BF02CE3249F483E03C
:105A200005C0833029F4CE3219F481E080938D09CA
:105A3000E114F10459F0F40190818C2D9C1508F4C7
:105A4000892FF701E80FF11D949101C090E080913A
:105A500058098111C8C020915309222311F1F40182
:105A60008081821B87FD80E04A2D50E0282F33275C
:105A700027FD3095241735070CF08A2DF40180831B
:105A8000E114F10459F0C81608F48C2DF701E80F61
:105A9000F11DE491ED1718F4DE2F01C0D0E0109253
:105AA0005309F4018081882309F437C120915509F5
:105AB000222309F48EC0D21BD7FDD0E04D2F5527ED
:105AC00047FD5095E114F10479F02C2D8C1508F464
:105AD000282FF701E20FF11D249130E04217530700
