:100000000C941D100C9445100C9445100C94451044
:100010000C9445100C9445100C9445100C9445100C
:100020000C9445100C9445100C94D0150C948F70C2
:100030000C9456730C94BC700C9445100C942F16B1
:100040000C94BE150C9445100C94167A0C945B78A5
:100050000C9445100C9445100C9445100C944510CC
:100060000C94CE730C9476160C9421710C940F742E
:100070000C9445100C9445100C9445100C944510AC
:100080000C9445100C9445100C9445101D18221822
:10009000E717ED17F317F317F317131818181D18B0
:1000A000221827182C183218A94269427442834238
:1000B00089428D4292426D5383539153A653B45358
:1000C000C353D553FB532454325471549754B554ED
:1000D000C354D154DF54416E2F6E296E326E366E8A
:1000E0003A6E2C6E3E6E436E3C753E75417546759C
:1000F00059756A757A7585759775A975AE75C775E1
:10010000CA75CE75D075D275D775DB75E775EB7589
:10011000F375FA75FE7500760476067608760A762B
:100120000E76127617761C76217626762B76204F61
:100130006C642056657273696F6E20454550524F4E
:100140004D202020434845434B2053455454494EAD
:1001500047532F43414C494200416C61726D7320FB
:1001600044697361626C65640053776974636820E5
:100170005761726E696E6700506C656173652052DD
:100180006573657420537769746368657300546898
:10019000726F74746C65206E6F742069646C650096
:1001A0005265736574207468726F74746C65004571
:1001B0004550524F4D206C6F77206D656D004C4F50
:1001C0004144494E47006D537461636B206F666C08
:1001D0006F77006D537461636B2075666C6F770089
:1001E0004D45535341474500707265737320616EEE
:1001F00079204B657900507265737320616E7920A8
:100200006B657920746F20736B697000032D2D2D41
:10021000783E30783C307C787C663E30663C307C82
:10022000667C63312063322063332063342063357E
:1002300020633620633720633820633920633130F0
:100240006331316331326331336331346331356368
:10025000313600034F46464142535255735255259D
:10026000454C73454C25544873544825414C7341C3
:100270004C255031205031255032205032255033FA
:1002800020503325002D2D2D004348002D2D2D20ED
:10029000000450312020503220205033202048418B
:1002A0004C4646554C4C43594331435943324359CC
:1002B000433350504D3150504D3250504D335050CB
:1002C0004D3450504D3550504D3650504D375050A4
:1002D0004D38434831204348322043483320434877
:1002E000342043483520434836204348372043488C
:1002F000382043483920434831304348313143485E
:10030000313243483133434831344348313543482F
:10031000313633504F5347563120475632204756D7
:100320003320475634204756352047563620475607
:10033000372054484953002D2D2D2D0000006428EE
:10034000100703010452554420454C45205448529F
:100350002041494C200020414C45525400000102EC
:10036000030002010303010200030201004F4E20BB
:10037000004F46460003544852525544454C4549A7
:10038000443049443149443241494C474541545233
:100390004E535731535732535733535734535735BE
:1003A0005357365357375357385357395357415389
:1003B0005742535743001B1E272D36394B4E636C53
:1003C0007278878D939CB1B4C6C9D2D8E1E45370DA
:1003D0006C617368008040000000000000000000B5
:1003E000000000000000000000000000000000000D
:1003F00000000000000000000000000000000000FD
:1004000000000000000000000000000000000000EC
:1004100000000000000000000000000000000000DC
:10042000000080C0E0E0F0F8F8FCFCFCF8F8F8F020
:1004300040000000000080808000000000000000FC
:1004400000000000000000000000000080C0C0E0CC
:10045000E0E0F0F0F0E0C00000000000C0F8FFFFB6
:100460009F8783838383838383838383838383833C
:1004700083838383838383830383808383838383CF
:10048000838383838383838383838383838383833C
:100490008383C3E3733F1F0000000080E0F0F8FC9B
:1004A000FEFFFFFFFF7F3F1F1F0F0783C3E1E1E058
:1004B000E0C0000E1F3F7F7FFFF3E0E08000000000
:1004C0000000000000000080F0FCFEFFFFFFFF7F47
:1004D0003F0F0301010100000080F0FEFFFFC7C1D4
:1004E000C1C1C1C1C1C1C1C1C1C1C1C1C1C1C1C1FC
:1004F000C1C1C1C1C101C1F0FEFF3F0F070F0D0D0A
:100500000D1D191919193131313171616161E1C163
:10051000C1C18100000080E0F8FCFFFFFFFF2F1742
:100520000F038180C0E0F0F8FCFEFFFFFFFFFFFF3C
:100530007F010000000000000001010307070E1EFC
:100540001C3870E0F0F8FEFFFF7F1F0F0300010072
:10055000000000000000000000000000000000009B
:10056000000000000000000000000000000000008B
:10057000000000000000000000000000000000007B
:10058000000000000000000000000000000000006B
:1005900000000000007EFFFFFFFFFFFFFBF8FCFCF8
:1005A000FEFF7F3F1F0F07C3FFFFFFFFFFFF7F0718
:1005B0000000000000000000000000000000C0E09B
:1005C000F8FEFFFF7F1F0F1F3D7CF8F8F0E0800072
:1005D000000000000000000000000000000000001B
:1005E000000000000000000000000000000000000B
:1005F00000000000000000000000000000000000FB
:1006000000000000000000000000000000000000EA
:1006100000000000000000010101010103070707BD
:100620000301000000E0FCFFFFFFFFFF1F030000CD
:10063000000000000000000000C0F078DE27130971
:100640000E0703000000000000000001030F7FFF01
:10065000FC7878F800000000000000000000008036
:10066000808080808080808000808000808000008A
:1006700000000000008080808080808080808080FA
:1006800080808080808080000000000000000000EA
:10069000000000000000000000000000000000005A
:1006A000000080F0FEFFFFFFFF3F0F010000000091
:1006B00000000000C0E0381E0F0300010000000031
:1006C000000000000000000000000000000000002A
:1006D0000000030301000000000000000000000E05
:1006E0000E02020202020303000F0F000F0F0808A0
:1006F00008080808080F0F08080808080F0F00006E
:1007000000000F0F000000000000000000000000CB
:1007100000000000000000000000000000000000D9
:10072000C0F8BFFFFFFF1F7F0100000000000000B6
:1007300000F0FCFF7F7830000000000000000000A7
:1007400000000000000000000000000000000000A9
:100750000000000000000000000000000000000099
:100760000000000000000000000000000000000089
:100770000000000000000000000000000000000079
:100780000000000000000000000000000000000069
:100790000000000000000000000000000000301C0D
:1007A000070E0F070100000000000000000000001D
:1007B0000000000000000000000000000000000039
:1007C0000000000000000000000000000000000029
:1007D0000000000000000000204D4F443A20465227
:1007E000534B59204E485420202020002053564E71
:1007F0003A20312E312E3131340054494D453A20C2
:1008000030323A30333A353500444154453A20309D
:10081000322E31302E3230313400564552533A2088
:1008200056312E3131342D34726566306E7400636A
:1008300070750074687225007770006474680067D2
:10084000416C00616C740068646F700073617400C7
:100850004E6F20475053002052544B20200020441C
:1008600047505320003344204669780032442046E4
:100870006978004E6F20466978004E4F44415441DC
:100880000044495341524D0041524D4544004E4FA2
:1008900044415441004E4F204D4156004E4F20449C
:1008A0005256004D4F44453139004D4F4445313883
:1008B000004D4F444531370050486F6C640041543F
:1008C000756E6500464C49500053504F5254004DD0
:1008D0004F44453132004452494654004F464C4F34
:1008E0004954004C414E44004D4F44453800434963
:1008F00052434C450052544C004C4F495445520011
:10090000475549444544004155544F00412D486FD7
:100910006C64004143524F00535441420020202058
:10092000202020202020200056343D0756353D0E43
:1009300056363D0056313D0756323D0E56333D008A
:10094000096D7068005370643D096B7473204D61CC
:10095000783D00416C743D096D2020204D61783D4B
:10096000004C6F6E3D004C61743D12486467000A94
:1009700052504D004675656C0022047C5E54546DE7
:100980000003457870457846466E654D6564437250
:10099000730041323D0041313D0011544F5400017C
:1009A00053544B115354250001544D451154535782
:1009B000005354415400035B4D454E555D20746F08
:1009C000207265667265736800746D61696E0F6D83
:1009D0007300746D7231204A69747465720F757397
:1009E00000746D72314C6174206D696E0F75730007
:1009F000746D72314C6174206D61780F75730053A2
:100A000054415432004D6F646500205245544100FA
:100A1000014368616E6E656C204F726465720049B7
:100A20006E742E204672736B7920616C61726D005A
:100A300043726F73735472696D00456E61626C65C9
:100A40002050504D53494D0042616E644761700023
:100A5000537469636B5363726F6C6C00506F7453A3
:100A600063726F6C6C00416C61726D205761726EC5
:100A7000696E67004D656D6F7279205761726E699E
:100A80006E670044656661756C7420537700546826
:100A9000726F74746C65205761726E696E67005373
:100AA000706C617368204E616D650053706C61738A
:100AB000682073637265656E004C69676874206FA7
:100AC0006E2053746B204D76004C69676874206FFC
:100AD0006666206166746572004261636B6C69676B
:100AE000687420696E76657274004C69676874205A
:100AF00073776974636800466C617368206F6E2059
:100B000062656570004265657020636F756E746420
:100B10006F776E004D696E75746520626565700053
:100B20005468726F74746C65207265766572736553
:100B300000496E616374697669747920616C6172D1
:100B40006D136D0042617474657279207761726E05
:100B5000696E6700436F6E74726173740020486140
:100B60007074696320537472656E677468002053F3
:100B70007065616B657220506974636800566F6CB4
:100B8000756D65000A4265657065722020202050F1
:100B90006953706B72202020204265657072566F19
:100BA000696365506953706B566F6963654D65671E
:100BB00061536F756E642000536F756E64204D6FC6
:100BC000646500065175696574204E6F4B65792028
:100BD0007853686F727453686F7274204E6F726DC1
:100BE00020204C6F6E672020784C6F6E672000428B
:100BF0006565706572004F776E6572204E616D6538
:100C000000000900524144494F20534554555000BB
:100C1000036D6F64650A252073726320207377006B
:100C200043616C004D756C7469706C69657200038A
:100C300063683163683263683363683400036F66E6
:100C400066202B3D203A3D0007536C61766500001D
:100C50000303030300545241494E45520056455286
:100C600053494F4E005472696D2D202B0005204DC5
:100C7000656E75204578697420446F776E2020205A
:100C800055705269676874204C6566740044494128
:100C9000470012424700414E4100034D4F56452048
:100CA000535449434B532F504F545300055345540D
:100CB000204D4944504F494E5400035B4D454E551D
:100CC0005D20544F2053544152540043414C4942FB
:100CD000524154494F4E000966726565004D4F44BC
:100CE000454C53454C0001524554410020464D307F
:100CF000004D4F4445530020464D00466164652039
:100D00004F7574004661646520496E005472696DC8
:100D1000730053776974636800000300464C204DEC
:100D20004F444500015245544100032D2D2D5031B3
:100D300020503220503320475634475635475636D8
:100D400047563700566F6C756D6520436F6E747231
:100D50006F6C004175746F204C696D697473005439
:100D60003254685472696700547261696E6572002A
:100D7000452E204C696D6974730003504F534E45E6
:100D8000470053686966742053656C0050504D20CD
:100D9000317374204368616E0003416D654A617070
:100DA0004575720020436F756E747279000344318B
:100DB000364438204C525000205479706500094C5C
:100DC00050342F4C5035202044534D326F6E6C7987
:100DD0002044534D322F44534D580044534D20541A
:100DE0007970650042696E64202052616E6765000B
:100DF00050504D2046724C656E0D6D536563000B6F
:100E000052784E756D0004344348203643482038EC
:100E1000434820313043483132434831344348312C
:100E2000364348001375530011755365630006502F
:100E3000504D20202050585820202044534D32201F
:100E40002050504D31362050504D53494D00507276
:100E50006F746F0052455441313233004265657002
:100E600020436E740046617374204D697820446598
:100E70006C6179005472696D205377000645787073
:100E8000202020457846696E6546696E6520204DB4
:100E9000656469756D436F61727365005472696D45
:100EA00020496E6300542D4578706F00542D5472A4
:100EB000696D000A436F756E7420446F776E436FDF
:100EC000756E7420557020200054726967676572D2
:100ED00042005472696767657200566F69636520E6
:100EE000496E646578114D454E55004E616D650043
:100EF00000090001000000000000000006020100DF
:100F000053455455500052414E47452043484543B0
:100F10004B20525353493A000642494E44494E47EA
:100F2000004475706C69636174696E67206D6F64ED
:100F3000656C0044454C455445204D4F44454C009C
:100F40004455504C4943415445204D4F44454C0075
:100F50004472537732004472537731000257656907
:100F600067687400024578706F0004445220486935
:100F700000044452204C6F7700044452204D6964B1
:100F800000004558504F2F445200012B2A52004D6B
:100F900049584552000320202020202020200044D2
:100FA000454C455445204D49583F00035B4D454E47
:100FB000555D0B5B455849545D00035945530B4E35
:100FC0004F005072657373205B455849545D20741F
:100FD0006F2061626F7274004D6178206D69786571
:100FE00072732072656163683A2033320002536C79
:100FF0006F77202055700002536C6F772020446F6C
:10100000776E000244656C6179205570000244657A
:101010006C617920446F776E000841646420202061
:1010200020204D756C7469706C795265706C6163C9
:10103000652000024D756C74707800025761726E05
:10104000696E6700024D4F4445530002537769743F
:101050006368004375727665000D44696666000238
:101060005472696D0002466C4D6F64657472696DEF
:101070000002466978204F6666736574004F6666A5
:1010800073657400466D5472696D56616C00025749
:1010900065696768740002536F7572636500454443
:1010A0004954204D49582000000000000000000075
:1010B000000400032D2D2D783E30783C307C787C68
:1010C000663E30663C307C667C6331206332206350
:1010D0003320633420633520633620633720633840
:1010E000206339206331306331316331326331330E
:1010F000633134633135633136000D4F6E00072D97
:101100002D2D2D202020763E6F66732020763C6F9B
:10111000667320207C767C3E6F66737C767C3C6FA9
:101120006673414E44202020204F52202020202052
:10113000584F522020202076313D3D7632207631A6
:10114000213D76322076313E7632202076313C7653
:1011500032202076313E3D76322076313C3D76326B
:101160002054696D654F6666005300000343555374
:10117000544F4D20535749544348455300064F4E52
:10118000202020204F4646202020424F5448202037
:10119000313553656373333053656373363053654C
:1011A000637356617269626C0056530007203820E1
:1011B0005365637331322053656373313620536551
:1011C0006373000153415658004E756D626572207D
:1011D000566F69636520537700000002534146450E
:1011E000545920535749544348455300032D2D2D3E
:1011F00052746D45746D54746D41746D52454E5208
:101200005544454C4554485241494C503120503288
:101210002050332063312063322063332063342035
:1012200063352063362063372063382063392063B9
:10123000313063313163313263313363313463319F
:1012400035633136004756000001474C4F42414C50
:10125000205641525300042D2D2D2D413120204187
:10126000322020464153560043757272656E7420D9
:10127000536F757263650053696E6B20546F6E65B2
:1012800073000253656E736974697669747900023C
:1012900053776974636800042D2D2D2D7673706467
:1012A0004132202000566172696F3A20536F757287
:1012B000636500464153204F66667365740043754D
:1012C00073746F6D20446973706C6179004770733B
:1012D000416C744D61696E00566F6C742054687275
:1012E00065733D00034F46463132323430300041A1
:1012F0006C74416C61726D004E756D20426C61645E
:101300006573006D416820416C61726D0052780018
:10131000547852535349616C726D00000101010011
:1013200054454C454D455452593200013C3E0061F4
:101330006C726D0001762D5641004120206368617A
:101340006E6E656C00034D6574496D700005205329
:10135000746420204D6176200005467248756257FE
:10136000534868690050726F746F000002010202F6
:10137000010254454C454D4554525900434F505974
:10138000205452494D205B4D454E555D0000034CA5
:10139000494D495453004356004355525645530056
:1013A0005052455345540000435552564500032DB5
:1013B0002D2D494E56004756005B4D454E555D203C
:1013C0005748454E20444F4E450053454C454354E5
:1013D00000434F5059004D4F56450044454C45542D
:1013E00045004544495400494E5345525400434F2B
:1013F0005059004D4F56450044454C45544500DB7F
:10140000598C2ACE27463542272A2CFE54AB343538
:101410003B944F915E1D4F9E513C60FC27992DFCE3
:101420002912081200081C0808081C0800000822DD
:1014300000490022080000000000227F2200000076
:101440000822004900220800000822004900220862
:10145000000000227F220000000000082200490056
:1014600022080000081C0808081C080001010100EF
:101470000000020202020202020202020002020252
:10148000020202020200000000000000020202024A
:101490000203030303065761726E31205761726EB7
:1014A000322043686561702052696E672020536363
:1014B00069466920526F626F7420436869727020B8
:1014C000546164612020437269636B74536972656F
:1014D0006E20416C6D436C6B526174617461546930
:1014E000636B2020486170746331486170746332AB
:1014F0004861707463330054696D657200032D2D6B
:101500002D59656C4F7267526564005452453031F5
:101510003241470052783D0054783D00204142431B
:101520004445464748494A4B4C4D4E4F5051525303
:101530005455565758595A616263646566676869BD
:101540006A6B6C6D6E6F7071727374757677787983
:101550007A303132333435363738395F2D2E00004A
:10156000010203FEFF0406080A0B0C0D0E0F23FDFB
:10157000202425261D1E1F27F6F7F8F9FAFBFCF597
:101580002811292AF1F2F3F4042D2D2D2D41313D9E
:101590002041323D20525353495453534954696DAD
:1015A0003154696D32416C742047616C74477370BB
:1015B0006454313D2054323D2052504D2046554513
:1015C0004C4D6168314D61683243766C7442617490
:1015D00074416D70734D61682043746F744661731C
:1015E0005641636358416363594163635A5673704C
:1015F0006447767231477672324776723347767235
:101600003447767235477672364776723746776159
:1016100074527856204864672041333D2041343D60
:101620002053433120534332205343332053433418
:101630002000537769746368205761726E696E6722
:101640000067656E7772697465206572726F7200EB
:10165000454550524F4D20466F726D617474696EEE
:10166000670042616420454570726F6D204461746B
:101670006100434845434B204D49582F4452205365
:101680004F5552434553004D4F44454C2020202098
:1016900020004D45202020202020202000454550BE
:1016A000524F4D206F766572666C6F7700E2AEA187
:1016B000A6A4A2C02F25AF0000000000000000007B
:1016C000000000000000000000000000000000001A
:1016D00000000000000000333B1F0F00000000C0AE
:1016E000C0C0C0C0C0C0C0C0C0000000000000003A
:1016F00000000000000000000000000000000018D2
:101700003C3C180000000000000080C0E070381C65
:101710000C0C0E07030100000000000000FCFE8717
:10172000C3E377FEFC00000F1F3B3130381F0F0072
:10173000000C0EFFFF00000000000030303F3F3083
:1017400030000000000C0E0783C3E77E3C00003C25
:101750003E37333130303000000303C3C3C3E7FEEC
:101760003C00003030303030391F0F0000C0E070D6
:10177000381C0EFFFF00000303030303033F3F0079
:10178000003F3F33333373E3C300000C1C38303069
:10179000381F0F0000FCFEC7C3C3C78E0C00000F2C
:1017A0001F383030391F0F00000303C3E3733B1FA2
:1017B0000F000000003F3F0000000000003CFEE77B
:1017C000C3C3E7FE3C00000F1F393030391F0F0044
:1017D000003C7EE7C3C3E7FEFC0000000030381C7D
:1017E0000E07030000183C3C180000000000000633
:1017F0000F0F0600000000F0F8DCCEC7C7CEDCF803
:10180000F03F3F0000000000003F3FFFFFC3C3C3A5
:10181000C3C3E7FE3C3F3F3030303030391F0FFC50
:10182000FE0703030303070E0C0F1F383030303060
:10183000381C0CFFFF030303070E1CF8F03F3F307A
:101840003030381C0E0703FFFFC3C3C3C3C3C30339
:10185000033F3F3030303030303030FFFFC3C3C340
:10186000C3C3C303033F3F0000000000000000FCAF
:10187000FE0703C3C3C3C7CECC0F1F383030303090
:10188000303F3FFFFFC0C0C0C0C0C0FFFF3F3F00B0
:1018900000000000003F3F00000303FFFF030300C0
:1018A00000000030303F3F303000000000000003F7
:1018B00003FFFF03030C1C383030381F0F0000FFFC
:1018C000FFC0E0F0381C0E07033F3F000103070E86
:1018D0001C3830FFFF00000000000000003F3F30D8
:1018E00030303030303030FFFF0E1CF8F81C0EFF67
:1018F000FF3F3F0000000000003F3FFFFF3870E067
:10190000C08000FFFF3F3F0000000103033F3FFC9A
:10191000FE070303030307FEFC0F1F38303030308F
:10192000381F0FFFFFC3C3C3C3C3E77E3C3F3F0065
:1019300000000000000000FCFE070303030307FE95
:10194000FC0F1F383033371E1C3F33FFFFC3C3C3A8
:10195000C3C3E77E3C3F3F000003070E1C38303C0A
:101960007EE7C3C3C3C3C78E0C0C1C383030303085
:10197000391F0F03030303FFFF03030303000000EA
:10198000003F3F00000000FFFF000000000000FFDC
:10199000FF0F1F3830303030381F0FFFFF000000BE
:1019A000000000FFFF03070E1C38381C0E0703FF62
:1019B000FF000000000000FFFF0F1F38381F1F3816
:1019C000381F0F0F1F38F0E0E0F0381F0F3C3E07C4
:1019D00003010103073E3C3F7FE0C08080C0E07F01
:1019E0003F000000013F3F0100000003030383C3E9
:1019F000E3733B1F0F3C3E37333130303030300023
:101A00000000000000000000003030303030303086
:101A10003030300000303030303070E0C00C1E3FCD
:101A200033333333333F3FFFFFC0E070303070E07B
:101A3000C03F3F3030303030381F0FC0E0703030A2
:101A400030303000000F1F3830303030381C0CC0C0
:101A5000E070303070E0C0FFFF0F1F3830303030A2
:101A6000303F3FC0E0703030303070E0C00F1F3B7F
:101A700033333333330303C0C0FCFEC7C303070E45
:101A80000C00003F3F000000000000F0F89C0C0C30
:101A90000C0C0CFCFC000133333333333B1F0FFFC2
:101AA000FFC0E070303070E0C03F3F000000000039
:101AB000003F3F00003030F3F30000000000003032
:101AC000303F3F30300000000000003030F3F300C2
:101AD000000C1C383030381F0F0000FFFF0080C0A2
:101AE000E0703000003F3F03070F1C38300000005B
:101AF000000303FFFF00000000000030303F3F30D4
:101B0000300000F0F03070E0E07070E0C03F3F0067
:101B100000030300003F3FF0F0C0E070303070E0A1
:101B2000C03F3F0000000000003F3FC0E070303089
:101B3000303070E0C00F1F3830303030381F0FF0B9
:101B4000F03030303030F0E0C03F3F030303030398
:101B5000030100C0E0F0303030E0C0F0F0000103DD
:101B600003030303033F3FF0F0C0E070303070E048
:101B7000C03F3F0000000000000000C0E0F0303037
:101B80003030300000303133333333333F1E0C30CC
:101B900030FFFF30300000000000000F1F383030F1
:101BA000381C0CF0F0000000000000F0F00F1F38AF
:101BB0003030381C0C3F3FF0F0000000000000F017
:101BC000F003070E1C38381C0E0703F0F00000006D
:101BD000000000F0F00F1F38381C1C38381F0F3081
:101BE00070E0C08080C0E0703030381C0F07070FF5
:101BF0001C3830F0F0800000000000F0F0000133ED
:101C0000333333333B1F0F3030303030B0F0F070AF
:101C10003030383C3E373331303030000000000087
:101C20000000006F000007000700147F147F1424D9
:101C30002A7F2A1223130864623649552250000570
:101C4000030000001C2241000041221C0014083E39
:101C5000081408083E08080050300000080808086A
:101C60000800606000002010080402003E49453E64
:101C70000000427F40006251494600414949360018
:101C80001814127F0027454539003E4949320001AA
:101C90007905030036494936000649291E000036F9
:101CA00036000000563600000814224114141414A3
:101CB0001441221408000201510906000609090610
:101CC0007E0909097E7F494949363E414141227FCB
:101CD0004141221C7F494949417F090909013E418F
:101CE00049497A7F0808087F00417F410020404130
:101CF0003F017F081422417F404040407F020C0298
:101D00007F7F0408107F3E4141413E7F090909065B
:101D10003E4151215E7F0919294626494949320130
:101D2000017F01013F4040403F1F2040201F3F40B6
:101D300030403F6314081463070870080761514975
:101D40004543007F41410002040810200041417FCB
:101D5000000402010204404040404000010204002F
:101D600020545454787F48444438384444442038FC
:101D70004444487F3854545418087E0901020C52D8
:101D800052523E7F0804047800447D4000204044C5
:101D90003D007F1028440000417F40007C0418046F
:101DA000787C0804047838444444387C14141408BB
:101DB000081414187C7C0804040848545454200463
:101DC0003F4440203C4040207C1C2040201C3C40A4
:101DD00020403C44281028440C5050503C4464544B
:101DE0004C44000836410000007F000000413608E6
:101DF000000808221C08081C220808010204081018
:101E00002040804080080420100201000089111247
:101E1000239B322446AD573665BF74488CC19D5A0A
:101E2000AFD3BE6CCAE5DB7EE9F7F88110080193F9
:101E3000331A22A5562C47B7753E64C99C408DDBEA
:101E4000BF52AEEDDA64CBFFF976E802218B301099
:101E50000299132667AF763444BD554AADC3BC58CA
:101E60008ED19F6EEBE7FA7CC8F5D983310A2091B9
:101E7000121803A7772E66B5543C45CBBD42ACD9AA
:101E80009E508FEFFB66EAFDD874C904428D53164D
:101E9000619F702004A9153227BB364CCEC5DF5E8A
:101EA000EDD7FC6888E1997AABF3BA85520C439779
:101EB000711E60A1142805B3373A26CDDE44CFDF6A
:101EC000FD56ECE9986089FBBB72AA06638F721419
:101ED000409D512225AB343006B9174EEFC7FE5C4A
:101EE000CCD5DD6AA9E3B8788AF19B87730E629539
:101EF000501C41A3352A24B1163807CFFF46EEDD2A
:101F0000DC54CDEBB962A8F99A708B088481951ADC
:101F1000A793B62CC2A5D33EE1B7F04008C9195229
:101F20002BDB3A644EED5F766DFF7C899400859BD8
:101F3000B712A6ADD224C3BFF136E0C1184809D309
:101F40003B5A2AE55E6C4FF77D7E6C0AA583B41878
:101F50008691972EE3A7F23CC0B5D14229CB3850E9
:101F60000AD91B666FEF7E744CFD5D8BB502A49998
:101F7000961087AFF326E2BDD034C1C3394A28D1C9
:101F80001A580BE77F6E6EF55C7C4D0CC685D71E2C
:101F9000E597F42880A1913AA3B3B2444ACD5B56A9
:101FA00069DF78600CE91D722FFB3E8DD604C79F58
:101FB000F516E4A9902081BBB332A2C55A4C4BD789
:101FC000795E68E11C680DF33F7A2E0EE787F61CF8
:101FD000C495D52AA1A3B03882B193466BCF7A5469
:101FE00048DD59622DEB3C700EF91F8FF706E69D18
:101FF000D414C5ABB122A0B9923083C77B4E6AD549
:10200000585C49E33D6A2CF11E780F36860A0C0DA8
:102010000B103536072F30313233348488979A11BC
:102020001314151609181B122B2C2D2E05191C1D07
:102030001E1F2720A12236363D7E11241FBECFEF62
:10204000D0E1DEBFCDBF11E0A0E0B1E0ECE9FEEFF2
:1020500002C005900D92AA35B107D9F71FE0AAE595
:10206000B1E001C01D92AB38B107E1F710E2CAE35D
:10207000D0E204C02297FE010E94FB7EC833D10744
:10208000C9F70E94607C0C944C7F0C940000E09196
:10209000AE0594E0E99FF0011124E80FF11DE35A29
:1020A000FC4F84918F5F0895853050F0883020F088
:1020B0008E3020F482E0089581E0089583E0089551
:1020C00080E008952AE0829FC00111248B5E9D4F1D
:1020D000089525E0829FC00111248B5A9C4F0895DA
:1020E0000F93022F24FF03C00F7E9DE201C094E2F4
:1020F000411106C024E047E353E00E94A96914C0DF
:10210000453028F42FEF240F44E453E00BC094171C
:1021100028F02BEF240F41E952E004C02CED240FEE
:1021200048E855E10E94CE690F9108950F93CF932F
:10213000DF93C82FD62F022F411104C024E04CE8B2
:1021400052E00EC04A3010F086E101C081E18C0FF0
:1021500050E0202F6D2F0E945E6C22E049E852E093
:102160006D2F8C2F0E94A969DF91CF910F91089557
:102170000F931F93CF93DF93D62FC42F022F16E018
:10218000180F442339F0463141F04A3E81F441E7CB
:1021900053E005C045E852E002C04DE653E06D2F24
:1021A000812FDF91CF911F910F910C94E26947FF2E
:1021B00004C041E20E941B69C1952FEF2C0F45E737
:1021C00053E06D2F812F0E94CE69DF91CF911F9137
:1021D0000F910895EF92FF920F931F93CF93DF9388
:1021E000D82F162FF42EE22EC091060281E082171E
:1021F00008F442C02C2F27FD2195203168F4042FCC
:1022000043E552E08D2F0E94CE69CF3FCCF52F2DB4
:1022100041E2612F8AEF19C0253230F41C1614F404
:1022200041EF22C04FE020C0CA339CF0C353042FBB
:102230002C2F4CE052E08D2F0E94CE69C0310CF45F
:10224000D6502F2D45E2612F82E18D0F0E941B6930
:1022500017C0242F4DE682E18D0F0E941B691C16CA
:1022600014F44CED01C044E24C0F2F2D612F8AEF86
:102270008D0F0E94B81004C082E0281313C004C060
:10228000E11010C0C13071F42F2D40917604612F00
:102290008AEF8D0FDF91CF911F910F91FF90EF90FB
:1022A0000C94B810DF91CF911F910F91FF90EF9098
:1022B0000895EF92FF920F931F93CF93DF937901CD
:1022C00024E0629F8001112408561B4FD801EC9135
:1022D000F0E0442311F0EE0FFF1F9F01DC010E948C
:1022E000497EE8012B81207C203C59F424E630E033
:1022F00040E050E00E94B87EF701808180628083D8
:1023000018C0E436F10578F4660F771F881F991F0F
:1023100023E330E040E050E00E94B87ED7018C918A
:1023200080638C9306C02FEF30E040E050E00E94C5
:10233000B87EC901DF91CF911F910F91FF90EF906F
:102340000895DF92EF92FF920F931F93CF93DF9345
:102350001F92CDB7DEB7D82EF62E842FA22F098379
:1023600094E0299F8001112408561B4F50E060E043
:1023700070E0F8019381907C903821F4EE2081F098
:1023800041E003C0EE2089F040E09E012F5F3F4F07
:102390006A2F90E00E945911AC0160E070E018C013
:1023A000440F551F661F771F13C0903C89F4282FD8
:1023B00030E0AFEFB0E00E94497E24E630E040E03C
:1023C00050E00E94B87EBA01A901898180628983A8
:1023D000F801838186FD14C009810062E5E0EE2EDC
:1023E0009A01AB016F2D8D2D0E94F46A298127FD82
:1023F0001BC046E76F2D8091800D0E941B6914C0A1
:1024000029816F2D8D2D0E945E6CF8018381807C67
:10241000803C61F4298127FD0BC041E46F2D809140
:10242000800D0E941B6904C086E703C080E201C0E2
:1024300081E40F90DF91CF911F910F91FF90EF906A
:10244000DF900895873038F4E82FF0E0EE0FFF1F9B
:10245000E257F74F24C08C3050F18431C0F4482F3C
:1024600050E0DA01AA0FBB1FAC5BBE4F2D913C912F
:10247000803148F4FA01EE0FFF1FEC57FA4F8081CC
:102480009181281B390BC901880F991F0895843247
:1024900048F4E82FF0E0EE0FFF1FEA5BF74F808172
:1024A00091810895893418F484520C947F2080E03F
:1024B00090E008950E945C7C8111FCCF1092B10DD8
:1024C00008950F931F93CF93DF938C01EB010E942C
:1024D000CF6824E046E553E060E082E20E94E269D2
:1024E000B80180E20E94026ABE0188E20E94026A8C
:1024F00066EF71E080E3DF91CF911F910F910C9413
:10250000026A0F93262F00E045E753E060E10E9446
:10251000CE690F910895CF93DF93D6E1C0E08D2F60
:102520000E940B6ECC0FC82BD150DE30C1F78C2F20
:10253000DF91CF9108950F931F93CF93DF93082FCF
:10254000CBEFD1E01AE0499124E0602F812F0E9467
:102550001B69155F1837B9F7DF91CF911F910F9164
:1025600008951F93CF93DF93EC01162F0E94CF683D
:10257000BE0188E10E94026A111109C048EE51E0D3
:1025800068E38CE10E94086A46E553E002C040EE31
:1025900051E024E060E086E10E94E269DF91CF91A2
:1025A0001F910C94206D61E00C94B11270E08823AF
:1025B00099F090E0019725E0289FF001299FF00D08
:1025C0001124E60FF71FEE0FFF1FE054FB4F808131
:1025D00091818B509E4F0895FB01EE0FFF1FEE5F20
:1025E000FE4F0190F081E02D8081992787FD909525
:1025F00008951F93CF93DF93D82F162FC4E0DD23C8
:1026000099F0612F8D2F0E94D6129C01253F81E009
:10261000380764F08BE0820F8D1710F08CE0820F8A
:10262000C15029F0D82FEBCFC0E001C0CD2F8C2FA7
:10263000DF91CF911F910895CF93C62F0E94F91279
:102640006C2FCF910C94D612EF92FF920F931F93A1
:10265000CF93DF93EA019A0123583F4F7901062F68
:1026600010E0882319F10E94F9128823F9F03BEF5A
:10267000E316F10440F01C161D061CF4CDE7D0E073
:1026800002C0C3E8DFEF90E0019725E0289FF0014A
:10269000299FF00D1124E00FF11FEE0FFF1FE054F2
:1026A000FB4FC55FD140D183C08315C08BEFE816C7
:1026B000F10440F01C161D061CF4CDE7D0E002C06A
:1026C000C3E8DFEFF801EE0FFF1FEE5FFE4F019052
:1026D000F081E02DC08386E0DF91CF911F910F91B3
:1026E000FF90EF900C943463AF92BF92CF92DF9241
:1026F000EF92FF920F931F93CF93DF938C017B0197
:102700006A01A22EB090DB019B2D9F7D943439F09D
:1027100080916C08882309F485C0933439F4E8016A
:10272000219683E10E94377685E00BC0953419F03D
:10273000923409F07AC0E801219784E10E9437764B
:1027400084E00E940B6E811162C0E114F10401F576
:1027500081E0C816D104E1F480E6B81619F08EE2E3
:10276000B81212C010926C08C1E00115110509F0F1
:10277000C0E0D0E08B2D0E945A6E8EE2B81207C0E6
:1027800081E08093A10803C0C170DD2701C0B12C96
:102790004091730150917401C41BD50B8091A10825
:1027A000833031F48091E401C80FD11D87FDDA95A3
:1027B000CC16DD0644F48B2D0E945A6E83E10E94F4
:1027C0003776E6010AC0CE15DF053CF48B2D0E945A
:1027D0005A6E84E10E943776E701C017D107A1F055
:1027E000209751F48B2D0E944A6E17FF02C083E19F
:1027F00001C084E10E9437768A2D83700E94346381
:1028000081E080937B0113C010927B0110C0CC2724
:10281000DD27C01BD10B85E00E945A6E84E00E9428
:102820005A6E93CF953409F486CFE8018ECFCE014E
:10283000DF91CF911F910F91FF90EF90DF90CF909C
:10284000BF90AF900895552747FD5095772767FDB6
:102850007095992787FD90950E947413089522E042
:102860000C942314462F22E060E00C942314462F8E
:1028700050E022E060E070E00C94741321E00C94CE
:102880002314462F21E060E00C942314E0917D0195
:10289000F0E0EE0FFF1FE058FE4F80819181089518
:1028A000E0917D01F0E0EE0FFF1FE258FE4F9183B3
:1028B00080838FEB80937C010895E2EAF8E0108E2C
:1028C000168A158A178A0895E2E5FEE037A13031AD
:1028D00080F420A541E0420F40A7DF01A20FB11D07
:1028E000A20FB11D8D939C93403108F010A63F5F5D
:1028F00037A3089590E08C5F9E4F0C94641490E091
:102900000C9464148093E60190E040970C94641456
:10291000FC019091B90580A191FF74C091A1882319
:1029200011F0946001C09B7F91A386A1813059F57D
:10293000C79A37A121A1332321F181A541E0480F96
:1029400041A7DF01A80FB11DA80FB11D8D919C916A
:1029500095A384A3403108F011A6315037A397FD09
:1029600002C031E101C038E233A32C7F97FD226021
:1029700021A381A18BBBC7988FE182A382E086A3AC
:1029800008952BBB48C081110CC0C79A81A18360F8
:1029900081A38BBB8091810D8D3308F43CC086E010
:1029A0002FC0823009F438C081A18BBBC79ABF9871
:1029B00000C0000000C086B38078BF9A96A1933013
:1029C00049F4882329F083A1815083A3811123C076
:1029D00084E016C0943021F48823E9F083E00EC02F
:1029E000953039F483A1815083A3811114C081E013
:1029F00007C0963081F4882371F084E183A385E0D9
:102A000086A309C09091B60596FB992790F989177E
:102A100011F0C79A0895C79808951BBA8FE18ABB31
:102A200000C099B38FEF8ABBECEDF1E0878188237A
:102A300011F080E202C0892F807E8483292F207CC0
:102A40008081281759F08074880F90783181891718
:102A500011F0315001C03F5F318320838281938127
:102A6000891711F08383818308959091AE0590FDBD
:102A700002C093E08927E82FF0E0E456F74FE081A9
:102A8000E7FDE95FE595E595E5951E1624F0EE2353
:102A900021F0E19502C080E801C080E0E8300CF050
:102AA000E7E0FF27E7FDF095E45CFC4FE491EE23BF
:102AB00019F099E0909388018E2B0895482F833068
:102AC00021F0882321F0E82F03C0E0E001C0E3E01B
:102AD000F0E0EE0FFF1FED51FA4F808191814430FD
:102AE00080F42091CB0530E002C0359527954A95BA
:102AF000E2F720FF06C020E038E0A901481B590B8F
:102B0000CA010895FF920F931F93CF93DF93F12C87
:102B1000C0E0D0E08F2D0E945E15092F10E0C00F9D
:102B2000D11FF39484E0F812F5CFCE01DF91CF915D
:102B30001F910F91FF9008950E945E152091B0059E
:102B400020FF03C09195819591090895E3EEF5E08A
:102B500040E0842F806487B9369A3699FECF24B13D
:102B600035B1369A3699FECF84B195B1820F931F55
:102B7000819391934F5F483061F7089578941F9245
:102B80000F920FB60F9211248F9380915A018F5F8D
:102B900080935A018F910F900FBE0F901F90189540
:102BA00078941F920F920FB60F9211242F938F9348
:102BB0009F93EF93FF93F89487B78F7B87BF7894A9
:102BC0002091A5018091A7019091B905882359F022
:102BD00090FF07C08091880F820F8093880F87FF36
:102BE00002C01B9A01C01B9891FF2AC080917D09E9
:102BF000811126C0E2E5FEE086A1823009F583A1BD
:102C0000882311F081501BC021A1C79A82A180FDA9
:102C100009C02D7F84A195A196FD2260880F991F80
:102C200095A384A381E082278BBB81A3C79882A14F
:102C3000815082A3811104C083E086A385E083A331
:102C4000F89487B7806487BF7894FF91EF919F9144
:102C50008F912F910F900FBE0F901F901895789421
:102C60001F920F920FB60F9211242F933F934F9301
:102C70005F936F937F938F939F93AF93BF93EF93E4
:102C8000FF9381B7845681BF83EA91E00E946C7400
:102C90000E94696E0E944F7B8091BE0D826080937E
:102CA000BE0DEAE0F1E08081815011F0808304C024
:102CB00084E6808381E081838281815011F0828368
:102CC00004C08AE0828381E08383FF91EF91BF910A
:102CD000AF919F918F917F916F915F914F913F91B4
:102CE0002F910F900FBE0F901F90189578941F9200
:102CF0000F920FB60F9211242F933F934F935F9330
:102D00006F937F938F939F93AF93BF93EF93FF93B3
:102D10002091800030918100F89480917D008F7D1A
:102D200080937D0078948091DC059091DD05A90168
:102D3000481B590BCA01969587953093DD05209362
:102D4000DC059C01215A3F402F3D3E4220F481E0AA
:102D500080935B012CC0E0915B012FEF2E0F283098
:102D600030F59C012152334027373540F0F424E6FA
:102D70002093E50121E02E0F20935B01F0E0EE0FA0
:102D8000FF1FE65AFE4F9C012C5D35404091B40573
:102D9000465F429FC001439F900D11246AE070E09E
:102DA0000E94A47E7183608302C010925B01F8943C
:102DB00080917D00806280937D007894FF91EF91F7
:102DC000BF91AF919F918F917F916F915F914F9143
:102DD0003F912F910F900FBE0F901F90189590E08C
:102DE000880F991F8C54914FFC01F8948081918138
:102DF0007894089584E00E94EF162091C1073091E5
:102E0000C207820F931F08959C0165E035952795B1
:102E10006A95E1F7280F391FAC01440F452F441F75
:102E2000550B241B350B892F990F990B8595820F14
:102E3000931F08959DE7980F9B3F88F08E57E82FCA
:102E4000F0E0EE0FFF1FEE54FB4F808186171CF45D
:102E50006083862F0895481714F44083842F0895C3
:102E600044E66CE90C941A17982F80910C0284FFA9
:102E700003C081E0923009F080E0089549E28402C5
:102E800090011124359527953595279587FD815C0F
:102E900086FB880F880B80F9A901481B510987FD23
:102EA0005395CA0108955F926F927F928F929F927D
:102EB000AF92BF92CF92DF92EF92FF920F931F9348
:102EC000CF93DF93982E742E882309F4F0C046E147
:102ED000841721F05AEE851303C0EBC081E0EAC0ED
:102EE00086E189150CF4E5C0892D87FD81958A302E
:102EF00040F4825F0E940B6E19140CF4DBC091E069
:102F00001EC08A50282F30E05901AA0CBB1C850135
:102F1000020F131F0F5A1B4FF80182818F7009F4A3
:102F2000C8C0A90144535A4F6A0154E0571548F4E8
:102F3000F6019081917019140CF4B7C081E08927D3
:102F4000B9C0F801608051800E94541081111BC0EB
:102F50008FEF860D0E9422127C01F801808185325C
:102F60006CF0CBED8C2E880E6181882D0E9408209C
:102F7000EC01882D0E94F21F882E1BC0F801818170
:102F80000E943E170CC0823071F48FEF860D0E94B4
:102F900022127C01F801818181500E942212EC01F1
:102FA0008824839406C088248394C0E0D0E0E12C78
:102FB000F12CF80182818F7090E0FC013197EE30A6
:102FC000F10508F06EC0EA5BFF4F0C94F97EF7FE46
:102FD00034C0F194E194F10830C0F7FE33C0F194AD
:102FE000E194F1082FC0D1E0D70D4D2F60E0862D80
:102FF0000E945317C82F4D2F60E0852D0E94531754
:10300000982FF80122812F70253031F4CC2309F458
:1030100048C0811144C045C0263019F4C1113FC0D9
:1030200029C09C2727C091E0EC16FD06C9F422C0F8
:1030300091E0EC16FD06F1F413C091E0CE15DF052A
:10304000CCF00EC091E0EC16FD06A4F009C091E0B2
:10305000EC16FD067CF404C091E0CE15DF0554F4B7
:1030600090E008C0F501E657FE4F91819095991FB9
:103070009927991F8820A9F09923A1F0F80182814E
:1030800082958F7051F089300CF08F5F41E0470DD1
:1030900060E00E945317982F05C091E003C0811093
:1030A000EDCF90E0F601908346CF892F03C0862FA5
:1030B00001C080E0DF91CF911F910F91FF90EF90C1
:1030C000DF90CF90BF90AF909F908F907F906F9048
:1030D0005F90089540E060E080919B050E94531747
:1030E000811114C080916D0190916E01892B71F452
:1030F0001092720E8091810D9091E205981751F017
:103100008093E20582E59EE00C94881481E0809330
:10311000720EF0CF089520916D0130916E0121154E
:10312000310511F021503109882319F08091B20541
:1031300001C080E090916C01992329F09091BA052B
:10314000891708F4892F4AEF849FC0011124880F42
:10315000991F8217930708F4C90190936E01809319
:103160006D010C946A18CF92DF92EF92FF920F9349
:103170001F93CF93DF938091820D9091830D909157
:10318000E105282F291B20936F018093E10560E062
:1031900086E498E00E94204E80916F01882309F414
:1031A000C9C2E2EAF8E0878980FF0DC0808D91E016
:1031B000980F908F943638F08356808F8589968942
:1031C0000196968B858B8091E501882319F08150BB
:1031D0008093E50180E00E9490630E94CF680E9486
:1031E0009F6D182F482F4F70E42E5AEFE50EC091B7
:1031F0000D02C43021F0C33019F4C4E001C0C8E0AE
:1032000087E08E1508F4A1C0812F807F803209F4F9
:103210009CC0E091AE0594E0E99FF00111248E2D51
:103220008695E80FF11DE35AFC4F04918091CA0581
:1032300080FF03C083E0801B082F602F809142062F
:103240000E94F912F82E602F0E941C139C01C111DC
:103250000CC0EC0197FF04C0CC27DD27C81BD90B9D
:10326000D595C795D595C795CF5F023061F480910C
:103270000C0280FF5DC281E0C2E09091B00590FF3A
:1032800003C0C19501C080E0DD27C7FDD095E0FEF9
:1032900003C0C20FD31F04C0A9014C1B5D0BEA0180
:1032A000209721F09D2F932797FF11C081110FC008
:1032B000232B69F040E050E0602F8F2D0E942413F3
:1032C000812F0E945A6E86E10E9437763DC09E0192
:1032D00024583F4F293F310580F4AE01602F8F2DD8
:1032E0000E942413D7FF03C0D195C195D109D5956C
:1032F000C795D595C7954C2F21C01C161D061CF4EB
:103300004DE750E002C043E85FEF602F8F2D0E9431
:103310002413CE0183589F4F8B3F9105A8F4D7FF0C
:1033200003C0D195C195D109D7FD2396AE0155951E
:10333000479555954795519541955109445C65E1EF
:1033400083EA91E00E94217510E0E1E7F1E08091CD
:103350009A0890919B0820813181281B390B37FFF7
:1033600002C0215E3F4F65E0359527956A95E1F7EC
:103370002115310561F024813581281B390B37FF78
:1033800002C02F5F3F4F35952795918380839583AA
:1033900084838091B00585FD04C0809168088823EE
:1033A00011F020E030E033832283CCEDD1E02D8199
:1033B0008981821B8F3F09F480E087FD8F5F8595AF
:1033C0008887982F990F920F9D83812B0E948B18CD
:1033D0008091C605895FE0917D01F0E0EE0FFF1F4F
:1033E000E258FE4F208131812C54354409F044C00D
:1033F00028852223B1F09E81332727FD3095290FA0
:10340000311D97FD3A952E37310514F09DE705C023
:1034100023389FEF39071CF493E89E8301C02E8365
:103420001886E09177049E2F907E31F1E295E69523
:10343000E770F0E0E430F10554F4EE0FFF1FEC56B6
:10344000F74F208131813C5F60E078E00CC0EE0FE7
:10345000FF1FEE54FB4F2081332727FD3095235863
:103460003F4F6AEF70E047E0429FC001439F900DDD
:1034700011240E94907E862F9091E60189130E946C
:1034800082148091B60587FF3BC080918901882313
:10349000B9F1809188018823A9F18091E00587FD29
:1034A00003C08F5F8093E00582E00E943515982F5E
:1034B0009F7789F02091E005921720F51092E005A2
:1034C000111120C0182F1095111F1127111F83E60D
:1034D000811B182F17C083E00E943515982F9F7706
:1034E00089F02091E005921768F41092E00511111F
:1034F00009C0182F1095111F1127111F1C5902C048
:103500001092880181E08093890100914206E09049
:10351000E201FF24E7FCF094C3EBD4E09AE0C92E6B
:10352000D12C6881662309F440C0653030F46150C5
:10353000802F0E941C13BC012BC0653041F1E62F87
:10354000F0E0EE0FFF1F6A3048F4EE57F74F60814E
:10355000718177FF0EC0695F7F4F0BC06D3078F4CB
:10356000EE57F74F2081318137FF02C0295F3F4F6F
:10357000B901B3E075956795BA95E1F709C0EC5AC2
:10358000F74F80819181B6010E94A47E01C0B701EE
:1035900063382FEF72072CF06D3771051CF06DE763
:1035A00001C063E8FE0131976083229644E0C13C8C
:1035B000D40709F0B6CF8091F9019091FA010097F4
:1035C000B1F060E00E94B1120E945C7C9091DF0536
:1035D000992339F0811125C01092FA011092F90156
:1035E00020C08823F1F081E08093DF051AC010929B
:1035F000DF05C0917C01CC2331F010927C0187E182
:103600000E9437761C2F1093DB01E0917D01F0E0E2
:10361000EE0FFF1FE258FE4F0190F081E02D812F49
:1036200009950E94206DC091650083EA91E00E9497
:103630005874882311F084E105C080918A0F882393
:1036400021F0815080938A0F06C080916300869597
:1036500081708093890F8091890F8093F70188236F
:1036600009F464C08091B60585FD60C0CF7EC0932B
:1036700065008091810D8F71823009F054C0809176
:10368000F1059091F205AC01F4E0440F551FFA9555
:10369000E1F797FD0796BC01E3E075956795EA951C
:1036A000E1F720919A05332727FD30952A5F3F4F98
:1036B000629FC001639F900D729F900D1124840F33
:1036C000951F2091B00526FD05C060910001709105
:1036D000010102C060EF70E00E94907E8091700155
:1036E000680F711D6F5F7F4F7595679560937001CF
:1036F0008091DE05805F8093DE05811114C080918A
:103700009905681780F4623370F06EE281E10E94DF
:103710003D768091B00583FF06C082E390E09093F0
:103720006E0180936D0110926C0104C0C0619FCF47
:1037300080E0A3CDDF91CF911F910F91FF90EF908B
:10374000DF90CF900895CF93DF93C62F2091F8019B
:10375000222339F09093FA018093F901DF91CF9100
:10376000089560E00E94B112C11103C080919805D4
:1037700001C089E10E94EA6C67E182E10E943D7626
:103780000E945A12D1E00E945C7C882321F0DF91D4
:10379000CF910C945A128091BE0D833019F4A895E4
:1037A0001092BE0D40E060E080919B050E9453178F
:1037B000811106C08091B205811102C0CC2329F08D
:1037C000D093720E0E946A18DECF1092720EFACF5A
:1037D00090917D01911103C0811106C00CC081112F
:1037E00003C08FEF890F01C080E080937D018EEBD5
:1037F00080937C01089560E083ED91E00C94A31B1D
:10380000E0917D01E43028F060E086EC91E00C94DA
:10381000A31B2FEB20937C01EF5FE0937D01F0E091
:10382000EE0FFF1FE258FE4F9183808308951F9390
:10383000CF93DF93C8ECD4E090E0888111E0190FBA
:10384000882341F040E060E00E945317882311F084
:10385000812F05C0912F2A96143079F780E0DF91EF
:10386000CF911F9108958F929F92AF92BF92CF9266
:10387000DF92EF92FF920F931F93CF93DF931F92EC
:10388000CDB7DEB71092A00880915A0122B790916F
:103890005A018913F9CFE22EF12CF82A809177048E
:1038A0008F7160E1D62ED81A0E94A6151EE517B9B1
:1038B0000E940D150E94B31817B9369A3699FECF9B
:1038C00084B195B10496409100015091010167E0E7
:1038D000649F9001659F300D1124820F931F53E068
:1038E000969587955A95E1F7909301018093000191
:1038F0008091BE0D833019F4A8951092BE0D2091D1
:103900005A0182B790915A012913F9CF90E0922B76
:103910008E199F0920911001309111012817390744
:1039200020F4909311018093100180910D01882360
:1039300009F464C18091DA059091DB0501969093BA
:10394000DB058093DA05CD2CFFE0FC1508F47AC086
:103950000C2D10E04801880C991CC40188589B4F1D
:103960004C01FC018081E82EE294E69447E0E422D9
:10397000F180F5E0FE1550F09AEF9F1538F4EF2D29
:10398000F0E0EE0FFF1FEE53FD4FF0808F7109F452
:1039900057C040E060E00E945317B82E80910D019F
:1039A00009511E4F823009F449C08E2D857051F4A3
:1039B000F8018081811106C0BB2021F08F2D90E09D
:1039C0000E9464148FEF8E0D823058F4F8018081CC
:1039D0008130A1F5B11032C0F2E0EF122BC0F394A8
:1039E00029C085E08E1558F4F8018081811126C028
:1039F000BB2021F1F40181810E94D7201FC0F2E099
:103A0000FE15E0F4BB20D1F084E0E81631F095E03B
:103A1000E91631F066E970E005C06CE271E002C0C1
:103A200068E572E08091DA059091DB050E94907E56
:103A3000892B21F48F2D90E00E946414F801B0824C
:103A4000C39482CF91E5E92E94E0F92E0AE811E0C3
:103A5000F701C2808C2D8F700E945410833009F0C2
:103A600049C0F801A080B180A114B10479F4F70134
:103A7000A080A7FC07C0A094FA2D8AE0F8025001AC
:103A8000112423C0BB24A7FCB0941FC0B7FE1AC0EA
:103A90009FEFA91AB90AA114B104B9F4F701A180E2
:103AA000A7FC0AC0A394FA2D8AE0F8025001112461
:103AB00091E0A91AB10809C0BB24A7FCB094A09456
:103AC000B09403C0E1E0AE1AB1088C2D807F79F08C
:103AD0008C2D82958F7089300CF08F5F40E060E014
:103AE0000E945317811103C0AA24AA94BA2CF8018A
:103AF000B182A082F3E0EF0EF11C0E5F1F4F81E058
:103B0000023A180709F0A4CF10920D018091E80441
:103B1000882309F473C040E060E08091E9040E94CA
:103B20005317882309F46AC08091D905882319F0B6
:103B300081508093D9058091D90581115FC0809112
:103B4000E804813081F487E20E94EF168C016091D5
:103B5000EA046695669570E062307105D4F00E94C3
:103B6000A47E8B0116C081E00E94EF168058910957
:103B70009C012E5F3F4F2530310510F480E090E02E
:103B80002091EA0426952695289F8001299F100DF3
:103B9000112401151105E9F017FF0AC011950195CF
:103BA00011098091EA0480FD09C046E462E202C086
:103BB00046E461E283EA91E00E9421750B3411052D
:103BC000A4F00D3711059CF00F3A110594F484E030
:103BD00013C08091EA0480FD0EC046E461E283EAEE
:103BE00091E00E94217584E107C088E005C086E06D
:103BF00003C082E001C080E08093D90580910B0171
:103C0000882309F405C18091580F882309F44FC017
:103C100080910702807CD9F0803819F400E911E026
:103C200002C00AE710E00E94FA166AE070E00E9403
:103C3000A47ECB012091070223FD03C025FD0E9435
:103C4000D01F081719071CF481E00E94377600E0A6
:103C50001CED90E0E12CF12C8091830E0817B0F45C
:103C6000E02FF0E0EC57F14F8081E80EF11C811756
:103C700008F4182F911107C020917504821720F4C1
:103C80008DE10E94377691E00F5FE6CFC70165E0D6
:103C900070E00E94907E7093FF0E6093FE0E1C3DBC
:103CA00031F0812F90E09093FB0E8093FA0E80917B
:103CB000590F882329F180912405882309F1209147
:103CC000A1042223E9F08091FC0E9091FD0E16E0F4
:103CD000959587951A95E1F730E08217930784F060
:103CE0008091B90581FF05C081E390E00E946414D2
:103CF00007C046E46091A20483EA91E00E94217526
:103D00002091D8052F5E822F8F7090E00C970CF0D9
:103D1000207F2093D805BBEF8B2EB1E09B2EF12C9A
:103D2000922F9073E92EE22FEF70CE2EF22FF07FBC
:103D3000AF2E2077B22EFD1409F461C08401035820
:103D40001D4FF8018081982F907C9034D9F4E110B8
:103D500019C0880F880F40E060E0859585950E9426
:103D60005317882379F08091B90580FF05C0F401CD
:103D7000E258FD4F608101C061E046E483EA91E0D2
:103D80000E942175F8018081982F907C903891F5E0
:103D9000880F880F859585958731E4F0992787FDF1
:103DA000909547978130910541F08230910541F01F
:103DB000892B01F5B1101EC006C0C1101BC003C085
:103DC000F0E2AF1217C0F401E258FD4F80810E946B
:103DD000D72010C0E1100EC040E060E00E945317F1
:103DE000882341F0F401E258FD4F8081805890E033
:103DF0000E946414F39482E0880E911C9CCF109270
:103E00000B0180918801882319F0815080938801EB
:103E10000F90DF91CF911F910F91FF90EF90DF9066
:103E2000CF90BF90AF909F908F900895282F30E053
:103E3000883058F02850310949E0429FC001439F23
:103E4000900D1124875F9B4F089545E0429FC0016C
:103E5000439F900D11248F519C4F0895CF93DF9372
:103E6000D82F9091BC0DC92FC17090FF03C068E19D
:103E70007FE002C066E07FE088E10E94026AD136FE
:103E800029F41092BC0D80E00E94E81BC11109C00A
:103E90004091B80E5091B90E24E060E388E40E948E
:103EA0005E6C80910909815080930909811105C0D8
:103EB00081E0DF91CF910C943776DF91CF91089517
:103EC000813649F40E945A6E81E00E94E81B84E921
:103ED0009FE40E94001C68ED7FE080E10E94026A7E
:103EE00062EC7FE080E20C94026A1F93CF93DF9331
:103EF000182FD62FC42FB9010E94026ADD2329F0A2
:103F00006FE08C2F0E943214C82F80910C024C2F2E
:103F100083FF02C0440FD06250E02D2F612F80E656
:103F20000E945E6C8C2FDF91CF911F910895FF92BC
:103F30000F931F93CF93DF93182FF62E0AE08AE09A
:103F4000189FE0011124CB5EDD4F2FE130E0211BF3
:103F50003109029FA001039F500D1124BE01CE0123
:103F60000A960E941A7FFF2049F0BE016A5071092B
:103F70004AE050E0CE010E941A7F0AC0FE01119271
:103F80000A95E9F7809117098883898384E68A83F3
:103F900010931909DF91CF911F910F91FF90089510
:103FA0009C01220F331F280F391F959587959595F2
:103FB0008795280F391F95958795959587959595A0
:103FC0008795820F931F0895429643E7489F90017B
:103FD000499F300D1124C901E6E095958795EA9532
:103FE000E1F70895E82FF0E0E459FB4EE491EE2369
:103FF00069F0E13021F48091590F811107C081E00F
:104000009091580F911103C080E0089581E00895C8
:10401000E82FFF27E7FDF095E15AFA4EE491262FAD
:10402000332727FD3095C90183589F4FEC3009F4A1
:104030004AC09CF4E43021F14CF4E53F09F454C04B
:104040000CF45CC0EE5FE230C8F00895E630C1F0D9
:104050000CF454C0EA30FCF50895E43209F43FC092
:1040600044F4EE300CF44AC0E031CCF1E332C9F153
:104070000895E732B4F1E732E9F108952AE024C067
:10408000803491059CF0880F991F80549109813CE0
:10409000910564F0880F991F805C9109813C51E083
:1040A000950724F0880F991F885E91402AE0AC01A3
:1040B000249FC001259F900D11242091070225FF08
:1040C0001DC00C94D01F24E6AC01249FC001259F85
:1040D000900D11240895C901815A9F4F089522E33C
:1040E000F3CF880F991F0895F3E0880F991FFA9571
:1040F000E1F708955AE06502C00111240895CF93B5
:10410000DF93E82FFF27E7FDF095E15AFA4E8491FF
:10411000853FC9F486E20E94EF16EC0180E20E941E
:10412000EF16D595C7959C0135952795C29FC0017F
:10413000C39F900DD29F900D112469E170E00E9401
:10414000A47ECB0131C08D3F54F4E82FEE0FFF0B5E
:10415000EA53FB4F8081992787FD909525C08F3FBB
:1041600009F044F48E3F84F48D3FD1F480917001C6
:1041700090E01AC0843081F0833291F483E20E948F
:10418000EF16880F991F10C0E82FEE0FFF0BEA55AE
:10419000F74F8389948908C0DF91CF910C94FA1668
:1041A000DF91CF910C94EF16DF91CF910895CF92CC
:1041B000DF92EF92FF920F931F93CF93DF931F92A3
:1041C000CDB7DEB7082F19820E947F207C01802F97
:1041D0000E94F21F811105C08AE30E947F1411E042
:1041E00001C010E0E02FFF27E7FDF095E15AFA4EFD
:1041F0006491643009F464C0CCF46D3F09F49EC04E
:104200007CF4653F09F48FC00CF481C0E62FEE0FFB
:10421000FF0BEA53FB4FE080FF24E7FCF09477C0EC
:104220006F3FF1F0ECF0623054F171C0633209F489
:104230008AC054F46A300CF46AC06C300CF46AC062
:10424000603209F47DC063C0673209F46FC024F4A2
:1042500065320CF073C05BC06C3209F450C057C0BB
:104260006CE370E0C7010E94A47E6B017C0146E212
:1042700060E0C6010E94467660E045E36BC084E0E2
:104280006802F0011124E856FB4F03810295069560
:1042900006950370D08041E0023009F040E09E01B5
:1042A0002F5F3F4FC7010E9459117C01033009F471
:1042B00047C0013061F183E68D1508F044C03EC06F
:1042C00090910702892F807293FF03C0882349F0E1
:1042D00006C0882331F0C7010E94D01F7C0148E14D
:1042E00001C048E388EEE81683E0F8067CF1C701D8
:1042F0006AE070E00E94A47E7B0160E02BC08091A8
:10430000070285FF04C0C7010E94D01F7C0160E046
:1043100040E020C08091070285FF1AC0C7010E94BB
:10432000E41F7C0115C060E04BE314C0C7016AE0E4
:1043300070E00E94A47E7B0161E0EACF61E004C0EE
:1043400061E043E307C062E044E204C061E002C010
:1043500060E04FE2111103C0C7010E9446760F9042
:10436000DF91CF911F910F91FF90EF90DF90CF9051
:1043700008959F92AF92BF92CF92DF92EF92FF92F9
:104380000F931F93CF93DF93C82EB62EF42EE9011F
:10439000102FAE2C8E2D8170982EE0FE15C000E0FF
:1043A00021E0240F48E855E18C2D0E94CE6912FDD2
:1043B00004C0E8E1DE2EDC0C08C07CE1D72EDC0C6A
:1043C00088EFB80E0CE002C0DC2C06E08A2D887065
:1043D000E82EA3FC1F7BEF2DFF27E7FDF095E15AA8
:1043E000FA4EF49086E0F81609F475C08F15C4F003
:1043F0008FEF8F1564F08EEFF816CCF585EFF81679
:1044000009F4A4C08DEFF81609F482C084C081E0DD
:104410008F150CF042C084E0F81609F45CC07BC034
:1044200083E2F81609F472C08F1574F08AE0F8166A
:104430000CF471C08BE08F150CF042C080E2F812D2
:104440006AC0106201E468C085E2F8160CF463C02B
:1044500086E28F150CF05CC087E2F8125CC0106237
:10446000CE016AE070E00E94A47EEB0154C012FD10
:1044700002C08CEFD80E992011F08AE0D80E177088
:10448000012F212FAE016B2D8AEF8D0D0E94046C40
:1044900003E30F0D8AEFC80E48C0912F90684C2F90
:1044A000EE2019F08DE38C0D02C08D2D801BEE24C3
:1044B000E394092F2F2D6B2D0E94A111082F35C0D9
:1044C0008091070285FF44C0CE010E94E41FEC01E9
:1044D000D01A06E421C08091070285FF07C083FD42
:1044E00007C0CE010E94D01FEC0102C00DE601C042
:1044F00006E6C83E83E0D80714F410620DC0CE0172
:104500006AE070E00E94A47EEB0106C0106301C067
:10451000106206E701C000E2EE20E1F08DE38C0DB1
:10452000212FAE016B2D0E945E6C8A2D8670A1F04A
:10453000A2FE04C08AE08C0D1B7F02C08091800D1A
:10454000212F402F6B2D0E941B6906C007E7E4CF87
:1045500003E4E2CF8D2DE4CF802FDF91CF911F9127
:104560000F91FF90EF90DF90CF90BF90AF909F9012
:1045700008950F931F93CF93DF93C82FD62F042F47
:10458000122F46EB53E10E94E26940E3400F212FD6
:104590006D2F8CE08C0FDF91CF911F910F910C94B8
:1045A0001B69DF92EF92FF920F931F93CF93DF93DC
:1045B000182FF62EC42FD22EDE2DD370A1F08091AD
:1045C000DB01803881F48DE7840F8B3F40F0E42FCE
:1045D000F0E0EE0FFF1FEA54FC4FC08101C0CEE7B0
:1045E00082E00E9434638DE78C0F2E2D8B3FA0F06C
:1045F00043E84C0F6F2D8EEE810F0E94B922DD2310
:1046000009F122E042E850E06EE770E08C2F90E084
:104610000E947413C82F16C04C2F552747FD509584
:104620006F2D812F0E945E6CDD2361F0402F6D2D78
:104630008C2FDF91CF911F910F91FF90EF90DF9022
:104640000C942F148C2FDF91CF911F910F91FF901D
:10465000EF90DF900895CF93DF939EE0899FE00174
:104660001124CB55DC4F40E060E08C850E9453174D
:10467000882349F040E060E08D850E945317811146
:1046800004C081E003C080E001C082E0DF91CF91EF
:104690000895EF92FF920F931F93CF93DF93F82E1D
:1046A000E62EC42FD42FD695062F0D1B182F1D1BB9
:1046B000602F812F0E94AD6A6D2F6E0D4C2F812FC0
:1046C0000E94AA6A4C2F602F8D2F8F0D0E94AD6A19
:1046D0004C2F602F812FDF91CF911F910F91FF9071
:1046E000EF900C94AA6A21E0AC0160E080E00C94A9
:1046F000E2690F931F93CF93DF93182FC2EAD8E09C
:1047000081EB99E00E947323113678F0133628F07C
:10471000133659F48FE494E202C08CE495E4DF91FF
:10472000CF911F910F910C94501468EA79E088E0C2
:104730000E94026A4A815B8100E020E068E08AE230
:104740000E94046C4C815D8120E068E08EE40E9450
:10475000046C6FE979E080E10E94026A4E815F811A
:1047600020E060E18AE20E94046C48855985B4E04B
:1047700056954795BA95E1F720E060E18EE40E94F6
:10478000046C6AE979E080E00E94026A48815981FC
:1047900020E060E08EE40E94046C4EE76CE382E06F
:1047A0000E94AA6A43E26CE185E00E94AD6ACBE018
:1047B00043E06BE38C2F0E94AD6ACA5FC338C1F738
:1047C0001091C4078091C307893710F4C0E001C07D
:1047D000C12FD6E00CE3EC2FF0E0EB53F84F408113
:1047E000602F641B8D2F0E94AD6ACF5FC83708F021
:1047F000C0E0C11719F0DF5FDE3769F7DF91CF91B5
:104800001F910F91089591E0211101C090E0442380
:1048100019F04DE653E002C041E753E0292F0C9414
:10482000E2690F9301E0211101C000E0242F4EEA5C
:1048300053E10E94CE690F910895893621E09207D5
:104840001CF08856914004C097FF02C088599E4FC3
:104850006FE070E00E94A47ECB0108950E941D24A9
:104860008F5B9E4FFC01808108950E941D24885D0E
:104870009E4FFC01808108950F931F93CF93DF9388
:10488000182FEA01022F0E94026A202FAE01612F29
:1048900084E5DF91CF911F910F910C945E6C1F9373
:1048A000CF93DF93182FCEE0D1E08FEF99E00E94F5
:1048B00073231136A1F058F41036C1F48FEF8883BA
:1048C00019821B821A8287E10E9437760FC0123646
:1048D00019F0133621F00AC089E793E202C08CE494
:1048E00095E4DF91CF911F910C9450144981469526
:1048F00050E020E060EF79E088E00E943C244881AD
:10490000469550E020E061EE79E080E10E943C2491
:10491000498150E08881481B510957FF02C04F5F11
:104920005F4F5595479520E062ED79E088E10E9460
:104930003C248A819B8129E1289FA001299F500D59
:104940001124569547955695479520E369EC79E0F3
:1049500080E20E943C2466EB79E088E3DF91CF910E
:104960001F910C94026A7F928F929F92AF92BF9296
:10497000CF92DF92EF92FF920F931F93CF93DF932B
:10498000EC01162FD42E4901B090450840919608AD
:10499000509197082091980830919908E1E7F1E04B
:1049A00086819781841B950B97FDCF96A6E0959500
:1049B0008795AA95E1F7682F80936908808591858E
:1049C000821B930B97FDCF9676E0959587957A9508
:1049D000E1F7982F80936708662311F05783468389
:1049E000992311F03187208780916808811104C0D4
:1049F0008091B00585FF06C0109269081092670883
:104A00001092680820916908211108C080916708F8
:104A1000811104C082819381892B61F08091B2055C
:104A20003AEF839FC0011124880F991F90936E0164
:104A300080936D0181149104B1F1888181119EC12F
:104A40008091A108882309F4A4C1813009F4B3C17D
:104A50002111B8C1153609F4D8C1143609F4DFC1E3
:104A6000772473948091A108811102C092E0792E7D
:104A7000402F50E0272D60E08FE70E945E6C0A30E7
:104A800008F485C10FE6272D4FE260E0802F0E94D9
:104A90001B694D2D50E04F5F5F4F272D60E08FEF7A
:104AA000800F0E945E6CE114F10451F098818C2D0E
:104AB0009C1508F4892FF701E80FF11DE49101C05E
:104AC000E0E08091A108813081F58091E401181621
:104AD0006CF4BE1610F4B39411F588818A1518F49D
:104AE0008F5F888301C01882B12C19C08823B9F068
:104AF000B11014C08881882319F08150888301C0C7
:104B0000A882E114F10459F098818C2D9C1508F4C9
:104B1000892FF701E80FF11DB49001C0BA941092EB
:104B2000E4011E3249F483E005C0833029F41E32CB
:104B300019F481E08093A108E114F10451F0988107
:104B40008C2D9C1508F4892FF701E80FF11D549165
:104B500001C050E080916C08811145C080916708C8
:104B6000882301F14881481B47FD40E08A2D90E0F1
:104B7000242F332727FD3095281739070CF04A2DAD
:104B80004883E114F10459F0C41608F44C2DF701E0
:104B9000E40FF11DE491EB1518F4BE2E01C0B12C09
:104BA0001092670828812223F1F0809169088823F8
:104BB000D1F0B81AB7FCB12C8B2D992787FD9095B1
:104BC000E114F10479F03C2D2C1508F4322FF70193
:104BD000E30FF11DE4912E2F30E0821793071CF0B4
:104BE000BE2E01C0B12C103669F190F4123409F4D4
:104BF00073C028F41132A9F11E3221F197C0143488
:104C000009F446C008F476C0153409F451C08EC0CA
:104C1000153609F451C040F4133609F46EC0D8F5C6
:104C2000123609F45CC082C01E38C1F01F3B31F05F
:104C3000113809F07BC010926C0821C018821092C4
:104C40006C0838C08881882309F470C081E0909195
:104C50006C08911180E080936C0868C08EE80E9417
:104C60005A6E80916C08882319F010926C085EC00F
:104C70008881882311F0892831F41092A10880E0FE
:104C80000E94E81B53C087E10E94377618824EC00D
:104C9000B51609F44BC0EF2809F448C080916C08A0
:104CA000811144C0B51610F4B39411C0B12C0FC0DB
:104CB000B11002C0B12C3AC0EF28C1F180916C084C
:104CC000811134C0BB2011F0BA9401C0B52E552318
:104CD00069F11092DB012AC088818A1539F180912F
:104CE0006C08811123C088818A1510F48F5F0DC074
:104CF00018820EC088818823C9F080916C088111C8
:104D000015C08881882319F08150888301C0A8824A
:104D1000E114F10479F288818C1508F4C82EF701AA
:104D2000EC0DF11DE490EB1408F4BE2C20916C08FE
:104D300021110AC031E08091730190917401892B97
:104D400009F430E0832F01C081E080936B08B092BA
:104D50004508222311F082E001C081E080936608BB
:104D6000DF91CF911F910F91FF90EF90DF90CF9047
:104D7000BF90AF909F908F907F90089580916C0826
:104D8000811103C081E08093A108712C6BCE05E7EF
:104D90007ACE8091E401181624F0882319F015E6E4
:104DA00001C014E61092E4011E3209F051CE81E0F8
:104DB0008093A10805C01E3209F04ACE1092A108C6
:104DC00010E046CE80916C08811144CEED2DE21B9F
:104DD000E7FDE0E0202F30E08E2F992787FD9095AA
:104DE0008217930714F0EFEFE00FFF27E7FDF09530
:104DF0008D2D90E0E817F90729F0EE0FFF1FE80D61
:104E0000F91D1EC01092690825CED11001C0D02E08
:104E1000F401ED0DF11DED0DF11D329711C02D2D99
:104E200030E0802F90E00197281739071CF411E03B
:104E30001D0D01C010E0810E911C810E911CF4012A
:104E400085919491DF91CF911F910F91FF90EF90F9
:104E5000DF90CF90BF90AF909F908F907F900C94F9
:104E60005014AF92CF92EF92FF920F93AE2CC12CC1
:104E7000E12CF12C0E94B3240F91FF90EF90CF9082
:104E8000AF900895CF92DF92EF92FF920F931F930E
:104E9000CF93DF93C82F86E99CE00E947323EE2412
:104EA000E39406E02FEF33E144E06C2F82E099E0D9
:104EB0000E9431271091020910928901D0E0C0E0D0
:104EC000C12C04E0D02EE12CF12C41E46D2F88E1BF
:104ED0000E94A66941E34C0F6D2F8EE10E94A669E6
:104EE0008C2F0E945E15AC016D2F8AE20E940B6A26
:104EF000C43028F48C2F0E944710815003C0C73063
:104F0000B9F08C2FE82FF0E0EE0FFF1FE257F74FBC
:104F1000A081B18124E630E00E94587EA70196016D
:104F20000E94DA7EA9016D2F8AE50E94886C0BC071
:104F3000113021F440916608406201C040E26D2FBB
:104F40008AE50E94836CCF5FD85FC83009F0BDCF7F
:104F500062E97CE088E20E94026A4091000150917F
:104F6000010160E388E70E94886C113071F41093AE
:104F7000680880916C08882341F04FE761E88091D0
:104F80009A050E943E1480939A05DF91CF911F915C
:104F90000F91FF90EF90DF90CF900895EF920F93D5
:104FA000CF93C82F8DE59CE00E947323E12C06E08F
:104FB0002FEF33E142E06C2F80E099E00E9431272F
:104FC0006CEE77E080E10E94026A6AE178E088E1B5
:104FD0000E94026A69E078E080E20E94026A6AEF59
:104FE00077E088E20E94026A68ED77E080E3CF9183
:104FF0000F91EF900C94026A2F923F924F925F9222
:105000006F927F928F929F92AF92BF92CF92DF92D8
:10501000EF92FF920F931F93CF93DF9300D000D0B6
:1050200000D0CDB7DEB7D82E82E793E10E9473237C
:1050300067E0A62E76E0C72EEBE6EE2EE3E1FE2E2D
:105040000BE02BE034E148E06D2D81E199E00E9416
:10505000B32470901109109145088EED8D0D8430A8
:1050600028F480916C0881110E94547C209166087C
:105070002A8365E673E188E00E94026A8091070254
:1050800083FB882780F931E0731212C0111110C020
:1050900061E00E943214982F91702091070290FBDA
:1050A00023F920930702913029F41092A60402C03C
:1050B00000E001C001E0282F49E553E168E084E207
:1050C0000E94CE698091A60491E079120EC0113041
:1050D00061F461E00E9432148093A604909107026B
:1050E00093FF05C01092A60402C000E001C001E0D9
:1050F000282F4DE453E168E088E40E94CE69809156
:10510000070285FB882780F9E1E07E120DC012308E
:1051100059F461E00E9432149091070280FB95F9E6
:105120009093070201E001C000E0282F45E453E11D
:1051300068E08CE60E94CE6928E934E03E832D8346
:1051400030E4832E3FE0932E31E3398342E0642E36
:1051500050E1F52E8A8180688C836AE373E18F2D9C
:105160000E94026A998191539B8349816F2D86E049
:105170000E94A669761004C0111102C00C8101C002
:1051800000E8E12C2B81ED81FE8140816F2D80E6CE
:105190000E94A111EE24E39400E82B81F4014081E8
:1051A0006F2D8EE70E94A111761002C0113011F010
:1051B00000E001C00A81ED81FE81238122952695C0
:1051C0002695237044E353E16F2D80E60E94CE695B
:1051D000761027C080916B08882319F11123B9F04C
:1051E0001130F9F4ED81FE81838163E0829586952B
:1051F000869583700E9432148295880F880F807C78
:10520000ED81FE8193819F73982B93830AC0ED817A
:10521000FE8180816FEF90E00E943714ED81FE8166
:10522000808344244394460C28E0522E5F0CAD80CA
:10523000BE80C12CD12CED81FE818381982F9F707F
:10524000492F50E09601220F331F02C05595479514
:105250002A95E2F7F42FF3702F2E8295837090E059
:105260000C2C02C0959587950A94E2F7282F21709F
:10527000322E741411F0E12C01C0EA8020E04FE2DC
:1052800053E1652D84E00E94E269112311F000E0F2
:1052900001C00E2D222D4DEF54E1652D84E20E94B8
:1052A000CE69113011F000E001C00E2D232D4BE22C
:1052B00053E1652D82E40E94CE69123019F40E2D5F
:1052C000006801C000E83FEFA31AB30AEE24E3949C
:1052D0002B81ED81FE81EC0DFD1D4181652D80E668
:1052E0000E94A111741052C080916B08882309F4A8
:1052F0004DC0113049F160F0123009F047C0F5019E
:1053000080816FEF90E00E943714F50180833EC0EA
:1053100063E0822D0E943214ED81FE812381C1144D
:10532000D10439F0F4E08F9FC0011124922F9370C3
:1053300002C0922F9C70982B9F70ED81FE8183811B
:10534000807F892B838322C061E0832D0E943214E9
:10535000ED81FE81238122952370C114D10429F0AF
:10536000982F990F2D7F922B03C0922F9E7F982B01
:1053700093709295907FED81FE8183818F7C892B44
:10538000838380917B0181110E94547C4394F8E0D7
:105390005F0E2FEFC21AD20A32E0C316D10409F011
:1053A0004ACF83E0680E98E1F90EE981EF5FE98367
:1053B0002D813E812C5F3F4F3E832D8336E0830E4F
:1053C000911C6F12CACE26960FB6F894DEBF0FBEA0
:1053D000CDBFDF91CF911F910F91FF90EF90DF90A4
:1053E000CF90BF90AF909F908F907F906F905F9085
:1053F0004F903F902F9008958F929F92AF92BF92BF
:10540000CF92DF92EF92FF920F931F93CF93DF9390
:10541000C82F8AE492E10E947323F7E0AF2ECC24D8
:10542000C394A8E4EA2EA2E1FA2E0BE02BE034E1CB
:105430004AE06C2F8FE099E00E94B324A0900F09FE
:1054400080904508B3EBEB2EB4E0FB2EC2EBD4E02A
:10545000CC24C394D12C18E0B12C65E472E1812FE7
:105460000E94026A40E34C0D612F8CE00E94A66905
:10547000912CAC14BD0459F4891009C00091660840
:10548000002331F080916C08811104C001C000E05C
:1054900080E001C081E0911012C0882339F06CE1F6
:1054A000F70180810E943214F7018083F701208187
:1054B0004CEE51E1612F88E40E94CE6911C088232F
:1054C00031F04DE763E888810E942F14888348817A
:1054D000552747FD5095202F612F8CE60E945E6C6A
:1054E0009394F2E09F12C5CF185F82E0E80EF11CA2
:1054F0002296EFEFCE1ADE0A103409F0AECFDF911C
:10550000CF911F910F91FF90EF90DF90CF90BF90C0
:10551000AF909F908F9008958F929F92AF92BF927D
:10552000CF92DF92EF92FF920F931F93CF93DF936F
:10553000D82E85E59CE00E94732346E0A42E55E01A
:10554000C52E6FE4E62E6CE0F62E06E02FEF33E179
:1055500041E06D2D8FEF98E00E94B324C090FF08CA
:10556000909045088091630081FF04C068E47CE06E
:1055700088E1F4C0CA94C4EAD5E0B12C10E1AA24B1
:10558000A394AB0C20E04A2D612F80E00E947010A4
:10559000F12CCB1005C09F1003C00091660801C01C
:1055A00000E0802F8270882E92E0F91609F444C042
:1055B000E3E0FE1609F455C0F1E0E980FF16D1F0F2
:1055C000E294E694E69433E0E3222E2D4DE35CE092
:1055D000612F88E10E94CE69882009F45AC062E0F8
:1055E0008E2D0E9441148295880F880F807C9981AE
:1055F0009F731FC0EE0CEE0CE594E5948E2D9DE09C
:105600008902F0011124F7FD3396AF0155954795B6
:1056100055954795202F612F82E40E945E6C88206B
:10562000C1F14FE161EE8E2D0E943E148F7399817E
:10563000907C982B99832DC0E880EE2DE770EE2E9C
:105640002E2F4FE25CE0612F88E40E94CE69882013
:1056500001F163E08E2D0E94411487709881987F3C
:1056600016C0E880E594E594E594202F4E2D612F37
:105670008AE50E94B810882061F04FE061EF8E2D1E
:105680000E943E14880F880F880F98819770982B7E
:105690009883F394F4E0FF127CCF185F2296AF1644
:1056A00011F0BA2C6CCF64E27CE080E30E94026AC5
:1056B00084E0C8120AC048E266EF8091B4050E94F7
:1056C0003E148093B40521E201C020E24091B4056C
:1056D000552747FD5095465F5F4F60E38EE40E947B
:1056E0005E6CEE24E39495E0C912E12C2E2D40E28D
:1056F0005CE068E380E00E94E2690CE511E0CCE93F
:10570000D5E090E3F92EF801419151918F01699113
:105710007991461B570B440F551F20E268E38F2DEC
:105720000E945E6CF8E1FF0E80E9F812ECCFEE20EB
:1057300091F090E6D9120FC088E0ECE5F1E0ACE919
:10574000B5E001900D928A95E1F781E00E94346303
:1057500087E10E94377660E17CE088E0DF91CF91BD
:105760001F910F91FF90EF90DF90CF90BF90AF907F
:105770009F908F900C94026A1F93CF93DF93C82F52
:10578000D62F142F47E16CE20E94492343E06BE2DD
:105790008C2F0E94AD6A43E06CE28FEF8C0F0E9469
:1057A000AA6A812F69EF0E94827E282F245D8D2FA7
:1057B00067E00E94827E45E0622F8C0FDF91CF91DF
:1057C0001F910C944923CF92DF92EF92FF920F9397
:1057D0001F93CF93DF93CCE9D8E0498168818AE2B7
:1057E0000E94BC2B4A816B8186E50E94BC2BCEE8CF
:1057F000D8E028967AE3F72E0DE510E0E7E3CE2E09
:10580000899199919C5FB8010E94A47EDD24D39474
:10581000D60EEC2CE61A4D2D6E2D8F2D0E94AD6A02
:105820004D2D6E2D81E08F0D0E94AD6A4D2D6E2D98
:1058300082E08F0D0E94AD6A85E0F80E89E4F812CF
:10584000DFCFDF91CF911F910F91FF90EF90DF900D
:10585000CF900895DF92EF92FF920F931F93CF9313
:10586000DF93F82E8BEC9CE00E947323EE24E394EC
:1058700006E02FEF33E145E06F2D83E099E00E94D1
:10588000312710920309CDEBD8E010E0812F0E9460
:105890005E154E855F85841795070CF4AC015F8714
:1058A0004E874C8D5D8D481759070CF4AC015D8F08
:1058B0004C8F143060F02E853F85240F351F37FF45
:1058C00002C02F5F3F4F35952795398328831F5F8F
:1058D00022961730D9F68091E7088093680890E205
:1058E000F91621F08FEBF8120EC00BC08F5F80937A
:1058F000E708833041F487E10E94377681E00E9417
:1059000034631092E7088091E708813089F050F005
:10591000823009F072C010928901EBECF8E0CBE61E
:10592000D5E01FC06AEB7CE088E10E94026A65C096
:10593000CDEBD8E0D12C18E9E12E1AE3F12E08E6E0
:1059400015ECFF86EE861D8F0C8F8D2D0E945E1547
:1059500089939993D39497E0D912F3CF6CEA7CE0C2
:1059600043C061917191848595859B01281B390BFA
:1059700037FF03C0319521953109233331053CF1BF
:10598000DF0150974D915C91598348839A01261B02
:10599000370BB90137FF02C0615C7F4FB6E07595E8
:1059A0006795BA95E1F7261B370B3F872E87841B37
:1059B000950B9C0197FF02C0215C3F4FA6E03595F7
:1059C0002795AA95E1F7821B930B9D8F8C8F2296CA
:1059D00088E0E93DF80729F60E9406629093960553
:1059E000809395056AE97CE080E10E94026A49EBB8
:1059F00053E168E182E10E94086ADF91CF911F9133
:105A00000F91FF90EF90DF900C94E32BFF920F9398
:105A10001F93CF93DF93182F062FEA01F22E222334
:105A200021F061E00E944114182FBE01802F0E94D6
:105A3000026A2F2D412F602F86E60E940324812FBA
:105A4000DF91CF911F910F91FF900895CF93C1E007
:105A50009C2F981B892F0E94062DC81B8C2FCF913D
:105A60000895FF920F931F93CF93DF93182F062F64
:105A7000EA01F22E222321F061E00E943214182F55
:105A8000BE01802F0E94026A2F2D412F602F86E6D3
:105A90000E940324812FDF91CF911F910F91FF90DE
:105AA00008951F93CF93DF93D62F122F0E94312D8D
:105AB000C82F212F482F6D2F86E60E9411248C2F8E
:105AC000DF91CF911F910895CF93482FCAE02AE02C
:105AD000829FC00111248B5E9D4F2FE130E0241B7B
