:100000000C9485100C94AD100C94AD100C94AD10A4
:100010000C94AD100C94AD100C94AD100C94AD106C
:100020000C94AD100C94AD100C9438160C946D70AB
:100030000C9434730C949A700C94AD100C94971625
:100040000C9426160C94AD100C94F4790C94397819
:100050000C94AD100C94AD100C94AD100C94AD102C
:100060000C94AC730C94DE160C94FF700C94ED732E
:100070000C94AD100C94AD100C94AD100C94AD100C
:100080000C94AD100C94AD100C94AD1085188A181A
:100090004F1855185B185B185B187B18801885186B
:1000A0008A188F1894189A18C24382438D439C4330
:1000B000A243A643AB430F532553335348535653E0
:1000C000655377539D53C653D453135439545754DF
:1000D0006554735481541F6E0D6E076E106E146E4E
:1000E000186E0A6E1C6E216E1A751C751F752475AC
:1000F0003775487558756375757587758C75A575F1
:10010000A875AC75AE75B075B575B975C575C97599
:10011000D175D875DC75DE75E275E475E675E87540
:10012000EC75F075F575FA75FF7504760976204F54
:100130006C642056657273696F6E20454550524F4E
:100140004D202020434845434B2053455454494EAD
:1001500047532F43414C494200416C61726D7320FB
:1001600044697361626C65640053776974636820E5
:100170005761726E696E6700506C656173652052DD
:100180006573657420537769746368657300546898
:10019000726F74746C65206E6F742069646C650096
:1001A0005265736574207468726F74746C65004571
:1001B0004550524F4D206C6F77206D656D004C4F50
:1001C0004144494E47006D537461636B206F666C08
:1001D0006F77006D537461636B2075666C6F770089
:1001E0004D45535341474500707265737320616EEE
:1001F00079204B657900507265737320616E7920A8
:100200006B657920746F20736B697000032D2D2D41
:10021000783E30783C307C787C663E30663C307C82
:10022000667C63312063322063332063342063357E
:1002300020633620633720633820633920633130F0
:100240006331316331326331336331346331356368
:10025000313600034F46464142535255735255259D
:10026000454C73454C25544873544825414C7341C3
:100270004C255031205031255032205032255033FA
:1002800020503325002D2D2D004348002D2D2D20ED
:10029000000450312020503220205033202048418B
:1002A0004C4646554C4C43594331435943324359CC
:1002B000433350504D3150504D3250504D335050CB
:1002C0004D3450504D3550504D3650504D375050A4
:1002D0004D38434831204348322043483320434877
:1002E000342043483520434836204348372043488C
:1002F000382043483920434831304348313143485E
:10030000313243483133434831344348313543482F
:10031000313633504F5347563120475632204756D7
:100320003320475634204756352047563620475607
:10033000372054484953002D2D2D2D0000006428EE
:10034000100703010452554420454C45205448529F
:100350002041494C200020414C45525400000102EC
:10036000030002010303010200030201004F4E20BB
:10037000004F46460003544852525544454C4549A7
:10038000443049443149443241494C474541545233
:100390004E535731535732535733535734535735BE
:1003A0005357365357375357385357395357415389
:1003B0005742535743001B1E272D36394B4E636C53
:1003C0007278878D939CB1B4C6C9D2D8E1E45370DA
:1003D0006C617368008040000000000000000000B5
:1003E000000000000000000000000000000000000D
:1003F00000000000000000000000000000000000FD
:1004000000000000000000000000000000000000EC
:1004100000000000000000000000000000000000DC
:10042000000080C0E0E0F0F8F8FCFCFCF8F8F8F020
:1004300040000000000080808000000000000000FC
:1004400000000000000000000000000080C0C0E0CC
:10045000E0E0F0F0F0E0C00000000000C0F8FFFFB6
:100460009F8783838383838383838383838383833C
:1004700083838383838383830383808383838383CF
:10048000838383838383838383838383838383833C
:100490008383C3E3733F1F0000000080E0F0F8FC9B
:1004A000FEFFFFFFFF7F3F1F1F0F0783C3E1E1E058
:1004B000E0C0000E1F3F7F7FFFF3E0E08000000000
:1004C0000000000000000080F0FCFEFFFFFFFF7F47
:1004D0003F0F0301010100000080F0FEFFFFC7C1D4
:1004E000C1C1C1C1C1C1C1C1C1C1C1C1C1C1C1C1FC
:1004F000C1C1C1C1C101C1F0FEFF3F0F070F0D0D0A
:100500000D1D191919193131313171616161E1C163
:10051000C1C18100000080E0F8FCFFFFFFFF2F1742
:100520000F038180C0E0F0F8FCFEFFFFFFFFFFFF3C
:100530007F010000000000000001010307070E1EFC
:100540001C3870E0F0F8FEFFFF7F1F0F0300010072
:10055000000000000000000000000000000000009B
:10056000000000000000000000000000000000008B
:10057000000000000000000000000000000000007B
:10058000000000000000000000000000000000006B
:1005900000000000007EFFFFFFFFFFFFFBF8FCFCF8
:1005A000FEFF7F3F1F0F07C3FFFFFFFFFFFF7F0718
:1005B0000000000000000000000000000000C0E09B
:1005C000F8FEFFFF7F1F0F1F3D7CF8F8F0E0800072
:1005D000000000000000000000000000000000001B
:1005E000000000000000000000000000000000000B
:1005F00000000000000000000000000000000000FB
:1006000000000000000000000000000000000000EA
:1006100000000000000000010101010103070707BD
:100620000301000000E0FCFFFFFFFFFF1F030000CD
:10063000000000000000000000C0F078DE27130971
:100640000E0703000000000000000001030F7FFF01
:10065000FC7878F800000000000000000000008036
:10066000808080808080808000808000808000008A
:1006700000000000008080808080808080808080FA
:1006800080808080808080000000000000000000EA
:10069000000000000000000000000000000000005A
:1006A000000080F0FEFFFFFFFF3F0F010000000091
:1006B00000000000C0E0381E0F0300010000000031
:1006C000000000000000000000000000000000002A
:1006D0000000030301000000000000000000000E05
:1006E0000E02020202020303000F0F000F0F0808A0
:1006F00008080808080F0F08080808080F0F00006E
:1007000000000F0F000000000000000000000000CB
:1007100000000000000000000000000000000000D9
:10072000C0F8BFFFFFFF1F7F0100000000000000B6
:1007300000F0FCFF7F7830000000000000000000A7
:1007400000000000000000000000000000000000A9
:100750000000000000000000000000000000000099
:100760000000000000000000000000000000000089
:100770000000000000000000000000000000000079
:100780000000000000000000000000000000000069
:100790000000000000000000000000000000301C0D
:1007A000070E0F070100000000000000000000001D
:1007B0000000000000000000000000000000000039
:1007C0000000000000000000000000000000000029
:1007D0000000000000000000204D4F443A20465227
:1007E000534B59204E5420202020002053564E3A7F
:1007F00020657239782D6D61762D72313300544940
:100800004D453A2030323A31373A35300044415480
:10081000453A2032342E30352E32303134005645B0
:1008200052533A2056312E38332D34726566306E6D
:1008300074004F6B004865616C746800457272000B
:100840004F505449430045727200204750532000D6
:100850004572720041495253500045727200505225
:100860004553530045727200204D414720004572A8
:100870007200414343454C00457272004759524F44
:1008800020005448526F7574250057506469737482
:1008900000536174436F756E74004F4646003344D5
:1008A0002046697800334420466978003244204667
:1008B0006978004E6F20466978004750533A00200F
:1008C00044697361726D65640020202041524D457A
:1008D00044200020556E6B6E6F776E200020204EF6
:1008E0004F204D415620004E4F204452495645520C
:1008F00000202020464C4950202000202053504FFB
:100900005254202000202044524946542020004FB9
:1009100046204C4F495445520020204C414E442023
:1009200020200020434952434C4520200020202015
:1009300052544C20202000204C4F49544552202036
:10094000002047554944454420200020204155546B
:100950004F2020200020414C54484F4C4420002080
:10096000204143524F2020200053544142494C49DA
:100970005A4500202020202020202020200056340E
:100980003D0756353D0E56363D0056313D07563231
:100990003D0E56333D00096D7068005370643D098B
:1009A0006B7473204D61783D00416C743D096D207E
:1009B00020204D61783D004C6F6E3D004C61743DD0
:1009C00012486467000A52504D004675656C00225B
:1009D000047C5E54546D0003457870457846466E3D
:1009E000654D65644372730041323D0041313D0005
:1009F00011544F54000153544B11535425000154CA
:100A00004D4511545357005354415400035B4D4519
:100A10004E555D20746F2072656672657368007450
:100A20006D61696E0F6D7300746D7231204A697467
:100A30007465720F757300746D72314C6174206D42
:100A4000696E0F757300746D72314C6174206D6145
:100A5000780F7573005354415432004D6F64650034
:100A6000205245544100014368616E6E656C204F11
:100A70007264657200496E742E204672736B792021
:100A8000616C61726D0043726F73735472696D00B3
:100A9000456E61626C652050504D53494D00426176
:100AA0006E6447617000537469636B5363726F6C5B
:100AB0006C00506F745363726F6C6C00416C6172A8
:100AC0006D205761726E696E67004D656D6F72794A
:100AD000205761726E696E670044656661756C745B
:100AE000205377005468726F74746C65205761727C
:100AF0006E696E670053706C617368204E616D653E
:100B00000053706C6173682073637265656E004C8E
:100B100069676874206F6E2053746B204D76004CAB
:100B200069676874206F666620616674657200424A
:100B300061636B6C6967687420696E7665727400B6
:100B40004C696768742073776974636800466C61E8
:100B50007368206F6E206265657000426565702065
:100B6000636F756E74646F776E004D696E75746532
:100B70002062656570005468726F74746C652072D1
:100B800065766572736500496E6163746976697430
:100B90007920616C61726D136D00426174746572CD
:100BA00079207761726E696E6700436F6E7472614F
:100BB0007374002048617074696320537472656EA9
:100BC0006774680020537065616B657220506974AA
:100BD000636800566F6C756D65000A4265657065E7
:100BE0007220202020506953706B722020202042F8
:100BF00065657072566F696365506953706B566FA7
:100C00006963654D656761536F756E642000536F4E
:100C1000756E64204D6F64650006517569657420BA
:100C20004E6F4B6579207853686F727453686F729A
:100C300074204E6F726D20204C6F6E672020784CB0
:100C40006F6E672000426565706572004F776E6554
:100C500072204E616D6500000900524144494F20E9
:100C6000534554555000036D6F64650A2520737217
:100C700063202073770043616C004D756C7469705C
:100C80006C6965720003636831636832636833635B
:100C9000683400036F6666202B3D203A3D00075301
:100CA0006C61766500000303030300545241494E12
:100CB00045520056455253494F4E005472696D2DAE
:100CC000202B0005204D656E752045786974204401
:100CD0006F776E20202055705269676874204C65CC
:100CE000667400444941470012424700414E4100AA
:100CF000034D4F564520535449434B532F504F54A7
:100D0000530005534554204D4944504F494E54001B
:100D1000035B4D454E555D20544F20535441525472
:100D20000043414C4942524154494F4E00096672BA
:100D30006565004D4F44454C53454C00434F4C2096
:100D4000446972656374696F6E0041494C2044695F
:100D500072656374696F6E00454C45204469726525
:100D60006374696F6E0053776173682052696E67B0
:100D700000436F6C6C65637469766500062D2D2DDC
:100D800020202031323020202031323058202031B4
:100D90003430202020393020202020005377617308
:100DA000682054797065000048454C4920534554EB
:100DB00055500001524554410020464D30004D4FE2
:100DC0004445530020464D0046616465204F7574CC
:100DD000004661646520496E005472696D7300536A
:100DE000776974636800000300464C204D4F44450A
:100DF00000015245544100032D2D2D503120503219
:100E000020503320475634475635475636475637D5
:100E100000566F6C756D6520436F6E74726F6C0059
:100E20004175746F204C696D697473005432546855
:100E30005472696700547261696E657200452E20B4
:100E40004C696D6974730003504F534E454700530E
:100E5000686966742053656C0050504D203173747E
:100E6000204368616E0003416D654A61704575728B
:100E70000020436F756E7472790003443136443834
:100E8000204C525000205479706500094C50342F8A
:100E90004C5035202044534D326F6E6C79204453B2
:100EA0004D322F44534D580044534D2054797065B2
:100EB0000042696E64202052616E67650050504D9B
:100EC0002046724C656E0D6D536563000B52784E73
:100ED000756D000434434820364348203843482089
:100EE0003130434831324348313443483136434846
:100EF00000137553001175536563000650504D2063
:100F0000202050585820202044534D32202050504B
:100F10004D31362050504D53494D0050726F746F13
:100F20000052455441313233004265657020436EB2
:100F3000740046617374204D69782044656C617952
:100F4000005472696D205377000645787020202088
:100F5000457846696E6546696E6520204D65646911
:100F6000756D436F61727365005472696D20496ECF
:100F70006300542D4578706F00542D5472696D00D4
:100F80000A436F756E7420446F776E436F756E748D
:100F900020557020200054726967676572420054C2
:100FA00072696767657200566F69636520496E6490
:100FB0006578114D454E55004E616D650000090084
:100FC000010000000000000000060201005345542B
:100FD00055500052414E474520434845434B20520F
:100FE0005353493A000642494E44494E470044751E
:100FF000706C69636174696E67206D6F64656C0005
:1010000044454C455445204D4F44454C00445550B3
:101010004C4943415445204D4F44454C0044725384
:1010200077320044725377310002576569676874FC
:1010300000024578706F000444522048690004445F
:1010400052204C6F7700044452204D6964000045E3
:1010500058504F2F445200012B2A52004D495845F9
:1010600052000320202020202020200044454C4511
:101070005445204D49583F00035B4D454E555D0B8F
:101080005B455849545D00035945530B4E4F005082
:1010900072657373205B455849545D20746F2061FD
:1010A000626F7274004D6178206D6978657273208B
:1010B00072656163683A2033320002536C6F7720A7
:1010C0002055700002536C6F772020446F776E00BC
:1010D0000244656C6179205570000244656C617949
:1010E00020446F776E000841646420202020204D4A
:1010F000756C7469706C795265706C616365200001
:10110000024D756C74707800025761726E696E677B
:1011100000024D4F444553000253776974636800E1
:101120004375727665000D44696666000254726903
:101130006D0002466C4D6F64657472696D00024605
:101140006978204F6666736574004F6666736574D0
:1011500000466D5472696D56616C0002576569678F
:1011600068740002536F75726365004544495420EA
:101170004D4958200000000000000000000004005D
:10118000032D2D2D783E30783C307C787C663E30C7
:10119000663C307C667C633120633220633320639D
:1011A0003420633520633620633720633820633969
:1011B0002063313063313163313263313363313431
:1011C000633135633136000D4F6E00072D2D2D2D07
:1011D000202020763E6F66732020763C6F66732059
:1011E000207C767C3E6F66737C767C3C6F667341B8
:1011F0004E44202020204F522020202020584F52A3
:101200002020202076313D3D7632207631213D76FA
:10121000322076313E7632202076313C76322020E4
:1012200076313E3D76322076313C3D76322054692F
:101230006D654F66660053000003435553544F4D90
:1012400020535749544348455300064F4E20202011
:10125000204F4646202020424F544820203135530D
:101260006563733330536563733630536563735608
:10127000617269626C005653000720382053656321
:1012800073313220536563733136205365637300C5
:101290000153415658004E756D62657220566F6954
:1012A000636520537700000002534146455459209E
:1012B000535749544348455300032D2D2D52746D07
:1012C00045746D54746D41746D52454E525544458C
:1012D0004C4554485241494C5031205032205033F3
:1012E0002063312063322063332063342063352050
:1012F00063362063372063382063392063313063DD
:1013000031316331326331336331346331356331C9
:1013100036004756000001474C4F42414C20564191
:10132000525300042D2D2D2D4131202041322020FB
:10133000464153560043757272656E7420536F7543
:101340007263650053696E6B20546F6E65730002A3
:1013500053656E73697469766974790002537769AD
:1013600074636800042D2D2D2D7673706441322036
:101370002000566172696F3A20536F757263650081
:10138000464153204F666673657400437573746FEE
:101390006D20446973706C617900477073416C749F
:1013A0004D61696E00566F6C742054687265733DB0
:1013B00000034F464631323234303000416C7441C4
:1013C0006C61726D004E756D20426C6164657300D6
:1013D0006D416820416C61726D0052780054785202
:1013E000535349616C726D00000101010054454C7A
:1013F000454D455452593200013C3E00616C726DBE
:101400000001762D5641004120206368616E6E65B3
:101410006C00034D6574496D7000052053746420A1
:10142000204D617620000546724875625753486822
:10143000690050726F746F000002010202010254D1
:10144000454C454D4554525900434F505920545234
:10145000494D205B4D454E555D0000034C494D49BB
:10146000545300435600435552564553005052457D
:101470005345540000435552564500032D2D2D4928
:101480004E56004756005B4D454E555D205748452A
:101490004E20444F4E450053454C45435400434F66
:1014A0005059004D4F56450044454C455445004564
:1014B00044495400494E5345525400434F5059003B
:1014C0004D4F56450044454C455445007D59F42A3E
:1014D00036285F36AA27922CA054CC2DC4354E3C1A
:1014E000364F335EBF4E4051DE5F6428B22E642A11
:1014F00012081200081C0808081C08000008220036
:10150000490022080000000000227F22000000089D
:101510002200490022080000082200490022080099
:101520000000227F22000000000008220049002263
:10153000080000081C0808081C0800010101000040
:10154000000202020202020202020200020202027F
:101550000202020200000000000000020202020279
:1015600003030303065761726E31205761726E32B6
:101570002043686561702052696E6720205363695B
:10158000466920526F626F742043686972702054FC
:101590006164612020437269636B74536972656E84
:1015A00020416C6D436C6B5261746174615469636A
:1015B0006B202048617074633148617074633248F5
:1015C00061707463330054696D657200032D2D2DB5
:1015D00059656C4F72675265640054524530313220
:1015E00041470052783D0054783D00204142434439
:1015F00045464748494A4B4C4D4E4F505152535423
:1016000055565758595A6162636465666768696AD6
:101610006B6C6D6E6F707172737475767778797AA2
:10162000303132333435363738395F2D2E000001F2
:101630000203FEFF0406080A0B0C0D0E0F23FD200B
:101640002425261D1E1F27F6F7F8F9FAFBFCF528BE
:1016500011292AF1F2F3F4042D2D2D2D41313D20D5
:1016600041323D20525353495453534954696D31CB
:1016700054696D32416C742047616C7447737064B7
:1016800054313D2054323D2052504D204655454C5A
:101690004D6168314D61683243766C744261747497
:1016A000416D70734D61682043746F744661735669
:1016B00041636358416363594163635A567370646D
:1016C0004776723147767232477672334776723494
:1016D0004776723547767236477672374677617449
:1016E000527856204864672041333D2041343D20E4
:1016F0005343312053433220534333205343342048
:1017000000537769746368205761726E696E670071
:1017100067656E7772697465206572726F720045D5
:101720004550524F4D20466F726D617474696E67FB
:101730000042616420454570726F6D2044617461A0
:1017400000434845434B204D49582F445220534FA6
:101750005552434553004D4F44454C2020202020F6
:10176000004D4520202020202020200045455052BB
:101770004F4D206F766572666C6F7700E2AEA1A662
:10178000A4A2C02F25AF0000000000000000000050
:101790000000000000000000000000000000000049
:1017A000000000000000333B1F0F00000000C0C01D
:1017B000C0C0C0C0C0C0C0C0000000000000000029
:1017C0000000000000000000000000000000183CC5
:1017D0003C180000000000000080C0E070381C0CC5
:1017E0000C0E07030100000000000000FCFE87C390
:1017F000E377FEFC00000F1F3B3130381F0F000065
:101800000C0EFFFF00000000000030303F3F303082
:10181000000000000C0E0783C3E77E3C00003C3E46
:1018200037333130303000000303C3C3C3E7FE3C1D
:1018300000003030303030391F0F0000C0E0703809
:101840001C0EFFFF00000303030303033F3F0000E0
:101850003F3F33333373E3C300000C1C3830303860
:101860001F0F0000FCFEC7C3C3C78E0C00000F1F74
:10187000383030391F0F00000303C3E3733B1F0FE1
:10188000000000003F3F0000000000003CFEE7C3F6
:10189000C3E7FE3C00000F1F393030391F0F000036
:1018A0003C7EE7C3C3E7FEFC0000000030381C0E9E
:1018B00007030000183C3C18000000000000060F61
:1018C0000F0600000000F0F8DCCEC7C7CEDCF8F051
:1018D0003F3F0000000000003F3FFFFFC3C3C3C302
:1018E000C3E7FE3C3F3F3030303030391F0FFCFE45
:1018F0000703030303070E0C0F1F38303030303856
:101900001C0CFFFF030303070E1CF8F03F3F3030B1
:1019100030381C0E0703FFFFC3C3C3C3C3C3030395
:101920003F3F3030303030303030FFFFC3C3C3C3AF
:10193000C3C303033F3F0000000000000000FCFEA3
:101940000703C3C3C3C7CECC0F1F3830303030308D
:101950003F3FFFFFC0C0C0C0C0C0FFFF3F3F00000F
:10196000000000003F3F00000303FFFF03030000EF
:10197000000030303F3F3030000000000000030323
:10198000FFFF03030C1C383030381F0F0000FFFF2F
:10199000C0E0F0381C0E07033F3F000103070E1C98
:1019A0003830FFFF00000000000000003F3F3030F3
:1019B000303030303030FFFF0E1CF8F81C0EFFFFC7
:1019C0003F3F0000000000003F3FFFFF3870E0C0D5
:1019D0008000FFFF3F3F0000000103033F3FFCFE8C
:1019E000070303030307FEFC0F1F38303030303885
:1019F0001F0FFFFFC3C3C3C3C3E77E3C3F3F0000CD
:101A0000000000000000FCFE070303030307FEFCC8
:101A10000F1F383033371E1C3F33FFFFC3C3C3C310
:101A2000C3E77E3C3F3F000003070E1C38303C7E7E
:101A3000E7C3C3C3C3C78E0C0C1C383030303039F9
:101A40001F0F03030303FFFF030303030000000052
:101A50003F3F00000000FFFF000000000000FFFF0C
:101A60000F1F3830303030381F0FFFFF00000000EC
:101A70000000FFFF03070E1C38381C0E0703FFFF92
:101A8000000000000000FFFF0F1F38381F1F38380C
:101A90001F0F0F1F38F0E0E0F0381F0F3C3E070328
:101AA000010103073E3C3F7FE0C08080C0E07F3FF4
:101AB000000000013F3F0100000003030383C3E374
:101AC000733B1F0F3C3E3733313030303030000035
:101AD0000000000000000000303030303030303086
:101AE00030300000303030303070E0C00C1E3F33FA
:101AF000333333333F3FFFFFC0E070303070E0C01E
:101B00003F3F3030303030381F0FC0E07030303061
:101B1000303000000F1F3830303030381C0CC0E03F
:101B200070303070E0C0FFFF0F1F38303030303081
:101B30003F3FC0E0703030303070E0C00F1F3B33AB
:101B4000333333330303C0C0FCFEC7C303070E0C9B
:101B500000003F3F000000000000F0F89C0C0C0C5F
:101B60000C0CFCFC000133333333333B1F0FFFFFFE
:101B7000C0E070303070E0C03F3F00000000000067
:101B80003F3F00003030F3F3000000000000303031
:101B90003F3F30300000000000003030F3F3000021
:101BA0000C1C383030381F0F0000FFFF0080C0E0F1
:101BB000703000003F3F03070F1C3830000000006A
:101BC0000303FFFF00000000000030303F3F3030D3
:101BD0000000F0F03070E0E07070E0C03F3F0000C7
:101BE000030300003F3FF0F0C0E070303070E0C011
:101BF0003F3F0000000000003F3FC0E07030303049
:101C00003070E0C00F1F3830303030381F0FF0F028
:101C10003030303030F0E0C03F3F030303030303B4
:101C20000100C0E0F0303030E0C0F0F0000103030C
:101C3000030303033F3FF0F0C0E070303070E0C0BA
:101C40003F3F0000000000000000C0E0F0303030F6
:101C500030300000303133333333333F1E0C3030FB
:101C6000FFFF30300000000000000F1F3830303818
:101C70001C0CF0F0000000000000F0F00F1F3830E6
:101C800030381C0C3F3FF0F0000000000000F0F086
:101C900003070E1C38381C0E0703F0F0000000008C
:101CA0000000F0F00F1F38381C1C38381F0F307040
:101CB000E0C08080C0E0703030381C0F07070F1C78
:101CC0003830F0F0800000000000F0F00001333305
:101CD0003333333B1F0F3030303030B0F0F07030E2
:101CE00030383C3E373331303030000000000000E7
:101CF00000006F000007000700147F147F14242ADF
:101D00007F2A1223130864623649552250000503C6
:101D10000000001C2241000041221C0014083E0863
:101D20001408083E08080050300000080808080899
:101D300000606000002010080402003E49453E009B
:101D400000427F400062514946004149493600182F
:101D500014127F0027454539003E49493200017978
:101D600005030036494936000649291E000036366B
:101D700000000056360000081422411414141414F4
:101D80004122140800020151090600060909067ED5
:101D90000909097E7F494949363E414141227F4137
:101DA00041221C7F494949417F090909013E4149B6
:101DB000497A7F0808087F00417F41002040413F69
:101DC000017F081422417F404040407F020C027F87
:101DD0007F0408107F3E4141413E7F090909063ECC
:101DE0004151215E7F09192946264949493201019D
:101DF0007F01013F4040403F1F2040201F3F4030B7
:101E0000403F63140814630708700807615149458F
:101E100043007F41410002040810200041417F003F
:101E2000040201020440404040400001020400203E
:101E3000545454787F484444383844444420384407
:101E400044487F3854545418087E0901020C5252F9
:101E5000523E7F0804047800447D40002040443D09
:101E6000007F1028440000417F40007C0418047863
:101E70007C0804047838444444387C14141408085A
:101E80001414187C7C080404084854545420043F5B
:101E90004440203C4040207C1C2040201C3C4020F2
:101EA000403C44281028440C5050503C4464544C4E
:101EB00044000836410000007F0000004136080061
:101EC0000808221C08081C22080801020408102027
:101ED0004080408008042010020100008911122374
:101EE0009B322446AD573665BF74488CC19D5AAFAE
:101EF000D3BE6CCAE5DB7EE9F7F8811008019333A5
:101F00001A22A5562C47B7753E64C99C408DDBBF8D
:101F100052AEEDDA64CBFFF976E802218B30100285
:101F200099132667AF763444BD554AADC3BC588E6D
:101F3000D19F6EEBE7FA7CC8F5D983310A20911264
:101F40001803A7772E66B5543C45CBBD42ACD99E4D
:101F5000508FEFFB66EAFDD874C904428D531661B9
:101F60009F702004A9153227BB364CCEC5DF5EED2D
:101F7000D7FC6888E1997AABF3BA85520C43977124
:101F80001E60A1142805B3373A26CDDE44CFDFFD0D
:101F900056ECE9986089FBBB72AA06638F72144005
:101FA0009D512225AB343006B9174EEFC7FE5CCCED
:101FB000D5DD6AA9E3B8788AF19B87730E629550E4
:101FC0001C41A3352A24B1163807CFFF46EEDDDCCD
:101FD00054CDEBB962A8F99A708B088481951AA741
:101FE00093B62CC2A5D33EE1B7F04008C919522BD5
:101FF000DB3A644EED5F766DFF7C899400859BB77C
:1020000012A6ADD224C3BFF136E0C1184809D33BB4
:102010005A2AE55E6C4FF77D7E6C0AA583B418865C
:1020200091972EE3A7F23CC0B5D14229CB38500A94
:10203000D91B666FEF7E744CFD5D8BB502A499963B
:102040001087AFF326E2BDD034C1C3394A28D11A74
:10205000580BE77F6E6EF55C7C4D0CC685D71EE590
:1020600097F42880A1913AA3B3B2444ACD5B566954
:10207000DF78600CE91D722FFB3E8DD604C79FF5FB
:1020800016E4A9902081BBB332A2C55A4C4BD77934
:102090005E68E11C680DF33F7A2E0EE787F61CC4DC
:1020A00095D52AA1A3B03882B193466BCF7A544814
:1020B000DD59622DEB3C700EF91F8FF706E69DD4BB
:1020C00014C5ABB122A0B9923083C77B4E6AD558F4
:1020D0005C49E33D6A2CF11E780F2F860A0C0D0B2C
:1020E000102F2F072F2F2F2F2F2F8488979A111300
:1020F00014151609181B122B2C2D2E05191C1D1E2C
:102100001F2720A1222F2F00FF7D11241FBECFEFFC
:10211000D0E1DEBFCDBF11E0A0E0B1E0E0E2FEEF34
:1021200002C005900D92AA35B107D9F71FE0AAE5C4
:10213000B1E001C01D92A038B107E1F711E2CAE099
:10214000D1E204C02297FE010E94C97EC830D107A7
:10215000C9F70E94227C0C940E7F0C940000E09141
:10216000AE0594E0E99FF0011124E80FF11DE35A58
:10217000FC4F84918F5F0895853050F0883020F0B7
:102180008E3020F482E0089581E0089583E0089580
:1021900080E008952AE0829FC00111248B5E9D4F4C
:1021A000089525E0829FC00111248B5A9C4F089509
:1021B0000F93022F24FF03C00F7E9DE201C094E223
:1021C000411106C024E047E353E00E944B6914C06C
:1021D000453028F42FEF240F44E453E00BC094174C
:1021E00028F02BEF240F41E952E004C02CED240F1E
:1021F00047E556E10E9470690F9108950F93CF93C0
:10220000DF93C82FD62F022F411104C024E04CE8E1
:1022100052E00EC04A3010F086E101C081E18C0F1F
:1022200050E0202F6D2F0E94006C22E049E852E020
:102230006D2F8C2F0E944B69DF91CF910F910895E4
:102240000F931F93CF93DF93D62FC42F022F16E047
:10225000180F442339F0463141F04A3E81F441E7FA
:1022600053E005C045E852E002C04DE653E06D2F53
:10227000812FDF91CF911F910F910C94846947FFBB
:1022800004C041E20E94BD68C1952FEF2C0F45E7C5
:1022900053E06D2F812F0E947069DF91CF911F91C4
:1022A0000F910895EF92FF920F931F93CF93DF93B7
:1022B000D82F162FF42EE22EC091060281E082174D
:1022C00008F442C02C2F27FD2195203168F4042FFB
:1022D00043E552E08D2F0E947069CF3FCCF52F2D42
:1022E00041E2612F8AEF19C0253230F41C1614F434
:1022F00041EF22C04FE020C0CA339CF0C353042FEB
:102300002C2F4CE052E08D2F0E947069C0310CF4EC
:10231000D6502F2D45E2612F82E18D0F0E94BD68BE
:1023200017C0242F4DE682E18D0F0E94BD681C1658
:1023300014F44CED01C044E24C0F2F2D612F8AEFB5
:102340008D0F0E94201104C082E0281313C004C026
:10235000E11010C0C13071F42F2D40917604612F2F
:102360008AEF8D0FDF91CF911F910F91FF90EF902A
:102370000C942011DF91CF911F910F91FF90EF905E
:102380000895EF92FF920F931F93CF93DF937901FC
:1023900024E0629F8001112408561B4FD801EC9164
:1023A000F0E0442311F0EE0FFF1F9F01DC010E94BB
:1023B0000B7EE8012B81207C203C59F424E630E0A0
:1023C00040E050E00E94867EF70180818062808339
:1023D00018C0E436F10578F4660F771F881F991F3F
:1023E00023E330E040E050E00E94867ED7018C91EC
:1023F00080638C9306C02FEF30E040E050E00E94F5
:10240000867EC901DF91CF911F910F91FF90EF90D0
:102410000895DF92EF92FF920F931F93CF93DF9374
:102420001F92CDB7DEB7D82EF62E842FA22F0983A8
:1024300094E0299F8001112408561B4F50E060E072
:1024400070E0F8019381907C903821F4EE2081F0C7
:1024500041E003C0EE2089F040E09E012F5F3F4F36
:102460006A2F90E00E94C111AC0160E070E018C0DA
:10247000440F551F661F771F13C0903C89F4282F07
:1024800030E0AFEFB0E00E940B7E24E630E040E0A9
:1024900050E00E94867EBA01A90189818062898309
:1024A000F801838186FD14C009810062E5E0EE2E0B
:1024B0009A01AB016F2D8D2D0E94966A298127FD0F
:1024C0001BC046E76F2D8091830D0E94BD6814C02C
:1024D00029816F2D8D2D0E94006CF8018381807CF5
:1024E000803C61F4298127FD0BC041E46F2D809170
:1024F000830D0E94BD6804C086E703C080E201C06E
:1025000081E40F90DF91CF911F910F91FF90EF9099
:10251000DF900895873038F4E82FF0E0EE0FFF1FCA
:10252000E257F74F24C08C3050F18431C0F4482F6B
:1025300050E0DA01AA0FBB1FAC5BBE4F2D913C915E
:10254000803148F4FA01EE0FFF1FEC57FA4F8081FB
:102550009181281B390BC901880F991F0895843276
:1025600048F4E82FF0E0EE0FFF1FEA5BF74F8081A1
:1025700091810895893418F484520C94E72080E006
:1025800090E008950E941E7C8111FCCF1092B40D42
:1025900008950F931F93CF93DF938C01EB010E945B
:1025A000716824E046E553E060E082E20E948469BD
:1025B000B80180E20E94A469BE0188E20E94A46979
:1025C00066EF71E080E3DF91CF911F910F910C9442
:1025D000A4690F93262F00E045E753E060E10E94D5
:1025E00070690F910895CF93DF93D6E1C0E08D2FEE
:1025F0000E94E96DCC0FC82BD150DE30C1F78C2F73
:10260000DF91CF9108950F931F93CF93DF93082FFE
:10261000CBEFD1E01AE0499124E0602F812F0E9496
:10262000BD68155F1837B9F7DF91CF911F910F91F2
:1026300008951F93CF93DF93EC01162F0E947168CA
:10264000BE0188E10E94A469111109C048EE51E061
:1026500068E38CE10E94AA6946E553E002C040EEBF
:1026600051E024E060E086E10E948469DF91CF912F
:102670001F910C94FE6C61E00C94191370E0882398
:1026800099F090E0019725E0289FF001299FF00D37
:102690001124E60FF71FEE0FFF1FE054FB4F808160
:1026A00091818B509E4F0895FB01EE0FFF1FEE5F4F
:1026B000FE4F0190F081E02D8081992787FD909554
:1026C00008951F93CF93DF93D82F162FC4E0DD23F7
:1026D00099F0612F8D2F0E943E139C01253F81E0D0
:1026E000380764F08BE0820F8D1710F08CE0820FBA
:1026F000C15029F0D82FEBCFC0E001C0CD2F8C2FD7
:10270000DF91CF911F910895CF93C62F0E9461133F
:102710006C2FCF910C943E13EF92FF920F931F9367
:10272000CF93DF93EA019A0123583F4F7901062F97
:1027300010E0882319F10E9461138823F9F03BEF20
:10274000E316F10440F01C161D061CF4CDE7D0E0A2
:1027500002C0C3E8DFEF90E0019725E0289FF00179
:10276000299FF00D1124E00FF11FEE0FFF1FE05421
:10277000FB4FC55FD140D183C08315C08BEFE816F6
:10278000F10440F01C161D061CF4CDE7D0E002C099
:10279000C3E8DFEFF801EE0FFF1FEE5FFE4F019081
:1027A000F081E02DC08386E0DF91CF911F910F91E2
:1027B000FF90EF900C94D662AF92BF92CF92DF92CF
:1027C000EF92FF920F931F93CF93DF938C017B01C6
:1027D0006A01A22EB090DB019B2D9F7D943439F0CD
:1027E00080916C08882309F485C0933439F4E8019A
:1027F000219683E10E94157685E00BC0953419F08F
:10280000923409F07AC0E801219784E10E9415769C
:1028100084E00E94E96D811162C0E114F10401F5C8
:1028200081E0C816D104E1F480E6B81619F08EE212
:10283000B81212C010926C08C1E00115110509F020
:10284000C0E0D0E08B2D0E94386E8EE2B81207C037
:1028500081E08093A10803C0C170DD2701C0B12CC5
:102860004091730150917401C41BD50B8091A10854
:10287000833031F48091E401C80FD11D87FDDA95D2
:10288000CC16DD0644F48B2D0E94386E83E10E9445
:102890001576E6010AC0CE15DF053CF48B2D0E94AB
:1028A000386E84E10E941576E701C017D107A1F0C8
:1028B000209751F48B2D0E94286E17FF02C083E1F0
:1028C00001C084E10E9415768A2D83700E94D66231
:1028D00081E080937B0113C010927B0110C0CC2754
:1028E000DD27C01BD10B85E00E94386E84E00E947A
:1028F000386E93CF953409F486CFE8018ECFCE01A0
:10290000DF91CF911F910F91FF90EF90DF90CF90CB
:10291000BF90AF900895552747FD5095772767FDE5
:102920007095992787FD90950E94DC13089522E009
:102930000C948B14462F22E060E00C948B14462FED
:1029400050E022E060E070E00C94DC1321E00C9495
:102950008B14462F21E060E00C948B14E0917D01F4
:10296000F0E0EE0FFF1FE058FE4F80819181089547
:10297000E0917D01F0E0EE0FFF1FE258FE4F9183E2
:1029800080838FEB80937C010895E2EAF8E0108E5B
:10299000168A158A178A0895E5E5FEE037A13031D9
:1029A00080F420A541E0420F40A7DF01A20FB11D36
:1029B000A20FB11D8D939C93403108F010A63F5F8C
:1029C00037A3089590E08C5F9E4F0C94CC1490E058
:1029D0000C94CC148093E60190E040970C94CC14B6
:1029E000FC019091B90580A191FF74C091A1882349
:1029F00011F0946001C09B7F91A386A1813059F5AD
:102A0000C79A37A121A1332321F181A541E0480FC5
:102A100041A7DF01A80FB11DA80FB11D8D919C9199
:102A200095A384A3403108F011A6315037A397FD38
:102A300002C031E101C038E233A32C7F97FD226050
:102A400021A381A18BBBC7988FE182A382E086A3DB
:102A500008952BBB48C081110CC0C79A81A1836027
:102A600081A38BBB8091840D8D3308F43CC086E03C
:102A70002FC0823009F438C081A18BBBC79ABF98A0
:102A800000C0000000C086B38078BF9A96A1933042
:102A900049F4882329F083A1815083A3811123C0A5
:102AA00084E016C0943021F48823E9F083E00EC05E
:102AB000953039F483A1815083A3811114C081E042
:102AC00007C0963081F4882371F084E183A385E008
:102AD00086A309C09091B60596FB992790F98917AE
:102AE00011F0C79A0895C79808951BBA8FE18ABB61
:102AF00000C099B38FEF8ABBECEDF1E087818823AA
:102B000011F080E202C0892F807E8483292F207CEF
:102B10008081281759F08074880F90783181891747
:102B200011F0315001C03F5F318320838281938156
:102B3000891711F08383818308959091AE0590FDEC
:102B400002C093E08927E82FF0E0E456F74FE081D8
:102B5000E7FDE95FE595E595E5951E1624F0EE2382
:102B600021F0E19502C080E801C080E0E8300CF07F
:102B7000E7E0FF27E7FDF095E45CFC4FE491EE23EE
:102B800019F099E0909388018E2B0895482F833097
:102B900021F0882321F0E82F03C0E0E001C0E3E04A
:102BA000F0E0EE0FFF1FED51FA4F8081918144302C
:102BB00080F42091CB0530E002C0359527954A95E9
:102BC000E2F720FF06C020E038E0A901481B590BBE
:102BD000CA010895FF920F931F93CF93DF93F12CB7
:102BE000C0E0D0E08F2D0E94C615092F10E0C00F65
:102BF000D11FF39484E0F812F5CFCE01DF91CF918D
:102C00001F910F91FF9008950E94C6152091B00565
:102C100020FF03C09195819591090895E3EEF5E0B9
:102C200040E0842F806487B9369A3699FECF24B16C
:102C300035B1369A3699FECF84B195B1820F931F84
:102C4000819391934F5F483061F7089578941F9274
:102C50000F920FB60F9211248F9380915A018F5FBC
:102C600080935A018F910F900FBE0F901F9018956F
:102C700078941F920F920FB60F9211242F938F9377
:102C80009F93EF93FF93F89487B78F7B87BF7894D8
:102C90002091A5018091A7019091B905882359F051
:102CA00090FF07C080917D0F820F80937D0F87FF7B
:102CB00002C01B9A01C01B9891FF2AC08091800915
:102CC000811126C0E5E5FEE086A1823009F583A1E9
:102CD000882311F081501BC021A1C79A82A180FDD9
:102CE00009C02D7F84A195A196FD2260880F991FB0
:102CF00095A384A381E082278BBB81A3C79882A17F
:102D0000815082A3811104C083E086A385E083A360
:102D1000F89487B7806487BF7894FF91EF919F9173
:102D20008F912F910F900FBE0F901F901895789450
:102D30001F920F920FB60F9211242F933F934F9330
:102D40005F936F937F938F939F93AF93BF93EF9313
:102D5000FF9381B7845681BF83EA91E00E944A7451
:102D60000E94476E0E94117B8091C10D826080930A
:102D7000C10DEAE0F1E08081815011F0808304C050
:102D800084E6808381E081838281815011F0828397
:102D900004C08AE0828381E08383FF91EF91BF9139
:102DA000AF919F918F917F916F915F914F913F91E3
:102DB0002F910F900FBE0F901F90189578941F922F
:102DC0000F920FB60F9211242F933F934F935F935F
:102DD0006F937F938F939F93AF93BF93EF93FF93E3
:102DE0002091800030918100F89480917D008F7D4A
:102DF00080937D0078948091DC059091DD05A90198
:102E0000481B590BCA01969587953093DD05209391
:102E1000DC059C01215A3F402F3D3E4220F481E0D9
:102E200080935B012CC0E0915B012FEF2E0F2830C7
:102E300030F59C012152334027373540F0F424E629
:102E40002093E50121E02E0F20935B01F0E0EE0FCF
:102E5000FF1FE65AFE4F9C012C5D35404091B405A2
:102E6000465F429FC001439F900D11246AE070E0CD
:102E70000E94727E7183608302C010925B01F8949D
:102E800080917D00806280937D007894FF91EF9126
:102E9000BF91AF919F918F917F916F915F914F9172
:102EA0003F912F910F900FBE0F901F90189590E0BB
:102EB000880F991F8954914FFC01F894808191816A
:102EC0007894089584E00E9457172091C1073091AB
:102ED000C207820F931F08959C0165E035952795E1
:102EE0006A95E1F7280F391FAC01440F452F441FA5
:102EF000550B241B350B892F990F990B8595820F44
:102F0000931F08959DE7980F9B3F88F08E57E82FF9
:102F1000F0E0EE0FFF1FEE54FB4F808186171CF48C
:102F20006083862F0895481714F44083842F0895F2
:102F300044E66CE90C948217982F80910C0284FF70
:102F400003C081E0923009F080E0089549E28402F4
:102F500090011124359527953595279587FD815C3E
:102F600086FB880F880B80F9A901481B510987FD52
:102F70005395CA0108955F926F927F928F929F92AC
:102F8000AF92BF92CF92DF92EF92FF920F931F9377
:102F9000CF93DF93982E742E882309F4F0C046E176
:102FA000841721F05AEE851303C0EBC081E0EAC01C
:102FB00086E189150CF4E5C0892D87FD81958A305D
:102FC00040F4825F0E94E96D19140CF4DBC091E0BB
:102FD0001EC08A50282F30E05901AA0CBB1C850165
:102FE000020F131F0F5A1B4FF80182818F7009F4D3
:102FF000C8C0A90144535A4F6A0154E0571548F418
:10300000F6019081917019140CF4B7C081E0892702
:10301000B9C0F801608051800E94BC1081111BC0B2
:103020008FEF860D0E948A127C01F8018081853223
:103030006CF0CBED8C2E880E6181882D0E94702063
:10304000EC01882D0E945A20882E1BC0F801818136
:103050000E94A6170CC0823071F48FEF860D0E947B
:103060008A127C01F801818181500E948A12EC0150
:103070008824839406C088248394C0E0D0E0E12CA7
:10308000F12CF80182818F7090E0FC013197EE30D5
:10309000F10508F06EC0EA5BFF4F0C94C77EF7FEA7
:1030A00034C0F194E194F10830C0F7FE33C0F194DC
:1030B000E194F1082FC0D1E0D70D4D2F60E0862DAF
:1030C0000E94BB17C82F4D2F60E0852D0E94BB17B3
:1030D000982FF80122812F70253031F4CC2309F488
:1030E00048C0811144C045C0263019F4C1113FC009
:1030F00029C09C2727C091E0EC16FD06C9F422C028
:1031000091E0EC16FD06F1F413C091E0CE15DF0559
:10311000CCF00EC091E0EC16FD06A4F009C091E0E1
:10312000EC16FD067CF404C091E0CE15DF0554F4E6
:1031300090E008C0F501E657FE4F91819095991FE8
:103140009927991F8820A9F09923A1F0F80182817D
:1031500082958F7051F089300CF08F5F41E0470D00
:1031600060E00E94BB17982F05C091E003C081105A
:10317000EDCF90E0F601908346CF892F03C0862FD4
:1031800001C080E0DF91CF911F910F91FF90EF90F0
:10319000DF90CF90BF90AF909F908F907F906F9077
:1031A0005F90089540E060E080919B050E94BB170E
:1031B000811114C080916D0190916E01892B71F481
:1031C0001092750E8091840D9091E205981751F040
:1031D0008093E20585E59EE00C94F01481E08093F5
:1031E000750EF0CF089520916D0130916E0121157B
:1031F000310511F021503109882319F08091B20571
:1032000001C080E090916C01992329F09091BA055A
:10321000891708F4892F4AEF849FC0011124880F71
:10322000991F8217930708F4C90190936E01809348
:103230006D010C94D218CF92DF92EF92FF920F9310
:103240001F93CF93DF938091850D9091860D909180
:10325000E105282F291B20936F018093E10560E091
:1032600086E498E00E94C24D80916F01882309F4A2
:10327000C9C2E2EAF8E0878980FF0DC0808D91E045
:10328000980F908F943638F08356808F8589968971
:103290000196968B858B8091E501882319F08150EA
:1032A0008093E50180E00E9432630E9471680E9471
:1032B0007D6D182F482F4F70E42E5AEFE50EC09108
:1032C0000D02C43021F0C33019F4C4E001C0C8E0DD
:1032D00087E08E1508F4A1C0812F807F803209F429
:1032E0009CC0E091AE0594E0E99FF00111248E2D81
:1032F0008695E80FF11DE35AFC4F04918091CA05B1
:1033000080FF03C083E0801B082F602F809142065E
:103310000E946113F82E602F0E9484139C01C1113A
:103320000CC0EC0197FF04C0CC27DD27C81BD90BCC
:10333000D595C795D595C795CF5F023061F480913B
:103340000C0280FF5DC281E0C2E09091B00590FF69
:1033500003C0C19501C080E0DD27C7FDD095E0FE28
:1033600003C0C20FD31F04C0A9014C1B5D0BEA01AF
:10337000209721F09D2F932797FF11C081110FC037
:10338000232B69F040E050E0602F8F2D0E948C13BA
:10339000812F0E94386E86E10E9415763DC09E0105
:1033A00024583F4F293F310580F4AE01602F8F2D07
:1033B0000E948C13D7FF03C0D195C195D109D59533
:1033C000C795D595C7954C2F21C01C161D061CF41A
:1033D0004DE750E002C043E85FEF602F8F2D0E9461
:1033E0008C13CE0183589F4F8B3F9105A8F4D7FFD4
:1033F00003C0D195C195D109D7FD2396AE0155954E
:10340000479555954795519541955109445C65E11E
:1034100083EA91E00E94FF7410E0E1E7F1E080911F
:103420009A0890919B0820813181281B390B37FF26
:1034300002C0215E3F4F65E0359527956A95E1F71B
:103440002115310561F024813581281B390B37FFA7
:1034500002C02F5F3F4F35952795918380839583D9
:1034600084838091B00585FD04C08091680888231D
:1034700011F020E030E033832283CCEDD1E02D81C8
:103480008981821B8F3F09F480E087FD8F5F8595DE
:103490008887982F990F920F9D83812B0E94F31894
:1034A0008091C605895FE0917D01F0E0EE0FFF1F7E
:1034B000E258FE4F208131812556364409F044C040
:1034C00028852223B1F09E81332727FD3095290FCF
:1034D000311D97FD3A952E37310514F09DE705C053
:1034E00023389FEF39071CF493E89E8301C02E8395
:1034F0001886E09177049E2F907E31F1E295E69553
:10350000E770F0E0E430F10554F4EE0FFF1FEC56E5
:10351000F74F208131813C5F60E078E00CC0EE0F16
:10352000FF1FEE54FB4F2081332727FD3095235892
:103530003F4F6AEF70E047E0429FC001439F900D0C
:1035400011240E945E7E862F9091E60189130E94CD
:10355000EA148091B60587FF3BC0809189018823DA
:10356000B9F1809188018823A9F18091E00587FD58
:1035700003C08F5F8093E00582E00E949D15982F25
:103580009F7789F02091E005921720F51092E005D1
:10359000111120C0182F1095111F1127111F83E63C
:1035A000811B182F17C083E00E949D15982F9F77CD
:1035B00089F02091E005921768F41092E00511114E
:1035C00009C0182F1095111F1127111F1C5902C077
:1035D0001092880181E08093890100914206E09079
:1035E000E201FF24E7FCF094C3EBD4E09AE0C92E9B
:1035F000D12C6881662309F440C0653030F46150F5
:10360000802F0E948413BC012BC0653041F1E62F4E
:10361000F0E0EE0FFF1F6A3048F4EE57F74F60817D
:10362000718177FF0EC0695F7F4F0BC06D3078F4FA
:10363000EE57F74F2081318137FF02C0295F3F4F9E
:10364000B901B3E075956795BA95E1F709C0EC5AF1
:10365000F74F80819181B6010E94727E01C0B7014F
:1036600063382FEF72072CF06D3771051CF06DE792
:1036700001C063E8FE0131976083229644E0C13CBB
:10368000D40709F0B6CF8091F9019091FA01009723
:10369000B1F060E00E9419130E941E7C9091DF053A
:1036A000992339F0811125C01092FA011092F90185
:1036B00020C08823F1F081E08093DF051AC01092CA
:1036C000DF05C0917C01CC2331F010927C0187E1B1
:1036D0000E9415761C2F1093DB01E0917D01F0E034
:1036E000EE0FFF1FE258FE4F0190F081E02D812F79
:1036F00009950E94FE6CC091650083EA91E00E94EA
:103700003674882311F084E105C080917F0F8823EF
:1037100021F0815080937F0F06C0809163008695D1
:10372000817080937E0F80917E0F8093F7018823B4
:1037300009F464C08091B60585FD60C0CF7EC0935A
:1037400065008091840D8F71823009F054C08091A2
:10375000F1059091F205AC01F4E0440F551FFA9584
:10376000E1F797FD0796BC01E3E075956795EA954B
:10377000E1F720919A05332727FD30952A5F3F4FC7
:10378000629FC001639F900D729F900D1124840F62
:10379000951F2091B00526FD05C060910001709134
:1037A000010102C060EF70E00E945E7E80917001B6
:1037B000680F711D6F5F7F4F7595679560937001FE
:1037C0008091DE05805F8093DE05811114C08091B9
:1037D0009905681780F4623370F06EE281E10E940F
:1037E0001B768091B00583FF06C082E390E0909342
:1037F0006E0180936D0110926C0104C0C0619FCF77
:1038000080E0A3CDDF91CF911F910F91FF90EF90BA
:10381000DF90CF900895CF93DF93C62F2091F801CA
:10382000222339F09093FA018093F901DF91CF912F
:10383000089560E00E941913C11103C0809198059A
:1038400001C089E10E94C86C67E182E10E941B7699
:103850000E94C212D1E00E941E7C882321F0DF91D9
:10386000CF910C94C2128091C10D833019F4A895A8
:103870001092C10D40E060E080919B050E94BB1753
:10388000811106C08091B205811102C0CC2329F0BC
:10389000D093750E0E94D218DECF1092750EFACF1B
:1038A00090917D01911103C0811106C00CC081115E
:1038B00003C08FEF890F01C080E080937D018EEB04
:1038C00080937C01089560E083ED91E00C940B1CE3
:1038D000E0917D01E43028F060E086EC91E00C940A
:1038E0000B1C2FEB20937C01EF5FE0937D01F0E058
:1038F000EE0FFF1FE258FE4F9183808308951F93C0
:10390000CF93DF93C8ECD4E090E0888111E0190FE9
:10391000882341F040E060E00E94BB17882311F04B
:10392000812F05C0912F2A96143079F780E0DF911E
:10393000CF911F9108958F929F92AF92BF92CF9295
:10394000DF92EF92FF920F931F93CF93DF931F921B
:10395000CDB7DEB71092A00880915A0122B790919E
:103960005A018913F9CFE22EF12CF82A80917704BD
:103970008F7160E1D62ED81A0E940E161EE517B977
:103980000E9475150E941B1917B9369A3699FECFF9
:1039900084B195B10496409100015091010167E016
:1039A000649F9001659F300D1124820F931F53E097
:1039B000969587955A95E1F79093010180930001C0
:1039C0008091C10D833019F4A8951092C10D2091FA
:1039D0005A0182B790915A012913F9CF90E0922BA6
:1039E0008E199F0920911001309111012817390774
:1039F00020F4909311018093100180910D01882390
:103A000009F464C18091DA059091DB0501969093E9
:103A1000DB058093DA05CD2CFFE0FC1508F47AC0B5
:103A20000C2D10E04801880C991CC40188589B4F4C
:103A30004C01FC018081E82EE294E69447E0E42208
:103A4000F180F5E0FE1550F09AEF9F1538F4EF2D58
:103A5000F0E0EE0FFF1FEE53FD4FF0808F7109F481
:103A600057C040E060E00E94BB17B82E80910D0166
:103A700009511E4F823009F449C08E2D857051F4D2
:103A8000F8018081811106C0BB2021F08F2D90E0CC
:103A90000E94CC148FEF8E0D823058F4F801808193
:103AA0008130A1F5B11032C0F2E0EF122BC0F394D7
:103AB00029C085E08E1558F4F8018081811126C057
:103AC000BB2021F1F40181810E943F211FC0F2E05F
:103AD000FE15E0F4BB20D1F084E0E81631F095E06B
:103AE000E91631F066E970E005C06CE271E002C0F1
:103AF00068E572E08091DA059091DB050E945E7EB8
:103B0000892B21F48F2D90E00E94CC14F801B08213
:103B1000C39482CF91E5E92E94E0F92E0AE811E0F2
:103B2000F701C2808C2D8F700E94BC10833009F089
:103B300049C0F801A080B180A114B10479F4F70163
:103B4000A080A7FC07C0A094FA2D8AE0F8025001DB
:103B5000112423C0BB24A7FCB0941FC0B7FE1AC019
:103B60009FEFA91AB90AA114B104B9F4F701A18011
:103B7000A7FC0AC0A394FA2D8AE0F8025001112490
:103B800091E0A91AB10809C0BB24A7FCB094A09485
:103B9000B09403C0E1E0AE1AB1088C2D807F79F0BB
:103BA0008C2D82958F7089300CF08F5F40E060E043
:103BB0000E94BB17811103C0AA24AA94BA2CF80151
:103BC000B182A082F3E0EF0EF11C0E5F1F4F81E087
:103BD000023A180709F0A4CF10920D018091E80471
:103BE000882309F473C040E060E08091E9040E94FA
:103BF000BB17882309F46AC08091D905882319F07E
:103C000081508093D9058091D90581115FC0809141
:103C1000E804813081F487E20E9457178C0160919B
:103C2000EA046695669570E062307105D4F00E94F2
:103C3000727E8B0116C081E00E945717805891094F
:103C40009C012E5F3F4F2530310510F480E090E05D
:103C50002091EA0426952695289F8001299F100D22
:103C6000112401151105E9F017FF0AC011950195FE
:103C700011098091EA0480FD09C046E462E202C0B5
:103C800046E461E283EA91E00E94FF740B3411057F
:103C9000A4F00D3711059CF00F3A110594F484E05F
:103CA00013C08091EA0480FD0EC046E461E283EA1D
:103CB00091E00E94FF7484E107C088E005C086E0BF
:103CC00003C082E001C080E08093D90580910B01A0
:103CD000882309F405C180914D0F882309F44FC052
:103CE00080910702807CD9F0803819F400E911E056
:103CF00002C00AE710E00E9462176AE070E00E94CA
:103D0000727ECB012091070223FD03C025FD0E9496
:103D10003820081719071CF481E00E94157600E08E
:103D20001CED90E0E12CF12C8091860E0817B0F488
:103D3000E02FF0E0E957F14F8081E80EF11C811788
:103D400008F4182F911107C020917504821720F4F0
:103D50008DE10E94157691E00F5FE6CFC70165E027
:103D600070E00E945E7E7093020F6093010F1C3D15
:103D700031F0812F90E09093FE0E8093FD0E8091A4
:103D80004E0F882329F180912405882309F1209181
:103D9000A1042223E9F08091FF0E9091000F16E01C
:103DA000959587951A95E1F730E08217930784F08F
:103DB0008091B90581FF05C081E390E00E94CC1499
:103DC00007C046E46091A20483EA91E00E94FF7478
:103DD0002091D8052F5E822F8F7090E00C970CF009
:103DE000207F2093D805BBEF8B2EB1E09B2EF12CCA
:103DF000922F9073E92EE22FEF70CE2EF22FF07FEC
:103E0000AF2E2077B22EFD1409F461C0840103584F
:103E10001D4FF8018081982F907C9034D9F4E110E7
:103E200019C0880F880F40E060E0859585950E9455
:103E3000BB17882379F08091B90580FF05C0F40194
:103E4000E258FD4F608101C061E046E483EA91E001
:103E50000E94FF74F8018081982F907C903891F532
:103E6000880F880F859585958731E4F0992787FD20
:103E7000909547978130910541F08230910541F04E
:103E8000892B01F5B1101EC006C0C1101BC003C0B4
:103E9000F0E2AF1217C0F401E258FD4F80810E949A
:103EA0003F2110C0E1100EC040E060E00E94BB174F
:103EB000882341F0F401E258FD4F8081805890E062
:103EC0000E94CC14F39482E0880E911C9CCF109237
:103ED0000B0180918801882319F08150809388011B
:103EE0000F90DF91CF911F910F91FF90EF90DF9096
:103EF000CF90BF90AF909F908F900895282F30E083
:103F0000883058F02850310949E0429FC001439F52
:103F1000900D1124875F9B4F089545E0429FC0019B
:103F2000439F900D11248F519C4F0895CF93DF93A1
:103F3000D82F9091BF0DC92FC17090FF03C065EEBF
:103F40007FE002C063ED7FE088E10E94A469D13682
:103F500029F41092BF0D80E00E94501CC11109C0CD
:103F60004091BB0E5091BC0E24E060E388E40E94B7
:103F7000006C80910A09815080930A09811105C063
:103F800081E0DF91CF910C941576DF91CF91089568
:103F9000813649F40E94386E81E00E94501C86E30D
:103FA0009FE40E94681C65EA70E180E10E94A469B8
:103FB0006FE870E180E20C94A4691F93CF93DF93C4
:103FC000182FD62FC42FB9010E94A469DD2329F030
:103FD0006FE08C2F0E949A14C82F80910C024C2FF6
:103FE00083FF02C0440FD06250E02D2F612F80E686
:103FF0000E94006C8C2FDF91CF911F910895FF924A
:104000000F931F93CF93DF93182FF62E0AE08AE0C9
:10401000189FE0011124CB5EDD4F2FE130E0211B22
:104020003109029FA001039F500D1124BE01CE0152
:104030000A960E94DC7EFF2049F0BE016A50710999
:104040004AE050E0CE010E94DC7E0AC0FE011192DF
:104050000A95E9F7809118098883898384E68A8321
:1040600010931A09DF91CF911F910F91FF9008953E
:104070009C01220F331F280F391F95958795959521
:104080008795280F391F95958795959587959595CF
:104090008795820F931F0895429643E7489F9001AA
:1040A000499F300D1124C901E6E095958795EA9561
:1040B000E1F70895E82FF0E0E55CFA4EE491EE2395
:1040C00069F0E13021F480914E0F811107C081E049
:1040D00090914D0F911103C080E0089581E0089503
:1040E000E82FFF27E7FDF095E25DF94EE491262FDA
:1040F000332727FD3095C90183589F4FEC3009F4D1
:104100004AC09CF4E43021F14CF4E53F09F454C07A
:104110000CF45CC0EE5FE230C8F00895E630C1F008
:104120000CF454C0EA30FCF50895E43209F43FC0C1
:1041300044F4EE300CF44AC0E031CCF1E332C9F182
:104140000895E732B4F1E732E9F108952AE024C096
:10415000803491059CF0880F991F80549109813C0F
:10416000910564F0880F991F805C9109813C51E0B2
:10417000950724F0880F991F885E91402AE0AC01D2
:10418000249FC001259F900D11242091070225FF37
:104190001DC00C94382024E6AC01249FC001259F4B
:1041A000900D11240895C901815A9F4F089522E36B
:1041B000F3CF880F991F0895F3E0880F991FFA95A0
:1041C000E1F708955AE06502C00111240895CF93E4
:1041D000DF93E82FFF27E7FDF095E25DF94E84912C
:1041E000853FC9F486E20E945717EC0180E20E94E5
:1041F0005717D595C7959C0135952795C29FC00146
:10420000C39F900DD29F900D112469E170E00E9430
:10421000727ECB0131C08D3F54F4E82FEE0FFF0BBF
:10422000EA53FB4F8081992787FD909525C08F3FEA
:1042300009F044F48E3F84F48D3FD1F480917001F5
:1042400090E01AC0843081F0833291F483E20E94BE
:104250005717880F991F10C0E82FEE0FFF0BEA5574
:10426000F74F8389948908C0DF91CF910C9462172E
:10427000DF91CF910C945717DF91CF910895CF9292
:10428000DF92EF92FF920F931F93CF93DF931F92D2
:10429000CDB7DEB7082F19820E94E7207C01802F5E
:1042A0000E945A20811105C08AE30E94E71411E0A0
:1042B00001C010E0E02FFF27E7FDF095E25DF94E29
:1042C0006491643009F464C0CCF46D3F09F49EC07D
:1042D0007CF4653F09F48FC00CF481C0E62FEE0F2B
:1042E000FF0BEA53FB4FE080FF24E7FCF09477C01C
:1042F0006F3FF1F0ECF0623054F171C0633209F4B9
:104300008AC054F46A300CF46AC06C300CF46AC091
:10431000603209F47DC063C0673209F46FC024F4D1
:1043200065320CF073C05BC06C3209F450C057C0EA
:104330006CE370E0C7010E94727E6B017C0146E273
:1043400060E0C6010E94247660E045E36BC084E033
:104350006802F0011124E856FB4F0381029506958F
:1043600006950370D08041E0023009F040E09E01E4
:104370002F5F3F4FC7010E94C1117C01033009F438
:1043800047C0013061F183E68D1508F044C03EC09E
:1043900090910702892F807293FF03C0882349F010
:1043A00006C0882331F0C7010E9438207C0148E113
:1043B00001C048E388EEE81683E0F8067CF1C70107
:1043C0006AE070E00E94727E7B0160E02BC0809109
:1043D000070285FF04C0C7010E9438207C0160E00D
:1043E00040E020C08091070285FF1AC0C7010E94EB
:1043F0004C207C0115C060E04BE314C0C7016AE0AB
:1044000070E00E94727E7B0161E0EACF61E004C04F
:1044100061E043E307C062E044E204C061E002C03F
:1044200060E04FE2111103C0C7010E9424760F9093
:10443000DF91CF911F910F91FF90EF90DF90CF9080
:1044400008959F92AF92BF92CF92DF92EF92FF9228
:104450000F931F93CF93DF93C82EB62EF42EE9014E
:10446000102FAE2C8E2D8170982EE0FE15C000E02E
:1044700021E0240F47E556E18C2D0E94706912FD62
:1044800004C0E8E1DE2EDC0C08C07CE1D72EDC0C99
:1044900088EFB80E0CE002C0DC2C06E08A2D887094
:1044A000E82EA3FC1F7BEF2DFF27E7FDF095E25DD3
:1044B000F94EF49086E0F81609F475C08F15C4F033
:1044C0008FEF8F1564F08EEFF816CCF585EFF816A8
:1044D00009F4A4C08DEFF81609F482C084C081E00D
:1044E0008F150CF042C084E0F81609F45CC07BC064
:1044F00083E2F81609F472C08F1574F08AE0F8169A
:104500000CF471C08BE08F150CF042C080E2F81201
:104510006AC0106201E468C085E2F8160CF463C05A
:1045200086E28F150CF05CC087E2F8125CC0106266
:10453000CE016AE070E00E94727EEB0154C012FD71
:1045400002C08CEFD80E992011F08AE0D80E1770B7
:10455000012F212FAE016B2D8AEF8D0D0E94A66BCE
:1045600003E30F0D8AEFC80E48C0912F90684C2FBF
:10457000EE2019F08DE38C0D02C08D2D801BEE24F2
:10458000E394092F2F2D6B2D0E940912082F35C09F
:104590008091070285FF44C0CE010E944C20EC01AF
:1045A000D01A06E421C08091070285FF07C083FD71
:1045B00007C0CE010E943820EC0102C00DE601C008
:1045C00006E6C83E83E0D80714F410620DC0CE01A1
:1045D0006AE070E00E94727EEB0106C0106301C0C9
:1045E000106206E701C000E2EE20E1F08DE38C0DE1
:1045F000212FAE016B2D0E94006C8A2D8670A1F0D8
:10460000A2FE04C08AE08C0D1B7F02C08091830D46
:10461000212F402F6B2D0E94BD6806C007E7E4CF15
:1046200003E4E2CF8D2DE4CF802FDF91CF911F9156
:104630000F91FF90EF90DF90CF90BF90AF909F9041
:1046400008950F931F93CF93DF93C82FD62F042F76
:10465000122F43E854E10E94846940E3400F212F68
:104660006D2F8CE08C0FDF91CF911F910F910C94E7
:10467000BD68DF92EF92FF920F931F93CF93DF936A
:10468000182FF62EC42FD22EDE2DD370A1F08091DC
:10469000DB01803881F48DE7840F8B3F40F0E42FFD
:1046A000F0E0EE0FFF1FEA54FC4FC08101C0CEE7DF
:1046B00082E00E94D6628DE78C0F2E2D8B3FA0F0FA
:1046C00043E84C0F6F2D8EEE810F0E942123DD23D6
:1046D00009F122E042E850E06EE770E08C2F90E0B4
:1046E0000E94DC13C82F16C04C2F552747FD50954C
:1046F0006F2D812F0E94006CDD2361F0402F6D2D06
:104700008C2FDF91CF911F910F91FF90EF90DF9051
:104710000C9497148C2FDF91CF911F910F91FF90E4
:10472000EF90DF900895CF93DF939EE0899FE001A3
:104730001124CB55DC4F40E060E08C850E94BB1714
:10474000882349F040E060E08D850E94BB1781110D
:1047500004C081E003C080E001C082E0DF91CF911E
:104760000895EF92FF920F931F93CF93DF93F82E4C
:10477000E62EC42FD42FD695062F0D1B182F1D1BE8
:10478000602F812F0E944F6A6D2F6E0D4C2F812F4D
:104790000E944C6A4C2F602F8D2F8F0D0E944F6A04
:1047A0004C2F602F812FDF91CF911F910F91FF90A0
:1047B000EF900C944C6A21E0AC0160E080E00C9436
:1047C00084690F931F93CF93DF93182FC2EAD8E029
:1047D00087E09AE00E94DB23113678F0133628F048
:1047E000133659F487EB94E202C085E696E4DF9134
:1047F000CF911F910F910C94B8146EEF79E088E07F
:104800000E94A4694A815B8100E020E068E08AE2BE
:104810000E94A66B4C815D8120E068E08EE40E94DE
:10482000A66B65EF79E080E10E94A4694E815F810B
:1048300020E060E18AE20E94A66B48855985B4E0D9
:1048400056954795BA95E1F720E060E18EE40E9425
:10485000A66B60EF79E080E00E94A46948815981ED
:1048600020E060E08EE40E94A66B4EE76CE382E0FD
:104870000E944C6A43E26CE185E00E944F6ACBE003
:1048800043E06BE38C2F0E944F6ACA5FC338C1F7C5
:104890001091C4078091C307893710F4C0E001C0AC
:1048A000C12FD6E00CE3EC2FF0E0EB53F84F408142
:1048B000602F641B8D2F0E944F6ACF5FC83708F0AE
:1048C000C0E0C11719F0DF5FDE3769F7DF91CF91E4
:1048D0001F910F91089591E0211101C090E04423B0
:1048E00019F04DE653E002C041E753E0292F0C9444
:1048F00084690F9301E0211101C000E0242F4BE7F0
:1049000054E10E9470690F910895893621E0920761
:104910001CF08856914004C097FF02C088599E4FF2
:104920006FE070E00E94727ECB0108950E948524A2
:104930008F5B9E4FFC01808108950E948524885DD5
:104940009E4FFC01808108950F931F93CF93DF93B7
:10495000182FEA01022F0E94A469202FAE01612FB7
:1049600084E5DF91CF911F910F910C94006C1F9300
:10497000CF93DF93182FCEE0D1E085E59AE00E9437
:10498000DB231136A1F058F41036C1F48FEF888381
:1049900019821B821A8287E10E9415760FC0123697
:1049A00019F0133621F00AC081EE93E202C085E6C9
:1049B00096E4DF91CF911F910C94B81449814695EC
:1049C00050E020E066E47AE088E00E94A424488178
:1049D000469550E020E067E37AE080E10E94A4245D
:1049E000498150E08881481B510957FF02C04F5F41
:1049F0005F4F5595479520E068E27AE088E10E9494
:104A0000A4248A819B8129E1289FA001299F500D20
:104A10001124569547955695479520E36FE17AE026
:104A200080E20E94A4246CE07AE088E3DF91CF91D9
:104A30001F910C94A4697F928F929F92AF92BF9224
:104A4000CF92DF92EF92FF920F931F93CF93DF935A
:104A5000EC01162FD42E4901B090450840919608DC
:104A6000509197082091980830919908E1E7F1E07A
:104A700086819781841B950B97FDCF96A6E095952F
:104A80008795AA95E1F7682F8093690880859185BD
:104A9000821B930B97FDCF9676E0959587957A9537
:104AA000E1F7982F80936708662311F057834683B8
:104AB000992311F03187208780916808811104C003
:104AC0008091B00585FF06C01092690810926708B2
:104AD0001092680820916908211108C08091670828
:104AE000811104C082819381892B61F08091B2058C
:104AF0003AEF839FC0011124880F991F90936E0194
:104B000080936D0181149104B1F1888181119EC15E
:104B10008091A108882309F4A4C1813009F4B3C1AC
:104B20002111B8C1153609F4D8C1143609F4DFC112
:104B3000772473948091A108811102C092E0792EAC
:104B4000402F50E0272D60E08FE70E94006C0A3074
:104B500008F485C10FE6272D4FE260E0802F0E9408
:104B6000BD684D2D50E04F5F5F4F272D60E08FEF08
:104B7000800F0E94006CE114F10451F098818C2D9B
:104B80009C1508F4892FF701E80FF11DE49101C08D
:104B9000E0E08091A108813081F58091E401181650
:104BA0006CF4BE1610F4B39411F588818A1518F4CC
:104BB0008F5F888301C01882B12C19C08823B9F097
:104BC000B11014C08881882319F08150888301C0F6
:104BD000A882E114F10459F098818C2D9C1508F4F9
:104BE000892FF701E80FF11DB49001C0BA9410921B
:104BF000E4011E3249F483E005C0833029F41E32FB
:104C000019F481E08093A108E114F10451F0988136
:104C10008C2D9C1508F4892FF701E80FF11D549194
:104C200001C050E080916C08811145C080916708F7
:104C3000882301F14881481B47FD40E08A2D90E020
:104C4000242F332727FD3095281739070CF04A2DDC
:104C50004883E114F10459F0C41608F44C2DF7010F
:104C6000E40FF11DE491EB1518F4BE2E01C0B12C38
:104C70001092670828812223F1F080916908882327
:104C8000D1F0B81AB7FCB12C8B2D992787FD9095E0
:104C9000E114F10479F03C2D2C1508F4322FF701C2
:104CA000E30FF11DE4912E2F30E0821793071CF0E3
:104CB000BE2E01C0B12C103669F190F4123409F403
:104CC00073C028F41132A9F11E3221F197C01434B7
:104CD00009F446C008F476C0153409F451C08EC0FA
:104CE000153609F451C040F4133609F46EC0D8F5F6
:104CF000123609F45CC082C01E38C1F01F3B31F08F
:104D0000113809F07BC010926C0821C018821092F3
:104D10006C0838C08881882309F470C081E09091C4
:104D20006C08911180E080936C0868C08EE80E9446
:104D3000386E80916C08882319F010926C085EC060
:104D40008881882311F0892831F41092A10880E02D
:104D50000E94501C53C087E10E94157618824EC0F5
:104D6000B51609F44BC0EF2809F448C080916C08CF
:104D7000811144C0B51610F4B39411C0B12C0FC00A
:104D8000B11002C0B12C3AC0EF28C1F180916C087B
:104D9000811134C0BB2011F0BA9401C0B52E552347
:104DA00069F11092DB012AC088818A1539F180915E
:104DB0006C08811123C088818A1510F48F5F0DC0A3
:104DC00018820EC088818823C9F080916C088111F7
:104DD00015C08881882319F08150888301C0A8827A
:104DE000E114F10479F288818C1508F4C82EF701DA
:104DF000EC0DF11DE490EB1408F4BE2C20916C082E
:104E000021110AC031E08091730190917401892BC6
:104E100009F430E0832F01C081E080936B08B092E9
:104E20004508222311F082E001C081E080936608EA
:104E3000DF91CF911F910F91FF90EF90DF90CF9076
:104E4000BF90AF909F908F907F90089580916C0855
:104E5000811103C081E08093A108712C6BCE05E71E
:104E60007ACE8091E401181624F0882319F015E613
:104E700001C014E61092E4011E3209F051CE81E027
:104E80008093A10805C01E3209F04ACE1092A108F5
:104E900010E046CE80916C08811144CEED2DE21BCE
:104EA000E7FDE0E0202F30E08E2F992787FD9095D9
:104EB0008217930714F0EFEFE00FFF27E7FDF0955F
:104EC0008D2D90E0E817F90729F0EE0FFF1FE80D90
:104ED000F91D1EC01092690825CED11001C0D02E38
:104EE000F401ED0DF11DED0DF11D329711C02D2DC9
:104EF00030E0802F90E00197281739071CF411E06B
:104F00001D0D01C010E0810E911C810E911CF40159
:104F100085919491DF91CF911F910F91FF90EF9028
:104F2000DF90CF90BF90AF909F908F907F900C9428
:104F3000B814AF92CF92EF92FF920F93AE2CC12C88
:104F4000E12CF12C0E941B250F91FF90EF90CF9048
:104F5000AF900895CF92DF92EF92FF920F931F933D
:104F6000CF93DF93C82F8CEE9CE00E94DB23EE24CE
:104F7000E39406E02CEC34E144E06C2F82E099E00D
:104F80000E9499271091020910928901D0E0C0E097
:104F9000C12C04E0D02EE12CF12C41E46D2F88E1EE
:104FA0000E94486941E34C0F6D2F8EE10E944869D1
:104FB0008C2F0E94C615AC016D2F8AE20E94AD694C
:104FC000C43028F48C2F0E94AF10815003C0C7302A
:104FD000B9F08C2FE82FF0E0EE0FFF1FE257F74FEC
:104FE000A081B18124E630E00E941A7EA7019601DB
:104FF0000E94A87EA9016D2F8AE50E942A6C0BC031
:10500000113021F440916608406201C040E26D2FEA
:105010008AE50E94256CCF5FD85FC83009F0BDCF0C
:1050200068EE7CE088E20E94A46940910001509102
:10503000010160E388E70E942A6C113071F410933B
:10504000680880916C08882341F04FE761E88091FF
:105050009A050E94A61480939A05DF91CF911F9123
:105060000F91FF90EF90DF90CF900895EF920F9304
:10507000CF93C82F83EB9CE00E94DB23E12C06E05A
:105080002CEC34E142E06C2F80E099E00E949927FB
:105090006BEE77E080E10E94A4696EE178E088E140
:1050A0000E94A4696DE078E080E20E94A4696EEF3E
:1050B00077E088E20E94A46968ED77E080E3CF9111
:1050C0000F91EF900C94A4692F923F924F925F92B0
:1050D0006F927F928F929F92AF92BF92CF92DF9208
:1050E000EF92FF920F931F93CF93DF9300D000D0E6
:1050F00000D0CDB7DEB7D82E8FE394E10E94DB233A
:1051000067E0A62E76E0C72EE8E3EE2EE4E1FE2E61
:105110000CE028ED34E149E06D2D82E199E00E9438
:105120001B2570901209109145088EED8D0D84306D
:1051300028F480916C0881110E94167C20916608E9
:105140002A8362E374E188E00E94A46980910702E7
:1051500083FB882780F931E0731212C0111110C04F
:1051600061E00E949A14982F91702091070290FBA1
:1051700023F920930702913029F41092A60402C06B
:1051800000E001C001E0282F46E254E168E084E23B
:105190000E9470698091A60491E079120EC01130CE
:1051A00061F461E00E949A148093A6049091070232
:1051B00093FF05C01092A60402C000E001C001E008
:1051C000282F4AE154E168E088E40E9470698091E8
:1051D000070285FB882780F9E1E07E120DC01230BE
:1051E00059F461E00E949A149091070280FB95F9AE
:1051F0009093070201E001C000E0282F42E154E152
:1052000068E08CE60E94706928E934E03E832D83D3
:1052100035E3832E3FE0932E31E3398342E0642E61
:1052200050E1F52E8A8180688C8367E074E18F2DD0
:105230000E94A469998191539B8349816F2D86E0D7
:105240000E944869761004C0111102C00C8101C08F
:1052500000E8E12C2B81ED81FE8140816F2D80E6FD
:105260000E940912EE24E39400E82B81F4014081AE
:105270006F2D8EE70E940912761002C0113011F0D6
:1052800000E001C00A81ED81FE81238122952695EF
:105290002695237041E054E16F2D80E60E947069ED
:1052A000761027C080916B08882319F11123B9F07B
:1052B0001130F9F4ED81FE81838163E0829586955A
:1052C000869583700E949A148295880F880F807C3F
:1052D000ED81FE8193819F73982B93830AC0ED81AA
:1052E000FE8180816FEF90E00E949F14ED81FE812E
:1052F000808344244394460C28E0522E5F0CAD80FA
:10530000BE80C12CD12CED81FE818381982F9F70AE
:10531000492F50E09601220F331F02C05595479543
:105320002A95E2F7F42FF3702F2E8295837090E088
:105330000C2C02C0959587950A94E2F7282F2170CE
:10534000322E741411F0E12C01C0EA8020E04CEF01
:1053500053E1652D84E00E948469112311F000E07F
:1053600001C00E2D222D4CEC55E1652D84E20E94EA
:105370007069113011F000E001C00E2D232D48EFAF
:1053800053E1652D82E40E947069123019F40E2DEC
:10539000006801C000E83FEFA31AB30AEE24E394CB
:1053A0002B81ED81FE81EC0DFD1D4181652D80E697
:1053B0000E940912741052C080916B08882309F46E
:1053C0004DC0113049F160F0123009F047C0F501CD
:1053D00080816FEF90E00E949F14F50180833EC0B2
:1053E00063E0822D0E949A14ED81FE812381C11415
:1053F000D10439F0F4E08F9FC0011124922F9370F3
:1054000002C0922F9C70982B9F70ED81FE8183814A
:10541000807F892B838322C061E0832D0E949A14B0
:10542000ED81FE81238122952370C114D10429F0DE
:10543000982F990F2D7F922B03C0922F9E7F982B30
:1054400093709295907FED81FE8183818F7C892B73
:10545000838380917B0181110E94167C4394F8E044
:105460005F0E2FEFC21AD20A32E0C316D10409F040
:105470004ACF83E0680E98E1F90EE981EF5FE98396
:105480002D813E812C5F3F4F3E832D8336E0830E7E
:10549000911C6F12CACE26960FB6F894DEBF0FBECF
:1054A000CDBFDF91CF911F910F91FF90EF90DF90D3
:1054B000CF90BF90AF909F908F907F906F905F90B4
:1054C0004F903F902F9008958F929F92AF92BF92EE
:1054D000CF92DF92EF92FF920F931F93CF93DF93C0
:1054E000C82F87E193E10E94DB23F7E0AF2ECC24A5
:1054F000C394A5E1EA2EA3E1FA2E0CE028ED34E1F5
:105500004BE06C2F80E199E00E941B25A0901009D0
:1055100080904508B3EBEB2EB4E0FB2EC2EBD4E059
:10552000CC24C394D12C18E0B12C62E173E1812F1B
:105530000E94A46940E34C0D612F8CE00E944869F1
:10554000912CAC14BD0459F4891009C0009166086F
:10555000002331F080916C08811104C001C000E08B
:1055600080E001C081E0911012C0882339F06CE125
:10557000F70180810E949A14F7018083F70120814E
:1055800049EB52E1612F88E40E94706911C08823C1
:1055900031F04DE763E888810E9497148883488141
:1055A000552747FD5095202F612F8CE60E94006CF7
:1055B0009394F2E09F12C5CF185F82E0E80EF11CD1
:1055C0002296EFEFCE1ADE0A103409F0AECFDF914B
:1055D000CF911F910F91FF90EF90DF90CF90BF90F0
:1055E000AF909F908F9008958F929F92AF92BF92AD
:1055F000CF92DF92EF92FF920F931F93CF93DF939F
:10560000D82E8BEA9CE00E94DB2346E0A42E55E0D6
:10561000C52E65EAE62E6CE0F62E06E02CEC34E1B1
:1056200041E06D2D8FEF98E00E941B25C090FF0890
:10563000909045088091630081FF04C06EE97CE092
:1056400088E1F4C0CA94C4EAD5E0B12C10E1AA24E0
:10565000A394AB0C20E04A2D612F80E00E94D8106B
:10566000F12CCB1005C09F1003C00091660801C04B
:1056700000E0802F8270882E92E0F91609F444C071
:10568000E3E0FE1609F455C0F1E0E980FF16D1F021
:10569000E294E694E69433E0E3222E2D43E95CE0C5
:1056A000612F88E10E947069882009F45AC062E085
:1056B0008E2D0E94A9148295880F880F807C998175
:1056C0009F731FC0EE0CEE0CE594E5948E2D9DE0CB
:1056D0008902F0011124F7FD3396AF0155954795E6
:1056E00055954795202F612F82E40E94006C8820F9
:1056F000C1F14FE161EE8E2D0E94A6148F73998146
:10570000907C982B99832DC0E880EE2DE770EE2ECB
:105710002E2F45E85CE0612F88E40E9470698820A4
:1057200001F163E08E2D0E94A91487709881987F03
:1057300016C0E880E594E594E594202F4E2D612F66
:105740008AE50E942011882061F04FE061EF8E2DE4
:105750000E94A614880F880F880F98819770982B45
:105760009883F394F4E0FF127CCF185F2296AF1673
:1057700011F0BA2C6CCF6AE77CE080E30E94A46948
:1057800084E0C8120AC048E266EF8091B4050E9426
:10579000A6148093B40521E201C020E24091B40533
:1057A000552747FD5095465F5F4F60E38EE40E94AA
:1057B000006CEE24E39495E0C912E12C2E2D46E70F
:1057C0005CE068E380E00E9484690CE511E0CCE9CC
:1057D000D5E090E3F92EF801419151918F01699143
:1057E0007991461B570B440F551F20E268E38F2D1C
:1057F0000E94006CF8E1FF0E80E9F812ECCFEE2079
:1058000091F090E6D9120FC088E0ECE5F1E0ACE948
:10581000B5E001900D928A95E1F781E00E94D66291
:1058200087E10E94157666E67CE088E0DF91CF9103
:105830001F910F91FF90EF90DF90CF90BF90AF90AE
:105840009F908F900C94A4691F93CF93DF93C82FE0
:10585000D62F142F47E16CE20E94B12343E06BE2A4
:105860008C2F0E944F6A43E06CE28FEF8C0F0E94F6
:105870004C6A812F69EF0E94507E282F245D8D2F66
:1058800067E00E94507E45E0622F8C0FDF91CF9140
:105890001F910C94B123CF92DF92EF92FF920F935E
:1058A0001F93CF93DF93CCE9D8E0498168818AE2E6
:1058B0000E94242C4A816B8186E50E94242CCEE82C
:1058C000D8E028967AE3F72E0DE510E0E7E3CE2E38
:1058D000899199919C5FB8010E94727EDD24D394D6
:1058E000D60EEC2CE61A4D2D6E2D8F2D0E944F6A90
:1058F0004D2D6E2D81E08F0D0E944F6A4D2D6E2D26
:1059000082E08F0D0E944F6A85E0F80E89E4F8125C
:10591000DFCFDF91CF911F910F91FF90EF90DF903C
:10592000CF900895DF92EF92FF920F931F93CF9342
:10593000DF93F82E81E29DE00E94DB23EE24E394C6
:1059400006E02CEC34E145E06F2D83E099E00E9405
:10595000992710920309CDEBD8E010E0812F0E9427
:10596000C6154E855F85841795070CF4AC015F87DB
:105970004E874C8D5D8D481759070CF4AC015D8F37
:105980004C8F143060F02E853F85240F351F37FF74
:1059900002C02F5F3F4F35952795398328831F5FBE
:1059A00022961730D9F68091E7088093680890E234
:1059B000F91621F08FEBF8120EC00BC08F5F8093A9
:1059C000E708833041F487E10E94157681E00E9468
:1059D000D6621092E7088091E708813089F050F094
:1059E000823009F072C010928901EBECF8E0CBE64E
:1059F000D5E01FC060E17DE088E10E94A46965C038
:105A0000CDEBD8E0D12C18E9E12E1AE3F12E08E60F
:105A100015ECFF86EE861D8F0C8F8D2D0E94C6150E
:105A200089939993D39497E0D912F3CF62E07DE004
:105A300043C061917191848595859B01281B390B29
:105A400037FF03C0319521953109233331053CF1EE
:105A5000DF0150974D915C91598348839A01261B31
:105A6000370BB90137FF02C0615C7F4FB6E0759517
:105A70006795BA95E1F7261B370B3F872E87841B66
:105A8000950B9C0197FF02C0215C3F4FA6E0359526
:105A90002795AA95E1F7821B930B9D8F8C8F2296F9
:105AA00088E0E93DF80729F60E94A86190939605E1
:105AB0008093950560EF7CE080E10E94A46946E850
:105AC00054E168E182E10E94AA69DF91CF911F91C0
:105AD0000F91FF90EF90DF900C944B2CFF920F935F
