:100000000C94A4120C94D3120C94D3120C94D3120B
:100010000C94D3120C94D3120C94D3120C94D312CC
:100020000C94D3120C94D3120C94A3170C94E97D66
:100030000C94BC800C941A7E0C94D3120C94061869
:100040000C9491170C94D3120C94A2870C94CD8528
:100050000C94D3120C94D3120C94D3120C94D3128C
:100060000C9438810C9451180C94837E0C947D81EF
:100070000C94D3120C94D3120C94D3120C94D3126C
:100080000C94D3120C94D3120C94D312EB19F019D4
:10009000B619BC19C219C219C219E119E619EB192E
:1000A000F019F519FA19001ABF1AC41A891A8F1A09
:1000B000951A951A951AB51ABA1ABF1AC41AC91AF6
:1000C000CE1AD41AE348A348AE48BD48C348C7482F
:1000D000CC487F548254855488548B548E54915408
:1000E000945497549A549D54A054A354A654A9547C
:1000F000AC54AF54B254B554B854BB54BE54C154AC
:10010000C454E359F7593C5A525A5B5A645A755AC7
:10011000915AAE5A945DAA5DB85DCD5DDB5DEA5D36
:10012000FC5D225E4B5E595E985EBE5EDC5EEA5E02
:10013000F85E065FB379A2799579A479A879AC794C
:100140009879B079BC79AE82B082B382B882CB8222
:10015000DC82EC82F78209831B83208339833C8312
:1001600040834283448349834D8359835D83658300
:100170006C8370837283768378837A837C838083B5
:10018000848389838E83938398839D8305A84CCD34
:10019000B2D44EB93836A9020C50B9918688083CC1
:1001A000A6AAAA2ABE000000803F204F6C642056F9
:1001B000657273696F6E20454550524F4D20202067
:1001C000434845434B2053455454494E47532F43CE
:1001D000414C494200416C61726D73204469736106
:1001E000626C656400537769746368205761726E4E
:1001F000696E6700506C6561736520526573657444
:10020000205377697463686573005468726F7474FF
:100210006C65206E6F742069646C6500526573654F
:1002200074207468726F74746C6500454550524F49
:100230004D206C6F77206D656D004C4F4144494EE9
:1002400047006D537461636B206F666C6F77006D50
:10025000537461636B2075666C6F77004D45535323
:1002600041474500707265737320616E79204B655C
:100270007900507265737320616E79206B65792007
:10028000746F20736B697000032D2D2D783E3078CC
:100290003C307C787C663E30663C307C667C6331EA
:1002A000206332206333206334206335206336209B
:1002B0006337206338206339206331306331316321
:1002C00031326331336331346331356331360003A6
:1002D0004F4646414253525573525525454C73453E
:1002E0004C25544873544825414C73414C2550319A
:1002F00020503125503220503225503320503325A4
:10030000002D2D2D004348002D2D2D2000045031AF
:100310002020503220205033202048414C46465562
:100320004C4C435943314359433243594333505062
:100330004D3150504D3250504D3350504D3450503F
:100340004D3550504D3650504D3750504D38434834
:100350003120434832204348332043483420434827
:100360003520434836204348372043483820434807
:1003700039204348313043483131434831324348D2
:1003800031334348313443483135434831363350B3
:100390004F53475631204756322047563320475651
:1003A0003420475635204756362047563720544884
:1003B0004953002D2D2D2D00000064281007030146
:1003C0000452554420454C45205448522041494C44
:1003D000200020414C45525400000102030002015C
:1003E0000303010200030201004F4E20004F464666
:1003F0000003544852525544454C45494430494401
:100400003149443241494C47454154524E5357318A
:100410005357325357335357345357355357365333
:1004200057375357385357395357415357425357F8
:1004300043535744535745535746535747535748C9
:10044000535749001B1E272D36394B4E636C72786B
:10045000878D939CB1B4C6C9D2D8E1E453706C6166
:1004600073680080400000000000000000000000F1
:10047000000000000000000000000000000000007C
:10048000000000000000000000000000000000006C
:10049000000000000000000000000000000000005C
:1004A000000000000000000000000000000000004C
:1004B00080C0E0E0F0F8F8FCFCFCF8F8F8F0400050
:1004C00000000000808080000000000000000000AC
:1004D0000000000000000000000080C0C0E0E0E07C
:1004E000F0F0F0E0C00000000000C0F8FFFF9F87C0
:1004F00083838383838383838383838383838383CC
:10050000838383838383038380838383838383833E
:1005100083838383838383838383838383838383AB
:10052000C3E3733F1F0000000080E0F0F8FCFEFF13
:10053000FFFFFF7F3F1F1F0F0783C3E1E1E0E0C024
:10054000000E1F3F7F7FFFF3E0E08000000000000F
:10055000000000000080F0FCFEFFFFFFFF7F3F0F68
:100560000301010100000080F0FEFFFFC7C1C1C10F
:10057000C1C1C1C1C1C1C1C1C1C1C1C1C1C1C1C16B
:10058000C1C1C101C1F0FEFF3F0F070F0D0D0D1DD1
:10059000191919193131313171616161E1C1C1C17B
:1005A0008100000080E0F8FCFFFFFFFF2F170F0322
:1005B0008180C0E0F0F8FCFEFFFFFFFFFFFF7F013E
:1005C0000000000000000001010307070E1E1C3898
:1005D00070E0F0F8FEFFFF7F1F0F03000100000036
:1005E000000000000000000000000000000000000B
:1005F00000000000000000000000000000000000FB
:1006000000000000000000000000000000000000EA
:1006100000000000000000000000000000000000DA
:100620000000007EFFFFFFFFFFFFFBF8FCFCFEFF6A
:100630007F3F1F0F07C3FFFFFFFFFFFF7F07000084
:10064000000000000000000000000000C0E0F8FE14
:10065000FFFF7F1F0F1F3D7CF8F8F0E080000000D7
:10066000000000000000000000000000000000008A
:10067000000000000000000000000000000000007A
:10068000000000000000000000000000000000006A
:10069000000000000000000000000000000000005A
:1006A0000000000000010101010103070707030129
:1006B000000000E0FCFFFFFFFFFF1F030000000041
:1006C00000000000000000C0F078DE2713090E07CC
:1006D00003000000000000000001030F7FFFFC7812
:1006E00078F800000000000000000000008080801A
:1006F00080808080808000808000808000000000FA
:100700000000008080808080808080808080808069
:100710008080808080000000000000000000000059
:1007200000000000000000000000000000000000C9
:1007300080F0FEFFFFFFFF3F0F0100000000000000
:100740000000C0E0381E0F030001000000000000A0
:100750000000000000000000000000000000000099
:10076000030301000000000000000000000E0E0264
:10077000020202020303000F0F000F0F080808080F
:100780000808080F0F08080808080F0F00000000ED
:100790000F0F00000000000000000000000000003B
:1007A0000000000000000000000000000000C0F891
:1007B000BFFFFFFF1F7F010000000000000000F0EE
:1007C000FCFF7F7830000000000000000000000007
:1007D0000000000000000000000000000000000019
:1007E0000000000000000000000000000000000009
:1007F00000000000000000000000000000000000F9
:1008000000000000000000000000000000000000E8
:1008100000000000000000000000000000000000D8
:10082000000000000000000000000000301C070E67
:100830000F070100000000000000000000000000A1
:1008400000000000000000000000000000000000A8
:100850000000000000000000000000000000000098
:10086000000000000000204D4F443A204652534BF8
:10087000592020203132382020002053564E3A2073
:10088000312E312E3131370054494D453A2031381F
:100890003A35393A303800444154453A2030352E03
:1008A00031302E3230313400564552533A205631D1
:1008B0002E3131372D34726566306E74002020463B
:1008C000656E6365206175746F64697361626C65E0
:1008D0006420002D2D2D2D2D204C6F73742047503A
:1008E00053202D2D2D2D2D2D002D2D2D2D204C6FF8
:1008F000772042617474657279202D2D2D2D00456D
:1009000053432043616C3A50617373546872546F5F
:1009100045534373004553432043616C3A5265731A
:100920007461727420426F61726400446973616221
:100930006C652066656E6365206661696C65642020
:10094000005665726966793A20496E766C6964432F
:100950006F6E64434D44005665726966793A20496A
:100960006E76616C69644E6176434D4400454B463A
:100970003A20436F6D706173732056617269616EC6
:100980006365002020202020205472696D2073614F
:1009900076656420202020200020204175746F544B
:1009A000756E653A2053746F707065642020002066
:1009B000204175746F54756E653A2053746172747A
:1009C00065642020004572726F72205365747469EB
:1009D0006E6752616C6C79506E7400506172616325
:1009E000687574653A2052656C6561736564212091
:1009F0000020202043726173683A20446973617259
:100A00006D696E672020004D6F746F72546573744A
:100A10003A204E6F74206C616E646564004D6F7493
:100A20006F72546573743A5243204E6F7443616C15
:100A300069620020202020436865636B20636F6D2E
:100A4000706173732020202000202020436F6D7080
:100A50006173732064697361626C65642020005067
:100A6000726541726D3A20426164204750532050B4
:100A70006F7320200050726541726D3A20436F6D94
:100A8000706173734865616C74680050726541727F
:100A90006D3A204261726F4261644865616C7468AE
:100AA0000050726541726D3A205243206E6F74207F
:100AB00063616C696272002020202041524D494ED2
:100AC00047204D4F544F5253202020200063707513
:100AD000004F50544943004750530041495253502E
:100AE000005052455353004D414700414343454C4C
:100AF000004759524F007468722500777000647483
:100B0000680067416C00616C740068646F7000730A
:100B10006174004E6F20475053002052544B2020E8
:100B20000020444750532000334420466978003267
:100B30004420466978004E6F20466978004E4F4445
:100B40004154410044495341524D0041524D4544A6
:100B5000004E4F44415441004E4F204D4156004EEF
:100B60004F20445256004D4F44453139004D4F44BB
:100B7000453138004D4F444531370050486F6C6463
:100B8000004154756E6500464C49500053504F5219
:100B900054004D4F44453132004452494654004FB1
:100BA000464C4F4954004C414E44004D4F4445384B
:100BB00000434952434C450052544C004C4F495459
:100BC000455200475549444544004155544F004162
:100BD0002D486F6C64004143524F00535441420012
:100BE000202020202020202020200056343D0756A1
:100BF000353D0E56363D0056313D0756323D0E56B8
:100C0000333D00096D7068005370643D096B747367
:100C1000204D61783D00416C743D096D2020204DD0
:100C200061783D004C6F6E3D004C61743D1248642C
:100C300067000A52504D004675656C0022047C5EC8
:100C400054546D0003457870457846466E654D6591
:100C5000644372730041323D0041313D0011544FF5
:100C600054000153544B115354250001544D451168
:100C7000545357005354415400035B4D454E555D4A
:100C800020746F207265667265736800746D6169A7
:100C90006E0F6D7300746D7231204A6974746572E1
:100CA0000F757300746D72314C6174206D696E0F35
:100CB000757300746D72314C6174206D61780F75BD
:100CC00073005354415432004D6F64650020524507
:100CD000544100014368616E6E656C204F7264651B
:100CE00072004672736B79204D6F6420446F6E659D
:100CF00000496E742E204672736B7920616C6172AC
:100D00006D0043726F73735472696D00456E61625A
:100D10006C652050504D53494D0042616E644761EF
:100D20007000537469636B5363726F6C6C00506F27
:100D3000745363726F6C6C00416C61726D2057610B
:100D4000726E696E67004D656D6F727920576172C2
:100D50006E696E670044656661756C742053770038
:100D60005468726F74746C65205761726E696E6737
:100D70000053706C617368204E616D650053706C38
:100D80006173682073637265656E004C696768748F
:100D9000206F6E2053746B204D76004C6967687429
:100DA000206F6666206166746572004261636B6CD9
:100DB0006967687420696E76657274004C6967684B
:100DC000742073776974636800466C617368206F80
:100DD0006E2062656570004265657020636F756E98
:100DE00074646F776E004D696E7574652062656519
:100DF00070005468726F74746C65207265766572E9
:100E0000736500496E616374697669747920616CF9
:100E100061726D136D00426174746572792077613F
:100E2000726E696E6700436F6E7472617374002036
:100E300048617074696320537472656E67746800EA
:100E400020537065616B6572205069746368005649
:100E50006F6C756D65000A426565706572202020B3
:100E600020506953706B722020202042656570729B
:100E7000566F696365506953706B566F6963654D52
:100E8000656761536F756E642000536F756E6420E3
:100E90004D6F646500065175696574204E6F4B6532
:100EA00079207853686F727453686F7274204E6F34
:100EB000726D20204C6F6E672020784C6F6E67201B
:100EC00000426565706572004F776E6572204E61F5
:100ED0006D6500000900524144494F205345545567
:100EE0005000036D6F64650A2520737263202073C0
:100EF000770043616C004D756C7469706C69657244
:100F000000036368316368326368336368340003E5
:100F10006F6666202B3D203A3D0007536C61766575
:100F200000000303030300545241494E455200564A
:100F3000455253494F4E005472696D2D202B0005C8
:100F4000204D656E75204578697420446F776E205A
:100F5000202055705269676874204C65667400449F
:100F60004941470012424700414E4100034D4F5650
:100F70004520535449434B532F504F54530005536E
:100F80004554204D4944504F494E5400035B4D4554
:100F90004E555D20544F2053544152540043414C10
:100FA0004942524154494F4E000966726565004DF1
:100FB0004F44454C53454C00434F4C2044697265A7
:100FC0006374696F6E0041494C20446972656374B3
:100FD000696F6E00454C4520446972656374696FA2
:100FE0006E0053776173682052696E6700436F6CBF
:100FF0006C65637469766500062D2D2D20202031E7
:10100000323020202031323058202031343020201E
:1010100020393020202020005377617368205479D4
:101020007065000048454C49205345545550000117
:10103000524554410020464D30004D4F4445530029
:1010400020464D0046616465204F7574004661641A
:101050006520496E005472696D730053776974633B
:101060006800000300464C204D4F444500015245A6
:10107000544100032D2D2D5031205032205033206B
:1010800047563447563547563647563700566F6CE5
:10109000756D6520436F6E74726F6C004175746F6F
:1010A000204C696D697473005432546854726967D6
:1010B00000547261696E657200452E204C696D693D
:1010C00074730003504F534E45470053686966746C
:1010D0002053656C0050504D20317374204368617B
:1010E0006E00204661696C736166650003416D6541
:1010F0004A61704575720020436F756E7472790095
:10110000034431364438204C5250002054797065E5
:1011100000094C50342F4C5035202044534D326F31
:101120006E6C792044534D322F44534D5800445334
:101130004D20547970650042696E64202052616EC2
:1011400067650050504D2046724C656E0D6D5365BD
:1011500063000B52784E756D0004344348203643CB
:1011600048203843482031304348313243483134F5
:101170004348313643480013755300117553656376
:10118000000650504D202020505858202020445315
:101190004D32202050504D31362050504D53494D46
:1011A0000050726F746F0052455441313233004227
:1011B00065657020436E740046617374204D6978D4
:1011C0002044656C6179005472696D205377000684
:1011D000457870202020457846696E6546696E65C1
:1011E00020204D656469756D436F617273650054AD
:1011F00072696D20496E6300542D4578706F0054FC
:101200002D5472696D000A436F756E7420446F77B8
:101210006E436F756E74205570202000547269679C
:1012200067657242005472696767657200566F693C
:10123000636520496E646578114D454E55004E61D9
:101240006D650000090001000000000000000006BC
:10125000020100534554555000004641494C53414A
:1012600046450052414E474520434845434B205296
:101270005353493A000642494E44494E470044758B
:10128000706C69636174696E67206D6F64656C0072
:1012900044454C455445204D4F44454C0044555021
:1012A0004C4943415445204D4F44454C00447253F2
:1012B000773200447253773100025765696768746A
:1012C00000024578706F00044452204869000444CD
:1012D00052204C6F7700044452204D696400004551
:1012E00058504F2F445200012B2A52004D49584567
:1012F00052000320202020202020200044454C457F
:101300005445204D49583F00035B4D454E555D0BFC
:101310005B455849545D00035945530B4E4F0050EF
:1013200072657373205B455849545D20746F20616A
:10133000626F7274004D6178206D697865727320F8
:1013400072656163683A2033320002536C6F772014
:101350002055700002536C6F772020446F776E0029
:101360000244656C6179205570000244656C6179B6
:1013700020446F776E000841646420202020204DB7
:10138000756C7469706C795265706C61636520006E
:10139000024D756C74707800025761726E696E67E9
:1013A00000024D4F4445530002537769746368004F
:1013B0004375727665000D44696666000254726971
:1013C0006D0002466C4D6F64657472696D00024673
:1013D0006978204F6666736574004F66667365743E
:1013E00000466D5472696D56616C000257656967FD
:1013F00068740002536F7572636500454449542058
:101400004D495820000000000000000000000400CA
:10141000032D2D2D783E30783C307C787C663E3034
:10142000663C307C667C633120633220633320630A
:1014300034206335206336206337206338206339D6
:10144000206331306331316331326331336331349E
:10145000633135633136000D4F6E00072D2D2D2D74
:10146000202020763E6F66732020763C6F667320C6
:10147000207C767C3E6F66737C767C3C6F66734125
:101480004E44202020204F522020202020584F5210
:101490002020202076313D3D7632207631213D7668
:1014A000322076313E7632202076313C7632202052
:1014B00076313E3D76322076313C3D76322054699D
:1014C0006D654F6666000D4F6E00072D2D2D2D208A
:1014D0002020763E6F66732020763C6F6673202056
:1014E0007C767C3E6F66737C767C3C6F6673414E87
:1014F00044202020204F522020202020584F5220CE
:1015000020202076313D3D7632207631213D7632E5
:101510002076313E7632202076313C76322020769D
:10152000313E3D76322076313C3D76322054696D35
:10153000654F66660053000003435553544F4D20DA
:10154000535749544348455300064F4E202020200E
:101550004F4646202020424F5448202031355365C5
:101560006373333053656373363053656373566109
:101570007269626C0056530007203820536563730C
:101580003132205365637331362053656373000134
:1015900053415658004E756D62657220566F6963EF
:1015A00065205377000000025341464554592053AB
:1015B0005749544348455300434C454152204D49F7
:1015C000584553205B4D454E555D0054454D504C9C
:1015D00041544553005343092B0D2A122F00032D6C
:1015E0002D2D52746D45746D54746D41746D52455A
:1015F0004E525544454C4554485241494C50312077
:101600005032205033206331206332206333206313
:1016100034206335206336206337206338206339F4
:1016200020633130633131633132633133633134BC
:10163000633135633136004756000001474C4F4255
:10164000414C2056415253000546697273744C61F7
:10165000737420004F66667365742041740044659E
:1016600063696D616C73005369676E00556E6974D0
:101670000044697669736F72004D756C7469706CA3
:10168000696572004F6666736574004E616D650032
:10169000536F7572636500534300000300042D2DE2
:1016A0002D2D4131202041322020464153565343B5
:1016B0003120534332205343332053433400437586
:1016C0007272656E7420536F757263650053696E34
:1016D0006B20546F6E6573000253656E7369746995
:1016E00076697479000253776974636800042D2D5C
:1016F0002D2D767370644132202000566172696F1F
:101700003A20536F7572636500464153204F6666F9
:1017100073657400437573746F6D20446973706CE6
:10172000617900477073416C744D61696E00566F4A
:101730006C742054687265733D00034F4646313225
:101740003234303000416C74416C61726D004E7502
:101750006D20426C61646573006D416820416C616D
:10176000726D00527800547852535349616C726D17
:1017700000000101010054454C454D455452593279
:1017800000013C3E00616C726D0001762D564100F7
:101790004120206368616E6E656C00034D6574497D
:1017A0006D7000052053746420204D617620000583
:1017B000467248756257534868690050726F746F7B
:1017C000000002010202010254454C454D455452AD
:1017D0005900434F5059205452494D205B4D454EBE
:1017E000555D0000034C494D495453004356004396
:1017F00055525645530050524553455400004355E9
:1018000052564500032D2D2D494E56004756005B7C
:101810004D454E555D205748454E20444F4E45009E
:1018200053454C45435400434F5059004D4F564586
:101830000044454C455445004544495400494E53E5
:1018400045525400434F5059004D4F5645004445B2
:101850004C455445009A64F12FC42C803B382C90A1
:1018600031A05FCA32E53A6F417F5776697856DC1E
:101870005A216BF22CD333EF56F22E1208120008C5
:101880001C0808081C080000082200490022080063
:1018900000000000227F22000000082200490022F0
:1018A00008000008220049002208000000227F22D0
:1018B0000000000000082200490022080000081C67
:1018C0000808081C080001010100000002020202D1
:1018D00002020202020200020202020202020200EC
:1018E00000000000000002020202020303030305DD
:1018F0004665657420566F6C74734465675F434436
:1019000065675F466D41682020416D7073204D65AD
:10191000747265576174747300465643466D416D29
:101920005718242F2F0033383B065761726E312031
:101930005761726E322043686561702052696E672C
:101940002020536369466920526F626F7420436898
:1019500069727020546164612020437269636B7402
:10196000536972656E20416C6D436C6B526174619A
:1019700074615469636B20204861707463314861FD
:10198000707463324861707463330054696D6572BA
:1019900000032D2D2D59656C4F72675265640054FC
:1019A000524530313241470052783D0054783D0075
:1019B000204142434445464748494A4B4C4D4E4FCF
:1019C000505152535455565758595A616263646581
:1019D000666768696A6B6C6D6E6F7071727374752F
:1019E000767778797A303132333435363738395F33
:1019F0002D2E0000010203FEFF0406080A0B0C0D49
:101A00000E0F23FD202425261D1E1F27F6F7F8F9AB
:101A1000FAFBFCF52811292AF1F2F3F4042D2D2DFF
:101A20002D41313D2041323D2052535349545353AF
:101A30004954696D3154696D32416C742047616C51
:101A4000744773706454313D2054323D2052504DE0
:101A5000204655454C4D6168314D61683243766C86
:101A60007442617474416D70734D61682043746F8A
:101A700074466173564163635841636359416363BC
:101A80005A5673706447767231477672324776726F
:101A900033477672344776723547767236477672B8
:101AA0003746776174527856204864672041333D49
:101AB0002041343D2053433120534332205343339C
:101AC0002053433420005377697463682057617250
:101AD0006E696E670067656E7772697465206572FE
:101AE000726F7200454550524F4D20466F726D61C6
:101AF0007474696E670042616420454570726F6D51
:101B0000204461746100434845434B204D49582FA0
:101B1000445220534F5552434553004D4F44454C7A
:101B20002020202020004D45202020202020202083
:101B300000454550524F4D206F766572666C6F7749
:101B400000E2AEA6A4A22F250000000000000000C5
:101B50000000000000000000000000000000000085
:101B60000000000000000000333B1F0F00000000D9
:101B7000C0C0C0C0C0C0C0C0C0C0000000000000E5
:101B80000000000000000000000000000000000055
:101B9000183C3C180000000000000080C0E07038D5
:101BA0001C0C0C0E07030100000000000000FCFEEE
:101BB00087C3E377FEFC00000F1F3B3130381F0F57
:101BC00000000C0EFFFF00000000000030303F3F1F
:101BD0003030000000000C0E0783C3E77E3C00009D
:101BE0003C3E37333130303000000303C3C3C3E71A
:101BF000FE3C00003030303030391F0F0000C0E0B4
:101C000070381C0EFFFF00000303030303033F3F74
:101C100000003F3F33333373E3C300000C1C383004
:101C200030381F0F0000FCFEC7C3C3C78E0C000076
:101C30000F1F383030391F0F00000303C3E3733B1D
:101C40001F0F000000003F3F0000000000003CFEAE
:101C5000E7C3C3E7FE3C00000F1F393030391F0FC8
:101C600000003C7EE7C3C3E7FEFC00000000303804
:101C70001C0E07030000183C3C1800000000000088
:101C8000060F0F0600000000F0F8DCCEC7C7CEDC60
:101C9000F8F03F3F0000000000003F3FFFFFC3C3DC
:101CA000C3C3C3E7FE3C3F3F3030303030391F0FF5
:101CB000FCFE0703030303070E0C0F1F3830303000
:101CC00030381C0CFFFF030303070E1CF8F03F3FE6
:101CD000303030381C0E0703FFFFC3C3C3C3C3C378
:101CE00003033F3F3030303030303030FFFFC3C36C
:101CF000C3C3C3C303033F3F000000000000000054
:101D0000FCFE0703C3C3C3C7CECC0F1F383030302F
:101D100030303F3FFFFFC0C0C0C0C0C0FFFF3F3FEB
:101D20000000000000003F3F00000303FFFF03032B
:101D30000000000030303F3F303000000000000065
:101D40000303FFFF03030C1C383030381F0F000063
:101D5000FFFFC0E0F0381C0E07033F3F0001030700
:101D60000E1C3830FFFF00000000000000003F3F65
:101D70003030303030303030FFFF0E1CF8F81C0EA1
:101D8000FFFF3F3F0000000000003F3FFFFF3870B3
:101D9000E0C08000FFFF3F3F0000000103033F3F22
:101DA000FCFE070303030307FEFC0F1F383030302F
:101DB00030381F0FFFFFC3C3C3C3C3E77E3C3F3FA1
:101DC0000000000000000000FCFE070303030307FF
:101DD000FEFC0F1F383033371E1C3F33FFFFC3C3D9
:101DE000C3C3C3E77E3C3F3F000003070E1C3830EF
:101DF0003C7EE7C3C3C3C3C78E0C0C1C38303030E5
:101E000030391F0F03030303FFFF03030303000025
:101E100000003F3F00000000FFFF00000000000046
:101E2000FFFF0F1F3830303030381F0FFFFF00002A
:101E300000000000FFFF03070E1C38381C0E0703CC
:101E4000FFFF000000000000FFFF0F1F38381F1FBA
:101E500038381F0F0F1F38F0E0E0F0381F0F3C3EFE
:101E60000703010103073E3C3F7FE0C08080C0E0E4
:101E70007F3F000000013F3F010000000303038398
:101E8000C3E3733B1F0F3C3E3733313030303030CB
:101E90000000000000000000000030303030303022
:101EA000303030300000303030303070E0C00C1E48
:101EB0003F33333333333F3FFFFFC0E07030307088
:101EC000E0C03F3F3030303030381F0FC0E070305E
:101ED0003030303000000F1F3830303030381C0CBC
:101EE000C0E070303070E0C0FFFF0F1F383030307E
:101EF00030303F3FC0E0703030303070E0C00F1FF6
:101F00003B33333333330303C0C0FCFEC7C3030783
:101F10000E0C00003F3F000000000000F0F89C0C99
:101F20000C0C0C0CFCFC000133333333333B1F0F20
:101F3000FFFFC0E070303070E0C03F3F00000000A5
:101F400000003F3F00003030F3F3000000000000CD
:101F500030303F3F30300000000000003030F3F3FD
:101F600000000C1C383030381F0F0000FFFF0080CD
:101F7000C0E0703000003F3F03070F1C3830000006
:101F800000000303FFFF00000000000030303F3F6F
:101F900030300000F0F03070E0E07070E0C03F3FA3
:101FA0000000030300003F3FF0F0C0E070303070ED
:101FB000E0C03F3F0000000000003F3FC0E0703045
:101FC00030303070E0C00F1F3830303030381F0FE5
:101FD000F0F03030303030F0E0C03F3F0303030317
:101FE00003030100C0E0F0303030E0C0F0F0000149
:101FF0000303030303033F3FF0F0C0E07030307091
:10200000E0C03F3F0000000000000000C0E0F030F2
:10201000303030300000303133333333333F1E0C37
:102020003030FFFF30300000000000000F1F38305C
:1020300030381C0CF0F0000000000000F0F00F1F22
:10204000383030381C0C3F3FF0F00000000000003A
:10205000F0F003070E1C38381C0E0703F0F00000E8
:1020600000000000F0F00F1F38381C1C38381F0F1C
:102070003070E0C08080C0E0703030381C0F07073F
:102080000F1C3830F0F0800000000000F0F000017C
:1020900033333333333B1F0F3030303030B0F0F058
:1020A000703030383C3E3733313030300000000083
:1020B000000000006F000007000700147F147F1469
:1020C000242A7F2A122313086462364955225000BD
:1020D00005030000001C2241000041221C001408DE
:1020E0003E081408083E08080050300000080808A0
:1020F000080800606000002010080402003E494506
:102100003E0000427F400062514946004149493645
:10211000001814127F0027454539003E4949320016
:10212000017905030036494936000649291E000099
:1021300036360000005636000008142241141414EC
:10214000141441221408000201510906000609096D
:10215000067E0909097E7F494949363E41414122AF
:102160007F4141221C7F494949417F090909013EBC
:102170004149497A7F0808087F00417F410020409B
:10218000413F017F081422417F404040407F020CC4
:10219000027F7F0408107F3E4141413E7F090909CB
:1021A000063E4151215E7F09192946264949493297
:1021B00001017F01013F4040403F1F2040201F3F61
:1021C0004030403F631408146307087008076151EA
:1021D000494543007F41410002040810200041416D
:1021E0007F0004020102044040404040000102041C
:1021F0000020545454787F484444383844444420A0
:10220000384444487F3854545418087E0901020C5D
:102210005252523E7F0804047800447D4000204022
:10222000443D007F1028440000417F40007C04189A
:1022300004787C0804047838444444387C1414142A
:1022400008081414187C7C080404084854545420CA
:10225000043F4440203C4040207C1C2040201C3C4B
:102260004020403C44281028440C5050503C4464CA
:10227000544C44000836410000007F000000413605
:1022800008000808221C08081C220808010204088B
:102290001020408040800804201002019CCE0032B3
:1022A00064E2F1003264645A505A6450463C466419
:1022B0009C141E465A536572766F205465737400E1
:1022C0004779726F2053657475700048656C69209A
:1022D000536574757000456C65766F6E5C44656C13
:1022E000746100562D5461696C00537469636B7995
:1022F00020542D43757400542D4375740053696D3B
:10230000706C6520342D434800FD22F722EA22E359
:1023100022D622CB22C022B5220000891112239B93
:10232000322446AD573665BF74488CC19D5AAFD331
:10233000BE6CCAE5DB7EE9F7F88110080193331A19
:1023400022A5562C47B7753E64C99C408DDBBF5211
:10235000AEEDDA64CBFFF976E802218B30100299FA
:10236000132667AF763444BD554AADC3BC588ED1F1
:102370009F6EEBE7FA7CC8F5D983310A20911218D9
:1023800003A7772E66B5543C45CBBD42ACD99E50D1
:102390008FEFFB66EAFDD874C904428D5316619F26
:1023A000702004A9153227BB364CCEC5DF5EEDD7B1
:1023B000FC6888E1997AABF3BA85520C4397711E99
:1023C00060A1142805B3373A26CDDE44CFDFFD5691
:1023D000ECE9986089FBBB72AA06638F7214409D7A
:1023E000512225AB343006B9174EEFC7FE5CCCD571
:1023F000DD6AA9E3B8788AF19B87730E6295501C59
:1024000041A3352A24B1163807CFFF46EEDDDC5450
:10241000CDEBB962A8F99A708B088481951AA793BD
:10242000B62CC2A5D33EE1B7F04008C919522BDB48
:102430003A644EED5F766DFF7C899400859BB71200
:10244000A6ADD224C3BFF136E0C1184809D33B5A28
:102450002AE55E6C4FF77D7E6C0AA583B4188691E1
:10246000972EE3A7F23CC0B5D14229CB38500AD908
:102470001B666FEF7E744CFD5D8BB502A4999610C0
:1024800087AFF326E2BDD034C1C3394A28D11A58E8
:102490000BE77F6E6EF55C7C4D0CC685D71EE5970D
:1024A000F42880A1913AA3B3B2444ACD5B5669DFC8
:1024B00078600CE91D722FFB3E8DD604C79FF51680
:1024C000E4A9902081BBB332A2C55A4C4BD7795EA8
:1024D00068E11C680DF33F7A2E0EE787F61CC49561
:1024E000D52AA1A3B03882B193466BCF7A5448DD88
:1024F00059622DEB3C700EF91F8FF706E69DD41440
:10250000C5ABB122A0B9923083C77B4E6AD5585C67
:1025100049E33D6A2CF11E780F36860A0C0D0B102C
:102520003536072F30313233348488979A1113149B
:10253000151609181B122B2C2D2E05191C1D1E1FDC
:102540002720A1223636058C11241FBECFEFD0E103
:10255000DEBFCDBF11E0A0E0B1E0E4E1FFE101E0CA
:102560000BBF02C007900D92A832B107D9F71FE048
:10257000A8E2B1E001C01D92AA37B107E1F715E268
:10258000C8E4D5E200E006C022970109FE010BBFB6
:102590000E94438FC634D10780E00807A9F70E9444
:1025A000288A0C94888F0C940000E091900594E0A8
:1025B000E99FF0011124E80FF11DE752FC4F8491CF
:1025C0008F5F0895853050F0883020F08E3020F4F1
:1025D00082E0089581E0089583E0089580E0089501
:1025E0002AE0829FC001112489509E4F089525E062
:1025F000829FC0011124895C9C4F08950F93022F84
:10260000207104FF03C00F7E9DE201C094E24111DE
:1026100006C024E043EB53E00E94FA7418C0453032
:1026200028F42FEF240F40EC53E00FC0941728F04C
:102630002BEF240F4DE053E008C0222311F0475B3D
:10264000491B2CED240F4CE15AE10E941F750F919C
:1026500008950F93CF93DF93C82FD62F022F4111E8
:1026600004C024E048E053E00EC04A3010F086E198
:1026700001C081E18C0F50E0202F6D2F0E94AF77B9
:1026800022E045E053E06D2F8C2F0E94FA74DF9119
:10269000CF910F9108950F931F93CF93DF93D62F70
:1026A000C42F022F16E0180F442339F04C3141F0AB
:1026B000443E81F44DEE53E005C041E053E002C0DA
:1026C00049EE53E06D2F812FDF91CF911F910F9134
:1026D0000C94337547FF04C041E20E946C74C195AD
:1026E0002FEF2C0F41EF53E06D2F812F0E941F75AC
:1026F000DF91CF911F910F910895EF92FF920F9369
:102700001F93CF93DF93D82F162FF42EE22EC09174
:10271000E80181E0821708F442C02C2F27FD2195A3
:10272000203168F4042F4FEC52E08D2F0E941F756A
:10273000CF3FCCF52F2D41E2612F8AEF19C02B320C
:1027400030F41C1614F441EF22C04FE020C0C63410
:102750009CF0CF53042F2C2F48E852E08D2F0E947D
:102760001F75C0310CF4D6502F2D45E2612F82E148
:102770008D0F0E946C7417C0242F4DE682E18D0FDF
:102780000E946C741C1614F446ED01C04AE24C0F12
:102790002F2D612F8AEF8D0F0E944B1304C082E012
:1027A000281313C004C0E11010C0C13071F42F2DE4
:1027B00040915804612F8AEF8D0FDF91CF911F91C7
:1027C0000F91FF90EF900C944B13DF91CF911F91DD
:1027D0000F91FF90EF900895EF92FF920F931F9348
:1027E000CF93DF93790124E0629F80011124065882
:1027F0001B4FD801EC91F0E0442311F0EE0FFF1FC6
:102800009F01DC010E94818EE8012B81207C203C0D
:1028100059F424E630E040E050E00E94F08EF701E9
:1028200080818062808318C0E436F10578F4660FF9
:10283000771F881F991F23E330E040E050E00E949B
:10284000F08ED7018C9180638C9306C02FEF30E01F
:1028500040E050E00E94F08EC901DF91CF911F91BE
:102860000F91FF90EF900895DF92EF92FF920F93F8
:102870001F93CF93DF931F92CDB7DEB7D82EF62EDE
:10288000842FA22F098394E0299F800111240658E8
:102890001B4F50E060E070E0F8019381907C90382D
:1028A00021F4EE2081F041E003C0EE2089F040E009
:1028B0009E012F5F3F4F6A2F90E00E94EC13AC0106
:1028C00060E070E018C0440F551F661F771F13C0EB
:1028D000903C89F4282F30E0AFEFB0E00E94818E69
:1028E00024E630E040E050E00E94F08EBA01A901F9
:1028F000898180628983F801838186FD14C0098102
:102900000062E5E0EE2E9A01AB016F2D8D2D0E9445
:102910004576298127FD1BC046E76F2D80916F0DFD
:102920000E946C7414C029816F2D8D2D0E94AF7789
:10293000F8018381807C803C61F4298127FD0BC0F4
:1029400041E46F2D80916F0D0E946C7404C086E786
:1029500003C080E201C081E40F90DF91CF911F910D
:102960000F91FF90EF90DF900895873038F4E82FB3
:10297000F0E0EE0FFF1FE758F74F24C08C3050F106
:102980008431C0F4482F50E0DA01AA0FBB1FAE5EBD
:10299000BE4F2D913C91803148F4FA01EE0FFF1F9C
:1029A000EA59FA4F80819181281B390BC901880FA0
:1029B000991F0895843248F4E82FF0E0EE0FFF1FCE
:1029C000EF5CF74F8081918108958D3418F4845223
:1029D0000C942E2580E090E008950E94248A8111B5
:1029E000FCCF1092A00D08950F931F93CF93DF9308
:1029F0008C01EB010E94207424E042ED53E060E082
:102A000082E20E943375B80180E20E945375BE01D4
:102A100088E20E94537562E772E080E3DF91CF9114
:102A20001F910F910C9453750F93262F00E041EFE7
:102A300053E060E10E941F750F910895CF93DF93DB
:102A4000D6E1C0E08D2F0E947779CC0FC82BD150F2
:102A5000DE30C1F78C2FDF91CF9108950F931F9334
:102A6000CF93DF93082FCDEDD1E01AE0499124E018
:102A7000602F812F0E946C74155F1837B9F7DF91B2
:102A8000CF911F910F9108951F93CF93DF93EC0186
:102A9000162F0E942074BE0188E10E945375111107
:102AA00009C044E652E068E38CE10E94597542EDAA
:102AB00053E002C04CE552E024E060E086E10E9471
:102AC0003375DF91CF911F910C94837861E00C9462
:102AD000441570E0882399F090E0019725E0289F45
:102AE000F001299FF00D1124E60FF71FEE0FFF1FD5
:102AF000EE55FB4F808191818B509E4F0895FB01D5
:102B0000EE0FFF1FEE5FFE4F0190F081E02D808100
:102B1000992787FD909508951F93CF93DF93D82F22
:102B2000162FC4E0DD2399F0612F8D2F0E946915C7
:102B30009C01253F81E0380764F08BE0820F8D1700
:102B400010F08CE0820FC15029F0D82FEBCFC0E0FD
:102B500001C0CD2F8C2FDF91CF911F910895CF937E
:102B6000C62F0E948C156C2FCF910C946915EF9293
:102B7000FF920F931F93CF93DF93EA019A0123589B
:102B80003F4F7901062F10E0882319F10E948C1520
:102B90008823F9F03BEFE316F10440F01C161D0604
:102BA0001CF4CDE7D0E002C0C3E8DFEF90E001976E
:102BB00025E0289FF001299FF00D1124E00FF11F5F
:102BC000EE0FFF1FEE55FB4FC55FD140D183C08391
:102BD00015C08BEFE816F10440F01C161D061CF41E
:102BE000CDE7D0E002C0C3E8DFEFF801EE0FFF1F32
:102BF000EE5FFE4F0190F081E02DC08386E0DF9113
:102C0000CF911F910F91FF90EF900C94236EE09164
:102C10004B01F0E0EE0FFF1FE25BFE4F80819181E0
:102C20000895E0914B01F0E0EE0FFF1FE45BFE4FD3
:102C3000918380838FEB80934A010895EDE8F8E05B
:102C4000108E168A158A178A0895E1E4FEE037A1EE
:102C5000303180F420A541E0420F40A7DF01A20FF0
:102C6000B11DA20FB11D8D939C93403108F010A6A9
:102C70003F5F37A3089590E08C5F9E4F0C9425161C
:102C800090E00C9425168093C00190E040970C943E
:102C90002516FC0190919B0580A191FF74C091A124
:102CA000882311F0946001C09B7F91A386A181309D
:102CB00059F5C79A37A121A1332321F181A541E01C
:102CC000480F41A7DF01A80FB11DA80FB11D8D91BD
:102CD0009C9195A384A3403108F011A6315037A3ED
:102CE00097FD02C031E101C038E233A32C7F97FD8C
:102CF000226021A381A18BBBC7988FE182A382E0D0
:102D000086A308952BBB48C081110CC0C79A81A12E
:102D1000836081A38BBB8091700D8D3308F43CC020
:102D200086E02FC0823009F438C081A18BBBC79ADE
:102D3000BF9800C0000000C086B38078BF9A96A1FB
:102D4000933049F4882329F083A1815083A3811112
:102D500023C084E016C0943021F48823E9F083E096
:102D60000EC0953039F483A1815083A3811114C022
:102D700081E007C0963081F4882371F084E183A359
:102D800085E086A309C09091980596FB992790F954
:102D9000891711F0C79A0895C79808951BBA8FE153
:102DA0008ABB00C099B38FEF8ABBE6EBF1E0878165
:102DB000882311F080E202C0892F807E8483292F2E
:102DC000207C8081281759F08074880F9078318199
:102DD000891711F0315001C03F5F31832083828118
:102DE0009381891711F083838183089590919005D1
:102DF00090FD02C093E08927E82FF0E0E957F74FF4
:102E0000E081E7FDE95FE595E595E5951E1624F07F
:102E1000EE2321F0E19502C080E801C080E0E830B7
:102E20000CF0E7E0FF27E7FDF095E854FC4FE49154
:102E3000EE2319F099E0909356018E2B0895482FB8
:102E4000833021F0882321F0E82F03C0E0E001C0A7
:102E5000E3E0F0E0EE0FFF1FE353FA4F8081918132
:102E6000443080F42091AD0530E002C035952795BF
:102E70004A95E2F720FF06C020E038E0A901481B90
:102E8000590BCA010895FF920F931F93CF93DF93BD
:102E9000F12CC0E0D0E08F2D0E941F17092F10E009
:102EA000C00FD11FF39484E0F812F5CFCE01DF916B
:102EB000CF911F910F91FF9008950E941F172091AD
:102EC000920520FF03C09195819591090895EDEC3D
:102ED000F5E040E0842F806487B900C000C0369AD6
:102EE0003699FECF24B135B1369A3699FECF84B1EA
:102EF00095B1820F931F369A3699FECF24B135B122
:102F0000280F391F369A3699FECF84B195B1820FBA
:102F1000931F96958795819391934F5F4830D1F693
:102F2000089578941F920F920FB60F9211248F93E9
:102F3000809128018F5F809328018F910F900FBEA1
:102F40000F901F90189578941F920F920FB60F92C2
:102F500011240BB60F922F938F939F93EF93FF93B0
:102F6000F89487B78F7B87BF789420917F018091F9
:102F7000810190919B05882359F090FF07C08091B3
:102F8000770F820F8093770F87FF02C01B9A01C0D3
:102F90001B9891FF2AC080916C09811126C0E1E441
:102FA000FEE086A1823009F583A1882311F08150CB
:102FB0001BC021A1C79A82A180FD09C02D7F84A1D9
:102FC00095A196FD2260880F991F95A384A381E0A7
:102FD00082278BBB81A3C79882A1815082A38111D4
:102FE00004C083E086A385E083A3F89487B7806458
:102FF00087BF7894FF91EF919F918F912F910F90C0
:103000000BBE0F900FBE0F901F90189578941F92D3
:103010000F920FB60F9211240BB60F922F933F937E
:103020004F935F936F937F938F939F93AF93BF93D0
:10303000EF93FF9381B7845681BF8DE791E00E94A3
:10304000DE810E94E2790E94E3888091AD0D82606A
:103050008093AD0DEAE0F1E08081815011F0808332
:1030600004C084E6808381E081838281815011F0F5
:10307000828304C08AE0828381E08383FF91EF91A1
:10308000BF91AF919F918F917F916F915F914F9180
:103090003F912F910F900BBE0F900FBE0F901F907E
:1030A000189578941F920F920FB60F9211240BB6B9
:1030B0000F922F933F934F935F936F937F938F93D1
:1030C0009F93AF93BF93EF93FF9320918000309134
:1030D0008100F89480917D008F7D80937D007894AD
:1030E0008091C4059091C505A901481B590BCA01DF
:1030F000969587953093C5052093C4059C01215A68
:103100003F402F3D3E4220F481E0809329012CC0B6
:10311000E09129012FEF2E0F283030F59C0121522C
:10312000334027373540F0F424E62093BF0121E0F7
:103130002E0F20932901F0E0EE0FFF1FE85DFE4FF8
:103140009C012C5D354040919605465F429FC00131
:10315000439F900D11246AE070E00E94DC8E718321
:10316000608302C010922901F89480917D008062F2
:1031700080937D007894FF91EF91BF91AF919F91E3
:103180008F917F916F915F914F913F912F910F9010
:103190000BBE0F900FBE0F901F90189590E0880FF8
:1031A000991F8D55914FFC01F894808191817894FD
:1031B000089584E00E94CE182091AC073091AD07AD
:1031C000820F931F08959C0165E0359527956A95B8
:1031D000E1F7280F391FAC01440F452F441F550B51
:1031E000241B350B892F990F990B8595820F931FFF
:1031F00008959DE7980F9B3F88F08E57E82FF0E0E9
:10320000EE0FFF1FEC56FB4F808186171CF4608386
:10321000862F0895481714F44083842F089544E6B8
:103220006CE90C94F918982F8091EE0184FF03C08B
:1032300081E0923009F080E0089549E28402900133
:103240001124359527953595279587FD815C86FB5B
:10325000880F880B80F9A901481B510987FD5395F8
:10326000CA0108955F926F927F928F929F92AF9260
:10327000BF92CF92DF92EF92FF920F931F93CF9363
:10328000DF93982E862E87FD81958A3040F4825FE9
:103290000E94777919140CF4ADC191E020C08A50D6
:1032A000C82ED12C8C3008F4D8C08601000F111F15
:1032B000000F111F02541B4FF8018281882309F46B
:1032C00096C1960122553A4F790134E0361748F4F9
:1032D000F7019081917019140CF48BC181E089275A
:1032E00089C1F801608051800E94E21281111BC0E7
:1032F0008FEF860D0E94B5145C01F8018081853244
:103300006CF09BED792E780E6181872D0E94B72499
:10331000EC01872D0E94A124782E1BC0F801818129
:103320000E941D190CC0823071F48FEF860D0E942F
:10333000B5145C01F801818181500E94B514EC0143
:103340007724739406C077247394C0E0D0E0A12C56
:10335000B12CF801828190E0FC013197EE30F1054B
:1033600008F078C0EA5BFF4F0C94318FB7FE33C092
:10337000B194A194B1082FC0B7FE32C0B194A1940A
:10338000B1082EC0D1E0D80D4D2F60E0862D0E94EF
:103390000A1BC82F4D2F60E0852D0E940A1B982F15
:1033A000F8018281853031F4CC2309F453C09111A6
:1033B0004FC050C0863019F4C1114AC02BC09C27A1
:1033C00029C091E0AC16BD06C9F424C091E0AC164A
:1033D000BD0601F513C091E0CA15DB05DCF00EC097
:1033E00091E0AC16BD06B4F009C091E0AC16BD0684
:1033F0008CF404C091E0CA15DB0564F490E00AC0C7
:10340000F601EE0FFF1FE85AFE4F91819095991F2C
:103410009927991F7720F1F09923E9F0F80183812A
:103420008823A1F089300CF08F5F883F0CF4815025
:103430008C3124F4853E1CF487EF01C089E041E023
:10344000480D60E00E940A1B982F05C091E003C060
:103450007110E4CF90E0F701C8C05601AA0CBB1C64
:1034600085010C0D1D1D0D5C1B4FF80182818F70B5
:1034700009F4BDC0960122553A4F690134E0361770
:1034800010F4F60126CFF801608051800E94E2120C
:1034900081111BC08FEF860D0E94B5147C01F801CD
:1034A000808185326CF0CBED7C2E780E6181872D8A
:1034B0000E94B724EC01872D0E94A124782E1BC006
:1034C000F80181810E941D190CC0823071F48FEFC8
:1034D000860D0E94B5147C01F801818181500E9403
:1034E000B514EC017724739406C077247394C0E07C
:1034F000D0E0E12CF12CF80182818F7090E0FC018A
:103500003197EE30F10508F06EC0EC5AFF4F0C9485
:10351000318FF7FE34C0F194E194F10830C0F7FE2A
:1035200033C0F194E194F1082FC0D1E0D80D4D2FB4
:1035300060E0862D0E940A1BC82F4D2F60E0852D6C
:103540000E940A1B982FF80122812F70253031F438
:10355000CC2309F448C0811144C045C0263019F479
:10356000C1113FC029C09C2727C091E0EC16FD0681
:10357000C9F422C091E0EC16FD06F1F413C091E00D
:10358000CE15DF05CCF00EC091E0EC16FD06A4F0E0
:1035900009C091E0EC16FD067CF404C091E0CE1564
:1035A000DF0554F490E008C0F501E85AFE4F918120
:1035B0009095991F9927991F7720A9F09923A1F039
:1035C000F801828182958F7051F089300CF08F5F05
:1035D00041E0480D60E00E940A1B982F05C091E071
:1035E00003C07110EDCF90E0F601908374CE80E0BF
:1035F00001C0892FDF91CF911F910F91FF90EF9024
:10360000DF90CF90BF90AF909F908F907F906F9002
:103610005F900895882361F08C3119F0843E19F48D
:1036200009C081E008958D312CF4642F0C94321977
:10363000862F089580E0089540E060E080917D0548
:103640000E940A1B811114C080913B0190913C01A2
:10365000892B71F41092610E8091700D9091CC05C0
:10366000981751F08093CC0581E49EE00C944916A4
:1036700081E08093610EF0CF089520913B0130915D
:103680003C012115310511F021503109882319F031
:103690008091940501C080E090913A01992329F02E
:1036A00090919C05891708F4892F4AEF849FC001E7
:1036B0001124880F991F8217930708F4C90190936A
:1036C0003C0180933B010C941C1BCF92DF92EF9244
:1036D000FF920F931F93CF93DF938091710D909181
:1036E000720D9091C905282F291B20933D018093CD
:1036F000C90560E081E398E00E947B5580913D011F
:10370000882309F4C9C2EDE8F8E0878980FF0DC07D
:10371000808D91E0980F908F943638F08356808F8B
:10372000858996890196968B858B8091BF01882328
:1037300019F081508093BF0180E00E947F6E0E944B
:1037400020740E940B79182F482F4F70E42E5AEFE7
:10375000E50EC091EF01C43021F0C33019F4C4E08C
:1037600001C0C8E087E08E1508F4A1C0812F807FDA
:10377000803209F49CC0E091900594E0E99FF0014B
:1037800011248E2D8695E80FF11DE752FC4F049110
:103790008091AC0580FF03C083E0801B082F602F61
:1037A00080912D060E948C15F82E602F0E94AF1577
:1037B0009C01C1110CC0EC0197FF04C0CC27DD2790
:1037C000C81BD90BD595C795D595C795CF5F023046
:1037D00061F48091EE0180FF5DC281E0C2E09091D2
:1037E000920590FF03C0C19501C080E0DD27C7FDB1
:1037F000D095E0FE03C0C20FD31F04C0A9014C1B2B
:103800005D0BEA01209721F09D2F932797FF11C0B0
:1038100081110FC0232B69F040E050E0602F8F2D05
:103820000E94B715812F0E94D37986E10E94A98357
:103830003DC09E0124583F4F293F310580F4AE0121
:10384000602F8F2D0E94B715D7FF03C0D195C1956A
:10385000D109D595C795D595C7954C2F21C01C1674
:103860001D061CF44DE750E002C043E85FEF602FF7
:103870008F2D0E94B715CE0183589F4F8B3F910526
:10388000A8F4D7FF03C0D195C195D109D7FD2396E0
:10389000AE015595479555954795519541955109D7
:1038A000445C65E18DE791E00E94938210E0EFE3D4
:1038B000F1E0809185089091860820813181281B54
:1038C000390B37FF02C0215E3F4F65E035952795E4
:1038D0006A95E1F72115310561F024813581281BB6
:1038E000390B37FF02C02F5F3F4F359527959183E6
:1038F0008083958384838091920585FD04C08091A7
:103900005308882311F020E030E033832283C6EB94
:10391000D1E02D818981821B8F3F09F480E087FDF2
:103920008F5F85958887982F990F920F9D83812BA4
:103930000E943D1B8091A805895FE0914B01F0E05A
:10394000EE0FFF1FE45BFE4F2081318126583B4480
:1039500009F044C028852223B1F09E81332727FD3A
:103960003095290F311D97FD3A952E37310514F00A
:103970009DE705C023389FEF39071CF493E89E8329
:1039800001C02E831886E09159049E2F907E31F15C
:10399000E295E695E770F0E0E430F10554F4EE0FBF
:1039A000FF1FE158F74F208131813C5F60E078E0F4
:1039B0000CC0EE0FFF1FEC56FB4F2081332727FD75
:1039C000309523583F4F6AEF70E047E0429FC001B7
:1039D000439F900D11240E94C88E862F9091C001A4
:1039E00089130E9443168091980587FF3BC0809100
:1039F00057018823B9F1809156018823A9F180915C
:103A0000C80587FD03C08F5F8093C80582E00E94D0
:103A1000F616982F9F7789F02091C805921720F508
:103A20001092C805111120C0182F1095111F1127D1
:103A3000111F83E6811B182F17C083E00E94F61622
:103A4000982F9F7789F02091C805921768F41092FB
:103A5000C805111109C0182F1095111F1127111F2A
:103A60001C5902C01092560181E0809357010091C9
:103A70002D06E090BC01FF24E7FCF094C5E9D4E0FA
:103A80009AE0C92ED12C6881662309F440C06530C4
:103A900030F46150802F0E94AF15BC012BC06530FF
:103AA00041F1E62FF0E0EE0FFF1F6A3048F4E359D2
:103AB000F74F6081718177FF0EC0695F7F4F0BC048
:103AC0006D3078F4E359F74F2081318137FF02C020
:103AD000295F3F4FB901B3E075956795BA95E1F756
:103AE00009C0E15CF74F80819181B6010E94DC8EB4
:103AF00001C0B70163382FEF72072CF06D377105E5
:103B00001CF06DE701C063E8FE01319760832296E7
:103B100044E0C33AD40709F0B6CF8091DB0190911D
:103B2000DC010097B1F060E00E9444150E94248AF5
:103B30009091C705992339F0811125C01092DC01BD
:103B40001092DB0120C08823F1F081E08093C7054B
:103B50001AC01092C705C0914A01CC2331F01092CF
:103B60004A0187E10E94A9831C2F1093B501E091BF
:103B70004B01F0E0EE0FFF1FE45BFE4F0190F08180
:103B8000E02D812F09950E948378C09165008DE713
:103B900091E00E94CA81882311F084E105C08091E0
:103BA000790F882321F081508093790F06C080918E
:103BB0006300869581708093780F8091780F809351
:103BC000D901882309F464C08091980585FD60C0FF
:103BD000CF7EC09365008091700D8F71823009F0A7
:103BE00054C08091DB059091DC05AC01F4E0440FFA
:103BF000551FFA95E1F797FD0796BC01E3E075952F
:103C00006795EA95E1F720917C05332727FD3095EC
:103C10002A5F3F4F629FC001639F900D729F900D7E
:103C20001124840F951F2091920526FD05C06091F7
:103C300000017091010102C060EF70E00E94C88E27
:103C400080913E01680F711D6F5F7F4F759567957D
:103C500060933E018091C605805F8093C605811107
:103C600014C080917B05681780F4623370F06EE2B7
:103C700081E10E94AF838091920583FF06C082E3B9
:103C800090E090933C0180933B0110923A0104C074
:103C9000C0619FCF80E0A3CDDF91CF911F910F91A5
:103CA000FF90EF90DF90CF900895CF93DF93C62FD2
:103CB0002091DA01222339F09093DC018093DB011B
:103CC000DF91CF91089560E00E944415C11103C0B7
:103CD00080917A0501C089E10E943B7867E182E129
:103CE0000E94AF830E94ED14D1E00E94248A8823B1
:103CF00021F0DF91CF910C94ED148091AD0D8330C4
:103D000019F4A8951092AD0D40E060E080917D051A
:103D10000E940A1B811106C080919405811102C086
:103D2000CC2329F0D093610E0E941C1BDECF109291
:103D3000610EFACF90914B01911103C0811106C021
:103D40000CC0811103C08FEF890F01C080E0809308
:103D50004B018EEB80934A01089560E08FE492E07E
:103D60000C94551EE0914B01E43028F060E082E4B1
:103D700092E00C94551E2FEB20934A01EF5FE093E5
:103D80004B01F0E0EE0FFF1FE45BFE4F9183808359
:103D900008951F93CF93DF93CAEAD4E090E088811F
:103DA00011E0190F882341F040E060E00E940A1BF7
:103DB000882311F0812F05C0912F2A96143079F7AE
:103DC00080E0DF91CF911F910895AF92BF92CF9283
:103DD000DF92EF92FF920F931F93CF93DF93109296
:103DE0008B0880912801C2B7909128018913F9CFDF
:103DF000D0E0D82B809159048F7160E1F62EF81A2B
:103E00000E9467171EE517B90E94CE160E94651B17
:103E100017B9369A3699FECF84B195B10496409180
:103E200000015091010167E0649F9001659F300D92
:103E30001124820F931F53E0969587955A95E1F7C9
:103E400090930101809300018091AD0D833019F4AE
:103E5000A8951092AD0D2091280182B7909128016C
:103E60002913F9CF90E0922B8C1B9D0B2091100110
:103E7000309111012817390720F490931101809394
:103E8000100180910D01882309F4BEC18091C20503
:103E90009091C30501969093C3058093C205CF2CE2
:103EA000F7E1FC1508F47EC00C2D10E0E801CC0F02
:103EB000DD1FC65ADB4F8FE08C1528F4E801CC0FCC
:103EC000DD1FC254DB4F8881D82ED294D69427E0D0
:103ED000D222E98095E09D1550F0EAEFEE1538F416
:103EE000EE2DF0E0EE0FFF1FEC55FD4FE0808F71DF
:103EF00009F456C040E060E00E940A1BB82E809191
:103F00000D010F531E4F823009F448C08D2D85706E
:103F100051F4F8018081811106C0BB2021F08E2D63
:103F200090E00E9425168FEF8D0D823058F4F80135
:103F30008081813099F5B11031C0F2E0DF122AC0E2
:103F4000E39428C085E08D1550F4F801808181113B
:103F500025C0BB2019F189810E9491251FC0F2E084
:103F6000FD15E0F4BB20D1F084E0D81631F095E0E7
:103F7000D91631F066E970E005C06CE271E002C06C
:103F800068E572E08091C2059091C3050E94C88ED9
:103F9000892B21F48E2D90E00E942516F801B08225
:103FA000C3947ECFD3E3CD2ED4E0DD2E08E511E01F
:103FB000F601E2808E2D8F700E94E2128330E1F5CF
:103FC000F801C081D181209771F4F601C081C7FD4D
:103FD00006C0C095FAE0CF02E001112419C0DD2728
:103FE000C7FDD09515C0D7FF12C0219689F4F60100
:103FF000C181C7FD06C0CF5FFAE0CF02E001112406
:1040000006C0DD27C7FDD095C095D09501C021978A
:104010008E2D807F71F08E2D82958F7089300CF0FF
:104020008F5F40E060E00E940A1B811102C0CFEF69
:10403000DFEFF801D183C083F3E0CF0ED11C0E5F18
:104040001F4F81E00037180709F0B2CFC0E7CC2E30
:10405000C1E0DC2E00E010E0F801E352FE4F5F010A
:10406000ED5EFC4F80810E94E212833009F04AC06D
:10407000F601C081D181209781F4F501EF5EFC4FFC
:10408000C081C7FD06C0C095FAE0CF02E00111244F
:104090001BC0DD27C7FDD09517C0D7FF14C02196E0
:1040A00099F4F501EE5EFC4FC081C7FD06C0CF5FFD
:1040B0008AE0C802E001112406C0DD27C7FDD095C3
:1040C000C095D09501C02197F501EC5EFC4F808131
:1040D0008823A9F089300CF08F5F883F0CF4815061
:1040E000863124F48B3E1CF487EF01C089E040E068
:1040F00060E00E940A1B811102C0CFEFDFEFF601E2
:10410000D183C0830C5F1F4FF2E0CF0ED11C08316A
:10411000110509F0A1CF10920D018091CA048823E6
:1041200009F472C040E060E08091CB040E940A1B59
:10413000882309F469C08091C105882319F0815052
:104140008093C1058091C10581115EC08091CA0430
:10415000813081F487E20E94CE18EC016091CC049A
:104160006695669570E062307105D4F00E94DC8E31
:10417000EB0116C081E00E94CE18805891099C0185
:104180002E5F3F4F2530310510F480E090E0209104
:10419000CC0426952695289FE001299FD00D112457
:1041A0002097E9F0D7FF0AC0D195C195D109809138
:1041B000CC0480FD09C046E462E202C046E461E24C
:1041C0008DE791E00E949382CB34D105A4F0CD37E6
:1041D000D1059CF0CF3AD10594F484E013C08091CE
:1041E000CC0480FD0EC046E461E28DE791E00E94C0
:1041F000938284E107C088E005C086E003C082E0C6
:1042000001C080E08093C10580910B01882309F4EF
:10421000FEC08091470F882309F44FC08091E901C7
:10422000807CD9F0803819F4C0E9D1E002C0CAE737
:10423000D0E00E94D9186AE070E00E94DC8ECB01C9
:104240002091E90123FD03C025FD0E940424C81725
:10425000D9071CF481E00E94A98300E01CED90E0E6
:10426000C0E0D0E08091720E0817B0F4E02FF0E0CB
:10427000ED58F14F8081C80FD11D811708F4182F18
:10428000911107C020915704821720F48DE10E94FC
:10429000A98391E00F5FE6CFCE0165E070E00E9458
:1042A000C88E7093EE0E6093ED0E1C3D31F0812FA1
:1042B00090E09093EA0E8093E90E8091480F882356
:1042C00029F180910605882309F120918304222396
:1042D000E9F08091EB0E9091EC0EB6E09595879504
:1042E000BA95E1F730E08217930784F080919B053F
:1042F00081FF05C081E390E00E94251607C046E4D7
:10430000609184048DE791E00E9493822091C00522
:104310002F5E822F8F7090E00C970CF0207F2093FF
:10432000C005CDEDD1E0D12C822F8073C82E922F05
:104330009F70B92EE22FE07FAE2E2077E22EDF14A1
:1043400009F45CC08E0103581D4FF8018081982F3D
:10435000907C9034D9F4C11019C0880F880F40E0C8
:1043600060E0859585950E940A1B882379F08091ED
:104370009B0580FF05C0FE01E258FD4F608101C032
:1043800061E046E48DE791E00E949382F80180812C
:10439000982F907C903879F5880F880F85958595B2
:1043A0008D31CCF0992787FD90954D9781309105FF
:1043B00029F0029731F0E1101EC006C0B1101BC0F9
:1043C00003C0F0E2AF1217C0FE01E258FD4F80813A
:1043D0000E94912510C0C1100EC040E060E00E9414
:1043E0000A1B882341F0FE01E258FD4F808180586E
:1043F00090E00E942516D3942296A1CF10920B0133
:1044000080915601882319F0815080935601DF91E5
:10441000CF911F910F91FF90EF90DF90CF90BF90C1
:10442000AF9008950F931F93CF93DF93F8948091EB
:10443000710D9091720D78942091CA053091CB0541
:10444000AC01421B530B4B30510520F01092DD059F
:1044500001E001C000E09093CB058093CA05D8E04D
:1044600010E8CD2F40E060E08D2F0E940A1B002352
:1044700041F08823E1F08091DD05812B8093DD05FB
:1044800016C0811102C090E001C0912F2091DD057E
:104490009227912361F012271093DD05811102C04C
:1044A000CD2FC19586E08C0F833038F004C016956F
:1044B000D150B9F602C0C1110BC060E089E00E9482
:1044C0003219811102C0C0E001C0C9E00111C0E091
:1044D0008C2FDF91CF911F910F910895AF92BF92D2
:1044E000CF92DF92EF92FF920F931F93CF93DF93C0
:1044F0008C017B016A01A22EB090B5019B2D9F7D9E
:10450000943439F080915708882309F48FC093348C
:1045100039F4E801219683E10E94A98385E00BC06C
:10452000953419F0923409F084C0E801219784E1B0
:104530000E94A98384E00E94777981116CC0E11404
:10454000F10401F581E0C816D104E1F480E6B81663
:1045500019F08EE2B81212C010925708C1E001158E
:10456000110509F0C0E0D0E08B2D0E94D3798EE2D6
:10457000B81207C081E080938C0803C0C170DD27AA
:1045800001C0B12CA3FE08C00E941222882321F092
:10459000C82FDD27C7FDD0954091410150914201C0
:1045A000C41BD50B80918C08833031F48091BE01FF
:1045B000C80FD11D87FDDA95CC16DD0644F48B2D8E
:1045C0000E94D37983E10E94A983E6010AC0CE1537
:1045D000DF053CF48B2D0E94D37984E10E94A983EE
:1045E000E701C017D107A1F0209751F48B2D0E944D
:1045F000C37917FF02C083E101C084E10E94A9834F
:104600008A2D83700E94236E81E08093490113C03C
:104610001092490110C0CC27DD27C01BD10B85E0CB
:104620000E94D37984E00E94D37989CF953409F42C
:104630007CCFE80184CFCE01DF91CF911F910F9104
:10464000FF90EF90DF90CF90BF90AF9008955527E7
:1046500047FD5095772767FD7095992787FD9095C1
:104660000E946E22089522E00C942723462F22E018
:1046700060E00C94272321E00C942723462F21E0AF
:1046800060E00C942723462F50E022E060E070E0C9
:104690000C946E22282F30E0883058F028503109D1
:1046A00049E0429FC001439F900D112485519C4FCA
:1046B000089545E0429FC001439F900D11248D5302
:1046C0009C4F0895CF93DF93D82F9091AB0DC92FB6
:1046D000C17090FF03C065E772E102C063E672E15A
:1046E00088E10E945375D13629F41092AB0D80E019
:1046F0000E949A1EC11109C04091A70E5091A80EA8
:1047000024E060E388E40E94AF778091F60881504E
:104710008093F608811105C081E0DF91CF910C9460
:10472000A983DF91CF910895813649F40E94D3790E
:1047300081E00E949A1E8FE797E50E94B21E65E312
:1047400073E180E10E9453756FE173E180E20C94A4
:1047500053751F93CF93DF93182FD62FC42FB90112
:104760000E945375DD2329F06FE08C2F0E943623C1
:10477000C82F8091EE014C2F83FF02C0440FD062FE
:1047800050E02D2F612F80E60E94AF778C2FDF91B4
:10479000CF911F910895FF920F931F93CF93DF93B3
:1047A000182FF62E0AE08AE0189FE0011124C95064
:1047B000DE4F2FE130E0211B3109029FA001039F52
:1047C000500D1124BE01CE010A960E94568FFF2083
:1047D00049F0BE016A5071094AE050E0CE010E94E2
:1047E000568F0AC0FE0111920A95E9F780910609D9
:1047F0008883898384E68A8310930809DF91CF91A7
:104800001F910F91FF9008959C01220F331F280FD5
:10481000391F9595879595958795280F391F9595FB
:1048200087959595879595958795820F931F089500
:10483000429643E7489F9001499F300D1124C901DA
:10484000E6E095958795EA95E1F70895CF92DF9296
:10485000EF92FF920F931F93CF93DF937B018A0117
:1048600090918B08963008F061C09F5F90938B0801
:104870009BE0899FE0011124C05EDA4F8881882384
:1048800049F081500E94B5149C01442737FD4095A2
:10489000542F03C020E030E0A901DE80ED2DE87048
:1048A000CE2ED3FC0AC089819A81AA2797FDA095B4
:1048B000BA2F280F391F4A1F5B1FAB81B0E011963A
:1048C0000E94A28E2C8130E02F5F3F4F442737FD9E
:1048D0004095542F0E94128FCC2051F089819A81EB
:1048E000AA2797FDA095BA2F280F391F4A1F5B1FD3
:1048F000D0FE07C050954095309521953F4F4F4FC2
:104900005F4FE114F10419F08D81F70180830115E7
:10491000110529F08E8186958370F801808380913E
:104920008B08815080938B08C90102C080E090E021
:10493000DF91CF911F910F91FF90EF90DF90CF907B
:104940000895E82FF0E0EA53F74EE491EE2369F082
:10495000E13021F48091480F811107C081E09091EE
:10496000470F911103C080E0089581E00895E82F7A
:10497000FF27E7FDF095ED50F64EE491262F332703
:1049800027FD3095C90183589F4FEC3009F44AC088
:104990009CF4E43021F14CF4E53F09F454C00CF4EC
:1049A0005CC0EE5FE230C8F00895E630C1F00CF470
:1049B00054C0EA30FCF50895E43209F43FC044F4F1
:1049C000EE300CF44AC0E031CCF1E332C9F1089585
:1049D000E732B4F1E732E9F108952AE024C08034E7
:1049E00091059CF0880F991F80549109813C910595
:1049F00064F0880F991F805C9109813C51E0950714
:104A000024F0880F991F885E91402AE0AC01249F12
:104A1000C001259F900D11242091E90125FF1DC0A3
:104A20000C94042424E6AC01249FC001259F900D22
:104A300011240895C901815A9F4F089522E3F3CFAD
:104A4000880F991F0895F3E0880F991FFA95E1F7F1
:104A500008955AE06502C00111240895CF93DF93B1
:104A6000E82FFF27E7FDF095ED50F64E8491853F46
:104A7000C9F486E20E94CE18EC0180E20E94CE18B2
:104A8000D595C7959C0135952795C29FC001C39FB9
:104A9000900DD29F900D112469E170E00E94DC8E90
:104AA000CB013CC0863F4CF440E050E060E070E059
:104AB000815FDF91CF910C9426248D3F54F4E82F31
:104AC000EE0FFF0BE855FB4F8081992787FD9095EE
:104AD00025C08F3F09F044F48E3F84F48D3FD1F41C
:104AE00080913E0190E01AC0843081F0833291F4CD
:104AF00083E20E94CE18880F991F10C0E82FEE0F96
:104B0000FF0BEF56F74F8389948908C0DF91CF914F
:104B10000C94D918DF91CF910C94CE18DF91CF91DE
:104B20000895CF92DF92EF92FF920F931F93CF934E
:104B3000DF9300D01F92CDB7DEB7082F1B821A82F9
:104B400019820E942E257C01802F0E94A1248111B0
:104B500005C08AE30E94401611E001C010E0E02F7A
:104B6000FF27E7FDF095ED50F64E849182300CF56D
:104B700087FF5CC08D3FD4F4863F0CF04DC0813F71
:104B80000CF4B5C0853F0CF0A7C0AE014E5F5F4F7F
:104B9000BE016D5F7F4F815F0E9426247C01EB8107
:104BA000F0E0EF5DF64EE491EB83A1C08D3F31F56F
:104BB0001DC08332F1F07CF48C303CF48A300CF070
:104BC00080C0843009F459C092C0803209F08FC08F
:104BD00081E08A8374C0873209F481C01CF4853275
:104BE0002CF485C08C3209F462C081C084E28B83CE
:104BF0005CC084E28B8382E08A8379C06CE370E0DE
:104C0000C7010E94DC8E6B017C0146E260E0C601B8
:104C10000E94B88385E361C0E82FEE0FFF0BE855D3
:104C2000FB4FE080FF24E7FCF09461C094E0890230
:104C3000F0011124E658FB4F038102950695069575
:104C40000370D08041E0023009F040E09E012F5F08
:104C50003F4F682FC7010E94EC137C0184E28B83D5
:104C600081E08A83033059F1013019F41B821A82E2
:104C70003EC083E68D15D8F1BECF88E38B8390913B
:104C8000E901892F807293FF03C0882349F006C091
:104C9000882331F0C7010E9404247C0188E18B83C2
:104CA00098EEE91693E0F906E4F481E0A5CF80914F
:104CB000E90185FF1CC0C7010E9404240BC083E3E7
:104CC0000CC08FE28B838091E90185FF10C0C70182
:104CD0000E9418247C010BC08BE38B8308C081E009
:104CE0008A83C7016AE070E00E94DC8E7B011111AB
:104CF00005C04B816A81C7010E94B8830F900F9055
:104D00000F90DF91CF911F910F91FF90EF90DF9067
:104D1000CF9008956F927F928F929F92AF92BF92A1
:104D2000CF92DF92EF92FF920F931F93CF93DF9377
:104D300000D0CDB7DEB7F82E962E6901102F8E2C3D
:104D400080E28A83A42EBB24A7FCB0948E2D8170B0
:104D5000E82E80FE26C0F501ED50F64EE491E15FAD
:104D6000E43008F00FC18BE0E89FF0011124DF016F
:104D7000A95DBA4F8C91882309F404C1AD0100E10B
:104D800024E08F2D0E94FA7412FD04C0E8E17E2E0B
:104D90007F0C08C07CE1772E7F0C88EF980E0CE02A
:104DA00002C07F2C06E0882D8870682E83FC1F7B54
:104DB000F501ED50F64EA49084E0A81609F495C0D4
:104DC0008A15DCF08DEFA81609F4A7C08A1564F0E7
:104DD00081EFA8160CF4ABC084EF8A1594F585EF2B
:104DE000A812A5C087E79BC08FEF8A150CF045C0BD
:104DF00081E08A150CF058C09AC080E2A81609F428
:104E000089C08A156CF086E0A81609F46EC0A81651
:104E10000CF48DC0E6EFEA0DE23008F458C087C00C
:104E200086E28A154CF085E2A8160CF076C083E283
:104E3000A8127DC0106372C087E2A81278C0106209
:104E400070C0AE014F5F5F4FBE016E5F7F4F8FE05E
:104E50008A0D0E9426242981213011F4106203C09A
:104E6000223009F41063EA81F0E0E75EF64EE49147
:104E7000EA8387FCC6016C015AC012FD02C08CEFA8
:104E8000780EEE2011F08AE0780E1770012F212F96
:104E9000A601692D8AEF870D0E945577E3E3EA0D9D
:104EA000EA838AEFF80E4CC0912F90684C2D662053
:104EB00019F08DE38F0D02C0872D801BEE24E39443
:104EC000092F2A2D692D0E9434148A8339C083E466
:104ED0008A838091E90185FF2AC0C6010E941824B7
:104EE0006C0186E48A83701A22C08DE68A838091E1
:104EF000E90185FF08C083FD04C0C6010E940424A7
:104F00006C0186E68A8388EEC81683E0D8064CF4E6
:104F100010620DC0106281E402C0106286E78A83CD
:104F200006C0C6016AE070E00E94DC8E6B0166205C
:104F300099F18DE38F0D212FA601692D0E94AF7786
:104F4000882D867069F082FE04C08AE08F0D1B7F79
:104F500002C080916F0D212F4A81692D0E946C74CF
:104F60008A810F900F90DF91CF911F910F91FF9049
:104F7000EF90DF90CF90BF90AF909F908F907F90F9
:104F80006F90089521E0240F00E04CE15AE1692D73
:104F90008F2D0E941F75F8CE872DCDCF0F931F93B5
:104FA000CF93DF93C82FD62F042F122F4CE058E158
:104FB0000E94337540E3400F212F6D2F8CE08C0F42
:104FC000DF91CF911F910F910C946C74DF92EF924F
:104FD000FF920F931F93CF93DF93182FF62EC42FBA
:104FE000D22EDE2DD370A1F08091B501803881F4EE
:104FF0008DE7840F8B3F40F0E42FF0E0EE0FFF1FB2
:10500000E856FC4FC08101C0CEE782E00E94236ECB
:105010008DE78C0F2E2D8B3FA0F043E84C0F6F2DAA
:105020008EEE810F0E94CE27DD2309F122E042E8B7
:1050300050E06EE770E08C2F90E00E946E22C82F47
:1050400016C04C2F552747FD50956F2D812F0E947C
:10505000AF77DD2361F0402F6D2D8C2FDF91CF9145
:105060001F910F91FF90EF90DF900C9433238C2FC2
:10507000DF91CF911F910F91FF90EF90DF900895F6
:10508000CF93DF939EE0899FE0011124C957DC4F45
:1050900040E060E08C850E940A1B882349F040E0D4
:1050A00060E08D850E940A1B811104C081E003C06D
:1050B00080E001C082E0DF91CF910895EF92FF92EE
:1050C0000F931F93CF93DF93F82EE62EC42FD42F88
:1050D000D695062F0D1B182F1D1B602F812F0E94A8
:1050E000FE756D2F6E0D4C2F812F0E94FB754C2F7E
:1050F000602F8D2F8F0D0E94FE754C2F602F812FFA
:10510000DF91CF911F910F91FF90EF900C94FB7561
:1051100021E0AC0160E080E00C9433750F931F93A5
:10512000CF93DF93182FCDE8D8E084E79CE00E946E
:105130008828113678F0133628F0133659F485E4B0
:1051400099E202C086E89BE4DF91CF911F910F9115
:105150000C9411166BE67CE088E00E9453754A813E
:105160005B8100E020E068E08AE20E9455774C8194
:105170005D8120E068E08EE40E94557762E67CE085
:1051800080E10E9453754E815F8120E060E18AE2F8
:105190000E94557748855985B4E056954795BA954C
:1051A000E1F720E060E18EE40E9455776DE57CE058
:1051B00080E00E9453754881598120E060E08EE4D0
:1051C0000E9455774EE76CE382E00E94FB7543E254
:1051D0006CE185E00E94FE75CBE043E06BE38C2F31
:1051E0000E94FE75CA5FC338C1F71091AF07809166
:1051F000AE07893710F4C0E001C0C12FD6E00CE340
:10520000EC2FF0E0E055F84F4081602F641B8D2FAC
:105210000E94FE75CF5FC83708F0C0E0C11719F0D3
:10522000DF5FDE3769F7DF91CF911F910F9108950E
:1052300091E0211101C090E0442319F049EE53E0C0
:1052400002C04DEE53E0292F0C9433750F9301E00B
:10525000211101C000E0242F44E058E10E941F7595
:105260000F9108950F931F93CF93DF93182FEA01A7
:10527000022F0E945375202FAE01612F84E5DF912C
:10528000CF911F910F910C94AF771F93CF93DF9322
:10529000182FCEE0D1E082EC9CE00E9488281136E5
:1052A000A1F058F41036C1F48FEF888319821B8265
:1052B0001A8287E10E94A9830FC0123619F01336B3
:1052C00021F00AC08EE898E202C086E89BE4DF91F4
:1052D000CF911F910C9411164981469550E020E022
:1052E00063EB7CE088E00E9432294881469550E0DB
:1052F00020E064EA7CE080E10E943229498150E0AC
:105300008881481B510957FF02C04F5F5F4F559579
:10531000479520E065E97CE088E10E9432298A8196
:105320009B8129E1289FA001299F500D11245695AA
:1053300047955695479520E36CE87CE080E20E9413
:10534000322969E77CE088E3DF91CF911F910C94CB
:1053500053757F928F929F92AF92BF92CF92DF92BE
:10536000EF92FF920F931F93CF93DF93EC01162FD1
:10537000D42E4901B09030084091810850918208A4
:105380002091830830918408EFE3F1E086819781D2
:10539000841B950B97FDCF96A6E095958795AA95CA
:1053A000E1F7682F8093540880859185821B930BC9
:1053B00097FDCF9676E0959587957A95E1F7982FAA
:1053C00080935208662311F057834683992311F086
:1053D0003187208780915308811104C08091920504
:1053E00085FF06C01092540810925208109253087C
:1053F00020915408211108C080915208811104C0E5
:1054000082819381892B61F0809194053AEF839F8B
:10541000C0011124880F991F90933C0180933B0198
:1054200081149104B1F1888181119EC180918C0811
:10543000882309F4A4C1813009F4B3C12111B8C192
:10544000153609F4D8C1143609F4DFC177247394F2
:1054500080918C08811102C092E0792E402F50E09B
:10546000272D60E08FE70E94AF770A3008F485C1EE
:105470000FE6272D4FE260E0802F0E946C744D2DC7
:1054800050E04F5F5F4F272D60E08FEF800F0E944D
:10549000AF77E114F10451F098818C2D9C1508F43C
:1054A000892FF701E80FF11DE49101C0E0E0809140
:1054B0008C08813081F58091BE0118166CF4BE16FF
:1054C00010F4B39411F588818A1518F48F5F8883DE
:1054D00001C01882B12C19C08823B9F0B11014C0D2
:1054E0008881882319F08150888301C0A882E11443
:1054F000F10459F098818C2D9C1508F4892FF7013F
:10550000E80FF11DB49001C0BA941092BE011E3292
:1055100049F483E005C0833029F41E3219F481E098
:1055200080938C08E114F10451F098818C2D9C1526
:1055300008F4892FF701E80FF11D549101C050E0E4
:1055400080915708811145C080915208882301F14C
:105550004881481B47FD40E08A2D90E0242F3327E7
:1055600027FD3095281739070CF04A2D4883E114A0
:10557000F10459F0C41608F44C2DF701E40FF11DA5
:10558000E491EB1518F4BE2E01C0B12C1092520814
:1055900028812223F1F0809154088823D1F0B81A91
:1055A000B7FCB12C8B2D992787FD9095E114F10460
:1055B00079F03C2D2C1508F4322FF701E30FF11D83
:1055C000E4912E2F30E0821793071CF0BE2E01C00D
:1055D000B12C103669F190F4123409F473C028F438
:1055E0001132A9F11E3221F197C0143409F446C0DA
:1055F00008F476C0153409F451C08EC0153609F48C
:1056000051C040F4133609F46EC0D8F5123609F4CF
:105610005CC082C01E38C1F01F3B31F0113809F068
:105620007BC01092570821C018821092570838C0CA
:105630008881882309F470C081E090915708911106
:1056400080E08093570868C08EE80E94D3798091EB
:105650005708882319F0109257085EC08881882364
:1056600011F0892831F410928C0880E00E949A1E73
:1056700053C087E10E94A98318824EC0B51609F471
:105680004BC0EF2809F448C080915708811144C0ED
:10569000B51610F4B39411C0B12C0FC0B11002C0F4
:1056A000B12C3AC0EF28C1F180915708811134C064
:1056B000BB2011F0BA9401C0B52E552369F11092A8
:1056C000B5012AC088818A1539F180915708811166
:1056D00023C088818A1510F48F5F0DC018820EC018
:1056E00088818823C9F080915708811115C088816D
:1056F000882319F08150888301C0A882E114F10445
:1057000079F288818C1508F4C82EF701EC0DF11D93
:10571000E490EB1408F4BE2C2091570821110AC024
:1057200031E08091410190914201892B09F430E0F0
:10573000832F01C081E080935608B0923008222365
:1057400011F082E001C081E080935108DF91CF9198
:105750001F910F91FF90EF90DF90CF90BF90AF908F
:105760009F908F907F90089580915708811103C07A
:1057700081E080938C08712C6BCE05E77ACE809106
:10578000BE01181624F0882319F015E601C014E6AE
:105790001092BE011E3209F051CE81E080938C0838
:1057A00005C01E3209F04ACE10928C0810E046CE99
:1057B00080915708811144CEED2DE21BE7FDE0E01A
:1057C000202F30E08E2F992787FD90958217930721
:1057D00014F0EFEFE00FFF27E7FDF0958D2D90E03F
:1057E000E817F90729F0EE0FFF1FE80DF91D1EC09D
:1057F0001092540825CED11001C0D02EF401ED0D29
:10580000F11DED0DF11D329711C02D2D30E0802FCF
:1058100090E00197281739071CF411E01D0D01C015
:1058200010E0810E911C810E911CF40185919491E0
:10583000DF91CF911F910F91FF90EF90DF90CF906C
:10584000BF90AF909F908F907F900C941116AF9265
:10585000CF92EF92FF920F93AE2CC12CE12CF12C42
:105860000E94A9290F91FF90EF90CF90AF900895DB
:10587000CF92DF92EF92FF920F931F93CF93DF931C
:10588000C82F88E69FE00E948828EE24E39406E073
:1058900025E538E144E06C2F8DEE98E00E94272C3E
:1058A0001091ED0810925701D0E0C0E0C12C04E047
:1058B000D02EE12CF12C41E46D2F88E10E94F77489
:1058C00041E34C0F6D2F8EE10E94F7748C2F0E94E4
:1058D0001F17AC016D2F8AE20E945C75C43028F45A
:1058E0008C2F0E94D512815003C0C730B9F08C2F85
:1058F000E82FF0E0EE0FFF1FE758F74FA081B181CE
:1059000024E630E00E94908EA70196010E94128F3B
:10591000A9016D2F8AE50E94D9770BC0113021F4BF
:1059200040915108406201C040E26D2F8AE50E941B
:10593000D477CF5FD85FC83009F0BDCF64E67FE091
:1059400088E20E945375409100015091010160E38B
:1059500088E70E94D977113071F410935308809131
:105960005708882341F04FE761E880917C050E9449
:105970003B2380937C05DF91CF911F910F91FF9086
:10598000EF90DF90CF900895EF920F93CF93C82FB1
:105990008FE29FE00E948828E12C06E025E538E1AF
:1059A00042E06C2F8BEE98E00E94272C6AE778E0AB
:1059B00080E10E94537568EA78E088E10E9453759F
:1059C00067E978E080E20E94537568E878E088E251
:1059D0000E94537566E678E080E3CF910F91EF90D7
:1059E0000C9453752F923F924F925F926F927F92D9
:1059F0008F929F92AF92BF92CF92DF92EF92FF92DF
:105A00000F931F93CF93DF9300D000D000D0CDB77A
:105A1000DEB7D82E88EC97E10E94882867E0A62E92
:105A200076E0C72EE1ECEE2EE7E1FE2E0DE021E65A
:105A300038E149E06D2D80E099E00E94A92970903D
:105A40000009109130088EED8D0D843028F480917E
:105A5000570881110E94188A209151082A836BEB04
:105A600077E188E00E9453758091E90183FB8827E4
:105A700080F931E0731212C0111110C061E00E9470
:105A80003623982F91702091E90190FB23F9209300
:105A9000E901913029F41092880402C000E001C0AD
:105AA00001E0282F4FEA57E168E084E20E941F7569
:105AB0008091880491E079120EC0113061F461E0A8
:105AC0000E943623809388049091E90193FF05C0DA
:105AD0001092880402C000E001C001E0282F43EAD0
